:040000004CEF00F0D1
:100008005082D9CF0AF0DACF0BF00E0133A10FEFEF
:1000180000F011EF00F018EF00F0010E0001B16FD1
:1000280019EC1DF00E01339133AB1DEF00F01FEFFB
:1000380000F024EF00F0010E0001B06F0E01339BB9
:1000480037A729EF00F02BEF00F02EEF00F0E35177
:10005800DFEC1EF00E0137A534EF00F036EF00F0AC
:1000680046EF00F0F2EC1EF00E01E46F6FEC1FF0AB
:100078000009D8A442EF00F044EF00F046EF00F08A
:100088000E012D950BC0DAFF0AC0D9FF509211005E
:0400980090EF1DF0D8
:100E000000002DC01FF02EC020F02FC021F030C0F8
:100E100022F039C023F03AC024F03BC025F02EEC7C
:100E200018F0050E3D6E0F0E3C6EF10EE82EFED74B
:100E30003C2EFCD73D2EFAD700002DC01FF02EC04F
:100E400020F02FC021F030C022F039C023F03AC08A
:100E500024F03BC025F02EEC18F0050E3D6E0F0E71
:100E60003C6EF10EE82EFED73C2EFCD73D2EFAD775
:100E700000002DC01FF02EC020F02FC021F030C088
:100E800022F039C023F03AC024F03BC025F02EEC0C
:100E900018F0050E3D6E0F0E3C6EF10EE82EFED7DB
:100EA0003C2EFCD73D2EFAD700002DC01FF02EC0DF
:100EB00020F02FC021F030C022F039C023F03AC01A
:100EC00024F03BC025F02EEC18F0050E3D6E0F0E01
:100ED0003C6EF10EE82EFED73C2EFCD73D2EFAD705
:100EE00000002DC01FF02EC020F02FC021F030C018
:100EF00022F036C023F038C024F07DEC1BF092ECD9
:100F00001FF03550020DF3CF3CF0F4CF3DF03C50D4
:100F10003324D96E3D503420DA6E90EC1EF0DE5052
:100F20000C5CDE500D58D8A098EF07F09AEF07F050
:100F300081EF07F02DC01FF02EC020F02FC021F050
:100F400030C022F038C023F0F9EC1AF035C040F080
:100F500056EF0AF0400640503124D96E000E322080
:100F6000DA6EDE04D8A4B7EF07F0B9EF07F0F3EFBD
:100F700007F02DC01FF02EC020F02FC021F030C090
:100F800022F039C023F03AC024F03BC025F02EEC0B
:100F900018F0050E3D6E0F0E3C6EF10EE82EFED7DA
:100FA0003C2EFCD73D2EFAD700002DC01FF02EC0DE
:100FB00020F02FC021F030C022F039C023F03AC019
:100FC00024F03BC025F02EEC18F0050E3D6E0F0E00
:100FD0003C6EF10EE82EFED73C2EFCD73D2EFAD704
:100FE000000021EF0AF040503124D96E000E32206B
:100FF000DA6E020EDE18D8A400EF08F002EF08F057
:101000003CEF08F02DC01FF02EC020F02FC021F0C3
:1010100030C022F039C023F03AC024F03BC025F0A4
:1010200044EC17F0050E3D6E0F0E3C6EF10EE82EEF
:10103000FED73C2EFCD73D2EFAD700002DC01FF066
:101040002EC020F02FC021F030C022F039C023F094
:101050003AC024F03BC025F044EC17F0050E3D6E7D
:101060000F0E3C6EF10EE82EFED73C2EFCD73D2E27
:10107000FAD7000021EF0AF040503124D96E000E5B
:101080003220DA6E030EDE18D8A449EF08F04BEFD9
:1010900008F0BDEF08F02DC01FF02EC020F02FC0CB
:1010A00021F030C022F039C023F03AC024F03BC018
:1010B00025F02EEC18F0050E3D6E0F0E3C6EF10E75
:1010C000E82EFED73C2EFCD73D2EFAD700002DC0CF
:1010D0001FF02EC020F02FC021F030C022F039C008
:1010E00023F03AC024F03BC025F02EEC18F0050E9A
:1010F0003D6E0F0E3C6EF10EE82EFED73C2EFCD757
:101100003D2EFAD700002DC01FF02EC020F02FC0BA
:1011100021F030C022F039C023F03AC024F03BC0A7
:1011200025F02EEC18F0050E3D6E0F0E3C6EF10E04
:10113000E82EFED73C2EFCD73D2EFAD700002DC05E
:101140001FF02EC020F02FC021F030C022F039C097
:1011500023F03AC024F03BC025F02EEC18F0050E29
:101160003D6E0F0E3C6EF10EE82EFED73C2EFCD7E6
:101170003D2EFAD7000021EF0AF040503124D96EFD
:10118000000E3220DA6E040EDE18D8A4CAEF08F082
:10119000CCEF08F016EF09F02DC01FF02EC020F0A4
:1011A0002FC021F030C022F039C023F03AC024F023
:1011B0003BC025F02EEC18F0050E3D6E0F0E3C6E78
:1011C000F10EE82EFED73C2EFCD73D2EFAD70000BC
:1011D0002DC01FF02EC020F02FC021F030C022F013
:1011E00039C023F03AC024F03BC025F02EEC18F0B3
:1011F000050E3D6E0F0E3C6EF10EE82EFED73C2E16
:10120000FCD73D2EFAD700002DC01FF02EC020F0D5
:101210002FC021F030C022F036C023F037C024F0B8
:1012200038C025F051EC16F0AFEF08F040503124F3
:10123000D96E000E3220DA6E050EDE18D8A423EF28
:1012400009F025EF09F06FEF09F02DC01FF02EC057
:1012500020F02FC021F030C022F039C023F03AC076
:1012600024F03BC025F044EC17F0050E3D6E0F0E48
:101270003C6EF10EE82EFED73C2EFCD73D2EFAD761
:1012800000002DC01FF02EC020F02FC021F030C074
:1012900022F039C023F03AC024F03BC025F044ECE2
:1012A00017F0050E3D6E0F0E3C6EF10EE82EFED7C8
:1012B0003C2EFCD73D2EFAD700002DC01FF02EC0CB
:1012C00020F02FC021F030C022F036C023F037C00C
:1012D00024F038C025F051EC16F0AFEF08F0405084
:1012E0003124D96E000E3220DA6E060EDE18D8A434
:1012F0007CEF09F07EEF09F0C8EF09F02DC01FF078
:101300002EC020F02FC021F030C022F039C023F0D1
:101310003AC024F03BC025F02EEC18F0050E3D6ECF
:101320000F0E3C6EF10EE82EFED73C2EFCD73D2E64
:10133000FAD700002DC01FF02EC020F02FC021F0E2
:1013400030C022F039C023F03AC024F03BC025F071
:101350002EEC18F0050E3D6E0F0E3C6EF10EE82ED1
:10136000FED73C2EFCD73D2EFAD700002DC01FF033
:101370002EC020F02FC021F030C022F039C023F061
:101380003AC024F03BC025F02EEC18F0AFEF08F087
:1013900040503124D96E000E3220DA6E070EDE186E
:1013A000D8A4D5EF09F0D7EF09F021EF0AF02DC04E
:1013B0001FF02EC020F02FC021F030C022F039C025
:1013C00023F03AC024F03BC025F044EC17F0050EA2
:1013D0003D6E0F0E3C6EF10EE82EFED73C2EFCD774
:1013E0003D2EFAD700002DC01FF02EC020F02FC0D8
:1013F00021F030C022F039C023F03AC024F03BC0C5
:1014000025F044EC17F0050E3D6E0F0E3C6EF10E0C
:10141000E82EFED73C2EFCD73D2EFAD700002DC07B
:101420001FF02EC020F02FC021F030C022F039C0B4
:1014300023F03AC024F03BC025F044EC17F0AFEFA6
:1014400008F02DC01FF02EC020F02FC021F030C0BA
:1014500022F036C023F038C024F07DEC1BF092EC73
:101460001FF04050020DF3CF3CF0F4CF3DF03C5064
:101470003324D96E3D503420DA6E90EC1EF0DE50ED
:101480000C5CDE500D58D8A048EF0AF04AEF0AF085
:1014900031EF0AF02DC01FF02EC020F02FC021F038
:1014A00030C022F038C023F0F9EC1AF04050D8A434
:1014B0005CEF0AF05EEF0AF0AAEF07F012002DC011
:1014C0001FF02EC020F02FC021F030C022F039C014
:1014D00023F03AC024F03BC025F02EEC18F0050EA6
:1014E0003D6E0F0E3C6EF10EE82EFED73C2EFCD763
:1014F0003D2EFAD700002DC01FF02EC020F02FC0C7
:1015000021F030C022F039C023F03AC024F03BC0B3
:1015100025F02EEC18F0050E3D6E0F0E3C6EF10E10
:10152000E82EFED73C2EFCD73D2EFAD700002DC06A
:101530001FF02EC020F02FC021F030C022F039C0A3
:1015400023F03AC024F03BC025F02EEC18F0050E35
:101550003D6E0F0E3C6EF10EE82EFED73C2EFCD7F2
:101560003D2EFAD700002DC01FF02EC020F02FC056
:1015700021F030C022F039C023F03AC024F03BC043
:1015800025F02EEC18F0050E3D6E0F0E3C6EF10EA0
:10159000E82EFED73C2EFCD73D2EFAD700002DC0FA
:1015A0001FF02EC020F02FC021F030C022F036C036
:1015B00023F038C024F07DEC1BF092EC1FF0000EFD
:1015C0000001B06FB051D8B4E8EF0AF0EAEF0AF0CA
:1015D000E2EF0AF02DC01FF02EC020F02FC021F046
:1015E00030C022F038C023F0F9EC1AF035C040F0DA
:1015F000A6EF0DF0400640503124D96E000E322087
:10160000DA6EDE04D8A407EF0BF009EF0BF043EF1E
:101610000BF02DC01FF02EC020F02FC021F030C0E5
:1016200022F039C023F03AC024F03BC025F02EEC64
:1016300018F0050E3D6E0F0E3C6EF10EE82EFED733
:101640003C2EFCD73D2EFAD700002DC01FF02EC037
:1016500020F02FC021F030C022F039C023F03AC072
:1016600024F03BC025F02EEC18F0050E3D6E0F0E59
:101670003C6EF10EE82EFED73C2EFCD73D2EFAD75D
:10168000000071EF0DF040503124D96E000E322071
:10169000DA6E020EDE18D8A450EF0BF052EF0BF00A
:1016A0008CEF0BF02DC01FF02EC020F02FC021F0CA
:1016B00030C022F039C023F03AC024F03BC025F0FE
:1016C00044EC17F0050E3D6E0F0E3C6EF10EE82E49
:1016D000FED73C2EFCD73D2EFAD700002DC01FF0C0
:1016E0002EC020F02FC021F030C022F039C023F0EE
:1016F0003AC024F03BC025F044EC17F0050E3D6ED7
:101700000F0E3C6EF10EE82EFED73C2EFCD73D2E80
:10171000FAD7000071EF0DF040503124D96E000E61
:101720003220DA6E030EDE18D8A499EF0BF09BEF8F
:101730000BF00DEF0CF02DC01FF02EC020F02FC0CD
:1017400021F030C022F039C023F03AC024F03BC071
:1017500025F02EEC18F0050E3D6E0F0E3C6EF10ECE
:10176000E82EFED73C2EFCD73D2EFAD700002DC028
:101770001FF02EC020F02FC021F030C022F039C061
:1017800023F03AC024F03BC025F02EEC18F0050EF3
:101790003D6E0F0E3C6EF10EE82EFED73C2EFCD7B0
:1017A0003D2EFAD700002DC01FF02EC020F02FC014
:1017B00021F030C022F039C023F03AC024F03BC001
:1017C00025F02EEC18F0050E3D6E0F0E3C6EF10E5E
:1017D000E82EFED73C2EFCD73D2EFAD700002DC0B8
:1017E0001FF02EC020F02FC021F030C022F039C0F1
:1017F00023F03AC024F03BC025F02EEC18F0050E83
:101800003D6E0F0E3C6EF10EE82EFED73C2EFCD73F
:101810003D2EFAD7000071EF0DF040503124D96E03
:10182000000E3220DA6E040EDE18D8A41AEF0CF087
:101830001CEF0CF066EF0CF02DC01FF02EC020F056
:101840002FC021F030C022F039C023F03AC024F07C
:101850003BC025F02EEC18F0050E3D6E0F0E3C6ED1
:10186000F10EE82EFED73C2EFCD73D2EFAD7000015
:101870002DC01FF02EC020F02FC021F030C022F06C
:1018800039C023F03AC024F03BC025F02EEC18F00C
:10189000050E3D6E0F0E3C6EF10EE82EFED73C2E6F
:1018A000FCD73D2EFAD700002DC01FF02EC020F02F
:1018B0002FC021F030C022F036C023F037C024F012
:1018C00038C025F051EC16F0FFEF0BF040503124FA
:1018D000D96E000E3220DA6E050EDE18D8A473EF32
:1018E0000CF075EF0CF0BFEF0CF02DC01FF02EC008
:1018F00020F02FC021F030C022F039C023F03AC0D0
:1019000024F03BC025F044EC17F0050E3D6E0F0EA1
:101910003C6EF10EE82EFED73C2EFCD73D2EFAD7BA
:1019200000002DC01FF02EC020F02FC021F030C0CD
:1019300022F039C023F03AC024F03BC025F044EC3B
:1019400017F0050E3D6E0F0E3C6EF10EE82EFED721
:101950003C2EFCD73D2EFAD700002DC01FF02EC024
:1019600020F02FC021F030C022F036C023F037C065
:1019700024F038C025F051EC16F0FFEF0BF040508A
:101980003124D96E000E3220DA6E060EDE18D8A48D
:10199000CCEF0CF0CEEF0CF018EF0DF02DC01FF0D7
:1019A0002EC020F02FC021F030C022F039C023F02B
:1019B0003AC024F03BC025F02EEC18F0050E3D6E29
:1019C0000F0E3C6EF10EE82EFED73C2EFCD73D2EBE
:1019D000FAD700002DC01FF02EC020F02FC021F03C
:1019E00030C022F039C023F03AC024F03BC025F0CB
:1019F0002EEC18F0050E3D6E0F0E3C6EF10EE82E2B
:101A0000FED73C2EFCD73D2EFAD700002DC01FF08C
:101A10002EC020F02FC021F030C022F039C023F0BA
:101A20003AC024F03BC025F02EEC18F0FFEF0BF08D
:101A300040503124D96E000E3220DA6E070EDE18C7
:101A4000D8A425EF0DF027EF0DF071EF0DF02DC0AC
:101A50001FF02EC020F02FC021F030C022F039C07E
:101A600023F03AC024F03BC025F044EC17F0050EFB
:101A70003D6E0F0E3C6EF10EE82EFED73C2EFCD7CD
:101A80003D2EFAD700002DC01FF02EC020F02FC031
:101A900021F030C022F039C023F03AC024F03BC01E
:101AA00025F044EC17F0050E3D6E0F0E3C6EF10E66
:101AB000E82EFED73C2EFCD73D2EFAD700002DC0D5
:101AC0001FF02EC020F02FC021F030C022F039C00E
:101AD00023F03AC024F03BC025F044EC17F0FFEFB0
:101AE0000BF02DC01FF02EC020F02FC021F030C011
:101AF00022F036C023F038C024F07DEC1BF092ECCD
:101B00001FF04050020DF3CF3CF0F4CF3DF03C50BD
:101B10003324D96E3D503420DA6E90EC1EF0DE5046
:101B20000C5CDE500D58D8A098EF0DF09AEF0DF038
:101B300081EF0DF02DC01FF02EC020F02FC021F03E
:101B400030C022F038C023F0F9EC1AF04050D8A48D
:101B5000ACEF0DF0AEEF0DF0FAEF0AF0120000015D
:101B6000B605D8A4B6EF0DF0B8EF0DF000EF0EF00B
:101B7000B2C01FF0B3C020F0B4C021F0B5C022F055
:101B8000BFC023F0C0C024F0C1C025F044EC17F062
:101B9000050E426E0F0E416EF10EE82EFED7412E5D
:101BA000FCD7422EFAD70000B2C01FF0B3C020F01D
:101BB000B4C021F0B5C022F0BFC023F0C0C024F0F3
:101BC000C1C025F044EC17F0050E426E0F0E416EB9
:101BD000F10EE82EFED7412EFCD7422EFAD7000098
:101BE000B2C01FF0B3C020F0B4C021F0B5C022F0E5
:101BF000BCC023F0BEC024F07DEC1BF0D9EF10F088
:101C0000020EB619D8A407EF0EF009EF0EF051EF4F
:101C10000EF0B2C01FF0B3C020F0B4C021F0B5C0C8
:101C200022F0BFC023F0C0C024F0C1C025F02EECCC
:101C300018F0050E426E0F0E416EF10EE82EFED723
:101C4000412EFCD7422EFAD70000B2C01FF0B3C01D
:101C500020F0B4C021F0B5C022F0BFC023F0C0C056
:101C600024F0C1C025F02EEC18F0050E426E0F0EC8
:101C7000416EF10EE82EFED7412EFCD7422EFAD748
:101C80000000B2C01FF0B3C020F0B4C021F0B5C056
:101C900022F0BCC023F0BEC024F07DEC1BF0D9EFD5
:101CA00010F0030EB619D8A458EF0EF05AEF0EF04C
:101CB000DAEF0EF0B2C01FF0B3C020F0B4C021F0D4
:101CC000B5C022F0BFC023F0C0C024F0C1C025F0D1
:101CD0002EEC18F0050E426E0F0E416EF10EE82E3E
:101CE000FED7412EFCD7422EFAD70000B2C01FF01B
:101CF000B3C020F0B4C021F0B5C022F0BFC023F0C3
:101D0000C0C024F0C1C025F02EEC18F0050E426EC4
:101D10000F0E416EF10EE82EFED7412EFCD7422E5B
:101D2000FAD70000B2C01FF0B3C020F0B4C021F059
:101D3000B5C022F0BFC023F0C0C024F0C1C025F060
:101D40002EEC18F0050E426E0F0E416EF10EE82ECD
:101D5000FED7412EFCD7422EFAD70000B2C01FF0AA
:101D6000B3C020F0B4C021F0B5C022F0BFC023F052
:101D7000C0C024F0C1C025F02EEC18F0050E426E54
:101D80000F0E416EF10EE82EFED7412EFCD7422EEB
:101D9000FAD70000B2C01FF0B3C020F0B4C021F0E9
:101DA000B5C022F0BCC023F0BEC024F07DEC1BF017
:101DB000D9EF10F0040EB619D8A4E1EF0EF0E3EF5E
:101DC0000EF047EF0FF0B2C01FF0B3C020F0B4C068
:101DD00021F0B5C022F0BCC023F0BDC024F0BEC0CD
:101DE00025F051EC16F0050E426E0F0E416EF10E0D
:101DF000E82EFED7412EFCD7422EFAD70000B2C003
:101E00001FF0B3C020F0B4C021F0B5C022F0BFC0B5
:101E100023F0C0C024F0C1C025F044EC17F0050E3B
:101E2000426E0F0E416EF10EE82EFED7412EFCD70A
:101E3000422EFAD70000B2C01FF0B3C020F0B4C0E9
:101E400021F0B5C022F0BFC023F0C0C024F0C1C053
:101E500025F044EC17F0050E426E0F0E416EF10EA8
:101E6000E82EFED7412EFCD7422EFAD70000B2C092
:101E70001FF0B3C020F0B4C021F0B5C022F0BCC048
:101E800023F0BEC024F07DEC1BF0D9EF10F0050E5E
:101E9000B619D8A44EEF0FF050EF0FF0B4EF0FF0DB
:101EA000B2C01FF0B3C020F0B4C021F0B5C022F022
:101EB000BCC023F0BDC024F0BEC025F051EC16F02C
:101EC000050E426E0F0E416EF10EE82EFED7412E2A
:101ED000FCD7422EFAD70000B2C01FF0B3C020F0EA
:101EE000B4C021F0B5C022F0BFC023F0C0C024F0C0
:101EF000C1C025F02EEC18F0050E426E0F0E416E9B
:101F0000F10EE82EFED7412EFCD7422EFAD7000064
:101F1000B2C01FF0B3C020F0B4C021F0B5C022F0B1
:101F2000BFC023F0C0C024F0C1C025F02EEC18F0D3
:101F3000050E426E0F0E416EF10EE82EFED7412EB9
:101F4000FCD7422EFAD70000B2C01FF0B3C020F079
:101F5000B4C021F0B5C022F0BCC023F0BEC024F054
:101F60007DEC1BF0D9EF10F0060EB619D8A4BBEF2C
:101F70000FF0BDEF0FF021EF10F0B2C01FF0B3C0B3
:101F800020F0B4C021F0B5C022F0BFC023F0C0C023
:101F900024F0C1C025F044EC17F0050E426E0F0E80
:101FA000416EF10EE82EFED7412EFCD7422EFAD715
:101FB0000000B2C01FF0B3C020F0B4C021F0B5C023
:101FC00022F0BFC023F0C0C024F0C1C025F044EC13
:101FD00017F0050E426E0F0E416EF10EE82EFED781
:101FE000412EFCD7422EFAD70000B2C01FF0B3C07A
:101FF00020F0B4C021F0B5C022F0BFC023F0C0C0B3
:1020000024F0C1C025F044EC17F0050E426E0F0E0F
:10201000416EF10EE82EFED7412EFCD7422EFAD7A4
:102020000000B2C01FF0B3C020F0B4C021F0B5C0B2
:1020300022F0BCC023F0BEC024F07DEC1BF0D9EF31
:1020400010F0070EB619D8A428EF10F02AEF10F000
:102050008EEF10F0B2C01FF0B3C020F0B4C021F07A
:10206000B5C022F0BFC023F0C0C024F0C1C025F02D
:102070002EEC18F0050E426E0F0E416EF10EE82E9A
:10208000FED7412EFCD7422EFAD70000B2C01FF077
:10209000B3C020F0B4C021F0B5C022F0BFC023F01F
:1020A000C0C024F0C1C025F02EEC18F0050E426E21
:1020B0000F0E416EF10EE82EFED7412EFCD7422EB8
:1020C000FAD70000B2C01FF0B3C020F0B4C021F0B6
:1020D000B5C022F0BFC023F0C0C024F0C1C025F0BD
:1020E0002EEC18F0050E426E0F0E416EF10EE82E2A
:1020F000FED7412EFCD7422EFAD70000B2C01FF007
:10210000B3C020F0B4C021F0B5C022F0BCC023F0B1
:10211000BEC024F07DEC1BF0D9EF10F0080EB6190C
:10212000D8A495EF10F097EF10F0B9EF10F0B2C00F
:102130002DF0B3C02EF0B4C02FF0B5C030F0B7C052
:1021400031F0B8C032F0B9C033F0BAC034F0BBC01F
:1021500035F0BCC036F0BDC037F0BEC038F0BFC0EF
:1021600039F0C0C03AF0C1C03BF001EC07F0D9EF44
:1021700010F0B2C02DF0B3C02EF0B4C02FF0B5C037
:1021800030F0B7C031F0B8C032F0B9C033F0BAC0E7
:1021900034F0BBC035F0BCC036F0BDC037F0BEC0B7
:1021A00038F0BFC039F0C0C03AF0C1C03BF001EC1C
:1021B00007F0120020EEC2F0270EDE6AE806FDE20C
:1021C000000E0101AE6F21EE52F0270EDE6AE80626
:1021D000FDE221EE00F0510EDE6AE806FDE2000E9F
:1021E000AF6FEEC0EAF0EFC0EBF0F0C0ECF0F1C082
:1021F000EDF060EC1EF044EC1EF027EC1FF07BECE1
:102200001FF047EC1FF0000E0D6EC70E0C6E51EC68
:102210001CF0000E0101CC6F010ECD6F010ECE6FD0
:10222000AA0ED16F0F0ED26FA60ED36F0F0ED46F02
:10223000000ED06FC70ECF6F030ED56F000EC26FAA
:10224000010EC36F010EC46F250EC76F0F0EC86F4E
:10225000210EC96F0F0ECA6F000EC66FC70EC56F75
:10226000000ECB6F190EAB6F010EB06F0A0E986F98
:10227000140EAC6F050EB96F020EAD6FFCEC1DF0C5
:102280008EB445EF11F047EF11F040EF11F080965A
:102290007C9E7C868082290E496E960E486E7F0E4B
:1022A000E82EFED7482EFCD7492EFAD70000BA0EEA
:1022B000326E010E336EB10E346E010E356E990E14
:1022C000366E010E376E9F0E386E010E396EA50EFA
:1022D0003A6E010E3B6E7A0E3C6E010E3D6E800E24
:1022E0003E6E010E3F6E860E406E010E416E8C0EEC
:1022F000426E010E436E920E446E010E456E46EC28
:1023000014F0CC0E2D6E010E2E6EC20E2F6E010E2D
:10231000306E140E316EB90E326E010E336E020E37
:10232000346EF9EC12F0010E05EC1FF0520E496EFE
:102330002B0E486E000EE82EFED7482EFCD7492EF5
:10234000FAD700D0BA0E106E010E116E5AEC15F0CD
:10235000C0C14EF0C1C14FF0290E496E960E486EB5
:102360007F0EE82EFED7482EFCD7492EFAD7000064
:10237000CC0E1F6E010E206EC20E216E010E226E5B
:10238000190E236E010E246E7DEC1BF092EC1FF0F3
:10239000000E0001B16F000EB06F0001B105D8A4AE
:1023A000D4EF11F0D6EF11F0A7EF12F00E01299B38
:1023B00029AB02D0298102D00E01299190EC1EF0A8
:1023C0000101AF51020D000EF324D96E010EF4206D
:1023D000DA6E0CC0DEFF0DC0DDFFCC0E1F6E010EED
:1023E000206EC20E216E010E226EB0C123F0F9ECF8
:1023F0001AF0BA0E106E010E116E5AEC15F021EEA5
:10240000BAF000EE26F0070EDBCFEBFFE806FCE2A9
:10241000B10E2E6E010E2F6ECEEC19F021EEB1F042
:1024200000EE0CF0070EDBCFEBFFE806FCE221EE3E
:1024300099F000EE14F0050EDBCFEBFFE806FCE2AE
:1024400021EE9FF000EE1AF0050EDBCFEBFFE80661
:10245000FCE221EEA5F000EE20F0050EDBCFEBFF55
:10246000E806FCE221EE7AF000EE26F0050EDBCF66
:10247000EBFFE806FCE221EE80F000EE2CF0050E0A
:10248000DBCFEBFFE806FCE221EE86F000EE32F057
:10249000050EDBCFEBFFE806FCE221EE8CF000EE50
:1024A00038F0050EDBCFEBFFE806FCE221EE92F000
:1024B00000EE3EF0050EDBCFEBFFE806FCE299EC08
:1024C0001CF00101AE6F520EAF25D96EDA6A010E13
:1024D000DA22AEC1DFFFCC0E0001B26F010EB36F86
:1024E000C20EB46F010EB56FAEC1B6F0520EB76F2B
:1024F000010EB86F000EB96F010EBA6FAFC1BBF01D
:10250000ABC1BCF098C1BDF0B0C1BEF0ACC1BFF072
:10251000B9C1C0F0ADC1C1F0AFEC0DF0BA0E106E94
:10252000010E116E5AEC15F0C0C14EF0C1C14FF052
:102530000101AF2B92EC1FF00E01298B29AB02D0C9
:10254000298102D00E012991000E0001B16FB00562
:10255000D8A4ADEF12F0AFEF12F0E4EF12F00E01DD
:102560002991CC0E1F6E010E206EC20E216E010E3F
:10257000226EB0C123F0F9EC1AF0CC0E2D6E010ED4
:102580002E6EC20E2F6E010E306E520E316E010E87
:10259000326E000E336E010E346EAFC135F0ABC13A
:1025A00036F098C137F0B0C138F0ACC139F0B9C1DC
:1025B0003AF0ADC13BF05FEC0AF00E012981000E4C
:1025C0000001B06FF7EF12F0080E0101AE19D8B498
:1025D000ECEF12F0EEEF12F0F7EF12F0090EAE1979
:1025E000D8A4F5EF12F0F7EF12F0CDEF11F04CEFA9
:1025F00000F02DC01FF02EC020F02FC021F030C001
:1026000022F031C023F032C0D9FF33C0DAFFDF50EF
:10261000246E34C025F02EEC18F0050E366E0F0E29
:10262000356EF10EE82EFED7352EFCD7362EFAD7B2
:1026300000002DC01FF02EC020F02FC021F030C0B0
:1026400022F031C023F032C0D9FF33C0DAFFDF50AF
:10265000246E34C025F02EEC18F0050E366E0F0EE9
:10266000356EF10EE82EFED7352EFCD7362EFAD772
:1026700000002DC01FF02EC020F02FC021F030C070
:1026800022F031C023F032C0D9FF33C0DAFFDF506F
:10269000246E34C025F044EC17F0050E366E0F0E94
:1026A000356EF10EE82EFED7352EFCD7362EFAD732
:1026B00000002DC01FF02EC020F02FC021F030C030
:1026C00022F031C023F032C0D9FF33C0DAFFDF502F
:1026D000246E34C025F044EC17F08EA472EF13F092
:1026E00074EF13F07BEF13F08EB679EF13F07BEFFE
:1026F00013F06DEF13F08EB480EF13F082EF13F050
:1027000096EF13F032C0D9FF33C0DAFFDF50D8B4F0
:102710008CEF13F08EEF13F096EF13F032C0D9FF69
:1027200033C0DAFFDF067C8EA3EF13F08EB69BEF8B
:1027300013F09DEF13F0A3EF13F032C0D9FF33C0B5
:10274000DAFFDF2A8086290E366E960E356E7F0EF2
:10275000E82EFED7352EFCD7362EFAD700008EB6DF
:10276000B4EF13F0B6EF13F0BDEF13F032C0D9FFA2
:1027700033C0DAFFDF0635EF14F080967C9E2DC063
:102780001FF02EC020F02FC021F030C022F031C049
:1027900023F032C0D9FF33C0DAFFDF50246E34C0DB
:1027A00025F02EEC18F0050E366E0F0E356EF10E7C
:1027B000E82EFED7352EFCD7362EFAD700002DC0D6
:1027C0001FF02EC020F02FC021F030C022F031C009
:1027D00023F032C0D9FF33C0DAFFDF50246E34C09B
:1027E00025F02EEC18F0050E366E0F0E356EF10E3C
:1027F000E82EFED7352EFCD7362EFAD700002DC096
:102800001FF02EC020F02FC021F030C022F031C0C8
:1028100023F032C0D9FF33C0DAFFDF50246E34C05A
:1028200025F044EC17F0050E366E0F0E356EF10EE6
:10283000E82EFED7352EFCD7362EFAD700002DC055
:102840001FF02EC020F02FC021F030C022F031C088
:1028500023F032C0D9FF33C0DAFFDF50246E34C01A
:1028600025F044EC17F06DEF13F080867C8E090E96
:10287000366E1E0E356EE40EE82EFED7352EFCD7D2
:10288000362EFAD700D080967C9E1200010E05EC01
:102890001FF080867C8E8EB450EF14F052EF14F04F
:1028A0004BEF14F080967C9E32C010F033C011F0D4
:1028B0005AEC15F032C0D9FF33C0DAFF00EE26F033
:1028C000070EDBCFEBFFE806FCE234C02EF035C08C
:1028D0002FF0CEEC19F034C0D9FF35C0DAFF36C086
:1028E000E1FF37C0E2FFDECFE6FFDDCFE5FF20EE00
:1028F00002F03450D9263550DA2210EE02F036506C
:10290000E1263750E222DECFE6FFDDCFE5FF20EE05
:1029100004F03450D9263550DA2210EE04F0365047
:10292000E1263750E222DECFE6FFDDCFE5FF290EBC
:10293000476E960E466E7F0EE82EFED7462EFCD7CB
:10294000472EFAD7000080867C8E8EB4AAEF14F052
:10295000ACEF14F0A5EF14F080967C9E32C010F01E
:1029600033C011F05AEC15F032C0D9FF33C0DAFF92
:1029700000EE26F0070EDBCFEBFFE806FCE234C0EA
:102980002EF035C02FF0CEEC19F034C0D9FF35C091
:10299000DAFF38C0E1FF39C0E2FFDECFE6FFDDCF6E
:1029A000E5FF20EE02F03450D9263550DA2210EE41
:1029B00002F03850E1263950E222DECFE6FFDDCFCB
:1029C000E5FF20EE04F03450D9263550DA2210EE1F
:1029D00004F03850E1263950E222DECFE6FFDDCFA9
:1029E000E5FF290E476E960E466E7F0EE82EFED747
:1029F000462EFCD7472EFAD7000080867C8E8EB4F8
:102A000004EF15F006EF15F0FFEF14F080967C9EB2
:102A100032C010F033C011F05AEC15F032C0D9FFBB
:102A200033C0DAFF00EE26F0070EDBCFEBFFE8063F
:102A3000FCE234C02EF035C02FF0CEEC19F034C0DB
:102A4000D9FF35C0DAFF3AC0E1FF3BC0E2FFDECF7D
:102A5000E6FFDDCFE5FF20EE02F03450D9263550F9
:102A6000DA2210EE02F03A50E1263B50E222DECFAD
:102A7000E6FFDDCFE5FF20EE04F03450D9263550D7
:102A8000DA2210EE04F03A50E1263B50E222DECF8B
:102A9000E6FFDDCFE5FF290E476E960E466E7F0EF0
:102AA000E82EFED7462EFCD7472EFAD700008086A8
:102AB0007C8E12009CEC1FF0520E86EC1FF0B60EBE
:102AC00086EC1FF0A1EC1FF0530E86EC1FF0010EF8
:102AD00023EC1EF0126E136A10C0D9FF11C0DAFF8A
:102AE00012C0DEFF13C0DDFF10C0D9FF11C0DAFF36
:102AF000DECF12F0DDCF13F0000E23EC1EF0146ECB
:102B00001450166E156A12501510176E13501610C9
:102B1000186E10C0D9FF11C0DAFF17C0DEFF18C051
:102B2000DDFF97EC1FF09CEC1FF0520E86EC1FF0BF
:102B3000B80E86EC1FF0A1EC1FF0530E86EC1FF0D0
:102B4000010E23EC1EF0126E136A20EE02F01050FC
:102B5000D9261150DA2212C0DEFF13C0DDFF20EEAD
:102B600002F01050D9261150DA22DECF12F0DDCF5C
:102B700013F0000E23EC1EF0146E1450166E156A3E
:102B800012501510176E13501610186E20EE02F02A
:102B90001050D9261150DA2217C0DEFF18C0DDFF11
:102BA00097EC1FF09CEC1FF0520E86EC1FF0BA0E53
:102BB00086EC1FF0A1EC1FF0530E86EC1FF0010E07
:102BC00023EC1EF0126E136A20EE04F01050D9268A
:102BD0001150DA2212C0DEFF13C0DDFF20EE04F038
:102BE0001050D9261150DA22DECF12F0DDCF13F0CB
:102BF000000E23EC1EF0146E1450166E156A12505F
:102C00001510176E13501610186E20EE04F01050A9
:102C1000D9261150DA2217C0DEFF18C0DDFF97EC6D
:102C20001FF09CEC1FF0520E86EC1FF0B40E86ECE9
:102C30001FF0A1EC1FF0530E86EC1FF0010E23ECE9
:102C40001EF0126E136A20EE06F01050D9261150B5
:102C5000DA2212C0DEFF13C0DDFF20EE06F01050B6
:102C6000D9261150DA22DECF12F0DDCF13F0000E9C
:102C700023EC1EF0146E1450166E156A12501510C7
:102C8000176E13501610186E20EE06F01050D9264D
:102C90001150DA2217C0DEFF18C0DDFF97EC1FF0DD
:102CA000120020EE01F01F50D9262050DA22DF6AF0
:102CB00020EE01F02150D9262250DA22DF6A000EE0
:102CC0002C6E010E2B6EAEEF16F020EE09F01F50A9
:102CD000D9262050DA22DF502B241FC0D9FF20C074
:102CE000DAFFDF6E20EE09F02150D9262250DA22D9
:102CF000DF502B2421C0D9FF22C0DAFFDF6E1FC0B6
:102D000019F020C01AF018EC19F021C019F022C0F7
:102D10001AF018EC19F0000E2A6E000E296E9AEFC8
:102D200016F0D00E266ECA0EE82EFED7262EFCD741
:102D3000294A2A2A2550266E276A2650295C2A50BD
:102D4000800A286E2750800A2858D8A0AAEF16F0CB
:102D5000ACEF16F091EF16F02B4A2C2A2350266E7A
:102D6000276A2B50265C2750800A286E2C50800A38
:102D70002858D8B0BEEF16F0C0EF16F065EF16F089
:102D8000000E2A6E000E296ECFEF16F0D00E266EC2
:102D9000CA0EE82EFED7262EFCD7294A2A2A24500E
:102DA000266E276A2650295C2A50800A286E2750F2
:102DB000800A2858D8A0DFEF16F0E1EF16F0C6EF32
:102DC00016F023C02BF02C6A2CBEEBEF16F0E9EFC7
:102DD00016F0EDEF16F039EF17F020EE09F01F5066
:102DE000D9262050DA22DF502B241FC0D9FF20C063
:102DF000DAFFDF6E20EE09F02150D9262250DA22C8
:102E0000DF502B2421C0D9FF22C0DAFFDF6E1FC0A4
:102E100019F020C01AF018EC19F021C019F022C0E6
:102E20001AF018EC19F0000E2A6E000E296E22EF2F
:102E300017F0D00E266ECA0EE82EFED7262EFCD72F
:102E4000294A2A2A2550266E276A2650295C2A50AC
:102E5000800A286E2750800A2858D8A032EF17F031
:102E600034EF17F019EF17F02B06D8A02C06E4EF7B
:102E700016F01FC0D9FF20C0DAFFDF6A21C0D9FFDA
:102E800022C0DAFFDF6A120020EE01F01F50D926BF
:102E90002050DA22010EDF6E20EE01F02150D926FB
:102EA0002250DA22DF6A000E2C6E010E2B6EA2EF8A
:102EB00017F020EE09F01F50D9262050DA22DF50FB
:102EC0002B241FC0D9FF20C0DAFFDF6E20EE09F0EF
:102ED0002150D9262250DA22DF502B2421C0D9FFDD
:102EE00022C0DAFFDF6E1FC019F020C01AF018EC04
:102EF00019F021C019F022C01AF018EC19F0000ED8
:102F00002A6E000E296E8EEF17F0D00E266ECA0EB6
:102F1000E82EFED7262EFCD7294A2A2A2550266ECF
:102F2000276A2650295C2A50800A286E2750800A7A
:102F30002858D8A09EEF17F0A0EF17F085EF17F0F4
:102F40002B4A2C2A2350266E276A2B50265C2750AA
:102F5000800A286E2C50800A2858D8B0B2EF17F09B
:102F6000B4EF17F059EF17F0000E2A6E000E296E1D
:102F7000C3EF17F0D00E266ECA0EE82EFED7262E0F
:102F8000FCD7294A2A2A2450266E276A2650295C13
:102F90002A50800A286E2750800A2858D8A0D3EFDC
:102FA00017F0D5EF17F0BAEF17F023C02BF02C6A0B
:102FB0002CBEDFEF17F0DDEF17F0E1EF17F02DEF8C
:102FC00018F020EE09F01F50D9262050DA22DF50E9
:102FD0002B241FC0D9FF20C0DAFFDF6E20EE09F0DE
:102FE0002150D9262250DA22DF502B2421C0D9FFCC
:102FF00022C0DAFFDF6E1FC019F020C01AF018ECF3
:1030000019F021C019F022C01AF018EC19F0000EC6
:103010002A6E000E296E16EF18F0D00E266ECA0E1C
:10302000E82EFED7262EFCD7294A2A2A2550266EBE
:10303000276A2650295C2A50800A286E2750800A69
:103040002858D8A026EF18F028EF18F00DEF18F048
:103050002B06D8A02C06D8EF17F0120020EE01F0B6
:103060001F50D9262050DA22DF6A20EE01F02150CD
:10307000D9262250DA22010EDF6E000E2C6E010ED0
:103080002B6E8CEF18F020EE09F01F50D92620503F
:10309000DA22DF502B241FC0D9FF20C0DAFFDF6EF9
:1030A00020EE09F02150D9262250DA22DF502B24BD
:1030B00021C0D9FF22C0DAFFDF6E1FC019F020C087
:1030C0001AF018EC19F021C019F022C01AF018EC0F
:1030D00019F0000E2A6E000E296E78EF18F0D00E4F
:1030E000266ECA0EE82EFED7262EFCD7294A2A2A9B
:1030F0002550266E276A2650295C2A50800A286EA1
:103100002750800A2858D8A088EF18F08AEF18F0C6
:103110006FEF18F02B4A2C2A2350266E276A2B506B
:10312000265C2750800A286E2C50800A2858D8B078
:103130009CEF18F09EEF18F043EF18F0000E2A6E87
:10314000000E296EADEF18F0D00E266ECA0EE82ED6
:10315000FED7262EFCD7294A2A2A2450266E276A13
:103160002650295C2A50800A286E2750800A285849
:10317000D8A0BDEF18F0BFEF18F0A4EF18F023C0EF
:103180002BF02C6A2CBEC9EF18F0C7EF18F0CBEF6C
:1031900018F017EF19F020EE09F01F50D926205033
:1031A000DA22DF502B241FC0D9FF20C0DAFFDF6EE8
:1031B00020EE09F02150D9262250DA22DF502B24AC
:1031C00021C0D9FF22C0DAFFDF6E1FC019F020C076
:1031D0001AF018EC19F021C019F022C01AF018ECFE
:1031E00019F0000E2A6E000E296E00EF19F0D00EB5
:1031F000266ECA0EE82EFED7262EFCD7294A2A2A8A
:103200002550266E276A2650295C2A50800A286E8F
:103210002750800A2858D8A010EF19F012EF19F0A3
:10322000F7EF18F02B06D8A02C06C2EF18F012000A
:1032300020EE02F01950D9261A50DA22DF50D8B405
:1032400024EF19F026EF19F05AEF19F019C0D9FF41
:103250001AC0DAFFDF501B6E1B500C6E0D6A20EE99
:1032600003F01950D9261A50DA22DECF0EF0DDCF46
:103270000FF0CCEC1EF00CC012F00DC013F0000EDD
:10328000156E640E146E56EC1DF020EE03F019500E
:10329000D9261A50DA22DF501C6E12501C5C1D6EAB
:1032A00020EE03F01950D9261A50DA22DF501E6E94
:1032B0007DEF19F0000E1D6E19C0D9FF1AC0DAFF9C
:1032C000DF501B6E1B500C6E0D6A20EE03F0195080
:1032D000D9261A50DA22DECF0EF0DDCF0FF0CCEC7B
:1032E0001EF00CC012F00DC013F0000E156E640E2F
:1032F000146E56EC1DF012501E6E20EE01F01950A7
:10330000D9261A50DA22DF50D8B489EF19F08BEFA2
:1033100019F0ADEF19F020EE05F01950D9261A502A
:10332000DA22DECF1BF0DDCF1CF01BC0D9FF1CC0A2
:10333000DAFF1DC0DFFF20EE07F01950D9261A5022
:10334000DA22DECF1BF0DDCF1CF01BC0D9FF1CC082
:10335000DAFF1EC0DFFFCDEF19F020EE05F01950A7
:10336000D9261A50DA22DECF1BF0DDCF1CF01BC0AD
:10337000D9FF1CC0DAFF1EC0DFFF20EE07F0195096
:10338000D9261A50DA22DECF1BF0DDCF1CF01BC08D
:10339000D9FF1CC0DAFF1DC0DFFF120020EE06F0CF
:1033A0002E50D9262F50DA222CC0DEFF2DC0DDFF93
:1033B00026C00CF027C00DF00E6A0F6AE80E106EE2
:1033C000030E116E000E126E000E136EC7EC1DF090
:1033D0000CC018F00DC019F00EC01AF00FC01BF091
:1033E0002A502824306E2B502920316E265030264A
:1033F0002750312230C01CF031C01DF01E6A1F6AF8
:1034000073EC1AF02EC0D9FF2FC0DAFF18C0DEFF10
:1034100019C0DDFF28C00CF029C00DF00E6A0F6A3C
:10342000E80E106E030E116E000E126E000E136E7B
:10343000C7EC1DF00CC018F00DC019F00EC01AF04A
:103440000FC01BF02A502824306E2B502920316EDB
:10345000265030262750312230C01CF031C01DF0DC
:103460001E6A1F6A73EC1AF020EE02F02E50D92665
:103470002F50DA2218C0DEFF19C0DDFF2AC00CF081
:103480002BC00DF00E6A0F6AE80E106E030E116E5F
:10349000000E126E000E136EC7EC1DF00CC018F07B
:1034A0000DC019F00EC01AF00FC01BF02A502824CE
:1034B000306E2B502920316E265030262750312275
:1034C00030C01CF031C01DF01E6A1F6A73EC1AF088
:1034D00020EE04F02E50D9262F50DA2218C0DEFF3D
:1034E00019C0DDFF1200000E216E1FBE7CEF1AF026
:1034F0007AEF1AF086EF1AF01F1E1E1E1D1E1C6C9E
:10350000000E1D221E221F22010E216E1BBE8DEFFA
:103510001AF08BEF1AF097EF1AF01B1E1A1E191EE5
:10352000186C000E19221A221B22010E211A000EFD
:10353000226E000E236E000E246E000E256E1C50AF
:103540001D101E101F10D8B4A8EF1AF0AAEF1AF021
:10355000E0EF1AF0010E206EB4EF1AF0D8901C368E
:103560001D361E361F36202A1FAEB9EF1AF0BBEFEC
:103570001AF0AEEF1AF0D8902236233624362536CC
:103580001C50185C1D5019581E501A581F501B58BB
:10359000D8A0CDEF1AF0CFEF1AF0D8EF1AF01C50E8
:1035A000185E1D50195A1E501A5A1F501B5A22805D
:1035B000D8901F321E321D321C32202EBBEF1AF063
:1035C0002150D8B4E6EF1AF0E8EF1AF0F0EF1AF055
:1035D000251E241E231E226C000E232224222522B7
:1035E00022C018F023C019F024C01AF025C01BF027
:1035F000120020EE01F01F50D9262050DA22010ED1
:10360000DF6E20EE01F02150D9262250DA22010E81
:10361000DF6E1FC0D9FF20C0DAFFDF50246E20EE1E
:1036200009F01F50D9262050DA22DF50256E255090
:10363000245C296E2A6AD8A02A062ABE24EF1BF031
:1036400022EF1BF026EF1BF072EF1BF020EE09F0CB
:103650001F50D9262050DA22DF5029241FC0D9FF5D
:1036600020C0DAFFDF6E20EE09F02150D92622506B
:10367000DA22DF50292421C0D9FF22C0DAFFDF6E11
:103680001FC019F020C01AF018EC19F021C019F071
:1036900022C01AF018EC19F0000E286E000E276EEA
:1036A0005BEF1BF0D00E246ECA0EE82EFED7242E40
:1036B000FCD7274A282A2350246E256A2450275CE9
:1036C0002850800A266E2550800A2658D8A06BEF15
:1036D0001BF06DEF1BF052EF1BF02906D8A02A0655
:1036E0001DEF1BF01FC0D9FF20C0DAFFDF6A21C029
:1036F000D9FF22C0DAFFDF6A120020EE01F01F506E
:10370000D9262050DA22010EDF6E20EE01F0215082
:10371000D9262250DA22010EDF6E000E2B6E010E2A
:103720002A6EDCEF1BF020EE09F01F50D926205046
:10373000DA22DF502A241FC0D9FF20C0DAFFDF6E53
:1037400020EE09F02150D9262250DA22DF502A2417
:1037500021C0D9FF22C0DAFFDF6E1FC019F020C0E0
:103760001AF018EC19F021C019F022C01AF018EC68
:1037700019F0000E296E000E286EC8EF1BF0D00E57
:10378000256ECA0EE82EFED7252EFCD7284A292AF8
:103790002450256E266A2550285C2950800A276E01
:1037A0002650800A2758D8A0D8EF1BF0DAEF1BF07C
:1037B000BFEF1BF02A4A2B2A2350256E266A2A5077
:1037C000255C2650800A276E2B50800A2758D8B0D7
:1037D000ECEF1BF0EEEF1BF093EF1BF01200000E6E
:1037E000116E0FBEF8EF1BF0F6EF1BF0FEEF1BF0B3
:1037F0000E6C0F1ED8B00F2A010E116E0DBE05EF14
:103800001CF003EF1CF00BEF1CF00C6C0D1ED8B07D
:103810000D2A010E111A000E136E000E126E0E50BC
:103820000F10D8B416EF1CF018EF1CF040EF1CF08E
:10383000010E106E20EF1CF0D8900E360F36102AB5
:103840000FAE25EF1CF027EF1CF01CEF1CF0D890FA
:10385000123613360E500C5C0F500D58D8A033EFB3
:103860001CF035EF1CF03AEF1CF00E500C5E0F50C0
:103870000D5A1280D8900F320E32102E27EF1CF006
:103880001150D8B446EF1CF048EF1CF04CEF1CF080
:10389000126C131ED8B0132A12C00CF013C00DF016
:1038A00012007D9485947D9885987B9E839E7F9C55
:1038B000879C050E0E01746F060E766F070E696FFA
:1038C000080E886FBD508F0B3009BD6EE00EBE161E
:1038D000BF50F00B0109BF6E0CC0BCFFBD8E000EC7
:1038E000AA6E000EA66E000E0F01256F000E216F4E
:1038F000FC0EAD16F30EAD16CF0EAD163F0EAD1687
:10390000AB88AB50F00B0C09AB6EAB8EA788A75001
:10391000F00B0C09A76EA78E26892651F00B0C0917
:10392000266F268F22892251F00B0C09226F228FDD
:103930001200D80E1424446EFF0E1520456E0C5054
:10394000445C0D504558D8B0A8EF1CF0AAEF1CF00D
:10395000AEEF1CF0010E466EDAEF1CF0E70E1C24F1
:10396000446EFF0E1D20456E0E50445C0F504558AE
:10397000D8B0BDEF1CF0BFEF1CF0C3EF1CF0020E7F
:10398000466EDAEF1CF0D80E2424446EFF0E25207C
:10399000456E1050445C11504558D8B0D2EF1CF021
:1039A000D4EF1CF0D8EF1CF0030E466EDAEF1CF0DB
:1039B000090E466E465012009CEC1FF0520E86EC2B
:1039C0001FF0E60E86EC1FF097EC1FF00C0E4E2455
:1039D000116E000E4F20126EF40E4E24136EFF0E69
:1039E0004F20146E130E0E6E000E17EC1FF03F0EDC
:1039F000106E550EE82EFED7102EFCD70000125088
:103A00000E6E070E17EC1FF011C00EF0060E17EC2D
:103A10001FF014500E6E050E17EC1FF013C00EF0C1
:103A2000040E17EC1FF0040E0E6E0C0E17EC1FF0B8
:103A30001200ABEC1FF0520E8CEC1FF0E60E8CEC7B
:103A40001FF0A6EC1FF00C0E4E24066E000E4F2049
:103A5000076EF40E4E24086EFF0E4F20096E130EF3
:103A6000036E000E37EC1FF03F0E056E550EE82E6C
:103A7000FED7052EFCD700000750036E070E37EC6B
:103A80001FF006C003F0060E37EC1FF00950036E5E
:103A9000050E37EC1FF008C003F0040E37EC1FF0E2
:103AA000040E036E0C0E37EC1FF01200000E176EA2
:103AB000000E166E14501510D8B461EF1DF063EFB0
:103AC0001DF08BEF1DF0010E186E6BEF1DF0D890FE
:103AD00014361536182A15AE70EF1DF072EF1DF072
:103AE00067EF1DF0D890163617361450125C15503B
:103AF0001358D8A07EEF1DF080EF1DF085EF1DF06C
:103B00001450125E1550135A1680D8901532143284
:103B1000182E72EF1DF016C012F017C013F012002D
:103B2000600EF66E3F0EF76E000EF86E00EEEEF0D1
:103B300010EE04F00900F5CFEEFFE550E150FAE198
:103B4000640EF66E3F0EF76E000EF86E0900F5CFAC
:103B50004EF00900F5CF4FF002EE00F07A0EEE6A5B
:103B6000E806FDE101EED6F0280EEE6AE806FDE17A
:103B700000EE60F0520EEE6AE806FDE14D6A4C6A16
:103B80004B6A4A6A509050920001DAEF10F0000E32
:103B9000146E000E156E000E166E000E176E0CA041
:103BA000D4EF1DF0D6EF1DF0DEEF1DF010501426FF
:103BB000115015221250162213501722D890103689
:103BC000113612361336D8900F320E320D320C32B7
:103BD0000C500D100E100F10D8A4F1EF1DF0F3EFE4
:103BE0001DF0CFEF1DF014C00CF015C00DF016C085
:103BF0000EF017C00FF0120056EC1FF063EC1FF030
:103C0000146E14C00CF00D6A000E0F6E180E0E6EBE
:103C1000EFEC1BF00C50156E15A211EF1EF013EF18
:103C20001EF016EF1EF07C8E17EF1EF07C9E15A086
:103C30001CEF1EF01EEF1EF021EF1EF0808622EF1B
:103C40001EF0809612000E6EA4EC1EF00E01DA87B4
:103C5000A4EC1EF0D5CE0FF0A4EC1EF00E50D8B49C
:103C600034EF1EF038EF1EF00D6A0D2A39EF1EF00A
:103C70000D6A0D3A0D460E01DA510D18DF0B0D18C5
:103C8000DA6FDA890F5012007BEC1EF0010E0E6E17
:103C9000000E17EC1FF03F0E156E550EE82EFED7E6
:103CA000152EFCD70000030E0E6E000E17EC1FF051
:103CB000D50E0E6E010E17EC1FF0DCEC1CF012009E
:103CC0007C9E849E8096889686840E01B495868616
:103CD000B497809288927C9884987C968496A797D3
:103CE000809088907E9086907F9087907D9E859E24
:103CF0007996819612000E01D951F00B0809D96FFF
:103D0000D98B9F0ED66F848A848CA79BA79D1D0E8E
:103D10001D6F1E0E1C6F1C0E6F6F1B0E706F12003E
:103D2000D3CF10F0116AD4CF12F0136A12500F6E75
:103D30000E6A10500E10146E11500F10156E14C034
:103D40000CF015C00DF012000E01D8B5AAEF1EF050
:103D5000ACEF1EF0A4EF1EF0DACE0CF01F0E0C1626
:103D6000D8A4B5EF1EF0B7EF1EF0A4EF1EF01200BE
:103D70000E01D8B5BEEF1EF0C0EF1EF0B8EF1EF07A
:103D8000DACE01F01F0E0116D8A4C9EF1EF0CBEF5A
:103D90001EF0B8EF1EF012000C500E02F3CF10F020
:103DA000F4CF11F00C500F02F35011260D500E02FB
:103DB000F350112610C00CF011C00DF01200016E6E
:103DC000130E4D64E6EF1EF0E8EF1EF0EAEF1EF072
:103DD000000E4D6E4D509C0FD96EDA6A01C0DFFFA8
:103DE0004D2A12003B0E4A64F8EF1EF0FAEF1EF067
:103DF000FCEF1EF0000E4A6E4A2A4A04016E015082
:103E0000600FD96EDA6ADF5012000C6E0C50D8B415
:103E10000CEF1FF00EEF1FF013EF1FF07F807D8E71
:103E2000798616EF1FF07F907D9E799612000F6EB7
:103E30009CEC1FF0520E86EC1FF00F50800986ECB0
:103E40001FF00E5086EC1FF097EC1FF01200D650BA
:103E50001F0B4009D66ED688D650F00B0B09D66ED4
:103E6000D588000ED46E000ED36ED58E1200046E6F
:103E7000ABEC1FF0520E8CEC1FF0045080098CEC60
:103E80001FF003508CEC1FF0A6EC1FF01200120E76
:103E90000E01626F110E156FE997E895330EE56F0D
:103EA000000EE66FE789E88BE78F1200868C0E0123
:103EB000B48D0F015899FC0E58172E0E5F6F609449
:103EC0006088608E1200608060B069EF1FF06BEF59
:103ED0001FF064EF1FF064CF0CF00C5012004A503A
:103EE0004B18D8A476EF1FF079EF1FF0010E7AEF90
:103EF0001FF0000E120082800E019A9129811F810D
:103F0000F290298B2D87F28CF28E12000D6EA4ECAC
:103F10001EF00DC0D5FE1200026EB8EC1EF002C0FD
:103F2000D5FE1200000ED46E000ED36E1200A4EC6B
:103F30001EF00E01DA851200A4EC1EF00E01DA81EB
:103F40001200A4EC1EF00E01DA831200B8EC1EF091
:103F50000E01DA851200B8EC1EF00E01DA811200B3
:063F600004030908F4014E
:020000040030CA
:02000000AAFF55
:020004009FFF5C
:00000001FF
