:0400000046EF00F0D7
:100008005A82D9CF03F0DACF04F00E0133A10FEFF3
:1000180000F011EF00F01EEF00F080867FEC0EF08C
:10002800520E65EC0EF0E60E65EC0EF07AEC0EF072
:100038000E01339137A723EF00F025EF00F028EFEA
:1000480000F0E351DAEC0DF00E0137A52EEF00F0C9
:1000580030EF00F040EF00F0EDEC0DF00E01E46F32
:100068004AEC0EF00009D8A43CEF00F03EEF00F097
:1000780040EF00F00E012D9504C0DAFF03C0D9FF50
:080088005A92110071EF0DF016
:100E000000723D256420673D256420623D256420F5
:100E1000633D25642020206E3A20723D25642067C2
:100E20003D256420623D25640D0A000075EC0EF03E
:100E3000520E5FEC0EF0B60E5FEC0EF06BEC0EF0A7
:100E4000530E5FEC0EF0010EE2EC0CF00A6E0B6A32
:100E50000950D96EDA6A0AC0DEFF0BC0DDFF095007
:100E6000D96EDA6ADECF0AF0DDCF0BF0000EE2ECCD
:100E70000CF00C6E0C500E6E0D6A0A500D100F6EB9
:100E80000B500E10106E0950D96EDA6A0FC0DEFFDB
:100E900010C0DDFF70EC0EF075EC0EF0520E5FEC42
:100EA0000EF0B80E5FEC0EF06BEC0EF0530E5FEC34
:100EB0000EF0010EE2EC0CF00A6E0B6A0950D96ECE
:100EC000DA6A020ED9260AC0DEFF0BC0DDFF095028
:100ED000D96EDA6A020ED926DECF0AF0DDCF0BF02A
:100EE000000EE2EC0CF00C6E0C500E6E0D6A0A5007
:100EF0000D100F6E0B500E10106E0950D96EDA6A7D
:100F0000020ED9260FC0DEFF10C0DDFF70EC0EF020
:100F100075EC0EF0520E5FEC0EF0BA0E5FEC0EF0B8
:100F20006BEC0EF0530E5FEC0EF0010EE2EC0CF0E9
:100F30000A6E0B6A0950D96EDA6A040ED9260AC005
:100F4000DEFF0BC0DDFF0950D96EDA6A040ED92628
:100F5000DECF0AF0DDCF0BF0000EE2EC0CF00C6EF1
:100F60000C500E6E0D6A0A500D100F6E0B500E10C5
:100F7000106E0950D96EDA6A040ED9260FC0DEFF52
:100F800010C0DDFF70EC0EF075EC0EF0520E5FEC51
:100F90000EF0B40E5FEC0EF06BEC0EF0530E5FEC47
:100FA0000EF0010EE2EC0CF00A6E0B6A0950D96EDD
:100FB000DA6A060ED9260AC0DEFF0BC0DDFF095033
:100FC000D96EDA6A060ED926DECF0AF0DDCF0BF035
:100FD000000EE2EC0CF00C6E0C500E6E0D6A0A5016
:100FE0000D100F6E0B500E10106E0950D96EDA6A8C
:100FF000060ED9260FC0DEFF10C0DDFF70EC0EF02C
:1010000012001050D96EDA6ADFCFF6FF0E0EF76EBF
:101010000800F550250AD8A410EF08F012EF08F0E8
:10102000CBEF08F01050D96EDA6ADF2A000E526E4C
:10103000000E516E51C055F0536854681050D96E6F
:10104000DA6ADF50146E14C0F6FF0E0EF76E080059
:10105000F550640AD8B42FEF08F031EF08F03FEFF5
:1010600008F014C0F6FF0E0EF76E0800F550690A7E
:10107000D8A43DEF08F03FEF08F0C5EF08F011509D
:10108000D96EDA6A020EDF26DF5CD96EDA6ADECF4D
:1010900015F0DECF16F01050D96EDA6A1428DF6E24
:1010A000200E196E16BE57EF08F05AEF08F0010E29
:1010B0005BEF08F0000E136E190619509C0FD96EE5
:1010C000DA6A15C005F016C006F0000E086E0A0EAA
:1010D000076E9CEC0BF005C00BF006C00CF057EC53
:1010E0000DF00B50300FDF6E15C005F016C006F086
:1010F000000E086E0A0E076E3AEC0BF005C015F0F4
:1011000006C016F015501610D8B489EF08F08BEF12
:1011100008F093EF08F01950D8A491EF08F093EF7E
:1011200008F05CEF08F01950D8B499EF08F09BEF85
:1011300008F0BAEF08F01350D8B4A1EF08F0A3EF0D
:1011400008F0BAEF08F0190619509C0FD96EDA6A48
:101150002D0EDF6EBAEF08F019509C0FD96EDA6AC7
:10116000DF50126E1250056E066A0FC007F0F4ECE5
:101170000BF0192A200E1918D8A4C1EF08F0C3EFFC
:1011800008F0ACEF08F0DCEF08F01050D96EDA6A26
:10119000DF2ADCEF08F01050D96EDA6ADFCFF6FFF5
:1011A0000E0EF76E0800F550056E066A0FC007F0C8
:1011B000F4EC0BF0C5EF08F01200000E0D6E2D0ED2
:1011C000055C010E0658D8A0E8EF08F0EAEF08F039
:1011D000EEEF08F0010E0D6E99EF09F02D0E075C91
:1011E000010E0858D8A0F7EF08F0F9EF08F0FDEF6E
:1011F00008F0020E0D6E99EF09F02D0E095C010E3C
:101200000A58D8A006EF09F008EF09F00CEF09F032
:10121000030E0D6E99EF09F02D0E095C010E0A58B0
:10122000D8A015EF09F017EF09F026EF09F02D0E01
:10123000095C010E0A58D8A020EF09F022EF09F04E
:1012400026EF09F0040E0D6E99EF09F02D0E095CE2
:10125000010E0A58D8A02FEF09F031EF09F040EF46
:1012600009F02D0E095C010E0A58D8A03AEF09F0DA
:101270003CEF09F040EF09F0050E0D6E99EF09F013
:101280002D0E095C010E0A58D8A049EF09F04BEF6A
:1012900009F05AEF09F02D0E095C010E0A58D8A08A
:1012A00054EF09F056EF09F05AEF09F0060E0D6EF3
:1012B00099EF09F02D0E095C010E0A58D8A063EFD2
:1012C00009F065EF09F074EF09F02D0E095C010ECD
:1012D0000A58D8A06EEF09F070EF09F074EF09F02A
:1012E000070E0D6E99EF09F02D0E055C010E0658E4
:1012F000D8A07DEF09F07FEF09F099EF09F02D0EEE
:10130000075C010E0858D8A088EF09F08AEF09F0B1
:1013100099EF09F02D0E095C010E0A58D8A093EF41
:1013200009F095EF09F099EF09F0080E0D6E99EFAD
:1013300009F00D5012002750D96EDA6A060ED92630
:1013400025C0DEFF26C0DDFF1FC005F020C006F06F
:10135000076A086AE80E096E030E0A6E000E0B6E2D
:10136000000E0C6E49EC0CF005C011F006C012F036
:1013700007C013F008C014F023502124286E245015
:101380002220296E1F5028262050292228C015F01F
:1013900029C016F0176A186A3CEC0AF02750D96E7B
:1013A000DA6A11C0DEFF12C0DDFF21C005F022C0E5
:1013B00006F0076A086AE80E096E030E0A6E000E50
:1013C0000B6E000E0C6E49EC0CF005C011F006C05F
:1013D00012F007C013F008C014F023502124286E27
:1013E00024502220296E1F5028262050292228C050
:1013F00015F029C016F0176A186A3CEC0AF027505D
:10140000D96EDA6A020ED92611C0DEFF12C0DDFFE6
:1014100023C005F024C006F0076A086AE80E096ECA
:10142000030E0A6E000E0B6E000E0C6E49EC0CF0F3
:1014300005C011F006C012F007C013F008C014F088
:1014400023502124286E24502220296E1F50282644
:101450002050292228C015F029C016F0176A186AF2
:101460003CEC0AF02750D96EDA6A040ED92611C076
:10147000DEFF12C0DDFF1200000E1A6E18BE45EF2F
:101480000AF043EF0AF04FEF0AF0181E171E161E5F
:10149000156C000E162217221822010E1A6E14BEA9
:1014A00056EF0AF054EF0AF060EF0AF0141E131E14
:1014B000121E116C000E122213221422010E1A1A8F
:1014C000000E1B6E000E1C6E000E1D6E000E1E6EBA
:1014D0001550161017101810D8B471EF0AF073EFEA
:1014E0000AF0A9EF0AF0010E196E7DEF0AF0D8900C
:1014F0001536163617361836192A18AE82EF0AF046
:1015000084EF0AF077EF0AF0D8901B361C361D36B0
:101510001E361550115C165012581750135818509B
:101520001458D8A096EF0AF098EF0AF0A1EF0AF04D
:101530001550115E1650125A1750135A1850145A5B
:101540001B80D8901832173216321532192E84EFBC
:101550000AF01A50D8B4AFEF0AF0B1EF0AF0B9EFC1
:101560000AF01E1E1D1E1C1E1B6C000E1C221D22BE
:101570001E221BC011F01CC012F01DC013F01EC0B3
:1015800014F0120022EC0DF07EEC0CF022EC0EF0C8
:1015900056EC0EF020EEBCF0270EDE6AE806FDE207
:1015A0007C868082010E00EC0EF08EB4DAEF0AF039
:1015B000DCEF0AF0D5EF0AF0EC0E096E16EC07F03E
:1015C00020EEECF000EE1FF0070EDBCFEBFFE8069D
:1015D000FCE2E40E276E9BEC09F020EEE4F000EE56
:1015E00005F0070EDBCFEBFFE806FCE2DDEC08F0D0
:1015F000BC0E1E6E010E1F6EECC020F0EDC021F07F
:10160000EEC022F0EFC023F0F0C024F0F1C025F0CE
:10161000F2C026F0F3C027F0E4C028F0E5C029F0BE
:10162000E6C02AF0E7C02BF0E8C02CF0E9C02DF0AE
:101630003DEC0DF031EC0EF0BC0E066E076AB1EC1D
:101640000CF031EC0EF02A0E066E0650D8A40E0EE9
:10165000076EB1EC0CF0190E3C6E5A0E3B6EB20EDA
:10166000E82EFED73B2EFCD73C2EFAD7D5EF0AF05A
:1016700046EF00F0000E0A6E08BE43EF0BF041EF9C
:101680000BF049EF0BF0076C081ED8B0082A010ECA
:101690000A6E06BE50EF0BF04EEF0BF056EF0BF05C
:1016A000056C061ED8B0062A010E0A1A000E0C6E32
:1016B000000E0B6E07500810D8B461EF0BF063EF0B
:1016C0000BF08BEF0BF0010E096E6BEF0BF0D89067
:1016D00007360836092A08AE70EF0BF072EF0BF0F0
:1016E00067EF0BF0D8900B360C360750055C0850AE
:1016F0000658D8A07EEF0BF080EF0BF085EF0BF0D3
:101700000750055E0850065A0B80D8900832073201
:10171000092E72EF0BF00A50D8B491EF0BF093EF53
:101720000BF097EF0BF00B6C0C1ED8B00C2A0BC013
:1017300005F00CC006F01200000E0A6E06BEA5EF02
:101740000BF0A3EF0BF0ABEF0BF0056C061ED8B05F
:10175000062A010E0A6E08BEB2EF0BF0B0EF0BF0D6
:10176000B6EF0BF0076C081ED8B0082A0750081017
:10177000D8B4BDEF0BF0BFEF0BF0E3EF0BF0010EB1
:10178000096EC7EF0BF0D89007360836092A08AE65
:10179000CCEF0BF0CEEF0BF0C3EF0BF00750055C76
:1017A00008500658D8A0D7EF0BF0D9EF0BF0DDEFBB
:1017B0000BF00750055E0850065AD89008320732E1
:1017C000092ECEEF0BF00A50D8B4E9EF0BF0EBEF97
:1017D0000BF0EFEF0BF0056C061ED8B0062A05C023
:1017E00005F006C006F012000750D8B4FAEF0BF06F
:1017F000FCEF0BF004EF0CF00750D8A402EF0CF054
:1018000004EF0CF009EF0CF0055084EC0EF048EFFB
:101810000CF00750D96EDA6A0A0ED926DE50DE10B7
:10182000D8B415EF0CF017EF0CF030EF0CF00750B8
:10183000D96EDA6A0A0ED9260750E16EE26A030E03
:10184000E126DE50E65CE650800A0C6EDE50800A2F
:101850000C58D8B02EEF0CF030EF0CF048EF0CF035
:101860000750D96EDA6A030ED926DF50086E07508A
:10187000D96EDA6ADF500824D96EDA6A05C0DFFF54
:101880000750D96EDA6A030ED926DE2A000EDD2251
:101890001200000E0D6E000E0E6E000E0F6E000E8A
:1018A000106E05A056EF0CF058EF0CF060EF0CF046
:1018B00009500D260A500E220B500F220C501022F8
:1018C000D89009360A360B360C36D89008320732D3
:1018D000063205320550061007100810D8A473EF21
:1018E0000CF075EF0CF051EF0CF00DC005F00EC0D0
:1018F00006F00FC007F010C008F012008AEC0DF0DF
:10190000010E076E000E12EC0EF03F0E096E550E22
:10191000E82EFED7092EFCD70000030E076E000E3E
:1019200012EC0EF0D50E076E010E12EC0EF0130E37
:10193000076E000E12EC0EF0070E076E070E12EC8B
:101940000EF0D00E076E060E12EC0EF0000E076EB3
:10195000050E12EC0EF0000E076E040E12EC0EF0E7
:101960001200C8EF0CF006C0F6FF07C0F7FF000E2C
:10197000F86E0D0EF76403D00800F55005D0F6CFD1
:10198000E9FFF7CFEAFFEF50C7EC0DF0064A072A50
:1019900006C0F6FF07C0F7FF000EF86E0D0EF764E5
:1019A00003D00800F55005D0F6CFE9FFF7CFEAFFE6
:1019B000EF500009D8A4DFEF0CF0E1EF0CF0B3EF2B
:1019C0000CF01200076E9FEC0DF00E01DA879FEC11
:1019D0000DF0D5CE08F09FEC0DF00750D8B4F3EF22
:1019E0000CF0F7EF0CF0066A062AF8EF0CF0066A26
:1019F000063A06460E01DA510618DF0B0618DA6FB2
:101A0000DA89085012001BC01DF00FEF0DF01AC04C
:101A10000FF01D0E106E1CC011F001EC08F01DC07F
:101A2000F6FF0E0EF76E0800F5500009D8A41BEF64
:101A30000DF01DEF0DF007EF0DF0000E1B6E000E08
:101A40001A6E12007C9E849E8096889686840E0173
:101A5000B4958686B497809288927C9884987C9678
:101A60008496A797809088907E9086907F908790AC
:101A70007D9E859E799681961200200E2E6E1EC048
:101A80002FF0000E336E000E326E000E3A6E000E16
:101A9000396E2F0E1A6E1FC01BF02E0E1C6E03EC3B
:101AA0000DF01E503224D96EDA6ADF6A12000CBEC5
:101AB0005CEF0DF05EEF0DF064EF0DF00BC00BF07E
:101AC0000CC00CF070EF0DF00BC00DF00CC00EF060
:101AD0000D1E0E1E0D4A0E2A0DC00BF00EC00CF08E
:101AE000120001EE00F0280EEE6AE806FDE100EEBD
:101AF00060F05C0EEE6AE806FDE100EE3DF01D0EC2
:101B0000EE6AE806FDE15A905A92000EF86E000166
:101B1000C2EF0AF00E01D951F00B0809D96FD98B29
:101B20009F0ED66F848A848CA79BA79D1D0E1D6F68
:101B30001E0E1C6F1C0E6F6F1B0E706F12000E01BD
:101B4000D8B5A5EF0DF0A7EF0DF09FEF0DF0DACEB1
:101B500005F01F0E0516D8A4B0EF0DF0B2EF0DF092
:101B60009FEF0DF012000E01D8B5B9EF0DF0BBEFED
:101B70000DF0B3EF0DF0DACE01F01F0E0116D8A470
:101B8000C4EF0DF0C6EF0DF0B3EF0DF01200056ECF
:101B90003B0E5764CEEF0DF0D0EF0DF0D2EF0DF00D
:101BA000000E576E5750600FD96EDA6A05C0DFFF1E
:101BB000572A1200016E130E5964E1EF0DF0E3EFA6
:101BC0000DF0E5EF0DF0000E596E59503D0FD96E36
:101BD000DA6A01C0DFFF592A12003B0E5664F3EFA8
:101BE0000DF0F5EF0DF0F7EF0DF0000E566E562AE2
:101BF0005604016E0150600FD96EDA6ADF50120090
:101C0000056E0550D8B407EF0EF009EF0EF00EEF99
:101C10000EF07F807D8E798611EF0EF07F907D9E95
:101C200079961200086E75EC0EF0520E5FEC0EF015
:101C3000085080095FEC0EF007505FEC0EF070EC7E
:101C40000EF01200120E0E01626F110E156FE99761
:101C5000E895330EE56F000EE66FE789E88BE78FB6
:101C600012003EEC0EF00009D8B439EF0EF03BEF55
:101C70000EF03DEF0EF00E012D8512005650571854
:101C8000D8A445EF0EF048EF0EF0010E49EF0EF02C
:101C9000000E120056505718D8A451EF0EF054EF12
:101CA0000EF0010E55EF0EF0000E120082800E01B4
:101CB0009A9129811F812D87F28CF28E1200066E77
:101CC0009FEC0DF006C0D5FE1200026EB3EC0DF0D5
:101CD00002C0D5FE12009FEC0DF00E01DA83120057
:101CE0009FEC0DF00E01DA8512009FEC0DF00E0155
:101CF000DA811200B3EC0DF00E01DA851200B3ECBC
:0A1D00000DF00E01DA81120012004E
:020000040030CA
:02000000AAFF55
:020004009FFF5C
:00000001FF
