:040000004CEF00F0D1
:100008005082D9CF0AF0DACF0BF00E0133A10FEFEF
:1000180000F011EF00F018EF00F0010E0001B16FD1
:10002800D0EC1FF00E01339133AB1DEF00F01FEF42
:1000380000F024EF00F0010E0001B06F0E01339BB9
:1000480037A729EF00F02BEF00F02EEF00F0E35177
:1000580096EC21F00E0137A534EF00F036EF00F0F2
:1000680046EF00F0A9EC21F00E01E46F26EC22F037
:100078000009D8A442EF00F044EF00F046EF00F08A
:100088000E012D950BC0DAFF0AC0D9FF509211005E
:0400980047EF20F01E
:100E000000002DC01FF02EC020F02FC021F030C0F8
:100E100022F039C023F03AC024F03BC025F028EC82
:100E20001BF0050E3D6E0F0E3C6EF10EE82EFED748
:100E30003C2EFCD73D2EFAD700002DC01FF02EC04F
:100E400020F02FC021F030C022F039C023F03AC08A
:100E500024F03BC025F028EC1BF0050E3D6E0F0E74
:100E60003C6EF10EE82EFED73C2EFCD73D2EFAD775
:100E700000002DC01FF02EC020F02FC021F030C088
:100E800022F039C023F03AC024F03BC025F028EC12
:100E90001BF0050E3D6E0F0E3C6EF10EE82EFED7D8
:100EA0003C2EFCD73D2EFAD700002DC01FF02EC0DF
:100EB00020F02FC021F030C022F039C023F03AC01A
:100EC00024F03BC025F028EC1BF0050E3D6E0F0E04
:100ED0003C6EF10EE82EFED73C2EFCD73D2EFAD705
:100EE00000002DC01FF02EC020F02FC021F030C018
:100EF00022F036C023F038C024F077EC1EF049EC25
:100F000022F03550020DF3CF3CF0F4CF3DF03C50D1
:100F10003324D96E3D503420DA6E47EC21F0DE5098
:100F20000C5CDE500D58D8A098EF07F09AEF07F050
:100F300081EF07F02DC01FF02EC020F02FC021F050
:100F400030C022F038C023F0F3EC1DF035C040F083
:100F500056EF0AF0400640503124D96E000E322080
:100F6000DA6EDE04D8A4B7EF07F0B9EF07F0F3EFBD
:100F700007F02DC01FF02EC020F02FC021F030C090
:100F800022F039C023F03AC024F03BC025F028EC11
:100F90001BF0050E3D6E0F0E3C6EF10EE82EFED7D7
:100FA0003C2EFCD73D2EFAD700002DC01FF02EC0DE
:100FB00020F02FC021F030C022F039C023F03AC019
:100FC00024F03BC025F028EC1BF0050E3D6E0F0E03
:100FD0003C6EF10EE82EFED73C2EFCD73D2EFAD704
:100FE000000021EF0AF040503124D96E000E32206B
:100FF000DA6E020EDE18D8A400EF08F002EF08F057
:101000003CEF08F02DC01FF02EC020F02FC021F0C3
:1010100030C022F039C023F03AC024F03BC025F0A4
:101020003EEC1AF0050E3D6E0F0E3C6EF10EE82EF2
:10103000FED73C2EFCD73D2EFAD700002DC01FF066
:101040002EC020F02FC021F030C022F039C023F094
:101050003AC024F03BC025F03EEC1AF0050E3D6E80
:101060000F0E3C6EF10EE82EFED73C2EFCD73D2E27
:10107000FAD7000021EF0AF040503124D96E000E5B
:101080003220DA6E030EDE18D8A449EF08F04BEFD9
:1010900008F0BDEF08F02DC01FF02EC020F02FC0CB
:1010A00021F030C022F039C023F03AC024F03BC018
:1010B00025F028EC1BF0050E3D6E0F0E3C6EF10E78
:1010C000E82EFED73C2EFCD73D2EFAD700002DC0CF
:1010D0001FF02EC020F02FC021F030C022F039C008
:1010E00023F03AC024F03BC025F028EC1BF0050E9D
:1010F0003D6E0F0E3C6EF10EE82EFED73C2EFCD757
:101100003D2EFAD700002DC01FF02EC020F02FC0BA
:1011100021F030C022F039C023F03AC024F03BC0A7
:1011200025F028EC1BF0050E3D6E0F0E3C6EF10E07
:10113000E82EFED73C2EFCD73D2EFAD700002DC05E
:101140001FF02EC020F02FC021F030C022F039C097
:1011500023F03AC024F03BC025F028EC1BF0050E2C
:101160003D6E0F0E3C6EF10EE82EFED73C2EFCD7E6
:101170003D2EFAD7000021EF0AF040503124D96EFD
:10118000000E3220DA6E040EDE18D8A4CAEF08F082
:10119000CCEF08F016EF09F02DC01FF02EC020F0A4
:1011A0002FC021F030C022F039C023F03AC024F023
:1011B0003BC025F028EC1BF0050E3D6E0F0E3C6E7B
:1011C000F10EE82EFED73C2EFCD73D2EFAD70000BC
:1011D0002DC01FF02EC020F02FC021F030C022F013
:1011E00039C023F03AC024F03BC025F028EC1BF0B6
:1011F000050E3D6E0F0E3C6EF10EE82EFED73C2E16
:10120000FCD73D2EFAD700002DC01FF02EC020F0D5
:101210002FC021F030C022F036C023F037C024F0B8
:1012200038C025F04BEC19F0AFEF08F040503124F6
:10123000D96E000E3220DA6E050EDE18D8A423EF28
:1012400009F025EF09F06FEF09F02DC01FF02EC057
:1012500020F02FC021F030C022F039C023F03AC076
:1012600024F03BC025F03EEC1AF0050E3D6E0F0E4B
:101270003C6EF10EE82EFED73C2EFCD73D2EFAD761
:1012800000002DC01FF02EC020F02FC021F030C074
:1012900022F039C023F03AC024F03BC025F03EECE8
:1012A0001AF0050E3D6E0F0E3C6EF10EE82EFED7C5
:1012B0003C2EFCD73D2EFAD700002DC01FF02EC0CB
:1012C00020F02FC021F030C022F036C023F037C00C
:1012D00024F038C025F04BEC19F0AFEF08F0405087
:1012E0003124D96E000E3220DA6E060EDE18D8A434
:1012F0007CEF09F07EEF09F0C8EF09F02DC01FF078
:101300002EC020F02FC021F030C022F039C023F0D1
:101310003AC024F03BC025F028EC1BF0050E3D6ED2
:101320000F0E3C6EF10EE82EFED73C2EFCD73D2E64
:10133000FAD700002DC01FF02EC020F02FC021F0E2
:1013400030C022F039C023F03AC024F03BC025F071
:1013500028EC1BF0050E3D6E0F0E3C6EF10EE82ED4
:10136000FED73C2EFCD73D2EFAD700002DC01FF033
:101370002EC020F02FC021F030C022F039C023F061
:101380003AC024F03BC025F028EC1BF0AFEF08F08A
:1013900040503124D96E000E3220DA6E070EDE186E
:1013A000D8A4D5EF09F0D7EF09F021EF0AF02DC04E
:1013B0001FF02EC020F02FC021F030C022F039C025
:1013C00023F03AC024F03BC025F03EEC1AF0050EA5
:1013D0003D6E0F0E3C6EF10EE82EFED73C2EFCD774
:1013E0003D2EFAD700002DC01FF02EC020F02FC0D8
:1013F00021F030C022F039C023F03AC024F03BC0C5
:1014000025F03EEC1AF0050E3D6E0F0E3C6EF10E0F
:10141000E82EFED73C2EFCD73D2EFAD700002DC07B
:101420001FF02EC020F02FC021F030C022F039C0B4
:1014300023F03AC024F03BC025F03EEC1AF0AFEFA9
:1014400008F02DC01FF02EC020F02FC021F030C0BA
:1014500022F036C023F038C024F077EC1EF049ECBF
:1014600022F04050020DF3CF3CF0F4CF3DF03C5061
:101470003324D96E3D503420DA6E47EC21F0DE5033
:101480000C5CDE500D58D8A048EF0AF04AEF0AF085
:1014900031EF0AF02DC01FF02EC020F02FC021F038
:1014A00030C022F038C023F0F3EC1DF04050D8A437
:1014B0005CEF0AF05EEF0AF0AAEF07F012008086F8
:1014C0007C8E2DC01FF02EC020F02FC021F030C028
:1014D00022F039C023F03AC024F03BC025F028ECBC
:1014E0001BF0050E3D6E0F0E3C6EF10EE82EFED782
:1014F0003C2EFCD73D2EFAD700002DC01FF02EC089
:1015000020F02FC021F030C022F039C023F03AC0C3
:1015100024F03BC025F028EC1BF0050E3D6E0F0EAD
:101520003C6EF10EE82EFED73C2EFCD73D2EFAD7AE
:1015300000002DC01FF02EC020F02FC021F030C0C1
:1015400022F039C023F03AC024F03BC025F028EC4B
:101550001BF0050E3D6E0F0E3C6EF10EE82EFED711
:101560003C2EFCD73D2EFAD700002DC01FF02EC018
:1015700020F02FC021F030C022F039C023F03AC053
:1015800024F03BC025F028EC1BF0050E3D6E0F0E3D
:101590003C6EF10EE82EFED73C2EFCD73D2EFAD73E
:1015A00000002DC01FF02EC020F02FC021F030C051
:1015B00022F036C023F038C024F077EC1EF049EC5E
:1015C00022F0000E0001B06FB051D8B4EAEF0AF07B
:1015D000ECEF0AF0E4EF0AF02DC01FF02EC020F06F
:1015E0002FC021F030C022F038C023F0F3EC1DF002
:1015F00035C040F0A8EF0DF0400640503124D96EC0
:10160000000E3220DA6EDE04D8A409EF0BF00BEFE7
:101610000BF045EF0BF02DC01FF02EC020F02FC0B7
:1016200021F030C022F039C023F03AC024F03BC092
:1016300025F028EC1BF0050E3D6E0F0E3C6EF10EF2
:10164000E82EFED73C2EFCD73D2EFAD700002DC049
:101650001FF02EC020F02FC021F030C022F039C082
:1016600023F03AC024F03BC025F028EC1BF0050E17
:101670003D6E0F0E3C6EF10EE82EFED73C2EFCD7D1
:101680003D2EFAD7000073EF0DF040503124D96E93
:10169000000E3220DA6E020EDE18D8A452EF0BF0E4
:1016A00054EF0BF08EEF0BF02DC01FF02EC020F08A
:1016B0002FC021F030C022F039C023F03AC024F00E
:1016C0003BC025F03EEC1AF0050E3D6E0F0E3C6E51
:1016D000F10EE82EFED73C2EFCD73D2EFAD70000A7
:1016E0002DC01FF02EC020F02FC021F030C022F0FE
:1016F00039C023F03AC024F03BC025F03EEC1AF08C
:10170000050E3D6E0F0E3C6EF10EE82EFED73C2E00
:10171000FCD73D2EFAD7000073EF0DF04050312476
:10172000D96E000E3220DA6E030EDE18D8A49BEFBD
:101730000BF09DEF0BF00FEF0CF02DC01FF02EC043
:1017400020F02FC021F030C022F039C023F03AC081
:1017500024F03BC025F028EC1BF0050E3D6E0F0E6B
:101760003C6EF10EE82EFED73C2EFCD73D2EFAD76C
:1017700000002DC01FF02EC020F02FC021F030C07F
:1017800022F039C023F03AC024F03BC025F028EC09
:101790001BF0050E3D6E0F0E3C6EF10EE82EFED7CF
:1017A0003C2EFCD73D2EFAD700002DC01FF02EC0D6
:1017B00020F02FC021F030C022F039C023F03AC011
:1017C00024F03BC025F028EC1BF0050E3D6E0F0EFB
:1017D0003C6EF10EE82EFED73C2EFCD73D2EFAD7FC
:1017E00000002DC01FF02EC020F02FC021F030C00F
:1017F00022F039C023F03AC024F03BC025F028EC99
:101800001BF0050E3D6E0F0E3C6EF10EE82EFED75E
:101810003C2EFCD73D2EFAD7000073EF0DF0405060
:101820003124D96E000E3220DA6E040EDE18D8A4F0
:101830001CEF0CF01EEF0CF068EF0CF02DC01FF049
:101840002EC020F02FC021F030C022F039C023F08C
:101850003AC024F03BC025F028EC1BF0050E3D6E8D
:101860000F0E3C6EF10EE82EFED73C2EFCD73D2E1F
:10187000FAD700002DC01FF02EC020F02FC021F09D
:1018800030C022F039C023F03AC024F03BC025F02C
:1018900028EC1BF0050E3D6E0F0E3C6EF10EE82E8F
:1018A000FED73C2EFCD73D2EFAD700002DC01FF0EE
:1018B0002EC020F02FC021F030C022F036C023F01F
:1018C00037C024F038C025F04BEC19F001EF0CF0D4
:1018D00040503124D96E000E3220DA6E050EDE182B
:1018E000D8A475EF0CF077EF0CF0C1EF0CF02DC021
:1018F0001FF02EC020F02FC021F030C022F039C0E0
:1019000023F03AC024F03BC025F03EEC1AF0050E5F
:101910003D6E0F0E3C6EF10EE82EFED73C2EFCD72E
:101920003D2EFAD700002DC01FF02EC020F02FC092
:1019300021F030C022F039C023F03AC024F03BC07F
:1019400025F03EEC1AF0050E3D6E0F0E3C6EF10ECA
:10195000E82EFED73C2EFCD73D2EFAD700002DC036
:101960001FF02EC020F02FC021F030C022F036C072
:1019700023F037C024F038C025F04BEC19F001EF0C
:101980000CF040503124D96E000E3220DA6E060E73
:10199000DE18D8A4CEEF0CF0D0EF0CF01AEF0DF05B
:1019A0002DC01FF02EC020F02FC021F030C022F03B
:1019B00039C023F03AC024F03BC025F028EC1BF0DE
:1019C000050E3D6E0F0E3C6EF10EE82EFED73C2E3E
:1019D000FCD73D2EFAD700002DC01FF02EC020F0FE
:1019E0002FC021F030C022F039C023F03AC024F0DB
:1019F0003BC025F028EC1BF0050E3D6E0F0E3C6E33
:101A0000F10EE82EFED73C2EFCD73D2EFAD7000073
:101A10002DC01FF02EC020F02FC021F030C022F0CA
:101A200039C023F03AC024F03BC025F028EC1BF06D
:101A300001EF0CF040503124D96E000E3220DA6EE6
:101A4000070EDE18D8A427EF0DF029EF0DF073EF85
:101A50000DF02DC01FF02EC020F02FC021F030C09F
:101A600022F039C023F03AC024F03BC025F03EEC10
:101A70001AF0050E3D6E0F0E3C6EF10EE82EFED7ED
:101A80003C2EFCD73D2EFAD700002DC01FF02EC0F3
:101A900020F02FC021F030C022F039C023F03AC02E
:101AA00024F03BC025F03EEC1AF0050E3D6E0F0E03
:101AB0003C6EF10EE82EFED73C2EFCD73D2EFAD719
:101AC00000002DC01FF02EC020F02FC021F030C02C
:101AD00022F039C023F03AC024F03BC025F03EECA0
:101AE0001AF001EF0CF02DC01FF02EC020F02FC017
:101AF00021F030C022F036C023F038C024F077EC5B
:101B00001EF049EC22F04050020DF3CF3CF0F4CF30
:101B10003DF03C503324D96E3D503420DA6E47EC12
:101B200021F0DE500C5CDE500D58D8A09AEF0DF07D
:101B30009CEF0DF083EF0DF02DC01FF02EC020F0B4
:101B40002FC021F030C022F038C023F0F3EC1DF09C
:101B50004050D8A4AEEF0DF0B0EF0DF0FCEF0AF05E
:101B600012000001B605D8A4B8EF0DF0BAEF0DF0E1
:101B700002EF0EF0B2C01FF0B3C020F0B4C021F0ED
:101B8000B5C022F0BFC023F0C0C024F0C1C025F012
:101B90003EEC1AF0050E426E0F0E416EF10EE82E6D
:101BA000FED7412EFCD7422EFAD70000B2C01FF05C
:101BB000B3C020F0B4C021F0B5C022F0BFC023F004
:101BC000C0C024F0C1C025F03EEC1AF0050E426EF4
:101BD0000F0E416EF10EE82EFED7412EFCD7422E9D
:101BE000FAD70000B2C01FF0B3C020F0B4C021F09B
:101BF000B5C022F0BCC023F0BEC024F077EC1EF0CC
:101C0000DBEF10F0020EB619D8A409EF0EF00BEFBF
:101C10000EF053EF0EF0B2C01FF0B3C020F0B4C00E
:101C200021F0B5C022F0BFC023F0C0C024F0C1C075
:101C300025F028EC1BF0050E426E0F0E416EF10EE2
:101C4000E82EFED7412EFCD7422EFAD70000B2C0B4
:101C50001FF0B3C020F0B4C021F0B5C022F0BFC067
:101C600023F0C0C024F0C1C025F028EC1BF0050E05
:101C7000426E0F0E416EF10EE82EFED7412EFCD7BC
:101C8000422EFAD70000B2C01FF0B3C020F0B4C09B
:101C900021F0B5C022F0BCC023F0BEC024F077EC28
:101CA0001EF0DBEF10F0030EB619D8A45AEF0EF0B9
:101CB0005CEF0EF0DCEF0EF0B2C01FF0B3C020F00E
:101CC000B4C021F0B5C022F0BFC023F0C0C024F0E2
:101CD000C1C025F028EC1BF0050E426E0F0E416EC0
:101CE000F10EE82EFED7412EFCD7422EFAD7000087
:101CF000B2C01FF0B3C020F0B4C021F0B5C022F0D4
:101D0000BFC023F0C0C024F0C1C025F028EC1BF0F8
:101D1000050E426E0F0E416EF10EE82EFED7412EDB
:101D2000FCD7422EFAD70000B2C01FF0B3C020F09B
:101D3000B4C021F0B5C022F0BFC023F0C0C024F071
:101D4000C1C025F028EC1BF0050E426E0F0E416E4F
:101D5000F10EE82EFED7412EFCD7422EFAD7000016
:101D6000B2C01FF0B3C020F0B4C021F0B5C022F063
:101D7000BFC023F0C0C024F0C1C025F028EC1BF088
:101D8000050E426E0F0E416EF10EE82EFED7412E6B
:101D9000FCD7422EFAD70000B2C01FF0B3C020F02B
:101DA000B4C021F0B5C022F0BCC023F0BEC024F006
:101DB00077EC1EF0DBEF10F0040EB619D8A4E3EFB9
:101DC0000EF0E5EF0EF049EF0FF0B2C01FF0B3C018
:101DD00020F0B4C021F0B5C022F0BCC023F0BDC0DB
:101DE00024F0BEC025F04BEC19F0050E426E0F0E2C
:101DF000416EF10EE82EFED7412EFCD7422EFAD7C7
:101E00000000B2C01FF0B3C020F0B4C021F0B5C0D4
:101E100022F0BFC023F0C0C024F0C1C025F03EECCA
:101E20001AF0050E426E0F0E416EF10EE82EFED72F
:101E3000412EFCD7422EFAD70000B2C01FF0B3C02B
:101E400020F0B4C021F0B5C022F0BFC023F0C0C064
:101E500024F0C1C025F03EEC1AF0050E426E0F0EC4
:101E6000416EF10EE82EFED7412EFCD7422EFAD756
:101E70000000B2C01FF0B3C020F0B4C021F0B5C064
:101E800022F0BCC023F0BEC024F077EC1EF0DBEFE4
:101E900010F0050EB619D8A450EF0FF052EF0FF066
:101EA000B6EF0FF0B2C01FF0B3C020F0B4C021F005
:101EB000B5C022F0BCC023F0BDC024F0BEC025F0E8
:101EC0004BEC19F0050E426E0F0E416EF10EE82E2E
:101ED000FED7412EFCD7422EFAD70000B2C01FF029
:101EE000B3C020F0B4C021F0B5C022F0BFC023F0D1
:101EF000C0C024F0C1C025F028EC1BF0050E426ED6
:101F00000F0E416EF10EE82EFED7412EFCD7422E69
:101F1000FAD70000B2C01FF0B3C020F0B4C021F067
:101F2000B5C022F0BFC023F0C0C024F0C1C025F06E
:101F300028EC1BF0050E426E0F0E416EF10EE82EDE
:101F4000FED7412EFCD7422EFAD70000B2C01FF0B8
:101F5000B3C020F0B4C021F0B5C022F0BCC023F063
:101F6000BEC024F077EC1EF0DBEF10F0060EB619C1
:101F7000D8A4BDEF0FF0BFEF0FF023EF10F0B2C009
:101F80001FF0B3C020F0B4C021F0B5C022F0BFC034
:101F900023F0C0C024F0C1C025F03EEC1AF0050EBD
:101FA000426E0F0E416EF10EE82EFED7412EFCD789
:101FB000422EFAD70000B2C01FF0B3C020F0B4C068
:101FC00021F0B5C022F0BFC023F0C0C024F0C1C0D2
:101FD00025F03EEC1AF0050E426E0F0E416EF10E2A
:101FE000E82EFED7412EFCD7422EFAD70000B2C011
:101FF0001FF0B3C020F0B4C021F0B5C022F0BFC0C4
:1020000023F0C0C024F0C1C025F03EEC1AF0050E4C
:10201000426E0F0E416EF10EE82EFED7412EFCD718
:10202000422EFAD70000B2C01FF0B3C020F0B4C0F7
:1020300021F0B5C022F0BCC023F0BEC024F077EC84
:102040001EF0DBEF10F0070EB619D8A42AEF10F03F
:102050002CEF10F090EF10F0B2C01FF0B3C020F0E2
:10206000B4C021F0B5C022F0BFC023F0C0C024F03E
:10207000C1C025F028EC1BF0050E426E0F0E416E1C
:10208000F10EE82EFED7412EFCD7422EFAD70000E3
:10209000B2C01FF0B3C020F0B4C021F0B5C022F030
:1020A000BFC023F0C0C024F0C1C025F028EC1BF055
:1020B000050E426E0F0E416EF10EE82EFED7412E38
:1020C000FCD7422EFAD70000B2C01FF0B3C020F0F8
:1020D000B4C021F0B5C022F0BFC023F0C0C024F0CE
:1020E000C1C025F028EC1BF0050E426E0F0E416EAC
:1020F000F10EE82EFED7412EFCD7422EFAD7000073
:10210000B2C01FF0B3C020F0B4C021F0B5C022F0BF
:10211000BCC023F0BEC024F077EC1EF0DBEF10F063
:10212000080EB619D8A497EF10F099EF10F0BBEF96
:1021300010F0B2C02DF0B3C02EF0B4C02FF0B5C077
:1021400030F0B7C031F0B8C032F0B9C033F0BAC027
:1021500034F0BBC035F0BCC036F0BDC037F0BEC0F7
:1021600038F0BFC039F0C0C03AF0C1C03BF001EC5C
:1021700007F0DBEF10F0B2C02DF0B3C02EF0B4C00A
:102180002FF0B5C030F0B7C031F0B8C032F0B9C0F0
:1021900033F0BAC034F0BBC035F0BCC036F0BDC0BF
:1021A00037F0BEC038F0BFC039F0C0C03AF0C1C08F
:1021B0003BF001EC07F01200010EBCEC21F0808630
:1021C0007C8E8EB4E6EF10F0E8EF10F0E1EF10F047
:1021D00080967C9E32C010F033C011F054EC18F0A1
:1021E00032C0D9FF33C0DAFF00EE26F0070EDBCF96
:1021F000EBFFE806FCE234C02EF035C02FF0C8EC4F
:102200001CF034C0D9FF35C0DAFF36C0E1FF37C05B
:10221000E2FFDECFE6FFDDCFE5FF20EE02F0345037
:10222000D9263550DA2210EE02F03650E12637502A
:10223000E222DECFE6FFDDCFE5FF20EE04F03450F2
:10224000D9263550DA2210EE04F03650E126375008
:10225000E222DECFE6FFDDCFE5FF290E476E960EC8
:10226000466E7F0EE82EFED7462EFCD7472EFAD7B5
:10227000000080867C8E8EB440EF11F042EF11F0AA
:102280003BEF11F080967C9E32C010F033C011F00D
:1022900054EC18F032C0D9FF33C0DAFF00EE26F05C
:1022A000070EDBCFEBFFE806FCE234C02EF035C0B2
:1022B0002FF0C8EC1CF034C0D9FF35C0DAFF38C0AD
:1022C000E1FF39C0E2FFDECFE6FFDDCFE5FF20EE24
:1022D00002F03450D9263550DA2210EE02F0385090
:1022E000E1263950E222DECFE6FFDDCFE5FF20EE2A
:1022F00004F03450D9263550DA2210EE04F038506C
:10230000E1263950E222DECFE6FFDDCFE5FF290EE0
:10231000476E960E466E7F0EE82EFED7462EFCD7F1
:10232000472EFAD7000080867C8E8EB49AEF11F08B
:102330009CEF11F095EF11F080967C9E32C010F06A
:1023400033C011F054EC18F032C0D9FF33C0DAFFBB
:1023500000EE26F0070EDBCFEBFFE806FCE234C010
:102360002EF035C02FF0C8EC1CF034C0D9FF35C0BA
:10237000DAFF3AC0E1FF3BC0E2FFDECFE6FFDDCF90
:10238000E5FF20EE02F03450D9263550DA2210EE67
:1023900002F03A50E1263B50E222DECFE6FFDDCFED
:1023A000E5FF20EE04F03450D9263550DA2210EE45
:1023B00004F03A50E1263B50E222DECFE6FFDDCFCB
:1023C000E5FF290E476E960E466E7F0EE82EFED76D
:1023D000462EFCD7472EFAD7000080867C8E8EB41E
:1023E000F4EF11F0F6EF11F0EFEF11F080967C9E14
:1023F00032C010F033C011F054EC18F032C0D9FFE5
:1024000033C0DAFF00EE26F0070EDBCFEBFFE80665
:10241000FCE234C02EF035C02FF0C8EC1CF034C004
:10242000D9FF35C0DAFF3CC0E1FF3DC0E2FFDECF9F
:10243000E6FFDDCFE5FF20EE02F03450D92635501F
:10244000DA2210EE02F03C50E1263D50E222DECFCF
:10245000E6FFDDCFE5FF20EE04F03450D9263550FD
:10246000DA2210EE04F03C50E1263D50E222DECFAD
:10247000E6FFDDCFE5FF290E476E960E466E7F0E16
:10248000E82EFED7462EFCD7472EFAD700008086CE
:102490007C8E8EB44EEF12F050EF12F049EF12F036
:1024A00080967C9E32C010F033C011F054EC18F0CE
:1024B00032C0D9FF33C0DAFF00EE26F0070EDBCFC3
:1024C000EBFFE806FCE234C02EF035C02FF0C8EC7C
:1024D0001CF034C0D9FF35C0DAFF3EC0E1FF3FC079
:1024E000E2FFDECFE6FFDDCFE5FF20EE02F0345065
:1024F000D9263550DA2210EE02F03E50E1263F5048
:10250000E222DECFE6FFDDCFE5FF20EE04F034501F
:10251000D9263550DA2210EE04F03E50E1263F5025
:10252000E222DECFE6FFDDCFE5FF290E476E960EF5
:10253000466E7F0EE82EFED7462EFCD7472EFAD7E2
:10254000000080867C8E8EB4A8EF12F0AAEF12F005
:10255000A3EF12F080967C9E32C010F033C011F0D1
:1025600054EC18F032C0D9FF33C0DAFF00EE26F089
:10257000070EDBCFEBFFE806FCE234C02EF035C0DF
:102580002FF0C8EC1CF034C0D9FF35C0DAFF40C0D2
:10259000E1FF41C0E2FFDECFE6FFDDCFE5FF20EE49
:1025A00002F03450D9263550DA2210EE02F04050B5
:1025B000E1264150E222DECFE6FFDDCFE5FF20EE4F
:1025C00004F03450D9263550DA2210EE04F0405091
:1025D000E1264150E222DECFE6FFDDCFE5FF290E06
:1025E000476E960E466E7F0EE82EFED7462EFCD71F
:1025F000472EFAD7000080867C8E8EB402EF13F04F
:1026000004EF13F0FDEF12F080967C9E32C010F0C4
:1026100033C011F054EC18F032C0D9FF33C0DAFFE8
:1026200000EE26F0070EDBCFEBFFE806FCE234C03D
:102630002EF035C02FF0C8EC1CF034C0D9FF35C0E7
:10264000DAFF42C0E1FF43C0E2FFDECFE6FFDDCFAD
:10265000E5FF20EE02F03450D9263550DA2210EE94
:1026600002F04250E1264350E222DECFE6FFDDCF0A
:10267000E5FF20EE04F03450D9263550DA2210EE72
:1026800004F04250E1264350E222DECFE6FFDDCFE8
:10269000E5FF290E476E960E466E7F0EE82EFED79A
:1026A000462EFCD7472EFAD7000080867C8E8EB44B
:1026B0005CEF13F05EEF13F057EF13F080967C9E03
:1026C00032C010F033C011F054EC18F032C0D9FF12
:1026D00033C0DAFF00EE26F0070EDBCFEBFFE80693
:1026E000FCE234C02EF035C02FF0C8EC1CF034C032
:1026F000D9FF35C0DAFF44C0E1FF45C0E2FFDECFBD
:10270000E6FFDDCFE5FF20EE02F03450D92635504C
:10271000DA2210EE02F04450E1264550E222DECFEC
:10272000E6FFDDCFE5FF20EE04F03450D92635502A
:10273000DA2210EE04F04450E1264550E222DECFCA
:10274000E6FFDDCFE5FF290E476E960E466E7F0E43
:10275000E82EFED7462EFCD7472EFAD700008086FB
:102760007C8E120020EEC2F0270EDE6AE806FDE243
:10277000000E0101AE6F21EE52F0270EDE6AE80670
:10278000FDE221EE00F0510EDE6AE806FDE2000EE9
:10279000AF6FEEC0EAF0EFC0EBF0F0C0ECF0F1C0CC
:1027A000EDF017EC21F0FBEC20F0DEEC21F032EC48
:1027B00022F0FEEC21F0000E0D6EC70E0C6E4BECFD
:1027C0001FF0000E0101CC6F010ECD6F010ECE6F18
:1027D000AA0ED16F0F0ED26FA60ED36F0F0ED46F4D
:1027E000000ED06FC70ECF6F000ED56F000EC26FF8
:1027F000010EC36F010EC46F250EC76F0F0EC86F99
:10280000210EC96F0F0ECA6F000EC66FC70EC56FBF
:10281000000ECB6F190EAB6F010EB06FC80E7A6F42
:10282000140EAC6F190EB16F020EAD6FB3EC20F049
:102830008EB41DEF14F01FEF14F018EF14F0809613
:102840007C9E7C868082290E496E960E486E7F0E95
:10285000E82EFED7482EFCD7492EFAD70000BA0E34
:10286000326E010E336EB20E346E010E356E7B0E7B
:10287000366E010E376E810E386E010E396E870E80
:102880003A6E010E3B6E8D0E3C6E010E3D6E930E48
:102890003E6E010E3F6E990E406E010E416E9F0E10
:1028A000426E010E436EA50E446E010E456EDCECC9
:1028B00010F0CC0E2D6E010E2E6EC20E2F6E010E7C
:1028C000306E140E316EB10E326E010E336E020E8A
:1028D000346ED1EC15F0010EBCEC21F0520E496EB5
:1028E0002B0E486E000EE82EFED7482EFCD7492E40
:1028F000FAD700D0BA0E106E010E116E54EC18F01B
:10290000C0C14EF0C1C14FF0290E496E960E486EFF
:102910007F0EE82EFED7482EFCD7492EFAD70000AE
:10292000CC0E1F6E010E206EC20E216E010E226EA5
:10293000190E236E010E246E77EC1EF049EC22F086
:10294000000E0001B16F000EB06F0001B105D8A4F8
:10295000ACEF14F0AEEF14F07FEF15F00E01299BF1
:1029600029AB02D0298102D00E01299147EC21F038
:102970000101AF51020D000EF324D96E010EF420B7
:10298000DA6E0CC0DEFF0DC0DDFFCC0E1F6E010E37
:10299000206EC20E216E010E226EB0C123F0F3EC48
:1029A0001DF0BA0E106E010E116E54EC18F021EEEF
:1029B000BAF000EE26F0070EDBCFEBFFE806FCE2F4
:1029C000B20E2E6E010E2F6EC8EC1CF021EEB2F08E
:1029D00000EE0CF0070EDBCFEBFFE806FCE221EE89
:1029E0007BF000EE14F0050EDBCFEBFFE806FCE217
:1029F00021EE81F000EE1AF0050EDBCFEBFFE806CA
:102A0000FCE221EE87F000EE20F0050EDBCFEBFFBD
:102A1000E806FCE221EE8DF000EE26F0050EDBCF9D
:102A2000EBFFE806FCE221EE93F000EE2CF0050E41
:102A3000DBCFEBFFE806FCE221EE99F000EE32F08E
:102A4000050EDBCFEBFFE806FCE221EE9FF000EE87
:102A500038F0050EDBCFEBFFE806FCE221EEA5F037
:102A600000EE3EF0050EDBCFEBFFE806FCE21EECCD
:102A700017F00101AE6F520EAF25D96EDA6A010E62
:102A8000DA22AEC1DFFFCC0E0001B26F010EB36FD0
:102A9000C20EB46F010EB56FAEC1B6F0520EB76F75
:102AA000010EB86F000EB96F010EBA6FAFC1BBF067
:102AB000ABC1BCF07AC1BDF0B0C1BEF0ACC1BFF0DB
:102AC000B1C1C0F0ADC1C1F0B1EC0DF0BA0E106EE5
:102AD000010E116E54EC18F0C0C14EF0C1C14FF0A0
:102AE0000101AF2B49EC22F00E01298B29AB02D05A
:102AF000298102D00E012991000E0001B16FB005AD
:102B0000D8A485EF15F087EF15F0BCEF15F00E0196
:102B10002991CC0E1F6E010E206EC20E216E010E89
:102B2000226EB0C123F0F3EC1DF0CC0E2D6E010E21
:102B30002E6EC20E2F6E010E306E520E316E010ED1
:102B4000326E000E336E010E346EAFC135F0ABC184
:102B500036F07AC137F0B0C138F0ACC139F0B1C14C
:102B60003AF0ADC13BF05FEC0AF00E012981000E96
:102B70000001B06FCFEF15F0080E0101AE19D8B407
:102B8000C4EF15F0C6EF15F0CFEF15F0090EAE1932
:102B9000D8A4CDEF15F0CFEF15F0A5EF14F04CEF62
:102BA00000F02DC01FF02EC020F02FC021F030C04B
:102BB00022F031C023F032C0D9FF33C0DAFFDF503A
:102BC000246E34C025F028EC1BF0050E366E0F0E77
:102BD000356EF10EE82EFED7352EFCD7362EFAD7FD
:102BE00000002DC01FF02EC020F02FC021F030C0FB
:102BF00022F031C023F032C0D9FF33C0DAFFDF50FA
:102C0000246E34C025F028EC1BF0050E366E0F0E36
:102C1000356EF10EE82EFED7352EFCD7362EFAD7BC
:102C200000002DC01FF02EC020F02FC021F030C0BA
:102C300022F031C023F032C0D9FF33C0DAFFDF50B9
:102C4000246E34C025F03EEC1AF0050E366E0F0EE1
:102C5000356EF10EE82EFED7352EFCD7362EFAD77C
:102C600000002DC01FF02EC020F02FC021F030C07A
:102C700022F031C023F032C0D9FF33C0DAFFDF5079
:102C8000246E34C025F03EEC1AF08EA44AEF16F004
:102C90004CEF16F053EF16F08EB651EF16F053EFDF
:102CA00016F045EF16F08EB458EF16F05AEF16F006
:102CB0006EEF16F032C0D9FF33C0DAFFDF50D8B460
:102CC00064EF16F066EF16F06EEF16F032C0D9FF23
:102CD00033C0DAFFDF067C8E7BEF16F08EB673EF23
:102CE00016F075EF16F07BEF16F032C0D9FF33C047
:102CF000DAFFDF2A8086290E366E960E356E7F0E3D
:102D0000E82EFED7352EFCD7362EFAD700008EB629
:102D10008CEF16F08EEF16F095EF16F032C0D9FF5B
:102D200033C0DAFFDF060DEF17F080967C9E2DC0D2
:102D30001FF02EC020F02FC021F030C022F031C093
:102D400023F032C0D9FF33C0DAFFDF50246E34C025
:102D500025F028EC1BF0050E366E0F0E356EF10EC9
:102D6000E82EFED7352EFCD7362EFAD700002DC020
:102D70001FF02EC020F02FC021F030C022F031C053
:102D800023F032C0D9FF33C0DAFFDF50246E34C0E5
:102D900025F028EC1BF0050E366E0F0E356EF10E89
:102DA000E82EFED7352EFCD7362EFAD700002DC0E0
:102DB0001FF02EC020F02FC021F030C022F031C013
:102DC00023F032C0D9FF33C0DAFFDF50246E34C0A5
:102DD00025F03EEC1AF0050E366E0F0E356EF10E34
:102DE000E82EFED7352EFCD7362EFAD700002DC0A0
:102DF0001FF02EC020F02FC021F030C022F031C0D3
:102E000023F032C0D9FF33C0DAFFDF50246E34C064
:102E100025F03EEC1AF045EF16F080867C8E090E08
:102E2000366E1E0E356EE40EE82EFED7352EFCD71C
:102E3000362EFAD700D080967C9E1200D80E14242D
:102E4000446EFF0E1520456E0C50445C0D504558E5
:102E5000D8B02DEF17F02FEF17F033EF17F0010E6A
:102E6000466E52EF18F0E70E1C24446EFF0E1D2034
:102E7000456E0E50445C0F504558D8B042EF17F0E5
:102E800044EF17F059EF17F0320E1E24446E000E77
:102E90001F20456E4450105C45501158D8B053EF78
:102EA00017F055EF17F059EF17F0020E466E52EF7C
:102EB00018F0D80E2424446EFF0E2520456E1050C5
:102EC000445C11504558D8B068EF17F06AEF17F01E
:102ED0006EEF17F0030E466E52EF18F0EC0E26243C
:102EE000446EFF0E2720456E0C50445C0D50455833
:102EF000D8B07DEF17F07FEF17F094EF17F0EC0EDE
:102F00002824446EFF0E2920456E0E50445C0F505D
:102F10004558D8B08EEF17F090EF17F094EF17F0F8
:102F2000040E466E52EF18F0EC0E2C24446EFF0E89
:102F30002D20456E0C50445C0D504558D8B0A3EF81
:102F400017F0A5EF17F0BAEF17F0E20E3024446E39
:102F5000FF0E3120456E1050445C11504558D8B0DA
:102F6000B4EF17F0B6EF17F0BAEF17F0050E466E94
:102F700052EF18F0E20E3224446EFF0E3320456EFD
:102F80000C50445C0D504558D8B0C9EF17F0CBEF4A
:102F900017F0F1EF17F0E20E3424446EFF0E3520E7
:102FA000456E0E50445C0F504558D8B0DAEF17F01C
:102FB000DCEF17F0F1EF17F0140E3424446E000E1E
:102FC0003520456E44500E5C45500F58D8B0EBEF9D
:102FD00017F0EDEF17F0F1EF17F0060E466E52EF17
:102FE00018F0EC0E3C24446EFF0E3D20456E105050
:102FF000445C11504558D8B000EF18F002EF18F0BB
:1030000017EF18F01E0E3C24446E000E3D20456E56
:103010004450105C45501158D8B011EF18F013EF20
:1030200018F017EF18F0070E466E52EF18F0EC0E7E
:103030003E24446EFF0E3F20456E0C50445C0D5004
:103040004558D8B026EF18F028EF18F04EEF18F0DA
:10305000EC0E4024446EFF0E4120456E0E50445C41
:103060000F504558D8B037EF18F039EF18F04EEF41
:1030700018F0E20E4224446EFF0E4320456E1050BD
:10308000445C11504558D8B048EF18F04AEF18F09A
:103090004EEF18F0080E466E52EF18F0090E466E0D
:1030A00080867C8E4650120053EC22F0520E3DEC8E
:1030B00022F0B60E3DEC22F058EC22F0530E3DEC1F
:1030C00022F0010EDAEC20F0126E136A10C0D9FF64
:1030D00011C0DAFF12C0DEFF13C0DDFF10C0D9FF40
:1030E00011C0DAFFDECF12F0DDCF13F0000EDAEC04
:1030F00020F0146E1450166E156A12501510176ECB
:1031000013501610186E10C0D9FF11C0DAFF17C087
:10311000DEFF18C0DDFF4EEC22F053EC22F0520E21
:103120003DEC22F0B80E3DEC22F058EC22F0530EAC
:103130003DEC22F0010EDAEC20F0126E136A20EE64
:1031400002F01050D9261150DA2212C0DEFF13C04F
:10315000DDFF20EE02F01050D9261150DA22DECF2A
:1031600012F0DDCF13F0000EDAEC20F0146E1450E4
:10317000166E156A12501510176E13501610186E31
:1031800020EE02F01050D9261150DA2217C0DEFFCF
:1031900018C0DDFF4EEC22F053EC22F0520E3DEC55
:1031A00022F0BA0E3DEC22F058EC22F0530E3DEC2A
:1031B00022F0010EDAEC20F0126E136A20EE04F019
:1031C0001050D9261150DA2212C0DEFF13C0DDFFE5
:1031D00020EE04F01050D9261150DA22DECF12F082
:1031E000DDCF13F0000EDAEC20F0146E1450166EE2
:1031F000156A12501510176E13501610186E20EE27
:1032000004F01050D9261150DA2217C0DEFF18C082
:10321000DDFF4EEC22F053EC22F0520E3DEC22F09A
:10322000B40E3DEC22F058EC22F0530E3DEC22F0AF
:10323000010EDAEC20F0126E136A20EE06F0105048
:10324000D9261150DA2212C0DEFF13C0DDFF20EEB6
:1032500006F01050D9261150DA22DECF12F0DDCF61
:1032600013F0000EDAEC20F0146E1450166E156A8E
:1032700012501510176E13501610186E20EE06F02F
:103280001050D9261150DA2217C0DEFF18C0DDFF1A
:103290004EEC22F0120020EE01F01F50D9262050F3
:1032A000DA22DF6A20EE01F02150D9262250DA22FC
:1032B000DF6A000E2C6E010E2B6EA8EF19F020EEC7
:1032C00009F01F50D9262050DA22DF502B241FC0CE
:1032D000D9FF20C0DAFFDF6E20EE09F02150D92699
:1032E0002250DA22DF502B2421C0D9FF22C0DAFF7E
:1032F000DF6E1FC019F020C01AF012EC1CF021C0C4
:1033000019F022C01AF012EC1CF0000E2A6E000E0A
:10331000296E94EF19F0D00E266ECA0EE82EFED755
:10332000262EFCD7294A2A2A2550266E276A26509F
:10333000295C2A50800A286E2750800A2858D8A075
:10334000A4EF19F0A6EF19F08BEF19F02B4A2C2AF5
:103350002350266E276A2B50265C2750800A286E41
:103360002C50800A2858D8B0B8EF19F0BAEF19F0ED
:103370005FEF19F0000E2A6E000E296EC9EF19F0EA
:10338000D00E266ECA0EE82EFED7262EFCD7294A6E
:103390002A2A2450266E276A2650295C2A50800A41
:1033A000286E2750800A2858D8A0D9EF19F0DBEFF3
:1033B00019F0C0EF19F023C02BF02C6A2CBEE5EFFA
:1033C00019F0E3EF19F0E7EF19F033EF1AF020EE00
:1033D00009F01F50D9262050DA22DF502B241FC0BD
:1033E000D9FF20C0DAFFDF6E20EE09F02150D92688
:1033F0002250DA22DF502B2421C0D9FF22C0DAFF6D
:10340000DF6E1FC019F020C01AF012EC1CF021C0B2
:1034100019F022C01AF012EC1CF0000E2A6E000EF9
:10342000296E1CEF1AF0D00E266ECA0EE82EFED7BB
:10343000262EFCD7294A2A2A2550266E276A26508E
:10344000295C2A50800A286E2750800A2858D8A064
:103450002CEF1AF02EEF1AF013EF1AF02B06D8A06B
:103460002C06DEEF19F01FC0D9FF20C0DAFFDF6A9B
:1034700021C0D9FF22C0DAFFDF6A120020EE01F07E
:103480001F50D9262050DA22010EDF6E20EE01F007
:103490002150D9262250DA22DF6A000E2C6E010E4E
:1034A0002B6E9CEF1AF020EE09F01F50D926205009
:1034B000DA22DF502B241FC0D9FF20C0DAFFDF6ED5
:1034C00020EE09F02150D9262250DA22DF502B2499
:1034D00021C0D9FF22C0DAFFDF6E1FC019F020C063
:1034E0001AF012EC1CF021C019F022C01AF012ECF4
:1034F0001CF0000E2A6E000E296E88EF1AF0D00E16
:10350000266ECA0EE82EFED7262EFCD7294A2A2A76
:103510002550266E276A2650295C2A50800A286E7C
:103520002750800A2858D8A098EF1AF09AEF1AF07E
:103530007FEF1AF02B4A2C2A2350266E276A2B5035
:10354000265C2750800A286E2C50800A2858D8B054
:10355000ACEF1AF0AEEF1AF053EF1AF0000E2A6E2D
:10356000000E296EBDEF1AF0D00E266ECA0EE82EA0
:10357000FED7262EFCD7294A2A2A2450266E276AEF
:103580002650295C2A50800A286E2750800A285825
:10359000D8A0CDEF1AF0CFEF1AF0B4EF1AF023C095
:1035A0002BF02C6A2CBED9EF1AF0D7EF1AF0DBEF14
:1035B0001AF027EF1BF020EE09F01F50D9262050FB
:1035C000DA22DF502B241FC0D9FF20C0DAFFDF6EC4
:1035D00020EE09F02150D9262250DA22DF502B2488
:1035E00021C0D9FF22C0DAFFDF6E1FC019F020C052
:1035F0001AF012EC1CF021C019F022C01AF012ECE3
:103600001CF0000E2A6E000E296E10EF1BF0D00E7B
:10361000266ECA0EE82EFED7262EFCD7294A2A2A65
:103620002550266E276A2650295C2A50800A286E6B
:103630002750800A2858D8A020EF1BF022EF1BF05B
:1036400007EF1BF02B06D8A02C06D2EF1AF01200C1
:1036500020EE01F01F50D9262050DA22DF6A20EE3A
:1036600001F02150D9262250DA22010EDF6E000E21
:103670002C6E010E2B6E86EF1BF020EE09F01F5012
:10368000D9262050DA22DF502B241FC0D9FF20C0BA
:10369000DAFFDF6E20EE09F02150D9262250DA221F
:1036A000DF502B2421C0D9FF22C0DAFFDF6E1FC0FC
:1036B00019F020C01AF012EC1CF021C019F022C041
:1036C0001AF012EC1CF0000E2A6E000E296E72EF3A
:1036D0001BF0D00E266ECA0EE82EFED7262EFCD783
:1036E000294A2A2A2550266E276A2650295C2A5004
:1036F000800A286E2750800A2858D8A082EF1BF035
:1037000084EF1BF069EF1BF02B4A2C2A2350266E06
:10371000276A2B50265C2750800A286E2C50800A7E
:103720002858D8B096EF1BF098EF1BF03DEF1BF038
:10373000000E2A6E000E296EA7EF1BF0D00E266E2B
:10374000CA0EE82EFED7262EFCD7294A2A2A245054
:10375000266E276A2650295C2A50800A286E275038
:10376000800A2858D8A0B7EF1BF0B9EF1BF09EEFE6
:103770001BF023C02BF02C6A2CBEC3EF1BF0C1EF53
:103780001BF0C5EF1BF011EF1CF020EE09F01F50ED
:10379000D9262050DA22DF502B241FC0D9FF20C0A9
:1037A000DAFFDF6E20EE09F02150D9262250DA220E
:1037B000DF502B2421C0D9FF22C0DAFFDF6E1FC0EB
:1037C00019F020C01AF012EC1CF021C019F022C030
:1037D0001AF012EC1CF0000E2A6E000E296EFAEFA1
:1037E0001BF0D00E266ECA0EE82EFED7262EFCD772
:1037F000294A2A2A2550266E276A2650295C2A50F3
:10380000800A286E2750800A2858D8A00AEF1CF09A
:103810000CEF1CF0F1EF1BF02B06D8A02C06BCEF30
:103820001BF0120020EE02F01950D9261A50DA22AD
:10383000DF50D8B41EEF1CF020EF1CF054EF1CF04A
:1038400019C0D9FF1AC0DAFFDF501B6E1B500C6E77
:103850000D6A20EE03F01950D9261A50DA22DECF75
:103860000EF0DDCF0FF083EC21F00CC012F00DC094
:1038700013F0000E156E640E146E0DEC20F020EEA9
:1038800003F01950D9261A50DA22DF501C6E12505C
:103890001C5C1D6E20EE03F01950D9261A50DA2256
:1038A000DF501E6E77EF1CF0000E1D6E19C0D9FFA1
:1038B0001AC0DAFFDF501B6E1B500C6E0D6A20EE33
:1038C00003F01950D9261A50DA22DECF0EF0DDCFE0
:1038D0000FF083EC21F00CC012F00DC013F0000EBD
:1038E000156E640E146E0DEC20F012501E6E20EE5C
:1038F00001F01950D9261A50DA22DF50D8B483EFDC
:103900001CF085EF1CF0A7EF1CF020EE05F019501D
:10391000D9261A50DA22DECF1BF0DDCF1CF01BC0F7
:10392000D9FF1CC0DAFF1DC0DFFF20EE07F01950E1
:10393000D9261A50DA22DECF1BF0DDCF1CF01BC0D7
:10394000D9FF1CC0DAFF1EC0DFFFC7EF1CF020EE5E
:1039500005F01950D9261A50DA22DECF1BF0DDCF40
:103960001CF01BC0D9FF1CC0DAFF1EC0DFFF20EE19
:1039700007F01950D9261A50DA22DECF1BF0DDCF1E
:103980001CF01BC0D9FF1CC0DAFF1DC0DFFF1200F6
:1039900020EE06F02E50D9262F50DA222CC0DEFF62
:1039A0002DC0DDFF26C00CF027C00DF00E6A0F6A97
:1039B000E80E106E030E116E000E126E000E136EE6
:1039C0007EEC20F00CC018F00DC019F00EC01AF0FB
:1039D0000FC01BF02A502824306E2B502920316E46
:1039E000265030262750312230C01CF031C01DF047
:1039F0001E6A1F6A6DEC1DF02EC0D9FF2FC0DAFFC2
:103A000018C0DEFF19C0DDFF28C00CF029C00DF082
:103A10000E6A0F6AE80E106E030E116E000E126E23
:103A2000000E136E7EEC20F00CC018F00DC019F0E3
:103A30000EC01AF00FC01BF02A502824306E2B50F5
:103A40002920316E265030262750312230C01CF0FC
:103A500031C01DF01E6A1F6A6DEC1DF020EE02F0F1
:103A60002E50D9262F50DA2218C0DEFF19C0DDFFF4
:103A70002AC00CF02BC00DF00E6A0F6AE80E106E13
:103A8000030E116E000E126E000E136E7EEC20F00F
:103A90000CC018F00DC019F00EC01AF00FC01BF0CA
:103AA0002A502824306E2B502920316E2650302683
:103AB0002750312230C01CF031C01DF01E6A1F6A31
:103AC0006DEC1DF020EE04F02E50D9262F50DA2296
:103AD00018C0DEFF19C0DDFF1200000E216E1FBEF0
:103AE00076EF1DF074EF1DF080EF1DF01F1E1E1EFF
:103AF0001D1E1C6C000E1D221E221F22010E216E97
:103B00001BBE87EF1DF085EF1DF091EF1DF01B1E12
:103B10001A1E191E186C000E19221A221B22010EE1
:103B2000211A000E226E000E236E000E246E000E6F
:103B3000256E1C501D101E101F10D8B4A2EF1DF0D2
:103B4000A4EF1DF0DAEF1DF0010E206EAEEF1DF0B8
:103B5000D8901C361D361E361F36202A1FAEB3EFF6
:103B60001DF0B5EF1DF0A8EF1DF0D89022362336DA
:103B7000243625361C50185C1D5019581E501A58F2
:103B80001F501B58D8A0C7EF1DF0C9EF1DF0D2EF92
:103B90001DF01C50185E1D50195A1E501A5A1F5005
:103BA0001B5A2280D8901F321E321D321C32202E0A
:103BB000B5EF1DF02150D8B4E0EF1DF0E2EF1DF09D
:103BC000EAEF1DF0251E241E231E226C000E232268
:103BD0002422252222C018F023C019F024C01AF094
:103BE00025C01BF0120020EE01F01F50D9262050F6
:103BF000DA22010EDF6E20EE01F02150D92622508C
:103C0000DA22010EDF6E1FC0D9FF20C0DAFFDF50BD
:103C1000246E20EE09F01F50D9262050DA22DF5002
:103C2000256E2550245C296E2A6AD8A02A062ABE51
:103C30001EEF1EF01CEF1EF020EF1EF06CEF1EF0CA
:103C400020EE09F01F50D9262050DA22DF50292417
:103C50001FC0D9FF20C0DAFFDF6E20EE09F021502F
:103C6000D9262250DA22DF50292421C0D9FF22C0D0
:103C7000DAFFDF6E1FC019F020C01AF012EC1CF042
:103C800021C019F022C01AF012EC1CF0000E286EB0
:103C9000000E276E55EF1EF0D00E246ECA0EE82ED1
:103CA000FED7242EFCD7274A282A2350246E256AC3
:103CB0002450275C2850800A266E2550800A2658FA
:103CC000D8A065EF1EF067EF1EF04CEF1EF029063E
:103CD000D8A02A0617EF1EF01FC0D9FF20C0DAFFB8
:103CE000DF6A21C0D9FF22C0DAFFDF6A120020EEAE
:103CF00001F01F50D9262050DA22010EDF6E20EE8F
:103D000001F02150D9262250DA22010EDF6E000E7A
:103D10002B6E010E2A6ED6EF1EF020EE09F01F501A
:103D2000D9262050DA22DF502A241FC0D9FF20C014
:103D3000DAFFDF6E20EE09F02150D9262250DA2278
:103D4000DF502A2421C0D9FF22C0DAFFDF6E1FC056
:103D500019F020C01AF012EC1CF021C019F022C09A
:103D60001AF012EC1CF0000E296E000E286EC2EF45
:103D70001EF0D00E256ECA0EE82EFED7252EFCD7DB
:103D8000284A292A2450256E266A2550285C295065
:103D9000800A276E2650800A2758D8A0D2EF1EF03E
:103DA000D4EF1EF0B9EF1EF02A4A2B2A2350256EBD
:103DB000266A2A50255C2650800A276E2B50800ADE
:103DC0002758D8B0E6EF1EF0E8EF1EF08DEF1EF09A
:103DD0001200000E116E0FBEF2EF1EF0F0EF1EF09B
:103DE000F8EF1EF00E6C0F1ED8B00F2A010E116EE8
:103DF0000DBEFFEF1EF0FDEF1EF005EF1FF00C6C87
:103E00000D1ED8B00D2A010E111A000E136E000EF1
:103E1000126E0E500F10D8B410EF1FF012EF1FF0FB
:103E20003AEF1FF0010E106E1AEF1FF0D8900E3609
:103E30000F36102A0FAE1FEF1FF021EF1FF016EF05
:103E40001FF0D890123613360E500C5C0F500D58E0
:103E5000D8A02DEF1FF02FEF1FF034EF1FF00E5002
:103E60000C5E0F500D5A1280D8900F320E32102E69
:103E700021EF1FF01150D8B440EF1FF042EF1FF0B8
:103E800046EF1FF0126C131ED8B0132A12C00CF0AC
:103E900013C00DF012007D9485947D9885987B9ECB
:103EA000839E7F9C879C050E0E01746F060E766FB5
:103EB000070E696F080E886FBD508F0B3009BD6EFD
:103EC000E00EBE16BF50F00B0109BF6E0CC0BCFF68
:103ED000BD8E000EAA6E000EA66E000E0F01256F9D
:103EE000000E216FFC0EAD16F30EAD16CF0EAD1603
:103EF0003F0EAD16AB88AB50F00B0C09AB6EAB8E22
:103F0000A788A750F00B0C09A76EA78E268926510B
:103F1000F00B0C09266F268F22892251F00B0C0919
:103F2000226F228F120053EC22F0520E3DEC22F051
:103F3000E60E3DEC22F04EEC22F00A0E4E24116EFD
:103F4000000E4F20126EDD0E4E24136EFF0E4F201A
:103F5000146E130E0E6E000ECEEC21F03F0E106E9E
:103F6000550EE82EFED7102EFCD7000012500E6E14
:103F7000070ECEEC21F011C00EF0060ECEEC21F0B3
:103F800014500E6E050ECEEC21F013C00EF0040E90
:103F9000CEEC21F0040E0E6E0C0ECEEC21F01200D1
:103FA00062EC22F0520E43EC22F0E60E43EC22F0DB
:103FB0005DEC22F00A0E4E24066E000E4F20076EB6
:103FC000DD0E4E24086EFF0E4F20096E130E036E99
:103FD000000EEEEC21F03F0E056E550EE82EFED7DA
:103FE000052EFCD700000750036E070EEEEC21F003
:103FF00006C003F0060EEEEC21F00950036E050E2C
:10400000EEEC21F008C003F0040EEEEC21F0040EFB
:10401000036E0C0EEEEC21F01200000E176E000E77
:10402000166E14501510D8B418EF20F01AEF20F0C7
:1040300042EF20F0010E186E22EF20F0D8901436D7
:104040001536182A15AE27EF20F029EF20F01EEFC5
:1040500020F0D890163617361450125C15501358AD
:10406000D8A035EF20F037EF20F03CEF20F01450CF
:10407000125E1550135A1680D89015321432182E2D
:1040800029EF20F016C012F017C013F01200CE0E68
:10409000F66E440EF76E000EF86E00EEEEF010EEC7
:1040A00004F00900F5CFEEFFE550E150FAE1D20E41
:1040B000F66E440EF76E000EF86E0900F5CF4EF066
:1040C0000900F5CF4FF002EE00F07A0EEE6AE80636
:1040D000FDE101EED6F0280EEE6AE806FDE100EE05
:1040E00060F0520EEE6AE806FDE14D6A4C6A4B6ADA
:1040F0004A6A509050920001B2EF13F0000E146E15
:10410000000E156E000E166E000E176E0CA08BEFD3
:1041100020F08DEF20F095EF20F010501426115074
:1041200015221250162213501722D890103611362D
:1041300012361336D8900F320E320D320C320C502C
:104140000D100E100F10D8A4A8EF20F0AAEF20F049
:1041500086EF20F014C00CF015C00DF016C00EF064
:1041600017C00FF012000DEC22F01AEC22F0146EC2
:1041700014C00CF00D6A000E0F6E180E0E6EE9ECF6
:104180001EF00C50156E15A2C8EF20F0CAEF20F0FB
:10419000CDEF20F07C8ECEEF20F07C9E15A0D3EFEB
:1041A00020F0D5EF20F0D8EF20F08086D9EF20F076
:1041B000809612000E6E5BEC21F00E01DA875BEC4C
:1041C00021F0D5CE0FF05BEC21F00E50D8B4EBEF20
:1041D00020F0EFEF20F00D6A0D2AF0EF20F00D6ACD
:1041E0000D3A0D460E01DA510D18DF0B0D18DA6F7E
:1041F000DA890F50120032EC21F0010E0E6E000E23
:10420000CEEC21F03F0E156E550EE82EFED7152E82
:10421000FCD70000030E0E6E000ECEEC21F0D50E82
:104220000E6E010ECEEC21F093EC1FF012007C9E7E
:10423000849E8096889686840E01B4958686B4976F
:10424000809288927C9884987C968496A797809098
:1042500088907E9086907F9087907D9E859E7996AF
:10426000819612000E01D951F00B0809D96FD98B34
:104270009F0ED66F848A848CA79BA79D1D0E1D6FF1
:104280001E0E1C6F1C0E6F6F1B0E706F1200D3CFB3
:1042900010F0116AD4CF12F0136A12500F6E0E6A2A
:1042A00010500E10146E11500F10156E14C00CF03B
:1042B00015C00DF012000E01D8B561EF21F063EFCB
:1042C00021F05BEF21F0DACE0CF01F0E0C16D8A413
:1042D0006CEF21F06EEF21F05BEF21F012000E0188
:1042E000D8B575EF21F077EF21F06FEF21F0DACE3E
:1042F00001F01F0E0116D8A480EF21F082EF21F00B
:104300006FEF21F012000C500E02F3CF10F0F4CF3B
:1043100011F00C500F02F35011260D500E02F35005
:10432000112610C00CF011C00DF01200016E130E1A
:104330004D649DEF21F09FEF21F0A1EF21F0000EE1
:104340004D6E4D509C0FD96EDA6A01C0DFFF4D2AC9
:1043500012003B0E4A64AFEF21F0B1EF21F0B3EF52
:1043600021F0000E4A6E4A2A4A04016E0150600F85
:10437000D96EDA6ADF5012000C6E0C50D8B4C3EF5D
:1043800021F0C5EF21F0CAEF21F07F807D8E798684
:10439000CDEF21F07F907D9E799612000F6E53EC49
:1043A00022F0520E3DEC22F00F5080093DEC22F03D
:1043B0000E503DEC22F04EEC22F01200D6501F0BB6
:1043C0004009D66ED688D650F00B0B09D66ED5882C
:1043D000000ED46E000ED36ED58E1200046E62EC09
:1043E00022F0520E43EC22F00450800943EC22F0FC
:1043F000035043EC22F05DEC22F01200120E0E018D
:10440000626F110E156FE997E895330EE56F000E98
:10441000E66FE789E88BE78F1200868C0E01B48D7A
:104420000F015899FC0E58172E0E5F6F609460882C
:10443000608E1200608060B020EF22F022EF22F048
:104440001BEF22F064CF0CF00C5012004A504B18B6
:10445000D8A42DEF22F030EF22F0010E31EF22F040
:10446000000E120082800E019A9129811F81F29024
:10447000298B2D87F28CF28E12000D6E5BEC21F0F1
:104480000DC0D5FE1200026E6FEC21F002C0D5FE09
:104490001200000ED46E000ED36E12005BEC21F001
:1044A0000E01DA8512005BEC21F00E01DA811200B8
:1044B0005BEC21F00E01DA8312006FEC21F00E01AB
:1044C000DA8512006FEC21F00E01DA811200020190
:0444D0000108F401EA
:020000040030CA
:02000000AAFF55
:020004009FFF5C
:00000001FF
