:0400000049EF00F0D4
:100008004F82D9CF0AF0DACF0BF00E0133A10FEFF0
:1000180000F011EF00F017EF00F0010E486EE9EC68
:1000280021F00E01339133AB1CEF00F01EEF00F00E
:1000380021EF00F0010E476E339B37A726EF00F043
:1000480028EF00F02BEF00F0E351D7EC23F00E017E
:1000580037A531EF00F033EF00F043EF00F0EAECA2
:1000680023F00E01E46F67EC24F00009D8A43FEFF9
:1000780000F041EF00F043EF00F00E012D950BC0AA
:0E008800DAFF0AC0D9FF4F92110095EF22F067
:100E000000002DC01FF02EC020F02FC021F030C0F8
:100E100022F039C023F03AC024F03BC025F094EC16
:100E20001DF0050E3D6E0F0E3C6EF10EE82EFED746
:100E30003C2EFCD73D2EFAD700002DC01FF02EC04F
:100E400020F02FC021F030C022F039C023F03AC08A
:100E500024F03BC025F094EC1DF0050E3D6E0F0E06
:100E60003C6EF10EE82EFED73C2EFCD73D2EFAD775
:100E700000002DC01FF02EC020F02FC021F030C088
:100E800022F039C023F03AC024F03BC025F094ECA6
:100E90001DF0050E3D6E0F0E3C6EF10EE82EFED7D6
:100EA0003C2EFCD73D2EFAD700002DC01FF02EC0DF
:100EB00020F02FC021F030C022F039C023F03AC01A
:100EC00024F03BC025F094EC1DF0050E3D6E0F0E96
:100ED0003C6EF10EE82EFED73C2EFCD73D2EFAD705
:100EE00000002DC01FF02EC020F02FC021F030C018
:100EF00022F036C023F038C024F03EEC20F07FEC26
:100F000024F03550020DF3CF3CF0F4CF3DF03C50CF
:100F10003324D96E3D503420DA6E88EC23F0DE5055
:100F20000C5CDE500D58D8A098EF07F09AEF07F050
:100F300081EF07F02DC01FF02EC020F02FC021F050
:100F400030C022F038C023F0BAEC1FF035C040F0BA
:100F500056EF0AF0400640503124D96E000E322080
:100F6000DA6EDE04D8A4B7EF07F0B9EF07F0F3EFBD
:100F700007F02DC01FF02EC020F02FC021F030C090
:100F800022F039C023F03AC024F03BC025F094ECA5
:100F90001DF0050E3D6E0F0E3C6EF10EE82EFED7D5
:100FA0003C2EFCD73D2EFAD700002DC01FF02EC0DE
:100FB00020F02FC021F030C022F039C023F03AC019
:100FC00024F03BC025F094EC1DF0050E3D6E0F0E95
:100FD0003C6EF10EE82EFED73C2EFCD73D2EFAD704
:100FE000000021EF0AF040503124D96E000E32206B
:100FF000DA6E020EDE18D8A400EF08F002EF08F057
:101000003CEF08F02DC01FF02EC020F02FC021F0C3
:1010100030C022F039C023F03AC024F03BC025F0A4
:10102000AAEC1CF0050E3D6E0F0E3C6EF10EE82E84
:10103000FED73C2EFCD73D2EFAD700002DC01FF066
:101040002EC020F02FC021F030C022F039C023F094
:101050003AC024F03BC025F0AAEC1CF0050E3D6E12
:101060000F0E3C6EF10EE82EFED73C2EFCD73D2E27
:10107000FAD7000021EF0AF040503124D96E000E5B
:101080003220DA6E030EDE18D8A449EF08F04BEFD9
:1010900008F0BDEF08F02DC01FF02EC020F02FC0CB
:1010A00021F030C022F039C023F03AC024F03BC018
:1010B00025F094EC1DF0050E3D6E0F0E3C6EF10E0A
:1010C000E82EFED73C2EFCD73D2EFAD700002DC0CF
:1010D0001FF02EC020F02FC021F030C022F039C008
:1010E00023F03AC024F03BC025F094EC1DF0050E2F
:1010F0003D6E0F0E3C6EF10EE82EFED73C2EFCD757
:101100003D2EFAD700002DC01FF02EC020F02FC0BA
:1011100021F030C022F039C023F03AC024F03BC0A7
:1011200025F094EC1DF0050E3D6E0F0E3C6EF10E99
:10113000E82EFED73C2EFCD73D2EFAD700002DC05E
:101140001FF02EC020F02FC021F030C022F039C097
:1011500023F03AC024F03BC025F094EC1DF0050EBE
:101160003D6E0F0E3C6EF10EE82EFED73C2EFCD7E6
:101170003D2EFAD7000021EF0AF040503124D96EFD
:10118000000E3220DA6E040EDE18D8A4CAEF08F082
:10119000CCEF08F016EF09F02DC01FF02EC020F0A4
:1011A0002FC021F030C022F039C023F03AC024F023
:1011B0003BC025F094EC1DF0050E3D6E0F0E3C6E0D
:1011C000F10EE82EFED73C2EFCD73D2EFAD70000BC
:1011D0002DC01FF02EC020F02FC021F030C022F013
:1011E00039C023F03AC024F03BC025F094EC1DF048
:1011F000050E3D6E0F0E3C6EF10EE82EFED73C2E16
:10120000FCD73D2EFAD700002DC01FF02EC020F0D5
:101210002FC021F030C022F036C023F037C024F0B8
:1012200038C025F0B7EC1BF0AFEF08F04050312488
:10123000D96E000E3220DA6E050EDE18D8A423EF28
:1012400009F025EF09F06FEF09F02DC01FF02EC057
:1012500020F02FC021F030C022F039C023F03AC076
:1012600024F03BC025F0AAEC1CF0050E3D6E0F0EDD
:101270003C6EF10EE82EFED73C2EFCD73D2EFAD761
:1012800000002DC01FF02EC020F02FC021F030C074
:1012900022F039C023F03AC024F03BC025F0AAEC7C
:1012A0001CF0050E3D6E0F0E3C6EF10EE82EFED7C3
:1012B0003C2EFCD73D2EFAD700002DC01FF02EC0CB
:1012C00020F02FC021F030C022F036C023F037C00C
:1012D00024F038C025F0B7EC1BF0AFEF08F0405019
:1012E0003124D96E000E3220DA6E060EDE18D8A434
:1012F0007CEF09F07EEF09F0C8EF09F02DC01FF078
:101300002EC020F02FC021F030C022F039C023F0D1
:101310003AC024F03BC025F094EC1DF0050E3D6E64
:101320000F0E3C6EF10EE82EFED73C2EFCD73D2E64
:10133000FAD700002DC01FF02EC020F02FC021F0E2
:1013400030C022F039C023F03AC024F03BC025F071
:1013500094EC1DF0050E3D6E0F0E3C6EF10EE82E66
:10136000FED73C2EFCD73D2EFAD700002DC01FF033
:101370002EC020F02FC021F030C022F039C023F061
:101380003AC024F03BC025F094EC1DF0AFEF08F01C
:1013900040503124D96E000E3220DA6E070EDE186E
:1013A000D8A4D5EF09F0D7EF09F021EF0AF02DC04E
:1013B0001FF02EC020F02FC021F030C022F039C025
:1013C00023F03AC024F03BC025F0AAEC1CF0050E37
:1013D0003D6E0F0E3C6EF10EE82EFED73C2EFCD774
:1013E0003D2EFAD700002DC01FF02EC020F02FC0D8
:1013F00021F030C022F039C023F03AC024F03BC0C5
:1014000025F0AAEC1CF0050E3D6E0F0E3C6EF10EA1
:10141000E82EFED73C2EFCD73D2EFAD700002DC07B
:101420001FF02EC020F02FC021F030C022F039C0B4
:1014300023F03AC024F03BC025F0AAEC1CF0AFEF3B
:1014400008F02DC01FF02EC020F02FC021F030C0BA
:1014500022F036C023F038C024F03EEC20F07FECC0
:1014600024F04050020DF3CF3CF0F4CF3DF03C505F
:101470003324D96E3D503420DA6E88EC23F0DE50F0
:101480000C5CDE500D58D8A048EF0AF04AEF0AF085
:1014900031EF0AF02DC01FF02EC020F02FC021F038
:1014A00030C022F038C023F0BAEC1FF04050D8A46E
:1014B0005CEF0AF05EEF0AF0AAEF07F012002DC011
:1014C0001FF02EC020F02FC021F030C022F039C014
:1014D00023F03AC024F03BC025F094EC1DF0050E3B
:1014E0003D6E0F0E3C6EF10EE82EFED73C2EFCD763
:1014F0003D2EFAD700002DC01FF02EC020F02FC0C7
:1015000021F030C022F039C023F03AC024F03BC0B3
:1015100025F094EC1DF0050E3D6E0F0E3C6EF10EA5
:10152000E82EFED73C2EFCD73D2EFAD700002DC06A
:101530001FF02EC020F02FC021F030C022F039C0A3
:1015400023F03AC024F03BC025F094EC1DF0050ECA
:101550003D6E0F0E3C6EF10EE82EFED73C2EFCD7F2
:101560003D2EFAD700002DC01FF02EC020F02FC056
:1015700021F030C022F039C023F03AC024F03BC043
:1015800025F094EC1DF0050E3D6E0F0E3C6EF10E35
:10159000E82EFED73C2EFCD73D2EFAD700002DC0FA
:1015A0001FF02EC020F02FC021F030C022F036C036
:1015B00023F038C024F03EEC20F07FEC24F0000E45
:1015C000476E4750D8B4E7EF0AF0E9EF0AF0E1EFD1
:1015D0000AF02DC01FF02EC020F02FC021F030C027
:1015E00022F038C023F0BAEC1FF035C040F0A5EF70
:1015F0000DF0400640503124D96E000E3220DA6ED4
:10160000DE04D8A406EF0BF008EF0BF042EF0BF06E
:101610002DC01FF02EC020F02FC021F030C022F0CE
:1016200039C023F03AC024F03BC025F094EC1DF003
:10163000050E3D6E0F0E3C6EF10EE82EFED73C2ED1
:10164000FCD73D2EFAD700002DC01FF02EC020F091
:101650002FC021F030C022F039C023F03AC024F06E
:101660003BC025F094EC1DF0050E3D6E0F0E3C6E58
:10167000F10EE82EFED73C2EFCD73D2EFAD7000007
:1016800070EF0DF040503124D96E000E3220DA6E2A
:10169000020EDE18D8A44FEF0BF051EF0BF08BEFDA
:1016A0000BF02DC01FF02EC020F02FC021F030C055
:1016B00022F039C023F03AC024F03BC025F0AAEC58
:1016C0001CF0050E3D6E0F0E3C6EF10EE82EFED79F
:1016D0003C2EFCD73D2EFAD700002DC01FF02EC0A7
:1016E00020F02FC021F030C022F039C023F03AC0E2
:1016F00024F03BC025F0AAEC1CF0050E3D6E0F0E49
:101700003C6EF10EE82EFED73C2EFCD73D2EFAD7CC
:10171000000070EF0DF040503124D96E000E3220E1
:10172000DA6E030EDE18D8A498EF0BF09AEF0BF0E8
:101730000CEF0CF02DC01FF02EC020F02FC021F0B8
:1017400030C022F039C023F03AC024F03BC025F06D
:1017500094EC1DF0050E3D6E0F0E3C6EF10EE82E62
:10176000FED73C2EFCD73D2EFAD700002DC01FF02F
:101770002EC020F02FC021F030C022F039C023F05D
:101780003AC024F03BC025F094EC1DF0050E3D6EF0
:101790000F0E3C6EF10EE82EFED73C2EFCD73D2EF0
:1017A000FAD700002DC01FF02EC020F02FC021F06E
:1017B00030C022F039C023F03AC024F03BC025F0FD
:1017C00094EC1DF0050E3D6E0F0E3C6EF10EE82EF2
:1017D000FED73C2EFCD73D2EFAD700002DC01FF0BF
:1017E0002EC020F02FC021F030C022F039C023F0ED
:1017F0003AC024F03BC025F094EC1DF0050E3D6E80
:101800000F0E3C6EF10EE82EFED73C2EFCD73D2E7F
:10181000FAD7000070EF0DF040503124D96E000E61
:101820003220DA6E040EDE18D8A419EF0CF01BEF8C
:101830000CF065EF0CF02DC01FF02EC020F02FC073
:1018400021F030C022F039C023F03AC024F03BC070
:1018500025F094EC1DF0050E3D6E0F0E3C6EF10E62
:10186000E82EFED73C2EFCD73D2EFAD700002DC027
:101870001FF02EC020F02FC021F030C022F039C060
:1018800023F03AC024F03BC025F094EC1DF0050E87
:101890003D6E0F0E3C6EF10EE82EFED73C2EFCD7AF
:1018A0003D2EFAD700002DC01FF02EC020F02FC013
:1018B00021F030C022F036C023F037C024F038C009
:1018C00025F0B7EC1BF0FEEF0BF040503124D96E41
:1018D000000E3220DA6E050EDE18D8A472EF0CF07E
:1018E00074EF0CF0BEEF0CF02DC01FF02EC020F0F6
:1018F0002FC021F030C022F039C023F03AC024F0CC
:101900003BC025F0AAEC1CF0050E3D6E0F0E3C6EA0
:10191000F10EE82EFED73C2EFCD73D2EFAD7000064
:101920002DC01FF02EC020F02FC021F030C022F0BB
:1019300039C023F03AC024F03BC025F0AAEC1CF0DB
:10194000050E3D6E0F0E3C6EF10EE82EFED73C2EBE
:10195000FCD73D2EFAD700002DC01FF02EC020F07E
:101960002FC021F030C022F036C023F037C024F061
:1019700038C025F0B7EC1BF0FEEF0BF040503124DF
:10198000D96E000E3220DA6E060EDE18D8A4CBEF28
:101990000CF0CDEF0CF017EF0DF02DC01FF02EC0A6
:1019A00020F02FC021F030C022F039C023F03AC01F
:1019B00024F03BC025F094EC1DF0050E3D6E0F0E9B
:1019C0003C6EF10EE82EFED73C2EFCD73D2EFAD70A
:1019D00000002DC01FF02EC020F02FC021F030C01D
:1019E00022F039C023F03AC024F03BC025F094EC3B
:1019F0001DF0050E3D6E0F0E3C6EF10EE82EFED76B
:101A00003C2EFCD73D2EFAD700002DC01FF02EC073
:101A100020F02FC021F030C022F039C023F03AC0AE
:101A200024F03BC025F094EC1DF0FEEF0BF040508D
:101A30003124D96E000E3220DA6E070EDE18D8A4DB
:101A400024EF0DF026EF0DF070EF0DF02DC01FF01C
:101A50002EC020F02FC021F030C022F039C023F07A
:101A60003AC024F03BC025F0AAEC1CF0050E3D6EF8
:101A70000F0E3C6EF10EE82EFED73C2EFCD73D2E0D
:101A8000FAD700002DC01FF02EC020F02FC021F08B
:101A900030C022F039C023F03AC024F03BC025F01A
:101AA000AAEC1CF0050E3D6E0F0E3C6EF10EE82EFA
:101AB000FED73C2EFCD73D2EFAD700002DC01FF0DC
:101AC0002EC020F02FC021F030C022F039C023F00A
:101AD0003AC024F03BC025F0AAEC1CF0FEEF0BF05E
:101AE0002DC01FF02EC020F02FC021F030C022F0FA
:101AF00036C023F038C024F03EEC20F07FEC24F018
:101B00004050020DF3CF3CF0F4CF3DF03C50332475
:101B1000D96E3D503420DA6E88EC23F0DE500C5C38
:101B2000DE500D58D8A097EF0DF099EF0DF080EF33
:101B30000DF02DC01FF02EC020F02FC021F030C0BE
:101B400022F038C023F0BAEC1FF04050D8A4ABEF1D
:101B50000DF0ADEF0DF0F9EF0AF012000001DC0519
:101B6000D8A4B5EF0DF0B7EF0DF0FFEF0DF0D8C032
:101B70001FF0D9C020F0DAC021F0DBC022F0E5C0B0
:101B800023F0E6C024F0E7C025F0AAEC1CF0050E17
:101B9000426E0F0E416EF10EE82EFED7412EFCD79D
:101BA000422EFAD70000D8C01FF0D9C020F0DAC00A
:101BB00021F0DBC022F0E5C023F0E6C024F0E7C04E
:101BC00025F0AAEC1CF0050E426E0F0E416EF10ED0
:101BD000E82EFED7412EFCD7422EFAD70000D8C0FF
:101BE0001FF0D9C020F0DAC021F0DBC022F0E2C043
:101BF00023F0E4C024F03EEC20F0D8EF10F0020E09
:101C0000DC19D8A406EF0EF008EF0EF050EF0EF03E
:101C1000D8C01FF0D9C020F0DAC021F0DBC022F01C
:101C2000E5C023F0E6C024F0E7C025F094EC1DF0F9
:101C3000050E426E0F0E416EF10EE82EFED7412EBC
:101C4000FCD7422EFAD70000D8C01FF0D9C020F030
:101C5000DAC021F0DBC022F0E5C023F0E6C024F0BA
:101C6000E7C025F094EC1DF0050E426E0F0E416E9C
:101C7000F10EE82EFED7412EFCD7422EFAD70000F7
:101C8000D8C01FF0D9C020F0DAC021F0DBC022F0AC
:101C9000E2C023F0E4C024F03EEC20F0D8EF10F0D6
:101CA000030EDC19D8A457EF0EF059EF0EF0D9EF60
:101CB0000EF0D8C01FF0D9C020F0DAC021F0DBC090
:101CC00022F0E5C023F0E6C024F0E7C025F094EC54
:101CD0001DF0050E426E0F0E416EF10EE82EFED77E
:101CE000412EFCD7422EFAD70000D8C01FF0D9C031
:101CF00020F0DAC021F0DBC022F0E5C023F0E6C01E
:101D000024F0E7C025F094EC1DF0050E426E0F0E96
:101D1000416EF10EE82EFED7412EFCD7422EFAD7A7
:101D20000000D8C01FF0D9C020F0DAC021F0DBC01D
:101D300022F0E5C023F0E6C024F0E7C025F094ECE3
:101D40001DF0050E426E0F0E416EF10EE82EFED70D
:101D5000412EFCD7422EFAD70000D8C01FF0D9C0C0
:101D600020F0DAC021F0DBC022F0E5C023F0E6C0AD
:101D700024F0E7C025F094EC1DF0050E426E0F0E26
:101D8000416EF10EE82EFED7412EFCD7422EFAD737
:101D90000000D8C01FF0D9C020F0DAC021F0DBC0AD
:101DA00022F0E2C023F0E4C024F03EEC20F0D8EFB3
:101DB00010F0040EDC19D8A4E0EF0EF0E2EF0EF004
:101DC00046EF0FF0D8C01FF0D9C020F0DAC021F0E4
:101DD000DBC022F0E2C023F0E3C024F0E4C025F031
:101DE000B7EC1BF0050E426E0F0E416EF10EE82EA1
:101DF000FED7412EFCD7422EFAD70000D8C01FF0E4
:101E0000D9C020F0DAC021F0DBC022F0E5C023F019
:101E1000E6C024F0E7C025F0AAEC1CF0050E426EE7
:101E20000F0E416EF10EE82EFED7412EFCD7422E4A
:101E3000FAD70000D8C01FF0D9C020F0DAC021F0D6
:101E4000DBC022F0E5C023F0E6C024F0E7C025F0B7
:101E5000AAEC1CF0050E426E0F0E416EF10EE82E3C
:101E6000FED7412EFCD7422EFAD70000D8C01FF073
:101E7000D9C020F0DAC021F0DBC022F0E2C023F0AC
:101E8000E4C024F03EEC20F0D8EF10F0050EDC1991
:101E9000D8A44DEF0FF04FEF0FF0B3EF0FF0D8C015
:101EA0001FF0D9C020F0DAC021F0DBC022F0E2C080
:101EB00023F0E3C024F0E4C025F0B7EC1BF0050EDE
:101EC000426E0F0E416EF10EE82EFED7412EFCD76A
:101ED000422EFAD70000D8C01FF0D9C020F0DAC0D7
:101EE00021F0DBC022F0E5C023F0E6C024F0E7C01B
:101EF00025F094EC1DF0050E426E0F0E416EF10EB2
:101F0000E82EFED7412EFCD7422EFAD70000D8C0CB
:101F10001FF0D9C020F0DAC021F0DBC022F0E5C00C
:101F200023F0E6C024F0E7C025F094EC1DF0050E88
:101F3000426E0F0E416EF10EE82EFED7412EFCD7F9
:101F4000422EFAD70000D8C01FF0D9C020F0DAC066
:101F500021F0DBC022F0E2C023F0E4C024F03EEC2C
:101F600020F0D8EF10F0060EDC19D8A4BAEF0FF06D
:101F7000BCEF0FF020EF10F0D8C01FF0D9C020F058
:101F8000DAC021F0DBC022F0E5C023F0E6C024F087
:101F9000E7C025F0AAEC1CF0050E426E0F0E416E54
:101FA000F10EE82EFED7412EFCD7422EFAD70000C4
:101FB000D8C01FF0D9C020F0DAC021F0DBC022F079
:101FC000E5C023F0E6C024F0E7C025F0AAEC1CF041
:101FD000050E426E0F0E416EF10EE82EFED7412E19
:101FE000FCD7422EFAD70000D8C01FF0D9C020F08D
:101FF000DAC021F0DBC022F0E5C023F0E6C024F017
:10200000E7C025F0AAEC1CF0050E426E0F0E416EE3
:10201000F10EE82EFED7412EFCD7422EFAD7000053
:10202000D8C01FF0D9C020F0DAC021F0DBC022F008
:10203000E2C023F0E4C024F03EEC20F0D8EF10F032
:10204000070EDC19D8A427EF10F029EF10F08DEF60
:1020500010F0D8C01FF0D9C020F0DAC021F0DBC0EA
:1020600022F0E5C023F0E6C024F0E7C025F094ECB0
:102070001DF0050E426E0F0E416EF10EE82EFED7DA
:10208000412EFCD7422EFAD70000D8C01FF0D9C08D
:1020900020F0DAC021F0DBC022F0E5C023F0E6C07A
:1020A00024F0E7C025F094EC1DF0050E426E0F0EF3
:1020B000416EF10EE82EFED7412EFCD7422EFAD704
:1020C0000000D8C01FF0D9C020F0DAC021F0DBC07A
:1020D00022F0E5C023F0E6C024F0E7C025F094EC40
:1020E0001DF0050E426E0F0E416EF10EE82EFED76A
:1020F000412EFCD7422EFAD70000D8C01FF0D9C01D
:1021000020F0DAC021F0DBC022F0E2C023F0E4C00E
:1021100024F03EEC20F0D8EF10F0080EDC19D8A423
:1021200094EF10F096EF10F0B8EF10F0D8C02DF04B
:10213000D9C02EF0DAC02FF0DBC030F0DDC031F0B6
:10214000DEC032F0DFC033F0E0C034F0E1C035F083
:10215000E2C036F0E3C037F0E4C038F0E5C039F053
:10216000E6C03AF0E7C03BF001EC07F0D8EF10F022
:10217000D8C02DF0D9C02EF0DAC02FF0DBC030F07F
:10218000DDC031F0DEC032F0DFC033F0E0C034F04B
:10219000E1C035F0E2C036F0E3C037F0E4C038F01B
:1021A000E5C039F0E6C03AF0E7C03BF001EC07F0DB
:1021B0001200010EFDEC23F080867C8E8EB4E3EFDE
:1021C00010F0E5EF10F0DEEF10F080967C9E00C17D
:1021D00010F001C111F0C0EC1AF000C1D9FF01C12B
:1021E000DAFF00EE26F0070EDBCFEBFFE806FCE29D
:1021F00002C12EF003C12FF0B7EC13F002C1D9FFDA
:1022000003C1DAFF04C1E1FF05C1E2FFDECFE6FF53
:10221000DDCFE5FF010120EE02F00251D926035186
:10222000DA2210EE02F00451E1260551E222DECF5F
:10223000E6FFDDCFE5FF20EE04F00251D926035181
:10224000DA2210EE04F00451E1260551E222DECF3D
:10225000E6FFDDCFE5FF290E3D6E960E3C6E7F0E4C
:10226000E82EFED73C2EFCD73D2EFAD70000808604
:102270007C8E8EB43EEF11F040EF11F039EF11F08B
:1022800080967C9E00C110F001C111F0C0EC1AF0E4
:1022900000C1D9FF01C1DAFF00EE26F0070EDBCF47
:1022A000EBFFE806FCE202C12EF003C12FF0B7EC11
:1022B00013F002C1D9FF03C1DAFF06C1E1FF07C174
:1022C000E2FFDECFE6FFDDCFE5FF010120EE02F009
:1022D0000251D9260351DA2210EE02F00651E1260E
:1022E0000751E222DECFE6FFDDCFE5FF20EE04F06E
:1022F0000251D9260351DA2210EE04F00651E126EC
:102300000751E222DECFE6FFDDCFE5FF290E3D6E6D
:10231000960E3C6E7F0EE82EFED73C2EFCD73D2E4F
:10232000FAD7000080867C8E8EB499EF11F09BEF77
:1023300011F094EF11F080967C9E00C110F001C165
:1023400011F0C0EC1AF000C1D9FF01C1DAFF00EEB4
:1023500026F0070EDBCFEBFFE806FCE202C12EF011
:1023600003C12FF0B7EC13F002C1D9FF03C1DAFFAC
:1023700008C1E1FF09C1E2FFDECFE6FFDDCFE5FFE7
:10238000010120EE02F00251D9260351DA2210EEAB
:1023900002F00851E1260951E222DECFE6FFDDCF4F
:1023A000E5FF20EE04F00251D9260351DA2210EEA7
:1023B00004F00851E1260951E222DECFE6FFDDCF2D
:1023C000E5FF290E3D6E960E3C6E7F0EE82EFED781
:1023D0003C2EFCD73D2EFAD7000080867C8E8EB432
:1023E000F4EF11F0F6EF11F0EFEF11F080967C9E14
:1023F00000C110F001C111F0C0EC1AF000C1D9FF0A
:1024000001C1DAFF00EE26F0070EDBCFEBFFE80696
:10241000FCE202C12EF003C12FF0B7EC13F002C1B1
:10242000D9FF03C1DAFF0AC1E1FF0BC1E2FFDECF32
:10243000E6FFDDCFE5FF010120EE02F00251D926D3
:102440000351DA2210EE02F00A51E1260B51E2228A
:10245000DECFE6FFDDCFE5FF20EE04F00251D92606
:102460000351DA2210EE04F00A51E1260B51E22268
:10247000DECFE6FFDDCFE5FF290E3D6E960E3C6E0A
:102480007F0EE82EFED73C2EFCD73D2EFAD700005B
:1024900080867C8E8EB44FEF12F051EF12F04AEF2F
:1024A00012F080967C9E00C110F001C111F0C0ECCA
:1024B0001AF000C1D9FF01C1DAFF00EE26F0070EC5
:1024C000DBCFEBFFE806FCE202C12EF003C12FF0E8
:1024D000B7EC13F002C1D9FF03C1DAFF0CC1E1FF71
:1024E0000DC1E2FFDECFE6FFDDCFE5FF010120EE0B
:1024F00002F00251D9260351DA2210EE02F00C51FB
:10250000E1260D51E222DECFE6FFDDCFE5FF20EE32
:1025100004F00251D9260351DA2210EE04F00C51D6
:10252000E1260D51E222DECFE6FFDDCFE5FF290EE9
:102530003D6E960E3C6E7F0EE82EFED73C2EFCD7ED
:102540003D2EFAD7000080867C8E8EB4AAEF12F062
:10255000ACEF12F0A5EF12F080967C9E00C110F057
:1025600001C111F0C0EC1AF000C1D9FF01C1DAFFBE
:1025700000EE26F0070EDBCFEBFFE806FCE202C11F
:102580002EF003C12FF0B7EC13F002C1D9FF03C145
:10259000DAFF0EC1E1FF0FC1E2FFDECFE6FFDDCFC4
:1025A000E5FF010120EE02F00251D9260351DA22A3
:1025B00010EE02F00E51E1260F51E222DECFE6FFCF
:1025C000DDCFE5FF20EE04F00251D9260351DA22D7
:1025D00010EE04F00E51E1260F51E222DECFE6FFAD
:1025E000DDCFE5FF290E3D6E960E3C6E7F0EE82E88
:1025F000FED73C2EFCD73D2EFAD7000080867C8E7D
:102600008EB405EF13F007EF13F000EF13F0809690
:102610007C9E00C110F001C111F0C0EC1AF000C1A5
:10262000D9FF01C1DAFF00EE26F0070EDBCFEBFF8A
:10263000E806FCE202C12EF003C12FF0B7EC13F064
:1026400002C1D9FF03C1DAFF10C1E1FF11C1E2FFEE
:10265000DECFE6FFDDCFE5FF010120EE02F0025103
:10266000D9260351DA2210EE02F01051E126115161
:10267000E222DECFE6FFDDCFE5FF20EE04F00251DF
:10268000D9260351DA2210EE04F01051E12611513F
:10269000E222DECFE6FFDDCFE5FF290E3D6E960E8E
:1026A0003C6E7F0EE82EFED73C2EFCD73D2EFAD78F
:1026B000000080867C8E8EB460EF13F062EF13F022
:1026C0005BEF13F080967C9E00C110F001C111F009
:1026D000C0EC1AF000C1D9FF01C1DAFF00EE26F00C
:1026E000070EDBCFEBFFE806FCE202C12EF003C1D0
:1026F0002FF0B7EC13F002C1D9FF03C1DAFF12C10A
:10270000E1FF13C1E2FFDECFE6FFDDCFE5FF010110
:1027100020EE02F00251D9260351DA2210EE02F027
:102720001251E1261351E222DECFE6FFDDCFE5FFB5
:1027300020EE04F00251D9260351DA2210EE04F003
:102740001251E1261351E222DECFE6FFDDCFE5FF95
:10275000290E3D6E960E3C6E7F0EE82EFED73C2E67
:10276000FCD73D2EFAD7000080867C8E120026C052
:102770000CF027C00DF00E6A0F6A100E106E270EB7
:10278000116E000E126E000E136E60EC22F00CC083
:1027900018F00DC019F00EC01AF00FC01BF0FF0E9C
:1027A0001C6E000E1D6E000E1E6E000E1F6E34ECB1
:1027B0001FF018C0E2F019C0E3F028C00CF029C0E7
:1027C0000DF00E6A0F6A100E106E270E116E000EBD
:1027D000126E000E136E60EC22F00CC018F00DC0EB
:1027E00019F00EC01AF00FC01BF0FF0E1C6E000E89
:1027F0001D6E000E1E6E000E1F6E34EC1FF018C012
:10280000EAF019C0EBF02AC00CF02BC00DF00E6AF4
:102810000F6A100E106E270E116E000E126E000E53
:10282000136E60EC22F00CC018F00DC019F00EC051
:102830001AF00FC01BF0FF0E1C6E000E1D6E000E76
:102840001E6E000E1F6E34EC1FF018C0ECF019C0A5
:10285000EDF0EAC00CF0EBC00DF0ECC00EF0EDC0F6
:102860000FF05DEC23F00CC0DEF00DC0DFF0E2C035
:102870000CF0E3C00DF0DEC00EF0DFC00FF05DEC39
:1028800023F00CC0E4F00DC0E5F0EAC00CF0EBC0A2
:102890000DF0ECC00EF0EDC00FF047EC23F00CC0D3
:1028A000E0F00DC0E1F0E2C00CF0E3C00DF0E0C0DC
:1028B0000EF0E1C00FF047EC23F00CC0DCF00DC0CF
:1028C000DDF00001DC51E45D306EDD51E559316E23
:1028D00030C0E6F031C0E7F0E86BE96BE251E41993
:1028E00007E1E351E519D8A478EF14F07AEF14F07A
:1028F00021EF15F0EA51EC5DEB51ED59D8B083EFC3
:1029000014F085EF14F0B7EF14F0EC51EA5D306E7F
:10291000ED51EB59316E30C00CF031C00DF00E6A44
:102920000F6A700E106E170E116E000E126E000EF2
:10293000136E60EC22F00CC018F00DC019F00EC040
:102940001AF00FC01BF0E6C01CF0E7C01DF0E8C095
:102950001EF0E9C01FF012EC21F02EC0D9FF2FC0ED
:10296000DAFF18C0DEFF19C0DDFFD9EF15F0EC511A
:10297000EA5DED51EB59D8B0C0EF14F0C2EF14F09E
:10298000D9EF15F0EC51306EED51316E326A336A89
:10299000E6C00CF0E7C00DF0E8C00EF0E9C00FF0A3
:1029A000060E106E000E116E000E126E000E136EEB
:1029B00060EC22F00001EA510C24346EEB510D2042
:1029C000356E000E0E20366E000E0F20376E305022
:1029D000345CD86F31503558D96F32503658DA6F71
:1029E00033503758DB6FD8C00CF0D9C00DF0DAC0C7
:1029F0000EF0DBC00FF0700E106E170E116E000E91
:102A0000126E000E136E60EC22F00CC018F00DC0B8
:102A100019F00EC01AF00FC01BF0E6C01CF0E7C0A2
:102A20001DF0E8C01EF0E9C01FF012EC21F02EC02E
:102A3000D9FF2FC0DAFF18C0DEFF19C0DDFFD9EFC4
:102A400015F0EA51E41907E1EB51E519D8A42BEF91
:102A500015F02DEF15F07AEF15F0E251306EE351DD
:102A6000316E326A336AD890E635346EE735356EAA
:102A7000E835366EE935376EEC513424386EED5159
:102A80003520396E000E36203A6E000E37203B6E30
:102A90003050385C0C6E315039580D6E32503A5807
:102AA0000E6E33503B580F6E700E106E170E116E77
:102AB000000E126E000E136E60EC22F00CC018F0C7
:102AC0000DC019F00EC01AF00FC01BF0E6C01CF0CC
:102AD000E7C01DF0E8C01EF0E9C01FF012EC21F0C5
:102AE0002EC0D9FF2FC0DAFF18C0DEFF19C0DDFFEE
:102AF000D9EF15F0EC51E41907E1ED51E519D8A42F
:102B000084EF15F086EF15F0D9EF15F0EA51306E2D
:102B1000EB51316E326A336AE6C034F0E7C035F00B
:102B2000E8C036F0E9C037F0020ED89034363536BA
:102B300036363736E82E95EF15F0E2513424386EEC
:102B4000E3513520396E000E36203A6E000E3720E4
:102B50003B6E3050385C0C6E315039580D6E32502F
:102B60003A580E6E33503B580F6E700E106E170EA3
:102B7000116E000E126E000E136E60EC22F00CC08F
:102B800018F00DC019F00EC01AF00FC01BF0E6C00F
:102B90001CF0E7C01DF0E8C01EF0E9C01FF012EC09
:102BA00021F02EC0D9FF2FC0DAFF18C0DEFF19C0F8
:102BB000DDFFE6C00CF0E7C00DF0E8C00EF0E9C0A4
:102BC0000FF0100E106E270E116E000E126E000E1A
:102BD000136E60EC22F00CC018F00DC019F00EC09E
:102BE0001AF00FC01BF0E4C01CF0E5C01DF01E6A17
:102BF0001F6A12EC21F020EE02F02E50D9262F5041
:102C0000DA2218C0DEFF19C0DDFF20EE02F02E50E0
:102C1000D9262F50DA22DE50DE10D8A412EF16F09B
:102C200014EF16F01AEF16F02EC0D9FF2FC0DAFFFE
:102C3000DE6ADD6A20EE04F02E50D9262F50DA220B
:102C4000E4C0DEFFE5C0DDFF120023EE00F0270E3A
:102C5000DE6AE806FDE2000E0301DA6F23EE7EF085
:102C6000270EDE6AE806FDE223EE28F0510EDE6A4A
:102C7000E806FDE2000EDB6FEEC07AF3EFC07BF3F7
:102C8000F0C07CF3F1C07DF32CEC23F010EC23F0CA
:102C90001FEC24F03FEC24F0000E0D6EC70E0C6EFE
:102CA00064EC21F0000E0301F66F010EF76F010EC8
:102CB000F86FAA0EFB6F0F0EFC6FA60EFD6F0F0EC6
:102CC000FE6F000EFA6FC70EF96F030EFF6F000E56
:102CD000EC6F010EED6F010EEE6F250EF16F0F0E12
:102CE000F26F210EF36F0F0EF46F000EF06FC70E30
:102CF000EF6F000EF56F190EA76F010EDC6F0A0E55
:102D0000A66F140EA86F050EDD6F020EA96FC8EC3A
:102D100022F08EB48EEF16F090EF16F089EF16F0D9
:102D200080967C9E7C868082290E466E960E456E2D
:102D30007F0EE82EFED7452EFCD7462EFAD7000090
:102D4000E40E0101006F030E016FDE0E026F030E31
:102D5000036FAA0E046F030E056FB00E066F030E0D
:102D6000076FB60E086F030E096FBC0E0A6F030ED5
:102D70000B6FC20E0C6F030E0D6FC80E0E6F030E9D
:102D80000F6FCE0E106F030E116FD40E126F030E65
:102D9000136FD9EC10F0F60E2D6E030E2E6EEC0EA6
:102DA0002F6E030E306E140E316EDD0E326E030E7A
:102DB000336E020E346E3FEC18F0010EFDEC23F082
:102DC000520E466E2B0E456E000EE82EFED7452E97
:102DD000FCD7462EFAD700D0E40E106E030E116E0B
:102DE000C0EC1AF0EAC34DF0EBC34EF0290E466E6C
:102DF000960E456E7F0EE82EFED7452EFCD7462E4A
:102E0000FAD70000F60E1F6E030E206EEC0E216E38
:102E1000030E226E190E236E010E246E3EEC20F07E
:102E20007FEC24F0000E486E000E476E4804D8A4D4
:102E30001CEF17F01EEF17F0EEEF17F00E01299BB5
:102E400029AB02D0298102D00E01299188EC23F010
:102E50000301DB51020D280EF324D96E030EF4207A
:102E6000DA6E0CC0DEFF0DC0DDFFF60E1F6E030E26
:102E7000206EEC0E216E030E226EDCC323F0BAEC42
:102E80001FF0E40E106E030E116EC0EC1AF023EE6C
:102E9000E4F000EE26F0070EDBCFEBFFE806FCE2E5
:102EA000DE0E2E6E030E2F6EB7EC13F023EEDEF067
:102EB00000EE0CF0050EDBCFEBFFE806FCE223EEA4
:102EC000AAF000EE12F0050EDBCFEBFFE806FCE205
:102ED00023EEB0F000EE18F0050EDBCFEBFFE806B6
:102EE000FCE223EEB6F000EE1EF0050EDBCFEBFFAA
:102EF000E806FCE223EEBCF000EE24F0050EDBCF8A
:102F0000EBFFE806FCE223EEC2F000EE2AF0050E2D
:102F1000DBCFEBFFE806FCE223EEC8F000EE30F07A
:102F2000050EDBCFEBFFE806FCE223EECEF000EE71
:102F300036F0050EDBCFEBFFE806FCE223EED4F023
:102F400000EE3CF0050EDBCFEBFFE806FCE28CEC7C
:102F500019F00301DA6F7E0EDB25D96EDA6A030EF3
:102F6000DA22DAC3DFFFF60E0001D86F030ED96F45
:102F7000EC0EDA6F030EDB6FDAC3DCF07E0EDD6F72
:102F8000030EDE6F280EDF6F030EE06FDBC3E1F090
:102F9000A7C3E2F0A6C3E3F0DCC3E4F0A8C3E5F006
:102FA000DDC3E6F0A9C3E7F0AEEC0DF0E40E106E61
:102FB000030E116EC0EC1AF0EAC34DF0EBC34EF0F5
:102FC0000301DB2B7FEC24F00E01298B29AB02D00F
:102FD000298102D00E012991000E486E4704D8A421
:102FE000F4EF17F0F6EF17F02AEF18F00E01299121
:102FF000F60E1F6E030E206EEC0E216E030E226E77
:10300000DCC323F0BAEC1FF0F60E2D6E030E2E6E0D
:10301000EC0E2F6E030E306E7E0E316E030E326E8E
:10302000280E336E030E346EDBC335F0A7C336F0C3
:10303000A6C337F0DCC338F0A8C339F0DDC33AF0DB
:10304000A9C33BF05FEC0AF00E012981000E476E28
:103050003DEF18F0080E0301DA19D8B432EF18F07A
:1030600034EF18F03DEF18F0090EDA19D8A43BEF51
:1030700018F03DEF18F016EF17F049EF00F02DC0F3
:103080001FF02EC020F02FC021F030C022F031C040
:1030900023F032C0D9FF33C0DAFFDF50246E34C0D2
:1030A00025F094EC1DF0050E366E0F0E356EF10E08
:1030B000E82EFED7352EFCD7362EFAD700002DC0CD
:1030C0001FF02EC020F02FC021F030C022F031C000
:1030D00023F032C0D9FF33C0DAFFDF50246E34C092
:1030E00025F094EC1DF0050E366E0F0E356EF10EC8
:1030F000E82EFED7352EFCD7362EFAD700002DC08D
:103100001FF02EC020F02FC021F030C022F031C0BF
:1031100023F032C0D9FF33C0DAFFDF50246E34C051
:1031200025F0AAEC1CF0050E366E0F0E356EF10E72
:10313000E82EFED7352EFCD7362EFAD700002DC04C
:103140001FF02EC020F02FC021F030C022F031C07F
:1031500023F032C0D9FF33C0DAFFDF50246E34C011
:1031600025F0AAEC1CF08EA4B8EF18F0BAEF18F016
:10317000C1EF18F08EB6BFEF18F0C1EF18F0B3EF43
:1031800018F08EB4C6EF18F0C8EF18F0DCEF18F0A6
:1031900032C0D9FF33C0DAFFDF50D8B4D2EF18F015
:1031A000D4EF18F0DCEF18F032C0D9FF33C0DAFFEB
:1031B000DF067C8EE9EF18F08EB6E1EF18F0E3EF52
:1031C00018F0E9EF18F032C0D9FF33C0DAFFDF2A78
:1031D0008086290E366E960E356E7F0EE82EFED74F
:1031E000352EFCD7362EFAD700008EB6FAEF18F03F
:1031F000FCEF18F003EF19F032C0D9FF33C0DAFF4B
:10320000DF067BEF19F080967C9E2DC01FF02EC04C
:1032100020F02FC021F030C022F031C023F032C0A6
:10322000D9FF33C0DAFFDF50246E34C025F094ECB0
:103230001DF0050E366E0F0E356EF10EE82EFED720
:10324000352EFCD7362EFAD700002DC01FF02EC029
:1032500020F02FC021F030C022F031C023F032C066
:10326000D9FF33C0DAFFDF50246E34C025F094EC70
:103270001DF0050E366E0F0E356EF10EE82EFED7E0
:10328000352EFCD7362EFAD700002DC01FF02EC0E9
:1032900020F02FC021F030C022F031C023F032C026
:1032A000D9FF33C0DAFFDF50246E34C025F0AAEC1A
:1032B0001CF0050E366E0F0E356EF10EE82EFED7A1
:1032C000352EFCD7362EFAD700002DC01FF02EC0A9
:1032D00020F02FC021F030C022F031C023F032C0E6
:1032E000D9FF33C0DAFFDF50246E34C025F0AAECDA
:1032F0001CF0B3EF18F080867C8E090E366E1E0E21
:10330000356EE40EE82EFED7352EFCD7362EFAD7D2
:1033100000D080967C9E1200180E1224426EFC0E85
:103320001320436E0C50425C0D504358D8B09BEFB5
:1033300019F09DEF19F0B2EF19F0E80E1224426E69
:10334000030E1320436E42500C5C43500D58D8B00E
:10335000ACEF19F0AEEF19F0B2EF19F0010E446EB8
:10336000BEEF1AF0180E1824426EFC0E1920436EA0
:103370000C50425C0D504358D8B0C1EF19F0C3EF68
:1033800019F0D8EF19F0E80E1824426E030E192038
:10339000436E42500C5C43500D58D8B0D2EF19F038
:1033A000D4EF19F0D8EF19F0020E446EBEEF1AF008
:1033B000180E1E24426EFC0E1F20436E0C50425C01
:1033C0000D504358D8B0E7EF19F0E9EF19F0FEEFD0
:1033D00019F0E80E1E24426E030E1F20436E425069
:1033E0000C5C43500D58D8B0F8EF19F0FAEF19F013
:1033F000FEEF19F0030E446EBEEF1AF0180E2424EF
:10340000426EFC0E2520436E0C50425C0D5043581A
:10341000D8B00DEF1AF00FEF1AF024EF1AF0E80E03
:103420002424426E030E2520436E42500C5C435010
:103430000D58D8B01EEF1AF020EF1AF024EF1AF052
:10344000040E446EBEEF1AF0180E2A24426EFC0ED3
:103450002B20436E0C50425C0D504358D8B033EFD4
:103460001AF035EF1AF04AEF1AF0E80E2A24426EED
:10347000030E2B20436E42500C5C43500D58D8B0C5
:1034800044EF1AF046EF1AF04AEF1AF0050E446EB8
:10349000BEEF1AF0180E3024426EFC0E3120436E3F
:1034A0000C50425C0D504358D8B059EF1AF05BEF06
:1034B0001AF070EF1AF0E80E3024426E030E31203D
:1034C000436E42500C5C43500D58D8B06AEF1AF06E
:1034D0006CEF1AF070EF1AF0060E446EBEEF1AF0A1
:1034E000180E3624426EFC0E3720436E0C50425CA0
:1034F0000D504358D8B07FEF1AF081EF1AF096EFD5
:103500001AF0E80E3624426E030E3720436E425006
:103510000C5C43500D58D8B090EF1AF092EF1AF0AF
:1035200096EF1AF0070E446EBEEF1AF0180E3C2408
:10353000426EFC0E3D20436E0C50425C0D504358D1
:10354000D8B0A5EF1AF0A7EF1AF0BCEF1AF0E80E0A
:103550003C24426E030E3D20436E42500C5C4350AF
:103560000D58D8B0B6EF1AF0B8EF1AF0BCEF1AF059
:10357000080E446EBEEF1AF0090E446E445012005D
:1035800089EC24F0520E73EC24F0B60E73EC24F0A8
:103590008EEC24F0530E73EC24F0010EEFEC22F0CD
:1035A000126E136A10C0D9FF11C0DAFF12C0DEFF1D
:1035B00013C0DDFF10C0D9FF11C0DAFFDECF12F05B
:1035C000DDCF13F0000EEFEC22F0146E1450166EE7
:1035D000156A12501510176E13501610186E10C081
:1035E000D9FF11C0DAFF17C0DEFF18C0DDFF84EC81
:1035F00024F089EC24F0520E73EC24F0B80E73EC36
:1036000024F08EEC24F0530E73EC24F0010EEFEC5A
:1036100022F0126E136A20EE02F01050D9261150DB
:10362000DA2212C0DEFF13C0DDFF20EE02F01050E0
:10363000D9261150DA22DECF12F0DDCF13F0000EC2
:10364000EFEC22F0146E1450166E156A125015101D
:10365000176E13501610186E20EE02F01050D92677
:103660001150DA2217C0DEFF18C0DDFF84EC24F011
:1036700089EC24F0520E73EC24F0BA0E73EC24F0B3
:103680008EEC24F0530E73EC24F0010EEFEC22F0DC
:10369000126E136A20EE04F01050D9261150DA226F
:1036A00012C0DEFF13C0DDFF20EE04F01050D9265B
:1036B0001150DA22DECF12F0DDCF13F0000EEFEC66
:1036C00022F0146E1450166E156A12501510176EF3
:1036D00013501610186E20EE04F01050D926115019
:1036E000DA2217C0DEFF18C0DDFF84EC24F089EC7D
:1036F00024F0520E73EC24F0B40E73EC24F08EEC34
:1037000024F0530E73EC24F0010EEFEC22F0126E55
:10371000136A20EE06F01050D9261150DA2212C09A
:10372000DEFF13C0DDFF20EE06F01050D926115049
:10373000DA22DECF12F0DDCF13F0000EEFEC22F034
:10374000146E1450166E156A12501510176E135021
:103750001610186E20EE06F01050D9261150DA22FD
:1037600017C0DEFF18C0DDFF84EC24F0120020EE4D
:1037700001F01F50D9262050DA22DF6A20EE01F036
:103780002150D9262250DA22DF6A000E2C6E010E5B
:103790002B6E14EF1CF020EE09F01F50D92620509C
:1037A000DA22DF502B241FC0D9FF20C0DAFFDF6EE2
:1037B00020EE09F02150D9262250DA22DF502B24A6
:1037C00021C0D9FF22C0DAFFDF6E1FC019F020C070
:1037D0001AF07EEC1EF021C019F022C01AF07EEC27
:1037E0001EF0000E2A6E000E296E00EF1CF0D00EA7
:1037F000266ECA0EE82EFED7262EFCD7294A2A2A84
:103800002550266E276A2650295C2A50800A286E89
:103810002750800A2858D8A010EF1CF012EF1CF097
:10382000F7EF1BF02B4A2C2A2350266E276A2B50C9
:10383000265C2750800A286E2C50800A2858D8B061
:1038400024EF1CF026EF1CF0CBEF1BF0000E2A6ECD
:10385000000E296E35EF1CF0D00E266ECA0EE82E33
:10386000FED7262EFCD7294A2A2A2450266E276AFC
:103870002650295C2A50800A286E2750800A285832
:10388000D8A045EF1CF047EF1CF02CEF1CF023C034
:103890002BF02C6A2CBE51EF1CF04FEF1CF053EFB5
:1038A0001CF09FEF1CF020EE09F01F50D92620508D
:1038B000DA22DF502B241FC0D9FF20C0DAFFDF6ED1
:1038C00020EE09F02150D9262250DA22DF502B2495
:1038D00021C0D9FF22C0DAFFDF6E1FC019F020C05F
:1038E0001AF07EEC1EF021C019F022C01AF07EEC16
:1038F0001EF0000E2A6E000E296E88EF1CF0D00E0E
:10390000266ECA0EE82EFED7262EFCD7294A2A2A72
:103910002550266E276A2650295C2A50800A286E78
:103920002750800A2858D8A098EF1CF09AEF1CF076
:103930007FEF1CF02B06D8A02C064AEF1CF01FC00E
:10394000D9FF20C0DAFFDF6A21C0D9FF22C0DAFF29
:10395000DF6A120020EE01F01F50D9262050DA2233
:10396000010EDF6E20EE01F02150D9262250DA221E
:10397000DF6A000E2C6E010E2B6E08EF1DF020EE9C
:1039800009F01F50D9262050DA22DF502B241FC007
:10399000D9FF20C0DAFFDF6E20EE09F02150D926D2
:1039A0002250DA22DF502B2421C0D9FF22C0DAFFB7
:1039B000DF6E1FC019F020C01AF07EEC1EF021C08F
:1039C00019F022C01AF07EEC1EF0000E2A6E000ED6
:1039D000296EF4EF1CF0D00E266ECA0EE82EFED72C
:1039E000262EFCD7294A2A2A2550266E276A2650D9
:1039F000295C2A50800A286E2750800A2858D8A0AF
:103A000004EF1DF006EF1DF0EBEF1CF02B4A2C2A03
:103A10002350266E276A2B50265C2750800A286E7A
:103A20002C50800A2858D8B018EF1DF01AEF1DF05E
:103A3000BFEF1CF0000E2A6E000E296E29EF1DF05C
:103A4000D00E266ECA0EE82EFED7262EFCD7294AA7
:103A50002A2A2450266E276A2650295C2A50800A7A
:103A6000286E2750800A2858D8A039EF1DF03BEF68
:103A70001DF020EF1DF023C02BF02C6A2CBE45EF6B
:103A80001DF043EF1DF047EF1DF093EF1DF020EE0A
:103A900009F01F50D9262050DA22DF502B241FC0F6
:103AA000D9FF20C0DAFFDF6E20EE09F02150D926C1
:103AB0002250DA22DF502B2421C0D9FF22C0DAFFA6
:103AC000DF6E1FC019F020C01AF07EEC1EF021C07E
:103AD00019F022C01AF07EEC1EF0000E2A6E000EC5
:103AE000296E7CEF1DF0D00E266ECA0EE82EFED792
:103AF000262EFCD7294A2A2A2550266E276A2650C8
:103B0000295C2A50800A286E2750800A2858D8A09D
:103B10008CEF1DF08EEF1DF073EF1DF02B06D8A07B
:103B20002C063EEF1DF0120020EE01F01F50D926AA
:103B30002050DA22DF6A20EE01F02150D9262250EF
:103B4000DA22010EDF6E000E2C6E010E2B6EF2EFEC
:103B50001DF020EE09F01F50D9262050DA22DF5048
:103B60002B241FC0D9FF20C0DAFFDF6E20EE09F042
:103B70002150D9262250DA22DF502B2421C0D9FF30
:103B800022C0DAFFDF6E1FC019F020C01AF07EECF1
:103B90001EF021C019F022C01AF07EEC1EF0000EBB
:103BA0002A6E000E296EDEEF1DF0D00E266ECA0EB4
:103BB000E82EFED7262EFCD7294A2A2A2550266E23
:103BC000276A2650295C2A50800A286E2750800ACE
:103BD0002858D8A0EEEF1DF0F0EF1DF0D5EF1DF046
:103BE0002B4A2C2A2350266E276A2B50265C2750FE
:103BF000800A286E2C50800A2858D8B002EF1EF098
:103C000004EF1EF0A9EF1DF0000E2A6E000E296EC3
:103C100013EF1EF0D00E266ECA0EE82EFED7262E0B
:103C2000FCD7294A2A2A2450266E276A2650295C66
:103C30002A50800A286E2750800A2858D8A023EFDF
:103C40001EF025EF1EF00AEF1EF023C02BF02C6AA9
:103C50002CBE2FEF1EF02DEF1EF031EF1EF07DEF8A
:103C60001EF020EE09F01F50D9262050DA22DF5036
:103C70002B241FC0D9FF20C0DAFFDF6E20EE09F031
:103C80002150D9262250DA22DF502B2421C0D9FF1F
:103C900022C0DAFFDF6E1FC019F020C01AF07EECE0
:103CA0001EF021C019F022C01AF07EEC1EF0000EAA
:103CB0002A6E000E296E66EF1EF0D00E266ECA0E1A
:103CC000E82EFED7262EFCD7294A2A2A2550266E12
:103CD000276A2650295C2A50800A286E2750800ABD
:103CE0002858D8A076EF1EF078EF1EF05DEF1EF09A
:103CF0002B06D8A02C0628EF1EF0120020EE02F0B2
:103D00001950D9261A50DA22DF50D8B48AEF1EF0A3
:103D10008CEF1EF0C0EF1EF019C0D9FF1AC0DAFFF9
:103D2000DF501B6E1B500C6E0D6A20EE03F0195015
:103D3000D9261A50DA22DECF0EF0DDCF0FF0C4EC18
:103D400023F00CC012F00DC013F0000E156E640EBF
:103D5000146E26EC22F020EE03F01950D9261A50EA
:103D6000DA22DF501C6E12501C5C1D6E20EE03F038
:103D70001950D9261A50DA22DF501E6EE3EF1EF0DA
:103D8000000E1D6E19C0D9FF1AC0DAFFDF501B6E7E
:103D90001B500C6E0D6A20EE03F01950D9261A50F4
:103DA000DA22DECF0EF0DDCF0FF0C4EC23F00CC032
:103DB00012F00DC013F0000E156E640E146E26EC9A
:103DC00022F012501E6E20EE01F01950D9261A5022
:103DD000DA22DF50D8B4EFEF1EF0F1EF1EF013EF50
:103DE0001FF020EE05F01950D9261A50DA22DECF46
:103DF0001BF0DDCF1CF01BC0D9FF1CC0DAFF1DC0BB
:103E0000DFFF20EE07F01950D9261A50DA22DECF54
:103E10001BF0DDCF1CF01BC0D9FF1CC0DAFF1EC099
:103E2000DFFF33EF1FF020EE05F01950D9261A50AE
:103E3000DA22DECF1BF0DDCF1CF01BC0D9FF1CC087
:103E4000DAFF1EC0DFFF20EE07F01950D9261A5006
:103E5000DA22DECF1BF0DDCF1CF01BC0D9FF1CC067
:103E6000DAFF1DC0DFFF1200000E216E1FBE3DEF06
:103E70001FF03BEF1FF047EF1FF01F1E1E1E1D1E01
:103E80001C6C000E1D221E221F22010E216E1BBE65
:103E90004EEF1FF04CEF1FF058EF1FF01B1E1A1EC5
:103EA000191E186C000E19221A221B22010E211A4B
:103EB000000E226E000E236E000E246E000E256E84
:103EC0001C501D101E101F10D8B469EF1FF06BEFAF
:103ED0001FF0A1EF1FF0010E206E75EF1FF0D890BC
:103EE0001C361D361E361F36202A1FAE7AEF1FF0F5
:103EF0007CEF1FF06FEF1FF0D89022362336243668
:103F000025361C50185C1D5019581E501A581F5049
:103F10001B58D8A08EEF1FF090EF1FF099EF1FF005
:103F20001C50185E1D50195A1E501A5A1F501B5A09
:103F30002280D8901F321E321D321C32202E7CEF80
:103F40001FF02150D8B4A7EF1FF0A9EF1FF0B1EF79
:103F50001FF0251E241E231E226C000E2322242265
:103F6000252222C018F023C019F024C01AF025C061
:103F70001BF0120020EE01F01F50D9262050DA224B
:103F8000010EDF6E20EE01F02150D9262250DA22F8
:103F9000010EDF6E1FC0D9FF20C0DAFFDF50246E94
:103FA00020EE09F01F50D9262050DA22DF50256E6E
:103FB0002550245C296E2A6AD8A02A062ABEE5EF7D
:103FC0001FF0E3EF1FF0E7EF1FF033EF20F020EEDC
:103FD00009F01F50D9262050DA22DF5029241FC0B3
:103FE000D9FF20C0DAFFDF6E20EE09F02150D9267C
:103FF0002250DA22DF50292421C0D9FF22C0DAFF63
:10400000DF6E1FC019F020C01AF07EEC1EF021C038
:1040100019F022C01AF07EEC1EF0000E286E000E81
:10402000276E1CEF20F0D00E246ECA0EE82EFED7AD
:10403000242EFCD7274A282A2350246E256A245090
:10404000275C2850800A266E2550800A2658D8A062
:104050002CEF20F02EEF20F013EF20F02906D8A04F
:104060002A06DEEF1FF01FC0D9FF20C0DAFFDF6A8B
:1040700021C0D9FF22C0DAFFDF6A120020EE01F072
:104080001F50D9262050DA22010EDF6E20EE01F0FB
:104090002150D9262250DA22010EDF6E000E2B6E3F
:1040A000010E2A6E9DEF20F020EE09F01F50D92658
:1040B0002050DA22DF502A241FC0D9FF20C0DAFFA7
:1040C000DF6E20EE09F02150D9262250DA22DF508F
:1040D0002A2421C0D9FF22C0DAFFDF6E1FC019F0E9
:1040E00020C01AF07EEC1EF021C019F022C01AF098
:1040F0007EEC1EF0000E296E000E286E89EF20F077
:10410000D00E256ECA0EE82EFED7252EFCD7284AE3
:10411000292A2450256E266A2550285C2950800AB9
:10412000276E2650800A2758D8A099EF20F09BEFE1
:1041300020F080EF20F02A4A2B2A2350256E266A91
:104140002A50255C2650800A276E2B50800A27585B
:10415000D8B0ADEF20F0AFEF20F054EF20F0120018
:10416000000E116E0FBEB9EF20F0B7EF20F0BFEFD9
:1041700020F00E6C0F1ED8B00F2A010E116E0DBE6E
:10418000C6EF20F0C4EF20F0CCEF20F00C6C0D1E39
:10419000D8B00D2A010E111A000E136E000E126E09
:1041A0000E500F10D8B4D7EF20F0D9EF20F001EF68
:1041B00021F0010E106EE1EF20F0D8900E360F3690
:1041C000102A0FAEE6EF20F0E8EF20F0DDEF20F050
:1041D000D890123613360E500C5C0F500D58D8A0E4
:1041E000F4EF20F0F6EF20F0FBEF20F00E500C5E25
:1041F0000F500D5A1280D8900F320E32102EE8EF69
:1042000020F01150D8B407EF21F009EF21F00DEFA5
:1042100021F0126C131ED8B0132A12C00CF013C078
:104220000DF01200000E206E000E216E000E226EA8
:10423000000E236E1C501D101E101F10D8B423EF4B
:1042400021F025EF21F05BEF21F0010E246E2FEF1E
:1042500021F0D8901C361D361E361F36242A1FAE7C
:1042600034EF21F036EF21F029EF21F0D8902036FD
:104270002136223623361C50185C1D5019581E500A
:104280001A581F501B58D8A048EF21F04AEF21F0D0
:1042900053EF21F01C50185E1D50195A1E501A5A27
:1042A0001F501B5A2080D8901F321E321D321C32E4
:1042B000242E36EF21F020C018F021C019F022C0C2
:1042C0001AF023C01BF012007D9485947D98859888
:1042D0007B9E839E7F9C879C050E0E01746F060E4D
:1042E000766F070E696F080E886FBD508F0B30090F
:1042F000BD6EE00EBE16BF50F00B0109BF6E0CC0C4
:10430000BCFFBD8E000EAA6E000EA66E000E0F0141
:10431000256F000E216FFC0EAD16F30EAD16CF0EFD
:10432000AD163F0EAD16AB88AB50F00B0C09AB6E63
:10433000AB8EA788A750F00B0C09A76EA78E268915
:104340002651F00B0C09266F268F22892251F00B83
:104350000C09226F228F120089EC24F0520E73ECAC
:1043600024F0E60E73EC24F084EC24F00C0E4D24C3
:10437000116E000E4E20126EF40E4D24136EFF0EC1
:104380004E20146E130E0E6E000E0FEC24F03F0E36
:10439000106E550EE82EFED7102EFCD700001250DE
:1043A0000E6E070E0FEC24F011C00EF0060E0FEC8F
:1043B00024F014500E6E050E0FEC24F013C00EF016
:1043C000040E0FEC24F0040E0E6E0C0E0FEC24F015
:1043D000120098EC24F0520E79EC24F0E60E79EC01
:1043E00024F093EC24F00C0E4D24066E000E4E20AB
:1043F000076EF40E4D24086EFF0E4E20096E130E4C
:10440000036E000E2FEC24F03F0E056E550EE82EC5
:10441000FED7052EFCD700000750036E070E2FECC9
:1044200024F006C003F0060E2FEC24F00950036EB2
:10443000050E2FEC24F008C003F0040E2FEC24F03E
:10444000040E036E0C0E2FEC24F01200000E186EFA
:10445000000E176E14501510D8B431EF22F033EF60
:1044600022F05BEF22F0010E166E3BEF22F0D890A7
:1044700014361536162A15AE40EF22F042EF22F020
:1044800037EF22F0D890173618361450125C1550BA
:104490001358D8A04EEF22F050EF22F055EF22F043
:1044A0001450125E1550135A1780D89015321432DA
:1044B000162E42EF22F017C012F018C013F01200AF
:1044C000000E146E000E156E000E166E000E176EA6
:1044D0000CA06DEF22F06FEF22F077EF22F010507A
:1044E0001426115015221250162213501722D8905C
:1044F0001036113612361336D8900F320E320D3276
:104500000C320C500D100E100F10D8A48AEF22F0B0
:104510008CEF22F068EF22F014C00CF015C00DF003
:1045200016C00EF017C00FF012003A0EF66E490ECC
:10453000F76E000EF86E00EEEEF010EE04F00900DB
:10454000F5CFEEFFE550E150FAE13E0EF66E490E72
:10455000F76E000EF86E0900F5CF4DF00900F5CFAB
:104560004EF002EE00F07A0EEE6AE806FDE100EE93
:1045700060F0780EEE6AE806FDE14C6A4B6A4A6A22
:10458000496A486A476A4F904F92000125EF16F03A
:104590004EEC24F05BEC24F0146E14C00CF00D6AA9
:1045A000000E0F6E180E0E6EB0EC20F00C50156E53
:1045B00015A2DDEF22F0DFEF22F0E2EF22F07C8E99
:1045C000E3EF22F07C9E15A0E8EF22F0EAEF22F064
:1045D000EDEF22F08086EEEF22F0809612000E6E54
:1045E0009CEC23F00E01DA879CEC23F0D5CE0FF083
:1045F0009CEC23F00E50D8B400EF23F004EF23F02E
:104600000D6A0D2A05EF23F00D6A0D3A0D460E01D5
:10461000DA510D18DF0B0D18DA6FDA890F5012001E
:1046200073EC23F0010E0E6E000E0FEC24F03F0E23
:10463000156E550EE82EFED7152EFCD70000030E82
:104640000E6E000E0FEC24F0D50E0E6E010E0FEC68
:1046500024F0ACEC21F012007C9E849E809688961B
:1046600086840E01B4958686B497809288927C9851
:1046700084987C968496A797809088907E90869068
:104680007F9087907D9E859E7996819612000E5030
:104690000C5C0F500D58D8B050EF23F052EF23F0C0
:1046A00058EF23F00CC00CF00DC00DF05CEF23F0C0
:1046B0000EC00CF00FC00DF012000C500E5C0D502F
:1046C0000F58D8B066EF23F068EF23F06EEF23F0B9
:1046D0000CC00CF00DC00DF072EF23F00EC00CF00A
:1046E0000FC00DF012000E01D951F00B0809D96F5F
:1046F000D98B9F0ED66F848A848CA79BA79D1D0E95
:104700001D6F1E0E1C6F1C0E6F6F1B0E706F120044
:10471000D3CF10F0116AD4CF12F0136A12500F6E7B
:104720000E6A10500E10146E11500F10156E14C03A
:104730000CF015C00DF012000E01D8B5A2EF23F059
:10474000A4EF23F09CEF23F0DACE0CF01F0E0C1632
:10475000D8A4ADEF23F0AFEF23F09CEF23F01200CD
:104760000E01D8B5B6EF23F0B8EF23F0B0EF23F089
:10477000DACE01F01F0E0116D8A4C1EF23F0C3EF6B
:1047800023F0B0EF23F012000C500E02F3CF10F024
:10479000F4CF11F00C500F02F35011260D500E0201
:1047A000F350112610C00CF011C00DF01200016E74
:1047B000130E4C64DEEF23F0E0EF23F0E2EF23F082
:1047C000000E4C6E4C50C40FD96EDA6A01C0DFFF88
:1047D0004C2A12003B0E4964F0EF23F0F2EF23F075
:1047E000F4EF23F0000E496E492A4904016E01508E
:1047F000600FD96EDA6ADF5012000C6E0C50D8B41C
:1048000004EF24F006EF24F00BEF24F07F807D8E80
:1048100079860EEF24F07F907D9E799612000F6EC0
:1048200089EC24F0520E73EC24F00F50800973ECE5
:1048300024F00E5073EC24F084EC24F01200D650D7
:104840001F0B4009D66ED688D650F00B0B09D66EDA
:10485000D588000ED46E000ED36ED58E1200046E75
:1048600098EC24F0520E79EC24F00450800979EC95
:1048700024F0035079EC24F093EC24F01200120E93
:104880000E01626F110E156FE997E895330EE56F13
:10489000000EE66FE789E88BE78F1200868C0E0129
:1048A000B48D0F015899FC0E58172E0E5F6F60944F
:1048B0006088608E1200608060B061EF24F063EF6A
:1048C00024F05CEF24F064CF0CF00C50120049503F
:1048D0004A18D8A46EEF24F071EF24F0010E72EFA5
:1048E00024F0000E12000D6E9CEC23F00DC0D5FEDE
:1048F0001200026EB0EC23F002C0D5FE1200000ED2
:10490000D46E000ED36E12009CEC23F00E01DA85FB
:1049100012009CEC23F00E01DA8112009CEC23F0D3
:104920000E01DA831200B0EC23F00E01DA851200DA
:10493000B0EC23F00E01DA81120004030908F4013F
:020000040030CA
:02000000AAFF55
:020004009FFF5C
:00000001FF
