:040000002CEF00F0F1
:060008004F8275EF2AF0A3
:100018004F80D8CF0DF0E8CF0EF0E0CF0FF00E01F3
:1000280033AB19EF00F01BEF00F024EF00F0010EE6
:100038000001F46F000ED46E000ED36E0E01339BD8
:100048000FC0E0FF0EC0E8FF0DC0D8FF4F901000B2
:0400580029EF29F073
:100E0000000000016405D8A408EF07F00AEF07F01E
:100E10006CEF07F060C023F061C024F062C025F0E1
:100E200063C026F06AC027F06DC028F0F3EC1FF015
:100E3000050E4A6E0F0E496EF10EE82EFED7492EB2
:100E4000FCD74A2EFAD7000060C023F061C024F01E
:100E500062C025F063C026F06EC027F06FC028F096
:100E600070C029F0D1EC22F0050E4A6E0F0E496ECB
:100E7000F10EE82EFED7492EFCD74A2EFAD70000F5
:100E800060C023F061C024F062C025F063C026F08A
:100E90006EC027F06FC028F070C029F0D1EC22F0AE
:100EA000050E4A6E0F0E496EF10EE82EFED7492E42
:100EB000FCD74A2EFAD7000060C023F061C024F0AE
:100EC00062C025F063C026F06AC027F06DC028F02C
:100ED0006BEC26F01DEF0BF0020E6419D8A473EF33
:100EE00007F075EF07F0D7EF07F060C023F061C09F
:100EF00024F062C025F063C026F06AC027F06DC000
:100F000028F0F3EC1FF0050E4A6E0F0E496EF10E3D
:100F1000E82EFED7492EFCD74A2EFAD7000060C033
:100F200023F061C024F062C025F063C026F06EC0DB
:100F300027F06FC028F070C029F0BEEC23F0050E3A
:100F40004A6E0F0E496EF10EE82EFED7492EFCD7E1
:100F50004A2EFAD7000060C023F061C024F062C0BE
:100F600025F063C026F06EC027F06FC028F070C077
:100F700029F0BEEC23F0050E4A6E0F0E496EF10EFD
:100F8000E82EFED7492EFCD74A2EFAD7000060C0C3
:100F900023F061C024F062C025F063C026F06AC06F
:100FA00027F06DC028F06BEC26F01DEF0BF0030E60
:100FB0006419D8A4DEEF07F0E0EF07F07AEF08F04D
:100FC00060C023F061C024F062C025F063C026F049
:100FD0006AC027F06DC028F0F3EC1FF0050E4A6ED2
:100FE0000F0E496EF10EE82EFED7492EFCD74A2E81
:100FF000FAD7000060C023F061C024F062C025F081
:1010000063C026F06EC027F06FC028F070C029F0D2
:10101000BEEC23F0050E4A6E0F0E496EF10EE82E5F
:10102000FED7492EFCD74A2EFAD7000060C023F025
:1010300061C024F062C025F063C026F06EC027F0C6
:101040006FC028F070C029F0BEEC23F0050E4A6E88
:101050000F0E496EF10EE82EFED7492EFCD74A2E10
:10106000FAD7000060C023F061C024F062C025F010
:1010700063C026F06EC027F06FC028F070C029F062
:10108000BEEC23F0050E4A6E0F0E496EF10EE82EEF
:10109000FED7492EFCD74A2EFAD7000060C023F0B5
:1010A00061C024F062C025F063C026F06EC027F056
:1010B0006FC028F070C029F0BEEC23F0050E4A6E18
:1010C0000F0E496EF10EE82EFED7492EFCD74A2EA0
:1010D000FAD7000060C023F061C024F062C025F0A0
:1010E00063C026F06AC027F06DC028F06BEC26F0D4
:1010F0001DEF0BF0040E6419D8A481EF08F083EF04
:1011000008F003EF09F060C023F061C024F062C072
:1011100025F063C026F06AC027F06DC028F0F3EC1C
:101120001FF0050E4A6E0F0E496EF10EE82EFED727
:10113000492EFCD74A2EFAD7000060C023F061C0C8
:1011400024F062C025F063C026F06AC027F06BC0AF
:1011500028F06CC029F06DC02AF0E2EC21F0050EF9
:101160004A6E0F0E496EF10EE82EFED7492EFCD7BF
:101170004A2EFAD7000060C023F061C024F062C09C
:1011800025F063C026F06EC027F06FC028F070C055
:1011900029F0D1EC22F0050E4A6E0F0E496EF10EC9
:1011A000E82EFED7492EFCD74A2EFAD7000060C0A1
:1011B00023F061C024F062C025F063C026F06EC049
:1011C00027F06FC028F070C029F0D1EC22F0050E96
:1011D0004A6E0F0E496EF10EE82EFED7492EFCD74F
:1011E0004A2EFAD7000060C023F061C024F062C02C
:1011F00025F063C026F06AC027F06DC028F06BECC4
:1012000026F01DEF0BF0050E6419D8A40AEF09F0C3
:101210000CEF09F08CEF09F060C023F061C024F0FE
:1012200062C025F063C026F06AC027F06DC028F0C8
:10123000F3EC1FF0050E4A6E0F0E496EF10EE82E0C
:10124000FED7492EFCD74A2EFAD7000060C023F003
:1012500061C024F062C025F063C026F06AC027F0A8
:101260006BC028F06CC029F06DC02AF0E2EC21F0D0
:10127000050E4A6E0F0E496EF10EE82EFED7492E6E
:10128000FCD74A2EFAD7000060C023F061C024F0DA
:1012900062C025F063C026F06EC027F06FC028F052
:1012A00070C029F0BEEC23F0050E4A6E0F0E496E99
:1012B000F10EE82EFED7492EFCD74A2EFAD70000B1
:1012C00060C023F061C024F062C025F063C026F046
:1012D0006EC027F06FC028F070C029F0BEEC23F07C
:1012E000050E4A6E0F0E496EF10EE82EFED7492EFE
:1012F000FCD74A2EFAD7000060C023F061C024F06A
:1013000062C025F063C026F06AC027F06DC028F0E7
:101310006BEC26F01DEF0BF0060E6419D8A493EFCA
:1013200009F095EF09F013EF0AF060C023F061C0F7
:1013300024F062C025F063C026F06AC027F06DC0BB
:1013400028F0F3EC1FF0050E4A6E0F0E496EF10EF9
:10135000E82EFED7492EFCD74A2EFAD7000060C0EF
:1013600023F061C024F062C025F063C026F06EC097
:1013700027F06FC028F070C029F0D1EC22F0050EE4
:101380004A6E0F0E496EF10EE82EFED7492EFCD79D
:101390004A2EFAD7000060C023F061C024F062C07A
:1013A00025F063C026F06EC027F06FC028F070C033
:1013B00029F0D1EC22F0050E4A6E0F0E496EF10EA7
:1013C000E82EFED7492EFCD74A2EFAD7000060C07F
:1013D00023F061C024F062C025F063C026F06EC027
:1013E00027F06FC028F070C029F0D1EC22F0050E74
:1013F0004A6E0F0E496EF10EE82EFED7492EFCD72D
:101400004A2EFAD7000060C023F061C024F062C009
:1014100025F063C026F06AC027F06DC028F06BECA1
:1014200026F01DEF0BF0070E6419D8A41AEF0AF08E
:101430001CEF0AF09AEF0AF060C023F061C024F0BC
:1014400062C025F063C026F06AC027F06DC028F0A6
:10145000F3EC1FF0050E4A6E0F0E496EF10EE82EEA
:10146000FED7492EFCD74A2EFAD7000060C023F0E1
:1014700061C024F062C025F063C026F06EC027F082
:101480006FC028F070C029F0BEEC23F0050E4A6E44
:101490000F0E496EF10EE82EFED7492EFCD74A2ECC
:1014A000FAD7000060C023F061C024F062C025F0CC
:1014B00063C026F06EC027F06FC028F070C029F01E
:1014C000BEEC23F0050E4A6E0F0E496EF10EE82EAB
:1014D000FED7492EFCD74A2EFAD7000060C023F071
:1014E00061C024F062C025F063C026F06EC027F012
:1014F0006FC028F070C029F0BEEC23F0050E4A6ED4
:101500000F0E496EF10EE82EFED7492EFCD74A2E5B
:10151000FAD7000060C023F061C024F062C025F05B
:1015200063C026F06AC027F06DC028F06BEC26F08F
:101530001DEF0BF0080E6419D8A4A1EF0AF0A3EF79
:101540000AF0E1EF0AF060C023F061C024F062C04D
:1015500025F063C026F06AC027F06DC028F0F3ECD8
:101560001FF0050E4A6E0F0E496EF10EE82EFED7E3
:10157000492EFCD74A2EFAD7000060C032F061C075
:1015800033F062C034F063C035F065C036F066C039
:1015900037F067C038F068C039F069C03AF06AC007
:1015A0003BF06BC03CF06CC03DF06DC03EF06EC0D7
:1015B0003FF06FC040F070C041F01EEC0BF01DEF2B
:1015C0000BF060C023F061C024F062C025F063C05E
:1015D00026F06AC027F06DC028F0F3EC1FF0050E6E
:1015E0004A6E0F0E496EF10EE82EFED7492EFCD73B
:1015F0004A2EFAD7000060C032F061C033F062C0FA
:1016000034F063C035F065C036F066C037F067C0AF
:1016100038F068C039F069C03AF06AC03BF06BC07E
:101620003CF06CC03DF06DC03EF06EC03FF06FC04E
:1016300040F070C041F01EEC0BF01200000E63ECA5
:101640002AF032C023F033C024F034C025F035C076
:1016500026F03FC027F040C028F041C029F0BEEC82
:1016600023F0050E436E0F0E426EF10EE82EFED7EC
:10167000422EFCD7432EFAD7000032C023F033C0ED
:1016800024F034C025F035C026F03FC027F040C01C
:1016900028F041C029F0BEEC23F0050E436E0F0E7A
:1016A000426EF10EE82EFED7422EFCD7432EFAD71B
:1016B000000032C023F033C024F034C025F035C020
:1016C00026F03FC027F040C028F041C029F0BEEC12
:1016D00023F0050E436E0F0E426EF10EE82EFED77C
:1016E000422EFCD7432EFAD7000032C023F033C07D
:1016F00024F034C025F035C026F03FC027F040C0AC
:1017000028F041C029F0BEEC23F0050E436E0F0E09
:10171000426EF10EE82EFED7422EFCD7432EFAD7AA
:10172000000032C023F033C024F034C025F035C0AF
:1017300026F03BC027F03EC028F0F9EC1EF0050E65
:10174000436E0F0E426EF10EE82EFED7422EFCD7EE
:10175000432EFAD7000032C023F033C024F034C047
:1017600025F035C026F03BC027F03EC028F06BECDA
:1017700026F0F3EC2AF03A50020DF3CF42F0F4CF0A
:1017800043F042503824D96E43503920DA6EDECF10
:1017900044F0DDCF45F0AC0E4424466E0D0E4520DE
:1017A000476E14EC2AF04650105C47501158D8A0F0
:1017B000DCEF0BF0DEEF0BF0BBEF0BF032C023F0F1
:1017C00033C024F034C025F035C026F03EC027F0E9
:1017D000E7EC25F03AC048F0C2EF0EF0480648505A
:1017E0003624D96E000E3720DA6EDE04D8A4FBEF63
:1017F0000BF0FDEF0BF037EF0CF032C023F033C0ED
:1018000024F034C025F035C026F03FC027F040C09A
:1018100028F041C029F0BEEC23F0050E436E0F0EF8
:10182000426EF10EE82EFED7422EFCD7432EFAD799
:10183000000032C023F033C024F034C025F035C09E
:1018400026F03FC027F040C028F041C029F0BEEC90
:1018500023F0050E436E0F0E426EF10EE82EFED7FA
:10186000422EFCD7432EFAD7000069EF0EF0485005
:101870003624D96E000E3720DA6E020EDE18D8A498
:1018800044EF0CF046EF0CF080EF0CF032C023F088
:1018900033C024F034C025F035C026F03FC027F017
:1018A00040C028F041C029F0D1EC22F0050E436E73
:1018B0000F0E426EF10EE82EFED7422EFCD7432EBD
:1018C000FAD7000032C023F033C024F034C025F032
:1018D00035C026F03FC027F040C028F041C029F0B5
:1018E000D1EC22F0050E436E0F0E426EF10EE82E83
:1018F000FED7422EFCD7432EFAD7000069EF0EF038
:1019000048503624D96E000E3720DA6E030EDE18EA
:10191000D8A48DEF0CF08FEF0CF001EF0DF032C07A
:1019200023F033C024F034C025F035C026F03FC08A
:1019300027F040C028F041C029F0BEEC23F0050E8E
:10194000436E0F0E426EF10EE82EFED7422EFCD7EC
:10195000432EFAD7000032C023F033C024F034C045
:1019600025F035C026F03FC027F040C028F041C028
:1019700029F0BEEC23F0050E436E0F0E426EF10E01
:10198000E82EFED7422EFCD7432EFAD7000032C0F5
:1019900023F033C024F034C025F035C026F03FC01A
:1019A00027F040C028F041C029F0BEEC23F0050E1E
:1019B000436E0F0E426EF10EE82EFED7422EFCD77C
:1019C000432EFAD7000032C023F033C024F034C0D5
:1019D00025F035C026F03FC027F040C028F041C0B8
:1019E00029F0BEEC23F0050E436E0F0E426EF10E91
:1019F000E82EFED7422EFCD7432EFAD7000069EF1F
:101A00000EF048503624D96E000E3720DA6E040EE0
:101A1000DE18D8A40EEF0DF010EF0DF05CEF0DF016
:101A200032C023F033C024F034C025F035C026F096
:101A30003FC027F040C028F041C029F0BEEC23F0A1
:101A4000050E436E0F0E426EF10EE82EFED7422EAB
:101A5000FCD7432EFAD7000032C023F033C024F065
:101A600034C025F035C026F03FC027F040C028F034
:101A700041C029F0BEEC23F0050E436E0F0E426EFE
:101A8000F10EE82EFED7422EFCD7432EFAD70000E7
:101A900032C023F033C024F034C025F035C026F026
:101AA0003BC027F03CC028F03DC029F03EC02AF0E2
:101AB000E2EC21F0F3EF0CF048503624D96E000E22
:101AC0003720DA6E050EDE18D8A469EF0DF06BEF43
:101AD0000DF0B7EF0DF032C023F033C024F034C066
:101AE00025F035C026F03FC027F040C028F041C0A7
:101AF00029F0D1EC22F0050E436E0F0E426EF10E6E
:101B0000E82EFED7422EFCD7432EFAD7000032C073
:101B100023F033C024F034C025F035C026F03FC098
:101B200027F040C028F041C029F0D1EC22F0050E8A
:101B3000436E0F0E426EF10EE82EFED7422EFCD7FA
:101B4000432EFAD7000032C023F033C024F034C053
:101B500025F035C026F03BC027F03CC028F03DC042
:101B600029F03EC02AF0E2EC21F0F3EF0CF04850EF
:101B70003624D96E000E3720DA6E060EDE18D8A491
:101B8000C4EF0DF0C6EF0DF010EF0EF032C023F0F1
:101B900033C024F034C025F035C026F03FC027F014
:101BA00040C028F041C029F0BEEC23F0050E436E82
:101BB0000F0E426EF10EE82EFED7422EFCD7432EBA
:101BC000FAD7000032C023F033C024F034C025F02F
:101BD00035C026F03FC027F040C028F041C029F0B2
:101BE000BEEC23F0050E436E0F0E426EF10EE82E92
:101BF000FED7422EFCD7432EFAD7000032C023F086
:101C000033C024F034C025F035C026F03FC027F0A3
:101C100040C028F041C029F0BEEC23F0F3EF0CF0F7
:101C200048503624D96E000E3720DA6E070EDE18C3
:101C3000D8A41DEF0EF01FEF0EF069EF0EF032C0CA
:101C400023F033C024F034C025F035C026F03FC067
:101C500027F040C028F041C029F0D1EC22F0050E59
:101C6000436E0F0E426EF10EE82EFED7422EFCD7C9
:101C7000432EFAD7000032C023F033C024F034C022
:101C800025F035C026F03FC027F040C028F041C005
:101C900029F0D1EC22F0050E436E0F0E426EF10ECC
:101CA000E82EFED7422EFCD7432EFAD7000032C0D2
:101CB00023F033C024F034C025F035C026F03FC0F7
:101CC00027F040C028F041C029F0D1EC22F0F3EF1A
:101CD0000CF032C023F033C024F034C025F035C0FE
:101CE00026F03BC027F03EC028F0F9EC1EF0050EB0
:101CF000436E0F0E426EF10EE82EFED7422EFCD739
:101D0000432EFAD7000032C023F033C024F034C091
:101D100025F035C026F03BC027F03EC028F06BEC24
:101D200026F0F3EC2AF04850020DF3CF42F0F4CF46
:101D300043F042503824D96E43503920DA6EDECF5A
:101D400044F0DDCF45F0D60E4424466E060E452005
:101D5000476E14EC2AF04650105C47501158D8A03A
:101D6000B4EF0EF0B6EF0EF093EF0EF032C023F0AA
:101D700033C024F034C025F035C026F03EC027F033
:101D8000E7EC25F04850D8A4C8EF0EF0CAEF0EF0EB
:101D9000EEEF0BF0120080867C8E32C023F033C051
:101DA00024F034C025F035C026F03FC027F040C0F5
:101DB00028F041C029F0BEEC23F0050E436E0F0E53
:101DC000426EF10EE82EFED7422EFCD7432EFAD7F4
:101DD000000032C023F033C024F034C025F035C0F9
:101DE00026F03FC027F040C028F041C029F0BEECEB
:101DF00023F0050E436E0F0E426EF10EE82EFED755
:101E0000422EFCD7432EFAD7000032C023F033C055
:101E100024F034C025F035C026F03FC027F040C084
:101E200028F041C029F0BEEC23F0050E436E0F0EE2
:101E3000426EF10EE82EFED7422EFCD7432EFAD783
:101E4000000032C023F033C024F034C025F035C088
:101E500026F03FC027F040C028F041C029F0BEEC7A
:101E600023F0050E436E0F0E426EF10EE82EFED7E4
:101E7000422EFCD7432EFAD7000032C023F033C0E5
:101E800024F034C025F035C026F03BC027F03EC01A
:101E900028F06BEC26F0F3EC2AF0000E0001F46F52
:101EA000F451D8B456EF0FF058EF0FF050EF0FF099
:101EB00032C023F033C024F034C025F035C026F002
:101EC0003EC027F0E7EC25F03AC046F018EF12F0DC
:101ED000460646503624D96E000E3720DA6EDE04F0
:101EE000D8A475EF0FF077EF0FF0B1EF0FF032C01D
:101EF00023F033C024F034C025F035C026F03FC0B5
:101F000027F040C028F041C029F0BEEC23F0050EB8
:101F1000436E0F0E426EF10EE82EFED7422EFCD716
:101F2000432EFAD7000032C023F033C024F034C06F
:101F300025F035C026F03FC027F040C028F041C052
:101F400029F0BEEC23F0050E436E0F0E426EF10E2B
:101F5000E82EFED7422EFCD7432EFAD70000E3EF3F
:101F600011F046503624D96E000E3720DA6E020E7C
:101F7000DE18D8A4BEEF0FF0C0EF0FF0FAEF0FF0AD
:101F800032C023F033C024F034C025F035C026F031
:101F90003FC027F040C028F041C029F0D1EC22F02A
:101FA000050E436E0F0E426EF10EE82EFED7422E46
:101FB000FCD7432EFAD7000032C023F033C024F000
:101FC00034C025F035C026F03FC027F040C028F0CF
:101FD00041C029F0D1EC22F0050E436E0F0E426E87
:101FE000F10EE82EFED7422EFCD7432EFAD7000082
:101FF000E3EF11F046503624D96E000E3720DA6E2A
:10200000030EDE18D8A407EF10F009EF10F07BEFF5
:1020100010F032C023F033C024F034C025F035C0B6
:1020200026F03FC027F040C028F041C029F0BEECA8
:1020300023F0050E436E0F0E426EF10EE82EFED712
:10204000422EFCD7432EFAD7000032C023F033C013
:1020500024F034C025F035C026F03FC027F040C042
:1020600028F041C029F0BEEC23F0050E436E0F0EA0
:10207000426EF10EE82EFED7422EFCD7432EFAD741
:10208000000032C023F033C024F034C025F035C046
:1020900026F03FC027F040C028F041C029F0BEEC38
:1020A00023F0050E436E0F0E426EF10EE82EFED7A2
:1020B000422EFCD7432EFAD7000032C023F033C0A3
:1020C00024F034C025F035C026F03FC027F040C0D2
:1020D00028F041C029F0BEEC23F0050E436E0F0E30
:1020E000426EF10EE82EFED7422EFCD7432EFAD7D1
:1020F0000000E3EF11F046503624D96E000E372071
:10210000DA6E040EDE18D8A488EF10F08AEF10F013
:10211000D6EF10F032C023F033C024F034C025F0E5
:1021200035C026F03FC027F040C028F041C029F05C
:10213000BEEC23F0050E436E0F0E426EF10EE82E3C
:10214000FED7422EFCD7432EFAD7000032C023F030
:1021500033C024F034C025F035C026F03FC027F04E
:1021600040C028F041C029F0BEEC23F0050E436EBC
:102170000F0E426EF10EE82EFED7422EFCD7432EF4
:10218000FAD7000032C023F033C024F034C025F069
:1021900035C026F03BC027F03CC028F03DC029F0F8
:1021A0003EC02AF0E2EC21F06DEF10F046503624EC
:1021B000D96E000E3720DA6E050EDE18D8A4E3EFD4
:1021C00010F0E5EF10F031EF11F032C023F033C022
:1021D00024F034C025F035C026F03FC027F040C0C1
:1021E00028F041C029F0D1EC22F0050E436E0F0E0D
:1021F000426EF10EE82EFED7422EFCD7432EFAD7C0
:10220000000032C023F033C024F034C025F035C0C4
:1022100026F03FC027F040C028F041C029F0D1ECA3
:1022200022F0050E436E0F0E426EF10EE82EFED721
:10223000422EFCD7432EFAD7000032C023F033C021
:1022400024F034C025F035C026F03BC027F03CC058
:1022500028F03DC029F03EC02AF0E2EC21F06DEFFD
:1022600010F046503624D96E000E3720DA6E060E76
:10227000DE18D8A43EEF11F040EF11F08AEF11F014
:1022800032C023F033C024F034C025F035C026F02E
:102290003FC027F040C028F041C029F0BEEC23F039
:1022A000050E436E0F0E426EF10EE82EFED7422E43
:1022B000FCD7432EFAD7000032C023F033C024F0FD
:1022C00034C025F035C026F03FC027F040C028F0CC
:1022D00041C029F0BEEC23F0050E436E0F0E426E96
:1022E000F10EE82EFED7422EFCD7432EFAD700007F
:1022F00032C023F033C024F034C025F035C026F0BE
:102300003FC027F040C028F041C029F0BEEC23F0C8
:102310006DEF10F046503624D96E000E3720DA6E7D
:10232000070EDE18D8A497EF11F099EF11F0E3EF44
:1023300011F032C023F033C024F034C025F035C092
:1023400026F03FC027F040C028F041C029F0D1EC72
:1023500022F0050E436E0F0E426EF10EE82EFED7F0
:10236000422EFCD7432EFAD7000032C023F033C0F0
:1023700024F034C025F035C026F03FC027F040C01F
:1023800028F041C029F0D1EC22F0050E436E0F0E6B
:10239000426EF10EE82EFED7422EFCD7432EFAD71E
:1023A000000032C023F033C024F034C025F035C023
:1023B00026F03FC027F040C028F041C029F0D1EC02
:1023C00022F06DEF10F032C023F033C024F034C09F
:1023D00025F035C026F03BC027F03EC028F06BEC5E
:1023E00026F0F3EC2AF04650020DF3CF42F0F4CF82
:1023F00043F042503824D96E43503920DA6E14EC41
:102400002AF0DE50105CDE501158D8A00AEF12F00E
:102410000CEF12F0F3EF11F032C023F033C024F0D0
:1024200034C025F035C026F03EC027F0E7EC25F09B
:102430004650D8A41EEF12F020EF12F068EF0FF014
:102440001200010E63EC2AF080867C8E8EB42BEF96
:1024500012F02DEF12F026EF12F080967C9E76C0DF
:1024600014F077C015F0EBEC20F076C0D9FF77C000
:10247000DAFF00EE2AF0070EDBCFEBFFE806FCE206
:1024800078C032F079C033F06DEC17F078C0D9FF26
:1024900079C0DAFF7AC0E1FF7BC0E2FFDECFE6FF62
:1024A000DDCFE5FF000120EE02F07851D926795109
:1024B000DA2210EE02F07A51E1267B51E222DECFE1
:1024C000E6FFDDCFE5FF20EE04F07851D926795103
:1024D000DA2210EE04F07A51E1267B51E222DECFBF
:1024E000E6FFDDCFE5FF290E416E960E406E7F0EB2
:1024F000E82EFED7402EFCD7412EFAD7000080866A
:102500007C8E8EB486EF12F088EF12F081EF12F01D
:1025100080967C9E76C014F077C015F0EBEC20F02E
:1025200076C0D9FF77C0DAFF00EE2AF0070EDBCFC6
:10253000EBFFE806FCE278C032F079C033F06DECD6
:1025400017F078C0D9FF79C0DAFF7CC0E1FF7DC009
:10255000E2FFDECFE6FFDDCFE5FF000120EE02F077
:102560007851D9267951DA2210EE02F07C51E12619
:102570007D51E222DECFE6FFDDCFE5FF20EE04F065
:102580007851D9267951DA2210EE04F07C51E126F7
:102590007D51E222DECFE6FFDDCFE5FF290E416E61
:1025A000960E406E7F0EE82EFED7402EFCD7412EB1
:1025B000FAD7000080867C8E8EB4E1EF12F0E3EF54
:1025C00012F0DCEF12F080967C9E76C014F077C09B
:1025D00015F0EBEC20F076C0D9FF77C0DAFF00EE03
:1025E0002AF0070EDBCFEBFFE806FCE278C032F002
:1025F00079C033F06DEC17F078C0D9FF79C0DAFFFD
:102600007EC0E1FF7FC0E2FFDECFE6FFDDCFE5FF6A
:10261000000120EE02F07851D9267951DA2210EE2D
:1026200002F07E51E1267F51E222DECFE6FFDDCFD0
:10263000E5FF20EE04F07851D9267951DA2210EE28
:1026400004F07E51E1267F51E222DECFE6FFDDCFAE
:10265000E5FF290E416E960E406E7F0EE82EFED7E6
:10266000402EFCD7412EFAD7000080867C8E8EB497
:102670003CEF13F03EEF13F037EF13F080967C9EA3
:1026800076C014F077C015F0EBEC20F076C0D9FFDF
:1026900077C0DAFF00EE2AF0070EDBCFEBFFE8068B
:1026A000FCE278C032F079C033F06DEC17F078C0FE
:1026B000D9FF79C0DAFF80C0E1FF81C0E2FFDECF41
:1026C000E6FFDDCFE5FF000120EE02F07851D926CC
:1026D0007951DA2210EE02F08051E1268151E22296
:1026E000DECFE6FFDDCFE5FF20EE04F07851D926FE
:1026F0007951DA2210EE04F08051E1268151E22274
:10270000DECFE6FFDDCFE5FF290E416E960E406E6F
:102710007F0EE82EFED7402EFCD7412EFAD70000C0
:1027200080867C8E8EB497EF13F099EF13F092EFC2
:1027300013F080967C9E76C014F077C015F0EBEC19
:1027400020F076C0D9FF77C0DAFF00EE2AF0070E3E
:10275000DBCFEBFFE806FCE278C032F079C033F063
:102760006DEC17F078C0D9FF79C0DAFF82C0E1FFC5
:1027700083C0E2FFDECFE6FFDDCFE5FF000120EE04
:1027800002F07851D9267951DA2210EE02F0825106
:10279000E1268351E222DECFE6FFDDCFE5FF20EE2A
:1027A00004F07851D9267951DA2210EE04F08251E2
:1027B000E1268351E222DECFE6FFDDCFE5FF290EE1
:1027C000416E960E406E7F0EE82EFED7402EFCD74F
:1027D000412EFAD7000080867C8E8EB4F2EF13F083
:1027E000F4EF13F0EDEF13F080967C9E76C014F0BA
:1027F00077C015F0EBEC20F076C0D9FF77C0DAFF98
:1028000000EE2AF0070EDBCFEBFFE806FCE278C013
:1028100032F079C033F06DEC17F078C0D9FF79C091
:10282000DAFF84C0E1FF85C0E2FFDECFE6FFDDCF47
:10283000E5FF000120EE02F07851D9267951DA2225
:1028400010EE02F08451E1268551E222DECFE6FF50
:10285000DDCFE5FF20EE04F07851D9267951DA2258
:1028600010EE04F08451E1268551E222DECFE6FF2E
:10287000DDCFE5FF290E416E960E406E7F0EE82EED
:10288000FED7402EFCD7412EFAD7000080867C8EE2
:102890008EB44DEF14F04FEF14F048EF14F0809623
:1028A0007C9E76C014F077C015F0EBEC20F076C07B
:1028B000D9FF77C0DAFF00EE2AF0070EDBCFEBFF7F
:1028C000E806FCE278C032F079C033F06DEC17F026
:1028D00078C0D9FF79C0DAFF86C0E1FF87C0E2FF88
:1028E000DECFE6FFDDCFE5FF000120EE02F07851FC
:1028F000D9267951DA2210EE02F08651E12687516D
:10290000E222DECFE6FFDDCFE5FF20EE04F07851D6
:10291000D9267951DA2210EE04F08651E12687514A
:10292000E222DECFE6FFDDCFE5FF290E416E960EF7
:10293000406E7F0EE82EFED7402EFCD7412EFAD7F0
:10294000000080867C8E8EB4A8EF14F0AAEF14F0FD
:10295000A3EF14F080967C9E76C014F077C015F03B
:10296000EBEC20F076C0D9FF77C0DAFF00EE2AF05A
:10297000070EDBCFEBFFE806FCE278C032F079C04F
:1029800033F06DEC17F078C0D9FF79C0DAFF88C05A
:10299000E1FF89C0E2FFDECFE6FFDDCFE5FF00010A
:1029A00020EE02F07851D9267951DA2210EE02F0A9
:1029B0008851E1268951E222DECFE6FFDDCFE5FF37
:1029C00020EE04F07851D9267951DA2210EE04F085
:1029D0008851E1268951E222DECFE6FFDDCFE5FF17
:1029E000290E416E960E406E7F0EE82EFED7402EC9
:1029F000FCD7412EFAD7000080867C8E120020EE94
:102A00008CF0270EDE6AE806FDE2000E01017A6F07
:102A1000000EB26F21EE52F0270EDE6AE806FDE2EC
:102A200021EE00F0510EDE6AE806FDE2000EB36F03
:102A3000F6C0B4F0F7C0B5F0F8C0B6F0F9C0B7F022
:102A4000B8EC29F09CEC29F0B6EC2AF0000E116EDF
:102A5000C70E106E38EC28F0000E0101CE6F010E8B
:102A6000CF6F010ED06FAA0ED36F0F0ED46FA60ECC
:102A7000D56F0F0ED66F000ED26FC70ED16F020E3C
:102A8000D76F000EC46F010EC56F010EC66F250E05
:102A9000C96F0F0ECA6F210ECB6F0F0ECC6F000ED9
:102AA000C86FC70EC76F000ECD6F140EB16F020E48
:102AB000B46F030E7E6F200E7D6F280EAF6F0A0E6F
:102AC000B56F010EB06F54EC29F08EB46AEF15F0BB
:102AD0006CEF15F065EF15F080967C9E7C86808209
:102AE000290E00018B6F960E8A6F7F0EE82EFED79F
:102AF0008A2FFCD78B2FFAD7BC0E0001766F010E00
:102B0000776FB60E786F010E796F7F0E7A6F010EB8
:102B10007B6F850E7C6F010E7D6F8B0E7E6F010EBD
:102B20007F6F910E806F010E816F970E826F010E85
:102B3000836F9D0E846F010E856FA30E866F010E4D
:102B4000876FA90E886F010E896F21EC12F0CE0EEF
:102B5000316E010E326EC40E336E010E346E280ECD
:102B6000356EB50E366E010E376E010E386EACEC5A
:102B70001DF0010E63EC2AF0520E00018B6F2B0E3C
:102B80008A6F000EE82EFED78A2FFCD78B2FFAD73C
:102B9000000096EC2AF0F3EC2AF0DEEC2AF0BC0EF2
:102BA000146E010E156EEBEC20F0C2C1FAF0C3C139
:102BB000FBF040EC27F0D00E00018A6FC90EE82E22
:102BC000FED78A2FFCD700D0CE0E236E010E246EC6
:102BD000C40E256E010E266E140E276E020E286E90
:102BE0006BEC26F0F3EC2AF0000E0001F56F000EFE
:102BF000F46F0001F505D8A400EF16F002EF16F00F
:102C000035EF16F0BC0E146E010E156EEBEC20F0D5
:102C1000C2C17BF1C3C17CF101017B510001FA5DAE
:102C200001017C510001FB59D8A019EF16F01BEFF0
:102C300016F02FEF16F07BC1FAF07CC1FBF040ECF0
:102C400027F0D00E00018A6FC90EE82EFED78A2F1A
:102C5000FCD700D0000E0001F56F35EF16F0010E25
:102C600001017A6F000E0001F56F01017A05D8A409
:102C70003CEF16F03EEF16F018EF17F00E01299119
:102C800014EC2AF00101B351020D000EF324D96EA9
:102C9000010EF420DA6E10C0DEFF11C0DDFFCE0E93
:102CA000236E010E246EC40E256E010E266EB4C175
:102CB00027F0E7EC25F0CE0E236E010E246EC40E35
:102CC000256E010E266EB1C127F0B4C128F0DBECF1
:102CD00019F0BC0E146E010E156EEBEC20F021EE17
:102CE000BCF000EE2AF0070EDBCFEBFFE806FCE2BB
:102CF000B60E326E010E336E6DEC17F021EEB6F0AB
:102D000000EE14F0050EDBCFEBFFE806FCE221EE4F
:102D10007FF000EE1AF0050EDBCFEBFFE806FCE2D9
:102D200021EE85F000EE20F0050EDBCFEBFFE8068C
:102D3000FCE221EE8BF000EE26F0050EDBCFEBFF80
:102D4000E806FCE221EE91F000EE2CF0050EDBCF60
:102D5000EBFFE806FCE221EE97F000EE32F0050E04
:102D6000DBCFEBFFE806FCE221EE9DF000EE38F051
:102D7000050EDBCFEBFFE806FCE221EEA3F000EE50
:102D80003EF0050EDBCFEBFFE806FCE221EEA9F0FA
:102D900000EE44F0050EDBCFEBFFE806FCE2C4ECEE
:102DA0001BF00101B26F520EB325D96EDA6A010E23
:102DB000DA22B2C1DFFFCE0E0001606F010E616F3B
:102DC000C40E626F010E636FB2C164F0520E656F84
:102DD000010E666F000E676F010E686FB3C169F078
:102DE000B1C16AF07DC16BF07EC16CF0B4C16DF011
:102DF000AFC16EF0B5C16FF0B0C170F001EC07F07B
:102E0000BC0E146E010E156EEBEC20F0C2C1FAF090
:102E1000C3C1FBF040EC27F0000E0001F56F01018B
:102E2000B32BF3EC2AF00E012981000E01017A6F19
:102E30000001F405D8A41FEF17F021EF17F058EFA9
:102E400017F00E012991CE0E236E010E246EC40ED2
:102E5000256E010E266EB4C127F0E7EC25F0CE0EEC
:102E6000326E010E336EC40E346E010E356E520E8C
:102E7000366E010E376E000E386E010E396EB3C11C
:102E80003AF0B1C13BF07DC13CF07EC13DF0B4C130
:102E90003EF0AFC13FF0B5C140F0B0C141F0CBEC66
:102EA0000EF00E012981000E0001F46F6BEF17F098
:102EB000080E0101B219D8B460EF17F062EF17F0F5
:102EC0006BEF17F0090EB219D8A469EF17F06BEF8A
:102ED00017F0F9EF15F02CEF00F02AC010F02BC01E
:102EE00011F0126A136A100E146E270E156E000E82
:102EF000166E000E176EF4EC28F010C01CF011C016
:102F00001DF012C01EF013C01FF06C0E206E070ED5
:102F1000216E000E226E000E236E61EC25F01CC0A7
:102F20006AF01DC06BF02CC010F02DC011F0126AB9
:102F3000136A100E146E270E156E000E166E000E1C
:102F4000176EF4EC28F010C01CF011C01DF012C078
:102F50001EF013C01FF0780E206E050E216E000EBD
:102F6000226E000E236E61EC25F01CC072F01DC0B5
:102F700073F02EC010F02FC011F0126A136A100EF9
:102F8000146E270E156E000E166E000E176EF4EC02
:102F900028F010C01CF011C01DF012C01EF013C0AC
:102FA0001FF0400E206E060E216E000E226E000EE7
:102FB000236E61EC25F01CC074F01DC075F072C06A
:102FC00010F073C011F074C012F075C013F0E9EC8A
:102FD00029F010C066F011C067F06AC010F06BC035
:102FE00011F066C012F067C013F0E9EC29F010C0D0
:102FF0006CF011C06DF072C010F073C011F074C0AD
:1030000012F075C013F0D3EC29F010C068F011C0B5
:1030100069F06AC010F06BC011F068C012F069C0AE
:1030200013F0D3EC29F010C064F011C065F000017A
:1030300064516C5D346E65516D59356E34C06EF0FF
:1030400035C06FF0706B716B6A516C1907E16B5191
:103050006D19D8A42EEF18F030EF18F0D7EF18F054
:103060007251745D73517559D8B039EF18F03BEF58
:1030700018F06DEF18F07451725D346E755173591C
:10308000356E34C010F035C011F0126A136A700E3C
:10309000146E170E156E000E166E000E176EF4EC01
:1030A00028F010C01CF011C01DF012C01EF013C09B
:1030B0001FF06EC020F06FC021F070C022F071C010
:1030C00023F0E6EC27F032C0D9FF33C0DAFF1CC092
:1030D000DEFF1DC0DDFF8FEF19F07451725D755179
:1030E0007359D8B076EF18F078EF18F08FEF19F029
:1030F0007451346E7551356E366A376A6EC010F091
:103100006FC011F070C012F071C013F0060E146E93
:10311000000E156E000E166E000E176EF4EC28F001
:10312000000172511024386E73511120396E000E57
:1031300012203A6E000E13203B6E3450385C606FE4
:1031400035503958616F36503A58626F37503B5896
:10315000636F60C010F061C011F062C012F063C014
:1031600013F0700E146E170E156E000E166E000E14
:10317000176EF4EC28F010C01CF011C01DF012C046
:103180001EF013C01FF06EC020F06FC021F070C0A1
:1031900022F071C023F0E6EC27F032C0D9FF33C033
:1031A000DAFF1CC0DEFF1DC0DDFF8FEF19F072518A
:1031B0006C1907E173516D19D8A4E1EF18F0E3EF32
:1031C00018F030EF19F06A51346E6B51356E366A73
:1031D000376AD8906E35386E6F35396E70353A6E05
:1031E00071353B6E745138243C6E755139203D6EFB
:1031F000000E3A203E6E000E3B203F6E34503C5C89
:10320000106E35503D58116E36503E58126E375084
:103210003F58136E700E146E170E156E000E166E5C
:10322000000E176EF4EC28F010C01CF011C01DF059
:1032300012C01EF013C01FF06EC020F06FC021F04E
:1032400070C022F071C023F0E6EC27F032C0D9FF45
:1032500033C0DAFF1CC0DEFF1DC0DDFF8FEF19F0A9
:1032600074516C1907E175516D19D8A43AEF19F032
:103270003CEF19F08FEF19F07251346E7351356EC7
:10328000366A376A6EC038F06FC039F070C03AF0F5
:1032900071C03BF0020ED890383639363A363B369C
:1032A000E82E4BEF19F06A5138243C6E6B513920EF
:1032B0003D6E000E3A203E6E000E3B203F6E3450B5
:1032C0003C5C106E35503D58116E36503E58126EB3
:1032D00037503F58136E700E146E170E156E000E99
:1032E000166E000E176EF4EC28F010C01CF011C022
:1032F0001DF012C01EF013C01FF06EC020F06FC092
:1033000021F070C022F071C023F0E6EC27F032C04B
:10331000D9FF33C0DAFF1CC0DEFF1DC0DDFF6EC069
:1033200010F06FC011F070C012F071C013F0100EE9
:10333000146E270E156E000E166E000E176EF4EC4E
:1033400028F010C01CF011C01DF012C01EF013C0F8
:103350001FF06CC020F06DC021F0226A236AE6ECF9
:1033600027F020EE02F03250D9263350DA221CC06A
:10337000DEFF1DC0DDFF20EE02F03250D9263350B3
:10338000DA22DE50DE10D8A4C8EF19F0CAEF19F027
:10339000D0EF19F032C0D9FF33C0DAFFDE6ADD6A40
:1033A00020EE04F03250D9263350DA226CC0DEFF12
:1033B0006DC0DDFF1200780E2C6E140E2D6E280EDF
:1033C0002E6E20EE01F02350D9262450DA22010E71
:1033D000DF6E20EE01F02550D9262650DA22010EAC
:1033E000DF6E000E326E010E316E41EF1AF020EEEC
:1033F00009F02350D9262450DA22DF50312423C08B
:10340000D9FF24C0DAFFDF6E20EE09F02550D9265F
:103410002650DA22DF50312425C0D9FF26C0DAFF3A
:10342000DF6E23C01DF024C01EF0ABEC24F025C0DD
:103430001DF026C01EF0ABEC24F0000E306E000E26
:103440002F6E2DEF1AF0680E296EE40EE82EFED7CF
:10345000292EFCD700D02F4A302A2850296E2A6AFC
:1034600029502F5C3050800A2B6E2A50800A2B582E
:10347000D8A03DEF1AF03FEF1AF023EF1AF0314ACF
:10348000322A2E50296E2A6A3150295C2A50800A2D
:103490002B6E3250800A2B58D8B051EF1AF053EFF0
:1034A0001AF0F7EF19F0000E306E000E2F6E63EF7A
:1034B0001AF0680E296EE40EE82EFED7292EFCD7EE
:1034C00000D02F4A302A2C50296E2A6A29502F5CAE
:1034D0003050800A2B6E2A50800A2B58D8A073EFE8
:1034E0001AF075EF1AF059EF1AF02EC031F0326A67
:1034F00032BE7FEF1AF07DEF1AF081EF1AF0CEEFB7
:103500001AF020EE09F02350D9262450DA22DF5099
:10351000312423C0D9FF24C0DAFFDF6E20EE09F08A
:103520002550D9262650DA22DF50312425C0D9FF74
:1035300026C0DAFFDF6E23C01DF024C01EF0ABEC06
:1035400024F025C01DF026C01EF0ABEC24F0000EC8
:10355000306E000E2F6EB7EF1AF0680E296EE40E73
:10356000E82EFED7292EFCD700D02F4A302A28502B
:10357000296E2A6A29502F5C3050800A2B6E2A50FF
:10358000800A2B58D8A0C7EF1AF0C9EF1AF0ADEF98
:103590001AF03106D8A0320678EF1AF020EE01F0CA
:1035A0002350D9262450DA22DF6A20EE01F025507C
:1035B000D9262650DA22DF6A000E326E010E316EF5
:1035C0002CEF1BF020EE09F02350D9262450DA22EC
:1035D000DF50312423C0D9FF24C0DAFFDF6E20EE94
:1035E00009F02550D9262650DA22DF50312425C093
:1035F000D9FF26C0DAFFDF6E23C01DF024C01EF005
:10360000ABEC24F025C01DF026C01EF0ABEC24F07E
:10361000000E306E000E2F6E18EF1BF0680E296E34
:10362000E40EE82EFED7292EFCD700D02F4A302AF0
:103630002850296E2A6A29502F5C3050800A2B6E40
:103640002A50800A2B58D8A028EF1BF02AEF1BF035
:103650000EEF1BF0314A322A2750296E2A6A315068
:10366000295C2A50800A2B6E3250800A2B58D8B021
:103670003CEF1BF03EEF1BF0E2EF1AF0000E306E55
:10368000000E2F6E4EEF1BF0680E296EE40EE82E32
:10369000FED7292EFCD700D02F4A302A2D50296E74
:1036A0002A6A29502F5C3050800A2B6E2A50800ADB
:1036B0002B58D8A05EEF1BF060EF1BF044EF1BF01F
:1036C00027C031F0326A32BE6AEF1BF068EF1BF0A0
:1036D0006CEF1BF0B9EF1BF020EE09F02350D92658
:1036E0002450DA22DF50312423C0D9FF24C0DAFF6E
:1036F000DF6E20EE09F02550D9262650DA22DF5061
:10370000312425C0D9FF26C0DAFFDF6E23C01DF0AB
:1037100024C01EF0ABEC24F025C01DF026C01EF026
:10372000ABEC24F0000E306E000E2F6EA2EF1BF0FB
:10373000680E296EE40EE82EFED7292EFCD700D0A5
:103740002F4A302A2850296E2A6A29502F5C30507F
:10375000800A2B6E2A50800A2B58D8A0B2EF1BF09B
:10376000B4EF1BF098EF1BF03106D8A0320663EFE0
:103770001BF023C0D9FF24C0DAFFDF6A25C0D9FFC0
:1037800026C0DAFFDF6A1200090E4A6E20C010F070
:1037900021C011F03EC012F03FC013F0D3EC29F06D
:1037A000300E10240001606FF80E1120616F14506C
:1037B000605D15506159D8B0E0EF1BF0E2EF1BF0EF
:1037C00017EF1CF020C010F021C011F03EC012F025
:1037D0003FC013F0E9EC29F0D00E10240001606F17
:1037E000070E1120616F6051145C61511558D8B0FB
:1037F000FCEF1BF0FEEF1BF017EF1CF0E80E40246F
:10380000606F030E4120616F1650605D1750615963
:10381000D8B00DEF1CF00FEF1CF013EF1CF0020EF0
:103820004A6EEEEF1CF0070E4A6EEEEF1CF0480EEB
:103830002624606FF40E2720616F1450605D1550D0
:103840006159D8B026EF1CF028EF1CF03DEF1CF0BA
:10385000B80E2624606F0B0E2720616F6051145C38
:1038600061511558D8B037EF1CF039EF1CF03DEF1F
:103870001CF0030E4A6EEEEF1CF02CC010F02DC0B1
:1038800011F032C012F033C013F0D3EC29F0180E4F
:1038900010240001606FFC0E1120616F1450605DF8
:1038A00015506159D8B057EF1CF059EF1CF0CAEF12
:1038B0001CF02CC010F02DC011F032C012F033C03B
:1038C00013F0E9EC29F0E80E10240001606F030EFC
:1038D0001120616F6051145C61511558D8B073EFBD
:1038E0001CF075EF1CF0CAEF1CF0F40E1424606F8E
:1038F000010E1520616F14C062F015C063F0D890FE
:10390000623763371650625F1750635B6051625DC8
:1039100061516359D8B08FEF1CF091EF1CF0B1EFFB
:103920001CF014C060F015C061F0D89060376137AA
:103930001650605F1750615B0C0E1424626FFE0E10
:103940001520636F6051625D61516359D8B0ABEF70
:103950001CF0ADEF1CF0B1EF1CF0080E4A6EEEEF5C
:103960001CF0F40E3424606F010E3520616F165088
:10397000605D17506159D8B0C0EF1CF0C2EF1CF069
:10398000C6EF1CF0040E4A6EEEEF1CF0050E4A6EF8
:10399000EEEF1CF00C0E3824606FFE0E3920616FC4
:1039A0001450605D15506159D8B0D9EF1CF0DBEFB1
:1039B0001CF0EEEF1CF0F40E3824606F010E39207D
:1039C000616F6051145C61511558D8B0EAEF1CF07A
:1039D000ECEF1CF0EEEF1CF0060E4A6E310E1A5C96
:1039E000750E1B58D8A0F7EF1CF0F9EF1CF04DEF47
:1039F0001DF0180E1A24606FFC0E1B20616F14500E
:103A0000605D15506159D8B008EF1DF00AEF1DF048
:103A100015EF1DF0A00E145C8C0E1558D8A013EFF6
:103A20001DF015EF1DF04BEF1DF014501510D8B41C
:103A30001CEF1DF01EEF1DF04DEF1DF0E80E1A24D7
:103A4000606F030E1B20616F626B636B600E6025FD
:103A5000646F730E6121656FFF0E6221666FFF0E4A
:103A60006321676F1450686F1550696F6A6B6B6BD9
:103A70006451685D6551695966516A596B51800A94
:103A80006C6F6751800A6C59D8B049EF1DF04BEF4D
:103A90001DF04DEF1DF0010E4A6E100E1A5C270E40
:103AA0001B58D8B056EF1DF058EF1DF0AAEF1DF0CF
:103AB0001450606F1550616F626B636B1A50646FC6
:103AC0001B50656F666B676BB80E6425686F880E58
:103AD0006521696F000E66216A6F000E67216B6FAA
:103AE0006051685D6151695962516A596B51800A30
:103AF0006C6F6351800A6C59D8B081EF1DF083EF71
:103B00001DF08EEF1DF0A00E145C8C0E1558D8A081
:103B10008CEF1DF08EEF1DF0A8EF1DF01450151066
:103B2000D8B495EF1DF097EF1DF0AAEF1DF0E80E49
:103B30001A24606F030E1B20616F6051145C615189
:103B40001558D8B0A6EF1DF0A8EF1DF0AAEF1DF094
:103B5000010E4A6E4A50120031C023F032C024F0E8
:103B600033C025F034C026F035C027F036C0D9FF69
:103B700037C0DAFFDF50286E38C029F0BEEC23F0E2
:103B8000050E3A6E0F0E396EF10EE82EFED7392E65
:103B9000FCD73A2EFAD7000031C023F032C024F00F
:103BA00033C025F034C026F035C027F036C0D9FF29
:103BB00037C0DAFFDF50286E38C029F0BEEC23F0A2
:103BC000050E3A6E0F0E396EF10EE82EFED7392E25
:103BD000FCD73A2EFAD7000031C023F032C024F0CF
:103BE00033C025F034C026F035C027F036C0D9FFE9
:103BF00037C0DAFFDF50286E38C029F0D1EC22F050
:103C0000050E3A6E0F0E396EF10EE82EFED7392EE4
:103C1000FCD73A2EFAD7000031C023F032C024F08E
:103C200033C025F034C026F035C027F036C0D9FFA8
:103C300037C0DAFFDF50286E38C029F0D1EC22F00F
:103C40008EA425EF1EF027EF1EF02EEF1EF08EB68D
:103C50002CEF1EF02EEF1EF020EF1EF08EB433EF8F
:103C60001EF035EF1EF049EF1EF036C0D9FF37C009
:103C7000DAFFDF50D8B43FEF1EF041EF1EF049EFFE
:103C80001EF036C0D9FF37C0DAFFDF067C8E56EF54
:103C90001EF08EB64EEF1EF050EF1EF056EF1EF0E7
:103CA00036C0D9FF37C0DAFFDF2A8086290E3A6E88
:103CB000960E396E7F0EE82EFED7392EFCD73A2E9F
:103CC000FAD700008EB667EF1EF069EF1EF070EFB6
:103CD0001EF036C0D9FF37C0DAFFDF06E8EF1EF06E
:103CE00080967C9E31C023F032C024F033C025F092
:103CF00034C026F035C027F036C0D9FF37C0DAFF10
:103D0000DF50286E38C029F0BEEC23F0050E3A6E65
:103D10000F0E396EF10EE82EFED7392EFCD73A2E53
:103D2000FAD7000031C023F032C024F033C025F0B0
:103D300034C026F035C027F036C0D9FF37C0DAFFCF
:103D4000DF50286E38C029F0BEEC23F0050E3A6E25
:103D50000F0E396EF10EE82EFED7392EFCD73A2E13
:103D6000FAD7000031C023F032C024F033C025F070
:103D700034C026F035C027F036C0D9FF37C0DAFF8F
:103D8000DF50286E38C029F0D1EC22F0050E3A6ED3
:103D90000F0E396EF10EE82EFED7392EFCD73A2ED3
:103DA000FAD7000031C023F032C024F033C025F030
:103DB00034C026F035C027F036C0D9FF37C0DAFF4F
:103DC000DF50286E38C029F0D1EC22F020EF1EF031
:103DD00080867C8E090E3A6E1E0E396EE40EE82E39
:103DE000FED7392EFCD73A2EFAD700D080967C9E8B
:103DF00012003C0E2C6E280E2D6E20EE01F023508A
:103E0000D9262450DA22DF6A20EE01F02550D92687
:103E10002650DA22DF6A000E316E010E306E5BEF43
:103E20001FF020EE09F02350D9262450DA22DF506B
:103E3000302423C0D9FF24C0DAFFDF6E20EE09F062
:103E40002550D9262650DA22DF50302425C0D9FF4C
:103E500026C0DAFFDF6E23C01DF024C01EF0ABECDD
:103E600024F025C01DF026C01EF0ABEC24F0000E9F
:103E70002F6E000E2E6E47EF1FF0680E296EE40EB7
:103E8000E82EFED7292EFCD700D02E4A2F2A285004
:103E9000296E2A6A29502E5C2F50800A2B6E2A50D8
:103EA000800A2B58D8A057EF1FF059EF1FF03DEFB5
:103EB0001FF0304A312A2D50296E2A6A3050295C71
:103EC0002A50800A2B6E3150800A2B58D8B06BEFE5
:103ED0001FF06DEF1FF011EF1FF0000E2F6E000EA0
:103EE0002E6E7DEF1FF0680E296EE40EE82EFED7D1
:103EF000292EFCD700D02E4A2F2A2C50296E2A6A50
:103F000029502E5C2F50800A2B6E2A50800A2B5885
:103F1000D8A08DEF1FF08FEF1FF073EF1FF02DC0B3
:103F200030F0316A31BE99EF1FF097EF1FF09BEF31
:103F30001FF0E8EF1FF020EE09F02350D92624509F
:103F4000DA22DF50302423C0D9FF24C0DAFFDF6E2D
:103F500020EE09F02550D9262650DA22DF503024F1
:103F600025C0D9FF26C0DAFFDF6E23C01DF024C0B4
:103F70001EF0ABEC24F025C01DF026C01EF0ABEC0B
:103F800024F0000E2F6E000E2E6ED1EF1FF0680E83
:103F9000296EE40EE82EFED7292EFCD700D02E4A3B
:103FA0002F2A2850296E2A6A29502E5C2F50800A09
:103FB0002B6E2A50800A2B58D8A0E1EF1FF0E3EFB8
:103FC0001FF0C7EF1FF03006D8A0310692EF1FF0A8
:103FD00023C0D9FF24C0DAFFDF6A25C0D9FF26C07D
:103FE000DAFFDF6A12001E0E2C6E20EE01F0235065
:103FF000D9262450DA22DF6A20EE01F02550D92696
:104000002650DA22DF6A000E306E010E2F6E53EF5B
:1040100020F020EE09F02350D9262450DA22DF5078
:104020002F2423C0D9FF24C0DAFFDF6E20EE09F071
:104030002550D9262650DA22DF502F2425C0D9FF5B
:1040400026C0DAFFDF6E23C01DF024C01EF0ABECEB
:1040500024F025C01DF026C01EF0ABEC24F0000EAD
:104060002E6E000E2D6E3FEF20F0680E296EE40ECE
:10407000E82EFED7292EFCD700D02D4A2E2A285014
:10408000296E2A6A29502D5C2E50800A2B6E2A50E8
:10409000800A2B58D8A04FEF20F051EF20F035EFD9
:1040A00020F02F4A302A2750296E2A6A2F50295C87
:1040B0002A50800A2B6E3050800A2B58D8B063EFFC
:1040C00020F065EF20F009EF20F0000E2E6E000EBC
:1040D0002D6E75EF20F0680E296EE40EE82EFED7E7
:1040E000292EFCD700D02D4A2E2A2C50296E2A6A60
:1040F00029502D5C2E50800A2B6E2A50800A2B5896
:10410000D8A085EF20F087EF20F06BEF20F027C0DC
:104110002FF0306A30BE91EF20F08FEF20F093EF58
:1041200020F0E0EF20F020EE09F02350D9262450B3
:10413000DA22DF502F2423C0D9FF24C0DAFFDF6E3C
:1041400020EE09F02550D9262650DA22DF502F2400
:1041500025C0D9FF26C0DAFFDF6E23C01DF024C0C2
:104160001EF0ABEC24F025C01DF026C01EF0ABEC19
:1041700024F0000E2E6E000E2D6EC9EF20F0680E9A
:10418000296EE40EE82EFED7292EFCD700D02D4A4A
:104190002E2A2850296E2A6A29502D5C2E50800A1A
:1041A0002B6E2A50800A2B58D8A0D9EF20F0DBEFD5
:1041B00020F0BFEF20F02F06D8A030068AEF20F0C5
:1041C00023C0D9FF24C0DAFFDF6A25C0D9FF26C08B
:1041D000DAFFDF6A1200FDEC2AF0520EE7EC2AF05B
:1041E000B60EE7EC2AF002EC2BF0530EE7EC2AF0C7
:1041F000010E7BEC29F0166E176A14C0D9FF15C0AA
:10420000DAFF16C0DEFF17C0DDFF14C0D9FF15C0EE
:10421000DAFFDECF16F0DDCF17F0000E7BEC29F0D1
:10422000186E18501A6E196A165019101B6E175016
:104230001A101C6E14C0D9FF15C0DAFF1BC0DEFFB8
:104240001CC0DDFFF8EC2AF0FDEC2AF0520EE7EC82
:104250002AF0B80EE7EC2AF002EC2BF0530EE7EC54
:104260002AF0010E7BEC29F0166E176A20EE02F0A0
:104270001450D9261550DA2216C0DEFF17C0DDFF14
:1042800020EE02F01450D9261550DA22DECF16F0B7
:10429000DDCF17F0000E7BEC29F0186E18501A6E67
:1042A000196A165019101B6E17501A101C6E20EE4A
:1042B00002F01450D9261550DA221BC0DEFF1CC0B4
:1042C000DDFFF8EC2AF0FDEC2AF0520EE7EC2AF0C4
:1042D000BA0EE7EC2AF002EC2BF0530EE7EC2AF0D2
:1042E000010E7BEC29F0166E176A20EE04F01450D4
:1042F000D9261550DA2216C0DEFF17C0DDFF20EEEA
:1043000004F01450D9261550DA22DECF16F0DDCF96
:1043100017F0000E7BEC29F0186E18501A6E196A0F
:10432000165019101B6E17501A101C6E20EE04F058
:104330001450D9261550DA221BC0DEFF1CC0DDFF49
:10434000F8EC2AF0FDEC2AF0520EE7EC2AF0B40E5D
:10435000E7EC2AF002EC2BF0530EE7EC2AF0010E0A
:104360007BEC29F0166E176A20EE06F01450D92661
:104370001550DA2216C0DEFF17C0DDFF20EE06F072
:104380001450D9261550DA22DECF16F0DDCF17F003
:10439000000E7BEC29F0186E18501A6E196A165030
:1043A00019101B6E17501A101C6E20EE06F01450D8
:1043B000D9261550DA221BC0DEFF1CC0DDFFF8EC49
:1043C0002AF0120020EE01F02350D9262450DA22E0
:1043D000DF6A20EE01F02550D9262650DA22DF6A66
:1043E000000E316E010E306E40EF22F020EE09F02B
:1043F0002350D9262450DA22DF50302423C0D9FF9D
:1044000024C0DAFFDF6E20EE09F02550D9262650B1
:10441000DA22DF50302425C0D9FF26C0DAFFDF6E54
:1044200023C01DF024C01EF0ABEC24F025C01DF00D
:1044300026C01EF0ABEC24F0000E2F6E000E2E6E88
:104440002CEF22F0680E2B6EE40EE82EFED72B2EFA
:10445000FCD700D02E4A2F2A2A502B6E2C6A2B50C4
:104460002E5C2F50800A2D6E2C50800A2D58D8A01B
:104470003CEF22F03EEF22F022EF22F0304A312AC8
:1044800027502B6E2C6A30502B5C2C50800A2D6EDE
:104490003150800A2D58D8B050EF22F052EF22F060
:1044A000F6EF21F0000E2F6E000E2E6E62EF22F05E
:1044B000680E2B6EE40EE82EFED72B2EFCD700D014
:1044C0002E4A2F2A28502E5C29502F58D8A06BEF47
:1044D00022F06DEF22F058EF22F027C030F0316A61
:1044E00031BE77EF22F075EF22F079EF22F0C6EFC0
:1044F00022F020EE09F02350D9262450DA22DF5092
:10450000302423C0D9FF24C0DAFFDF6E20EE09F08B
:104510002550D9262650DA22DF50302425C0D9FF75
:1045200026C0DAFFDF6E23C01DF024C01EF0ABEC06
:1045300024F025C01DF026C01EF0ABEC24F0000EC8
:104540002F6E000E2E6EAFEF22F0680E2B6EE40E73
:10455000E82EFED72B2EFCD700D02E4A2F2A2A5029
:104560002B6E2C6A2B502E5C2F50800A2D6E2C50F7
:10457000800A2D58D8A0BFEF22F0C1EF22F0A5EF9E
:1045800022F03006D8A0310670EF22F023C0D9FF08
:1045900024C0DAFFDF6A25C0D9FF26C0DAFFDF6A50
:1045A000120020EE01F02350D9262450DA22010E09
:1045B000DF6E20EE01F02550D9262650DA22DF6A80
:1045C000000E306E010E2F6E30EF23F020EE09F05A
:1045D0002350D9262450DA22DF502F2423C0D9FFBC
:1045E00024C0DAFFDF6E20EE09F02550D9262650D0
:1045F000DA22DF502F2425C0D9FF26C0DAFFDF6E74
:1046000023C01DF024C01EF0ABEC24F025C01DF02B
:1046100026C01EF0ABEC24F0000E2E6E000E2D6EA8
:104620001CEF23F0680E2A6EE40EE82EFED72A2E29
:10463000FCD700D02D4A2E2A29502A6E2B6A2A50E8
:104640002D5C2E50800A2C6E2B50800A2C58D8A03E
:104650002CEF23F02EEF23F012EF23F02F4A302A15
:1046600027502A6E2B6A2F502A5C2B50800A2C6E02
:104670003050800A2C58D8B040EF23F042EF23F09E
:10468000E6EF22F0000E2E6E000E2D6E52EF23F09C
:10469000680E2A6EE40EE82EFED72A2EFCD700D034
:1046A0002D4A2E2A28502A6E2B6A2A502D5C2E5015
:1046B000800A2C6E2B50800A2C58D8A062EF23F071
:1046C00064EF23F048EF23F027C02FF0306A30BEAC
:1046D0006EEF23F06CEF23F070EF23F0BDEF23F0CB
:1046E00020EE09F02350D9262450DA22DF502F245F
:1046F00023C0D9FF24C0DAFFDF6E20EE09F0255079
:10470000D9262650DA22DF502F2425C0D9FF26C013
:10471000DAFFDF6E23C01DF024C01EF0ABEC24F0E6
:1047200025C01DF026C01EF0ABEC24F0000E2E6E4E
:10473000000E2D6EA6EF23F0680E2A6EE40EE82E12
:10474000FED72A2EFCD700D02D4A2E2A29502A6EB9
:104750002B6A2A502D5C2E50800A2C6E2B50800A1A
:104760002C58D8A0B6EF23F0B8EF23F09CEF23F03D
:104770002F06D8A0300667EF23F0120020EE01F0DC
:104780002350D9262450DA22DF6A20EE01F025508A
:10479000D9262650DA22010EDF6E000E306E010E91
:1047A0002F6E1DEF24F020EE09F02350D92624505F
:1047B000DA22DF502F2423C0D9FF24C0DAFFDF6EB6
:1047C00020EE09F02550D9262650DA22DF502F247A
:1047D00025C0D9FF26C0DAFFDF6E23C01DF024C03C
:1047E0001EF0ABEC24F025C01DF026C01EF0ABEC93
:1047F00024F0000E2E6E000E2D6E09EF24F0680ED0
:104800002A6EE40EE82EFED72A2EFCD700D02D4AC1
:104810002E2A29502A6E2B6A2A502D5C2E50800A8F
:104820002C6E2B50800A2C58D8A019EF24F01BEFC7
:1048300024F0FFEF23F02F4A302A27502A6E2B6AEC
:104840002F502A5C2B50800A2C6E3050800A2C5836
:10485000D8B02DEF24F02FEF24F0D3EF23F0000E8B
:104860002E6E000E2D6E3FEF24F0680E2A6EE40EC1
:10487000E82EFED72A2EFCD700D02D4A2E2A28500B
:104880002A6E2B6A2A502D5C2E50800A2C6E2B50DB
:10489000800A2C58D8A04FEF24F051EF24F035EFC8
:1048A00024F027C02FF0306A30BE5BEF24F059EFC0
:1048B00024F05DEF24F0AAEF24F020EE09F023505D
:1048C000D9262450DA22DF502F2423C0D9FF24C058
:1048D000DAFFDF6E20EE09F02550D9262650DA22C5
:1048E000DF502F2425C0D9FF26C0DAFFDF6E23C09A
:1048F0001DF024C01EF0ABEC24F025C01DF026C036
:104900001EF0ABEC24F0000E2E6E000E2D6E93EF19
:1049100024F0680E2A6EE40EE82EFED72A2EFCD76D
:1049200000D02D4A2E2A29502A6E2B6A2A502D5C3F
:104930002E50800A2C6E2B50800A2C58D8A0A3EF42
:1049400024F0A5EF24F089EF24F02F06D8A030063C
:1049500054EF24F0120020EE02F01D50D9261E5014
:10496000DA22DF50D8B4B7EF24F0B9EF24F0EDEF3E
:1049700024F01DC0D9FF1EC0DAFFDF501F6E1F508C
:10498000106E116A20EE03F01D50D9261E50DA2257
:10499000DECF12F0DDCF13F050EC2AF010C016F08D
:1049A00011C017F0000E196E640E186E80EC28F01E
:1049B00020EE03F01D50D9261E50DA22DF50206E63
:1049C0001650205C216E20EE03F01D50D9261E509B
:1049D000DA22DF50226E10EF25F0000E216E1DC08E
:1049E000D9FF1EC0DAFFDF501F6E1F50106E116A14
:1049F00020EE03F01D50D9261E50DA22DECF12F031
:104A0000DDCF13F050EC2AF010C016F011C017F0F3
:104A1000000E196E640E186E80EC28F01650226E8F
:104A200020EE01F01D50D9261E50DA22DF50D8B4F6
:104A30001CEF25F01EEF25F040EF25F020EE05F0ED
:104A40001D50D9261E50DA22DECF1FF0DDCF20F018
:104A50001FC0D9FF20C0DAFF21C0DFFF20EE07F022
:104A60001D50D9261E50DA22DECF1FF0DDCF20F0F8
:104A70001FC0D9FF20C0DAFF22C0DFFF60EF25F0A2
:104A800020EE05F01D50D9261E50DA22DECF1FF091
:104A9000DDCF20F01FC0D9FF20C0DAFF22C0DFFF2A
:104AA00020EE07F01D50D9261E50DA22DECF1FF06F
:104AB000DDCF20F01FC0D9FF20C0DAFF21C0DFFF0B
:104AC0001200000E256E23BE6AEF25F068EF25F078
:104AD00074EF25F0231E221E211E206C000E2122C1
:104AE00022222322010E256E1FBE7BEF25F079EFD7
:104AF00025F085EF25F01F1E1E1E1D1E1C6C000ECE
:104B00001D221E221F22010E251A000E266E000EE7
:104B1000276E000E286E000E296E205021102210E4
:104B20002310D8B496EF25F098EF25F0CEEF25F0BE
:104B3000010E246EA2EF25F0D890203621362236C1
:104B40002336242A23AEA7EF25F0A9EF25F09CEF0A
:104B500025F0D890263627362836293620501C5C7A
:104B600021501D5822501E5823501F58D8A0BBEF6B
:104B700025F0BDEF25F0C6EF25F020501C5E21503A
:104B80001D5A22501E5A23501F5A2680D890233275
:104B9000223221322032242EA9EF25F02550D8B41C
:104BA000D4EF25F0D6EF25F0DEEF25F0291E281EE4
:104BB000271E266C000E27222822292226C01CF040
:104BC00027C01DF028C01EF029C01FF0120020EEE3
:104BD00001F02350D9262450DA22010EDF6E20EE98
:104BE00001F02550D9262650DA22010EDF6E23C0AF
:104BF000D9FF24C0DAFFDF50286E20EE09F02350E1
:104C0000D9262450DA22DF50296E2950285C2D6ED7
:104C10002E6AD8A02E062EBE12EF26F010EF26F038
:104C200014EF26F060EF26F020EE09F02350D9268D
:104C30002450DA22DF502D2423C0D9FF24C0DAFF0C
:104C4000DF6E20EE09F02550D9262650DA22DF50FB
:104C50002D2425C0D9FF26C0DAFFDF6E23C01DF04A
:104C600024C01EF0ABEC24F025C01DF026C01EF0C1
:104C7000ABEC24F0000E2C6E000E2B6E49EF26F0EC
:104C8000D00E286ECA0EE82EFED7282EFCD72B4A4F
:104C90002C2A2750286E296A28502B5C2C50800A19
:104CA0002A6E2950800A2A58D8A059EF26F05BEFC7
:104CB00026F040EF26F02D06D8A02E060BEF26F0AA
:104CC00023C0D9FF24C0DAFFDF6A25C0D9FF26C080
:104CD000DAFFDF6A120020EE01F02350D9262450BB
:104CE000DA22010EDF6E20EE01F02550D926265083
:104CF000DA22010EDF6E000E2F6E010E2E6ECBEF4C
:104D000026F020EE09F02350D9262450DA22DF5075
:104D10002E2423C0D9FF24C0DAFFDF6E20EE09F075
:104D20002550D9262650DA22DF502E2425C0D9FF5F
:104D300026C0DAFFDF6E23C01DF024C01EF0ABECEE
:104D400024F025C01DF026C01EF0ABEC24F0000EB0
:104D50002D6E000E2C6EB7EF26F0680E296EE40E55
:104D6000E82EFED7292EFCD700D02C4A2D2A285019
:104D7000296E2A6A29502C5C2D50800A2B6E2A50ED
:104D8000800A2B58D8A0C7EF26F0C9EF26F0ADEF68
:104D900026F02E4A2F2A2750296E2A6A2E50295C87
:104DA0002A50800A2B6E2F50800A2B58D8B0DBEF88
:104DB00026F0DDEF26F081EF26F01200000E156ED2
:104DC00013BEE7EF26F0E5EF26F0EDEF26F0126CCC
:104DD000131ED8B0132A010E156E11BEF4EF26F083
:104DE000F2EF26F0FAEF26F0106C111ED8B0112A5F
:104DF000010E151A000E176E000E166E12501310CB
:104E0000D8B405EF27F007EF27F02FEF27F0010EBA
:104E1000146E0FEF27F0D89012361336142A13AE03
:104E200014EF27F016EF27F00BEF27F0D890163687
:104E300017361250105C13501158D8A022EF27F0EB
:104E400024EF27F029EF27F01250105E1350115A6B
:104E50001680D89013321232142E16EF27F0155008
:104E6000D8B435EF27F037EF27F03BEF27F0166C7B
:104E7000171ED8B0172A16C010F017C011F0120074
:104E8000FDEC2AF0520EE7EC2AF0E60EE7EC2AF0F1
:104E9000F8EC2AF0FAC016F0FBC017F0000E196EFD
:104EA000030E186E80EC28F00001FA5116241E6ED5
:104EB000FB5117201F6EFAC016F0FBC017F0000E52
:104EC000196E140E186E80EC28F016500001FA5D71
:104ED000206E1750FB59216E130E126E000E86ECD9
:104EE0002AF03F0E1D6E550EE82EFED71D2EFCD764
:104EF00000001F50126E070E86EC2AF01EC012F042
:104F0000060E86EC2AF02150126E050E86EC2AF071
:104F100020C012F0040E86EC2AF0030E126E0C0E66
:104F200086EC2AF012000CEC2BF0520EEDEC2AF07D
:104F3000E60EEDEC2AF007EC2BF0FAC001F0FBC016
:104F400002F0000E046E030E036EBAEC28F00001AE
:104F5000FA510124096EFB5102200A6EFAC001F0D9
:104F6000FBC002F0000E046E140E036EBAEC28F0C3
:104F700001500001FA5D0B6E0250FB590C6E130ECE
:104F8000036E000EA6EC2AF03F0E086E550EE82EBA
:104F9000FED7082EFCD700000A50036E070EA6ECC1
:104FA0002AF009C003F0060EA6EC2AF00C50036E9E
:104FB000050EA6EC2AF00BC003F0040EA6EC2AF0B6
:104FC000030E036E0C0EA6EC2AF01200000E246EE7
:104FD000000E256E000E266E000E276E205021104A
:104FE00022102310D8B4F7EF27F0F9EF27F02FEFB6
:104FF00028F0010E286E03EF28F0D89020362136D5
:1050000022362336282A23AE08EF28F00AEF28F0AC
:10501000FDEF27F0D8902436253626362736205047
:105020001C5C21501D5822501E5823501F58D8A0D8
:105030001CEF28F01EEF28F027EF28F020501C5E10
:1050400021501D5A22501E5A23501F5A2480D89096
:105050002332223221322032282E0AEF28F024C0B7
:105060001CF025C01DF026C01EF027C01FF0120046
:105070007D9485947D9885987B9E839E7F9C879C5C
:10508000050E0E01746F060E766F070E696F080E1F
:10509000886FBD508F0B3009BD6EE00EBE16BF503D
:1050A000F00B0109BF6E10C0BCFFBD8E000EAA6ED2
:1050B000000EA66E000E0F01256F000E216FFC0E74
:1050C000AD16F30EAD16CF0EAD163F0EAD16AB8876
:1050D000AB50F00B0C09AB6EAB8EA788A750F00B52
:1050E0000C09A76EA78E26892651F00B0C09266F96
:1050F000268F22892251F00B0C09226F228F120079
:10510000000E1B6E000E1A6E18501910D8B48BEFDB
:1051100028F08DEF28F0B5EF28F0010E1C6E95EF0A
:1051200028F0D890183619361C2A19AE9AEF28F0B4
:105130009CEF28F091EF28F0D8901A361B361850C3
:10514000165C19501758D8A0A8EF28F0AAEF28F03D
:10515000AFEF28F01850165E1950175A1A80D890E1
:10516000193218321C2E9CEF28F01AC016F01BC002
:1051700017F01200000E066E000E056E03500410AC
:10518000D8B4C5EF28F0C7EF28F0EFEF28F0010EF4
:10519000076ECFEF28F0D89003360436072A04AE06
:1051A000D4EF28F0D6EF28F0CBEF28F0D8900536D2
:1051B00006360350015C04500258D8A0E2EF28F0F4
:1051C000E4EF28F0E9EF28F00350015E0450025AA2
:1051D0000580D89004320332072ED6EF28F005C0A0
:1051E00001F006C002F01200000E186E000E196EDB
:1051F000000E1A6E000E1B6E10A001EF29F003EFD7
:1052000029F00BEF29F014501826155019221650CA
:105210001A2217501B22D890143615361636173618
:10522000D890133212321132103210501110121065
:105230001310D8A41EEF29F020EF29F0FCEF28F07E
:1052400018C010F019C011F01AC012F01BC013F0F2
:105250001200220EF66E560EF76E000EF86E00EE7D
:10526000F6F010EE06F00900F5CFEEFFE550E15044
:10527000FAE102EE00F08E0EEE6AE806FDE101EEC4
:10528000D8F0280EEE6AE806FDE100EEB8F03E0E1A
:10529000EE6AE806FDE14E6A4D6A4C6A4B6A4F9031
:1052A0004F920001FFEF14F0C5EC2AF0D2EC2AF087
:1052B000186E18C010F0116A000E136E180E126EE0
:1052C000DEEC26F01050196E19A269EF29F06BEF91
:1052D00029F06EEF29F07C8E6FEF29F07C9E19A0EB
:1052E00074EF29F076EF29F079EF29F080867AEFD4
:1052F00029F080961200126E28EC2AF00E01DA874F
:1053000028EC2AF0D5CE13F028EC2AF01250D8B4AD
:105310008CEF29F090EF29F0116A112A91EF29F012
:10532000116A113A11460E01DA511118DF0B1118EA
:10533000DA6FDA8913501200FFEC29F0010E126EB9
:10534000000E86EC2AF03F0E226E550EE82EFED798
:10535000222EFCD70000030E126E000E86EC2AF0FF
:10536000D50E126E010E86EC2AF040EC27F01200EA
:105370007C9E849E8096889686840E01B49586864F
:10538000B497809288927C9884987C968496A7970C
:10539000809088907E9086907F9087907D9E859E5D
:1053A0007996819612001250105C13501158D8B0A3
:1053B000DCEF29F0DEEF29F0E4EF29F010C010F067
:1053C00011C011F0E8EF29F012C010F013C011F075
:1053D00012001050125C11501358D8B0F2EF29F09F
:1053E000F4EF29F0FAEF29F010C010F011C011F01D
:1053F000FEEF29F012C010F013C011F012000E01E0
:10540000D951F00B0809D96FD98B9F0ED66F848ABA
:10541000848CA79BA79D1D0E1D6F1E0E1C6F1C0E5E
:105420006F6F1B0E706F1200D3CF14F0156AD4CFBC
:1054300016F0176A1650136E126A14501210186E76
:1054400015501310196E18C010F019C011F0120089
:105450000E01D8B52EEF2AF030EF2AF028EF2AF00F
:10546000DACE10F01F0E1016D8A439EF2AF03BEF59
:105470002AF028EF2AF012000E01D8B542EF2AF0E8
:1054800044EF2AF03CEF2AF0DACE01F01F0E0116AD
:10549000D8A44DEF2AF04FEF2AF03CEF2AF012008B
:1054A00010501202F3CF14F0F4CF15F01050130285
:1054B000F350152611501202F350152614C010F0A7
:1054C00015C011F01200106E1050D8B46AEF2AF017
:1054D0006CEF2AF071EF2AF07F807D8E798674EF71
:1054E0002AF07F907D9E799612000E0133A17BEF0A
:1054F0002AF07DEF2AF084EF2AF0010E0001F56F0B
:1055000093EC27F00E0133914F921100136EFDECD6
:105510002AF0520EE7EC2AF013508009E7EC2AF04B
:105520001250E7EC2AF0F8EC2AF01200D6501F0BCC
:105530004009D66ED688D650F00B0C09D66ED588A9
:10554000000ED46E000ED36ED58E1200046E0CECDD
:105550002BF0520EEDEC2AF004508009EDEC2AF00D
:105560000350EDEC2AF007EC2BF01200120E0E01A6
:10557000626F110E156FE997E895330EE56F000E17
:10558000E66FE789E88BE78F1200868C0E01B48DF9
:105590000F015899FC0E58172E0E5F6F60946088AB
:1055A000608E1200608060B0D8EF2AF0DAEF2AF047
:1055B000D3EF2AF064CF10F01050120082800E0159
:1055C0009A9129811F81F290F28CF28E1200116E55
:1055D00028EC2AF011C0D5FE1200026E3CEC2AF035
:1055E00002C0D5FE1200000ED46E000ED36E120063
:1055F00028EC2AF00E01DA85120028EC2AF00E01C0
:10560000DA81120028EC2AF00E01DA8312003CEC59
:105610002AF00E01DA8512003CEC2AF00E01DA8144
:08562000120004040101F40171
:020000040030CA
:02000000AAFF55
:020004009FFF5C
:00000001FF
