:040000002CEF00F0F1
:060008004F8230EF29F0E9
:100018004F80D8CF0DF0E8CF0EF0E0CF0FF00E01F3
:1000280033AB19EF00F01BEF00F024EF00F0010EE6
:100038000001F46F000ED46E000ED36E0E01339BD8
:100048000FC0E0FF0EC0E8FF0DC0D8FF4F901000B2
:04005800E4EF27F0BA
:100E0000000000016405D8A408EF07F00AEF07F01E
:100E10006CEF07F060C023F061C024F062C025F0E1
:100E200063C026F06AC027F06DC028F0AEEC1EF05B
:100E3000050E4A6E0F0E496EF10EE82EFED7492EB2
:100E4000FCD74A2EFAD7000060C023F061C024F01E
:100E500062C025F063C026F06EC027F06FC028F096
:100E600070C029F08CEC21F0050E4A6E0F0E496E11
:100E7000F10EE82EFED7492EFCD74A2EFAD70000F5
:100E800060C023F061C024F062C025F063C026F08A
:100E90006EC027F06FC028F070C029F08CEC21F0F4
:100EA000050E4A6E0F0E496EF10EE82EFED7492E42
:100EB000FCD74A2EFAD7000060C023F061C024F0AE
:100EC00062C025F063C026F06AC027F06DC028F02C
:100ED00026EC25F01DEF0BF0020E6419D8A473EF79
:100EE00007F075EF07F0D7EF07F060C023F061C09F
:100EF00024F062C025F063C026F06AC027F06DC000
:100F000028F0AEEC1EF0050E4A6E0F0E496EF10E83
:100F1000E82EFED7492EFCD74A2EFAD7000060C033
:100F200023F061C024F062C025F063C026F06EC0DB
:100F300027F06FC028F070C029F079EC22F0050E80
:100F40004A6E0F0E496EF10EE82EFED7492EFCD7E1
:100F50004A2EFAD7000060C023F061C024F062C0BE
:100F600025F063C026F06EC027F06FC028F070C077
:100F700029F079EC22F0050E4A6E0F0E496EF10E43
:100F8000E82EFED7492EFCD74A2EFAD7000060C0C3
:100F900023F061C024F062C025F063C026F06AC06F
:100FA00027F06DC028F026EC25F01DEF0BF0030EA6
:100FB0006419D8A4DEEF07F0E0EF07F07AEF08F04D
:100FC00060C023F061C024F062C025F063C026F049
:100FD0006AC027F06DC028F0AEEC1EF0050E4A6E18
:100FE0000F0E496EF10EE82EFED7492EFCD74A2E81
:100FF000FAD7000060C023F061C024F062C025F081
:1010000063C026F06EC027F06FC028F070C029F0D2
:1010100079EC22F0050E4A6E0F0E496EF10EE82EA5
:10102000FED7492EFCD74A2EFAD7000060C023F025
:1010300061C024F062C025F063C026F06EC027F0C6
:101040006FC028F070C029F079EC22F0050E4A6ECE
:101050000F0E496EF10EE82EFED7492EFCD74A2E10
:10106000FAD7000060C023F061C024F062C025F010
:1010700063C026F06EC027F06FC028F070C029F062
:1010800079EC22F0050E4A6E0F0E496EF10EE82E35
:10109000FED7492EFCD74A2EFAD7000060C023F0B5
:1010A00061C024F062C025F063C026F06EC027F056
:1010B0006FC028F070C029F079EC22F0050E4A6E5E
:1010C0000F0E496EF10EE82EFED7492EFCD74A2EA0
:1010D000FAD7000060C023F061C024F062C025F0A0
:1010E00063C026F06AC027F06DC028F026EC25F01A
:1010F0001DEF0BF0040E6419D8A481EF08F083EF04
:1011000008F003EF09F060C023F061C024F062C072
:1011100025F063C026F06AC027F06DC028F0AEEC61
:101120001EF0050E4A6E0F0E496EF10EE82EFED728
:10113000492EFCD74A2EFAD7000060C023F061C0C8
:1011400024F062C025F063C026F06AC027F06BC0AF
:1011500028F06CC029F06DC02AF09DEC20F0050E3F
:101160004A6E0F0E496EF10EE82EFED7492EFCD7BF
:101170004A2EFAD7000060C023F061C024F062C09C
:1011800025F063C026F06EC027F06FC028F070C055
:1011900029F08CEC21F0050E4A6E0F0E496EF10E0F
:1011A000E82EFED7492EFCD74A2EFAD7000060C0A1
:1011B00023F061C024F062C025F063C026F06EC049
:1011C00027F06FC028F070C029F08CEC21F0050EDC
:1011D0004A6E0F0E496EF10EE82EFED7492EFCD74F
:1011E0004A2EFAD7000060C023F061C024F062C02C
:1011F00025F063C026F06AC027F06DC028F026EC09
:1012000025F01DEF0BF0050E6419D8A40AEF09F0C4
:101210000CEF09F08CEF09F060C023F061C024F0FE
:1012200062C025F063C026F06AC027F06DC028F0C8
:10123000AEEC1EF0050E4A6E0F0E496EF10EE82E52
:10124000FED7492EFCD74A2EFAD7000060C023F003
:1012500061C024F062C025F063C026F06AC027F0A8
:101260006BC028F06CC029F06DC02AF09DEC20F016
:10127000050E4A6E0F0E496EF10EE82EFED7492E6E
:10128000FCD74A2EFAD7000060C023F061C024F0DA
:1012900062C025F063C026F06EC027F06FC028F052
:1012A00070C029F079EC22F0050E4A6E0F0E496EDF
:1012B000F10EE82EFED7492EFCD74A2EFAD70000B1
:1012C00060C023F061C024F062C025F063C026F046
:1012D0006EC027F06FC028F070C029F079EC22F0C2
:1012E000050E4A6E0F0E496EF10EE82EFED7492EFE
:1012F000FCD74A2EFAD7000060C023F061C024F06A
:1013000062C025F063C026F06AC027F06DC028F0E7
:1013100026EC25F01DEF0BF0060E6419D8A493EF10
:1013200009F095EF09F013EF0AF060C023F061C0F7
:1013300024F062C025F063C026F06AC027F06DC0BB
:1013400028F0AEEC1EF0050E4A6E0F0E496EF10E3F
:10135000E82EFED7492EFCD74A2EFAD7000060C0EF
:1013600023F061C024F062C025F063C026F06EC097
:1013700027F06FC028F070C029F08CEC21F0050E2A
:101380004A6E0F0E496EF10EE82EFED7492EFCD79D
:101390004A2EFAD7000060C023F061C024F062C07A
:1013A00025F063C026F06EC027F06FC028F070C033
:1013B00029F08CEC21F0050E4A6E0F0E496EF10EED
:1013C000E82EFED7492EFCD74A2EFAD7000060C07F
:1013D00023F061C024F062C025F063C026F06EC027
:1013E00027F06FC028F070C029F08CEC21F0050EBA
:1013F0004A6E0F0E496EF10EE82EFED7492EFCD72D
:101400004A2EFAD7000060C023F061C024F062C009
:1014100025F063C026F06AC027F06DC028F026ECE6
:1014200025F01DEF0BF0070E6419D8A41AEF0AF08F
:101430001CEF0AF09AEF0AF060C023F061C024F0BC
:1014400062C025F063C026F06AC027F06DC028F0A6
:10145000AEEC1EF0050E4A6E0F0E496EF10EE82E30
:10146000FED7492EFCD74A2EFAD7000060C023F0E1
:1014700061C024F062C025F063C026F06EC027F082
:101480006FC028F070C029F079EC22F0050E4A6E8A
:101490000F0E496EF10EE82EFED7492EFCD74A2ECC
:1014A000FAD7000060C023F061C024F062C025F0CC
:1014B00063C026F06EC027F06FC028F070C029F01E
:1014C00079EC22F0050E4A6E0F0E496EF10EE82EF1
:1014D000FED7492EFCD74A2EFAD7000060C023F071
:1014E00061C024F062C025F063C026F06EC027F012
:1014F0006FC028F070C029F079EC22F0050E4A6E1A
:101500000F0E496EF10EE82EFED7492EFCD74A2E5B
:10151000FAD7000060C023F061C024F062C025F05B
:1015200063C026F06AC027F06DC028F026EC25F0D5
:101530001DEF0BF0080E6419D8A4A1EF0AF0A3EF79
:101540000AF0E1EF0AF060C023F061C024F062C04D
:1015500025F063C026F06AC027F06DC028F0AEEC1D
:101560001EF0050E4A6E0F0E496EF10EE82EFED7E4
:10157000492EFCD74A2EFAD7000060C032F061C075
:1015800033F062C034F063C035F065C036F066C039
:1015900037F067C038F068C039F069C03AF06AC007
:1015A0003BF06BC03CF06CC03DF06DC03EF06EC0D7
:1015B0003FF06FC040F070C041F01EEC0BF01DEF2B
:1015C0000BF060C023F061C024F062C025F063C05E
:1015D00026F06AC027F06DC028F0AEEC1EF0050EB4
:1015E0004A6E0F0E496EF10EE82EFED7492EFCD73B
:1015F0004A2EFAD7000060C032F061C033F062C0FA
:1016000034F063C035F065C036F066C037F067C0AF
:1016100038F068C039F069C03AF06AC03BF06BC07E
:101620003CF06CC03DF06DC03EF06EC03FF06FC04E
:1016300040F070C041F01EEC0BF0120032C023F0FD
:1016400033C024F034C025F035C026F03FC027F069
:1016500040C028F041C029F079EC22F0050E436E1D
:101660000F0E426EF10EE82EFED7422EFCD7432E0F
:10167000FAD7000032C023F033C024F034C025F084
:1016800035C026F03FC027F040C028F041C029F007
:1016900079EC22F0050E436E0F0E426EF10EE82E2D
:1016A000FED7422EFCD7432EFAD7000032C023F0DB
:1016B00033C024F034C025F035C026F03FC027F0F9
:1016C00040C028F041C029F079EC22F0050E436EAD
:1016D0000F0E426EF10EE82EFED7422EFCD7432E9F
:1016E000FAD7000032C023F033C024F034C025F014
:1016F00035C026F03FC027F040C028F041C029F097
:1017000079EC22F0050E436E0F0E426EF10EE82EBC
:10171000FED7422EFCD7432EFAD7000032C023F06A
:1017200033C024F034C025F035C026F03BC027F08C
:101730003EC028F026EC25F0AEEC29F03A50020D20
:10174000F3CF42F0F4CF43F042503824D96E4350E7
:101750003920DA6EDECF44F0DDCF45F0700E442440
:10176000466E170E4520476ECFEC28F04650105CB1
:1017700047501158D8A0BFEF0BF0C1EF0BF09EEF10
:101780000BF032C023F033C024F034C025F035C054
:1017900026F03EC027F0A2EC24F03AC048F08BEFD0
:1017A0000EF0480648503624D96E000E3720DA6E07
:1017B000DE04D8A4DEEF0BF0E0EF0BF01AEF0CF034
:1017C00032C023F033C024F034C025F035C026F0F9
:1017D0003FC027F040C028F041C029F079EC22F04A
:1017E000050E436E0F0E426EF10EE82EFED7422E0E
:1017F000FCD7432EFAD7000032C023F033C024F0C8
:1018000034C025F035C026F03FC027F040C028F096
:1018100041C029F079EC22F0050E436E0F0E426EA6
:10182000F10EE82EFED7422EFCD7432EFAD7000049
:101830004CEF0EF048503624D96E000E3720DA6E89
:10184000020EDE18D8A427EF0CF029EF0CF063EF9E
:101850000CF032C023F033C024F034C025F035C082
:1018600026F03FC027F040C028F041C029F08CECA2
:1018700021F0050E436E0F0E426EF10EE82EFED7DC
:10188000422EFCD7432EFAD7000032C023F033C0DB
:1018900024F034C025F035C026F03FC027F040C00A
:1018A00028F041C029F08CEC21F0050E436E0F0E9C
:1018B000426EF10EE82EFED7422EFCD7432EFAD709
:1018C00000004CEF0EF048503624D96E000E372041
:1018D000DA6E030EDE18D8A470EF0CF072EF0CF085
:1018E000E4EF0CF032C023F033C024F034C025F014
:1018F00035C026F03FC027F040C028F041C029F095
:1019000079EC22F0050E436E0F0E426EF10EE82EBA
:10191000FED7422EFCD7432EFAD7000032C023F068
:1019200033C024F034C025F035C026F03FC027F086
:1019300040C028F041C029F079EC22F0050E436E3A
:101940000F0E426EF10EE82EFED7422EFCD7432E2C
:10195000FAD7000032C023F033C024F034C025F0A1
:1019600035C026F03FC027F040C028F041C029F024
:1019700079EC22F0050E436E0F0E426EF10EE82E4A
:10198000FED7422EFCD7432EFAD7000032C023F0F8
:1019900033C024F034C025F035C026F03FC027F016
:1019A00040C028F041C029F079EC22F0050E436ECA
:1019B0000F0E426EF10EE82EFED7422EFCD7432EBC
:1019C000FAD700004CEF0EF048503624D96E000EC6
:1019D0003720DA6E040EDE18D8A4F1EF0CF0F3EF26
:1019E0000CF03FEF0DF032C023F033C024F034C0D0
:1019F00025F035C026F03FC027F040C028F041C098
:101A000029F079EC22F0050E436E0F0E426EF10EB6
:101A1000E82EFED7422EFCD7432EFAD7000032C064
:101A200023F033C024F034C025F035C026F03FC089
:101A300027F040C028F041C029F079EC22F0050ED3
:101A4000436E0F0E426EF10EE82EFED7422EFCD7EB
:101A5000432EFAD7000032C023F033C024F034C044
:101A600025F035C026F03BC027F03CC028F03DC033
:101A700029F03EC02AF09DEC20F0D6EF0CF0485043
:101A80003624D96E000E3720DA6E050EDE18D8A483
:101A90004CEF0DF04EEF0DF09AEF0DF032C023F049
:101AA00033C024F034C025F035C026F03FC027F005
:101AB00040C028F041C029F08CEC21F0050E436EA7
:101AC0000F0E426EF10EE82EFED7422EFCD7432EAB
:101AD000FAD7000032C023F033C024F034C025F020
:101AE00035C026F03FC027F040C028F041C029F0A3
:101AF0008CEC21F0050E436E0F0E426EF10EE82EB7
:101B0000FED7422EFCD7432EFAD7000032C023F076
:101B100033C024F034C025F035C026F03BC027F098
:101B20003CC028F03DC029F03EC02AF09DEC20F0DA
:101B3000D6EF0CF048503624D96E000E3720DA6EFE
:101B4000060EDE18D8A4A7EF0DF0A9EF0DF0F3EF05
:101B50000DF032C023F033C024F034C025F035C07E
:101B600026F03FC027F040C028F041C029F079ECB2
:101B700022F0050E436E0F0E426EF10EE82EFED7D8
:101B8000422EFCD7432EFAD7000032C023F033C0D8
:101B900024F034C025F035C026F03FC027F040C007
:101BA00028F041C029F079EC22F0050E436E0F0EAB
:101BB000426EF10EE82EFED7422EFCD7432EFAD706
:101BC000000032C023F033C024F034C025F035C00B
:101BD00026F03FC027F040C028F041C029F079EC42
:101BE00022F0D6EF0CF048503624D96E000E372084
:101BF000DA6E070EDE18D8A400EF0EF002EF0EF03A
:101C00004CEF0EF032C023F033C024F034C025F086
:101C100035C026F03FC027F040C028F041C029F071
:101C20008CEC21F0050E436E0F0E426EF10EE82E85
:101C3000FED7422EFCD7432EFAD7000032C023F045
:101C400033C024F034C025F035C026F03FC027F063
:101C500040C028F041C029F08CEC21F0050E436E05
:101C60000F0E426EF10EE82EFED7422EFCD7432E09
:101C7000FAD7000032C023F033C024F034C025F07E
:101C800035C026F03FC027F040C028F041C029F001
:101C90008CEC21F0D6EF0CF032C023F033C024F0EE
:101CA00034C025F035C026F03BC027F03EC028F0F8
:101CB00026EC25F0AEEC29F04850020DF3CF42F0AF
:101CC000F4CF43F042503824D96E43503920DA6EB5
:101CD000DECF44F0DDCF45F0300E4424466EF80EE2
:101CE0004520476ECFEC28F04650105C4750115805
:101CF000D8A07DEF0EF07FEF0EF05CEF0EF032C05B
:101D000023F033C024F034C025F035C026F03EC0A7
:101D100027F0A2EC24F04850D8A491EF0EF093EFF6
:101D20000EF0D1EF0BF0120080867C8E32C023F0D3
:101D300033C024F034C025F035C026F03FC027F072
:101D400040C028F041C029F079EC22F0050E436E26
:101D50000F0E426EF10EE82EFED7422EFCD7432E18
:101D6000FAD7000032C023F033C024F034C025F08D
:101D700035C026F03FC027F040C028F041C029F010
:101D800079EC22F0050E436E0F0E426EF10EE82E36
:101D9000FED7422EFCD7432EFAD7000032C023F0E4
:101DA00033C024F034C025F035C026F03FC027F002
:101DB00040C028F041C029F079EC22F0050E436EB6
:101DC0000F0E426EF10EE82EFED7422EFCD7432EA8
:101DD000FAD7000032C023F033C024F034C025F01D
:101DE00035C026F03FC027F040C028F041C029F0A0
:101DF00079EC22F0050E436E0F0E426EF10EE82EC6
:101E0000FED7422EFCD7432EFAD7000032C023F073
:101E100033C024F034C025F035C026F03BC027F095
:101E20003EC028F026EC25F0AEEC29F0000E0001B3
:101E3000F46FF451D8B41FEF0FF021EF0FF019EF4A
:101E40000FF032C023F033C024F034C025F035C089
:101E500026F03EC027F0A2EC24F03AC046F0E1EFB5
:101E600011F0460646503624D96E000E3720DA6E41
:101E7000DE04D8A43EEF0FF040EF0FF07AEF0FF042
:101E800032C023F033C024F034C025F035C026F032
:101E90003FC027F040C028F041C029F079EC22F083
:101EA000050E436E0F0E426EF10EE82EFED7422E47
:101EB000FCD7432EFAD7000032C023F033C024F001
:101EC00034C025F035C026F03FC027F040C028F0D0
:101ED00041C029F079EC22F0050E436E0F0E426EE0
:101EE000F10EE82EFED7422EFCD7432EFAD7000083
:101EF000ACEF11F046503624D96E000E3720DA6E62
:101F0000020EDE18D8A487EF0FF089EF0FF0C3EFB1
:101F10000FF032C023F033C024F034C025F035C0B8
:101F200026F03FC027F040C028F041C029F08CECDB
:101F300021F0050E436E0F0E426EF10EE82EFED715
:101F4000422EFCD7432EFAD7000032C023F033C014
:101F500024F034C025F035C026F03FC027F040C043
:101F600028F041C029F08CEC21F0050E436E0F0ED5
:101F7000426EF10EE82EFED7422EFCD7432EFAD742
:101F80000000ACEF11F046503624D96E000E372019
:101F9000DA6E030EDE18D8A4D0EF0FF0D2EF0FF0F8
:101FA00044EF10F032C023F033C024F034C025F0E9
:101FB00035C026F03FC027F040C028F041C029F0CE
:101FC00079EC22F0050E436E0F0E426EF10EE82EF4
:101FD000FED7422EFCD7432EFAD7000032C023F0A2
:101FE00033C024F034C025F035C026F03FC027F0C0
:101FF00040C028F041C029F079EC22F0050E436E74
:102000000F0E426EF10EE82EFED7422EFCD7432E65
:10201000FAD7000032C023F033C024F034C025F0DA
:1020200035C026F03FC027F040C028F041C029F05D
:1020300079EC22F0050E436E0F0E426EF10EE82E83
:10204000FED7422EFCD7432EFAD7000032C023F031
:1020500033C024F034C025F035C026F03FC027F04F
:1020600040C028F041C029F079EC22F0050E436E03
:102070000F0E426EF10EE82EFED7422EFCD7432EF5
:10208000FAD70000ACEF11F046503624D96E000E9E
:102090003720DA6E040EDE18D8A451EF10F053EF9B
:1020A00010F09FEF10F032C023F033C024F034C0A2
:1020B00025F035C026F03FC027F040C028F041C0D1
:1020C00029F079EC22F0050E436E0F0E426EF10EF0
:1020D000E82EFED7422EFCD7432EFAD7000032C09E
:1020E00023F033C024F034C025F035C026F03FC0C3
:1020F00027F040C028F041C029F079EC22F0050E0D
:10210000436E0F0E426EF10EE82EFED7422EFCD724
:10211000432EFAD7000032C023F033C024F034C07D
:1021200025F035C026F03BC027F03CC028F03DC06C
:1021300029F03EC02AF09DEC20F036EF10F046501A
:102140003624D96E000E3720DA6E050EDE18D8A4BC
:10215000ACEF10F0AEEF10F0FAEF10F032C023F059
:1021600033C024F034C025F035C026F03FC027F03E
:1021700040C028F041C029F08CEC21F0050E436EE0
:102180000F0E426EF10EE82EFED7422EFCD7432EE4
:10219000FAD7000032C023F033C024F034C025F059
:1021A00035C026F03FC027F040C028F041C029F0DC
:1021B0008CEC21F0050E436E0F0E426EF10EE82EF0
:1021C000FED7422EFCD7432EFAD7000032C023F0B0
:1021D00033C024F034C025F035C026F03BC027F0D2
:1021E0003CC028F03DC029F03EC02AF09DEC20F014
:1021F00036EF10F046503624D96E000E3720DA6ED6
:10220000060EDE18D8A407EF11F009EF11F053EF16
:1022100011F032C023F033C024F034C025F035C0B3
:1022200026F03FC027F040C028F041C029F079ECEB
:1022300022F0050E436E0F0E426EF10EE82EFED711
:10224000422EFCD7432EFAD7000032C023F033C011
:1022500024F034C025F035C026F03FC027F040C040
:1022600028F041C029F079EC22F0050E436E0F0EE4
:10227000426EF10EE82EFED7422EFCD7432EFAD73F
:10228000000032C023F033C024F034C025F035C044
:1022900026F03FC027F040C028F041C029F079EC7B
:1022A00022F036EF10F046503624D96E000E37205B
:1022B000DA6E070EDE18D8A460EF11F062EF11F0AD
:1022C000ACEF11F032C023F033C024F034C025F05D
:1022D00035C026F03FC027F040C028F041C029F0AB
:1022E0008CEC21F0050E436E0F0E426EF10EE82EBF
:1022F000FED7422EFCD7432EFAD7000032C023F07F
:1023000033C024F034C025F035C026F03FC027F09C
:1023100040C028F041C029F08CEC21F0050E436E3E
:102320000F0E426EF10EE82EFED7422EFCD7432E42
:10233000FAD7000032C023F033C024F034C025F0B7
:1023400035C026F03FC027F040C028F041C029F03A
:102350008CEC21F036EF10F032C023F033C024F0C3
:1023600034C025F035C026F03BC027F03EC028F031
:1023700026EC25F0AEEC29F04650020DF3CF42F0EA
:10238000F4CF43F042503824D96E43503920DA6EEE
:10239000CFEC28F0DE50105CDE501158D8A0D3EFFF
:1023A00011F0D5EF11F0BCEF11F032C023F033C0C3
:1023B00024F034C025F035C026F03EC027F0A2EC52
:1023C00024F04650D8A4E7EF11F0E9EF11F031EF17
:1023D0000FF01200010E1EEC29F080867C8E8EB468
:1023E000F4EF11F0F6EF11F0EFEF11F080967C9E14
:1023F00076C014F077C015F0A6EC1FF076C0D9FFB8
:1024000077C0DAFF00EE2AF0070EDBCFEBFFE8061D
:10241000FCE278C032F079C033F036EC17F078C0C7
:10242000D9FF79C0DAFF7AC0E1FF7BC0E2FFDECFDF
:10243000E6FFDDCFE5FF000120EE02F07851D9265E
:102440007951DA2210EE02F07A51E1267B51E22234
:10245000DECFE6FFDDCFE5FF20EE04F07851D92690
:102460007951DA2210EE04F07A51E1267B51E22212
:10247000DECFE6FFDDCFE5FF290E416E960E406E02
:102480007F0EE82EFED7402EFCD7412EFAD7000053
:1024900080867C8E8EB44FEF12F051EF12F04AEF2F
:1024A00012F080967C9E76C014F077C015F0A6ECF2
:1024B0001FF076C0D9FF77C0DAFF00EE2AF0070ED2
:1024C000DBCFEBFFE806FCE278C032F079C033F0F6
:1024D00036EC17F078C0D9FF79C0DAFF7CC0E1FF95
:1024E0007DC0E2FFDECFE6FFDDCFE5FF000120EE9D
:1024F00002F07851D9267951DA2210EE02F07C519F
:10250000E1267D51E222DECFE6FFDDCFE5FF20EEC2
:1025100004F07851D9267951DA2210EE04F07C517A
:10252000E1267D51E222DECFE6FFDDCFE5FF290E79
:10253000416E960E406E7F0EE82EFED7402EFCD7E1
:10254000412EFAD7000080867C8E8EB4AAEF12F05E
:10255000ACEF12F0A5EF12F080967C9E76C014F0DE
:1025600077C015F0A6EC1FF076C0D9FF77C0DAFF70
:1025700000EE2AF0070EDBCFEBFFE806FCE278C0A6
:1025800032F079C033F036EC17F078C0D9FF79C05B
:10259000DAFF7EC0E1FF7FC0E2FFDECFE6FFDDCFE6
:1025A000E5FF000120EE02F07851D9267951DA22B8
:1025B00010EE02F07E51E1267F51E222DECFE6FFEF
:1025C000DDCFE5FF20EE04F07851D9267951DA22EB
:1025D00010EE04F07E51E1267F51E222DECFE6FFCD
:1025E000DDCFE5FF290E416E960E406E7F0EE82E80
:1025F000FED7402EFCD7412EFAD7000080867C8E75
:102600008EB405EF13F007EF13F000EF13F0809690
:102610007C9E76C014F077C015F0A6EC1FF076C053
:10262000D9FF77C0DAFF00EE2AF0070EDBCFEBFF11
:10263000E806FCE278C032F079C033F036EC17F0EF
:1026400078C0D9FF79C0DAFF80C0E1FF81C0E2FF26
:10265000DECFE6FFDDCFE5FF000120EE02F078518E
:10266000D9267951DA2210EE02F08051E12681510B
:10267000E222DECFE6FFDDCFE5FF20EE04F0785169
:10268000D9267951DA2210EE04F08051E1268151E9
:10269000E222DECFE6FFDDCFE5FF290E416E960E8A
:1026A000406E7F0EE82EFED7402EFCD7412EFAD783
:1026B000000080867C8E8EB460EF13F062EF13F022
:1026C0005BEF13F080967C9E76C014F077C015F017
:1026D000A6EC1FF076C0D9FF77C0DAFF00EE2AF033
:1026E000070EDBCFEBFFE806FCE278C032F079C0E2
:1026F00033F036EC17F078C0D9FF79C0DAFF82C02A
:10270000E1FF83C0E2FFDECFE6FFDDCFE5FF0001A2
:1027100020EE02F07851D9267951DA2210EE02F03B
:102720008251E1268351E222DECFE6FFDDCFE5FFD5
:1027300020EE04F07851D9267951DA2210EE04F017
:102740008251E1268351E222DECFE6FFDDCFE5FFB5
:10275000290E416E960E406E7F0EE82EFED7402E5B
:10276000FCD7412EFAD7000080867C8E8EB4BBEF5A
:1027700013F0BDEF13F0B6EF13F080967C9E76C099
:1027800014F077C015F0A6EC1FF076C0D9FF77C023
:10279000DAFF00EE2AF0070EDBCFEBFFE806FCE2E3
:1027A00078C032F079C033F036EC17F078C0D9FF3A
:1027B00079C0DAFF84C0E1FF85C0E2FFDECFE6FF2B
:1027C000DDCFE5FF000120EE02F07851D9267951E6
:1027D000DA2210EE02F08451E1268551E222DECFAA
:1027E000E6FFDDCFE5FF20EE04F07851D9267951E0
:1027F000DA2210EE04F08451E1268551E222DECF88
:10280000E6FFDDCFE5FF290E416E960E406E7F0E8E
:10281000E82EFED7402EFCD7412EFAD70000808646
:102820007C8E8EB416EF14F018EF14F011EF14F044
:1028300080967C9E76C014F077C015F0A6EC1FF051
:1028400076C0D9FF77C0DAFF00EE2AF0070EDBCFA3
:10285000EBFFE806FCE278C032F079C033F036ECEA
:1028600017F078C0D9FF79C0DAFF86C0E1FF87C0D2
:10287000E2FFDECFE6FFDDCFE5FF000120EE02F054
:102880007851D9267951DA2210EE02F08651E126EC
:102890008751E222DECFE6FFDDCFE5FF20EE04F038
:1028A0007851D9267951DA2210EE04F08651E126CA
:1028B0008751E222DECFE6FFDDCFE5FF290E416E34
:1028C000960E406E7F0EE82EFED7402EFCD7412E8E
:1028D000FAD7000080867C8E8EB471EF14F073EF0F
:1028E00014F06CEF14F080967C9E76C014F077C0E4
:1028F00015F0A6EC1FF076C0D9FF77C0DAFF00EE26
:102900002AF0070EDBCFEBFFE806FCE278C032F0DE
:1029100079C033F036EC17F078C0D9FF79C0DAFF10
:1029200088C0E1FF89C0E2FFDECFE6FFDDCFE5FF33
:10293000000120EE02F07851D9267951DA2210EE0A
:1029400002F08851E1268951E222DECFE6FFDDCF99
:10295000E5FF20EE04F07851D9267951DA2210EE05
:1029600004F08851E1268951E222DECFE6FFDDCF77
:10297000E5FF290E416E960E406E7F0EE82EFED7C3
:10298000402EFCD7412EFAD7000080867C8E1200A4
:1029900020EE8CF0270EDE6AE806FDE2000E010153
:1029A0007A6F000EB26F21EE52F0270EDE6AE80653
:1029B000FDE221EE00F0510EDE6AE806FDE2000EB7
:1029C000B36FF6C0B4F0F7C0B5F0F8C0B6F0F9C018
:1029D000B7F073EC28F057EC28F071EC29F0000EFA
:1029E000116EC70E106EF3EC26F0000E0101CE6FD3
:1029F000010ECF6F010ED06FAA0ED36F0F0ED46FE2
:102A0000A60ED56F0F0ED66F000ED26FC70ED16F08
:102A1000010ED76F000EC46F010EC56F010EC66F99
:102A2000250EC96F0F0ECA6F210ECB6F0F0ECC6F24
:102A3000000EC86FC70EC76F000ECD6F140EB16FBA
:102A4000020EB46F030E7E6F200E7D6F280EAF6FE7
:102A50000A0EB56F010EB06F0FEC28F08EB433EF95
:102A600015F035EF15F02EEF15F080967C9E7C86E4
:102A70008082290E00018B6F960E8A6F7F0EE82EE2
:102A8000FED78A2FFCD78B2FFAD7BC0E0001766FAA
:102A9000010E776FB60E786F010E796F7F0E7A6F29
:102AA000010E7B6F850E7C6F010E7D6F8B0E7E6F2E
:102AB000010E7F6F910E806F010E816F970E826FF6
:102AC000010E836F9D0E846F010E856FA30E866FBE
:102AD000010E876FA90E886F010E896FEAEC11F065
:102AE000CE0E316E010E326EC40E336E010E346E98
:102AF000280E356EB50E366E010E376E010E386E2D
:102B000061EC1DF0010E1EEC29F0520E00018B6FDE
:102B10002B0E8A6F000EE82EFED78A2FFCD78B2F44
:102B2000FAD7000051EC29F0AEEC29F099EC29F02D
:102B3000BC0E146E010E156EA6EC1FF0C2C1FAF0A9
:102B4000C3C1FBF0FBEC25F0D00E00018A6FC90E6B
:102B5000E82EFED78A2FFCD700D0CE0E236E010EB2
:102B6000246EC40E256E010E266E140E276E020E04
:102B7000286E26EC25F0AEEC29F0000E0001F56F72
:102B8000000EF46F0001F505D8A4C9EF15F0CBEFE6
:102B900015F0FEEF15F0BC0E146E010E156EA6ECCE
:102BA0001FF0C2C17BF1C3C17CF101017B51000167
:102BB000FA5D01017C510001FB59D8A0E2EF15F04C
:102BC000E4EF15F0F8EF15F07BC1FAF07CC1FBF0F3
:102BD000FBEC25F0D00E00018A6FC90EE82EFED75F
:102BE0008A2FFCD700D0000E0001F56FFEEF15F024
:102BF000010E01017A6F000E0001F56F01017A05E7
:102C0000D8A405EF16F007EF16F0E1EF16F00E016D
:102C10002991CFEC28F00101B351020D000EF324ED
:102C2000D96E010EF420DA6E10C0DEFF11C0DDFF98
:102C3000CE0E236E010E246EC40E256E010E266E7E
:102C4000B4C127F0A2EC24F0CE0E236E010E246E48
:102C5000C40E256E010E266EB1C127F0B4C128F056
:102C6000A4EC19F0BC0E146E010E156EA6EC1FF04C
:102C700021EEBCF000EE2AF0070EDBCFEBFFE806FA
:102C8000FCE2B60E326E010E336E36EC17F021EE1A
:102C9000B6F000EE14F0050EDBCFEBFFE806FCE229
:102CA00021EE7FF000EE1AF0050EDBCFEBFFE80619
:102CB000FCE221EE85F000EE20F0050EDBCFEBFF0D
:102CC000E806FCE221EE8BF000EE26F0050EDBCFED
:102CD000EBFFE806FCE221EE91F000EE2CF0050E91
:102CE000DBCFEBFFE806FCE221EE97F000EE32F0DE
:102CF000050EDBCFEBFFE806FCE221EE9DF000EED7
:102D000038F0050EDBCFEBFFE806FCE221EEA3F086
:102D100000EE3EF0050EDBCFEBFFE806FCE221EE15
:102D2000A9F000EE44F0050EDBCFEBFFE806FCE275
:102D30008DEC1BF00101B26F520EB325D96EDA6A29
:102D4000010EDA22B2C1DFFFCE0E0001606F010E6C
:102D5000616FC40E626F010E636FB2C164F0520EF8
:102D6000656F010E666F000E676F010E686FB3C16D
:102D700069F0B1C16AF07DC16BF07EC16CF0B4C185
:102D80006DF0AFC16EF0B5C16FF0B0C170F001EC85
:102D900007F0BC0E146E010E156EA6EC1FF0C2C13A
:102DA000FAF0C3C1FBF0FBEC25F0000E0001F56F5B
:102DB0000101B32BAEEC29F00E012981000E0101B7
:102DC0007A6F0001F405D8A4E8EF16F0EAEF16F0E8
:102DD00021EF17F00E012991CE0E236E010E246E05
:102DE000C40E256E010E266EB4C127F0A2EC24F0AD
:102DF000CE0E326E010E336EC40E346E010E356E81
:102E0000520E366E010E376E000E386E010E396EA0
:102E1000B3C13AF0B1C13BF07DC13CF07EC13DF0A1
:102E2000B4C13EF0AFC13FF0B5C140F0B0C141F018
:102E300094EC0EF00E012981000E0001F46F34EFC6
:102E400017F0080E0101B219D8B429EF17F02BEFD3
:102E500017F034EF17F0090EB219D8A432EF17F0BB
:102E600034EF17F0C2EF15F02CEF00F02AC010F08D
:102E70002BC011F0126A136A100E146E270E156E15
:102E8000000E166E000E176EAFEC27F010C01CF08F
:102E900011C01DF012C01EF013C01FF06C0E206E8A
:102EA000070E216E000E226E000E236E1CEC24F025
:102EB0001CC06AF01DC06BF02CC010F02DC011F0CA
:102EC000126A136A100E146E270E156E000E166E1F
:102ED000000E176EAFEC27F010C01CF011C01DF0F3
:102EE00012C01EF013C01FF0780E206E050E216E6A
:102EF000000E226E000E236E1CEC24F01CC072F03B
:102F00001DC073F02EC010F02FC011F0126A136AAA
:102F1000100E146E270E156E000E166E000E176E34
:102F2000AFEC27F010C01CF011C01DF012C01EF055
:102F300013C01FF0400E206E060E216E000E226E92
:102F4000000E236E1CEC24F01CC074F01DC075F044
:102F500072C010F073C011F074C012F075C013F09D
:102F6000A4EC28F010C066F011C067F06AC010F041
:102F70006BC011F066C012F067C013F0A4EC28F02B
:102F800010C06CF011C06DF072C010F073C011F081
:102F900074C012F075C013F08EEC28F010C068F009
:102FA00011C069F06AC010F06BC011F068C012F077
:102FB00069C013F08EEC28F010C064F011C065F009
:102FC000000164516C5D346E65516D59356E34C0CD
:102FD0006EF035C06FF0706B716B6A516C1907E160
:102FE0006B516D19D8A4F7EF17F0F9EF17F0A0EFB8
:102FF00018F07251745D73517559D8B002EF18F022
:1030000004EF18F036EF18F07451725D346E75519C
:103010007359356E34C010F035C011F0126A136A5E
:10302000700E146E170E156E000E166E000E176ED3
:10303000AFEC27F010C01CF011C01DF012C01EF044
:1030400013C01FF06EC020F06FC021F070C022F0DE
:1030500071C023F0A1EC26F032C0D9FF33C0DAFFF3
:103060001CC0DEFF1DC0DDFF58EF19F07451725D0A
:1030700075517359D8B03FEF18F041EF18F058EF81
:1030800019F07451346E7551356E366A376A6EC0F8
:1030900010F06FC011F070C012F071C013F0060E86
:1030A000146E000E156E000E166E000E176EAFEC4D
:1030B00027F0000172511024386E73511120396EBF
:1030C000000E12203A6E000E13203B6E3450385C16
:1030D000606F35503958616F36503A58626F3750CB
:1030E0003B58636F60C010F061C011F062C012F015
:1030F00063C013F0700E146E170E156E000E166E70
:10310000000E176EAFEC27F010C01CF011C01DF0C0
:1031100012C01EF013C01FF06EC020F06FC021F06F
:1031200070C022F071C023F0A1EC26F032C0D9FFAC
:1031300033C0DAFF1CC0DEFF1DC0DDFF58EF19F001
:1031400072516C1907E173516D19D8A4AAEF18F0E8
:10315000ACEF18F0F9EF18F06A51346E6B51356E20
:10316000366A376AD8906E35386E6F35396E70357D
:103170003A6E71353B6E745138243C6E755139206E
:103180003D6E000E3A203E6E000E3B203F6E3450E6
:103190003C5C106E35503D58116E36503E58126EE4
:1031A00037503F58136E700E146E170E156E000ECA
:1031B000166E000E176EAFEC27F010C01CF011C099
:1031C0001DF012C01EF013C01FF06EC020F06FC0C3
:1031D00021F070C022F071C023F0A1EC26F032C0C3
:1031E000D9FF33C0DAFF1CC0DEFF1DC0DDFF58EF82
:1031F00019F074516C1907E175516D19D8A403EFDA
:1032000019F005EF19F058EF19F07251346E73513F
:10321000356E366A376A6EC038F06FC039F070C0EC
:103220003AF071C03BF0020ED890383639363A3653
:103230003B36E82E14EF19F06A5138243C6E6B517E
:1032400039203D6E000E3A203E6E000E3B203F6E50
:1032500034503C5C106E35503D58116E36503E581F
:10326000126E37503F58136E700E146E170E156E97
:10327000000E166E000E176EAFEC27F010C01CF09B
:1032800011C01DF012C01EF013C01FF06EC020F060
:103290006FC021F070C022F071C023F0A1EC26F0C5
:1032A00032C0D9FF33C0DAFF1CC0DEFF1DC0DDFF16
:1032B0006EC010F06FC011F070C012F071C013F04A
:1032C000100E146E270E156E000E166E000E176E81
:1032D000AFEC27F010C01CF011C01DF012C01EF0A2
:1032E00013C01FF06CC020F06DC021F0226A236A69
:1032F000A1EC26F020EE02F03250D9263350DA222B
:103300001CC0DEFF1DC0DDFF20EE02F03250D926CA
:103310003350DA22DE50DE10D8A491EF19F093EF8B
:1033200019F099EF19F032C0D9FF33C0DAFFDE6A25
:10333000DD6A20EE04F03250D9263350DA226CC018
:10334000DEFF6DC0DDFF1200780E2C6E140E2D6EA8
:10335000280E2E6E20EE01F02350D9262450DA22BA
:10336000010EDF6E20EE01F02550D9262650DA221C
:10337000010EDF6E000E326E010E316E0AEF1AF092
:1033800020EE09F02350D9262450DA22DF503124D0
:1033900023C0D9FF24C0DAFFDF6E20EE09F02550EC
:1033A000D9262650DA22DF50312425C0D9FF26C085
:1033B000DAFFDF6E23C01DF024C01EF066EC23F0A0
:1033C00025C01DF026C01EF066EC23F0000E306E06
:1033D000000E2F6EF6EF19F0680E296EE40EE82E3F
:1033E000FED7292EFCD700D02F4A302A2850296E2C
:1033F0002A6A29502F5C3050800A2B6E2A50800A8E
:103400002B58D8A006EF1AF008EF1AF0ECEF19F0DD
:10341000314A322A2E50296E2A6A3150295C2A50AC
:10342000800A2B6E3250800A2B58D8B01AEF1AF04F
:103430001CEF1AF0C0EF19F0000E306E000E2F6E68
:103440002CEF1AF0680E296EE40EE82EFED7292E16
:10345000FCD700D02F4A302A2C50296E2A6A2950D6
:103460002F5C3050800A2B6E2A50800A2B58D8A02F
:103470003CEF1AF03EEF1AF022EF1AF02EC031F0B6
:10348000326A32BE48EF1AF046EF1AF04AEF1AF0ED
:1034900097EF1AF020EE09F02350D9262450DA22B3
:1034A000DF50312423C0D9FF24C0DAFFDF6E20EEC5
:1034B00009F02550D9262650DA22DF50312425C0C4
:1034C000D9FF26C0DAFFDF6E23C01DF024C01EF036
:1034D00066EC23F025C01DF026C01EF066EC23F03C
:1034E000000E306E000E2F6E80EF1AF0680E296EFF
:1034F000E40EE82EFED7292EFCD700D02F4A302A22
:103500002850296E2A6A29502F5C3050800A2B6E71
:103510002A50800A2B58D8A090EF1AF092EF1AF098
:1035200076EF1AF03106D8A0320641EF1AF020EEFD
:1035300001F02350D9262450DA22DF6A20EE01F070
:103540002550D9262650DA22DF6A000E326E010E8F
:10355000316EF5EF1AF020EE09F02350D9262450F1
:10356000DA22DF50312423C0D9FF24C0DAFFDF6E16
:1035700020EE09F02550D9262650DA22DF503124DA
:1035800025C0D9FF26C0DAFFDF6E23C01DF024C09E
:103590001EF066EC23F025C01DF026C01EF066EC80
:1035A00023F0000E306E000E2F6EE1EF1AF0680E61
:1035B000296EE40EE82EFED7292EFCD700D02F4A24
:1035C000302A2850296E2A6A29502F5C3050800AF0
:1035D0002B6E2A50800A2B58D8A0F1EF1AF0F3EF87
:1035E0001AF0D7EF1AF0314A322A2750296E2A6A88
:1035F0003150295C2A50800A2B6E3250800A2B5899
:10360000D8B005EF1BF007EF1BF0ABEF1AF0000E80
:10361000306E000E2F6E17EF1BF0680E296EE40E51
:10362000E82EFED7292EFCD700D02F4A302A2D5065
:10363000296E2A6A29502F5C3050800A2B6E2A503E
:10364000800A2B58D8A027EF1BF029EF1BF00DEFB5
:103650001BF027C031F0326A32BE33EF1BF031EF7E
:103660001BF035EF1BF082EF1BF020EE09F023502A
:10367000D9262450DA22DF50312423C0D9FF24C0B8
:10368000DAFFDF6E20EE09F02550D9262650DA2227
:10369000DF50312425C0D9FF26C0DAFFDF6E23C0FA
:1036A0001DF024C01EF066EC23F025C01DF026C0DE
:1036B0001EF066EC23F0000E306E000E2F6E6BEFE6
:1036C0001BF0680E296EE40EE82EFED7292EFCD7DB
:1036D00000D02F4A302A2850296E2A6A29502F5CA0
:1036E0003050800A2B6E2A50800A2B58D8A07BEFCE
:1036F0001BF07DEF1BF061EF1BF03106D8A0320606
:103700002CEF1BF023C0D9FF24C0DAFFDF6A25C0ED
:10371000D9FF26C0DAFFDF6A1200090E4A6E20C008
:1037200010F021C011F03EC012F03FC013F08EEC3B
:1037300028F0300E10240001606FF80E1120616F28
:103740001450605D15506159D8B0A9EF1BF0ABEF74
:103750001BF0E2EF1BF020C010F021C011F03EC0C2
:1037600012F03FC013F0A4EC28F0D00E102400019A
:10377000606F070E1120616F6051145C6151155824
:10378000D8B0C5EF1BF0C7EF1BF0E2EF1BF0F40E53
:103790004024606F010E4120616F1650605D17502C
:1037A0006159D8B0D6EF1BF0D8EF1BF0DCEF1BF05F
:1037B000020E4A6EA3EF1CF0070E4A6EA3EF1CF038
:1037C000A3EF1CF0480E2624606FF40E2720616FD3
:1037D0001450605D15506159D8B0F1EF1BF0F3EF54
:1037E0001BF008EF1CF0B80E2624606F0B0E27208C
:1037F000616F6051145C61511558D8B002EF1CF034
:1038000004EF1CF008EF1CF0030E4A6EA3EF1CF04F
:103810002CC010F02DC011F032C012F033C013F0E4
:103820008EEC28F0180E10240001606FFC0E1120A1
:10383000616F1450605D15506159D8B022EF1CF0D3
:1038400024EF1CF059EF1CF02CC010F02DC011F02B
:1038500032C012F033C013F0A4EC28F0E80E1024AC
:103860000001606F030E1120616F6051145C6151A3
:103870001558D8B03EEF1CF040EF1CF059EF1CF08B
:10388000F40E3424606F010E3520616F1650605DB8
:1038900017506159D8B04FEF1CF051EF1CF055EFA5
:1038A0001CF0040E4A6EA3EF1CF0050E4A6EA3EF47
:1038B0001CF00C0E3824606FFE0E3920616F14501E
:1038C000605D15506159D8B068EF1CF06AEF1CF0CC
:1038D0007FEF1CF0F40E3824606F010E3920616F09
:1038E0006051145C61511558D8B079EF1CF07BEF32
:1038F0001CF07FEF1CF0060E4A6EA3EF1CF00C0EBE
:103900004424606FFE0E4520616F1450605D1550B9
:103910006159D8B08EEF1CF090EF1CF0E0EF1BF077
:10392000F40E4424606F010E4520616F6051145CF9
:1039300061511558D8B09FEF1CF0A1EF1CF0E0EFDB
:103940001BF0080E4A6E310E1A5C750E1B58D8A07B
:10395000ACEF1CF0AEEF1CF002EF1DF0180E1A24B5
:10396000606FFC0E1B20616F1450605D1550615933
:10397000D8B0BDEF1CF0BFEF1CF0CAEF1CF0A00EDA
:10398000145C8C0E1558D8A0C8EF1CF0CAEF1CF0C0
:1039900000EF1DF014501510D8B4D1EF1CF0D3EF88
:1039A0001CF002EF1DF0E80E1A24606F030E1B20BE
:1039B000616F626B636B600E6025646F730E6121D3
:1039C000656FFF0E6221666FFF0E6321676F1450F3
:1039D000686F1550696F6A6B6B6B6451685D6551F8
:1039E000695966516A596B51800A6C6F6751800A38
:1039F0006C59D8B0FEEF1CF000EF1DF002EF1DF087
:103A0000010E4A6E100E1A5C270E1B58D8B00BEF31
:103A10001DF00DEF1DF05FEF1DF01450606F15509D
:103A2000616F626B636B1A50646F1B50656F666BDE
:103A3000676BB80E6425686F880E6521696F000E8C
:103A400066216A6F000E67216B6F6051685D61517E
:103A5000695962516A596B51800A6C6F6351800ACF
:103A60006C59D8B036EF1DF038EF1DF043EF1DF064
:103A7000A00E145C8C0E1558D8A041EF1DF043EF3A
:103A80001DF05DEF1DF014501510D8B44AEF1DF075
:103A90004CEF1DF05FEF1DF0E80E1A24606F030E6F
:103AA0001B20616F6051145C61511558D8B05BEFF9
:103AB0001DF05DEF1DF05FEF1DF0010E4A6E4A50E4
:103AC000120031C023F032C024F033C025F034C0DE
:103AD00026F035C027F036C0D9FF37C0DAFFDF50F7
:103AE000286E38C029F079EC22F0050E3A6E0F0EE0
:103AF000396EF10EE82EFED7392EFCD73A2EFAD7C2
:103B0000000031C023F032C024F033C025F034C0AF
:103B100026F035C027F036C0D9FF37C0DAFFDF50B6
:103B2000286E38C029F079EC22F0050E3A6E0F0E9F
:103B3000396EF10EE82EFED7392EFCD73A2EFAD781
:103B4000000031C023F032C024F033C025F034C06F
:103B500026F035C027F036C0D9FF37C0DAFFDF5076
:103B6000286E38C029F08CEC21F0050E3A6E0F0E4D
:103B7000396EF10EE82EFED7392EFCD73A2EFAD741
:103B8000000031C023F032C024F033C025F034C02F
:103B900026F035C027F036C0D9FF37C0DAFFDF5036
:103BA000286E38C029F08CEC21F08EA4DAEF1DF0DD
:103BB000DCEF1DF0E3EF1DF08EB6E1EF1DF0E3EF5B
:103BC0001DF0D5EF1DF08EB4E8EF1DF0EAEF1DF00B
:103BD000FEEF1DF036C0D9FF37C0DAFFDF50D8B492
:103BE000F4EF1DF0F6EF1DF0FEEF1DF036C0D9FF2B
:103BF00037C0DAFFDF067C8E0BEF1EF08EB603EFC8
:103C00001EF005EF1EF00BEF1EF036C0D9FF37C0D7
:103C1000DAFFDF2A8086290E3A6E960E396E7F0E05
:103C2000E82EFED7392EFCD73A2EFAD700008EB6F2
:103C30001CEF1EF01EEF1EF025EF1EF036C0D9FF60
:103C400037C0DAFFDF069DEF1EF080967C9E31C004
:103C500023F032C024F033C025F034C026F035C044
:103C600027F036C0D9FF37C0DAFFDF50286E38C0E2
:103C700029F079EC22F0050E3A6E0F0E396EF10E36
:103C8000E82EFED7392EFCD73A2EFAD7000031C0E5
:103C900023F032C024F033C025F034C026F035C004
:103CA00027F036C0D9FF37C0DAFFDF50286E38C0A2
:103CB00029F079EC22F0050E3A6E0F0E396EF10EF6
:103CC000E82EFED7392EFCD73A2EFAD7000031C0A5
:103CD00023F032C024F033C025F034C026F035C0C4
:103CE00027F036C0D9FF37C0DAFFDF50286E38C062
:103CF00029F08CEC21F0050E3A6E0F0E396EF10EA4
:103D0000E82EFED7392EFCD73A2EFAD7000031C064
:103D100023F032C024F033C025F034C026F035C083
:103D200027F036C0D9FF37C0DAFFDF50286E38C021
:103D300029F08CEC21F0D5EF1DF080867C8E090EE9
:103D40003A6E1E0E396EE40EE82EFED7392EFCD7E1
:103D50003A2EFAD700D080967C9E1200140E2C6E5C
:103D600020EE01F02350D9262450DA22DF6A20EE1B
:103D700001F02550D9262650DA22DF6A000E306E77
:103D8000010E2F6E0EEF1FF020EE09F02350D92602
:103D90002450DA22DF502F2423C0D9FF24C0DAFFB9
:103DA000DF6E20EE09F02550D9262650DA22DF50AA
:103DB0002F2425C0D9FF26C0DAFFDF6E23C01DF0F7
:103DC00024C01EF066EC23F025C01DF026C01EF0B6
:103DD00066EC23F0000E2E6E000E2D6EFAEF1EF034
:103DE000680E296EE40EE82EFED7292EFCD700D0EF
:103DF0002D4A2E2A2850296E2A6A29502D5C2E50D1
:103E0000800A2B6E2A50800A2B58D8A00AEF1FF088
:103E10000CEF1FF0F0EF1EF02F4A302A2750296ECA
:103E20002A6A2F50295C2A50800A2B6E3050800A53
:103E30002B58D8B01EEF1FF020EF1FF0C4EF1EF07C
:103E4000000E2E6E000E2D6E30EF1FF0680E296EE4
:103E5000E40EE82EFED7292EFCD700D02D4A2E2ABC
:103E60002C50296E2A6A29502D5C2E50800A2B6E08
:103E70002A50800A2B58D8A040EF1FF042EF1FF0C5
:103E800026EF1FF027C02FF0306A30BE4CEF1FF036
:103E90004AEF1FF04EEF1FF09BEF1FF020EE09F0EE
:103EA0002350D9262450DA22DF502F2423C0D9FFF3
:103EB00024C0DAFFDF6E20EE09F02550D926265007
:103EC000DA22DF502F2425C0D9FF26C0DAFFDF6EAB
:103ED00023C01DF024C01EF066EC23F025C01DF0A9
:103EE00026C01EF066EC23F0000E2E6E000E2D6E26
:103EF00084EF1FF0680E296EE40EE82EFED7292EFF
:103F0000FCD700D02D4A2E2A2850296E2A6A295023
:103F10002D5C2E50800A2B6E2A50800A2B58D8A078
:103F200094EF1FF096EF1FF07AEF1FF02F06D8A046
:103F3000300645EF1FF023C0D9FF24C0DAFFDF6A47
:103F400025C0D9FF26C0DAFFDF6A1200B8EC29F0DD
:103F5000520EA2EC29F0B60EA2EC29F0BDEC29F02D
:103F6000530EA2EC29F0010E36EC28F0166E176AFB
:103F700014C0D9FF15C0DAFF16C0DEFF17C0DDFF81
:103F800014C0D9FF15C0DAFFDECF16F0DDCF17F071
:103F9000000E36EC28F0186E18501A6E196A16507A
:103FA00019101B6E17501A101C6E14C0D9FF15C0C3
:103FB000DAFF1BC0DEFF1CC0DDFFB3EC29F0B8EC5C
:103FC00029F0520EA2EC29F0B80EA2EC29F0BDECBB
:103FD00029F0530EA2EC29F0010E36EC28F0166EF3
:103FE000176A20EE02F01450D9261550DA2216C0B6
:103FF000DEFF17C0DDFF20EE02F01450D926155069
:10400000DA22DECF16F0DDCF17F0000E36EC28F006
:10401000186E18501A6E196A165019101B6E175028
:104020001A101C6E20EE02F01450D9261550DA2218
:104030001BC0DEFF1CC0DDFFB3EC29F0B8EC29F09B
:10404000520EA2EC29F0BA0EA2EC29F0BDEC29F038
:10405000530EA2EC29F0010E36EC28F0166E176A0A
:1040600020EE04F01450D9261550DA2216C0DEFFD7
:1040700017C0DDFF20EE04F01450D9261550DA22C7
:10408000DECF16F0DDCF17F0000E36EC28F0186EFC
:1040900018501A6E196A165019101B6E17501A1004
:1040A0001C6E20EE04F01450D9261550DA221BC0E5
:1040B000DEFF1CC0DDFFB3EC29F0B8EC29F0520E96
:1040C000A2EC29F0B40EA2EC29F0BDEC29F0530EBD
:1040D000A2EC29F0010E36EC28F0166E176A20EEDD
:1040E00006F01450D9261550DA2216C0DEFF17C08C
:1040F000DDFF20EE06F01450D9261550DA22DECF6F
:1041000016F0DDCF17F0000E36EC28F0186E1850C0
:104110001A6E196A165019101B6E17501A101C6E61
:1041200020EE06F01450D9261550DA221BC0DEFF0F
:104130001CC0DDFFB3EC29F0120020EE01F023508B
:10414000D9262450DA22DF6A20EE01F02550D92644
:104150002650DA22DF6A000E316E010E306EFBEF60
:1041600020F020EE09F02350D9262450DA22DF5027
:10417000302423C0D9FF24C0DAFFDF6E20EE09F01F
:104180002550D9262650DA22DF50302425C0D9FF09
:1041900026C0DAFFDF6E23C01DF024C01EF066ECDF
:1041A00023F025C01DF026C01EF066EC23F0000EA3
:1041B0002F6E000E2E6EE7EF20F0680E2B6EE40ED1
:1041C000E82EFED72B2EFCD700D02E4A2F2A2A50BD
:1041D0002B6E2C6A2B502E5C2F50800A2D6E2C508B
:1041E000800A2D58D8A0F7EF20F0F9EF20F0DDEF8E
:1041F00020F0304A312A27502B6E2C6A30502B5C2D
:104200002C50800A2D6E3150800A2D58D8B00BEFFB
:1042100021F00DEF21F0B1EF20F0000E2F6E000E17
:104220002E6E1DEF21F0680E2B6EE40EE82EFED7E9
:104230002B2EFCD700D02E4A2F2A28502E5C295036
:104240002F58D8A026EF21F028EF21F013EF21F00E
:1042500027C030F0316A31BE32EF21F030EF21F06B
:1042600034EF21F081EF21F020EE09F02350D92620
:104270002450DA22DF50302423C0D9FF24C0DAFFD3
:10428000DF6E20EE09F02550D9262650DA22DF50C5
:10429000302425C0D9FF26C0DAFFDF6E23C01DF011
:1042A00024C01EF066EC23F025C01DF026C01EF0D1
:1042B00066EC23F0000E2F6E000E2E6E6AEF21F0DA
:1042C000680E2B6EE40EE82EFED72B2EFCD700D006
:1042D0002E4A2F2A2A502B6E2C6A2B502E5C2F50E0
:1042E000800A2D6E2C50800A2D58D8A07AEF21F02C
:1042F0007CEF21F060EF21F03006D8A031062BEFE3
:1043000021F023C0D9FF24C0DAFFDF6A25C0D9FF1E
:1043100026C0DAFFDF6A120020EE01F02350D92612
:104320002450DA22010EDF6E20EE01F02550D9264E
:104330002650DA22DF6A000E306E010E2F6EEBEF90
:1043400021F020EE09F02350D9262450DA22DF5044
:104350002F2423C0D9FF24C0DAFFDF6E20EE09F03E
:104360002550D9262650DA22DF502F2425C0D9FF28
:1043700026C0DAFFDF6E23C01DF024C01EF066ECFD
:1043800023F025C01DF026C01EF066EC23F0000EC1
:104390002E6E000E2D6ED7EF21F0680E2A6EE40E01
:1043A000E82EFED72A2EFCD700D02D4A2E2A2950DF
:1043B0002A6E2B6A2A502D5C2E50800A2C6E2B50B0
:1043C000800A2C58D8A0E7EF21F0E9EF21F0CDEFDB
:1043D00021F02F4A302A27502A6E2B6A2F502A5C50
:1043E0002B50800A2C6E3050800A2C58D8B0FBEF2E
:1043F00021F0FDEF21F0A1EF21F0000E2E6E000E56
:104400002D6E0DEF22F0680E2A6EE40EE82EFED718
:104410002A2EFCD700D02D4A2E2A28502A6E2B6A2D
:104420002A502D5C2E50800A2C6E2B50800A2C585E
:10443000D8A01DEF22F01FEF22F003EF22F027C0DB
:104440002FF0306A30BE29EF22F027EF22F02BEF59
:1044500022F078EF22F020EE09F02350D9262450E4
:10446000DA22DF502F2423C0D9FF24C0DAFFDF6E09
:1044700020EE09F02550D9262650DA22DF502F24CD
:1044800025C0D9FF26C0DAFFDF6E23C01DF024C08F
:104490001EF066EC23F025C01DF026C01EF066EC71
:1044A00023F0000E2E6E000E2D6E61EF22F0680ECE
:1044B0002A6EE40EE82EFED72A2EFCD700D02D4A15
:1044C0002E2A29502A6E2B6A2A502D5C2E50800AE3
:1044D0002C6E2B50800A2C58D8A071EF22F073EF6D
:1044E00022F057EF22F02F06D8A0300622EF22F05C
:1044F000120020EE01F02350D9262450DA22DF6A80
:1045000020EE01F02550D9262650DA22010EDF6E6A
:10451000000E306E010E2F6ED8EF22F020EE09F063
:104520002350D9262450DA22DF502F2423C0D9FF6C
:1045300024C0DAFFDF6E20EE09F02550D926265080
:10454000DA22DF502F2425C0D9FF26C0DAFFDF6E24
:1045500023C01DF024C01EF066EC23F025C01DF022
:1045600026C01EF066EC23F0000E2E6E000E2D6E9F
:10457000C4EF22F0680E2A6EE40EE82EFED72A2E33
:10458000FCD700D02D4A2E2A29502A6E2B6A2A5099
:104590002D5C2E50800A2C6E2B50800A2C58D8A0EF
:1045A000D4EF22F0D6EF22F0BAEF22F02F4A302AD1
:1045B00027502A6E2B6A2F502A5C2B50800A2C6EB3
:1045C0003050800A2C58D8B0E8EF22F0EAEF22F001
:1045D0008EEF22F0000E2E6E000E2D6EFAEF22F0FE
:1045E000680E2A6EE40EE82EFED72A2EFCD700D0E5
:1045F0002D4A2E2A28502A6E2B6A2A502D5C2E50C6
:10460000800A2C6E2B50800A2C58D8A00AEF23F079
:104610000CEF23F0F0EF22F027C02FF0306A30BE0D
:1046200016EF23F014EF23F018EF23F065EF23F0DB
:1046300020EE09F02350D9262450DA22DF502F240F
:1046400023C0D9FF24C0DAFFDF6E20EE09F0255029
:10465000D9262650DA22DF502F2425C0D9FF26C0C4
:10466000DAFFDF6E23C01DF024C01EF066EC23F0DD
:1046700025C01DF026C01EF066EC23F0000E2E6E45
:10468000000E2D6E4EEF23F0680E2A6EE40EE82E1B
:10469000FED72A2EFCD700D02D4A2E2A29502A6E6A
:1046A0002B6A2A502D5C2E50800A2C6E2B50800ACB
:1046B0002C58D8A05EEF23F060EF23F044EF23F0F6
:1046C0002F06D8A030060FEF23F0120020EE02F0E4
:1046D0001D50D9261E50DA22DF50D8B472EF23F0D5
:1046E00074EF23F0A8EF23F01DC0D9FF1EC0DAFF3E
:1046F000DF501F6E1F50106E116A20EE03F01D5028
:10470000D9261E50DA22DECF12F0DDCF13F00BECEB
:1047100029F010C016F011C017F0000E196E640ECB
:10472000186E3BEC27F020EE03F01D50D9261E50EA
:10473000DA22DF50206E1650205C216E20EE03F04E
:104740001D50D9261E50DA22DF50226ECBEF23F007
:10475000000E216E1DC0D9FF1EC0DAFFDF501F6E94
:104760001F50106E116A20EE03F01D50D9261E5006
:10477000DA22DECF12F0DDCF13F00BEC29F010C0FF
:1047800016F011C017F0000E196E640E186E3BEC97
:1047900027F01650226E20EE01F01D50D9261E5033
:1047A000DA22DF50D8B4D7EF23F0D9EF23F0FBEFB4
:1047B00023F020EE05F01D50D9261E50DA22DECF60
:1047C0001FF0DDCF20F01FC0D9FF20C0DAFF21C0CD
:1047D000DFFF20EE07F01D50D9261E50DA22DECF73
:1047E0001FF0DDCF20F01FC0D9FF20C0DAFF22C0AC
:1047F000DFFF1BEF24F020EE05F01D50D9261E50E0
:10480000DA22DECF1FF0DDCF20F01FC0D9FF20C09D
:10481000DAFF22C0DFFF20EE07F01D50D9261E5020
:10482000DA22DECF1FF0DDCF20F01FC0D9FF20C07D
:10483000DAFF21C0DFFF1200000E256E23BE25EF38
:1048400024F023EF24F02FEF24F0231E221E211E3C
:10485000206C000E212222222322010E256E1FBE73
:1048600036EF24F034EF24F040EF24F01F1E1E1E1C
:104870001D1E1C6C000E1D221E221F22010E251A59
:10488000000E266E000E276E000E286E000E296E9A
:104890002050211022102310D8B451EF24F053EFF0
:1048A00024F089EF24F0010E246E5DEF24F0D890FF
:1048B0002036213622362336242A23AE62EF24F016
:1048C00064EF24F057EF24F0D890263627362836A8
:1048D000293620501C5C21501D5822501E58235050
:1048E0001F58D8A076EF24F078EF24F081EF24F061
:1048F00020501C5E21501D5A22501E5A23501F5A10
:104900002680D8902332223221322032242E64EFA6
:1049100024F02550D8B48FEF24F091EF24F099EFD4
:1049200024F0291E281E271E266C000E272228226E
:10493000292226C01CF027C01DF028C01EF029C067
:104940001FF0120020EE01F02350D9262450DA2265
:10495000010EDF6E20EE01F02550D9262650DA2216
:10496000010EDF6E23C0D9FF24C0DAFFDF50286EAE
:1049700020EE09F02350D9262450DA22DF50296E88
:104980002950285C2D6E2E6AD8A02E062EBECDEFA3
:1049900024F0CBEF24F0CFEF24F01BEF25F020EE36
:1049A00009F02350D9262450DA22DF502D2423C0C9
:1049B000D9FF24C0DAFFDF6E20EE09F02550D9269A
:1049C0002650DA22DF502D2425C0D9FF26C0DAFF79
:1049D000DF6E23C01DF024C01EF066EC23F025C05E
:1049E0001DF026C01EF066EC23F0000E2C6E000EAB
:1049F0002B6E04EF25F0D00E286ECA0EE82EFED7DF
:104A0000282EFCD72B4A2C2A2750286E296A28509A
:104A10002B5C2C50800A2A6E2950800A2A58D8A074
:104A200014EF25F016EF25F0FBEF24F02D06D8A0AB
:104A30002E06C6EF24F023C0D9FF24C0DAFFDF6AB8
:104A400025C0D9FF26C0DAFFDF6A120020EE01F090
:104A50002350D9262450DA22010EDF6E20EE01F019
:104A60002550D9262650DA22010EDF6E000E2F6E59
:104A7000010E2E6E86EF25F020EE09F02350D92688
:104A80002450DA22DF502E2423C0D9FF24C0DAFFBD
:104A9000DF6E20EE09F02550D9262650DA22DF50AD
:104AA0002E2425C0D9FF26C0DAFFDF6E23C01DF0FB
:104AB00024C01EF066EC23F025C01DF026C01EF0B9
:104AC00066EC23F0000E2D6E000E2C6E72EF25F0BA
:104AD000680E296EE40EE82EFED7292EFCD700D0F2
:104AE0002C4A2D2A2850296E2A6A29502C5C2D50D8
:104AF000800A2B6E2A50800A2B58D8A082EF25F00E
:104B000084EF25F068EF25F02E4A2F2A2750296ED2
:104B10002A6A2E50295C2A50800A2B6E2F50800A58
:104B20002B58D8B096EF25F098EF25F03CEF25F004
:104B30001200000E156E13BEA2EF25F0A0EF25F0B7
:104B4000A8EF25F0126C131ED8B0132A010E156EB3
:104B500011BEAFEF25F0ADEF25F0B5EF25F0106CED
:104B6000111ED8B0112A010E151A000E176E000E74
:104B7000166E12501310D8B4C0EF25F0C2EF25F016
:104B8000EAEF25F0010E146ECAEF25F0D890123628
:104B90001336142A13AECFEF25F0D1EF25F0C6EF70
:104BA00025F0D890163617361250105C1350115855
:104BB000D8A0DDEF25F0DFEF25F0E4EF25F012506F
:104BC000105E1350115A1680D89013321232142EE0
:104BD000D1EF25F01550D8B4F0EF25F0F2EF25F025
:104BE000F6EF25F0166C171ED8B0172A16C010F075
:104BF00017C011F01200B8EC29F0520EA2EC29F007
:104C0000E60EA2EC29F0B3EC29F0FAC016F0FBC0D6
:104C100017F0000E196E030E186E3BEC27F0000122
:104C2000FA5116241E6EFB5117201F6EFAC016F0A3
:104C3000FBC017F0000E196E140E186E3BEC27F037
:104C400016500001FA5D206E1750FB59216E130EAD
:104C5000126E000E41EC29F03F0E1D6E550EE82E2F
:104C6000FED71D2EFCD700001F50126E070E41EC20
:104C700029F01EC012F0060E41EC29F02150126EF0
:104C8000050E41EC29F020C012F0040E41EC29F091
:104C9000030E126E0C0E41EC29F01200C7EC29F045
:104CA000520EA8EC29F0E60EA8EC29F0C2EC29F08F
:104CB000FAC001F0FBC002F0000E046E030E036E9A
:104CC00075EC27F00001FA510124096EFB51022016
:104CD0000A6EFAC001F0FBC002F0000E046E140E62
:104CE000036E75EC27F001500001FA5D0B6E025067
:104CF000FB590C6E130E036E000E61EC29F03F0E93
:104D0000086E550EE82EFED7082EFCD700000A507C
:104D1000036E070E61EC29F009C003F0060E61EC8A
:104D200029F00C50036E050E61EC29F00BC003F066
:104D3000040E61EC29F0030E036E0C0E61EC29F0F9
:104D40001200000E246E000E256E000E266E000E60
:104D5000276E2050211022102310D8B4B2EF26F075
:104D6000B4EF26F0EAEF26F0010E286EBEEF26F033
:104D7000D8902036213622362336282A23AEC3EF98
:104D800026F0C5EF26F0B8EF26F0D8902436253669
:104D90002636273620501C5C21501D5822501E58A4
:104DA00023501F58D8A0D7EF26F0D9EF26F0E2EF16
:104DB00026F020501C5E21501D5A22501E5A2350AE
:104DC0001F5A2480D8902332223221322032282EBA
:104DD000C5EF26F024C01CF025C01DF026C01EF033
:104DE00027C01FF012007D9485947D9885987B9E46
:104DF000839E7F9C879C050E0E01746F060E766F56
:104E0000070E696F080E886FBD508F0B3009BD6E9D
:104E1000E00EBE16BF50F00B0109BF6E10C0BCFF04
:104E2000BD8E000EAA6E000EA66E000E0F01256F3D
:104E3000000E216FFC0EAD16F30EAD16CF0EAD16A3
:104E40003F0EAD16AB88AB50F00B0C09AB6EAB8EC2
:104E5000A788A750F00B0C09A76EA78E26892651AC
:104E6000F00B0C09266F268F22892251F00B0C09BA
:104E7000226F228F1200000E1B6E000E1A6E185049
:104E80001910D8B446EF27F048EF27F070EF27F05D
:104E9000010E1C6E50EF27F0D890183619361C2AD8
:104EA00019AE55EF27F057EF27F04CEF27F0D890C9
:104EB0001A361B361850165C19501758D8A063EFD5
:104EC00027F065EF27F06AEF27F01850165E1950AB
:104ED000175A1A80D890193218321C2E57EF27F023
:104EE0001AC016F01BC017F01200000E066E000E5E
:104EF000056E03500410D8B480EF27F082EF27F03E
:104F0000AAEF27F0010E076E8AEF27F0D89003363C
:104F10000436072A04AE8FEF27F091EF27F086EFD3
:104F200027F0D890053606360350015C045002582D
:104F3000D8A09DEF27F09FEF27F0A4EF27F00350B4
:104F4000015E0450025A0580D89004320332072EC5
:104F500091EF27F005C001F006C002F01200000E2C
:104F6000186E000E196E000E1A6E000E1B6E10A049
:104F7000BCEF27F0BEEF27F0C6EF27F0145018263D
:104F80001550192216501A2217501B22D890143689
:104F9000153616361736D8901332123211321032B7
:104FA0001050111012101310D8A4D9EF27F0DBEF16
:104FB00027F0B7EF27F018C010F019C011F01AC091
:104FC00012F01BC013F01200980EF66E530EF76E1F
:104FD000000EF86E00EEF6F010EE06F00900F5CFC8
:104FE000EEFFE550E150FAE102EE00F08E0EEE6ABF
:104FF000E806FDE101EED8F0280EEE6AE806FDE1D4
:1050000000EEB8F03E0EEE6AE806FDE14E6A4D6A2B
:105010004C6A4B6A4F904F920001C8EF14F080EC3D
:1050200029F08DEC29F0186E18C010F0116A000EEE
:10503000136E180E126E99EC25F01050196E19A20D
:1050400024EF28F026EF28F029EF28F07C8E2AEFB5
:1050500028F07C9E19A02FEF28F031EF28F034EFD4
:1050600028F0808635EF28F080961200126EE3EC6F
:1050700028F00E01DA87E3EC28F0D5CE13F0E3EC4C
:1050800028F01250D8B447EF28F04BEF28F0116AFF
:10509000112A4CEF28F0116A113A11460E01DA512B
:1050A0001118DF0B1118DA6FDA8913501200BAECFD
:1050B00028F0010E126E000E41EC29F03F0E226E18
:1050C000550EE82EFED7222EFCD70000030E126EDE
:1050D000000E41EC29F0D50E126E010E41EC29F0C4
:1050E000FBEC25F012007C9E849E80968896868438
:1050F0000E01B4958686B497809288927C988498A5
:105100007C968496A797809088907E9086907F90DA
:1051100087907D9E859E7996819612001250105C34
:1051200013501158D8B097EF28F099EF28F09FEF5F
:1051300028F010C010F011C011F0A3EF28F012C039
:1051400010F013C011F012001050125C11501358DF
:10515000D8B0ADEF28F0AFEF28F0B5EF28F010C0D1
:1051600010F011C011F0B9EF28F012C010F013C008
:1051700011F012000E01D951F00B0809D96FD98B2B
:105180009F0ED66F848A848CA79BA79D1D0E1D6FD2
:105190001E0E1C6F1C0E6F6F1B0E706F1200D3CF94
:1051A00014F0156AD4CF16F0176A1650136E126AEF
:1051B00014501210186E15501310196E18C010F0FC
:1051C00019C011F012000E01D8B5E9EF28F0EBEF8D
:1051D00028F0E3EF28F0DACE10F01F0E1016D8A456
:1051E000F4EF28F0F6EF28F0E3EF28F012000E01BC
:1051F000D8B5FDEF28F0FFEF28F0F7EF28F0DACE72
:1052000001F01F0E0116D8A408EF29F00AEF29F0CB
:10521000F7EF28F0120010501202F3CF14F0F4CF81
:1052200015F010501302F350152611501202F350CE
:10523000152614C010F015C011F01200106E105099
:10524000D8B425EF29F027EF29F02CEF29F07F8043
:105250007D8E79862FEF29F07F907D9E79961200C2
:105260000E0133A136EF29F038EF29F03FEF29F096
:10527000010E0001F56F4EEC26F00E0133914F92B6
:105280001100136EB8EC29F0520EA2EC29F0135065
:105290008009A2EC29F01250A2EC29F0B3EC29F01D
:1052A0001200D6501F0B4009D66ED688D650F00B90
:1052B0000B09D66ED588000ED46E000ED36ED58E37
:1052C0001200046EC7EC29F0520EA8EC29F004502D
:1052D0008009A8EC29F00350A8EC29F0C2EC29F0D1
:1052E0001200120E0E01626F110E156FE997E8950C
:1052F000330EE56F000EE66FE789E88BE78F12004B
:10530000868C0E01B48D0F015899FC0E58172E0E85
:105310005F6F60946088608E1200608060B093EF71
:1053200029F095EF29F08EEF29F064CF10F010509E
:10533000120082800E019A9129811F81F290F28CD5
:10534000F28E1200116EE3EC28F011C0D5FE1200AF
:10535000026EF7EC28F002C0D5FE1200000ED46EEB
:10536000000ED36E1200E3EC28F00E01DA85120075
:10537000E3EC28F00E01DA811200E3EC28F00E01D4
:10538000DA831200F7EC28F00E01DA851200F7EC50
:0E53900028F00E01DA81120004040101F4017C
:020000040030CA
:02000000AAFF55
:020004009FFF5C
:00000001FF
