:040000002CEF00F0F1
:060008004F8261EF2AF0B7
:100018004F80D8CF0DF0E8CF0EF0E0CF0FF00E01F3
:1000280033AB19EF00F01BEF00F024EF00F0010EE6
:100038000001F46F000ED46E000ED36E0E01339BD8
:100048000FC0E0FF0EC0E8FF0DC0D8FF4F901000B2
:0400580015EF29F087
:100E0000000000016405D8A408EF07F00AEF07F01E
:100E10006CEF07F060C023F061C024F062C025F0E1
:100E200063C026F06AC027F06DC028F0DFEC1FF029
:100E3000050E4A6E0F0E496EF10EE82EFED7492EB2
:100E4000FCD74A2EFAD7000060C023F061C024F01E
:100E500062C025F063C026F06EC027F06FC028F096
:100E600070C029F0BDEC22F0050E4A6E0F0E496EDF
:100E7000F10EE82EFED7492EFCD74A2EFAD70000F5
:100E800060C023F061C024F062C025F063C026F08A
:100E90006EC027F06FC028F070C029F0BDEC22F0C2
:100EA000050E4A6E0F0E496EF10EE82EFED7492E42
:100EB000FCD74A2EFAD7000060C023F061C024F0AE
:100EC00062C025F063C026F06AC027F06DC028F02C
:100ED00057EC26F01DEF0BF0020E6419D8A473EF47
:100EE00007F075EF07F0D7EF07F060C023F061C09F
:100EF00024F062C025F063C026F06AC027F06DC000
:100F000028F0DFEC1FF0050E4A6E0F0E496EF10E51
:100F1000E82EFED7492EFCD74A2EFAD7000060C033
:100F200023F061C024F062C025F063C026F06EC0DB
:100F300027F06FC028F070C029F0AAEC23F0050E4E
:100F40004A6E0F0E496EF10EE82EFED7492EFCD7E1
:100F50004A2EFAD7000060C023F061C024F062C0BE
:100F600025F063C026F06EC027F06FC028F070C077
:100F700029F0AAEC23F0050E4A6E0F0E496EF10E11
:100F8000E82EFED7492EFCD74A2EFAD7000060C0C3
:100F900023F061C024F062C025F063C026F06AC06F
:100FA00027F06DC028F057EC26F01DEF0BF0030E74
:100FB0006419D8A4DEEF07F0E0EF07F07AEF08F04D
:100FC00060C023F061C024F062C025F063C026F049
:100FD0006AC027F06DC028F0DFEC1FF0050E4A6EE6
:100FE0000F0E496EF10EE82EFED7492EFCD74A2E81
:100FF000FAD7000060C023F061C024F062C025F081
:1010000063C026F06EC027F06FC028F070C029F0D2
:10101000AAEC23F0050E4A6E0F0E496EF10EE82E73
:10102000FED7492EFCD74A2EFAD7000060C023F025
:1010300061C024F062C025F063C026F06EC027F0C6
:101040006FC028F070C029F0AAEC23F0050E4A6E9C
:101050000F0E496EF10EE82EFED7492EFCD74A2E10
:10106000FAD7000060C023F061C024F062C025F010
:1010700063C026F06EC027F06FC028F070C029F062
:10108000AAEC23F0050E4A6E0F0E496EF10EE82E03
:10109000FED7492EFCD74A2EFAD7000060C023F0B5
:1010A00061C024F062C025F063C026F06EC027F056
:1010B0006FC028F070C029F0AAEC23F0050E4A6E2C
:1010C0000F0E496EF10EE82EFED7492EFCD74A2EA0
:1010D000FAD7000060C023F061C024F062C025F0A0
:1010E00063C026F06AC027F06DC028F057EC26F0E8
:1010F0001DEF0BF0040E6419D8A481EF08F083EF04
:1011000008F003EF09F060C023F061C024F062C072
:1011100025F063C026F06AC027F06DC028F0DFEC30
:101120001FF0050E4A6E0F0E496EF10EE82EFED727
:10113000492EFCD74A2EFAD7000060C023F061C0C8
:1011400024F062C025F063C026F06AC027F06BC0AF
:1011500028F06CC029F06DC02AF0CEEC21F0050E0D
:101160004A6E0F0E496EF10EE82EFED7492EFCD7BF
:101170004A2EFAD7000060C023F061C024F062C09C
:1011800025F063C026F06EC027F06FC028F070C055
:1011900029F0BDEC22F0050E4A6E0F0E496EF10EDD
:1011A000E82EFED7492EFCD74A2EFAD7000060C0A1
:1011B00023F061C024F062C025F063C026F06EC049
:1011C00027F06FC028F070C029F0BDEC22F0050EAA
:1011D0004A6E0F0E496EF10EE82EFED7492EFCD74F
:1011E0004A2EFAD7000060C023F061C024F062C02C
:1011F00025F063C026F06AC027F06DC028F057ECD8
:1012000026F01DEF0BF0050E6419D8A40AEF09F0C3
:101210000CEF09F08CEF09F060C023F061C024F0FE
:1012200062C025F063C026F06AC027F06DC028F0C8
:10123000DFEC1FF0050E4A6E0F0E496EF10EE82E20
:10124000FED7492EFCD74A2EFAD7000060C023F003
:1012500061C024F062C025F063C026F06AC027F0A8
:101260006BC028F06CC029F06DC02AF0CEEC21F0E4
:10127000050E4A6E0F0E496EF10EE82EFED7492E6E
:10128000FCD74A2EFAD7000060C023F061C024F0DA
:1012900062C025F063C026F06EC027F06FC028F052
:1012A00070C029F0AAEC23F0050E4A6E0F0E496EAD
:1012B000F10EE82EFED7492EFCD74A2EFAD70000B1
:1012C00060C023F061C024F062C025F063C026F046
:1012D0006EC027F06FC028F070C029F0AAEC23F090
:1012E000050E4A6E0F0E496EF10EE82EFED7492EFE
:1012F000FCD74A2EFAD7000060C023F061C024F06A
:1013000062C025F063C026F06AC027F06DC028F0E7
:1013100057EC26F01DEF0BF0060E6419D8A493EFDE
:1013200009F095EF09F013EF0AF060C023F061C0F7
:1013300024F062C025F063C026F06AC027F06DC0BB
:1013400028F0DFEC1FF0050E4A6E0F0E496EF10E0D
:10135000E82EFED7492EFCD74A2EFAD7000060C0EF
:1013600023F061C024F062C025F063C026F06EC097
:1013700027F06FC028F070C029F0BDEC22F0050EF8
:101380004A6E0F0E496EF10EE82EFED7492EFCD79D
:101390004A2EFAD7000060C023F061C024F062C07A
:1013A00025F063C026F06EC027F06FC028F070C033
:1013B00029F0BDEC22F0050E4A6E0F0E496EF10EBB
:1013C000E82EFED7492EFCD74A2EFAD7000060C07F
:1013D00023F061C024F062C025F063C026F06EC027
:1013E00027F06FC028F070C029F0BDEC22F0050E88
:1013F0004A6E0F0E496EF10EE82EFED7492EFCD72D
:101400004A2EFAD7000060C023F061C024F062C009
:1014100025F063C026F06AC027F06DC028F057ECB5
:1014200026F01DEF0BF0070E6419D8A41AEF0AF08E
:101430001CEF0AF09AEF0AF060C023F061C024F0BC
:1014400062C025F063C026F06AC027F06DC028F0A6
:10145000DFEC1FF0050E4A6E0F0E496EF10EE82EFE
:10146000FED7492EFCD74A2EFAD7000060C023F0E1
:1014700061C024F062C025F063C026F06EC027F082
:101480006FC028F070C029F0AAEC23F0050E4A6E58
:101490000F0E496EF10EE82EFED7492EFCD74A2ECC
:1014A000FAD7000060C023F061C024F062C025F0CC
:1014B00063C026F06EC027F06FC028F070C029F01E
:1014C000AAEC23F0050E4A6E0F0E496EF10EE82EBF
:1014D000FED7492EFCD74A2EFAD7000060C023F071
:1014E00061C024F062C025F063C026F06EC027F012
:1014F0006FC028F070C029F0AAEC23F0050E4A6EE8
:101500000F0E496EF10EE82EFED7492EFCD74A2E5B
:10151000FAD7000060C023F061C024F062C025F05B
:1015200063C026F06AC027F06DC028F057EC26F0A3
:101530001DEF0BF0080E6419D8A4A1EF0AF0A3EF79
:101540000AF0E1EF0AF060C023F061C024F062C04D
:1015500025F063C026F06AC027F06DC028F0DFECEC
:101560001FF0050E4A6E0F0E496EF10EE82EFED7E3
:10157000492EFCD74A2EFAD7000060C032F061C075
:1015800033F062C034F063C035F065C036F066C039
:1015900037F067C038F068C039F069C03AF06AC007
:1015A0003BF06BC03CF06CC03DF06DC03EF06EC0D7
:1015B0003FF06FC040F070C041F01EEC0BF01DEF2B
:1015C0000BF060C023F061C024F062C025F063C05E
:1015D00026F06AC027F06DC028F0DFEC1FF0050E82
:1015E0004A6E0F0E496EF10EE82EFED7492EFCD73B
:1015F0004A2EFAD7000060C032F061C033F062C0FA
:1016000034F063C035F065C036F066C037F067C0AF
:1016100038F068C039F069C03AF06AC03BF06BC07E
:101620003CF06CC03DF06DC03EF06EC03FF06FC04E
:1016300040F070C041F01EEC0BF01200000E4FECB9
:101640002AF032C023F033C024F034C025F035C076
:1016500026F03FC027F040C028F041C029F0AAEC96
:1016600023F0050E436E0F0E426EF10EE82EFED7EC
:10167000422EFCD7432EFAD7000032C023F033C0ED
:1016800024F034C025F035C026F03FC027F040C01C
:1016900028F041C029F0AAEC23F0050E436E0F0E8E
:1016A000426EF10EE82EFED7422EFCD7432EFAD71B
:1016B000000032C023F033C024F034C025F035C020
:1016C00026F03FC027F040C028F041C029F0AAEC26
:1016D00023F0050E436E0F0E426EF10EE82EFED77C
:1016E000422EFCD7432EFAD7000032C023F033C07D
:1016F00024F034C025F035C026F03FC027F040C0AC
:1017000028F041C029F0AAEC23F0050E436E0F0E1D
:10171000426EF10EE82EFED7422EFCD7432EFAD7AA
:10172000000032C023F033C024F034C025F035C0AF
:1017300026F03BC027F03EC028F0E5EC1EF0050E79
:10174000436E0F0E426EF10EE82EFED7422EFCD7EE
:10175000432EFAD7000032C023F033C024F034C047
:1017600025F035C026F03BC027F03EC028F057ECEE
:1017700026F0DFEC2AF03A50020DF3CF42F0F4CF1E
:1017800043F042503824D96E43503920DA6EDECF10
:1017900044F0DDCF45F0580E4424466E1B0E452024
:1017A000476E00EC2AF04650105C47501158D8A004
:1017B000DCEF0BF0DEEF0BF0BBEF0BF032C023F0F1
:1017C00033C024F034C025F035C026F03EC027F0E9
:1017D000D3EC25F03AC048F0C2EF0EF0480648506E
:1017E0003624D96E000E3720DA6EDE04D8A4FBEF63
:1017F0000BF0FDEF0BF037EF0CF032C023F033C0ED
:1018000024F034C025F035C026F03FC027F040C09A
:1018100028F041C029F0AAEC23F0050E436E0F0E0C
:10182000426EF10EE82EFED7422EFCD7432EFAD799
:10183000000032C023F033C024F034C025F035C09E
:1018400026F03FC027F040C028F041C029F0AAECA4
:1018500023F0050E436E0F0E426EF10EE82EFED7FA
:10186000422EFCD7432EFAD7000069EF0EF0485005
:101870003624D96E000E3720DA6E020EDE18D8A498
:1018800044EF0CF046EF0CF080EF0CF032C023F088
:1018900033C024F034C025F035C026F03FC027F017
:1018A00040C028F041C029F0BDEC22F0050E436E87
:1018B0000F0E426EF10EE82EFED7422EFCD7432EBD
:1018C000FAD7000032C023F033C024F034C025F032
:1018D00035C026F03FC027F040C028F041C029F0B5
:1018E000BDEC22F0050E436E0F0E426EF10EE82E97
:1018F000FED7422EFCD7432EFAD7000069EF0EF038
:1019000048503624D96E000E3720DA6E030EDE18EA
:10191000D8A48DEF0CF08FEF0CF001EF0DF032C07A
:1019200023F033C024F034C025F035C026F03FC08A
:1019300027F040C028F041C029F0AAEC23F0050EA2
:10194000436E0F0E426EF10EE82EFED7422EFCD7EC
:10195000432EFAD7000032C023F033C024F034C045
:1019600025F035C026F03FC027F040C028F041C028
:1019700029F0AAEC23F0050E436E0F0E426EF10E15
:10198000E82EFED7422EFCD7432EFAD7000032C0F5
:1019900023F033C024F034C025F035C026F03FC01A
:1019A00027F040C028F041C029F0AAEC23F0050E32
:1019B000436E0F0E426EF10EE82EFED7422EFCD77C
:1019C000432EFAD7000032C023F033C024F034C0D5
:1019D00025F035C026F03FC027F040C028F041C0B8
:1019E00029F0AAEC23F0050E436E0F0E426EF10EA5
:1019F000E82EFED7422EFCD7432EFAD7000069EF1F
:101A00000EF048503624D96E000E3720DA6E040EE0
:101A1000DE18D8A40EEF0DF010EF0DF05CEF0DF016
:101A200032C023F033C024F034C025F035C026F096
:101A30003FC027F040C028F041C029F0AAEC23F0B5
:101A4000050E436E0F0E426EF10EE82EFED7422EAB
:101A5000FCD7432EFAD7000032C023F033C024F065
:101A600034C025F035C026F03FC027F040C028F034
:101A700041C029F0AAEC23F0050E436E0F0E426E12
:101A8000F10EE82EFED7422EFCD7432EFAD70000E7
:101A900032C023F033C024F034C025F035C026F026
:101AA0003BC027F03CC028F03DC029F03EC02AF0E2
:101AB000CEEC21F0F3EF0CF048503624D96E000E36
:101AC0003720DA6E050EDE18D8A469EF0DF06BEF43
:101AD0000DF0B7EF0DF032C023F033C024F034C066
:101AE00025F035C026F03FC027F040C028F041C0A7
:101AF00029F0BDEC22F0050E436E0F0E426EF10E82
:101B0000E82EFED7422EFCD7432EFAD7000032C073
:101B100023F033C024F034C025F035C026F03FC098
:101B200027F040C028F041C029F0BDEC22F0050E9E
:101B3000436E0F0E426EF10EE82EFED7422EFCD7FA
:101B4000432EFAD7000032C023F033C024F034C053
:101B500025F035C026F03BC027F03CC028F03DC042
:101B600029F03EC02AF0CEEC21F0F3EF0CF0485003
:101B70003624D96E000E3720DA6E060EDE18D8A491
:101B8000C4EF0DF0C6EF0DF010EF0EF032C023F0F1
:101B900033C024F034C025F035C026F03FC027F014
:101BA00040C028F041C029F0AAEC23F0050E436E96
:101BB0000F0E426EF10EE82EFED7422EFCD7432EBA
:101BC000FAD7000032C023F033C024F034C025F02F
:101BD00035C026F03FC027F040C028F041C029F0B2
:101BE000AAEC23F0050E436E0F0E426EF10EE82EA6
:101BF000FED7422EFCD7432EFAD7000032C023F086
:101C000033C024F034C025F035C026F03FC027F0A3
:101C100040C028F041C029F0AAEC23F0F3EF0CF00B
:101C200048503624D96E000E3720DA6E070EDE18C3
:101C3000D8A41DEF0EF01FEF0EF069EF0EF032C0CA
:101C400023F033C024F034C025F035C026F03FC067
:101C500027F040C028F041C029F0BDEC22F0050E6D
:101C6000436E0F0E426EF10EE82EFED7422EFCD7C9
:101C7000432EFAD7000032C023F033C024F034C022
:101C800025F035C026F03FC027F040C028F041C005
:101C900029F0BDEC22F0050E436E0F0E426EF10EE0
:101CA000E82EFED7422EFCD7432EFAD7000032C0D2
:101CB00023F033C024F034C025F035C026F03FC0F7
:101CC00027F040C028F041C029F0BDEC22F0F3EF2E
:101CD0000CF032C023F033C024F034C025F035C0FE
:101CE00026F03BC027F03EC028F0E5EC1EF0050EC4
:101CF000436E0F0E426EF10EE82EFED7422EFCD739
:101D0000432EFAD7000032C023F033C024F034C091
:101D100025F035C026F03BC027F03EC028F057EC38
:101D200026F0DFEC2AF04850020DF3CF42F0F4CF5A
:101D300043F042503824D96E43503920DA6EDECF5A
:101D400044F0DDCF45F0AC0E4424466E0D0E452028
:101D5000476E00EC2AF04650105C47501158D8A04E
:101D6000B4EF0EF0B6EF0EF093EF0EF032C023F0AA
:101D700033C024F034C025F035C026F03EC027F033
:101D8000D3EC25F04850D8A4C8EF0EF0CAEF0EF0FF
:101D9000EEEF0BF0120080867C8E32C023F033C051
:101DA00024F034C025F035C026F03FC027F040C0F5
:101DB00028F041C029F0AAEC23F0050E436E0F0E67
:101DC000426EF10EE82EFED7422EFCD7432EFAD7F4
:101DD000000032C023F033C024F034C025F035C0F9
:101DE00026F03FC027F040C028F041C029F0AAECFF
:101DF00023F0050E436E0F0E426EF10EE82EFED755
:101E0000422EFCD7432EFAD7000032C023F033C055
:101E100024F034C025F035C026F03FC027F040C084
:101E200028F041C029F0AAEC23F0050E436E0F0EF6
:101E3000426EF10EE82EFED7422EFCD7432EFAD783
:101E4000000032C023F033C024F034C025F035C088
:101E500026F03FC027F040C028F041C029F0AAEC8E
:101E600023F0050E436E0F0E426EF10EE82EFED7E4
:101E7000422EFCD7432EFAD7000032C023F033C0E5
:101E800024F034C025F035C026F03BC027F03EC01A
:101E900028F057EC26F0DFEC2AF0000E0001F46F7A
:101EA000F451D8B456EF0FF058EF0FF050EF0FF099
:101EB00032C023F033C024F034C025F035C026F002
:101EC0003EC027F0D3EC25F03AC046F018EF12F0F0
:101ED000460646503624D96E000E3720DA6EDE04F0
:101EE000D8A475EF0FF077EF0FF0B1EF0FF032C01D
:101EF00023F033C024F034C025F035C026F03FC0B5
:101F000027F040C028F041C029F0AAEC23F0050ECC
:101F1000436E0F0E426EF10EE82EFED7422EFCD716
:101F2000432EFAD7000032C023F033C024F034C06F
:101F300025F035C026F03FC027F040C028F041C052
:101F400029F0AAEC23F0050E436E0F0E426EF10E3F
:101F5000E82EFED7422EFCD7432EFAD70000E3EF3F
:101F600011F046503624D96E000E3720DA6E020E7C
:101F7000DE18D8A4BEEF0FF0C0EF0FF0FAEF0FF0AD
:101F800032C023F033C024F034C025F035C026F031
:101F90003FC027F040C028F041C029F0BDEC22F03E
:101FA000050E436E0F0E426EF10EE82EFED7422E46
:101FB000FCD7432EFAD7000032C023F033C024F000
:101FC00034C025F035C026F03FC027F040C028F0CF
:101FD00041C029F0BDEC22F0050E436E0F0E426E9B
:101FE000F10EE82EFED7422EFCD7432EFAD7000082
:101FF000E3EF11F046503624D96E000E3720DA6E2A
:10200000030EDE18D8A407EF10F009EF10F07BEFF5
:1020100010F032C023F033C024F034C025F035C0B6
:1020200026F03FC027F040C028F041C029F0AAECBC
:1020300023F0050E436E0F0E426EF10EE82EFED712
:10204000422EFCD7432EFAD7000032C023F033C013
:1020500024F034C025F035C026F03FC027F040C042
:1020600028F041C029F0AAEC23F0050E436E0F0EB4
:10207000426EF10EE82EFED7422EFCD7432EFAD741
:10208000000032C023F033C024F034C025F035C046
:1020900026F03FC027F040C028F041C029F0AAEC4C
:1020A00023F0050E436E0F0E426EF10EE82EFED7A2
:1020B000422EFCD7432EFAD7000032C023F033C0A3
:1020C00024F034C025F035C026F03FC027F040C0D2
:1020D00028F041C029F0AAEC23F0050E436E0F0E44
:1020E000426EF10EE82EFED7422EFCD7432EFAD7D1
:1020F0000000E3EF11F046503624D96E000E372071
:10210000DA6E040EDE18D8A488EF10F08AEF10F013
:10211000D6EF10F032C023F033C024F034C025F0E5
:1021200035C026F03FC027F040C028F041C029F05C
:10213000AAEC23F0050E436E0F0E426EF10EE82E50
:10214000FED7422EFCD7432EFAD7000032C023F030
:1021500033C024F034C025F035C026F03FC027F04E
:1021600040C028F041C029F0AAEC23F0050E436ED0
:102170000F0E426EF10EE82EFED7422EFCD7432EF4
:10218000FAD7000032C023F033C024F034C025F069
:1021900035C026F03BC027F03CC028F03DC029F0F8
:1021A0003EC02AF0CEEC21F06DEF10F04650362400
:1021B000D96E000E3720DA6E050EDE18D8A4E3EFD4
:1021C00010F0E5EF10F031EF11F032C023F033C022
:1021D00024F034C025F035C026F03FC027F040C0C1
:1021E00028F041C029F0BDEC22F0050E436E0F0E21
:1021F000426EF10EE82EFED7422EFCD7432EFAD7C0
:10220000000032C023F033C024F034C025F035C0C4
:1022100026F03FC027F040C028F041C029F0BDECB7
:1022200022F0050E436E0F0E426EF10EE82EFED721
:10223000422EFCD7432EFAD7000032C023F033C021
:1022400024F034C025F035C026F03BC027F03CC058
:1022500028F03DC029F03EC02AF0CEEC21F06DEF11
:1022600010F046503624D96E000E3720DA6E060E76
:10227000DE18D8A43EEF11F040EF11F08AEF11F014
:1022800032C023F033C024F034C025F035C026F02E
:102290003FC027F040C028F041C029F0AAEC23F04D
:1022A000050E436E0F0E426EF10EE82EFED7422E43
:1022B000FCD7432EFAD7000032C023F033C024F0FD
:1022C00034C025F035C026F03FC027F040C028F0CC
:1022D00041C029F0AAEC23F0050E436E0F0E426EAA
:1022E000F10EE82EFED7422EFCD7432EFAD700007F
:1022F00032C023F033C024F034C025F035C026F0BE
:102300003FC027F040C028F041C029F0AAEC23F0DC
:102310006DEF10F046503624D96E000E3720DA6E7D
:10232000070EDE18D8A497EF11F099EF11F0E3EF44
:1023300011F032C023F033C024F034C025F035C092
:1023400026F03FC027F040C028F041C029F0BDEC86
:1023500022F0050E436E0F0E426EF10EE82EFED7F0
:10236000422EFCD7432EFAD7000032C023F033C0F0
:1023700024F034C025F035C026F03FC027F040C01F
:1023800028F041C029F0BDEC22F0050E436E0F0E7F
:10239000426EF10EE82EFED7422EFCD7432EFAD71E
:1023A000000032C023F033C024F034C025F035C023
:1023B00026F03FC027F040C028F041C029F0BDEC16
:1023C00022F06DEF10F032C023F033C024F034C09F
:1023D00025F035C026F03BC027F03EC028F057EC72
:1023E00026F0DFEC2AF04650020DF3CF42F0F4CF96
:1023F00043F042503824D96E43503920DA6E00EC55
:102400002AF0DE50105CDE501158D8A00AEF12F00E
:102410000CEF12F0F3EF11F032C023F033C024F0D0
:1024200034C025F035C026F03EC027F0D3EC25F0AF
:102430004650D8A41EEF12F020EF12F068EF0FF014
:102440001200010E4FEC2AF080867C8E8EB42BEFAA
:1024500012F02DEF12F026EF12F080967C9E76C0DF
:1024600014F077C015F0D7EC20F076C0D9FF77C014
:10247000DAFF00EE2AF0070EDBCFEBFFE806FCE206
:1024800078C032F079C033F06DEC17F078C0D9FF26
:1024900079C0DAFF7AC0E1FF7BC0E2FFDECFE6FF62
:1024A000DDCFE5FF000120EE02F07851D926795109
:1024B000DA2210EE02F07A51E1267B51E222DECFE1
:1024C000E6FFDDCFE5FF20EE04F07851D926795103
:1024D000DA2210EE04F07A51E1267B51E222DECFBF
:1024E000E6FFDDCFE5FF290E416E960E406E7F0EB2
:1024F000E82EFED7402EFCD7412EFAD7000080866A
:102500007C8E8EB486EF12F088EF12F081EF12F01D
:1025100080967C9E76C014F077C015F0D7EC20F042
:1025200076C0D9FF77C0DAFF00EE2AF0070EDBCFC6
:10253000EBFFE806FCE278C032F079C033F06DECD6
:1025400017F078C0D9FF79C0DAFF7CC0E1FF7DC009
:10255000E2FFDECFE6FFDDCFE5FF000120EE02F077
:102560007851D9267951DA2210EE02F07C51E12619
:102570007D51E222DECFE6FFDDCFE5FF20EE04F065
:102580007851D9267951DA2210EE04F07C51E126F7
:102590007D51E222DECFE6FFDDCFE5FF290E416E61
:1025A000960E406E7F0EE82EFED7402EFCD7412EB1
:1025B000FAD7000080867C8E8EB4E1EF12F0E3EF54
:1025C00012F0DCEF12F080967C9E76C014F077C09B
:1025D00015F0D7EC20F076C0D9FF77C0DAFF00EE17
:1025E0002AF0070EDBCFEBFFE806FCE278C032F002
:1025F00079C033F06DEC17F078C0D9FF79C0DAFFFD
:102600007EC0E1FF7FC0E2FFDECFE6FFDDCFE5FF6A
:10261000000120EE02F07851D9267951DA2210EE2D
:1026200002F07E51E1267F51E222DECFE6FFDDCFD0
:10263000E5FF20EE04F07851D9267951DA2210EE28
:1026400004F07E51E1267F51E222DECFE6FFDDCFAE
:10265000E5FF290E416E960E406E7F0EE82EFED7E6
:10266000402EFCD7412EFAD7000080867C8E8EB497
:102670003CEF13F03EEF13F037EF13F080967C9EA3
:1026800076C014F077C015F0D7EC20F076C0D9FFF3
:1026900077C0DAFF00EE2AF0070EDBCFEBFFE8068B
:1026A000FCE278C032F079C033F06DEC17F078C0FE
:1026B000D9FF79C0DAFF80C0E1FF81C0E2FFDECF41
:1026C000E6FFDDCFE5FF000120EE02F07851D926CC
:1026D0007951DA2210EE02F08051E1268151E22296
:1026E000DECFE6FFDDCFE5FF20EE04F07851D926FE
:1026F0007951DA2210EE04F08051E1268151E22274
:10270000DECFE6FFDDCFE5FF290E416E960E406E6F
:102710007F0EE82EFED7402EFCD7412EFAD70000C0
:1027200080867C8E8EB497EF13F099EF13F092EFC2
:1027300013F080967C9E76C014F077C015F0D7EC2D
:1027400020F076C0D9FF77C0DAFF00EE2AF0070E3E
:10275000DBCFEBFFE806FCE278C032F079C033F063
:102760006DEC17F078C0D9FF79C0DAFF82C0E1FFC5
:1027700083C0E2FFDECFE6FFDDCFE5FF000120EE04
:1027800002F07851D9267951DA2210EE02F0825106
:10279000E1268351E222DECFE6FFDDCFE5FF20EE2A
:1027A00004F07851D9267951DA2210EE04F08251E2
:1027B000E1268351E222DECFE6FFDDCFE5FF290EE1
:1027C000416E960E406E7F0EE82EFED7402EFCD74F
:1027D000412EFAD7000080867C8E8EB4F2EF13F083
:1027E000F4EF13F0EDEF13F080967C9E76C014F0BA
:1027F00077C015F0D7EC20F076C0D9FF77C0DAFFAC
:1028000000EE2AF0070EDBCFEBFFE806FCE278C013
:1028100032F079C033F06DEC17F078C0D9FF79C091
:10282000DAFF84C0E1FF85C0E2FFDECFE6FFDDCF47
:10283000E5FF000120EE02F07851D9267951DA2225
:1028400010EE02F08451E1268551E222DECFE6FF50
:10285000DDCFE5FF20EE04F07851D9267951DA2258
:1028600010EE04F08451E1268551E222DECFE6FF2E
:10287000DDCFE5FF290E416E960E406E7F0EE82EED
:10288000FED7402EFCD7412EFAD7000080867C8EE2
:102890008EB44DEF14F04FEF14F048EF14F0809623
:1028A0007C9E76C014F077C015F0D7EC20F076C08F
:1028B000D9FF77C0DAFF00EE2AF0070EDBCFEBFF7F
:1028C000E806FCE278C032F079C033F06DEC17F026
:1028D00078C0D9FF79C0DAFF86C0E1FF87C0E2FF88
:1028E000DECFE6FFDDCFE5FF000120EE02F07851FC
:1028F000D9267951DA2210EE02F08651E12687516D
:10290000E222DECFE6FFDDCFE5FF20EE04F07851D6
:10291000D9267951DA2210EE04F08651E12687514A
:10292000E222DECFE6FFDDCFE5FF290E416E960EF7
:10293000406E7F0EE82EFED7402EFCD7412EFAD7F0
:10294000000080867C8E8EB4A8EF14F0AAEF14F0FD
:10295000A3EF14F080967C9E76C014F077C015F03B
:10296000D7EC20F076C0D9FF77C0DAFF00EE2AF06E
:10297000070EDBCFEBFFE806FCE278C032F079C04F
:1029800033F06DEC17F078C0D9FF79C0DAFF88C05A
:10299000E1FF89C0E2FFDECFE6FFDDCFE5FF00010A
:1029A00020EE02F07851D9267951DA2210EE02F0A9
:1029B0008851E1268951E222DECFE6FFDDCFE5FF37
:1029C00020EE04F07851D9267951DA2210EE04F085
:1029D0008851E1268951E222DECFE6FFDDCFE5FF17
:1029E000290E416E960E406E7F0EE82EFED7402EC9
:1029F000FCD7412EFAD7000080867C8E120020EE94
:102A00008CF0270EDE6AE806FDE2000E01017A6F07
:102A1000000EB26F21EE52F0270EDE6AE806FDE2EC
:102A200021EE00F0510EDE6AE806FDE2000EB36F03
:102A3000F6C0B4F0F7C0B5F0F8C0B6F0F9C0B7F022
:102A4000A4EC29F088EC29F0A2EC2AF0000E116E1B
:102A5000C70E106E24EC28F0000E0101CE6F010E9F
:102A6000CF6F010ED06FAA0ED36F0F0ED46FA60ECC
:102A7000D56F0F0ED66F000ED26FC70ED16F010E3D
:102A8000D76F000EC46F010EC56F010EC66F250E05
:102A9000C96F0F0ECA6F210ECB6F0F0ECC6F000ED9
:102AA000C86FC70EC76F000ECD6F140EB16F020E48
:102AB000B46F030E7E6F200E7D6F280EAF6F0A0E6F
:102AC000B56F010EB06F40EC29F08EB46AEF15F0CF
:102AD0006CEF15F065EF15F080967C9E7C86808209
:102AE000290E00018B6F960E8A6F7F0EE82EFED79F
:102AF0008A2FFCD78B2FFAD7BC0E0001766F010E00
:102B0000776FB60E786F010E796F7F0E7A6F010EB8
:102B10007B6F850E7C6F010E7D6F8B0E7E6F010EBD
:102B20007F6F910E806F010E816F970E826F010E85
:102B3000836F9D0E846F010E856FA30E866F010E4D
:102B4000876FA90E886F010E896F21EC12F0CE0EEF
:102B5000316E010E326EC40E336E010E346E280ECD
:102B6000356EB50E366E010E376E010E386E98EC6E
:102B70001DF0010E4FEC2AF0520E00018B6F2B0E50
:102B80008A6F000EE82EFED78A2FFCD78B2FFAD73C
:102B9000000082EC2AF0DFEC2AF0CAEC2AF0BC0E2E
:102BA000146E010E156ED7EC20F0C2C1FAF0C3C14D
:102BB000FBF02CEC27F0D00E00018A6FC90EE82E36
:102BC000FED78A2FFCD700D0CE0E236E010E246EC6
:102BD000C40E256E010E266E140E276E020E286E90
:102BE00057EC26F0DFEC2AF0000E0001F56F000E26
:102BF000F46F0001F505D8A400EF16F002EF16F00F
:102C000035EF16F0BC0E146E010E156ED7EC20F0E9
:102C1000C2C17BF1C3C17CF101017B510001FA5DAE
:102C200001017C510001FB59D8A019EF16F01BEFF0
:102C300016F02FEF16F07BC1FAF07CC1FBF02CEC04
:102C400027F0D00E00018A6FC90EE82EFED78A2F1A
:102C5000FCD700D0000E0001F56F35EF16F0010E25
:102C600001017A6F000E0001F56F01017A05D8A409
:102C70003CEF16F03EEF16F018EF17F00E01299119
:102C800000EC2AF00101B351020D000EF324D96EBD
:102C9000010EF420DA6E10C0DEFF11C0DDFFCE0E93
:102CA000236E010E246EC40E256E010E266EB4C175
:102CB00027F0D3EC25F0CE0E236E010E246EC40E49
:102CC000256E010E266EB1C127F0B4C128F0DBECF1
:102CD00019F0BC0E146E010E156ED7EC20F021EE2B
:102CE000BCF000EE2AF0070EDBCFEBFFE806FCE2BB
:102CF000B60E326E010E336E6DEC17F021EEB6F0AB
:102D000000EE14F0050EDBCFEBFFE806FCE221EE4F
:102D10007FF000EE1AF0050EDBCFEBFFE806FCE2D9
:102D200021EE85F000EE20F0050EDBCFEBFFE8068C
:102D3000FCE221EE8BF000EE26F0050EDBCFEBFF80
:102D4000E806FCE221EE91F000EE2CF0050EDBCF60
:102D5000EBFFE806FCE221EE97F000EE32F0050E04
:102D6000DBCFEBFFE806FCE221EE9DF000EE38F051
:102D7000050EDBCFEBFFE806FCE221EEA3F000EE50
:102D80003EF0050EDBCFEBFFE806FCE221EEA9F0FA
:102D900000EE44F0050EDBCFEBFFE806FCE2C4ECEE
:102DA0001BF00101B26F520EB325D96EDA6A010E23
:102DB000DA22B2C1DFFFCE0E0001606F010E616F3B
:102DC000C40E626F010E636FB2C164F0520E656F84
:102DD000010E666F000E676F010E686FB3C169F078
:102DE000B1C16AF07DC16BF07EC16CF0B4C16DF011
:102DF000AFC16EF0B5C16FF0B0C170F001EC07F07B
:102E0000BC0E146E010E156ED7EC20F0C2C1FAF0A4
:102E1000C3C1FBF02CEC27F0000E0001F56F01019F
:102E2000B32BDFEC2AF00E012981000E01017A6F2D
:102E30000001F405D8A41FEF17F021EF17F058EFA9
:102E400017F00E012991CE0E236E010E246EC40ED2
:102E5000256E010E266EB4C127F0D3EC25F0CE0E00
:102E6000326E010E336EC40E346E010E356E520E8C
:102E7000366E010E376E000E386E010E396EB3C11C
:102E80003AF0B1C13BF07DC13CF07EC13DF0B4C130
:102E90003EF0AFC13FF0B5C140F0B0C141F0CBEC66
:102EA0000EF00E012981000E0001F46F6BEF17F098
:102EB000080E0101B219D8B460EF17F062EF17F0F5
:102EC0006BEF17F0090EB219D8A469EF17F06BEF8A
:102ED00017F0F9EF15F02CEF00F02AC010F02BC01E
:102EE00011F0126A136A100E146E270E156E000E82
:102EF000166E000E176EE0EC28F010C01CF011C02A
:102F00001DF012C01EF013C01FF06C0E206E070ED5
:102F1000216E000E226E000E236E4DEC25F01CC0BB
:102F20006AF01DC06BF02CC010F02DC011F0126AB9
:102F3000136A100E146E270E156E000E166E000E1C
:102F4000176EE0EC28F010C01CF011C01DF012C08C
:102F50001EF013C01FF0780E206E050E216E000EBD
:102F6000226E000E236E4DEC25F01CC072F01DC0C9
:102F700073F02EC010F02FC011F0126A136A100EF9
:102F8000146E270E156E000E166E000E176EE0EC16
:102F900028F010C01CF011C01DF012C01EF013C0AC
:102FA0001FF0400E206E060E216E000E226E000EE7
:102FB000236E4DEC25F01CC074F01DC075F072C07E
:102FC00010F073C011F074C012F075C013F0D5EC9E
:102FD00029F010C066F011C067F06AC010F06BC035
:102FE00011F066C012F067C013F0D5EC29F010C0E4
:102FF0006CF011C06DF072C010F073C011F074C0AD
:1030000012F075C013F0BFEC29F010C068F011C0C9
:1030100069F06AC010F06BC011F068C012F069C0AE
:1030200013F0BFEC29F010C064F011C065F000018E
:1030300064516C5D346E65516D59356E34C06EF0FF
:1030400035C06FF0706B716B6A516C1907E16B5191
:103050006D19D8A42EEF18F030EF18F0D7EF18F054
:103060007251745D73517559D8B039EF18F03BEF58
:1030700018F06DEF18F07451725D346E755173591C
:10308000356E34C010F035C011F0126A136A700E3C
:10309000146E170E156E000E166E000E176EE0EC15
:1030A00028F010C01CF011C01DF012C01EF013C09B
:1030B0001FF06EC020F06FC021F070C022F071C010
:1030C00023F0D2EC27F032C0D9FF33C0DAFF1CC0A6
:1030D000DEFF1DC0DDFF8FEF19F07451725D755179
:1030E0007359D8B076EF18F078EF18F08FEF19F029
:1030F0007451346E7551356E366A376A6EC010F091
:103100006FC011F070C012F071C013F0060E146E93
:10311000000E156E000E166E000E176EE0EC28F015
:10312000000172511024386E73511120396E000E57
:1031300012203A6E000E13203B6E3450385C606FE4
:1031400035503958616F36503A58626F37503B5896
:10315000636F60C010F061C011F062C012F063C014
:1031600013F0700E146E170E156E000E166E000E14
:10317000176EE0EC28F010C01CF011C01DF012C05A
:103180001EF013C01FF06EC020F06FC021F070C0A1
:1031900022F071C023F0D2EC27F032C0D9FF33C047
:1031A000DAFF1CC0DEFF1DC0DDFF8FEF19F072518A
:1031B0006C1907E173516D19D8A4E1EF18F0E3EF32
:1031C00018F030EF19F06A51346E6B51356E366A73
:1031D000376AD8906E35386E6F35396E70353A6E05
:1031E00071353B6E745138243C6E755139203D6EFB
:1031F000000E3A203E6E000E3B203F6E34503C5C89
:10320000106E35503D58116E36503E58126E375084
:103210003F58136E700E146E170E156E000E166E5C
:10322000000E176EE0EC28F010C01CF011C01DF06D
:1032300012C01EF013C01FF06EC020F06FC021F04E
:1032400070C022F071C023F0D2EC27F032C0D9FF59
:1032500033C0DAFF1CC0DEFF1DC0DDFF8FEF19F0A9
:1032600074516C1907E175516D19D8A43AEF19F032
:103270003CEF19F08FEF19F07251346E7351356EC7
:10328000366A376A6EC038F06FC039F070C03AF0F5
:1032900071C03BF0020ED890383639363A363B369C
:1032A000E82E4BEF19F06A5138243C6E6B513920EF
:1032B0003D6E000E3A203E6E000E3B203F6E3450B5
:1032C0003C5C106E35503D58116E36503E58126EB3
:1032D00037503F58136E700E146E170E156E000E99
:1032E000166E000E176EE0EC28F010C01CF011C036
:1032F0001DF012C01EF013C01FF06EC020F06FC092
:1033000021F070C022F071C023F0D2EC27F032C05F
:10331000D9FF33C0DAFF1CC0DEFF1DC0DDFF6EC069
:1033200010F06FC011F070C012F071C013F0100EE9
:10333000146E270E156E000E166E000E176EE0EC62
:1033400028F010C01CF011C01DF012C01EF013C0F8
:103350001FF06CC020F06DC021F0226A236AD2EC0D
:1033600027F020EE02F03250D9263350DA221CC06A
:10337000DEFF1DC0DDFF20EE02F03250D9263350B3
:10338000DA22DE50DE10D8A4C8EF19F0CAEF19F027
:10339000D0EF19F032C0D9FF33C0DAFFDE6ADD6A40
:1033A00020EE04F03250D9263350DA226CC0DEFF12
:1033B0006DC0DDFF1200780E2C6E140E2D6E280EDF
:1033C0002E6E20EE01F02350D9262450DA22010E71
:1033D000DF6E20EE01F02550D9262650DA22010EAC
:1033E000DF6E000E326E010E316E41EF1AF020EEEC
:1033F00009F02350D9262450DA22DF50312423C08B
:10340000D9FF24C0DAFFDF6E20EE09F02550D9265F
:103410002650DA22DF50312425C0D9FF26C0DAFF3A
:10342000DF6E23C01DF024C01EF097EC24F025C0F1
:103430001DF026C01EF097EC24F0000E306E000E3A
:103440002F6E2DEF1AF0680E296EE40EE82EFED7CF
:10345000292EFCD700D02F4A302A2850296E2A6AFC
:1034600029502F5C3050800A2B6E2A50800A2B582E
:10347000D8A03DEF1AF03FEF1AF023EF1AF0314ACF
:10348000322A2E50296E2A6A3150295C2A50800A2D
:103490002B6E3250800A2B58D8B051EF1AF053EFF0
:1034A0001AF0F7EF19F0000E306E000E2F6E63EF7A
:1034B0001AF0680E296EE40EE82EFED7292EFCD7EE
:1034C00000D02F4A302A2C50296E2A6A29502F5CAE
:1034D0003050800A2B6E2A50800A2B58D8A073EFE8
:1034E0001AF075EF1AF059EF1AF02EC031F0326A67
:1034F00032BE7FEF1AF07DEF1AF081EF1AF0CEEFB7
:103500001AF020EE09F02350D9262450DA22DF5099
:10351000312423C0D9FF24C0DAFFDF6E20EE09F08A
:103520002550D9262650DA22DF50312425C0D9FF74
:1035300026C0DAFFDF6E23C01DF024C01EF097EC1A
:1035400024F025C01DF026C01EF097EC24F0000EDC
:10355000306E000E2F6EB7EF1AF0680E296EE40E73
:10356000E82EFED7292EFCD700D02F4A302A28502B
:10357000296E2A6A29502F5C3050800A2B6E2A50FF
:10358000800A2B58D8A0C7EF1AF0C9EF1AF0ADEF98
:103590001AF03106D8A0320678EF1AF020EE01F0CA
:1035A0002350D9262450DA22DF6A20EE01F025507C
:1035B000D9262650DA22DF6A000E326E010E316EF5
:1035C0002CEF1BF020EE09F02350D9262450DA22EC
:1035D000DF50312423C0D9FF24C0DAFFDF6E20EE94
:1035E00009F02550D9262650DA22DF50312425C093
:1035F000D9FF26C0DAFFDF6E23C01DF024C01EF005
:1036000097EC24F025C01DF026C01EF097EC24F0A6
:10361000000E306E000E2F6E18EF1BF0680E296E34
:10362000E40EE82EFED7292EFCD700D02F4A302AF0
:103630002850296E2A6A29502F5C3050800A2B6E40
:103640002A50800A2B58D8A028EF1BF02AEF1BF035
:103650000EEF1BF0314A322A2750296E2A6A315068
:10366000295C2A50800A2B6E3250800A2B58D8B021
:103670003CEF1BF03EEF1BF0E2EF1AF0000E306E55
:10368000000E2F6E4EEF1BF0680E296EE40EE82E32
:10369000FED7292EFCD700D02F4A302A2D50296E74
:1036A0002A6A29502F5C3050800A2B6E2A50800ADB
:1036B0002B58D8A05EEF1BF060EF1BF044EF1BF01F
:1036C00027C031F0326A32BE6AEF1BF068EF1BF0A0
:1036D0006CEF1BF0B9EF1BF020EE09F02350D92658
:1036E0002450DA22DF50312423C0D9FF24C0DAFF6E
:1036F000DF6E20EE09F02550D9262650DA22DF5061
:10370000312425C0D9FF26C0DAFFDF6E23C01DF0AB
:1037100024C01EF097EC24F025C01DF026C01EF03A
:1037200097EC24F0000E306E000E2F6EA2EF1BF00F
:10373000680E296EE40EE82EFED7292EFCD700D0A5
:103740002F4A302A2850296E2A6A29502F5C30507F
:10375000800A2B6E2A50800A2B58D8A0B2EF1BF09B
:10376000B4EF1BF098EF1BF03106D8A0320663EFE0
:103770001BF023C0D9FF24C0DAFFDF6A25C0D9FFC0
:1037800026C0DAFFDF6A1200090E4A6E20C010F070
:1037900021C011F03EC012F03FC013F0BFEC29F081
:1037A000300E10240001606FF80E1120616F14506C
:1037B000605D15506159D8B0E0EF1BF0E2EF1BF0EF
:1037C00019EF1CF020C010F021C011F03EC012F023
:1037D0003FC013F0D5EC29F0D00E10240001606F2B
:1037E000070E1120616F6051145C61511558D8B0FB
:1037F000FCEF1BF0FEEF1BF019EF1CF0E80E40246D
:10380000606F030E4120616F1650605D1750615963
:10381000D8B00DEF1CF00FEF1CF013EF1CF0020EF0
:103820004A6EDAEF1CF0070E4A6EDAEF1CF0DAEFA0
:103830001CF0480E2624606FF40E2720616F145090
:10384000605D15506159D8B028EF1CF02AEF1CF0CC
:103850003FEF1CF0B80E2624606F0B0E2720616F1F
:103860006051145C61511558D8B039EF1CF03BEF32
:103870001CF03FEF1CF0030E4A6EDAEF1CF02CC078
:1038800010F02DC011F032C012F033C013F0BFECB5
:1038900029F0180E10240001606FFC0E1120616FDA
:1038A0001450605D15506159D8B059EF1CF05BEFB2
:1038B0001CF090EF1CF02CC010F02DC011F032C0A5
:1038C00012F033C013F0D5EC29F0E80E10240001FB
:1038D000606F030E1120616F6051145C61511558C7
:1038E000D8B075EF1CF077EF1CF090EF1CF0F40EE1
:1038F0003424606F010E3520616F1650605D1750E3
:103900006159D8B086EF1CF088EF1CF08CEF1CF0EA
:10391000040E4A6EDAEF1CF0050E4A6EDAEF1CF068
:103920000C0E3824606FFE0E3920616F1450605DFC
:1039300015506159D8B09FEF1CF0A1EF1CF0B6EF05
:103940001CF0F40E3824606F010E3920616F605155
:10395000145C61511558D8B0B0EF1CF0B2EF1CF0F8
:10396000B6EF1CF0060E4A6EDAEF1CF00C0E442483
:10397000606FFE0E4520616F1450605D15506159F7
:10398000D8B0C5EF1CF0C7EF1CF017EF1CF0F40E19
:103990004424606F010E4520616F6051145C6151D9
:1039A0001558D8B0D6EF1CF0D8EF1CF017EF1CF06C
:1039B000080E4A6E310E1A5C750E1B58D8A0E3EF44
:1039C0001CF0E5EF1CF039EF1DF0180E1A24606FA3
:1039D000FC0E1B20616F1450605D15506159D8B00A
:1039E000F4EF1CF0F6EF1CF001EF1DF0A00E145CDC
:1039F0008C0E1558D8A0FFEF1CF001EF1DF037EF2B
:103A00001DF014501510D8B408EF1DF00AEF1DF08A
:103A100039EF1DF0E80E1A24606F030E1B20616F52
:103A2000626B636B600E6025646F730E6121656F5E
:103A3000FF0E6221666FFF0E6321676F1450686F7F
:103A40001550696F6A6B6B6B6451685D655169599C
:103A500066516A596B51800A6C6F6751800A6C59C4
:103A6000D8B035EF1DF037EF1DF039EF1DF0010E26
:103A70004A6E100E1A5C270E1B58D8B042EF1DF08C
:103A800044EF1DF096EF1DF01450606F1550616FFC
:103A9000626B636B1A50646F1B50656F666B676B6C
:103AA000B80E6425686F880E6521696F000E662167
:103AB0006A6F000E67216B6F6051685D61516959D3
:103AC00062516A596B51800A6C6F6351800A6C595C
:103AD000D8B06DEF1DF06FEF1DF07AEF1DF0A00E66
:103AE000145C8C0E1558D8A078EF1DF07AEF1DF0FD
:103AF00094EF1DF014501510D8B481EF1DF083EF32
:103B00001DF096EF1DF0E80E1A24606F030E1B20C7
:103B1000616F6051145C61511558D8B092EF1DF07F
:103B200094EF1DF096EF1DF0010E4A6E4A50120000
:103B300031C023F032C024F033C025F034C026F069
:103B400035C027F036C0D9FF37C0DAFFDF50286E06
:103B500038C029F0AAEC23F0050E3A6E0F0E396E2C
:103B6000F10EE82EFED7392EFCD73A2EFAD70000F8
:103B700031C023F032C024F033C025F034C026F029
:103B800035C027F036C0D9FF37C0DAFFDF50286EC6
:103B900038C029F0AAEC23F0050E3A6E0F0E396EEC
:103BA000F10EE82EFED7392EFCD73A2EFAD70000B8
:103BB00031C023F032C024F033C025F034C026F0E9
:103BC00035C027F036C0D9FF37C0DAFFDF50286E86
:103BD00038C029F0BDEC22F0050E3A6E0F0E396E9A
:103BE000F10EE82EFED7392EFCD73A2EFAD7000078
:103BF00031C023F032C024F033C025F034C026F0A9
:103C000035C027F036C0D9FF37C0DAFFDF50286E45
:103C100038C029F0BDEC22F08EA411EF1EF013EF96
:103C20001EF01AEF1EF08EB618EF1EF01AEF1EF0FF
:103C30000CEF1EF08EB41FEF1EF021EF1EF035EFDB
:103C40001EF036C0D9FF37C0DAFFDF50D8B42BEFF3
:103C50001EF02DEF1EF035EF1EF036C0D9FF37C035
:103C6000DAFFDF067C8E42EF1EF08EB63AEF1EF0D2
:103C70003CEF1EF042EF1EF036C0D9FF37C0DAFF2E
:103C8000DF2A8086290E3A6E960E396E7F0EE82E58
:103C9000FED7392EFCD73A2EFAD700008EB653EF56
:103CA0001EF055EF1EF05CEF1EF036C0D9FF37C096
:103CB000DAFFDF06D4EF1EF080967C9E31C023F041
:103CC00032C024F033C025F034C026F035C027F0D0
:103CD00036C0D9FF37C0DAFFDF50286E38C029F070
:103CE000AAEC23F0050E3A6E0F0E396EF10EE82E97
:103CF000FED7392EFCD73A2EFAD7000031C023F078
:103D000032C024F033C025F034C026F035C027F08F
:103D100036C0D9FF37C0DAFFDF50286E38C029F02F
:103D2000AAEC23F0050E3A6E0F0E396EF10EE82E56
:103D3000FED7392EFCD73A2EFAD7000031C023F037
:103D400032C024F033C025F034C026F035C027F04F
:103D500036C0D9FF37C0DAFFDF50286E38C029F0EF
:103D6000BDEC22F0050E3A6E0F0E396EF10EE82E04
:103D7000FED7392EFCD73A2EFAD7000031C023F0F7
:103D800032C024F033C025F034C026F035C027F00F
:103D900036C0D9FF37C0DAFFDF50286E38C029F0AF
:103DA000BDEC22F00CEF1EF080867C8E090E3A6E80
:103DB0001E0E396EE40EE82EFED7392EFCD73A2EB1
:103DC000FAD700D080967C9E12003C0E2C6E280EF6
:103DD0002D6E20EE01F02350D9262450DA22DF6A1E
:103DE00020EE01F02550D9262650DA22DF6A000E97
:103DF000316E010E306E47EF1FF020EE09F02350B8
:103E0000D9262450DA22DF50302423C0D9FF24C021
:103E1000DAFFDF6E20EE09F02550D9262650DA228F
:103E2000DF50302425C0D9FF26C0DAFFDF6E23C063
:103E30001DF024C01EF097EC24F025C01DF026C014
:103E40001EF097EC24F0000E2F6E000E2E6E33EF56
:103E50001FF0680E296EE40EE82EFED7292EFCD73F
:103E600000D02E4A2F2A2850296E2A6A29502E5C0B
:103E70002F50800A2B6E2A50800A2B58D8A043EF6F
:103E80001FF045EF1FF029EF1FF0304A312A2D5067
:103E9000296E2A6A3050295C2A50800A2B6E3150D4
:103EA000800A2B58D8B057EF1FF059EF1FF0FDEFE5
:103EB0001EF0000E2F6E000E2E6E69EF1FF0680EC2
:103EC000296EE40EE82EFED7292EFCD700D02E4A0C
:103ED0002F2A2C50296E2A6A29502E5C2F50800AD6
:103EE0002B6E2A50800A2B58D8A079EF1FF07BEF59
:103EF0001FF05FEF1FF02DC030F0316A31BE85EF4B
:103F00001FF083EF1FF087EF1FF0D4EF1FF020EEBC
:103F100009F02350D9262450DA22DF50302423C060
:103F2000D9FF24C0DAFFDF6E20EE09F02550D92634
:103F30002650DA22DF50302425C0D9FF26C0DAFF10
:103F4000DF6E23C01DF024C01EF097EC24F025C0C6
:103F50001DF026C01EF097EC24F0000E2F6E000E10
:103F60002E6EBDEF1FF0680E296EE40EE82EFED710
:103F7000292EFCD700D02E4A2F2A2850296E2A6AD3
:103F800029502E5C2F50800A2B6E2A50800A2B5805
:103F9000D8A0CDEF1FF0CFEF1FF0B3EF1FF030062A
:103FA000D8A031067EEF1FF023C0D9FF24C0DAFF6E
:103FB000DF6A25C0D9FF26C0DAFFDF6A12001E0EB5
:103FC0002C6E20EE01F02350D9262450DA22DF6A2D
:103FD00020EE01F02550D9262650DA22DF6A000EA5
:103FE000306E010E2F6E3FEF20F020EE09F02350CF
:103FF000D9262450DA22DF502F2423C0D9FF24C031
:10400000DAFFDF6E20EE09F02550D9262650DA229D
:10401000DF502F2425C0D9FF26C0DAFFDF6E23C072
:104020001DF024C01EF097EC24F025C01DF026C022
:104030001EF097EC24F0000E2E6E000E2D6E2BEF6E
:1040400020F0680E296EE40EE82EFED7292EFCD74C
:1040500000D02D4A2E2A2850296E2A6A29502D5C1C
:104060002E50800A2B6E2A50800A2B58D8A03BEF86
:1040700020F03DEF20F021EF20F02F4A302A27508A
:10408000296E2A6A2F50295C2A50800A2B6E3050E4
:10409000800A2B58D8B04FEF20F051EF20F0F5EF09
:1040A0001FF0000E2E6E000E2D6E61EF20F0680ED8
:1040B000296EE40EE82EFED7292EFCD700D02D4A1B
:1040C0002E2A2C50296E2A6A29502D5C2E50800AE7
:1040D0002B6E2A50800A2B58D8A071EF20F073EF76
:1040E00020F057EF20F027C02FF0306A30BE7DEF70
:1040F00020F07BEF20F07FEF20F0CCEF20F020EEDF
:1041000009F02350D9262450DA22DF502F2423C06F
:10411000D9FF24C0DAFFDF6E20EE09F02550D92642
:104120002650DA22DF502F2425C0D9FF26C0DAFF1F
:10413000DF6E23C01DF024C01EF097EC24F025C0D4
:104140001DF026C01EF097EC24F0000E2E6E000E1F
:104150002D6EB5EF20F0680E296EE40EE82EFED726
:10416000292EFCD700D02D4A2E2A2850296E2A6AE3
:1041700029502D5C2E50800A2B6E2A50800A2B5815
:10418000D8A0C5EF20F0C7EF20F0ABEF20F02F064E
:10419000D8A0300676EF20F023C0D9FF24C0DAFF84
:1041A000DF6A25C0D9FF26C0DAFFDF6A1200E9EC1A
:1041B0002AF0520ED3EC2AF0B60ED3EC2AF0EEEC35
:1041C0002AF0530ED3EC2AF0010E67EC29F0166E9C
:1041D000176A14C0D9FF15C0DAFF16C0DEFF17C07A
:1041E000DDFF14C0D9FF15C0DAFFDECF16F0DDCF3A
:1041F00017F0000E67EC29F0186E18501A6E196A45
:10420000165019101B6E17501A101C6E14C0D9FFCF
:1042100015C0DAFF1BC0DEFF1CC0DDFFE4EC2AF096
:10422000E9EC2AF0520ED3EC2AF0B80ED3EC2AF0C7
:10423000EEEC2AF0530ED3EC2AF0010E67EC29F0D5
:10424000166E176A20EE02F01450D9261550DA22A5
:1042500016C0DEFF17C0DDFF20EE02F01450D92695
:104260001550DA22DECF16F0DDCF17F0000E67EC26
:1042700029F0186E18501A6E196A165019101B6E14
:1042800017501A101C6E20EE02F01450D92615504B
:10429000DA221BC0DEFF1CC0DDFFE4EC2AF0E9ECF3
:1042A0002AF0520ED3EC2AF0BA0ED3EC2AF0EEEC40
:1042B0002AF0530ED3EC2AF0010E67EC29F0166EAB
:1042C000176A20EE04F01450D9261550DA2216C0D1
:1042D000DEFF17C0DDFF20EE04F01450D926155084
:1042E000DA22DECF16F0DDCF17F0000E67EC29F0F2
:1042F000186E18501A6E196A165019101B6E175046
:104300001A101C6E20EE04F01450D9261550DA2233
:104310001BC0DEFF1CC0DDFFE4EC2AF0E9EC2AF054
:10432000520ED3EC2AF0B40ED3EC2AF0EEEC2AF0C5
:10433000530ED3EC2AF0010E67EC29F0166E176AC3
:1043400020EE06F01450D9261550DA2216C0DEFFF2
:1043500017C0DDFF20EE06F01450D9261550DA22E2
:10436000DECF16F0DDCF17F0000E67EC29F0186EE7
:1043700018501A6E196A165019101B6E17501A1021
:104380001C6E20EE06F01450D9261550DA221BC000
:10439000DEFF1CC0DDFFE4EC2AF0120020EE01F08D
:1043A0002350D9262450DA22DF6A20EE01F025506E
:1043B000D9262650DA22DF6A000E316E010E306EE9
:1043C0002CEF22F020EE09F02350D9262450DA22D7
:1043D000DF50302423C0D9FF24C0DAFFDF6E20EE87
:1043E00009F02550D9262650DA22DF50302425C086
:1043F000D9FF26C0DAFFDF6E23C01DF024C01EF0F7
:1044000097EC24F025C01DF026C01EF097EC24F098
:10441000000E2F6E000E2E6E18EF22F0680E2B6E1F
:10442000E40EE82EFED72B2EFCD700D02E4A2F2AE2
:104430002A502B6E2C6A2B502E5C2F50800A2D6E2A
:104440002C50800A2D58D8A028EF22F02AEF22F015
:104450000EEF22F0304A312A27502B6E2C6A305052
:104460002B5C2C50800A2D6E3150800A2D58D8B00C
:104470003CEF22F03EEF22F0E2EF21F0000E2F6E33
:10448000000E2E6E4EEF22F0680E2B6EE40EE82E1C
:10449000FED72B2EFCD700D02E4A2F2A28502E5C78
:1044A00029502F58D8A057EF22F059EF22F044EFAF
:1044B00022F027C030F0316A31BE63EF22F061EFA5
:1044C00022F065EF22F0B2EF22F020EE09F0235047
:1044D000D9262450DA22DF50302423C0D9FF24C04B
:1044E000DAFFDF6E20EE09F02550D9262650DA22B9
:1044F000DF50302425C0D9FF26C0DAFFDF6E23C08D
:104500001DF024C01EF097EC24F025C01DF026C03D
:104510001EF097EC24F0000E2F6E000E2E6E9BEF17
:1045200022F0680E2B6EE40EE82EFED72B2EFCD761
:1045300000D02E4A2F2A2A502B6E2C6A2B502E5C2C
:104540002F50800A2D6E2C50800A2D58D8A0ABEF2A
:1045500022F0ADEF22F091EF22F03006D8A0310624
:104560005CEF22F023C0D9FF24C0DAFFDF6A25C048
:10457000D9FF26C0DAFFDF6A120020EE01F02350D7
:10458000D9262450DA22010EDF6E20EE01F02550EC
:10459000D9262650DA22DF6A000E306E010E2F6E09
:1045A0001CEF23F020EE09F02350D9262450DA2204
:1045B000DF502F2423C0D9FF24C0DAFFDF6E20EEA6
:1045C00009F02550D9262650DA22DF502F2425C0A5
:1045D000D9FF26C0DAFFDF6E23C01DF024C01EF015
:1045E00097EC24F025C01DF026C01EF097EC24F0B7
:1045F000000E2E6E000E2D6E08EF23F0680E2A6E50
:10460000E40EE82EFED72A2EFCD700D02D4A2E2A03
:1046100029502A6E2B6A2A502D5C2E50800A2C6E4F
:104620002B50800A2C58D8A018EF23F01AEF23F053
:10463000FEEF22F02F4A302A27502A6E2B6A2F5085
:104640002A5C2B50800A2C6E3050800A2C58D8B02F
:104650002CEF23F02EEF23F0D2EF22F0000E2E6E7F
:10466000000E2D6E3EEF23F0680E2A6EE40EE82E4B
:10467000FED72A2EFCD700D02D4A2E2A28502A6E8B
:104680002B6A2A502D5C2E50800A2C6E2B50800AEB
:104690002C58D8A04EEF23F050EF23F034EF23F046
:1046A00027C02FF0306A30BE5AEF23F058EF23F0C6
:1046B0005CEF23F0A9EF23F020EE09F02350D92678
:1046C0002450DA22DF502F2423C0D9FF24C0DAFF80
:1046D000DF6E20EE09F02550D9262650DA22DF5071
:1046E0002F2425C0D9FF26C0DAFFDF6E23C01DF0BE
:1046F00024C01EF097EC24F025C01DF026C01EF04B
:1047000097EC24F0000E2E6E000E2D6E92EF23F02B
:10471000680E2A6EE40EE82EFED72A2EFCD700D0B3
:104720002D4A2E2A29502A6E2B6A2A502D5C2E5093
:10473000800A2C6E2B50800A2C58D8A0A2EF23F0B0
:10474000A4EF23F088EF23F02F06D8A0300653EF14
:1047500023F0120020EE01F02350D9262450DA2253
:10476000DF6A20EE01F02550D9262650DA22010E0C
:10477000DF6E000E306E010E2F6E09EF24F020EE7A
:1047800009F02350D9262450DA22DF502F2423C0E9
:10479000D9FF24C0DAFFDF6E20EE09F02550D926BC
:1047A0002650DA22DF502F2425C0D9FF26C0DAFF99
:1047B000DF6E23C01DF024C01EF097EC24F025C04E
:1047C0001DF026C01EF097EC24F0000E2E6E000E99
:1047D0002D6EF5EF23F0680E2A6EE40EE82EFED75C
:1047E0002A2EFCD700D02D4A2E2A29502A6E2B6A59
:1047F0002A502D5C2E50800A2C6E2B50800A2C588B
:10480000D8A005EF24F007EF24F0EBEF23F02F4AB8
:10481000302A27502A6E2B6A2F502A5C2B50800A90
:104820002C6E3050800A2C58D8B019EF24F01BEFB2
:1048300024F0BFEF23F0000E2E6E000E2D6E2BEF36
:1048400024F0680E2A6EE40EE82EFED72A2EFCD73E
:1048500000D02D4A2E2A28502A6E2B6A2A502D5C11
:104860002E50800A2C6E2B50800A2C58D8A03BEF7B
:1048700024F03DEF24F021EF24F027C02FF0306A20
:1048800030BE47EF24F045EF24F049EF24F096EFD7
:1048900024F020EE09F02350D9262450DA22DF50EC
:1048A0002F2423C0D9FF24C0DAFFDF6E20EE09F0E9
:1048B0002550D9262650DA22DF502F2425C0D9FFD3
:1048C00026C0DAFFDF6E23C01DF024C01EF097EC77
:1048D00024F025C01DF026C01EF097EC24F0000E39
:1048E0002E6E000E2D6E7FEF24F0680E2A6EE40E01
:1048F000E82EFED72A2EFCD700D02D4A2E2A29508A
:104900002A6E2B6A2A502D5C2E50800A2C6E2B505A
:10491000800A2C58D8A08FEF24F091EF24F075EF87
:1049200024F02F06D8A0300640EF24F0120020EE2D
:1049300002F01D50D9261E50DA22DF50D8B4A3EF62
:1049400024F0A5EF24F0D9EF24F01DC0D9FF1EC03C
:10495000DAFFDF501F6E1F50106E116A20EE03F059
:104960001D50D9261E50DA22DECF12F0DDCF13F013
:104970003CEC2AF010C016F011C017F0000E196EB2
:10498000640E186E6CEC28F020EE03F01D50D92652
:104990001E50DA22DF50206E1650205C216E20EE71
:1049A00003F01D50D9261E50DA22DF50226EFCEF94
:1049B00024F0000E216E1DC0D9FF1EC0DAFFDF50AB
:1049C0001F6E1F50106E116A20EE03F01D50D92685
:1049D0001E50DA22DECF12F0DDCF13F03CEC2AF0CD
:1049E00010C016F011C017F0000E196E640E186E8C
:1049F0006CEC28F01650226E20EE01F01D50D926E6
:104A00001E50DA22DF50D8B408EF25F00AEF25F067
:104A10002CEF25F020EE05F01D50D9261E50DA228D
:104A2000DECF1FF0DDCF20F01FC0D9FF20C0DAFF9E
:104A300021C0DFFF20EE07F01D50D9261E50DA22DC
:104A4000DECF1FF0DDCF20F01FC0D9FF20C0DAFF7E
:104A500022C0DFFF4CEF25F020EE05F01D50D926D7
:104A60001E50DA22DECF1FF0DDCF20F01FC0D9FFAD
:104A700020C0DAFF22C0DFFF20EE07F01D50D9264C
:104A80001E50DA22DECF1FF0DDCF20F01FC0D9FF8D
:104A900020C0DAFF21C0DFFF1200000E256E23BE0A
:104AA00056EF25F054EF25F060EF25F0231E221E6F
:104AB000211E206C000E212222222322010E256EAF
:104AC0001FBE67EF25F065EF25F071EF25F01F1E83
:104AD0001E1E1D1E1C6C000E1D221E221F22010EFA
:104AE000251A000E266E000E276E000E286E000E90
:104AF000296E2050211022102310D8B482EF25F007
:104B000084EF25F0BAEF25F0010E246E8EEF25F02C
:104B1000D8902036213622362336242A23AE93EF2E
:104B200025F095EF25F088EF25F0D890263627362A
:104B30002836293620501C5C21501D5822501E5802
:104B400023501F58D8A0A7EF25F0A9EF25F0B2EF0A
:104B500025F020501C5E21501D5A22501E5A235011
:104B60001F5A2680D8902332223221322032242E1E
:104B700095EF25F02550D8B4C0EF25F0C2EF25F011
:104B8000CAEF25F0291E281E271E266C000E27229C
:104B90002822292226C01CF027C01DF028C01EF0A4
:104BA00029C01FF0120020EE01F02350D926245016
:104BB000DA22010EDF6E20EE01F02550D9262650B4
:104BC000DA22010EDF6E23C0D9FF24C0DAFFDF50E6
:104BD000286E20EE09F02350D9262450DA22DF5027
:104BE000296E2950285C2D6E2E6AD8A02E062EBE66
:104BF000FEEF25F0FCEF25F000EF26F04CEF26F05D
:104C000020EE09F02350D9262450DA22DF502D243B
:104C100023C0D9FF24C0DAFFDF6E20EE09F0255053
:104C2000D9262650DA22DF502D2425C0D9FF26C0F0
:104C3000DAFFDF6E23C01DF024C01EF097EC24F0D5
:104C400025C01DF026C01EF097EC24F0000E2C6E3F
:104C5000000E2B6E35EF26F0D00E286ECA0EE82E11
:104C6000FED7282EFCD72B4A2C2A2750286E296ADB
:104C700028502B5C2C50800A2A6E2950800A2A5812
:104C8000D8A045EF26F047EF26F02CEF26F02D06B2
:104C9000D8A02E06F7EF25F023C0D9FF24C0DAFFF5
:104CA000DF6A25C0D9FF26C0DAFFDF6A120020EED6
:104CB00001F02350D9262450DA22010EDF6E20EEB7
:104CC00001F02550D9262650DA22010EDF6E000EA3
:104CD0002F6E010E2E6EB7EF26F020EE09F0235056
:104CE000D9262450DA22DF502E2423C0D9FF24C035
:104CF000DAFFDF6E20EE09F02550D9262650DA22A1
:104D0000DF502E2425C0D9FF26C0DAFFDF6E23C076
:104D10001DF024C01EF097EC24F025C01DF026C025
:104D20001EF097EC24F0000E2D6E000E2C6EA3EFFB
:104D300026F0680E296EE40EE82EFED7292EFCD749
:104D400000D02C4A2D2A2850296E2A6A29502C5C22
:104D50002D50800A2B6E2A50800A2B58D8A0B3EF12
:104D600026F0B5EF26F099EF26F02E4A2F2A27508D
:104D7000296E2A6A2E50295C2A50800A2B6E2F50E9
:104D8000800A2B58D8B0C7EF26F0C9EF26F06DEF98
:104D900026F01200000E156E13BED3EF26F0D1EFF1
:104DA00026F0D9EF26F0126C131ED8B0132A010E8C
:104DB000156E11BEE0EF26F0DEEF26F0E6EF26F0EE
:104DC000106C111ED8B0112A010E151A000E176EA4
:104DD000000E166E12501310D8B4F1EF26F0F3EF58
:104DE00026F01BEF27F0010E146EFBEF26F0D89093
:104DF00012361336142A13AE00EF27F002EF27F015
:104E0000F7EF26F0D890163617361250105C135074
:104E10001158D8A00EEF27F010EF27F015EF27F06C
:104E20001250105E1350115A1680D890133212325D
:104E3000142E02EF27F01550D8B421EF27F023EFFE
:104E400027F027EF27F0166C171ED8B0172A16C0C8
:104E500010F017C011F01200E9EC2AF0520ED3EC5A
:104E60002AF0E60ED3EC2AF0E4EC2AF0FAC016F0B1
:104E7000FBC017F0000E196E030E186E6CEC28F0D4
:104E80000001FA5116241E6EFB5117201F6EFAC046
:104E900016F0FBC017F0000E196E140E186E6CECB5
:104EA00028F016500001FA5D206E1750FB59216E54
:104EB000130E126E000E72EC2AF03F0E1D6E550E90
:104EC000E82EFED71D2EFCD700001F50126E070ED5
:104ED00072EC2AF01EC012F0060E72EC2AF021507D
:104EE000126E050E72EC2AF020C012F0040E72EC65
:104EF0002AF0030E126E0C0E72EC2AF01200F8EC7F
:104F00002AF0520ED9EC2AF0E60ED9EC2AF0F3EC96
:104F10002AF0FAC001F0FBC002F0000E046E030E8E
:104F2000036EA6EC28F00001FA510124096EFB5132
:104F300002200A6EFAC001F0FBC002F0000E046EFF
:104F4000140E036EA6EC28F001500001FA5D0B6E02
:104F50000250FB590C6E130E036E000E92EC2AF0F9
:104F60003F0E086E550EE82EFED7082EFCD7000027
:104F70000A50036E070E92EC2AF009C003F0060EE9
:104F800092EC2AF00C50036E050E92EC2AF00BC046
:104F900003F0040E92EC2AF0030E036E0C0E92EC5A
:104FA0002AF01200000E246E000E256E000E266EF2
:104FB000000E276E2050211022102310D8B4E3EFEA
:104FC00027F0E5EF27F01BEF28F0010E286EEFEF3A
:104FD00027F0D8902036213622362336282A23AED1
:104FE000F4EF27F0F6EF27F0E9EF27F0D89024361A
:104FF00025362636273620501C5C21501D5822505D
:105000001E5823501F58D8A008EF28F00AEF28F0A8
:1050100013EF28F020501C5E21501D5A22501E5ABA
:1050200023501F5A2480D89023322232213220323A
:10503000282EF6EF27F024C01CF025C01DF026C056
:105040001EF027C01FF012007D9485947D988598EE
:105050007B9E839E7F9C879C050E0E01746F060EBF
:10506000766F070E696F080E886FBD508F0B300981
:10507000BD6EE00EBE16BF50F00B0109BF6E10C032
:10508000BCFFBD8E000EAA6E000EA66E000E0F01B4
:10509000256F000E216FFC0EAD16F30EAD16CF0E70
:1050A000AD163F0EAD16AB88AB50F00B0C09AB6ED6
:1050B000AB8EA788A750F00B0C09A76EA78E268988
:1050C0002651F00B0C09266F268F22892251F00BF6
:1050D0000C09226F228F1200000E1B6E000E1A6E3A
:1050E00018501910D8B477EF28F079EF28F0A1EF15
:1050F00028F0010E1C6E81EF28F0D8901836193672
:105100001C2A19AE86EF28F088EF28F07DEF28F0F2
:10511000D8901A361B361850165C19501758D8A05C
:1051200094EF28F096EF28F09BEF28F01850165EC9
:105130001950175A1A80D890193218321C2E88EF3D
:1051400028F01AC016F01BC017F01200000E066EF1
:10515000000E056E03500410D8B4B1EF28F0B3EF81
:1051600028F0DBEF28F0010E076EBBEF28F0D89097
:1051700003360436072A04AEC0EF28F0C2EF28F049
:10518000B7EF28F0D890053606360350015C04507E
:105190000258D8A0CEEF28F0D0EF28F0D5EF28F0B5
:1051A0000350015E0450025A0580D8900432033245
:1051B000072EC2EF28F005C001F006C002F0120071
:1051C000000E186E000E196E000E1A6E000E1B6E89
:1051D00010A0EDEF28F0EFEF28F0F7EF28F01450D3
:1051E00018261550192216501A2217501B22D89033
:1051F0001436153616361736D8901332123211324D
:1052000010321050111012101310D8A40AEF29F008
:105210000CEF29F0E8EF28F018C010F019C011F0D9
:105220001AC012F01BC013F01200FA0EF66E550EE3
:10523000F76E000EF86E00EEF6F010EE06F00900C4
:10524000F5CFEEFFE550E150FAE102EE00F08E0EF0
:10525000EE6AE806FDE101EED8F0280EEE6AE806F7
:10526000FDE100EEB8F03E0EEE6AE806FDE14E6AA2
:105270004D6A4C6A4B6A4F904F920001FFEF14F059
:10528000B1EC2AF0BEEC2AF0186E18C010F0116ACA
:10529000000E136E180E126ECAEC26F01050196E26
:1052A00019A255EF29F057EF29F05AEF29F07C8E1B
:1052B0005BEF29F07C9E19A060EF29F062EF29F0E6
:1052C00065EF29F0808666EF29F080961200126E55
:1052D00014EC2AF00E01DA8714EC2AF0D5CE13F084
:1052E00014EC2AF01250D8B478EF29F07CEF29F0B2
:1052F000116A112A7DEF29F0116A113A11460E0147
:10530000DA511118DF0B1118DA6FDA891350120015
:10531000EBEC29F0010E126E000E72EC2AF03F0E3B
:10532000226E550EE82EFED7222EFCD70000030E6B
:10533000126E000E72EC2AF0D50E126E010E72EC97
:105340002AF02CEC27F012007C9E849E8096889692
:1053500086840E01B4958686B497809288927C9854
:1053600084987C968496A797809088907E9086906B
:105370007F9087907D9E859E79968196120012502F
:10538000105C13501158D8B0C8EF29F0CAEF29F0BB
:10539000D0EF29F010C010F011C011F0D4EF29F0B7
:1053A00012C010F013C011F012001050125C115016
:1053B0001358D8B0DEEF29F0E0EF29F0E6EF29F03E
:1053C00010C010F011C011F0EAEF29F012C010F077
:1053D00013C011F012000E01D951F00B0809D96F5A
:1053E000D98B9F0ED66F848A848CA79BA79D1D0E98
:1053F0001D6F1E0E1C6F1C0E6F6F1B0E706F120048
:10540000D3CF14F0156AD4CF16F0176A1650136E66
:10541000126A14501210186E15501310196E18C01D
:1054200010F019C011F012000E01D8B51AEF2AF0D1
:105430001CEF2AF014EF2AF0DACE10F01F0E10162F
:10544000D8A425EF2AF027EF2AF014EF2AF0120053
:105450000E01D8B52EEF2AF030EF2AF028EF2AF00F
:10546000DACE01F01F0E0116D8A439EF2AF03BEF77
:105470002AF028EF2AF0120010501202F3CF14F095
:10548000F4CF15F010501302F350152611501202EC
:10549000F350152614C010F015C011F01200106E54
:1054A0001050D8B456EF2AF058EF2AF05DEF2AF0EA
:1054B0007F807D8E798660EF2AF07F907D9E799641
:1054C00012000E0133A167EF2AF069EF2AF070EFA6
:1054D0002AF0010E0001F56F7FEC27F00E013391E9
:1054E0004F921100136EE9EC2AF0520ED3EC2AF021
:1054F00013508009D3EC2AF01250D3EC2AF0E4ECDC
:105500002AF01200D6501F0B4009D66ED688D6500E
:10551000F00B0B09D66ED588000ED46E000ED36E3C
:10552000D58E1200046EF8EC2AF0520ED9EC2AF057
:1055300004508009D9EC2AF00350D9EC2AF0F3EC9E
:105540002AF01200120E0E01626F110E156FE9970C
:10555000E895330EE56F000EE66FE789E88BE78F7D
:105560001200868C0E01B48D0F015899FC0E58174D
:105570002E0E5F6F60946088608E1200608060B055
:10558000C4EF2AF0C6EF2AF0BFEF2AF064CF10F084
:105590001050120082800E019A9129811F81F29091
:1055A000F28CF28E1200116E14EC2AF011C0D5FEAE
:1055B0001200026E28EC2AF002C0D5FE1200000E86
:1055C000D46E000ED36E120014EC2AF00E01DA85B0
:1055D000120014EC2AF00E01DA81120014EC2AF009
:1055E0000E01DA83120028EC2AF00E01DA8512008F
:1055F00028EC2AF00E01DA81120004040101F40102
:020000040030CA
:02000000AAFF55
:020004009FFF5C
:00000001FF
