:0400000046EF00F0D7
:100008005A82D9CF03F0DACF04F00E0133A10FEFF3
:1000180000F011EF00F01EEF00F08086B0EC14F055
:10002800520E96EC14F0E60E96EC14F0ABEC14F0CD
:100038000E01339137A723EF00F025EF00F028EFEA
:1000480000F0E35105EC14F00E0137A52EEF00F097
:1000580030EF00F040EF00F08AEC13F00E01E46F8F
:100068007BEC14F00009D8A43CEF00F03EEF00F060
:1000780040EF00F00E012D9504C0DAFF03C0D9FF50
:080088005A92110071EF13F010
:100E000000723D256420673D256420623D256420F5
:100E1000633D25642020206E3A20723D25642067C2
:100E20003D256420623D25642020636F6C6F723A1B
:100E3000202564200D0A00002504D8A422EF07F025
:100E400024EF07F060EF07F023C017F024C018F07C
:100E500029C019F02AC01AF02BC01BF067EC0CF067
:100E6000050E2D6E0F0E2C6EF10EE82EFED72C2ED9
:100E7000FCD72D2EFAD7000023C017F024C018F09D
:100E800029C019F02AC01AF02BC01BF067EC0CF037
:100E9000050E2D6E0F0E2C6EF10EE82EFED72C2EA9
:100EA000FCD72D2EFAD7000023C017F024C018F06D
:100EB00026C019F028C01AF0EEEC0FF0D8EF08F0B9
:100EC000020E2518D8A467EF07F069EF07F09BEF33
:100ED00007F023C017F024C018F029C019F02AC069
:100EE0001AF02BC01BF042EC0DF0050E2D6E0F0E0C
:100EF0002C6EF10EE82EFED72C2EFCD72D2EFAD715
:100F0000000023C017F024C018F029C019F02AC02F
:100F10001AF02BC01BF042EC0DF0050E2D6E0F0EDB
:100F20002C6EF10EE82EFED72C2EFCD72D2EFAD7E4
:100F3000000054EF07F0030E2518D8A4A2EF07F025
:100F4000A4EF07F006EF08F023C017F024C018F054
:100F500029C019F02AC01AF02BC01BF042EC0DF08A
:100F6000050E2D6E0F0E2C6EF10EE82EFED72C2ED8
:100F7000FCD72D2EFAD7000023C017F024C018F09C
:100F800029C019F02AC01AF02BC01BF042EC0DF05A
:100F9000050E2D6E0F0E2C6EF10EE82EFED72C2EA8
:100FA000FCD72D2EFAD7000023C017F024C018F06C
:100FB00029C019F02AC01AF02BC01BF042EC0DF02A
:100FC000050E2D6E0F0E2C6EF10EE82EFED72C2E78
:100FD000FCD72D2EFAD7000023C017F024C018F03C
:100FE00029C019F02AC01AF02BC01BF042EC0DF0FA
:100FF000050E2D6E0F0E2C6EF10EE82EFED72C2E48
:10100000FCD72D2EFAD7000054EF07F0040E251858
:10101000D8A40DEF08F00FEF08F063EF08F023C03D
:1010200017F024C018F026C019F027C01AF028C005
:101030001BF0A9EC0AF0050E2D6E0F0E2C6EF10EB2
:10104000E82EFED72C2EFCD72D2EFAD7000023C079
:1010500017F024C018F029C019F02AC01AF02BC0CC
:101060001BF067EC0CF0050E2D6E0F0E2C6EF10EC2
:10107000E82EFED72C2EFCD72D2EFAD7000023C049
:1010800017F024C018F029C019F02AC01AF02BC09C
:101090001BF067EC0CF0050E2D6E0F0E2C6EF10E92
:1010A000E82EFED72C2EFCD72D2EFAD7000023C019
:1010B00017F024C018F026C019F028C01AF0EEEC82
:1010C0000FF0D8EF08F0050E2518D8A46AEF08F045
:1010D0006CEF08F0AAEF08F023C017F024C018F056
:1010E00026C019F027C01AF028C01BF0A9EC0AF09E
:1010F000050E2D6E0F0E2C6EF10EE82EFED72C2E47
:10110000FCD72D2EFAD7000023C017F024C018F00A
:1011100029C019F02AC01AF02BC01BF042EC0DF0C8
:10112000050E2D6E0F0E2C6EF10EE82EFED72C2E16
:10113000FCD72D2EFAD7000023C017F024C018F0DA
:1011400029C019F02AC01AF02BC01BF042EC0DF098
:101150004BEF08F0060E2518D8A4B1EF08F0B3EF56
:1011600008F0C1EF08F023C017F024C018F029C020
:1011700019F02AC01AF02BC01BF067EC0CF01BEF23
:1011800008F0070E2518D8A4C8EF08F0CAEF08F039
:10119000D8EF08F023C017F024C018F029C019F0C8
:1011A0002AC01AF02BC01BF042EC0DF078EF08F0CB
:1011B0001200A6EC14F0520E90EC14F0B60E90EC67
:1011C00014F09CEC14F0530E90EC14F0010EE2ECD1
:1011D00012F00A6E0B6A0950D96EDA6A0AC0DEFF95
:1011E0000BC0DDFF0950D96EDA6ADECF0AF0DDCF21
:1011F0000BF0000EE2EC12F00C6E0C500E6E0D6A4D
:101200000A500D100F6E0B500E10106E0950D96E53
:10121000DA6A0FC0DEFF10C0DDFFA1EC14F0A6EC0F
:1012200014F0520E90EC14F0B80E90EC14F09CEC0C
:1012300014F0530E90EC14F0010EE2EC12F00A6E72
:101240000B6A0950D96EDA6A020ED9260AC0DEFF8F
:101250000BC0DDFF0950D96EDA6A020ED926DECF47
:101260000AF0DDCF0BF0000EE2EC12F00C6E0C5029
:101270000E6E0D6A0A500D100F6E0B500E10106E90
:101280000950D96EDA6A020ED9260FC0DEFF10C0EF
:10129000DDFFA1EC14F0A6EC14F0520E90EC14F06B
:1012A000BA0E90EC14F09CEC14F0530E90EC14F089
:1012B000010EE2EC12F00A6E0B6A0950D96EDA6A7E
:1012C000040ED9260AC0DEFF0BC0DDFF0950D96E1F
:1012D000DA6A040ED926DECF0AF0DDCF0BF0000E5D
:1012E000E2EC12F00C6E0C500E6E0D6A0A500D10EE
:1012F0000F6E0B500E10106E0950D96EDA6A040E84
:10130000D9260FC0DEFF10C0DDFFA1EC14F0A6EC63
:1013100014F0520E90EC14F0B40E90EC14F09CEC1F
:1013200014F0530E90EC14F0010EE2EC12F00A6E81
:101330000B6A0950D96EDA6A060ED9260AC0DEFF9A
:101340000BC0DDFF0950D96EDA6A060ED926DECF52
:101350000AF0DDCF0BF0000EE2EC12F00C6E0C5038
:101360000E6E0D6A0A500D100F6E0B500E10106E9F
:101370000950D96EDA6A060ED9260FC0DEFF10C0FA
:10138000DDFFA1EC14F0120022EC13F057EC12F088
:101390003AEC14F087EC14F0000E066EC70E056EE2
:1013A00066EC11F020EE62F0270EDE6AE806FDE240
:1013B000000E0001A16F010EA26F010EA36FAA0E15
:1013C000A66F0F0EA76FA60EA86F0F0EA96F000EC7
:1013D000A56FC70EA46F030EAA6F000EAB6F010EB0
:1013E000AC6F010EAD6F250EB06F0F0EB16F210EF9
:1013F000B26F0F0EB36F000EAF6FC70EAE6F000E61
:10140000B46F3C0E8A6F020E8B6F0A0E8C6F150E36
:101410008D6F0A0E8E6F040E8F6FBBEC12F08EB4C0
:1014200014EF0AF016EF0AF00FEF0AF080967C9E98
:101430007C868082290E0001616F960E606F7F0EA0
:10144000E82EFED7602FFCD7612FFAD7010E18ECDB
:1014500014F08EB42EEF0AF030EF0AF029EF0AF004
:10146000990E096ED9EC08F020EE99F000EE1FF00D
:10147000070EDBCFEBFFE806FCE2910E276EC7EC10
:101480000EF020EE91F000EE05F0070EDBCFEBFF43
:10149000E806FCE2E8EC11F00001906FA10E236E6B
:1014A000AB0E246E90C025F08AC026F08CC027F0C9
:1014B0008BC028F08DC029F08EC02AF08FC02BF091
:1014C0001CEC07F0620E1E6E010E1F6E99C020F01C
:1014D0009AC021F09BC022F09CC023F09DC024F054
:1014E0009EC025F09FC026F0A0C027F091C028F034
:1014F00092C029F093C02AF094C02BF095C02CF034
:1015000096C02DF090C02EF02F6A3DEC13F049EC00
:1015100014F0620E066E076A8AEC12F049EC14F0C1
:10152000360E066E0650D8A40E0E076E8AEC12F028
:10153000190E0001616F5A0E606FB10EE82EFED7D2
:10154000602FFCD7612FFAD700D029EF0AF046EFC1
:1015500000F01750D96EDA6A010ED926DF6A1850EA
:10156000D96EDA6A010ED926DF6A000E226E010EEC
:10157000216EFDEF0AF01750D96EDA6A1750E16E4E
:10158000E26A090EE126E7502124DF6E1850D96E79
:10159000DA6A1850E16EE26A090EE126E75021246A
:1015A000DF6E17C012F01DEC0EF018C012F01DEC2B
:1015B0000EF0000E206E000E1F6EE9EF0AF0680EAE
:1015C0001C6EE40EE82EFED71C2EFCD700D01F4A5E
:1015D000202A1B501C6E1D6A1C501F5C2050800A64
:1015E0001E6E1D50800A1E58D8A0F9EF0AF0FBEFBE
:1015F0000AF0DFEF0AF0214A222A19501C6E1D6AF8
:1016000021501C5C1D50800A1E6E2250800A1E58FC
:10161000D8B00DEF0BF00FEF0BF0BBEF0AF0000EA0
:10162000206E000E1F6E1FEF0BF0680E1C6EE40E96
:10163000E82EFED71C2EFCD700D01F4A202A1A50B5
:101640001C6E1D6A1C501F5C2050800A1E6E1D50AF
:10165000800A1E58D8A02FEF0BF031EF0BF015EFDA
:101660000BF019C021F0226A22BE3BEF0BF039EFDC
:101670000BF03DEF0BF082EF0BF01750D96EDA6AEA
:101680001750E16EE26A090EE126E7502124DF6E71
:101690001850D96EDA6A1850E16EE26A090EE12636
:1016A000E7502124DF6E17C012F01DEC0EF018C0B9
:1016B00012F01DEC0EF0000E206E000E1F6E6BEF90
:1016C0000BF0680E1C6EE40EE82EFED71C2EFCD725
:1016D00000D01F4A202A1B501C6E1D6A1C501F5C24
:1016E0002050800A1E6E1D50800A1E58D8A07BEF25
:1016F0000BF07DEF0BF061EF0BF02106D8A0220676
:1017000034EF0BF01750D96EDA6ADF6A1850D96ED1
:10171000DA6ADF6A12001050D96EDA6ADFCFF6FF9C
:101720000E0EF76E0800F550250AD8A49AEF0BF0BC
:101730009CEF0BF055EF0CF01050D96EDA6ADF2AEF
:10174000000E526E000E516E51C055F05368546831
:101750001050D96EDA6ADF50146E14C0F6FF0E0E08
:10176000F76E0800F550640AD8B4B9EF0BF0BBEF80
:101770000BF0C9EF0BF014C0F6FF0E0EF76E080069
:10178000F550690AD8A4C7EF0BF0C9EF0BF04FEF83
:101790000CF01150D96EDA6A020EDF26DF5CD96ECA
:1017A000DA6ADECF15F0DECF16F01050D96EDA6AA5
:1017B0001428DF6E200E196E16BEE1EF0BF0E4EF79
:1017C0000BF0010EE5EF0BF0000E136E1906195029
:1017D000DD0FD96EDA6A15C005F016C006F0000EEE
:1017E000086E0A0E076EB9EC10F005C00BF006C0CB
:1017F0000CF057EC13F00B50300FDF6E15C005F0F6
:1018000016C006F0000E086E0A0E076E57EC10F0B8
:1018100005C015F006C016F015501610D8B413EF19
:101820000CF015EF0CF01DEF0CF01950D8A41BEFC5
:101830000CF01DEF0CF0E6EF0BF01950D8B423EFCD
:101840000CF025EF0CF044EF0CF01350D8B42BEF54
:101850000CF02DEF0CF044EF0CF019061950DD0FD1
:10186000D96EDA6A2D0EDF6E44EF0CF01950DD0FE1
:10187000D96EDA6ADF50126E1250056E066A0FC01A
:1018800007F011EC11F0192A200E1918D8A44BEF0B
:101890000CF04DEF0CF036EF0CF066EF0CF0105042
:1018A000D96EDA6ADF2A66EF0CF01050D96EDA6A68
:1018B000DFCFF6FF0E0EF76E0800F550056E066AD4
:1018C0000FC007F011EC11F04FEF0CF012001750A1
:1018D000D96EDA6A010ED926010EDF6E1850D96E64
:1018E000DA6A010ED926DF6A000E226E010E216E21
:1018F000BCEF0CF01750D96EDA6A1750E16EE26A4D
:10190000090EE126E7502124DF6E1850D96EDA6AFD
:101910001850E16EE26A090EE126E7502124DF6EDD
:1019200017C012F01DEC0EF018C012F01DEC0EF0F6
:10193000000E206E000E1F6EA8EF0CF0680E1C6EDD
:10194000E40EE82EFED71C2EFCD700D01F4A202A1A
:101950001B501C6E1D6A1C501F5C2050800A1E6E9E
:101960001D50800A1E58D8A0B8EF0CF0BAEF0CF04A
:101970009EEF0CF0214A222A19501C6E1D6A21503C
:101980001C5C1D50800A1E6E2250800A1E58D8B062
:10199000CCEF0CF0CEEF0CF07AEF0CF0000E206ED6
:1019A000000E1F6EDEEF0CF0680E1C6EE40EE82ECB
:1019B000FED71C2EFCD700D01F4A202A1A501C6EBE
:1019C0001D6A1C501F5C2050800A1E6E1D50800A2C
:1019D0001E58D8A0EEEF0CF0F0EF0CF0D4EF0CF0A6
:1019E00019C021F0226A22BEFAEF0CF0F8EF0CF0D9
:1019F000FCEF0CF041EF0DF01750D96EDA6A17507A
:101A0000E16EE26A090EE126E7502124DF6E1850EC
:101A1000D96EDA6A1850E16EE26A090EE126E750E3
:101A20002124DF6E17C012F01DEC0EF018C012F06A
:101A30001DEC0EF0000E206E000E1F6E2AEF0DF052
:101A4000680E1C6EE40EE82EFED71C2EFCD700D0CC
:101A50001F4A202A1B501C6E1D6A1C501F5C205000
:101A6000800A1E6E1D50800A1E58D8A03AEF0DF055
:101A70003CEF0DF020EF0DF02106D8A02206F3EF89
:101A80000CF012001750D96EDA6A010ED926DF6AFF
:101A90001850D96EDA6A010ED926010EDF6E000EDB
:101AA000226E010E216E97EF0DF01750D96EDA6A93
:101AB0001750E16EE26A090EE126E7502124DF6E3D
:101AC0001850D96EDA6A1850E16EE26A090EE12602
:101AD000E7502124DF6E17C012F01DEC0EF018C085
:101AE00012F01DEC0EF0000E206E000E1F6E83EF44
:101AF0000DF0680E1C6EE40EE82EFED71C2EFCD7EF
:101B000000D01F4A202A1B501C6E1D6A1C501F5CEF
:101B10002050800A1E6E1D50800A1E58D8A093EFD8
:101B20000DF095EF0DF079EF0DF0214A222A1950B2
:101B30001C6E1D6A21501C5C1D50800A1E6E2250B6
:101B4000800A1E58D8B0A7EF0DF0A9EF0DF055EFA1
:101B50000DF0000E206E000E1F6EB9EF0DF0680E36
:101B60001C6EE40EE82EFED71C2EFCD700D01F4AB8
:101B7000202A1A501C6E1D6A1C501F5C2050800ABF
:101B80001E6E1D50800A1E58D8A0C9EF0DF0CBEF75
:101B90000DF0AFEF0DF019C021F0226A22BED5EF93
:101BA0000DF0D3EF0DF0D7EF0DF01CEF0EF0175046
:101BB000D96EDA6A1750E16EE26A090EE126E75043
:101BC0002124DF6E1850D96EDA6A1850E16EE26A8D
:101BD000090EE126E7502124DF6E17C012F01DEC3C
:101BE0000EF018C012F01DEC0EF0000E206E000E6C
:101BF0001F6E05EF0EF0680E1C6EE40EE82EFED789
:101C00001C2EFCD700D01F4A202A1B501C6E1D6AB8
:101C10001C501F5C2050800A1E6E1D50800A1E58EA
:101C2000D8A015EF0EF017EF0EF0FBEF0DF0210628
:101C3000D8A02206CEEF0DF012001250D96EDA6A4B
:101C4000020ED926DF50D8B428EF0EF02AEF0EF09E
:101C50005AEF0EF01250D96EDA6ADF50136E13503D
:101C6000056E066A1250D96EDA6A030ED926DECFE7
:101C700007F0DDCF08F0F2EC13F005C00BF006C062
:101C80000CF0000E0E6E640E0D6EAEEC11F01250E4
:101C9000D96EDA6A030ED926DF50146E0B50145C2D
:101CA000156E1250D96EDA6A030ED926DF50166E01
:101CB0007BEF0EF0000E156E1250D96EDA6ADF500F
:101CC000136E1350056E066A1250D96EDA6A030E4F
:101CD000D926DECF07F0DDCF08F0F2EC13F005C017
:101CE0000BF006C00CF0000E0E6E640E0D6EAEEC26
:101CF00011F00B50166E1250D96EDA6A010ED92609
:101D0000DF50D8B486EF0EF088EF0EF0A8EF0EF09B
:101D10001250D96EDA6A050ED926DECF13F0DDCF68
:101D200014F013C0D9FF14C0DAFF15C0DFFF125042
:101D3000D96EDA6A070ED926DECF13F0DDCF14F0A4
:101D400013C0D9FF14C0DAFF16C0DFFFC6EF0EF0D4
:101D50001250D96EDA6A050ED926DECF13F0DDCF28
:101D600014F013C0D9FF14C0DAFF16C0DFFF125001
:101D7000D96EDA6A070ED926DECF13F0DDCF14F064
:101D800013C0D9FF14C0DAFF15C0DFFF12002750BF
:101D9000D96EDA6A060ED92625C0DEFF26C0DDFF21
:101DA0001FC005F020C006F0076A086AE80E096E39
:101DB000030E0A6E000E0B6E000E0C6E22EC12F07B
:101DC00005C011F006C012F007C013F008C014F0EF
:101DD00023502124286E24502220296E1F502826AB
:101DE0002050292228C015F029C016F0176A186A59
:101DF00068EC0FF02750D96EDA6A11C0DEFF12C00E
:101E0000DDFF21C005F022C006F0076A086AE80E6F
:101E1000096E030E0A6E000E0B6E000E0C6E22ECA5
:101E200012F005C011F006C012F007C013F008C090
:101E300014F023502124286E24502220296E1F5094
:101E400028262050292228C015F029C016F0176A2C
:101E5000186A68EC0FF02750D96EDA6A020ED9269C
:101E600011C0DEFF12C0DDFF23C005F024C006F064
:101E7000076A086AE80E096E030E0A6E000E0B6E02
:101E8000000E0C6E22EC12F005C011F006C012F02C
:101E900007C013F008C014F023502124286E2450EA
:101EA0002220296E1F5028262050292228C015F0F4
:101EB00029C016F0176A186A68EC0FF02750D96E1F
:101EC000DA6A040ED92611C0DEFF12C0DDFF12004F
:101ED000000E1A6E18BE71EF0FF06FEF0FF07BEF70
:101EE0000FF0181E171E161E156C000E1622172254
:101EF0001822010E1A6E14BE82EF0FF080EF0FF061
:101F00008CEF0FF0141E131E121E116C000E122205
:101F100013221422010E1A1A000E1B6E000E1C6EE4
:101F2000000E1D6E000E1E6E1550161017101810A4
:101F3000D8B49DEF0FF09FEF0FF0D5EF0FF0010E2B
:101F4000196EA9EF0FF0D8901536163617361836D9
:101F5000192A18AEAEEF0FF0B0EF0FF0A3EF0FF0AD
:101F6000D8901B361C361D361E361550115C165087
:101F700012581750135818501458D8A0C2EF0FF029
:101F8000C4EF0FF0CDEF0FF01550115E1650125A3E
:101F90001750135A1850145A1B80D8901832173201
:101FA00016321532192EB0EF0FF01A50D8B4DBEFFD
:101FB0000FF0DDEF0FF0E5EF0FF01E1E1D1E1C1ED3
:101FC0001B6C000E1C221D221E221BC011F01CC007
:101FD00012F01DC013F01EC014F012001750D96E7D
:101FE000DA6A010ED926010EDF6E1850D96EDA6A50
:101FF000010ED926010EDF6E000E216E010E206E3D
:1020000044EF10F01750D96EDA6A1750E16EE26AA9
:10201000090EE126E7502024DF6E1850D96EDA6AE7
:102020001850E16EE26A090EE126E7502024DF6EC7
:1020300017C012F01DEC0EF018C012F01DEC0EF0DF
:10204000000E1F6E000E1E6E30EF10F0680E1B6E3D
:10205000E40EE82EFED71B2EFCD700D01E4A1F2A06
:102060001A501B6E1C6A1B501E5C1F50800A1D6E8E
:102070001C50800A1D58D8A040EF10F042EF10F01D
:1020800026EF10F0204A212A19501B6E1C6A20509E
:102090001B5C1C50800A1D6E2150800A1D58D8B050
:1020A00054EF10F056EF10F002EF10F01200000E97
:1020B0000A6E08BE60EF10F05EEF10F066EF10F0F1
:1020C000076C081ED8B0082A010E0A6E06BE6DEF16
:1020D00010F06BEF10F073EF10F0056C061ED8B027
:1020E000062A010E0A1A000E0C6E000E0B6E075027
:1020F0000810D8B47EEF10F080EF10F0A8EF10F0C9
:10210000010E096E88EF10F0D89007360836092ABC
:1021100008AE8DEF10F08FEF10F084EF10F0D89034
:102120000B360C360750055C08500658D8A09BEFBC
:1021300010F09DEF10F0A2EF10F00750055E085070
:10214000065A0B80D89008320732092E8FEF10F014
:102150000A50D8B4AEEF10F0B0EF10F0B4EF10F0BA
:102160000B6C0C1ED8B00C2A0BC005F00CC006F08E
:102170001200000E0A6E06BEC2EF10F0C0EF10F0A3
:10218000C8EF10F0056C061ED8B0062A010E0A6EC4
:1021900008BECFEF10F0CDEF10F0D3EF10F0076CCA
:1021A000081ED8B0082A07500810D8B4DAEF10F08B
:1021B000DCEF10F000EF11F0010E096EE4EF10F00B
:1021C000D89007360836092A08AEE9EF10F0EBEF91
:1021D00010F0E0EF10F00750055C08500658D8A04A
:1021E000F4EF10F0F6EF10F0FAEF10F00750055E84
:1021F0000850065AD89008320732092EEBEF10F03B
:102200000A50D8B406EF11F008EF11F00CEF11F0FE
:10221000056C061ED8B0062A05C005F006C006F0FB
:1022200012000750D8B417EF11F019EF11F021EF99
:1022300011F00750D8A41FEF11F021EF11F026EF95
:1022400011F00550B5EC14F065EF11F00750D96EA0
:10225000DA6A0A0ED926DE50DE10D8B432EF11F059
:1022600034EF11F04DEF11F00750D96EDA6A0A0E13
:10227000D9260750E16EE26A030EE126DE50E65CE5
:10228000E650800A0C6EDE50800A0C58D8B04BEF36
:1022900011F04DEF11F065EF11F00750D96EDA6AC9
:1022A000030ED926DF50086E0750D96EDA6ADF5068
:1022B0000824D96EDA6A05C0DFFF0750D96EDA6AE2
:1022C000030ED926DE2A000EDD2212007D948594AD
:1022D0007D9885987B9E839E7F9C879C050E0E0132
:1022E000746F060E766F070E696F080E886FBD500B
:1022F0008F0B3009BD6EE00EBE16BF50F00B01090A
:10230000BF6E05C0BCFFBD8E000EAA6E000EA66E8D
:10231000000E0F01256F000E216FFC0EAD16F30E9F
:10232000AD16CF0EAD163F0EAD16AB88AB50F00B11
:102330000C09AB6EAB8EA788A750F00B0C09A76EEB
:10234000A78E26892651F00B0C09266F268F22892D
:102350002251F00B0C09226F228F1200000E106E1A
:10236000000E0F6E0D500E10D8B4B9EF11F0BBEF88
:1023700011F0E3EF11F0010E116EC3EF11F0D890E0
:102380000D360E36112A0EAEC8EF11F0CAEF11F05D
:10239000BFEF11F0D8900F3610360D500B5C0E5079
:1023A0000C58D8A0D6EF11F0D8EF11F0DDEF11F0F6
:1023B0000D500B5E0E500C5A0F80D8900E320D321D
:1023C000112ECAEF11F00FC00BF010C00CF012006C
:1023D000000E0D6E270E055C020E0658D8A0F3EF16
:1023E00011F0F5EF11F0F9EF11F0010E0D6E20EF85
:1023F00012F0230E075C010E0858D8A002EF12F06D
:1024000004EF12F008EF12F0020E0D6E20EF12F042
:102410000A5009E1DD0E095CD8A011EF12F013EFAC
:1024200012F020EF12F0200E0B5C030E0C58D8B007
:102430001CEF12F01EEF12F020EF12F0030E0D6EE3
:102440000D501200000E0D6E000E0E6E000E0F6E7F
:10245000000E106E05A02FEF12F031EF12F039EFE1
:1024600012F009500D260A500E220B500F220C506C
:102470001022D89009360A360B360C36D89008321E
:102480000732063205320550061007100810D8A48E
:102490004CEF12F04EEF12F02AEF12F00DC005F0E3
:1024A0000EC006F00FC007F010C008F01200A0EC3C
:1024B00013F0010E076E000E2AEC14F03F0E096EA9
:1024C000550EE82EFED7092EFCD70000030E076E2E
:1024D000000E2AEC14F0D50E076E010E2AEC14F053
:1024E000130E076E000E2AEC14F0070E076E070E8F
:1024F0002AEC14F0D00E076E060E2AEC14F0000E33
:10250000076E050E2AEC14F0000E076E040E2AEC7E
:1025100014F01200A1EF12F006C0F6FF07C0F7FF9B
:10252000000EF86E0D0EF76403D00800F55005D0CC
:10253000F6CFE9FFF7CFEAFFEF50B5EC13F0064A0C
:10254000072A06C0F6FF07C0F7FF000EF86E0D0E53
:10255000F76403D00800F55005D0F6CFE9FFF7CFB8
:10256000EAFFEF500009D8A4B8EF12F0BAEF12F06A
:102570008CEF12F0120056EC14F06FEC14F00D6EAC
:102580000DC005F0066A000E086E180E076E57ECB7
:1025900010F005500E6E0EA2D0EF12F0D2EF12F036
:1025A000D5EF12F07C8ED6EF12F07C9E0EA0DBEF02
:1025B00012F0DDEF12F0E0EF12F08086E1EF12F0A2
:1025C00080961200076ECAEC13F00E01DA87CAEC8F
:1025D00013F0D5CE08F0CAEC13F00750D8B4F3EFDF
:1025E00012F0F7EF12F0066A062AF8EF12F0066A08
:1025F000063A06460E01DA510618DF0B0618DA6FA6
:10260000DA89085012001BC01DF00FEF13F01AC03A
:102610000FF01D0E106E1CC011F08BEC0BF01DC0E6
:10262000F6FF0E0EF76E0800F5500009D8A41BEF58
:1026300013F01DEF13F007EF13F0000E1B6E000EEA
:102640001A6E12007C9E849E8096889686840E0167
:10265000B4958686B497809288927C9884987C966C
:102660008496A797809088907E9086907F908790A0
:102670007D9E859E799681961200200E306E1EC03A
:1026800031F0000E356E000E346E000E3C6E000E02
:102690003B6E310E1A6E1FC01BF0300E1C6E03EC29
:1026A00013F01E503424D96EDA6ADF6A12000CBEB1
:1026B0005CEF13F05EEF13F064EF13F00BC00BF060
:1026C0000CC00CF070EF13F00BC00DF00CC00EF04E
:1026D0000D1E0E1E0D4A0E2A0DC00BF00EC00CF082
:1026E000120001EE00F03C0EEE6AE806FDE100EE9D
:1026F000B5F0480EEE6AE806FDE100EE3DF01D0E75
:10270000EE6AE806FDE15A905A92000EF86E00015A
:10271000C4EF09F03B0E566490EF13F092EF13F004
:1027200094EF13F0000E566E562A5604016E026A9C
:10273000000E0124D96E010E0220DA6EDF50120065
:102740000E01D951F00B0809D96FD98B9F0ED66FA6
:10275000848A848CA79BA79D1D0E1D6F1E0E1C6F67
:102760001C0E6F6F1B0E706F1200056E3B0E5764D0
:10277000BCEF13F0BEEF13F0C0EF13F0000E576E76
:10278000000E5724D96EDA6A010EDA2205C0DFFF87
:10279000572A12000E01D8B5D0EF13F0D2EF13F084
:1027A000CAEF13F0DACE05F01F0E0516D8A4DBEF42
:1027B00013F0DDEF13F0CAEF13F012000E01D8B5DD
:1027C000E4EF13F0E6EF13F0DEEF13F0DACE01F0F2
:1027D0001F0E0116D8A4EFEF13F0F1EF13F0DEEFA8
:1027E00013F0120005500702F3CF09F0F4CF0AF0FE
:1027F00005500802F3500A2606500702F3500A2635
:1028000009C005F00AC006F01200016E130E5964EB
:102810000CEF14F00EEF14F010EF14F0000E596EE0
:1028200059503D0FD96EDA6A01C0DFFF592A1200F4
:10283000056E0550D8B41FEF14F021EF14F026EF09
:1028400014F07F807D8E798629EF14F07F907D9E35
:1028500079961200086EA6EC14F0520E90EC14F06B
:102860000850800990EC14F0075090EC14F0A1ECA3
:1028700014F01200120E0E01626F110E156FE9971F
:10288000E895330EE56F000EE66FE789E88BE78F7A
:10289000120063EC14F00009D8B451EF14F053EFB8
:1028A00014F055EF14F00E012D851200868C0E01E8
:1028B000B48D0F015899FC0E58172E0E5F6F60945F
:1028C0006088608E120056505718D8A46AEF14F032
:1028D0006DEF14F0010E6EEF14F0000E1200608028
:1028E00060B075EF14F077EF14F070EF14F064CF70
:1028F00005F00550120056505718D8A482EF14F076
:1029000085EF14F0010E86EF14F0000E12008280A5
:102910000E019A9129811F812D87F28CF28E12006F
:10292000066ECAEC13F006C0D5FE1200026EDEEC95
:1029300013F002C0D5FE1200CAEC13F00E01DA83C8
:102940001200CAEC13F00E01DA851200CAEC13F083
:102950000E01DA811200DEEC13F00E01DA851200AE
:0C296000DEEC13F00E01DA811200120010
:020000040030CA
:02000000AAFF55
:020004009FFF5C
:00000001FF
