:040000005FEF00F0BE
:100008004D82D9CF0EF0DACF0FF00E0133A10FEFEA
:1000180000F011EF00F02AEF00F0010E0101DA6F95
:10002800FBEC20F00E01339180A61DEF00F021EFCC
:1000380000F00D6A0D2A22EF00F00D6A0D460D46FC
:100048000D4680500D18F70B0D18806E0E0133AB5E
:1000580030EF00F032EF00F037EF00F0010E010151
:10006800D96F0E01339B37A73CEF00F03EEF00F04D
:1000780041EF00F0E351C8EC23F00E0137A547EF3C
:1000880000F049EF00F059EF00F0DBEC23F00E012F
:10009800E46F58EC24F00009D8A455EF00F057EFAE
:1000A80000F059EF00F00E012D950FC0DAFF0EC0D9
:0A00B800D9FF4D92110091EF22F0E4
:100E000000000001DC05D8A408EF07F00AEF07F0A6
:100E10006CEF07F0D8C023F0D9C024F0DAC025F079
:100E2000DBC026F0E2C027F0E4C028F054EC19F053
:100E3000050E466E0F0E456EF10EE82EFED7452EBE
:100E4000FCD7462EFAD70000D8C023F0D9C024F032
:100E5000DAC025F0DBC026F0E5C027F0E6C028F0B8
:100E6000E7C029F039EC1CF0050E466E0F0E456EFA
:100E7000F10EE82EFED7452EFCD7462EFAD70000FD
:100E8000D8C023F0D9C024F0DAC025F0DBC026F0AA
:100E9000E5C027F0E6C028F0E7C029F039EC1CF0E7
:100EA000050E466E0F0E456EF10EE82EFED7452E4E
:100EB000FCD7462EFAD70000D8C023F0D9C024F0C2
:100EC000DAC025F0DBC026F0E2C027F0E4C028F04D
:100ED000D3EC1FF015EF0BF0020EDC19D8A473EF62
:100EE00007F075EF07F0D7EF07F0D8C023F0D9C0AF
:100EF00024F0DAC025F0DBC026F0E2C027F0E4C021
:100F000028F054EC19F0050E466E0F0E456EF10EEA
:100F1000E82EFED7452EFCD7462EFAD70000D8C0C3
:100F200023F0D9C024F0DAC025F0DBC026F0E5C0FC
:100F300027F0E6C028F0E7C029F026EC1DF0050EEA
:100F4000466E0F0E456EF10EE82EFED7452EFCD7ED
:100F5000462EFAD70000D8C023F0D9C024F0DAC05A
:100F600025F0DBC026F0E5C027F0E6C028F0E7C09A
:100F700029F026EC1DF0050E466E0F0E456EF10EA3
:100F8000E82EFED7452EFCD7462EFAD70000D8C053
:100F900023F0D9C024F0DAC025F0DBC026F0E2C08F
:100FA00027F0E4C028F0D3EC1FF015EF0BF0030E90
:100FB000DC19D8A4DEEF07F0E0EF07F07AEF08F0D5
:100FC000D8C023F0D9C024F0DAC025F0DBC026F069
:100FD000E2C027F0E4C028F054EC19F0050E466E8C
:100FE0000F0E456EF10EE82EFED7452EFCD7462E8D
:100FF000FAD70000D8C023F0D9C024F0DAC025F019
:10100000DBC026F0E5C027F0E6C028F0E7C029F0F5
:1010100026EC1DF0050E466E0F0E456EF10EE82E05
:10102000FED7452EFCD7462EFAD70000D8C023F0B5
:10103000D9C024F0DAC025F0DBC026F0E5C027F0E7
:10104000E6C028F0E7C029F026EC1DF0050E466E3C
:101050000F0E456EF10EE82EFED7452EFCD7462E1C
:10106000FAD70000D8C023F0D9C024F0DAC025F0A8
:10107000DBC026F0E5C027F0E6C028F0E7C029F085
:1010800026EC1DF0050E466E0F0E456EF10EE82E95
:10109000FED7452EFCD7462EFAD70000D8C023F045
:1010A000D9C024F0DAC025F0DBC026F0E5C027F077
:1010B000E6C028F0E7C029F026EC1DF0050E466ECC
:1010C0000F0E456EF10EE82EFED7452EFCD7462EAC
:1010D000FAD70000D8C023F0D9C024F0DAC025F038
:1010E000DBC026F0E2C027F0E4C028F0D3EC1FF00C
:1010F00015EF0BF0040EDC19D8A481EF08F083EF94
:1011000008F001EF09F0D8C023F0D9C024F0DAC00C
:1011100025F0DBC026F0E2C027F0E4C028F054EC54
:1011200019F0050E466E0F0E456EF10EE82EFED735
:10113000452EFCD7462EFAD70000D8C023F0D9C0E0
:1011400024F0DAC025F0DBC026F0E2C027F0E3C0CF
:1011500028F0E4C029F043EC1BF0050E466E0F0E9C
:10116000456EF10EE82EFED7452EFCD7462EFAD757
:101170000000D8C023F0D9C024F0DAC025F0DBC0CD
:1011800026F0E5C027F0E6C028F0E7C029F039ECEA
:101190001CF0050E466E0F0E456EF10EE82EFED7C2
:1011A000452EFCD7462EFAD70000D8C023F0D9C070
:1011B00024F0DAC025F0DBC026F0E5C027F0E6C059
:1011C00028F0E7C029F039EC1CF0050E466E0F0E32
:1011D000456EF10EE82EFED7452EFCD7462EFAD7E7
:1011E0000000D8C023F0D9C024F0DAC025F0DBC05D
:1011F00026F0E2C027F0E4C028F0D3EC1FF015EF92
:101200000BF0050EDC19D8A408EF09F00AEF09F07D
:1012100088EF09F0D8C023F0D9C024F0DAC025F057
:10122000DBC026F0E2C027F0E4C028F054EC19F04F
:10123000050E466E0F0E456EF10EE82EFED7452EBA
:10124000FCD7462EFAD70000D8C023F0D9C024F02E
:10125000DAC025F0DBC026F0E2C027F0E3C028F0BA
:10126000E4C029F043EC1BF0050E466E0F0E456EF0
:10127000F10EE82EFED7452EFCD7462EFAD70000F9
:10128000D8C023F0D9C024F0DAC025F0DBC026F0A6
:10129000E5C027F0E6C028F0E7C029F026EC1DF0F5
:1012A000050E466E0F0E456EF10EE82EFED7452E4A
:1012B000FCD7462EFAD70000D8C023F0D9C024F0BE
:1012C000DAC025F0DBC026F0E5C027F0E6C028F044
:1012D000E7C029F026EC1DF0050E466E0F0E456E98
:1012E000F10EE82EFED7452EFCD7462EFAD7000089
:1012F000D8C023F0D9C024F0DAC025F0DBC026F036
:10130000E2C027F0E4C028F0D3EC1FF015EF0BF09B
:10131000060EDC19D8A48FEF09F091EF09F00FEF5A
:101320000AF0D8C023F0D9C024F0DAC025F0DBC021
:1013300026F0E2C027F0E4C028F054EC19F0050EC6
:10134000466E0F0E456EF10EE82EFED7452EFCD7E9
:10135000462EFAD70000D8C023F0D9C024F0DAC056
:1013600025F0DBC026F0E5C027F0E6C028F0E7C096
:1013700029F039EC1CF0050E466E0F0E456EF10E8D
:10138000E82EFED7452EFCD7462EFAD70000D8C04F
:1013900023F0D9C024F0DAC025F0DBC026F0E5C088
:1013A00027F0E6C028F0E7C029F039EC1CF0050E64
:1013B000466E0F0E456EF10EE82EFED7452EFCD779
:1013C000462EFAD70000D8C023F0D9C024F0DAC0E6
:1013D00025F0DBC026F0E5C027F0E6C028F0E7C026
:1013E00029F039EC1CF0050E466E0F0E456EF10E1D
:1013F000E82EFED7452EFCD7462EFAD70000D8C0DF
:1014000023F0D9C024F0DAC025F0DBC026F0E2C01A
:1014100027F0E4C028F0D3EC1FF015EF0BF0070E17
:10142000DC19D8A416EF0AF018EF0AF096EF0AF0CC
:10143000D8C023F0D9C024F0DAC025F0DBC026F0F4
:10144000E2C027F0E4C028F054EC19F0050E466E17
:101450000F0E456EF10EE82EFED7452EFCD7462E18
:10146000FAD70000D8C023F0D9C024F0DAC025F0A4
:10147000DBC026F0E5C027F0E6C028F0E7C029F081
:1014800026EC1DF0050E466E0F0E456EF10EE82E91
:10149000FED7452EFCD7462EFAD70000D8C023F041
:1014A000D9C024F0DAC025F0DBC026F0E5C027F073
:1014B000E6C028F0E7C029F026EC1DF0050E466EC8
:1014C0000F0E456EF10EE82EFED7452EFCD7462EA8
:1014D000FAD70000D8C023F0D9C024F0DAC025F034
:1014E000DBC026F0E5C027F0E6C028F0E7C029F011
:1014F00026EC1DF0050E466E0F0E456EF10EE82E21
:10150000FED7452EFCD7462EFAD70000D8C023F0D0
:10151000D9C024F0DAC025F0DBC026F0E2C027F005
:10152000E4C028F0D3EC1FF015EF0BF0080EDC1927
:10153000D8A49DEF0AF09FEF0AF0DBEF0AF0D8C0C5
:1015400023F0D9C024F0DAC025F0DBC026F0E2C0D9
:1015500027F0E4C028F054EC19F0050E466E0F0E8B
:10156000456EF10EE82EFED7452EFCD7462EFAD753
:101570000000D8C031F0D9C032F0DAC033F0DBC09F
:1015800034F0DDC035F0DEC036F0DFC037F0E0C04B
:1015900038F0E1C039F0E2C03AF0E3C03BF0E4C01B
:1015A0003CF0E5C03DF0E6C03EF0E7C03FF016EC91
:1015B0000BF015EF0BF0D8C023F0D9C024F0DAC03F
:1015C00025F0DBC026F0E2C027F0E4C028F054ECA0
:1015D00019F0050E466E0F0E456EF10EE82EFED781
:1015E000452EFCD7462EFAD70000D8C031F0D9C01E
:1015F00032F0DAC033F0DBC034F0DDC035F0DEC0ED
:1016000036F0DFC037F0E0C038F0E1C039F0E2C0BA
:101610003AF0E3C03BF0E4C03CF0E5C03DF0E6C08A
:101620003EF0E7C03FF016EC0BF0120031C023F0A3
:1016300032C024F033C025F034C026F03DC027F07E
:101640003EC028F03FC029F026EC1DF0050E416E8B
:101650000F0E406EF10EE82EFED7402EFCD7412E25
:10166000FAD7000031C023F032C024F033C025F097
:1016700034C026F03DC027F03EC028F03FC029F01E
:1016800026EC1DF0050E416E0F0E406EF10EE82E99
:10169000FED7402EFCD7412EFAD7000031C023F0F0
:1016A00032C024F033C025F034C026F03DC027F00E
:1016B0003EC028F03FC029F026EC1DF0050E416E1B
:1016C0000F0E406EF10EE82EFED7402EFCD7412EB5
:1016D000FAD7000031C023F032C024F033C025F027
:1016E00034C026F03DC027F03EC028F03FC029F0AE
:1016F00026EC1DF0050E416E0F0E406EF10EE82E29
:10170000FED7402EFCD7412EFAD7000031C023F07F
:1017100032C024F033C025F034C026F03AC027F0A0
:101720003CC028F0D3EC1FF07BEC24F03950020DC4
:10173000F3CF40F0F4CF41F040503724D96E415000
:101740003820DA6E79EC23F0DE50105CDE50115850
:10175000D8A0ADEF0BF0AFEF0BF096EF0BF031C070
:1017600023F032C024F033C025F034C026F03CC052
:1017700027F04FEC1FF039C044F06BEF0EF0440639
:1017800044503524D96E000E3620DA6EDE04D8A41B
:10179000CCEF0BF0CEEF0BF008EF0CF031C023F0E4
:1017A00032C024F033C025F034C026F03DC027F00D
:1017B0003EC028F03FC029F026EC1DF0050E416E1A
:1017C0000F0E406EF10EE82EFED7402EFCD7412EB4
:1017D000FAD7000031C023F032C024F033C025F026
:1017E00034C026F03DC027F03EC028F03FC029F0AD
:1017F00026EC1DF0050E416E0F0E406EF10EE82E28
:10180000FED7402EFCD7412EFAD7000036EF0EF05F
:1018100044503524D96E000E3620DA6E020EDE18E2
:10182000D8A415EF0CF017EF0CF051EF0CF031C00D
:1018300023F032C024F033C025F034C026F03DC080
:1018400027F03EC028F03FC029F039EC1CF0050E0F
:10185000416E0F0E406EF10EE82EFED7402EFCD7E3
:10186000412EFAD7000031C023F032C024F033C03B
:1018700025F034C026F03DC027F03EC028F03FC020
:1018800029F039EC1CF0050E416E0F0E406EF10E82
:10189000E82EFED7402EFCD7412EFAD7000036EFB7
:1018A0000EF044503524D96E000E3620DA6E030E49
:1018B000DE18D8A45EEF0CF060EF0CF0D2EF0CF065
:1018C00031C023F032C024F033C025F034C026F0FC
:1018D0003DC027F03EC028F03FC029F026EC1DF0A7
:1018E000050E416E0F0E406EF10EE82EFED7402E13
:1018F000FCD7412EFAD7000031C023F032C024F0CB
:1019000033C025F034C026F03DC027F03EC028F09B
:101910003FC029F026EC1DF0050E416E0F0E406E03
:10192000F10EE82EFED7402EFCD7412EFAD700004C
:1019300031C023F032C024F033C025F034C026F08B
:101940003DC027F03EC028F03FC029F026EC1DF036
:10195000050E416E0F0E406EF10EE82EFED7402EA2
:10196000FCD7412EFAD7000031C023F032C024F05A
:1019700033C025F034C026F03DC027F03EC028F02B
:101980003FC029F026EC1DF0050E416E0F0E406E93
:10199000F10EE82EFED7402EFCD7412EFAD70000DC
:1019A00036EF0EF044503524D96E000E3620DA6E34
:1019B000040EDE18D8A4DFEF0CF0E1EF0CF02BEFF3
:1019C0000DF031C023F032C024F033C025F034C014
:1019D00026F03DC027F03EC028F03FC029F026EC9D
:1019E0001DF0050E416E0F0E406EF10EE82EFED773
:1019F000402EFCD7412EFAD7000031C023F032C070
:101A000024F033C025F034C026F03DC027F03EC09E
:101A100028F03FC029F026EC1DF0050E416E0F0E98
:101A2000406EF10EE82EFED7402EFCD7412EFAD79D
:101A3000000031C023F032C024F033C025F034C0A0
:101A400026F03AC027F03BC028F03CC029F043EC18
:101A50001BF0C4EF0CF044503524D96E000E362034
:101A6000DA6E050EDE18D8A438EF0DF03AEF0DF05F
:101A700084EF0DF031C023F032C024F033C025F0E4
:101A800034C026F03DC027F03EC028F03FC029F00A
:101A900039EC1CF0050E416E0F0E406EF10EE82E73
:101AA000FED7402EFCD7412EFAD7000031C023F0DC
:101AB00032C024F033C025F034C026F03DC027F0FA
:101AC0003EC028F03FC029F039EC1CF0050E416EF5
:101AD0000F0E406EF10EE82EFED7402EFCD7412EA1
:101AE000FAD7000031C023F032C024F033C025F013
:101AF00034C026F03AC027F03BC028F03CC029F0A3
:101B000043EC1BF0C4EF0CF044503524D96E000EAA
:101B10003620DA6E060EDE18D8A491EF0DF093EFA2
:101B20000DF0DDEF0DF031C023F032C024F033C0F2
:101B300025F034C026F03DC027F03EC028F03FC05D
:101B400029F026EC1DF0050E416E0F0E406EF10ED1
:101B5000E82EFED7402EFCD7412EFAD7000031C028
:101B600023F032C024F033C025F034C026F03DC04D
:101B700027F03EC028F03FC029F026EC1DF0050EEE
:101B8000416E0F0E406EF10EE82EFED7402EFCD7B0
:101B9000412EFAD7000031C023F032C024F033C008
:101BA00025F034C026F03DC027F03EC028F03FC0ED
:101BB00029F026EC1DF0C4EF0CF044503524D96E0A
:101BC000000E3620DA6E070EDE18D8A4EAEF0DF00C
:101BD000ECEF0DF036EF0EF031C023F032C024F000
:101BE00033C025F034C026F03DC027F03EC028F0B9
:101BF0003FC029F039EC1CF0050E416E0F0E406E0F
:101C0000F10EE82EFED7402EFCD7412EFAD7000069
:101C100031C023F032C024F033C025F034C026F0A8
:101C20003DC027F03EC028F03FC029F039EC1CF041
:101C3000050E416E0F0E406EF10EE82EFED7402EBF
:101C4000FCD7412EFAD7000031C023F032C024F077
:101C500033C025F034C026F03DC027F03EC028F048
:101C60003FC029F039EC1CF0C4EF0CF031C023F078
:101C700032C024F033C025F034C026F03AC027F03B
:101C80003CC028F0D3EC1FF07BEC24F04450020D54
:101C9000F3CF40F0F4CF41F040503724D96E41509B
:101CA0003820DA6E79EC23F0DE50105CDE501158EB
:101CB000D8A05DEF0EF05FEF0EF046EF0EF031C0F2
:101CC00023F032C024F033C025F034C026F03CC0ED
:101CD00027F04FEC1FF04450D8A471EF0EF073EFD3
:101CE0000EF0BFEF0BF0120080867C8E31C023F027
:101CF00032C024F033C025F034C026F03DC027F0B8
:101D00003EC028F03FC029F026EC1DF0050E416EC4
:101D10000F0E406EF10EE82EFED7402EFCD7412E5E
:101D2000FAD7000031C023F032C024F033C025F0D0
:101D300034C026F03DC027F03EC028F03FC029F057
:101D400026EC1DF0050E416E0F0E406EF10EE82ED2
:101D5000FED7402EFCD7412EFAD7000031C023F029
:101D600032C024F033C025F034C026F03DC027F047
:101D70003EC028F03FC029F026EC1DF0050E416E54
:101D80000F0E406EF10EE82EFED7402EFCD7412EEE
:101D9000FAD7000031C023F032C024F033C025F060
:101DA00034C026F03DC027F03EC028F03FC029F0E7
:101DB00026EC1DF0050E416E0F0E406EF10EE82E62
:101DC000FED7402EFCD7412EFAD7000031C023F0B9
:101DD00032C024F033C025F034C026F03AC027F0DA
:101DE0003CC028F0D3EC1FF07BEC24F0000E010186
:101DF000D96FD951D8B4FFEF0EF001EF0FF0F9EF22
:101E00000EF031C023F032C024F033C025F034C0CE
:101E100026F03CC027F04FEC1FF039C044F0BDEF76
:101E200011F0440644503524D96E000E3620DA6E87
:101E3000DE04D8A41EEF0FF020EF0FF05AEF0FF0E2
:101E400031C023F032C024F033C025F034C026F076
:101E50003DC027F03EC028F03FC029F026EC1DF021
:101E6000050E416E0F0E406EF10EE82EFED7402E8D
:101E7000FCD7412EFAD7000031C023F032C024F045
:101E800033C025F034C026F03DC027F03EC028F016
:101E90003FC029F026EC1DF0050E416E0F0E406E7E
:101EA000F10EE82EFED7402EFCD7412EFAD70000C7
:101EB00088EF11F044503524D96E000E3620DA6ECA
:101EC000020EDE18D8A467EF0FF069EF0FF0A3EF52
:101ED0000FF031C023F032C024F033C025F034C0FD
:101EE00026F03DC027F03EC028F03FC029F039EC75
:101EF0001CF0050E416E0F0E406EF10EE82EFED75F
:101F0000402EFCD7412EFAD7000031C023F032C05A
:101F100024F033C025F034C026F03DC027F03EC089
:101F200028F03FC029F039EC1CF0050E416E0F0E71
:101F3000406EF10EE82EFED7402EFCD7412EFAD788
:101F4000000088EF11F044503524D96E000E362081
:101F5000DA6E030EDE18D8A4B0EF0FF0B2EF0FF078
:101F600024EF10F031C023F032C024F033C025F04C
:101F700034C026F03DC027F03EC028F03FC029F015
:101F800026EC1DF0050E416E0F0E406EF10EE82E90
:101F9000FED7402EFCD7412EFAD7000031C023F0E7
:101FA00032C024F033C025F034C026F03DC027F005
:101FB0003EC028F03FC029F026EC1DF0050E416E12
:101FC0000F0E406EF10EE82EFED7402EFCD7412EAC
:101FD000FAD7000031C023F032C024F033C025F01E
:101FE00034C026F03DC027F03EC028F03FC029F0A5
:101FF00026EC1DF0050E416E0F0E406EF10EE82E20
:10200000FED7402EFCD7412EFAD7000031C023F076
:1020100032C024F033C025F034C026F03DC027F094
:102020003EC028F03FC029F026EC1DF0050E416EA1
:102030000F0E406EF10EE82EFED7402EFCD7412E3B
:10204000FAD7000088EF11F044503524D96E000E05
:102050003620DA6E040EDE18D8A431EF10F033EF1C
:1020600010F07DEF10F031C023F032C024F033C007
:1020700025F034C026F03DC027F03EC028F03FC018
:1020800029F026EC1DF0050E416E0F0E406EF10E8C
:10209000E82EFED7402EFCD7412EFAD7000031C0E3
:1020A00023F032C024F033C025F034C026F03DC008
:1020B00027F03EC028F03FC029F026EC1DF0050EA9
:1020C000416E0F0E406EF10EE82EFED7402EFCD76B
:1020D000412EFAD7000031C023F032C024F033C0C3
:1020E00025F034C026F03AC027F03BC028F03CC0B1
:1020F00029F043EC1BF016EF10F044503524D96E54
:10210000000E3620DA6E050EDE18D8A48AEF10F025
:102110008CEF10F0D6EF10F031C023F032C024F075
:1021200033C025F034C026F03DC027F03EC028F073
:102130003FC029F039EC1CF0050E416E0F0E406EC9
:10214000F10EE82EFED7402EFCD7412EFAD7000024
:1021500031C023F032C024F033C025F034C026F063
:102160003DC027F03EC028F03FC029F039EC1CF0FC
:10217000050E416E0F0E406EF10EE82EFED7402E7A
:10218000FCD7412EFAD7000031C023F032C024F032
:1021900033C025F034C026F03AC027F03BC028F009
:1021A0003CC029F043EC1BF016EF10F044503524EE
:1021B000D96E000E3620DA6E060EDE18D8A4E3EFD4
:1021C00010F0E5EF10F02FEF11F031C023F032C026
:1021D00024F033C025F034C026F03DC027F03EC0C7
:1021E00028F03FC029F026EC1DF0050E416E0F0EC1
:1021F000406EF10EE82EFED7402EFCD7412EFAD7C6
:10220000000031C023F032C024F033C025F034C0C8
:1022100026F03DC027F03EC028F03FC029F026EC54
:102220001DF0050E416E0F0E406EF10EE82EFED72A
:10223000402EFCD7412EFAD7000031C023F032C027
:1022400024F033C025F034C026F03DC027F03EC056
:1022500028F03FC029F026EC1DF016EF10F0445096
:102260003524D96E000E3620DA6E070EDE18D8A49B
:102270003CEF11F03EEF11F088EF11F031C023F088
:1022800032C024F033C025F034C026F03DC027F022
:102290003EC028F03FC029F039EC1CF0050E416E1D
:1022A0000F0E406EF10EE82EFED7402EFCD7412EC9
:1022B000FAD7000031C023F032C024F033C025F03B
:1022C00034C026F03DC027F03EC028F03FC029F0C2
:1022D00039EC1CF0050E416E0F0E406EF10EE82E2B
:1022E000FED7402EFCD7412EFAD7000031C023F094
:1022F00032C024F033C025F034C026F03DC027F0B2
:102300003EC028F03FC029F039EC1CF016EF10F069
:1023100031C023F032C024F033C025F034C026F0A1
:102320003AC027F03CC028F0D3EC1FF07BEC24F03F
:102330004450020DF3CF40F0F4CF41F04050372429
:10234000D96E41503820DA6E79EC23F0DE50105C03
:10235000DE501158D8A0AFEF11F0B1EF11F098EFA7
:1023600011F031C023F032C024F033C025F034C066
:1023700026F03CC027F04FEC1FF04450D8A4C3EF28
:1023800011F0C5EF11F011EF0FF012002AC010F09C
:102390002BC011F0126A136A100E146E270E156E00
:1023A000000E166E000E176E5CEC22F010C01CF0D2
:1023B00011C01DF012C01EF013C01FF0FF0E206EE2
:1023C000000E216E000E226E000E236EC9EC1EF070
:1023D0001CC0E2F01DC0E3F02CC010F02DC011F0C5
:1023E000126A136A100E146E270E156E000E166E0A
:1023F000000E176E5CEC22F010C01CF011C01DF036
:1024000012C01EF013C01FF0FF0E206E000E216ED2
:10241000000E226E000E236EC9EC1EF01CC0EAF006
:102420001DC0EBF02EC010F02FC011F0126A136A1D
:10243000100E146E270E156E000E166E000E176E1F
:102440005CEC22F010C01CF011C01DF012C01EF098
:1024500013C01FF0FF0E206E000E216E000E226EC4
:10246000000E236EC9EC1EF01CC0ECF01DC0EDF098
:10247000EAC010F0EBC011F0ECC012F0EDC013F0A8
:102480004EEC23F010C0DEF011C0DFF0E2C010F01F
:10249000E3C011F0DEC012F0DFC013F04EEC23F009
:1024A00010C0E4F011C0E5F0EAC010F0EBC011F08C
:1024B000ECC012F0EDC013F038EC23F010C0E0F0E7
:1024C00011C0E1F0E2C010F0E3C011F0E0C012F082
:1024D000E1C013F038EC23F010C0DCF011C0DDF0E7
:1024E0000001DC51E45D346EDD51E559356E34C0D8
:1024F000E6F035C0E7F0E86BE96BE251E41907E17B
:10250000E351E519D8A487EF12F089EF12F030EF0C
:1025100013F0EA51EC5DEB51ED59D8B092EF12F0A7
:1025200094EF12F0C6EF12F0EC51EA5D346EED510B
:10253000EB59356E34C010F035C011F0126A136AD1
:10254000700E146E170E156E000E166E000E176EBE
:102550005CEC22F010C01CF011C01DF012C01EF087
:1025600013C01FF0E6C020F0E7C021F0E8C022F061
:10257000E9C023F04EEC21F032C0D9FF33C0DAFFBE
:102580001CC0DEFF1DC0DDFFE8EF13F0EC51EA5D7B
:10259000ED51EB59D8B0CFEF12F0D1EF12F0E8EFD8
:1025A00013F0EC51346EED51356E366A376AE6C081
:1025B00010F0E7C011F0E8C012F0E9C013F0060E09
:1025C000146E000E156E000E166E000E176E5CEC8B
:1025D00022F00001EA511024386EEB511120396EBF
:1025E000000E12203A6E000E13203B6E3450385C01
:1025F000D86F35503958D96F36503A58DA6F37504E
:102600003B58DB6FD8C010F0D9C011F0DAC012F01F
:10261000DBC013F0700E146E170E156E000E166EE2
:10262000000E176E5CEC22F010C01CF011C01DF003
:1026300012C01EF013C01FF0E6C020F0E7C021F06A
:10264000E8C022F0E9C023F04EEC21F032C0D9FFFF
:1026500033C0DAFF1CC0DEFF1DC0DDFFE8EF13F062
:10266000EA51E41907E1EB51E519D8A43AEF13F068
:102670003CEF13F089EF13F0E251346EE351356E05
:10268000366A376AD890E635386EE735396EE83500
:102690003A6EE9353B6EEC5138243C6EED513920F1
:1026A0003D6E000E3A203E6E000E3B203F6E3450D1
:1026B0003C5C106E35503D58116E36503E58126ECF
:1026C00037503F58136E700E146E170E156E000EB5
:1026D000166E000E176E5CEC22F010C01CF011C0DC
:1026E0001DF012C01EF013C01FF0E6C020F0E7C0BE
:1026F00021F0E8C022F0E9C023F04EEC21F032C016
:10270000D9FF33C0DAFF1CC0DEFF1DC0DDFFE8EFDC
:1027100013F0EC51E41907E1ED51E519D8A493EF5A
:1027200013F095EF13F0E8EF13F0EA51346EEB512C
:10273000356E366A376AE6C038F0E7C039F0E8C06F
:102740003AF0E9C03BF0020ED890383639363A36C6
:102750003B36E82EA4EF13F0E25138243C6EE351EF
:1027600039203D6E000E3A203E6E000E3B203F6E3B
:1027700034503C5C106E35503D58116E36503E580A
:10278000126E37503F58136E700E146E170E156E82
:10279000000E166E000E176E5CEC22F010C01CF0DE
:1027A00011C01DF012C01EF013C01FF0E6C020F0D3
:1027B000E7C021F0E8C022F0E9C023F04EEC21F0A0
:1027C00032C0D9FF33C0DAFF1CC0DEFF1DC0DDFF01
:1027D000E6C010F0E7C011F0E8C012F0E9C013F055
:1027E000100E146E270E156E000E166E000E176E6C
:1027F0005CEC22F010C01CF011C01DF012C01EF0E5
:1028000013C01FF0E4C020F0E5C021F0226A236A63
:102810004EEC21F020EE02F03250D9263350DA226D
:102820001CC0DEFF1DC0DDFF20EE02F03250D926B5
:102830003350DA22DE50DE10D8A421EF14F023EF5B
:1028400014F029EF14F032C0D9FF33C0DAFFDE6A8A
:10285000DD6A20EE04F03250D9263350DA22E4C08B
:10286000DEFFE5C0DDFF120021EE00F0270EDE6A7C
:10287000E806FDE2000E0101A66F000EB36F21EE27
:102880007AF0270EDE6AE806FDE221EE28F0510E0E
:10289000DE6AE806FDE2000EB46FD3C1A2F1D4C136
:1028A000A3F1D5C1A4F1D6C1A5F11DEC23F001EC33
:1028B00023F010EC24F064EC24F030EC24F0000E53
:1028C000116EC70E106EA0EC21F0000E0101C96F51
:1028D000010ECA6F010ECB6FAA0ECE6F0F0ECF6F17
:1028E000A60ED06F0F0ED16F000ECD6FC70ECC6F3E
:1028F000000ED26F000EBF6F010EC06F010EC16FD0
:10290000250EC46F0F0EC56F210EC66F0F0EC76F59
:10291000000EC36FC70EC26F000EC86F140EB26FE9
:10292000020EB56F900EA96F280EAA6F0A0EB66F31
:10293000010EAB6FB9EC22F08EB4A1EF14F0A3EF4F
:1029400014F09CEF14F080967C9E7C868082290E89
:10295000486E960E476E7F0EE82EFED7472EFCD7A8
:10296000482EFAD70000C90E316E010E326EBF0E2E
:10297000336E010E346E280E356EB60E366E010EB5
:10298000376E010E386E07EC18F0010EEEEC23F0F6
:10299000520E486E2B0E476E000EE82EFED7472EC5
:1029A000FCD7482EFAD700D0B70E146E010E156E64
:1029B0004CEC1AF0BDC1D7F1BEC1D8F1A8EC20F0A3
:1029C000D00E476ECA0EE82EFED7472EFCD7C90E92
:1029D000236E010E246EBF0E256E010E266E140EA0
:1029E000276E020E286ED3EC1FF07BEC24F0000E55
:1029F0000101DA6F000ED96FDA05D8A402EF15F0E5
:102A000004EF15F030EF15F0B70E146E010E156ED1
:102A10004CEC1AF0BDC1A7F1BEC1A8F10101A7514C
:102A2000D75DA851D859D8A018EF15F01AEF15F0B6
:102A30002CEF15F0A7C1D7F1A8C1D8F1A8EC20F070
:102A4000D00E476ECA0EE82EFED7472EFCD7000EDA
:102A50000101DA6F30EF15F0010EA66F000EDA6F8C
:102A6000A605D8A436EF15F038EF15F0CFEF15F026
:102A70000E01299B29AB02D0298102D00E01299198
:102A800079EC23F00101B451020D280EF324D96E24
:102A9000010EF420DA6E10C0DEFF11C0DDFFC90E9A
:102AA000236E010E246EBF0E256E010E266EB5C17B
:102AB00027F04FEC1FF0C90E236E010E246EBF0EDF
:102AC000256E010E266EB2C127F0B5C128F020ECAC
:102AD00016F0B70E146E010E156E4CEC1AF021EEC6
:102AE000B7F000EE2AF0070EDBCFEBFFE806FCE2C2
:102AF000AC0E326E010E336EC6EC11F0A20E010167
:102B0000B425D96EDA6A010EDA22DF50B36F7A0E7D
:102B1000B425D96EDA6A010EDA22B3C1DFFFC90E1D
:102B20000001D86F010ED96FBF0EDA6F010EDB6F97
:102B3000B3C1DCF07A0EDD6F010EDE6F280EDF6FA1
:102B4000010EE06FB4C1E1F0B2C1E2F0A9C1E3F05F
:102B5000B5C1E4F0AAC1E5F0B6C1E6F0ABC1E7F05B
:102B600001EC07F0B70E146E010E156E4CEC1AF066
:102B7000BDC1D7F1BEC1D8F1A8EC20F0000E010113
:102B8000DA6FB42B7BEC24F00E01298B29AB02D039
:102B9000298102D00E012991000E0101A66FD905ED
:102BA000D8A4D5EF15F0D7EF15F00CEF16F00E0105
:102BB0002991C90E236E010E246EBF0E256E010EE3
:102BC000266EB5C127F04FEC1FF0C90E316E010E15
:102BD000326EBF0E336E010E346E7A0E356E010EFC
:102BE000366E280E376E010E386EB4C139F0B2C1A0
:102BF0003AF0A9C13BF0B5C13CF0AAC13DF0B6C165
:102C00003EF0ABC13FF074EC0EF00E012981000ED6
:102C10000101D96F1EEF16F0080EB319D8B413EFE7
:102C200016F015EF16F01EEF16F0090EB319D8A422
:102C30001CEF16F01EEF16F0FCEF14F05FEF00F043
:102C4000C80E2C6E140E2D6E20EE01F02350D926E6
:102C50002450DA22010EDF6E20EE01F02550D92635
:102C60002650DA22010EDF6E000E316E010E306E3C
:102C700084EF16F020EE09F02350D9262450DA22F2
:102C8000DF50302423C0D9FF24C0DAFFDF6E20EEEE
:102C900009F02550D9262650DA22DF50302425C0ED
:102CA000D9FF26C0DAFFDF6E23C01DF024C01EF05E
:102CB00013EC1EF025C01DF026C01EF013EC1EF014
:102CC000000E2F6E000E2E6E70EF16F0680E296E3D
:102CD000E40EE82EFED7292EFCD700D02E4A2F2A4C
:102CE0002850296E2A6A29502E5C2F50800A2B6E9C
:102CF0002A50800A2B58D8A080EF16F082EF16F0E9
:102D000066EF16F0304A312A2750296E2A6A305071
:102D1000295C2A50800A2B6E3150800A2B58D8B07B
:102D200094EF16F096EF16F03AEF16F0000E2F6EB5
:102D3000000E2E6EA6EF16F0680E296EE40EE82E39
:102D4000FED7292EFCD700D02E4A2F2A2C50296ED0
:102D50002A6A29502E5C2F50800A2B6E2A50800A36
:102D60002B58D8A0B6EF16F0B8EF16F09CEF16F07F
:102D700027C030F0316A31BEC2EF16F0C0EF16F056
:102D8000C4EF16F011EF17F020EE09F02350D9260A
:102D90002450DA22DF50302423C0D9FF24C0DAFFC8
:102DA000DF6E20EE09F02550D9262650DA22DF50BA
:102DB000302425C0D9FF26C0DAFFDF6E23C01DF006
:102DC00024C01EF013EC1EF025C01DF026C01EF01E
:102DD00013EC1EF0000E2F6E000E2E6EFAEF16F0A2
:102DE000680E296EE40EE82EFED7292EFCD700D0FF
:102DF0002E4A2F2A2850296E2A6A29502E5C2F50DD
:102E0000800A2B6E2A50800A2B58D8A00AEF17F0A0
:102E10000CEF17F0F0EF16F03006D8A03106BBEF3C
:102E200016F020EE01F02350D9262450DA22DF6A72
:102E300020EE01F02550D9262650DA22DF6A000E56
:102E4000316E010E306E6FEF17F020EE09F0235057
:102E5000D9262450DA22DF50302423C0D9FF24C0E1
:102E6000DAFFDF6E20EE09F02550D9262650DA224F
:102E7000DF50302425C0D9FF26C0DAFFDF6E23C023
:102E80001DF024C01EF013EC1EF025C01DF026C05E
:102E90001EF013EC1EF0000E2F6E000E2E6E5BEF78
:102EA00017F0680E296EE40EE82EFED7292EFCD707
:102EB00000D02E4A2F2A2850296E2A6A29502E5CCB
:102EC0002F50800A2B6E2A50800A2B58D8A06BEF07
:102ED00017F06DEF17F051EF17F0304A312A2750F5
:102EE000296E2A6A3050295C2A50800A2B6E315094
:102EF000800A2B58D8B07FEF17F081EF17F025EF3D
:102F000017F0000E2F6E000E2E6E91EF17F0680E68
:102F1000296EE40EE82EFED7292EFCD700D02E4ACB
:102F20002F2A2D50296E2A6A29502E5C2F50800A94
:102F30002B6E2A50800A2B58D8A0A1EF17F0A3EFD0
:102F400017F087EF17F027C030F0316A31BEADEFD0
:102F500017F0ABEF17F0AFEF17F0FCEF17F020EE24
:102F600009F02350D9262450DA22DF50302423C020
:102F7000D9FF24C0DAFFDF6E20EE09F02550D926F4
:102F80002650DA22DF50302425C0D9FF26C0DAFFD0
:102F9000DF6E23C01DF024C01EF013EC1EF025C010
:102FA0001DF026C01EF013EC1EF0000E2F6E000E5A
:102FB0002E6EE5EF17F0680E296EE40EE82EFED7B0
:102FC000292EFCD700D02E4A2F2A2850296E2A6A93
:102FD00029502E5C2F50800A2B6E2A50800A2B58C5
:102FE000D8A0F5EF17F0F7EF17F0DBEF17F030068A
:102FF000D8A03106A6EF17F023C0D9FF24C0DAFF0E
:10300000DF6A25C0D9FF26C0DAFFDF6A120031C0AF
:1030100023F032C024F033C025F034C026F035C090
:1030200027F036C0D9FF37C0DAFFDF50286E38C02E
:1030300029F026EC1DF0050E3A6E0F0E396EF10EDA
:10304000E82EFED7392EFCD73A2EFAD7000031C031
:1030500023F032C024F033C025F034C026F035C050
:1030600027F036C0D9FF37C0DAFFDF50286E38C0EE
:1030700029F026EC1DF0050E3A6E0F0E396EF10E9A
:10308000E82EFED7392EFCD73A2EFAD7000031C0F1
:1030900023F032C024F033C025F034C026F035C010
:1030A00027F036C0D9FF37C0DAFFDF50286E38C0AE
:1030B00029F039EC1CF0050E3A6E0F0E396EF10E48
:1030C000E82EFED7392EFCD73A2EFAD7000031C0B1
:1030D00023F032C024F033C025F034C026F035C0D0
:1030E00027F036C0D9FF37C0DAFFDF50286E38C06E
:1030F00029F039EC1CF08EA480EF18F082EF18F064
:1031000089EF18F08EB687EF18F089EF18F07BEF93
:1031100018F08EB48EEF18F090EF18F0A4EF18F0BE
:1031200036C0D9FF37C0DAFFDF50D8B49AEF18F0B5
:103130009CEF18F0A4EF18F036C0D9FF37C0DAFFC3
:10314000DF067C8EB1EF18F08EB6A9EF18F0ABEF6A
:1031500018F0B1EF18F036C0D9FF37C0DAFFDF2A18
:103160008086290E3A6E960E396E7F0EE82EFED7B7
:10317000392EFCD73A2EFAD700008EB6C2EF18F0DF
:10318000C4EF18F0CBEF18F036C0D9FF37C0DAFF24
:10319000DF0643EF19F080967C9E31C023F032C0E9
:1031A00024F033C025F034C026F035C027F036C0F7
:1031B000D9FF37C0DAFFDF50286E38C029F026EC7F
:1031C0001DF0050E3A6E0F0E396EF10EE82EFED789
:1031D000392EFCD73A2EFAD7000031C023F032C086
:1031E00024F033C025F034C026F035C027F036C0B7
:1031F000D9FF37C0DAFFDF50286E38C029F026EC3F
:103200001DF0050E3A6E0F0E396EF10EE82EFED748
:10321000392EFCD73A2EFAD7000031C023F032C045
:1032200024F033C025F034C026F035C027F036C076
:10323000D9FF37C0DAFFDF50286E38C029F039ECEB
:103240001CF0050E3A6E0F0E396EF10EE82EFED709
:10325000392EFCD73A2EFAD7000031C023F032C005
:1032600024F033C025F034C026F035C027F036C036
:10327000D9FF37C0DAFFDF50286E38C029F039ECAB
:103280001CF07BEF18F080867C8E090E3A6E1E0EC5
:10329000396EE40EE82EFED7392EFCD73A2EFAD737
:1032A00000D080967C9E1200140E2C6E20EE01F051
:1032B0002350D9262450DA22DF6A20EE01F025506F
:1032C000D9262650DA22DF6A000E306E010E2F6EEC
:1032D000B4EF19F020EE09F02350D9262450DA2259
:1032E000DF502F2423C0D9FF24C0DAFFDF6E20EE89
:1032F00009F02550D9262650DA22DF502F2425C088
:10330000D9FF26C0DAFFDF6E23C01DF024C01EF0F7
:1033100013EC1EF025C01DF026C01EF013EC1EF0AD
:10332000000E2E6E000E2D6EA0EF19F0680E296EA5
:10333000E40EE82EFED7292EFCD700D02D4A2E2AE7
:103340002850296E2A6A29502D5C2E50800A2B6E37
:103350002A50800A2B58D8A0B0EF19F0B2EF19F01C
:1033600096EF19F02F4A302A2750296E2A6A2F50DB
:10337000295C2A50800A2B6E3050800A2B58D8B016
:10338000C4EF19F0C6EF19F06AEF19F0000E2E6EB7
:10339000000E2D6ED6EF19F0680E296EE40EE82EA1
:1033A000FED7292EFCD700D02D4A2E2A2C50296E6C
:1033B0002A6A29502D5C2E50800A2B6E2A50800AD2
:1033C0002B58D8A0E6EF19F0E8EF19F0CCEF19F080
:1033D00027C02FF0306A30BEF2EF19F0F0EF19F08D
:1033E000F4EF19F041EF1AF020EE09F02350D9263E
:1033F0002450DA22DF502F2423C0D9FF24C0DAFF63
:10340000DF6E20EE09F02550D9262650DA22DF5053
:103410002F2425C0D9FF26C0DAFFDF6E23C01DF0A0
:1034200024C01EF013EC1EF025C01DF026C01EF0B7
:1034300013EC1EF0000E2E6E000E2D6E2AEF1AF009
:10344000680E296EE40EE82EFED7292EFCD700D098
:103450002D4A2E2A2850296E2A6A29502D5C2E507A
:10346000800A2B6E2A50800A2B58D8A03AEF1AF007
:103470003CEF1AF020EF1AF02F06D8A03006EBEF41
:1034800019F023C0D9FF24C0DAFFDF6A25C0D9FFB5
:1034900026C0DAFFDF6A12008AEC24F0520E6FECCD
:1034A00024F0B60E6FEC24F080EC24F0530E6FEC99
:1034B00024F0010EE0EC22F0166E176A14C0D9FF5A
:1034C00015C0DAFF16C0DEFF17C0DDFF14C0D9FF3C
:1034D00015C0DAFFDECF16F0DDCF17F0000EE0ECFE
:1034E00022F0186E18501A6E196A165019101B6EB9
:1034F00017501A101C6E14C0D9FF15C0DAFF1BC07C
:10350000DEFF1CC0DDFF85EC24F08AEC24F0520EB7
:103510006FEC24F0B80E6FEC24F080EC24F0530E26
:103520006FEC24F0010EE0EC22F0166E176A20EE2C
:1035300002F01450D9261550DA2216C0DEFF17C04B
:10354000DDFF20EE02F01450D9261550DA22DECF2E
:1035500016F0DDCF17F0000EE0EC22F0186E1850D8
:103560001A6E196A165019101B6E17501A101C6E1D
:1035700020EE02F01450D9261550DA221BC0DEFFCF
:103580001CC0DDFF85EC24F08AEC24F0520E6FECB9
:1035900024F0BA0E6FEC24F080EC24F0530E6FECA4
:1035A00024F0010EE0EC22F0166E176A20EE04F013
:1035B0001450D9261550DA2216C0DEFF17C0DDFFE1
:1035C00020EE04F01450D9261550DA22DECF16F082
:1035D000DDCF17F0000EE0EC22F0186E18501A6ED6
:1035E000196A165019101B6E17501A101C6E20EE17
:1035F00004F01450D9261550DA221BC0DEFF1CC07F
:10360000DDFF85EC24F08AEC24F0520E6FEC24F000
:10361000B40E6FEC24F080EC24F0530E6FEC24F029
:10362000010EE0EC22F0166E176A20EE06F0145040
:10363000D9261550DA2216C0DEFF17C0DDFF20EEB6
:1036400006F01450D9261550DA22DECF16F0DDCF61
:1036500017F0000EE0EC22F0186E18501A6E196A7E
:10366000165019101B6E17501A101C6E20EE06F023
:103670001450D9261550DA221BC0DEFF1CC0DDFF16
:1036800085EC24F0120020EE01F02350D9262450BE
:10369000DA22DF6A20EE01F02550D9262650DA2200
:1036A000DF6A000E306E010E2F6EA1EF1BF020EED0
:1036B00009F02350D9262450DA22DF502F2423C0CA
:1036C000D9FF24C0DAFFDF6E20EE09F02550D9269D
:1036D0002650DA22DF502F2425C0D9FF26C0DAFF7A
:1036E000DF6E23C01DF024C01EF013EC1EF025C0B9
:1036F0001DF026C01EF013EC1EF0000E2E6E000E04
:103700002D6E8DEF1BF0680E2A6EE40EE82EFED7AC
:103710002A2EFCD700D02D4A2E2A29502A6E2B6A39
:103720002A502D5C2E50800A2C6E2B50800A2C586B
:10373000D8A09DEF1BF09FEF1BF083EF1BF02F4AEB
:10374000302A27502A6E2B6A2F502A5C2B50800A71
:103750002C6E3050800A2C58D8B0B1EF1BF0B3EF6C
:103760001BF057EF1BF0000E2E6E000E2D6EC3EFF8
:103770001BF0680E2A6EE40EE82EFED72A2EFCD728
:1037800000D02D4A2E2A28502A6E2B6A2A502D5CF2
:103790002E50800A2C6E2B50800A2C58D8A0D3EFC4
:1037A0001BF0D5EF1BF0B9EF1BF027C02FF0306AEC
:1037B00030BEDFEF1BF0DDEF1BF0E1EF1BF02EEF73
:1037C0001CF020EE09F02350D9262450DA22DF50D5
:1037D0002F2423C0D9FF24C0DAFFDF6E20EE09F0CA
:1037E0002550D9262650DA22DF502F2425C0D9FFB4
:1037F00026C0DAFFDF6E23C01DF024C01EF013ECDC
:103800001EF025C01DF026C01EF013EC1EF0000EA9
:103810002E6E000E2D6E17EF1CF0680E2A6EE40E51
:10382000E82EFED72A2EFCD700D02D4A2E2A29506A
:103830002A6E2B6A2A502D5C2E50800A2C6E2B503B
:10384000800A2C58D8A027EF1CF029EF1CF00DEFB0
:103850001CF02F06D8A03006D8EF1BF023C0D9FFEC
:1038600024C0DAFFDF6A25C0D9FF26C0DAFFDF6A8D
:10387000120020EE01F02350D9262450DA22010E46
:10388000DF6E20EE01F02550D9262650DA22DF6ABD
:10389000000E306E010E2F6E98EF1CF020EE09F036
:1038A0002350D9262450DA22DF502F2423C0D9FFF9
:1038B00024C0DAFFDF6E20EE09F02550D92626500D
:1038C000DA22DF502F2425C0D9FF26C0DAFFDF6EB1
:1038D00023C01DF024C01EF013EC1EF025C01DF007
:1038E00026C01EF013EC1EF0000E2E6E000E2D6E84
:1038F00084EF1CF0680E2A6EE40EE82EFED72A2E06
:10390000FCD700D02D4A2E2A29502A6E2B6A2A5025
:103910002D5C2E50800A2C6E2B50800A2C58D8A07B
:1039200094EF1CF096EF1CF07AEF1CF02F4A302A2F
:1039300027502A6E2B6A2F502A5C2B50800A2C6E3F
:103940003050800A2C58D8B0A8EF1CF0AAEF1CF019
:103950004EEF1CF0000E2E6E000E2D6EBAEF1CF016
:10396000680E2A6EE40EE82EFED72A2EFCD700D071
:103970002D4A2E2A28502A6E2B6A2A502D5C2E5052
:10398000800A2C6E2B50800A2C58D8A0CAEF1CF04D
:10399000CCEF1CF0B0EF1CF027C02FF0306A30BE27
:1039A000D6EF1CF0D4EF1CF0D8EF1CF025EF1DF083
:1039B00020EE09F02350D9262450DA22DF502F249C
:1039C00023C0D9FF24C0DAFFDF6E20EE09F02550B6
:1039D000D9262650DA22DF502F2425C0D9FF26C051
:1039E000DAFFDF6E23C01DF024C01EF013EC1EF0C2
:1039F00025C01DF026C01EF013EC1EF0000E2E6E2A
:103A0000000E2D6E0EEF1DF0680E2A6EE40EE82EED
:103A1000FED72A2EFCD700D02D4A2E2A29502A6EF6
:103A20002B6A2A502D5C2E50800A2C6E2B50800A57
:103A30002C58D8A01EEF1DF020EF1DF004EF1DF054
:103A40002F06D8A03006CFEF1CF0120020EE01F0B8
:103A50002350D9262450DA22DF6A20EE01F02550C7
:103A6000D9262650DA22010EDF6E000E306E010ECE
:103A70002F6E85EF1DF020EE09F02350D92624503B
:103A8000DA22DF502F2423C0D9FF24C0DAFFDF6EF3
:103A900020EE09F02550D9262650DA22DF502F24B7
:103AA00025C0D9FF26C0DAFFDF6E23C01DF024C079
:103AB0001EF013EC1EF025C01DF026C01EF013EC06
:103AC0001EF0000E2E6E000E2D6E71EF1DF0680EB2
:103AD0002A6EE40EE82EFED72A2EFCD700D02D4AFF
:103AE0002E2A29502A6E2B6A2A502D5C2E50800ACD
:103AF0002C6E2B50800A2C58D8A081EF1DF083EF3C
:103B00001DF067EF1DF02F4A302A27502A6E2B6ACE
:103B10002F502A5C2B50800A2C6E3050800A2C5873
:103B2000D8B095EF1DF097EF1DF03BEF1DF0000EA4
:103B30002E6E000E2D6EA7EF1DF0680E2A6EE40E9D
:103B4000E82EFED72A2EFCD700D02D4A2E2A285048
:103B50002A6E2B6A2A502D5C2E50800A2C6E2B5018
:103B6000800A2C58D8A0B7EF1DF0B9EF1DF09DEFDB
:103B70001DF027C02FF0306A30BEC3EF1DF0C1EF3B
:103B80001DF0C5EF1DF012EF1EF020EE09F02350DE
:103B9000D9262450DA22DF502F2423C0D9FF24C095
:103BA000DAFFDF6E20EE09F02550D9262650DA2202
:103BB000DF502F2425C0D9FF26C0DAFFDF6E23C0D7
:103BC0001DF024C01EF013EC1EF025C01DF026C011
:103BD0001EF013EC1EF0000E2E6E000E2D6EFBEF8D
:103BE0001DF0680E2A6EE40EE82EFED72A2EFCD7B2
:103BF00000D02D4A2E2A29502A6E2B6A2A502D5C7D
:103C00002E50800A2C6E2B50800A2C58D8A00BEF17
:103C10001EF00DEF1EF0F1EF1DF02F06D8A03006BC
:103C2000BCEF1DF0120020EE02F01D50D9261E50F0
:103C3000DA22DF50D8B41FEF1EF021EF1EF055EF4F
:103C40001EF01DC0D9FF1EC0DAFFDF501F6E1F50CF
:103C5000106E116A20EE03F01D50D9261E50DA2294
:103C6000DECF12F0DDCF13F0B5EC23F010C016F06C
:103C700011C017F0000E196E640E186EE8EC21F0FA
:103C800020EE03F01D50D9261E50DA22DF50206EA0
:103C90001650205C216E20EE03F01D50D9261E50D8
:103CA000DA22DF50226E78EF1EF0000E216E1DC06A
:103CB000D9FF1EC0DAFFDF501F6E1F50106E116A51
:103CC00020EE03F01D50D9261E50DA22DECF12F06E
:103CD000DDCF13F0B5EC23F010C016F011C017F0D3
:103CE000000E196E640E186EE8EC21F01650226E6C
:103CF00020EE01F01D50D9261E50DA22DF50D8B434
:103D000084EF1EF086EF1EF0A8EF1EF020EE05F007
:103D10001D50D9261E50DA22DECF1FF0DDCF20F055
:103D20001FC0D9FF20C0DAFF21C0DFFF20EE07F05F
:103D30001D50D9261E50DA22DECF1FF0DDCF20F035
:103D40001FC0D9FF20C0DAFF22C0DFFFC8EF1EF07E
:103D500020EE05F01D50D9261E50DA22DECF1FF0CE
:103D6000DDCF20F01FC0D9FF20C0DAFF22C0DFFF67
:103D700020EE07F01D50D9261E50DA22DECF1FF0AC
:103D8000DDCF20F01FC0D9FF20C0DAFF21C0DFFF48
:103D90001200000E256E23BED2EF1EF0D0EF1EF0F3
:103DA000DCEF1EF0231E221E211E206C000E21229D
:103DB00022222322010E256E1FBEE3EF1EF0E1EF4B
:103DC0001EF0EDEF1EF01F1E1E1E1D1E1C6C000EB1
:103DD0001D221E221F22010E251A000E266E000E25
:103DE000276E000E286E000E296E20502110221022
:103DF0002310D8B4FEEF1EF000EF1FF036EF1FF0D7
:103E0000010E246E0AEF1FF0D8902036213622369C
:103E10002336242A23AE0FEF1FF011EF1FF004EF1B
:103E20001FF0D890263627362836293620501C5CBD
:103E300021501D5822501E5823501F58D8A023EF40
:103E40001FF025EF1FF02EEF1FF020501C5E2150B9
:103E50001D5A22501E5A23501F5A2680D8902332B2
:103E6000223221322032242E11EF1FF02550D8B4F7
:103E70003CEF1FF03EEF1FF046EF1FF0291E281EFB
:103E8000271E266C000E27222822292226C01CF07D
:103E900027C01DF028C01EF029C01FF0120020EE20
:103EA00001F02350D9262450DA22010EDF6E20EED5
:103EB00001F02550D9262650DA22010EDF6E23C0EC
:103EC000D9FF24C0DAFFDF50286E20EE09F023501E
:103ED000D9262450DA22DF50296E2950285C2D6E15
:103EE0002E6AD8A02E062EBE7AEF1FF078EF1FF0B4
:103EF0007CEF1FF0C8EF1FF020EE09F02350D92609
:103F00002450DA22DF502D2423C0D9FF24C0DAFF49
:103F1000DF6E20EE09F02550D9262650DA22DF5038
:103F20002D2425C0D9FF26C0DAFFDF6E23C01DF087
:103F300024C01EF013EC1EF025C01DF026C01EF09C
:103F400013EC1EF0000E2C6E000E2B6EB1EF1FF066
:103F5000D00E286ECA0EE82EFED7282EFCD72B4A8C
:103F60002C2A2750286E296A28502B5C2C50800A56
:103F70002A6E2950800A2A58D8A0C1EF1FF0C3EF3B
:103F80001FF0A8EF1FF02D06D8A02E0673EF1FF02C
:103F900023C0D9FF24C0DAFFDF6A25C0D9FF26C0BD
:103FA000DAFFDF6A120020EE01F02350D9262450F8
:103FB000DA22010EDF6E20EE01F02550D9262650C0
:103FC000DA22010EDF6E000E2F6E010E2E6E33EF21
:103FD00020F020EE09F02350D9262450DA22DF50B9
:103FE0002E2423C0D9FF24C0DAFFDF6E20EE09F0B3
:103FF0002550D9262650DA22DF502E2425C0D9FF9D
:1040000026C0DAFFDF6E23C01DF024C01EF013ECC3
:104010001EF025C01DF026C01EF013EC1EF0000E91
:104020002D6E000E2C6E1FEF20F0680E296EE40E30
:10403000E82EFED7292EFCD700D02C4A2D2A285056
:10404000296E2A6A29502C5C2D50800A2B6E2A502A
:10405000800A2B58D8A02FEF20F031EF20F015EF79
:1040600020F02E4A2F2A2750296E2A6A2E50295CCA
:104070002A50800A2B6E2F50800A2B58D8B043EF5D
:1040800020F045EF20F0E9EF1FF01200000E156E52
:1040900013BE4FEF20F04DEF20F055EF20F0126CE3
:1040A000131ED8B0132A010E156E11BE5CEF20F05E
:1040B0005AEF20F062EF20F0106C111ED8B0112AD8
:1040C000010E151A000E176E000E166E1250131008
:1040D000D8B46DEF20F06FEF20F097EF20F0010ED5
:1040E000146E77EF20F0D89012361336142A13AEE0
:1040F0007CEF20F07EEF20F073EF20F0D8901636A2
:1041000017361250105C13501158D8A08AEF20F0C7
:104110008CEF20F091EF20F01250105E1350115AE6
:104120001680D89013321232142E7EEF20F01550E4
:10413000D8B49DEF20F09FEF20F0A3EF20F0166C95
:10414000171ED8B0172A16C010F017C011F01200B1
:104150008AEC24F0520E6FEC24F0E60E6FEC24F0A3
:1041600085EC24F0D7C116F0D8C117F0000E196EF7
:10417000050E186EE8EC21F00101D75116241E6ED1
:10418000D85117201F6ED7C116F0D8C117F0000EF6
:10419000196E140E186EE8EC21F016500101D75D6F
:1041A000206E1750D859216E130E126E000E00ECBF
:1041B00024F03F0E1D6E550EE82EFED71D2EFCD7A7
:1041C00000001F50126E070E00EC24F01EC012F00B
:1041D000060E00EC24F02150126E050E00EC24F0C7
:1041E00020C012F0040E00EC24F0030E126E0C0E30
:1041F00000EC24F0120094EC24F0520E75EC24F044
:10420000E60E75EC24F08FEC24F0D7C101F0D8C194
:1042100002F0000E046E050E036E22EC22F0010186
:10422000D7510124096ED85102200A6ED7C101F07E
:10423000D8C102F0000E046E140E036E22EC22F0C0
:1042400001500101D75D0B6E0250D8590C6E130E50
:10425000036E000E20EC24F03F0E086E550EE82E83
:10426000FED7082EFCD700000A50036E070E20EC84
:1042700024F009C003F0060E20EC24F00C50036E6D
:10428000050E20EC24F00BC003F0040E20EC24F00B
:10429000030E036E0C0E20EC24F01200000E246EB0
:1042A000000E256E000E266E000E276E2050211087
:1042B00022102310D8B45FEF21F061EF21F097EFC7
:1042C00021F0010E286E6BEF21F0D89020362136B8
:1042D00022362336282A23AE70EF21F072EF21F028
:1042E00065EF21F0D8902436253626362736205023
:1042F0001C5C21501D5822501E5823501F58D8A016
:1043000084EF21F086EF21F08FEF21F020501C5E2A
:1043100021501D5A22501E5A23501F5A2480D890D3
:104320002332223221322032282E72EF21F024C093
:104330001CF025C01DF026C01EF027C01FF0120083
:104340007D9485947D9885987B9E839E7F9C879C99
:10435000050E0E01746F060E766F070E696F080E5C
:10436000886FBD508F0B3009BD6EE00EBE16BF507A
:10437000F00B0109BF6E10C0BCFFBD8E000EAA6E0F
:10438000000EA66E000E0F01256F000E216FFC0EB1
:10439000AD16F30EAD16CF0EAD163F0EAD16AB88B3
:1043A000AB50F00B0C09AB6EAB8EA788A750F00B8F
:1043B0000C09A76EA78E26892651F00B0C09266FD3
:1043C000268F22892251F00B0C09226F228F1200B6
:1043D000000E1B6E000E1A6E18501910D8B4F3EFB1
:1043E00021F0F5EF21F01DEF22F0010E1C6EFDEF24
:1043F00021F0D890183619361C2A19AE02EF22F097
:1044000004EF22F0F9EF21F0D8901A361B3618503D
:10441000165C19501758D8A010EF22F012EF22F0B6
:1044200017EF22F01850165E1950175A1A80D890BC
:10443000193218321C2E04EF22F01AC016F01BC0DD
:1044400017F01200000E066E000E056E03500410E9
:10445000D8B42DEF22F02FEF22F057EF22F0010E0B
:10446000076E37EF22F0D89003360436072A04AEE1
:104470003CEF22F03EEF22F033EF22F0D8900536E9
:1044800006360350015C04500258D8A04AEF22F0CF
:104490004CEF22F051EF22F00350015E0450025A1B
:1044A0000580D89004320332072E3EEF22F005C07B
:1044B00001F006C002F01200000E186E000E196E18
:1044C000000E1A6E000E1B6E10A069EF22F06BEF4B
:1044D00022F073EF22F014501826155019221650AE
:1044E0001A2217501B22D890143615361636173656
:1044F000D8901332123211321032105011101210A3
:104500001310D8A486EF22F088EF22F064EF22F097
:1045100018C010F019C011F01AC012F01BC013F02F
:104520001200320EF66E490EF76E000EF86E01EEB6
:10453000D3F010EE06F00900F5CFEEFFE550E150A4
:10454000FAE102EE00F07A0EEE6AE806FDE1010102
:10455000DA6BD96B00EE60F0780EEE6AE806FDE1EA
:104560004C6A4B6A4A6A496A4D904D92000134EF99
:1045700014F03FEC24F04CEC24F0186E18C010F04E
:10458000116A000E136E180E126E46EC20F01050D9
:10459000196E19A2CEEF22F0D0EF22F0D3EF22F065
:1045A0007C8ED4EF22F07C9E19A0D9EF22F0DBEFB5
:1045B00022F0DEEF22F08086DFEF22F080961200FC
:1045C000126E8DEC23F00E01DA878DEC23F0D5CE40
:1045D00013F08DEC23F01250D8B4F1EF22F0F5EF88
:1045E00022F0116A112AF6EF22F0116A113A1146EF
:1045F0000E01DA511118DF0B1118DA6FDA89135036
:10460000120064EC23F0010E126E000E00EC24F098
:104610003F0E226E550EE82EFED7222EFCD700004C
:10462000030E126E000E00EC24F0D50E126E010E79
:1046300000EC24F0A8EC20F012007C9E849E809672
:10464000889686840E01B4958686B4978092889267
:104650007C9884987C968496A797809088907E908A
:1046600086907F9087907D9E859E79968196120098
:104670001250105C13501158D8B041EF23F043EFA3
:1046800023F049EF23F010C010F011C011F04DEFEE
:1046900023F012C010F013C011F012001050125C81
:1046A00011501358D8B057EF23F059EF23F05FEFB4
:1046B00023F010C010F011C011F063EF23F012C00E
:1046C00010F013C011F012000E01D951F00B0809BF
:1046D000D96FD98B9F0ED66F848A848CA79BA79D98
:1046E0001D0E1D6F1E0E1C6F1C0E6F6F1B0E706F4C
:1046F0001200D3CF14F0156AD4CF16F0176A1650F3
:10470000136E126A14501210186E15501310196E91
:1047100018C010F019C011F012000E01D8B593EFB7
:1047200023F095EF23F08DEF23F0DACE10F01F0E7B
:104730001016D8A49EEF23F0A0EF23F08DEF23F006
:1047400012000E01D8B5A7EF23F0A9EF23F0A1EFD7
:1047500023F0DACE01F01F0E0116D8A4B2EF23F039
:10476000B4EF23F0A1EF23F0120010501202F3CFA8
:1047700014F0F4CF15F010501302F3501526115019
:104780001202F350152614C010F015C011F01200DB
:10479000016E130E4C64CFEF23F0D1EF23F0D3EF73
:1047A00023F0000E4C6E4C50C40FD96EDA6A01C073
:1047B000DFFF4C2A12003B0E4964E1EF23F0E3EFE8
:1047C00023F0E5EF23F0000E496E492A4904016EFB
:1047D0000150600FD96EDA6ADF501200106E10506F
:1047E000D8B4F5EF23F0F7EF23F0FCEF23F07F8050
:1047F0007D8E7986FFEF23F07F907D9E7996120063
:10480000136E8AEC24F0520E6FEC24F013508009E2
:104810006FEC24F012506FEC24F085EC24F01200C1
:10482000D6501F0B4009D66ED688D650F00B0B0918
:10483000D66ED588000ED46E000ED36ED58E1200C3
:10484000046E94EC24F0520E75EC24F004508009B0
:1048500075EC24F0035075EC24F08FEC24F012007A
:10486000120E0E01626F110E156FE997E895330E67
:10487000E56F000EE66FE789E88BE78F1200868C04
:104880000E01B48D0F015899FC0E58172E0E5F6F54
:1048900060946088608E1200608060B052EF24F0F7
:1048A00054EF24F04DEF24F064CF10F010501200BC
:1048B00049504A18D8A45FEF24F062EF24F0010EAB
:1048C00063EF24F0000E120082800E019A9129817C
:1048D0001F81F290298B2D87F28CF28E1200116EBF
:1048E0008DEC23F011C0D5FE1200026EA1EC23F076
:1048F00002C0D5FE1200000ED46E000ED36E120060
:104900008DEC23F00E01DA8312008DEC23F00E0102
:10491000DA8512008DEC23F00E01DA811200A1EC91
:1049200023F00E01DA851200A1EC23F00E01DA81EA
:08493000120002020101F40172
:020000040030CA
:02000000AAFF55
:020004009FFF5C
:00000001FF
