:040000004CEF00F0D1
:100008004B82D9CF0AF0DACF0BF00E0133A10FEFF4
:1000180000F011EF00F018EF00F0010E0101FB6F86
:10002800ECEC19F00E01339133AB1DEF00F01FEF2C
:1000380000F024EF00F0010E0101FA6F0E01339B6E
:1000480037A729EF00F02BEF00F02EEF00F0E35177
:10005800B2EC1BF00E0137A534EF00F036EF00F0DC
:1000680046EF00F0C5EC1BF00E01E46F42EC1CF00B
:100078000009D8A442EF00F044EF00F046EF00F08A
:100088000E012D950BC0DAFF0AC0D9FF4B92110063
:0400980063EF1AF008
:100E000000002DC01FF02EC020F02FC021F030C0F8
:100E100022F039C023F03AC024F03BC025F03FEC6B
:100E200015F0050E3D6E0F0E3C6EF10EE82EFED74E
:100E30003C2EFCD73D2EFAD700002DC01FF02EC04F
:100E400020F02FC021F030C022F039C023F03AC08A
:100E500024F03BC025F03FEC15F0050E3D6E0F0E63
:100E60003C6EF10EE82EFED73C2EFCD73D2EFAD775
:100E700000002DC01FF02EC020F02FC021F030C088
:100E800022F039C023F03AC024F03BC025F03FECFB
:100E900015F0050E3D6E0F0E3C6EF10EE82EFED7DE
:100EA0003C2EFCD73D2EFAD700002DC01FF02EC0DF
:100EB00020F02FC021F030C022F039C023F03AC01A
:100EC00024F03BC025F03FEC15F0050E3D6E0F0EF3
:100ED0003C6EF10EE82EFED73C2EFCD73D2EFAD705
:100EE00000002DC01FF02EC020F02FC021F030C018
:100EF00022F036C023F038C024F092EC18F065ECF4
:100F00001CF03550020DF3CF3CF0F4CF3DF03C50D7
:100F10003324D96E3D503420DA6E63EC1BF0DE5082
:100F20000C5CDE500D58D8A098EF07F09AEF07F050
:100F300081EF07F02DC01FF02EC020F02FC021F050
:100F400030C022F038C023F00DEC18F035C040F06E
:100F500056EF0AF0400640503124D96E000E322080
:100F6000DA6EDE04D8A4B7EF07F0B9EF07F0F3EFBD
:100F700007F02DC01FF02EC020F02FC021F030C090
:100F800022F039C023F03AC024F03BC025F03FECFA
:100F900015F0050E3D6E0F0E3C6EF10EE82EFED7DD
:100FA0003C2EFCD73D2EFAD700002DC01FF02EC0DE
:100FB00020F02FC021F030C022F039C023F03AC019
:100FC00024F03BC025F03FEC15F0050E3D6E0F0EF2
:100FD0003C6EF10EE82EFED73C2EFCD73D2EFAD704
:100FE000000021EF0AF040503124D96E000E32206B
:100FF000DA6E020EDE18D8A400EF08F002EF08F057
:101000003CEF08F02DC01FF02EC020F02FC021F0C3
:1010100030C022F039C023F03AC024F03BC025F0A4
:1010200052EC14F0050E3D6E0F0E3C6EF10EE82EE4
:10103000FED73C2EFCD73D2EFAD700002DC01FF066
:101040002EC020F02FC021F030C022F039C023F094
:101050003AC024F03BC025F052EC14F0050E3D6E72
:101060000F0E3C6EF10EE82EFED73C2EFCD73D2E27
:10107000FAD7000021EF0AF040503124D96E000E5B
:101080003220DA6E030EDE18D8A449EF08F04BEFD9
:1010900008F0BDEF08F02DC01FF02EC020F02FC0CB
:1010A00021F030C022F039C023F03AC024F03BC018
:1010B00025F03FEC15F0050E3D6E0F0E3C6EF10E67
:1010C000E82EFED73C2EFCD73D2EFAD700002DC0CF
:1010D0001FF02EC020F02FC021F030C022F039C008
:1010E00023F03AC024F03BC025F03FEC15F0050E8C
:1010F0003D6E0F0E3C6EF10EE82EFED73C2EFCD757
:101100003D2EFAD700002DC01FF02EC020F02FC0BA
:1011100021F030C022F039C023F03AC024F03BC0A7
:1011200025F03FEC15F0050E3D6E0F0E3C6EF10EF6
:10113000E82EFED73C2EFCD73D2EFAD700002DC05E
:101140001FF02EC020F02FC021F030C022F039C097
:1011500023F03AC024F03BC025F03FEC15F0050E1B
:101160003D6E0F0E3C6EF10EE82EFED73C2EFCD7E6
:101170003D2EFAD7000021EF0AF040503124D96EFD
:10118000000E3220DA6E040EDE18D8A4CAEF08F082
:10119000CCEF08F016EF09F02DC01FF02EC020F0A4
:1011A0002FC021F030C022F039C023F03AC024F023
:1011B0003BC025F03FEC15F0050E3D6E0F0E3C6E6A
:1011C000F10EE82EFED73C2EFCD73D2EFAD70000BC
:1011D0002DC01FF02EC020F02FC021F030C022F013
:1011E00039C023F03AC024F03BC025F03FEC15F0A5
:1011F000050E3D6E0F0E3C6EF10EE82EFED73C2E16
:10120000FCD73D2EFAD700002DC01FF02EC020F0D5
:101210002FC021F030C022F036C023F037C024F0B8
:1012200038C025F05CEC13F0AFEF08F040503124EB
:10123000D96E000E3220DA6E050EDE18D8A423EF28
:1012400009F025EF09F06FEF09F02DC01FF02EC057
:1012500020F02FC021F030C022F039C023F03AC076
:1012600024F03BC025F052EC14F0050E3D6E0F0E3D
:101270003C6EF10EE82EFED73C2EFCD73D2EFAD761
:1012800000002DC01FF02EC020F02FC021F030C074
:1012900022F039C023F03AC024F03BC025F052ECD4
:1012A00014F0050E3D6E0F0E3C6EF10EE82EFED7CB
:1012B0003C2EFCD73D2EFAD700002DC01FF02EC0CB
:1012C00020F02FC021F030C022F036C023F037C00C
:1012D00024F038C025F05CEC13F0AFEF08F040507C
:1012E0003124D96E000E3220DA6E060EDE18D8A434
:1012F0007CEF09F07EEF09F0C8EF09F02DC01FF078
:101300002EC020F02FC021F030C022F039C023F0D1
:101310003AC024F03BC025F03FEC15F0050E3D6EC1
:101320000F0E3C6EF10EE82EFED73C2EFCD73D2E64
:10133000FAD700002DC01FF02EC020F02FC021F0E2
:1013400030C022F039C023F03AC024F03BC025F071
:101350003FEC15F0050E3D6E0F0E3C6EF10EE82EC3
:10136000FED73C2EFCD73D2EFAD700002DC01FF033
:101370002EC020F02FC021F030C022F039C023F061
:101380003AC024F03BC025F03FEC15F0AFEF08F079
:1013900040503124D96E000E3220DA6E070EDE186E
:1013A000D8A4D5EF09F0D7EF09F021EF0AF02DC04E
:1013B0001FF02EC020F02FC021F030C022F039C025
:1013C00023F03AC024F03BC025F052EC14F0050E97
:1013D0003D6E0F0E3C6EF10EE82EFED73C2EFCD774
:1013E0003D2EFAD700002DC01FF02EC020F02FC0D8
:1013F00021F030C022F039C023F03AC024F03BC0C5
:1014000025F052EC14F0050E3D6E0F0E3C6EF10E01
:10141000E82EFED73C2EFCD73D2EFAD700002DC07B
:101420001FF02EC020F02FC021F030C022F039C0B4
:1014300023F03AC024F03BC025F052EC14F0AFEF9B
:1014400008F02DC01FF02EC020F02FC021F030C0BA
:1014500022F036C023F038C024F092EC18F065EC8E
:101460001CF04050020DF3CF3CF0F4CF3DF03C5067
:101470003324D96E3D503420DA6E63EC1BF0DE501D
:101480000C5CDE500D58D8A048EF0AF04AEF0AF085
:1014900031EF0AF02DC01FF02EC020F02FC021F038
:1014A00030C022F038C023F00DEC18F04050D8A422
:1014B0005CEF0AF05EEF0AF0AAEF07F012002DC011
:1014C0001FF02EC020F02FC021F030C022F039C014
:1014D00023F03AC024F03BC025F03FEC15F0050E98
:1014E0003D6E0F0E3C6EF10EE82EFED73C2EFCD763
:1014F0003D2EFAD700002DC01FF02EC020F02FC0C7
:1015000021F030C022F039C023F03AC024F03BC0B3
:1015100025F03FEC15F0050E3D6E0F0E3C6EF10E02
:10152000E82EFED73C2EFCD73D2EFAD700002DC06A
:101530001FF02EC020F02FC021F030C022F039C0A3
:1015400023F03AC024F03BC025F03FEC15F0050E27
:101550003D6E0F0E3C6EF10EE82EFED73C2EFCD7F2
:101560003D2EFAD700002DC01FF02EC020F02FC056
:1015700021F030C022F039C023F03AC024F03BC043
:1015800025F03FEC15F0050E3D6E0F0E3C6EF10E92
:10159000E82EFED73C2EFCD73D2EFAD700002DC0FA
:1015A0001FF02EC020F02FC021F030C022F036C036
:1015B00023F038C024F092EC18F065EC1CF0000E1B
:1015C0000101FA6FFA51D8B4E8EF0AF0EAEF0AF035
:1015D000E2EF0AF02DC01FF02EC020F02FC021F046
:1015E00030C022F038C023F00DEC18F035C040F0C8
:1015F000A6EF0DF0400640503124D96E000E322087
:10160000DA6EDE04D8A407EF0BF009EF0BF043EF1E
:101610000BF02DC01FF02EC020F02FC021F030C0E5
:1016200022F039C023F03AC024F03BC025F03FEC53
:1016300015F0050E3D6E0F0E3C6EF10EE82EFED736
:101640003C2EFCD73D2EFAD700002DC01FF02EC037
:1016500020F02FC021F030C022F039C023F03AC072
:1016600024F03BC025F03FEC15F0050E3D6E0F0E4B
:101670003C6EF10EE82EFED73C2EFCD73D2EFAD75D
:10168000000071EF0DF040503124D96E000E322071
:10169000DA6E020EDE18D8A450EF0BF052EF0BF00A
:1016A0008CEF0BF02DC01FF02EC020F02FC021F0CA
:1016B00030C022F039C023F03AC024F03BC025F0FE
:1016C00052EC14F0050E3D6E0F0E3C6EF10EE82E3E
:1016D000FED73C2EFCD73D2EFAD700002DC01FF0C0
:1016E0002EC020F02FC021F030C022F039C023F0EE
:1016F0003AC024F03BC025F052EC14F0050E3D6ECC
:101700000F0E3C6EF10EE82EFED73C2EFCD73D2E80
:10171000FAD7000071EF0DF040503124D96E000E61
:101720003220DA6E030EDE18D8A499EF0BF09BEF8F
:101730000BF00DEF0CF02DC01FF02EC020F02FC0CD
:1017400021F030C022F039C023F03AC024F03BC071
:1017500025F03FEC15F0050E3D6E0F0E3C6EF10EC0
:10176000E82EFED73C2EFCD73D2EFAD700002DC028
:101770001FF02EC020F02FC021F030C022F039C061
:1017800023F03AC024F03BC025F03FEC15F0050EE5
:101790003D6E0F0E3C6EF10EE82EFED73C2EFCD7B0
:1017A0003D2EFAD700002DC01FF02EC020F02FC014
:1017B00021F030C022F039C023F03AC024F03BC001
:1017C00025F03FEC15F0050E3D6E0F0E3C6EF10E50
:1017D000E82EFED73C2EFCD73D2EFAD700002DC0B8
:1017E0001FF02EC020F02FC021F030C022F039C0F1
:1017F00023F03AC024F03BC025F03FEC15F0050E75
:101800003D6E0F0E3C6EF10EE82EFED73C2EFCD73F
:101810003D2EFAD7000071EF0DF040503124D96E03
:10182000000E3220DA6E040EDE18D8A41AEF0CF087
:101830001CEF0CF066EF0CF02DC01FF02EC020F056
:101840002FC021F030C022F039C023F03AC024F07C
:101850003BC025F03FEC15F0050E3D6E0F0E3C6EC3
:10186000F10EE82EFED73C2EFCD73D2EFAD7000015
:101870002DC01FF02EC020F02FC021F030C022F06C
:1018800039C023F03AC024F03BC025F03FEC15F0FE
:10189000050E3D6E0F0E3C6EF10EE82EFED73C2E6F
:1018A000FCD73D2EFAD700002DC01FF02EC020F02F
:1018B0002FC021F030C022F036C023F037C024F012
:1018C00038C025F05CEC13F0FFEF0BF040503124F2
:1018D000D96E000E3220DA6E050EDE18D8A473EF32
:1018E0000CF075EF0CF0BFEF0CF02DC01FF02EC008
:1018F00020F02FC021F030C022F039C023F03AC0D0
:1019000024F03BC025F052EC14F0050E3D6E0F0E96
:101910003C6EF10EE82EFED73C2EFCD73D2EFAD7BA
:1019200000002DC01FF02EC020F02FC021F030C0CD
:1019300022F039C023F03AC024F03BC025F052EC2D
:1019400014F0050E3D6E0F0E3C6EF10EE82EFED724
:101950003C2EFCD73D2EFAD700002DC01FF02EC024
:1019600020F02FC021F030C022F036C023F037C065
:1019700024F038C025F05CEC13F0FFEF0BF0405082
:101980003124D96E000E3220DA6E060EDE18D8A48D
:10199000CCEF0CF0CEEF0CF018EF0DF02DC01FF0D7
:1019A0002EC020F02FC021F030C022F039C023F02B
:1019B0003AC024F03BC025F03FEC15F0050E3D6E1B
:1019C0000F0E3C6EF10EE82EFED73C2EFCD73D2EBE
:1019D000FAD700002DC01FF02EC020F02FC021F03C
:1019E00030C022F039C023F03AC024F03BC025F0CB
:1019F0003FEC15F0050E3D6E0F0E3C6EF10EE82E1D
:101A0000FED73C2EFCD73D2EFAD700002DC01FF08C
:101A10002EC020F02FC021F030C022F039C023F0BA
:101A20003AC024F03BC025F03FEC15F0FFEF0BF07F
:101A300040503124D96E000E3220DA6E070EDE18C7
:101A4000D8A425EF0DF027EF0DF071EF0DF02DC0AC
:101A50001FF02EC020F02FC021F030C022F039C07E
:101A600023F03AC024F03BC025F052EC14F0050EF0
:101A70003D6E0F0E3C6EF10EE82EFED73C2EFCD7CD
:101A80003D2EFAD700002DC01FF02EC020F02FC031
:101A900021F030C022F039C023F03AC024F03BC01E
:101AA00025F052EC14F0050E3D6E0F0E3C6EF10E5B
:101AB000E82EFED73C2EFCD73D2EFAD700002DC0D5
:101AC0001FF02EC020F02FC021F030C022F039C00E
:101AD00023F03AC024F03BC025F052EC14F0FFEFA5
:101AE0000BF02DC01FF02EC020F02FC021F030C011
:101AF00022F036C023F038C024F092EC18F065ECE8
:101B00001CF04050020DF3CF3CF0F4CF3DF03C50C0
:101B10003324D96E3D503420DA6E63EC1BF0DE5076
:101B20000C5CDE500D58D8A098EF0DF09AEF0DF038
:101B300081EF0DF02DC01FF02EC020F02FC021F03E
:101B400030C022F038C023F00DEC18F04050D8A47B
:101B5000ACEF0DF0AEEF0DF0FAEF0AF0120000015D
:101B6000DC05D8A4B6EF0DF0B8EF0DF000EF0EF0E5
:101B7000D8C01FF0D9C020F0DAC021F0DBC022F0BD
:101B8000E5C023F0E6C024F0E7C025F052EC14F0E5
:101B9000050E426E0F0E416EF10EE82EFED7412E5D
:101BA000FCD7422EFAD70000D8C01FF0D9C020F0D1
:101BB000DAC021F0DBC022F0E5C023F0E6C024F05B
:101BC000E7C025F052EC14F0050E426E0F0E416E88
:101BD000F10EE82EFED7412EFCD7422EFAD7000098
:101BE000D8C01FF0D9C020F0DAC021F0DBC022F04D
:101BF000E2C023F0E4C024F092EC18F0D9EF10F02A
:101C0000020EDC19D8A407EF0EF009EF0EF051EF29
:101C10000EF0D8C01FF0D9C020F0DAC021F0DBC030
:101C200022F0E5C023F0E6C024F0E7C025F03FEC49
:101C300015F0050E426E0F0E416EF10EE82EFED726
:101C4000412EFCD7422EFAD70000D8C01FF0D9C0D1
:101C500020F0DAC021F0DBC022F0E5C023F0E6C0BE
:101C600024F0E7C025F03FEC15F0050E426E0F0E94
:101C7000416EF10EE82EFED7412EFCD7422EFAD748
:101C80000000D8C01FF0D9C020F0DAC021F0DBC0BE
:101C900022F0E2C023F0E4C024F092EC18F0D9EF77
:101CA00010F0030EDC19D8A458EF0EF05AEF0EF026
:101CB000DAEF0EF0D8C01FF0D9C020F0DAC021F062
:101CC000DBC022F0E5C023F0E6C024F0E7C025F039
:101CD0003FEC15F0050E426E0F0E416EF10EE82E30
:101CE000FED7412EFCD7422EFAD70000D8C01FF0F5
:101CF000D9C020F0DAC021F0DBC022F0E5C023F02B
:101D0000E6C024F0E7C025F03FEC15F0050E426E6A
:101D10000F0E416EF10EE82EFED7412EFCD7422E5B
:101D2000FAD70000D8C01FF0D9C020F0DAC021F0E7
:101D3000DBC022F0E5C023F0E6C024F0E7C025F0C8
:101D40003FEC15F0050E426E0F0E416EF10EE82EBF
:101D5000FED7412EFCD7422EFAD70000D8C01FF084
:101D6000D9C020F0DAC021F0DBC022F0E5C023F0BA
:101D7000E6C024F0E7C025F03FEC15F0050E426EFA
:101D80000F0E416EF10EE82EFED7412EFCD7422EEB
:101D9000FAD70000D8C01FF0D9C020F0DAC021F077
:101DA000DBC022F0E2C023F0E4C024F092EC18F093
:101DB000D9EF10F0040EDC19D8A4E1EF0EF0E3EF38
:101DC0000EF047EF0FF0D8C01FF0D9C020F0DAC0F6
:101DD00021F0DBC022F0E2C023F0E3C024F0E4C035
:101DE00025F05CEC13F0050E426E0F0E416EF10E05
:101DF000E82EFED7412EFCD7422EFAD70000D8C0DD
:101E00001FF0D9C020F0DAC021F0DBC022F0E5C01D
:101E100023F0E6C024F0E7C025F052EC14F0050EE4
:101E2000426E0F0E416EF10EE82EFED7412EFCD70A
:101E3000422EFAD70000D8C01FF0D9C020F0DAC077
:101E400021F0DBC022F0E5C023F0E6C024F0E7C0BB
:101E500025F052EC14F0050E426E0F0E416EF10E9D
:101E6000E82EFED7412EFCD7422EFAD70000D8C06C
:101E70001FF0D9C020F0DAC021F0DBC022F0E2C0B0
:101E800023F0E4C024F092EC18F0D9EF10F0050E26
:101E9000DC19D8A44EEF0FF050EF0FF0B4EF0FF0B5
:101EA000D8C01FF0D9C020F0DAC021F0DBC022F08A
:101EB000E2C023F0E3C024F0E4C025F05CEC13F0B2
:101EC000050E426E0F0E416EF10EE82EFED7412E2A
:101ED000FCD7422EFAD70000D8C01FF0D9C020F09E
:101EE000DAC021F0DBC022F0E5C023F0E6C024F028
:101EF000E7C025F03FEC15F0050E426E0F0E416E67
:101F0000F10EE82EFED7412EFCD7422EFAD7000064
:101F1000D8C01FF0D9C020F0DAC021F0DBC022F019
:101F2000E5C023F0E6C024F0E7C025F03FEC15F053
:101F3000050E426E0F0E416EF10EE82EFED7412EB9
:101F4000FCD7422EFAD70000D8C01FF0D9C020F02D
:101F5000DAC021F0DBC022F0E2C023F0E4C024F0BC
:101F600092EC18F0D9EF10F0060EDC19D8A4BBEFF4
:101F70000FF0BDEF0FF021EF10F0D8C01FF0D9C067
:101F800020F0DAC021F0DBC022F0E5C023F0E6C08B
:101F900024F0E7C025F052EC14F0050E426E0F0E4F
:101FA000416EF10EE82EFED7412EFCD7422EFAD715
:101FB0000000D8C01FF0D9C020F0DAC021F0DBC08B
:101FC00022F0E5C023F0E6C024F0E7C025F052EC93
:101FD00014F0050E426E0F0E416EF10EE82EFED784
:101FE000412EFCD7422EFAD70000D8C01FF0D9C02E
:101FF00020F0DAC021F0DBC022F0E5C023F0E6C01B
:1020000024F0E7C025F052EC14F0050E426E0F0EDE
:10201000416EF10EE82EFED7412EFCD7422EFAD7A4
:102020000000D8C01FF0D9C020F0DAC021F0DBC01A
:1020300022F0E2C023F0E4C024F092EC18F0D9EFD3
:1020400010F0070EDC19D8A428EF10F02AEF10F0DA
:102050008EEF10F0D8C01FF0D9C020F0DAC021F008
:10206000DBC022F0E5C023F0E6C024F0E7C025F095
:102070003FEC15F0050E426E0F0E416EF10EE82E8C
:10208000FED7412EFCD7422EFAD70000D8C01FF051
:10209000D9C020F0DAC021F0DBC022F0E5C023F087
:1020A000E6C024F0E7C025F03FEC15F0050E426EC7
:1020B0000F0E416EF10EE82EFED7412EFCD7422EB8
:1020C000FAD70000D8C01FF0D9C020F0DAC021F044
:1020D000DBC022F0E5C023F0E6C024F0E7C025F025
:1020E0003FEC15F0050E426E0F0E416EF10EE82E1C
:1020F000FED7412EFCD7422EFAD70000D8C01FF0E1
:10210000D9C020F0DAC021F0DBC022F0E2C023F019
:10211000E4C024F092EC18F0D9EF10F0080EDC19AE
:10212000D8A495EF10F097EF10F0B9EF10F0D8C0E9
:102130002DF0D9C02EF0DAC02FF0DBC030F0DDC0BA
:1021400031F0DEC032F0DFC033F0E0C034F0E1C087
:1021500035F0E2C036F0E3C037F0E4C038F0E5C057
:1021600039F0E6C03AF0E7C03BF001EC07F0D9EFF8
:1021700010F0D8C02DF0D9C02EF0DAC02FF0DBC09F
:1021800030F0DDC031F0DEC032F0DFC033F0E0C04F
:1021900034F0E1C035F0E2C036F0E3C037F0E4C01F
:1021A00038F0E5C039F0E6C03AF0E7C03BF001ECAA
:1021B00007F0120021EE00F0270EDE6AE806FDE2CD
:1021C000000E0101B36F21EE7AF0270EDE6AE806F9
:1021D000FDE221EE28F0510EDE6AE806FDE2000E77
:1021E000B56FFCC1A2F1FDC1A3F1FEC1A4F1FFC115
:1021F000A5F133EC1BF017EC1BF0FAEC1BF04EECE6
:102200001CF01AEC1CF0000E0D6EC70E0C6E67EC85
:1022100019F0000E0101C86F010EC96F010ECA6FDF
:10222000AA0ECD6F0F0ECE6FA60ECF6F0F0ED06F12
:10223000000ECC6FC70ECB6F030ED16F000EBE6FBA
:10224000010EBF6F010EC06F250EC36F0F0EC46F5E
:10225000210EC56F0F0EC66F000EC26FC70EC16F85
:10226000000EC76F190EB26F020EB46F0A0EAE6F7A
:10227000150EAF6F0A0EB06F040EB16FCFEC1AF0EF
:102280008EB445EF11F047EF11F040EF11F080965A
:102290007C9E7C868082290E446E960E436E7F0E55
:1022A000E82EFED7432EFCD7442EFAD70000010EAD
:1022B000D8EC1BF0520E446E2B0E436E000EE82E2F
:1022C000FED7432EFCD7442EFAD700D0B60E106EA0
:1022D000010E116E65EC12F0BCC149F0BDC14AF0AF
:1022E000290E446E960E436E7F0EE82EFED7432EC7
:1022F000FCD7442EFAD70000C80E1F6E010E206EC8
:10230000BE0E216E010E226E190E236E020E246E79
:1023100092EC18F065EC1CF0000E0101FB6F000E52
:10232000FA6FFB05D8A497EF11F099EF11F014EFB5
:1023300012F00E01299B29AB02D0298102D00E0197
:10234000299163EC1BF00101B551020D280EF32415
:10235000D96E010EF420DA6E0CC0DEFF0DC0DDFF79
:10236000C80E1F6E010E206EBE0E216E010E226E73
:10237000B4C123F00DEC18F0B60E106E010E116E04
:1023800065EC12F021EEB6F000EE26F0070EDBCF82
:10239000EBFFE806FCE2A60E2E6E010E2F6EE2ECBD
:1023A00016F0A20E0101B525D96EDA6A010EDA2205
:1023B000DF50B36F7A0EB525D96EDA6A010EDA22D4
:1023C000B3C1DFFFC80E0001D86F010ED96FBE0E7A
:1023D000DA6F010EDB6FB3C1DCF07A0EDD6F010E38
:1023E000DE6F280EDF6F010EE06FB5C1E1F0B2C104
:1023F000E2F0AEC1E3F0B4C1E4F0AFC1E5F0B0C1CA
:10240000E6F0B1C1E7F0AFEC0DF00101B52B65ECE2
:102410001CF00E01298B29AB02D0298102D00E01BC
:102420002991000E0101FB6FFA05D8A41AEF12F0F2
:102430001CEF12F051EF12F00E012991C80E1F6E21
:10244000010E206EBE0E216E010E226EB4C123F06D
:102450000DEC18F0C80E2D6E010E2E6EBE0E2F6EF6
:10246000010E306E7A0E316E010E326E280E336E12
:10247000010E346EB5C135F0B2C136F0AEC137F0E1
:10248000B4C138F0AFC139F0B0C13AF0B1C13BF0DE
:102490005FEC0AF00E012981000E0101FA6F63EF73
:1024A00012F0080EB319D8B458EF12F05AEF12F028
:1024B00063EF12F0090EB319D8A461EF12F063EFC5
:1024C00012F091EF11F04CEF00F074EC1CF0520E92
:1024D00059EC1CF0B60E59EC1CF06AEC1CF0530ED3
:1024E00059EC1CF0010EF6EC1AF0126E136A10C0D3
:1024F000D9FF11C0DAFF12C0DEFF13C0DDFF10C02C
:10250000D9FF11C0DAFFDECF12F0DDCF13F0000EDD
:10251000F6EC1AF0146E1450166E156A125015105F
:10252000176E13501610186E10C0D9FF11C0DAFFC5
:1025300017C0DEFF18C0DDFF6FEC1CF074EC1CF060
:10254000520E59EC1CF0B80E59EC1CF06AEC1CF061
:10255000530E59EC1CF0010EF6EC1AF0126E136AD1
:1025600020EE02F01050D9261150DA2212C0DEFF00
:1025700013C0DDFF20EE02F01050D9261150DA22F0
:10258000DECF12F0DDCF13F0000EF6EC1AF0146E71
:102590001450166E156A12501510176E135016103F
:1025A000186E20EE02F01050D9261150DA2217C012
:1025B000DEFF18C0DDFF6FEC1CF074EC1CF0520E57
:1025C00059EC1CF0BA0E59EC1CF06AEC1CF0530EDE
:1025D00059EC1CF0010EF6EC1AF0126E136A20EEA4
:1025E00004F01050D9261150DA2212C0DEFF13C0B9
:1025F000DDFF20EE04F01050D9261150DA22DECF94
:1026000012F0DDCF13F0000EF6EC1AF0146E145039
:10261000166E156A12501510176E13501610186E9C
:1026200020EE04F01050D9261150DA2217C0DEFF38
:1026300018C0DDFF6FEC1CF074EC1CF0520E59EC6E
:102640001CF0B40E59EC1CF06AEC1CF0530E59EC63
:102650001CF0010EF6EC1AF0126E136A20EE06F072
:102660001050D9261150DA2212C0DEFF13C0DDFF50
:1026700020EE06F01050D9261150DA22DECF12F0EB
:10268000DDCF13F0000EF6EC1AF0146E1450166E37
:10269000156A12501510176E13501610186E20EE92
:1026A00006F01050D9261150DA2217C0DEFF18C0EC
:1026B000DDFF6FEC1CF0120020EE01F01F50D92658
:1026C0002050DA22DF6A20EE01F02150D926225074
:1026D000DA22DF6A000E2C6E010E2B6EBAEF13F0B9
:1026E00020EE09F01F50D9262050DA22DF502B248B
:1026F0001FC0D9FF20C0DAFFDF6E20EE09F02150A5
:10270000D9262250DA22DF502B2421C0D9FF22C043
:10271000DAFFDF6E1FC019F020C01AF02CEC16F0A3
:1027200021C019F022C01AF02CEC16F0000E2A6E0F
:10273000000E296EA6EF13F0680E266EE40EE82E4A
:10274000FED7262EFCD700D0294A2A2A2550266EED
:10275000276A2650295C2A50800A286E2750800A52
:102760002858D8A0B6EF13F0B8EF13F09CEF13F091
:102770002B4A2C2A2350266E276A2B50265C275082
:10278000800A286E2C50800A2858D8B0CAEF13F05F
:10279000CCEF13F070EF13F0000E2A6E000E296ECE
:1027A000DCEF13F0680E266EE40EE82EFED7262E20
:1027B000FCD700D0294A2A2A2450266E276A2650A0
:1027C000295C2A50800A286E2750800A2858D8A0F1
:1027D000ECEF13F0EEEF13F0D2EF13F023C02BF079
:1027E0002C6A2CBEF8EF13F0F6EF13F0FAEF13F0AB
:1027F00047EF14F020EE09F01F50D9262050DA22BE
:10280000DF502B241FC0D9FF20C0DAFFDF6E20EE7F
:1028100009F02150D9262250DA22DF502B2421C082
:10282000D9FF22C0DAFFDF6E1FC019F020C01AF0F6
:102830002CEC16F021C019F022C01AF02CEC16F086
:10284000000E2A6E000E296E30EF14F0680E266E10
:10285000E40EE82EFED7262EFCD700D0294A2A2ADD
:102860002550266E276A2650295C2A50800A286E39
:102870002750800A2858D8A040EF14F042EF14F0F7
:1028800026EF14F02B06D8A02C06F1EF13F01FC092
:10289000D9FF20C0DAFFDF6A21C0D9FF22C0DAFFEA
:1028A000DF6A120020EE01F01F50D9262050DA22F4
:1028B000010EDF6E20EE01F02150D9262250DA22DF
:1028C000DF6A000E2C6E010E2B6EB1EF14F020EEBD
:1028D00009F01F50D9262050DA22DF502B241FC0C8
:1028E000D9FF20C0DAFFDF6E20EE09F02150D92693
:1028F0002250DA22DF502B2421C0D9FF22C0DAFF78
:10290000DF6E1FC019F020C01AF02CEC16F021C0A9
:1029100019F022C01AF02CEC16F0000E2A6E000EF0
:10292000296E9DEF14F0680E266EE40EE82EFED799
:10293000262EFCD700D0294A2A2A2550266E276A3F
:102940002650295C2A50800A286E2750800A285871
:10295000D8A0ADEF14F0AFEF14F093EF14F02B4AC2
:102960002C2A2350266E276A2B50265C2750800A7B
:10297000286E2C50800A2858D8B0C1EF14F0C3EF4D
:1029800014F067EF14F0000E2A6E000E296ED3EFDC
:1029900014F0680E266EE40EE82EFED7262EFCD725
:1029A00000D0294A2A2A2450266E276A2650295CFC
:1029B0002A50800A286E2750800A2858D8A0E3EFB2
:1029C00014F0E5EF14F0C9EF14F023C02BF02C6ADB
:1029D0002CBEEFEF14F0EDEF14F0F1EF14F03EEF3A
:1029E00015F020EE09F01F50D9262050DA22DF50D2
:1029F0002B241FC0D9FF20C0DAFFDF6E20EE09F0C4
:102A00002150D9262250DA22DF502B2421C0D9FFB1
:102A100022C0DAFFDF6E1FC019F020C01AF02CECC4
:102A200016F021C019F022C01AF02CEC16F0000E9E
:102A30002A6E000E296E27EF15F0680E266EE40E42
:102A4000E82EFED7262EFCD700D0294A2A2A255068
:102A5000266E276A2650295C2A50800A286E275045
:102A6000800A2858D8A037EF15F039EF15F01DEF80
:102A700015F02B06D8A02C06E8EF14F0120020EE7B
:102A800001F01F50D9262050DA22DF6A20EE01F033
:102A90002150D9262250DA22010EDF6E000E2C6E54
:102AA000010E2B6E9EEF15F020EE09F01F50D92677
:102AB0002050DA22DF502B241FC0D9FF20C0DAFFBC
:102AC000DF6E20EE09F02150D9262250DA22DF50A5
:102AD0002B2421C0D9FF22C0DAFFDF6E1FC019F0FE
:102AE00020C01AF02CEC16F021C019F022C01AF008
:102AF0002CEC16F0000E2A6E000E296E8AEF15F0EF
:102B0000680E266EE40EE82EFED7262EFCD700D0E7
:102B1000294A2A2A2550266E276A2650295C2A50DF
:102B2000800A286E2750800A2858D8A09AEF15F0FE
:102B30009CEF15F080EF15F02B4A2C2A2350266EBF
:102B4000276A2B50265C2750800A286E2C50800A5A
:102B50002858D8B0AEEF15F0B0EF15F054EF15F0DF
:102B6000000E2A6E000E296EC0EF15F0680E266E5C
:102B7000E40EE82EFED7262EFCD700D0294A2A2ABA
:102B80002450266E276A2650295C2A50800A286E17
:102B90002750800A2858D8A0D0EF15F0D2EF15F0B2
:102BA000B6EF15F023C02BF02C6A2CBEDCEF15F02D
:102BB000DAEF15F0DEEF15F02BEF16F020EE09F04E
:102BC0001F50D9262050DA22DF502B241FC0D9FFF6
:102BD00020C0DAFFDF6E20EE09F02150D926225006
:102BE000DA22DF502B2421C0D9FF22C0DAFFDF6EAA
:102BF0001FC019F020C01AF02CEC16F021C019F0FB
:102C000022C01AF02CEC16F0000E2A6E000E296E6F
:102C100014EF16F0680E266EE40EE82EFED7262E70
:102C2000FCD700D0294A2A2A2550266E276A26502A
:102C3000295C2A50800A286E2750800A2858D8A07C
:102C400024EF16F026EF16F00AEF16F02B06D8A0A8
:102C50002C06D5EF15F0120020EE02F01950D926FF
:102C60001A50DA22DF50D8B438EF16F03AEF16F0E7
:102C70006EEF16F019C0D9FF1AC0DAFFDF501B6ED5
:102C80001B500C6E0D6A20EE03F01950D9261A5015
:102C9000DA22DECF0EF0DDCF0FF09FEC1BF00CC080
:102CA00012F00DC013F0000E156E640E146E29ECB8
:102CB0001AF020EE03F01950D9261A50DA22DF500C
:102CC0001C6E12501C5C1D6E20EE03F01950D926AC
:102CD0001A50DA22DF501E6E91EF16F0000E1D6EB4
:102CE00019C0D9FF1AC0DAFFDF501B6E1B500C6EE3
:102CF0000D6A20EE03F01950D9261A50DA22DECFE1
:102D00000EF0DDCF0FF09FEC1BF00CC012F00DC0E9
:102D100013F0000E156E640E146E29EC1AF01250AA
:102D20001E6E20EE01F01950D9261A50DA22DF501B
:102D3000D8B49DEF16F09FEF16F0C1EF16F020EE1D
:102D400005F01950D9261A50DA22DECF1BF0DDCF5C
:102D50001CF01BC0D9FF1CC0DAFF1DC0DFFF20EE36
:102D600007F01950D9261A50DA22DECF1BF0DDCF3A
:102D70001CF01BC0D9FF1CC0DAFF1EC0DFFFE1EF53
:102D800016F020EE05F01950D9261A50DA22DECFBF
:102D90001BF0DDCF1CF01BC0D9FF1CC0DAFF1EC02A
:102DA000DFFF20EE07F01950D9261A50DA22DECFC5
:102DB0001BF0DDCF1CF01BC0D9FF1CC0DAFF1DC00B
:102DC000DFFF120020EE06F02E50D9262F50DA2217
:102DD0002CC0DEFF2DC0DDFF26C00CF027C00DF09B
:102DE0000E6A0F6AE80E106E030E116E000E126E60
:102DF000000E136E9AEC1AF00CC018F00DC019F00A
:102E00000EC01AF00FC01BF02A502824306E2B5031
:102E10002920316E265030262750312230C01CF038
:102E200031C01DF01E6A1F6A87EC17F02EC0D9FF53
:102E30002FC0DAFF18C0DEFF19C0DDFF28C00CF07C
:102E400029C00DF00E6A0F6AE80E106E030E116EA7
:102E5000000E126E000E136E9AEC1AF00CC018F0F1
:102E60000DC019F00EC01AF00FC01BF02A50282414
:102E7000306E2B502920316E2650302627503122BB
:102E800030C01CF031C01DF01E6A1F6A87EC17F0BD
:102E900020EE02F02E50D9262F50DA2218C0DEFF85
:102EA00019C0DDFF2AC00CF02BC00DF00E6A0F6AAE
:102EB000E80E106E030E116E000E126E000E136EF1
:102EC0009AEC1AF00CC018F00DC019F00EC01AF0F0
:102ED0000FC01BF02A502824306E2B502920316E51
:102EE000265030262750312230C01CF031C01DF052
:102EF0001E6A1F6A87EC17F020EE04F02E50D926C8
:102F00002F50DA2218C0DEFF19C0DDFF1200000EBC
:102F1000216E1FBE90EF17F08EEF17F09AEF17F0AB
:102F20001F1E1E1E1D1E1C6C000E1D221E221F2297
:102F3000010E216E1BBEA1EF17F09FEF17F0ABEF54
:102F400017F01B1E1A1E191E186C000E19221A22C9
:102F50001B22010E211A000E226E000E236E000E9F
:102F6000246E000E256E1C501D101E101F10D8B4AC
:102F7000BCEF17F0BEEF17F0F4EF17F0010E206E64
:102F8000C8EF17F0D8901C361D361E361F36202A83
:102F90001FAECDEF17F0CFEF17F0C2EF17F0D890BC
:102FA00022362336243625361C50185C1D501958FD
:102FB0001E501A581F501B58D8A0E1EF17F0E3EF2E
:102FC00017F0ECEF17F01C50185E1D50195A1E50E8
:102FD0001A5A1F501B5A2280D8901F321E321D329F
:102FE0001C32202ECFEF17F02150D8B4FAEF17F093
:102FF000FCEF17F004EF18F0251E241E231E226C90
:10300000000E23222422252222C018F023C019F00A
:1030100024C01AF025C01BF0120020EE01F01F5052
:10302000D9262050DA22010EDF6E20EE01F0215069
:10303000D9262250DA22010EDF6E1FC0D9FF20C030
:10304000DAFFDF50246E20EE09F01F50D926205001
:10305000DA22DF50256E2550245C296E2A6AD8A01A
:103060002A062ABE38EF18F036EF18F03AEF18F0BB
:1030700087EF18F020EE09F01F50D9262050DA22F1
:10308000DF5029241FC0D9FF20C0DAFFDF6E20EEF9
:1030900009F02150D9262250DA22DF50292421C0FC
:1030A000D9FF22C0DAFFDF6E1FC019F020C01AF06E
:1030B0002CEC16F021C019F022C01AF02CEC16F0FE
:1030C000000E286E000E276E70EF18F0680E246E4A
:1030D000E40EE82EFED7242EFCD700D0274A282A5B
:1030E0002350246E256A2450275C2850800A266EBF
:1030F0002550800A2658D8A080EF18F082EF18F0EB
:1031000066EF18F02906D8A02A0631EF18F01FC084
:10311000D9FF20C0DAFFDF6A21C0D9FF22C0DAFF61
:10312000DF6A120020EE01F01F50D9262050DA226B
:10313000010EDF6E20EE01F02150D9262250DA2256
:10314000010EDF6E000E2B6E010E2A6EF2EF18F0EC
:1031500020EE09F01F50D9262050DA22DF502A2411
:103160001FC0D9FF20C0DAFFDF6E20EE09F021502A
:10317000D9262250DA22DF502A2421C0D9FF22C0CA
:10318000DAFFDF6E1FC019F020C01AF02CEC16F029
:1031900021C019F022C01AF02CEC16F0000E296E96
:1031A000000E286EDEEF18F0680E256EE40EE82E95
:1031B000FED7252EFCD700D0284A292A2450256E78
:1031C000266A2550285C2950800A276E2650800ADE
:1031D0002758D8A0EEEF18F0F0EF18F0D4EF18F061
:1031E0002A4A2B2A2350256E266A2A50255C26500F
:1031F000800A276E2B50800A2758D8B002EF19F0AA
:1032000004EF19F0A8EF18F01200000E116E0FBEB7
:103210000EEF19F00CEF19F014EF19F00E6C0F1EF1
:10322000D8B00F2A010E116E0DBE1BEF19F019EF69
:1032300019F021EF19F00C6C0D1ED8B00D2A010EFB
:10324000111A000E136E000E126E0E500F10D8B42D
:103250002CEF19F02EEF19F056EF19F0010E106E49
:1032600036EF19F0D8900E360F36102A0FAE3BEF1E
:1032700019F03DEF19F032EF19F0D89012361336ED
:103280000E500C5C0F500D58D8A049EF19F04BEFC1
:1032900019F050EF19F00E500C5E0F500D5A1280BD
:1032A000D8900F320E32102E3DEF19F01150D8B4D5
:1032B0005CEF19F05EEF19F062EF19F0126C131E5B
:1032C000D8B0132A12C00CF013C00DF012007D9478
:1032D00085947D9885987B9E839E7F9C879C050E18
:1032E0000E01746F060E766F070E696F080E886FF9
:1032F000BD508F0B3009BD6EE00EBE16BF50F00BF7
:103300000109BF6E0CC0BCFFBD8E000EAA6E000E80
:10331000A66E000E0F01256F000E216FFC0EAD167C
:10332000F30EAD16CF0EAD163F0EAD16AB88AB50FB
:10333000F00B0C09AB6EAB8EA788A750F00B0C09F5
:10334000A76EA78E26892651F00B0C09266F268FB3
:1033500022892251F00B0C09226F228F120074EC8B
:103360001CF0520E59EC1CF0E60E59EC1CF06FEC00
:103370001CF0140E4924116E000E4A20126EEC0E41
:103380004924136EFF0E4A20146E130E0E6E000EAB
:10339000EAEC1BF03F0E106E550EE82EFED7102EF5
:1033A000FCD7000012500E6E070EEAEC1BF011C0A5
:1033B0000EF0060EEAEC1BF014500E6E050EEAEC51
:1033C0001BF013C00EF0040EEAEC1BF0040E0E6EA0
:1033D0000C0EEAEC1BF012007EEC1CF0520E5FECBF
:1033E0001CF0E60E5FEC1CF079EC1CF0140E492486
:1033F000066E000E4A20076EEC0E4924086EFF0E82
:103400004A20096E130E036E000E0AEC1CF03F0EEC
:10341000056E550EE82EFED7052EFCD7000007508E
:10342000036E070E0AEC1CF006C003F0060E0AEC51
:103430001CF00950036E050E0AEC1CF008C003F0E6
:10344000040E0AEC1CF0040E036E0C0E0AEC1CF0C9
:103450001200000E176E000E166E14501510D8B420
:1034600034EF1AF036EF1AF05EEF1AF0010E186E14
:103470003EEF1AF0D89014361536182A15AE43EFE1
:103480001AF045EF1AF03AEF1AF0D89016361736C0
:103490001450125C15501358D8A051EF1AF053EF86
:1034A0001AF058EF1AF01450125E1550135A168085
:1034B000D89015321432182E45EF1AF016C012F0BB
:1034C00017C013F01200060EF66E390EF76E000EDE
:1034D000F86E01EEFCF010EE04F00900F5CFEEFFFF
:1034E000E550E150FAE10A0EF66E390EF76E000E65
:1034F000F86E0900F5CF49F00900F5CF4AF002EE69
:1035000000F0520EEE6AE806FDE101EED2F02A0E5E
:10351000EE6AE806FDE100EE60F0780EEE6AE8067D
:10352000FDE1486A476A466A456A4B904B92000142
:10353000DAEF10F0000E146E000E156E000E166E0F
:10354000000E176E0CA0A7EF1AF0A9EF1AF0B1EF5A
:103550001AF0105014261150152212501622135032
:103560001722D8901036113612361336D8900F32F3
:103570000E320D320C320C500D100E100F10D8A45C
:10358000C4EF1AF0C6EF1AF0A2EF1AF014C00CF054
:1035900015C00DF016C00EF017C00FF0120029EC88
:1035A0001CF036EC1CF0146E14C00CF00D6A000E0A
:1035B0000F6E180E0E6E05EC19F00C50156E15A25C
:1035C000E4EF1AF0E6EF1AF0E9EF1AF07C8EEAEF7A
:1035D0001AF07C9E15A0EFEF1AF0F1EF1AF0F4EF5D
:1035E0001AF08086F5EF1AF0809612000E6E77ECD6
:1035F0001BF00E01DA8777EC1BF0D5CE0FF077ECDD
:103600001BF00E50D8B407EF1BF00BEF1BF00D6A48
:103610000D2A0CEF1BF00D6A0D3A0D460E01DA5122
:103620000D18DF0B0D18DA6FDA890F5012004EEC0F
:103630001BF0010E0E6E000EEAEC1BF03F0E156E35
:10364000550EE82EFED7152EFCD70000030E0E6E89
:10365000000EEAEC1BF0D50E0E6E010EEAEC1BF02C
:10366000AFEC19F012007C9E849E8096889686842A
:103670000E01B4958686B497809288927C9884983F
:103680007C968496A797809088907E9086907F9075
:1036900087907D9E859E7996819612000E01D95164
:1036A000F00B0809D96FD98B9F0ED66F848A848C52
:1036B000A79BA79D1D0E1D6F1E0E1C6F1C0E6F6F0E
:1036C0001B0E706F1200D3CF10F0116AD4CF12F01E
:1036D000136A12500F6E0E6A10500E10146E1150B5
:1036E0000F10156E14C00CF015C00DF012000E0175
:1036F000D8B57DEF1BF07FEF1BF077EF1BF0DACE34
:103700000CF01F0E0C16D8A488EF1BF08AEF1BF0EC
:1037100077EF1BF012000E01D8B591EF1BF093EF7D
:103720001BF08BEF1BF0DACE01F01F0E0116D8A4B0
:103730009CEF1BF09EEF1BF08BEF1BF012000C5068
:103740000E02F3CF10F0F4CF11F00C500F02F35033
:1037500011260D500E02F350112610C00CF011C0AE
:103760000DF01200016E130E4864B9EF1BF0BBEFB1
:103770001BF0BDEF1BF0000E486E4850C40FD96E11
:10378000DA6A01C0DFFF482A12003B0E4564CBEF26
:103790001BF0CDEF1BF0CFEF1BF0000E456E452A5E
:1037A0004504016E0150600FD96EDA6ADF501200D5
:1037B0000C6E0C50D8B4DFEF1BF0E1EF1BF0E6EF1E
:1037C0001BF07F807D8E7986E9EF1BF07F907D9ED8
:1037D000799612000F6E74EC1CF0520E59EC1CF02E
:1037E0000F50800959EC1CF00E5059EC1CF06FEC96
:1037F0001CF01200D6501F0B4009D66ED688D6504A
:10380000F00B0B09D66ED588000ED46E000ED36E69
:10381000D58E1200046E7EEC1CF0520E5FEC1CF094
:10382000045080095FEC1CF003505FEC1CF079EC55
:103830001CF01200120E0E01626F110E156FE99747
:10384000E895330EE56F000EE66FE789E88BE78FAA
:103850001200868C0E01B48D0F015899FC0E58177A
:103860002E0E5F6F60946088608E1200608060B082
:103870003CEF1CF03EEF1CF037EF1CF064CF0CF077
:103880000C50120045504618D8A449EF1CF04CEFDC
:103890001CF0010E4DEF1CF0000E120082800E0194
:1038A0009A9129811F81F290298B2D87F28CF28EBB
:1038B00012000D6E77EC1BF00DC0D5FE1200026EEB
:1038C0008BEC1BF002C0D5FE1200000ED46E000E71
:1038D000D36E120077EC1BF00E01DA83120077EC46
:1038E0001BF00E01DA85120077EC1BF00E01DA8175
:1038F00012008BEC1BF00E01DA8512008BEC1BF032
:0C3900000E01DA81120001030908F40135
:020000040030CA
:02000000AAFF55
:020004009FFF5C
:00000001FF
