:040000004CEF00F0D1
:100008005082D9CF0AF0DACF0BF00E0133A10FEFEF
:1000180000F011EF00F018EF00F0010E0001B16FD1
:10002800F3EC1FF00E01339133AB1DEF00F01FEF1F
:1000380000F024EF00F0010E0001B06F0E01339BB9
:1000480037A729EF00F02BEF00F02EEF00F0E35177
:10005800DFEC21F00E0137A534EF00F036EF00F0A9
:1000680046EF00F0F2EC21F00E01E46F6FEC22F0A5
:100078000009D8A442EF00F044EF00F046EF00F08A
:100088000E012D950BC0DAFF0AC0D9FF509211005E
:040098009FEF20F0C6
:100E000000002DC01FF02EC020F02FC021F030C0F8
:100E100022F039C023F03AC024F03BC025F0B6ECF4
:100E20001AF0050E3D6E0F0E3C6EF10EE82EFED749
:100E30003C2EFCD73D2EFAD700002DC01FF02EC04F
:100E400020F02FC021F030C022F039C023F03AC08A
:100E500024F03BC025F0B6EC1AF0050E3D6E0F0EE7
:100E60003C6EF10EE82EFED73C2EFCD73D2EFAD775
:100E700000002DC01FF02EC020F02FC021F030C088
:100E800022F039C023F03AC024F03BC025F0B6EC84
:100E90001AF0050E3D6E0F0E3C6EF10EE82EFED7D9
:100EA0003C2EFCD73D2EFAD700002DC01FF02EC0DF
:100EB00020F02FC021F030C022F039C023F03AC01A
:100EC00024F03BC025F0B6EC1AF0050E3D6E0F0E77
:100ED0003C6EF10EE82EFED73C2EFCD73D2EFAD705
:100EE00000002DC01FF02EC020F02FC021F030C018
:100EF00022F036C023F038C024F005EC1EF087EC59
:100F000022F03550020DF3CF3CF0F4CF3DF03C50D1
:100F10003324D96E3D503420DA6E90EC21F0DE504F
:100F20000C5CDE500D58D8A098EF07F09AEF07F050
:100F300081EF07F02DC01FF02EC020F02FC021F050
:100F400030C022F038C023F081EC1DF035C040F0F5
:100F500056EF0AF0400640503124D96E000E322080
:100F6000DA6EDE04D8A4B7EF07F0B9EF07F0F3EFBD
:100F700007F02DC01FF02EC020F02FC021F030C090
:100F800022F039C023F03AC024F03BC025F0B6EC83
:100F90001AF0050E3D6E0F0E3C6EF10EE82EFED7D8
:100FA0003C2EFCD73D2EFAD700002DC01FF02EC0DE
:100FB00020F02FC021F030C022F039C023F03AC019
:100FC00024F03BC025F0B6EC1AF0050E3D6E0F0E76
:100FD0003C6EF10EE82EFED73C2EFCD73D2EFAD704
:100FE000000021EF0AF040503124D96E000E32206B
:100FF000DA6E020EDE18D8A400EF08F002EF08F057
:101000003CEF08F02DC01FF02EC020F02FC021F0C3
:1010100030C022F039C023F03AC024F03BC025F0A4
:10102000CCEC19F0050E3D6E0F0E3C6EF10EE82E65
:10103000FED73C2EFCD73D2EFAD700002DC01FF066
:101040002EC020F02FC021F030C022F039C023F094
:101050003AC024F03BC025F0CCEC19F0050E3D6EF3
:101060000F0E3C6EF10EE82EFED73C2EFCD73D2E27
:10107000FAD7000021EF0AF040503124D96E000E5B
:101080003220DA6E030EDE18D8A449EF08F04BEFD9
:1010900008F0BDEF08F02DC01FF02EC020F02FC0CB
:1010A00021F030C022F039C023F03AC024F03BC018
:1010B00025F0B6EC1AF0050E3D6E0F0E3C6EF10EEB
:1010C000E82EFED73C2EFCD73D2EFAD700002DC0CF
:1010D0001FF02EC020F02FC021F030C022F039C008
:1010E00023F03AC024F03BC025F0B6EC1AF0050E10
:1010F0003D6E0F0E3C6EF10EE82EFED73C2EFCD757
:101100003D2EFAD700002DC01FF02EC020F02FC0BA
:1011100021F030C022F039C023F03AC024F03BC0A7
:1011200025F0B6EC1AF0050E3D6E0F0E3C6EF10E7A
:10113000E82EFED73C2EFCD73D2EFAD700002DC05E
:101140001FF02EC020F02FC021F030C022F039C097
:1011500023F03AC024F03BC025F0B6EC1AF0050E9F
:101160003D6E0F0E3C6EF10EE82EFED73C2EFCD7E6
:101170003D2EFAD7000021EF0AF040503124D96EFD
:10118000000E3220DA6E040EDE18D8A4CAEF08F082
:10119000CCEF08F016EF09F02DC01FF02EC020F0A4
:1011A0002FC021F030C022F039C023F03AC024F023
:1011B0003BC025F0B6EC1AF0050E3D6E0F0E3C6EEE
:1011C000F10EE82EFED73C2EFCD73D2EFAD70000BC
:1011D0002DC01FF02EC020F02FC021F030C022F013
:1011E00039C023F03AC024F03BC025F0B6EC1AF029
:1011F000050E3D6E0F0E3C6EF10EE82EFED73C2E16
:10120000FCD73D2EFAD700002DC01FF02EC020F0D5
:101210002FC021F030C022F036C023F037C024F0B8
:1012200038C025F0D9EC18F0AFEF08F04050312469
:10123000D96E000E3220DA6E050EDE18D8A423EF28
:1012400009F025EF09F06FEF09F02DC01FF02EC057
:1012500020F02FC021F030C022F039C023F03AC076
:1012600024F03BC025F0CCEC19F0050E3D6E0F0EBE
:101270003C6EF10EE82EFED73C2EFCD73D2EFAD761
:1012800000002DC01FF02EC020F02FC021F030C074
:1012900022F039C023F03AC024F03BC025F0CCEC5A
:1012A00019F0050E3D6E0F0E3C6EF10EE82EFED7C6
:1012B0003C2EFCD73D2EFAD700002DC01FF02EC0CB
:1012C00020F02FC021F030C022F036C023F037C00C
:1012D00024F038C025F0D9EC18F0AFEF08F04050FA
:1012E0003124D96E000E3220DA6E060EDE18D8A434
:1012F0007CEF09F07EEF09F0C8EF09F02DC01FF078
:101300002EC020F02FC021F030C022F039C023F0D1
:101310003AC024F03BC025F0B6EC1AF0050E3D6E45
:101320000F0E3C6EF10EE82EFED73C2EFCD73D2E64
:10133000FAD700002DC01FF02EC020F02FC021F0E2
:1013400030C022F039C023F03AC024F03BC025F071
:10135000B6EC1AF0050E3D6E0F0E3C6EF10EE82E47
:10136000FED73C2EFCD73D2EFAD700002DC01FF033
:101370002EC020F02FC021F030C022F039C023F061
:101380003AC024F03BC025F0B6EC1AF0AFEF08F0FD
:1013900040503124D96E000E3220DA6E070EDE186E
:1013A000D8A4D5EF09F0D7EF09F021EF0AF02DC04E
:1013B0001FF02EC020F02FC021F030C022F039C025
:1013C00023F03AC024F03BC025F0CCEC19F0050E18
:1013D0003D6E0F0E3C6EF10EE82EFED73C2EFCD774
:1013E0003D2EFAD700002DC01FF02EC020F02FC0D8
:1013F00021F030C022F039C023F03AC024F03BC0C5
:1014000025F0CCEC19F0050E3D6E0F0E3C6EF10E82
:10141000E82EFED73C2EFCD73D2EFAD700002DC07B
:101420001FF02EC020F02FC021F030C022F039C0B4
:1014300023F03AC024F03BC025F0CCEC19F0AFEF1C
:1014400008F02DC01FF02EC020F02FC021F030C0BA
:1014500022F036C023F038C024F005EC1EF087ECF3
:1014600022F04050020DF3CF3CF0F4CF3DF03C5061
:101470003324D96E3D503420DA6E90EC21F0DE50EA
:101480000C5CDE500D58D8A048EF0AF04AEF0AF085
:1014900031EF0AF02DC01FF02EC020F02FC021F038
:1014A00030C022F038C023F081EC1DF04050D8A4A9
:1014B0005CEF0AF05EEF0AF0AAEF07F012002DC011
:1014C0001FF02EC020F02FC021F030C022F039C014
:1014D00023F03AC024F03BC025F0B6EC1AF0050E1C
:1014E0003D6E0F0E3C6EF10EE82EFED73C2EFCD763
:1014F0003D2EFAD700002DC01FF02EC020F02FC0C7
:1015000021F030C022F039C023F03AC024F03BC0B3
:1015100025F0B6EC1AF0050E3D6E0F0E3C6EF10E86
:10152000E82EFED73C2EFCD73D2EFAD700002DC06A
:101530001FF02EC020F02FC021F030C022F039C0A3
:1015400023F03AC024F03BC025F0B6EC1AF0050EAB
:101550003D6E0F0E3C6EF10EE82EFED73C2EFCD7F2
:101560003D2EFAD700002DC01FF02EC020F02FC056
:1015700021F030C022F039C023F03AC024F03BC043
:1015800025F0B6EC1AF0050E3D6E0F0E3C6EF10E16
:10159000E82EFED73C2EFCD73D2EFAD700002DC0FA
:1015A0001FF02EC020F02FC021F030C022F036C036
:1015B00023F038C024F005EC1EF087EC22F0000E7A
:1015C0000001B06FB051D8B4E8EF0AF0EAEF0AF0CA
:1015D000E2EF0AF02DC01FF02EC020F02FC021F046
:1015E00030C022F038C023F081EC1DF035C040F04F
:1015F000A6EF0DF0400640503124D96E000E322087
:10160000DA6EDE04D8A407EF0BF009EF0BF043EF1E
:101610000BF02DC01FF02EC020F02FC021F030C0E5
:1016200022F039C023F03AC024F03BC025F0B6ECDC
:101630001AF0050E3D6E0F0E3C6EF10EE82EFED731
:101640003C2EFCD73D2EFAD700002DC01FF02EC037
:1016500020F02FC021F030C022F039C023F03AC072
:1016600024F03BC025F0B6EC1AF0050E3D6E0F0ECF
:101670003C6EF10EE82EFED73C2EFCD73D2EFAD75D
:10168000000071EF0DF040503124D96E000E322071
:10169000DA6E020EDE18D8A450EF0BF052EF0BF00A
:1016A0008CEF0BF02DC01FF02EC020F02FC021F0CA
:1016B00030C022F039C023F03AC024F03BC025F0FE
:1016C000CCEC19F0050E3D6E0F0E3C6EF10EE82EBF
:1016D000FED73C2EFCD73D2EFAD700002DC01FF0C0
:1016E0002EC020F02FC021F030C022F039C023F0EE
:1016F0003AC024F03BC025F0CCEC19F0050E3D6E4D
:101700000F0E3C6EF10EE82EFED73C2EFCD73D2E80
:10171000FAD7000071EF0DF040503124D96E000E61
:101720003220DA6E030EDE18D8A499EF0BF09BEF8F
:101730000BF00DEF0CF02DC01FF02EC020F02FC0CD
:1017400021F030C022F039C023F03AC024F03BC071
:1017500025F0B6EC1AF0050E3D6E0F0E3C6EF10E44
:10176000E82EFED73C2EFCD73D2EFAD700002DC028
:101770001FF02EC020F02FC021F030C022F039C061
:1017800023F03AC024F03BC025F0B6EC1AF0050E69
:101790003D6E0F0E3C6EF10EE82EFED73C2EFCD7B0
:1017A0003D2EFAD700002DC01FF02EC020F02FC014
:1017B00021F030C022F039C023F03AC024F03BC001
:1017C00025F0B6EC1AF0050E3D6E0F0E3C6EF10ED4
:1017D000E82EFED73C2EFCD73D2EFAD700002DC0B8
:1017E0001FF02EC020F02FC021F030C022F039C0F1
:1017F00023F03AC024F03BC025F0B6EC1AF0050EF9
:101800003D6E0F0E3C6EF10EE82EFED73C2EFCD73F
:101810003D2EFAD7000071EF0DF040503124D96E03
:10182000000E3220DA6E040EDE18D8A41AEF0CF087
:101830001CEF0CF066EF0CF02DC01FF02EC020F056
:101840002FC021F030C022F039C023F03AC024F07C
:101850003BC025F0B6EC1AF0050E3D6E0F0E3C6E47
:10186000F10EE82EFED73C2EFCD73D2EFAD7000015
:101870002DC01FF02EC020F02FC021F030C022F06C
:1018800039C023F03AC024F03BC025F0B6EC1AF082
:10189000050E3D6E0F0E3C6EF10EE82EFED73C2E6F
:1018A000FCD73D2EFAD700002DC01FF02EC020F02F
:1018B0002FC021F030C022F036C023F037C024F012
:1018C00038C025F0D9EC18F0FFEF0BF04050312470
:1018D000D96E000E3220DA6E050EDE18D8A473EF32
:1018E0000CF075EF0CF0BFEF0CF02DC01FF02EC008
:1018F00020F02FC021F030C022F039C023F03AC0D0
:1019000024F03BC025F0CCEC19F0050E3D6E0F0E17
:101910003C6EF10EE82EFED73C2EFCD73D2EFAD7BA
:1019200000002DC01FF02EC020F02FC021F030C0CD
:1019300022F039C023F03AC024F03BC025F0CCECB3
:1019400019F0050E3D6E0F0E3C6EF10EE82EFED71F
:101950003C2EFCD73D2EFAD700002DC01FF02EC024
:1019600020F02FC021F030C022F036C023F037C065
:1019700024F038C025F0D9EC18F0FFEF0BF0405000
:101980003124D96E000E3220DA6E060EDE18D8A48D
:10199000CCEF0CF0CEEF0CF018EF0DF02DC01FF0D7
:1019A0002EC020F02FC021F030C022F039C023F02B
:1019B0003AC024F03BC025F0B6EC1AF0050E3D6E9F
:1019C0000F0E3C6EF10EE82EFED73C2EFCD73D2EBE
:1019D000FAD700002DC01FF02EC020F02FC021F03C
:1019E00030C022F039C023F03AC024F03BC025F0CB
:1019F000B6EC1AF0050E3D6E0F0E3C6EF10EE82EA1
:101A0000FED73C2EFCD73D2EFAD700002DC01FF08C
:101A10002EC020F02FC021F030C022F039C023F0BA
:101A20003AC024F03BC025F0B6EC1AF0FFEF0BF003
:101A300040503124D96E000E3220DA6E070EDE18C7
:101A4000D8A425EF0DF027EF0DF071EF0DF02DC0AC
:101A50001FF02EC020F02FC021F030C022F039C07E
:101A600023F03AC024F03BC025F0CCEC19F0050E71
:101A70003D6E0F0E3C6EF10EE82EFED73C2EFCD7CD
:101A80003D2EFAD700002DC01FF02EC020F02FC031
:101A900021F030C022F039C023F03AC024F03BC01E
:101AA00025F0CCEC19F0050E3D6E0F0E3C6EF10EDC
:101AB000E82EFED73C2EFCD73D2EFAD700002DC0D5
:101AC0001FF02EC020F02FC021F030C022F039C00E
:101AD00023F03AC024F03BC025F0CCEC19F0FFEF26
:101AE0000BF02DC01FF02EC020F02FC021F030C011
:101AF00022F036C023F038C024F005EC1EF087EC4D
:101B000022F04050020DF3CF3CF0F4CF3DF03C50BA
:101B10003324D96E3D503420DA6E90EC21F0DE5043
:101B20000C5CDE500D58D8A098EF0DF09AEF0DF038
:101B300081EF0DF02DC01FF02EC020F02FC021F03E
:101B400030C022F038C023F081EC1DF04050D8A402
:101B5000ACEF0DF0AEEF0DF0FAEF0AF0120000015D
:101B6000B605D8A4B6EF0DF0B8EF0DF000EF0EF00B
:101B7000B2C01FF0B3C020F0B4C021F0B5C022F055
:101B8000BFC023F0C0C024F0C1C025F0CCEC19F0D8
:101B9000050E426E0F0E416EF10EE82EFED7412E5D
:101BA000FCD7422EFAD70000B2C01FF0B3C020F01D
:101BB000B4C021F0B5C022F0BFC023F0C0C024F0F3
:101BC000C1C025F0CCEC19F0050E426E0F0E416E2F
:101BD000F10EE82EFED7412EFCD7422EFAD7000098
:101BE000B2C01FF0B3C020F0B4C021F0B5C022F0E5
:101BF000BCC023F0BEC024F005EC1EF0D9EF10F0FD
:101C0000020EB619D8A407EF0EF009EF0EF051EF4F
:101C10000EF0B2C01FF0B3C020F0B4C021F0B5C0C8
:101C200022F0BFC023F0C0C024F0C1C025F0B6EC44
:101C30001AF0050E426E0F0E416EF10EE82EFED721
:101C4000412EFCD7422EFAD70000B2C01FF0B3C01D
:101C500020F0B4C021F0B5C022F0BFC023F0C0C056
:101C600024F0C1C025F0B6EC1AF0050E426E0F0E3E
:101C7000416EF10EE82EFED7412EFCD7422EFAD748
:101C80000000B2C01FF0B3C020F0B4C021F0B5C056
:101C900022F0BCC023F0BEC024F005EC1EF0D9EF4A
:101CA00010F0030EB619D8A458EF0EF05AEF0EF04C
:101CB000DAEF0EF0B2C01FF0B3C020F0B4C021F0D4
:101CC000B5C022F0BFC023F0C0C024F0C1C025F0D1
:101CD000B6EC1AF0050E426E0F0E416EF10EE82EB4
:101CE000FED7412EFCD7422EFAD70000B2C01FF01B
:101CF000B3C020F0B4C021F0B5C022F0BFC023F0C3
:101D0000C0C024F0C1C025F0B6EC1AF0050E426E3A
:101D10000F0E416EF10EE82EFED7412EFCD7422E5B
:101D2000FAD70000B2C01FF0B3C020F0B4C021F059
:101D3000B5C022F0BFC023F0C0C024F0C1C025F060
:101D4000B6EC1AF0050E426E0F0E416EF10EE82E43
:101D5000FED7412EFCD7422EFAD70000B2C01FF0AA
:101D6000B3C020F0B4C021F0B5C022F0BFC023F052
:101D7000C0C024F0C1C025F0B6EC1AF0050E426ECA
:101D80000F0E416EF10EE82EFED7412EFCD7422EEB
:101D9000FAD70000B2C01FF0B3C020F0B4C021F0E9
:101DA000B5C022F0BCC023F0BEC024F005EC1EF08C
:101DB000D9EF10F0040EB619D8A4E1EF0EF0E3EF5E
:101DC0000EF047EF0FF0B2C01FF0B3C020F0B4C068
:101DD00021F0B5C022F0BCC023F0BDC024F0BEC0CD
:101DE00025F0D9EC18F0050E426E0F0E416EF10E83
:101DF000E82EFED7412EFCD7422EFAD70000B2C003
:101E00001FF0B3C020F0B4C021F0B5C022F0BFC0B5
:101E100023F0C0C024F0C1C025F0CCEC19F0050EB1
:101E2000426E0F0E416EF10EE82EFED7412EFCD70A
:101E3000422EFAD70000B2C01FF0B3C020F0B4C0E9
:101E400021F0B5C022F0BFC023F0C0C024F0C1C053
:101E500025F0CCEC19F0050E426E0F0E416EF10E1E
:101E6000E82EFED7412EFCD7422EFAD70000B2C092
:101E70001FF0B3C020F0B4C021F0B5C022F0BCC048
:101E800023F0BEC024F005EC1EF0D9EF10F0050ED3
:101E9000B619D8A44EEF0FF050EF0FF0B4EF0FF0DB
:101EA000B2C01FF0B3C020F0B4C021F0B5C022F022
:101EB000BCC023F0BDC024F0BEC025F0D9EC18F0A2
:101EC000050E426E0F0E416EF10EE82EFED7412E2A
:101ED000FCD7422EFAD70000B2C01FF0B3C020F0EA
:101EE000B4C021F0B5C022F0BFC023F0C0C024F0C0
:101EF000C1C025F0B6EC1AF0050E426E0F0E416E11
:101F0000F10EE82EFED7412EFCD7422EFAD7000064
:101F1000B2C01FF0B3C020F0B4C021F0B5C022F0B1
:101F2000BFC023F0C0C024F0C1C025F0B6EC1AF049
:101F3000050E426E0F0E416EF10EE82EFED7412EB9
:101F4000FCD7422EFAD70000B2C01FF0B3C020F079
:101F5000B4C021F0B5C022F0BCC023F0BEC024F054
:101F600005EC1EF0D9EF10F0060EB619D8A4BBEFA1
:101F70000FF0BDEF0FF021EF10F0B2C01FF0B3C0B3
:101F800020F0B4C021F0B5C022F0BFC023F0C0C023
:101F900024F0C1C025F0CCEC19F0050E426E0F0EF6
:101FA000416EF10EE82EFED7412EFCD7422EFAD715
:101FB0000000B2C01FF0B3C020F0B4C021F0B5C023
:101FC00022F0BFC023F0C0C024F0C1C025F0CCEC8B
:101FD00019F0050E426E0F0E416EF10EE82EFED77F
:101FE000412EFCD7422EFAD70000B2C01FF0B3C07A
:101FF00020F0B4C021F0B5C022F0BFC023F0C0C0B3
:1020000024F0C1C025F0CCEC19F0050E426E0F0E85
:10201000416EF10EE82EFED7412EFCD7422EFAD7A4
:102020000000B2C01FF0B3C020F0B4C021F0B5C0B2
:1020300022F0BCC023F0BEC024F005EC1EF0D9EFA6
:1020400010F0070EB619D8A428EF10F02AEF10F000
:102050008EEF10F0B2C01FF0B3C020F0B4C021F07A
:10206000B5C022F0BFC023F0C0C024F0C1C025F02D
:10207000B6EC1AF0050E426E0F0E416EF10EE82E10
:10208000FED7412EFCD7422EFAD70000B2C01FF077
:10209000B3C020F0B4C021F0B5C022F0BFC023F01F
:1020A000C0C024F0C1C025F0B6EC1AF0050E426E97
:1020B0000F0E416EF10EE82EFED7412EFCD7422EB8
:1020C000FAD70000B2C01FF0B3C020F0B4C021F0B6
:1020D000B5C022F0BFC023F0C0C024F0C1C025F0BD
:1020E000B6EC1AF0050E426E0F0E416EF10EE82EA0
:1020F000FED7412EFCD7422EFAD70000B2C01FF007
:10210000B3C020F0B4C021F0B5C022F0BCC023F0B1
:10211000BEC024F005EC1EF0D9EF10F0080EB61981
:10212000D8A495EF10F097EF10F0B9EF10F0B2C00F
:102130002DF0B3C02EF0B4C02FF0B5C030F0B7C052
:1021400031F0B8C032F0B9C033F0BAC034F0BBC01F
:1021500035F0BCC036F0BDC037F0BEC038F0BFC0EF
:1021600039F0C0C03AF0C1C03BF001EC07F0D9EF44
:1021700010F0B2C02DF0B3C02EF0B4C02FF0B5C037
:1021800030F0B7C031F0B8C032F0B9C033F0BAC0E7
:1021900034F0BBC035F0BCC036F0BDC037F0BEC0B7
:1021A00038F0BFC039F0C0C03AF0C1C03BF001EC1C
:1021B00007F0120026C00CF027C00DF00E6A0F6A5F
:1021C000100E106E270E116E000E126E000E136EA2
:1021D0006AEC20F00CC018F00DC019F00EC01AF017
:1021E0000FC01BF0FF0E1C6E000E1D6E000E1E6E4B
:1021F000000E1F6EFBEC1CF018C0BCF019C0BDF047
:1022000028C00CF029C00DF00E6A0F6A100E106E77
:10221000270E116E000E126E000E136E6AEC20F087
:102220000CC018F00DC019F00EC01AF00FC01BF052
:10223000FF0E1C6E000E1D6E000E1E6E000E1F6E39
:10224000FBEC1CF018C0C4F019C0C5F02AC00CF09B
:102250002BC00DF00E6A0F6A100E106E270E116E55
:10226000000E126E000E136E6AEC20F00CC018F017
:102270000DC019F00EC01AF00FC01BF0FF0E1C6E3F
:10228000000E1D6E000E1E6E000E1F6EFBEC1CF08D
:1022900018C0C6F019C0C7F0C4C00CF0C5C00DF01E
:1022A000C6C00EF0C7C00FF065EC21F00CC0B8F04E
:1022B0000DC0B9F0BCC00CF0BDC00DF0B8C00EF040
:1022C000B9C00FF065EC21F00CC0BEF00DC0BFF03E
:1022D000C4C00CF0C5C00DF0C6C00EF0C7C00FF0F2
:1022E0004FEC21F00CC0BAF00DC0BBF0BCC00CF03C
:1022F000BDC00DF0BAC00EF0BBC00FF04FEC21F026
:102300000CC0B6F00DC0B7F00001B651BE5D306E26
:10231000B751BF59316E30C0C0F031C0C1F0C26B8F
:10232000C36BBC51BE1907E1BD51BF19D8A49BEFC7
:1023300011F09DEF11F044EF12F0C451C65DC5518C
:10234000C759D8B0A6EF11F0A8EF11F0DAEF11F0ED
:10235000C651C45D306EC751C559316E30C00CF0E6
:1023600031C00DF00E6A0F6A700E106E170E116EEE
:10237000000E126E000E136E6AEC20F00CC018F006
:102380000DC019F00EC01AF00FC01BF0C0C01CF039
:10239000C1C01DF0C2C01EF0C3C01FF0D9EC1EF0BA
:1023A0002EC0D9FF2FC0DAFF18C0DEFF19C0DDFF35
:1023B000FCEF12F0C651C45DC751C559D8B0E3EF68
:1023C00011F0E5EF11F0FCEF12F0C651306EC7517D
:1023D000316E326A336AC0C00CF0C1C00DF0C2C0A9
:1023E0000EF0C3C00FF0060E106E000E116E000E40
:1023F000126E000E136E6AEC20F00001C4510C2422
:10240000346EC5510D20356E000E0E20366E000E56
:102410000F20376E3050345CB26F31503558B36F87
:1024200032503658B46F33503758B56FB2C00CF0D5
:10243000B3C00DF0B4C00EF0B5C00FF0700E106E4A
:10244000170E116E000E126E000E136E6AEC20F065
:102450000CC018F00DC019F00EC01AF00FC01BF020
:10246000C0C01CF0C1C01DF0C2C01EF0C3C01FF030
:10247000D9EC1EF02EC0D9FF2FC0DAFF18C0DEFF46
:1024800019C0DDFFFCEF12F0C451BE1907E1C551C0
:10249000BF19D8A44EEF12F050EF12F09DEF12F0DA
:1024A000BC51306EBD51316E326A336AD890C0353E
:1024B000346EC135356EC235366EC335376EC65192
:1024C0003424386EC7513520396E000E36203A6EEE
:1024D000000E37203B6E3050385C0C6E315039584E
:1024E0000D6E32503A580E6E33503B580F6E700ED0
:1024F000106E170E116E000E126E000E136E6AEC47
:1025000020F00CC018F00DC019F00EC01AF00FC06A
:102510001BF0C0C01CF0C1C01DF0C2C01EF0C3C083
:102520001FF0D9EC1EF02EC0D9FF2FC0DAFF18C063
:10253000DEFF19C0DDFFFCEF12F0C651BE1907E146
:10254000C751BF19D8A4A7EF12F0A9EF12F0FCEF02
:1025500012F0C451306EC551316E326A336AC0C058
:1025600034F0C1C035F0C2C036F0C3C037F0020E3F
:10257000D8903436353636363736E82EB8EF12F086
:10258000BC513424386EBD513520396E000E3620D2
:102590003A6E000E37203B6E3050385C0C6E315076
:1025A00039580D6E32503A580E6E33503B580F6EFC
:1025B000700E106E170E116E000E126E000E136E5E
:1025C0006AEC20F00CC018F00DC019F00EC01AF023
:1025D0000FC01BF0C0C01CF0C1C01DF0C2C01EF077
:1025E000C3C01FF0D9EC1EF02EC0D9FF2FC0DAFFF8
:1025F00018C0DEFF19C0DDFFC0C00CF0C1C00DF077
:10260000C2C00EF0C3C00FF0100E106E270E116E78
:10261000000E126E000E136E6AEC20F00CC018F063
:102620000DC019F00EC01AF00FC01BF0BEC01CF098
:10263000BFC01DF01E6A1F6AD9EC1EF020EE02F02A
:102640002E50D9262F50DA2218C0DEFF19C0DDFF28
:1026500020EE02F02E50D9262F50DA22DE50DE1066
:10266000D8A435EF13F037EF13F03DEF13F02EC081
:10267000D9FF2FC0DAFFDE6ADD6A20EE04F02E50AB
:10268000D9262F50DA22BEC0DEFFBFC0DDFF120008
:1026900020EEC8F0270EDE6AE806FDE2000E01011A
:1026A000AE6F21EE52F0270EDE6AE806FDE221EE63
:1026B00000F0510EDE6AE806FDE2000EAF6FF4C0D6
:1026C000F0F0F5C0F1F0F6C0F2F0F7C0F3F034EC42
:1026D00021F018EC21F027EC22F047EC22F0000E5C
:1026E0000D6EC70E0C6E2BEC1FF0000E0101D26FA9
:1026F000010ED36F010ED46FAA0ED76F0F0ED86FD5
:10270000A60ED96F0F0EDA6F000ED66FC70ED56FFB
:10271000030EDB6F000EC86F010EC96F010ECA6F8A
:10272000250ECD6F0F0ECE6F210ECF6F0F0ED06F17
:10273000000ECC6FC70ECB6F000ED16F190E996FC4
:10274000010EB66F0A0E986F140E9A6F050EB76FD2
:10275000020E9B6FD0EC20F0000E0101C16FC80E7D
:10276000C06F000EC36F320EC26F000EC56FAA0E8F
:10277000C46F21EEC0F000EE26F0070EDBCFEBFFBA
:10278000E806FCE2B00E2E6E010E2F6EDAEC10F0B1
:102790008EB4CDEF13F0CFEF13F0C8EF13F08096A7
:1027A0007C9E7C868082290E496E960E486E7F0E36
:1027B000E82EFED7482EFCD7492EFAD70000C00ECF
:1027C000326E010E336EB80E346E010E356E9C0EF5
:1027D000366E010E376EA20E386E010E396EA80EDF
:1027E0003A6E010E3B6E7A0E3C6E010E3D6E800E0F
:1027F0003E6E010E3F6E860E406E010E416E8C0ED7
:10280000426E010E436E920E446E010E456ECEEC8A
:1028100016F0D20E2D6E010E2E6EC80E2F6E010E0A
:10282000306E140E316EB70E326E010E336E020E24
:10283000346E81EC15F0010E05EC22F0520E496E5B
:102840002B0E486E000EE82EFED7482EFCD7492EE0
:10285000FAD700D0C00E106E010E116EE2EC17F028
:10286000C6C14EF0C7C14FF0290E496E960E486E94
:102870007F0EE82EFED7482EFCD7492EFAD700004F
:10288000D20E1F6E010E206EC80E216E010E226E3A
:10289000190E236E010E246E05EC1EF087EC22F05B
:1028A000000E0001B16F000EB06F0001B105D8A499
:1028B0005CEF14F05EEF14F02FEF15F00E01299B82
:1028C00029AB02D0298102D00E01299190EC21F090
:1028D0000101AF51020D000EF324D96E010EF42058
:1028E000DA6E0CC0DEFF0DC0DDFFD20E1F6E010ED2
:1028F000206EC80E216E010E226EB6C123F081EC4F
:102900001DF0C00E106E010E116EE2EC17F021EEFC
:10291000C0F000EE26F0070EDBCFEBFFE806FCE28E
:10292000B80E2E6E010E2F6E56EC1CF021EEB8F094
:1029300000EE0CF0070EDBCFEBFFE806FCE221EE29
:102940009CF000EE14F0050EDBCFEBFFE806FCE296
:1029500021EEA2F000EE1AF0050EDBCFEBFFE80649
:10296000FCE221EEA8F000EE20F0050EDBCFEBFF3D
:10297000E806FCE221EE7AF000EE26F0050EDBCF51
:10298000EBFFE806FCE221EE80F000EE2CF0050EF5
:10299000DBCFEBFFE806FCE221EE86F000EE32F042
:1029A000050EDBCFEBFFE806FCE221EE8CF000EE3B
:1029B00038F0050EDBCFEBFFE806FCE221EE92F0EB
:1029C00000EE3EF0050EDBCFEBFFE806FCE273EC19
:1029D0001FF00101AE6F520EAF25D96EDA6A010EFB
:1029E000DA22AEC1DFFFD20E0001B26F010EB36F6B
:1029F000C80EB46F010EB56FAEC1B6F0520EB76F10
:102A0000010EB86F000EB96F010EBA6FAFC1BBF007
:102A100099C1BCF098C1BDF0B6C1BEF09AC1BFF07B
:102A2000B7C1C0F09BC1C1F0AFEC0DF0C00E106E8D
:102A3000010E116EE2EC17F0C6C14EF0C7C14FF0A7
:102A40000101AF2B87EC22F00E01298B29AB02D0BC
:102A5000298102D00E012991000E0001B16FB0054D
:102A6000D8A435EF15F037EF15F06CEF15F00E0127
:102A70002991D20E1F6E010E206EC80E216E010E1E
:102A8000226EB6C123F081EC1DF0D20E2D6E010E28
:102A90002E6EC80E2F6E010E306E520E316E010E6C
:102AA000326E000E336E010E346EAFC135F099C137
:102AB00036F098C137F0B6C138F09AC139F0B7C1D5
:102AC0003AF09BC13BF05FEC0AF00E012981000E49
:102AD0000001B06F7FEF15F0080E0101AE19D8B4F8
:102AE00074EF15F076EF15F07FEF15F0090EAE19C3
:102AF000D8A47DEF15F07FEF15F055EF14F04CEFF3
:102B000000F02DC01FF02EC020F02FC021F030C0EB
:102B100022F031C023F032C0D9FF33C0DAFFDF50DA
:102B2000246E34C025F0B6EC1AF0050E366E0F0E8A
:102B3000356EF10EE82EFED7352EFCD7362EFAD79D
:102B400000002DC01FF02EC020F02FC021F030C09B
:102B500022F031C023F032C0D9FF33C0DAFFDF509A
:102B6000246E34C025F0B6EC1AF0050E366E0F0E4A
:102B7000356EF10EE82EFED7352EFCD7362EFAD75D
:102B800000002DC01FF02EC020F02FC021F030C05B
:102B900022F031C023F032C0D9FF33C0DAFFDF505A
:102BA000246E34C025F0CCEC19F0050E366E0F0EF5
:102BB000356EF10EE82EFED7352EFCD7362EFAD71D
:102BC00000002DC01FF02EC020F02FC021F030C01B
:102BD00022F031C023F032C0D9FF33C0DAFFDF501A
:102BE000246E34C025F0CCEC19F08EA4FAEF15F069
:102BF000FCEF15F003EF16F08EB601EF16F003EFC1
:102C000016F0F5EF15F08EB408EF16F00AEF16F097
:102C10001EEF16F032C0D9FF33C0DAFFDF50D8B450
:102C200014EF16F016EF16F01EEF16F032C0D9FFB3
:102C300033C0DAFFDF067C8E2BEF16F08EB623EF63
:102C400016F025EF16F02BEF16F032C0D9FF33C087
:102C5000DAFFDF2A8086290E366E960E356E7F0EDD
:102C6000E82EFED7352EFCD7362EFAD700008EB6CA
:102C70003CEF16F03EEF16F045EF16F032C0D9FFEC
:102C800033C0DAFFDF06BDEF16F080967C9E2DC0C4
:102C90001FF02EC020F02FC021F030C022F031C034
:102CA00023F032C0D9FF33C0DAFFDF50246E34C0C6
:102CB00025F0B6EC1AF0050E366E0F0E356EF10EDD
:102CC000E82EFED7352EFCD7362EFAD700002DC0C1
:102CD0001FF02EC020F02FC021F030C022F031C0F4
:102CE00023F032C0D9FF33C0DAFFDF50246E34C086
:102CF00025F0B6EC1AF0050E366E0F0E356EF10E9D
:102D0000E82EFED7352EFCD7362EFAD700002DC080
:102D10001FF02EC020F02FC021F030C022F031C0B3
:102D200023F032C0D9FF33C0DAFFDF50246E34C045
:102D300025F0CCEC19F0050E366E0F0E356EF10E47
:102D4000E82EFED7352EFCD7362EFAD700002DC040
:102D50001FF02EC020F02FC021F030C022F031C073
:102D600023F032C0D9FF33C0DAFFDF50246E34C005
:102D700025F0CCEC19F0F5EF15F080867C8E090E6D
:102D8000366E1E0E356EE40EE82EFED7352EFCD7BD
:102D9000362EFAD700D080967C9E1200010E05ECEC
:102DA00022F080867C8E8EB4D8EF16F0DAEF16F023
:102DB000D3EF16F080967C9E32C010F033C011F035
:102DC000E2EC17F032C0D9FF33C0DAFF00EE26F094
:102DD000070EDBCFEBFFE806FCE234C02EF035C077
:102DE0002FF056EC1CF034C0D9FF35C0DAFF36C0E6
:102DF000E1FF37C0E2FFDECFE6FFDDCFE5FF20EEEB
:102E000002F03450D9263550DA2210EE02F0365056
:102E1000E1263750E222DECFE6FFDDCFE5FF20EEF0
:102E200004F03450D9263550DA2210EE04F0365032
:102E3000E1263750E222DECFE6FFDDCFE5FF290EA7
:102E4000476E960E466E7F0EE82EFED7462EFCD7B6
:102E5000472EFAD7000080867C8E8EB432EF17F0B2
:102E600034EF17F02DEF17F080967C9E32C010F0F3
:102E700033C011F0E2EC17F032C0D9FF33C0DAFFF3
:102E800000EE26F0070EDBCFEBFFE806FCE234C0D5
:102E90002EF035C02FF056EC1CF034C0D9FF35C0F1
:102EA000DAFF38C0E1FF39C0E2FFDECFE6FFDDCF59
:102EB000E5FF20EE02F03450D9263550DA2210EE2C
:102EC00002F03850E1263950E222DECFE6FFDDCFB6
:102ED000E5FF20EE04F03450D9263550DA2210EE0A
:102EE00004F03850E1263950E222DECFE6FFDDCF94
:102EF000E5FF290E476E960E466E7F0EE82EFED732
:102F0000462EFCD7472EFAD7000080867C8E8EB4E2
:102F10008CEF17F08EEF17F087EF17F080967C9EFE
:102F200032C010F033C011F0E2EC17F032C0D9FF1C
:102F300033C0DAFF00EE26F0070EDBCFEBFFE8062A
:102F4000FCE234C02EF035C02FF056EC1CF034C03B
:102F5000D9FF35C0DAFF3AC0E1FF3BC0E2FFDECF68
:102F6000E6FFDDCFE5FF20EE02F03450D9263550E4
:102F7000DA2210EE02F03A50E1263B50E222DECF98
:102F8000E6FFDDCFE5FF20EE04F03450D9263550C2
:102F9000DA2210EE04F03A50E1263B50E222DECF76
:102FA000E6FFDDCFE5FF290E476E960E466E7F0EDB
:102FB000E82EFED7462EFCD7472EFAD70000808693
:102FC0007C8E120091EC22F0520E7BEC22F0B60EB9
:102FD0007BEC22F096EC22F0530E7BEC22F0010EFB
:102FE000F7EC20F0126E136A10C0D9FF11C0DAFF9F
:102FF00012C0DEFF13C0DDFF10C0D9FF11C0DAFF21
:10300000DECF12F0DDCF13F0000EF7EC20F0146EDF
:103010001450166E156A12501510176E13501610B4
:10302000186E10C0D9FF11C0DAFF17C0DEFF18C03C
:10303000DDFF8CEC22F091EC22F0520E7BEC22F0C2
:10304000B80E7BEC22F096EC22F0530E7BEC22F0D3
:10305000010EF7EC20F0126E136A20EE02F0105011
:10306000D9261150DA2212C0DEFF13C0DDFF20EE98
:1030700002F01050D9261150DA22DECF12F0DDCF47
:1030800013F0000EF7EC20F0146E1450166E156A53
:1030900012501510176E13501610186E20EE02F015
:1030A0001050D9261150DA2217C0DEFF18C0DDFFFC
:1030B0008CEC22F091EC22F0520E7BEC22F0BA0E56
:1030C0007BEC22F096EC22F0530E7BEC22F0010E0A
:1030D000F7EC20F0126E136A20EE04F01050D9269F
:1030E0001150DA2212C0DEFF13C0DDFF20EE04F023
:1030F0001050D9261150DA22DECF12F0DDCF13F0B6
:10310000000EF7EC20F0146E1450166E156A125073
:103110001510176E13501610186E20EE04F0105094
:10312000D9261150DA2217C0DEFF18C0DDFF8CEC63
:1031300022F091EC22F0520E7BEC22F0B40E7BECEC
:1031400022F096EC22F0530E7BEC22F0010EF7EC0D
:1031500020F0126E136A20EE06F01050D92611509E
:10316000DA2212C0DEFF13C0DDFF20EE06F01050A1
:10317000D9261150DA22DECF12F0DDCF13F0000E87
:10318000F7EC20F0146E1450166E156A12501510DC
:10319000176E13501610186E20EE06F01050D92638
:1031A0001150DA2217C0DEFF18C0DDFF8CEC22F0D0
:1031B000120020EE01F01F50D9262050DA22DF6ADB
:1031C00020EE01F02150D9262250DA22DF6A000ECB
:1031D0002C6E010E2B6E36EF19F020EE09F01F5009
:1031E000D9262050DA22DF502B241FC0D9FF20C05F
:1031F000DAFFDF6E20EE09F02150D9262250DA22C4
:10320000DF502B2421C0D9FF22C0DAFFDF6E1FC0A0
:1032100019F020C01AF0A0EC1BF021C019F022C058
:103220001AF0A0EC1BF0000E2A6E000E296E22EFA1
:1032300019F0D00E266ECA0EE82EFED7262EFCD729
:10324000294A2A2A2550266E276A2650295C2A50A8
:10325000800A286E2750800A2858D8A032EF19F02B
:1032600034EF19F019EF19F02B4A2C2A2350266E4F
:10327000276A2B50265C2750800A286E2C50800A23
:103280002858D8B046EF19F048EF19F0EDEF18F0D4
:10329000000E2A6E000E296E57EF19F0D00E266E22
:1032A000CA0EE82EFED7262EFCD7294A2A2A2450F9
:1032B000266E276A2650295C2A50800A286E2750DD
:1032C000800A2858D8A067EF19F069EF19F04EEF7F
:1032D00019F023C02BF02C6A2CBE73EF19F071EF9C
:1032E00019F075EF19F0C1EF19F020EE09F01F5039
:1032F000D9262050DA22DF502B241FC0D9FF20C04E
:10330000DAFFDF6E20EE09F02150D9262250DA22B2
:10331000DF502B2421C0D9FF22C0DAFFDF6E1FC08F
:1033200019F020C01AF0A0EC1BF021C019F022C047
:103330001AF0A0EC1BF0000E2A6E000E296EAAEF08
:1033400019F0D00E266ECA0EE82EFED7262EFCD718
:10335000294A2A2A2550266E276A2650295C2A5097
:10336000800A286E2750800A2858D8A0BAEF19F092
:10337000BCEF19F0A1EF19F02B06D8A02C066CEFCA
:1033800019F01FC0D9FF20C0DAFFDF6A21C0D9FFC2
:1033900022C0DAFFDF6A120020EE01F01F50D926AA
:1033A0002050DA22010EDF6E20EE01F02150D926E6
:1033B0002250DA22DF6A000E2C6E010E2B6E2AEFED
:1033C0001AF020EE09F01F50D9262050DA22DF50E3
:1033D0002B241FC0D9FF20C0DAFFDF6E20EE09F0DA
:1033E0002150D9262250DA22DF502B2421C0D9FFC8
:1033F00022C0DAFFDF6E1FC019F020C01AF0A0EC67
:103400001BF021C019F022C01AF0A0EC1BF0000E36
:103410002A6E000E296E16EF1AF0D00E266ECA0E16
:10342000E82EFED7262EFCD7294A2A2A2550266EBA
:10343000276A2650295C2A50800A286E2750800A65
:103440002858D8A026EF1AF028EF1AF00DEF1AF03E
:103450002B4A2C2A2350266E276A2B50265C275095
:10346000800A286E2C50800A2858D8B03AEF1AF0FB
:103470003CEF1AF0E1EF19F0000E2A6E000E296EF3
:103480004BEF1AF0D00E266ECA0EE82EFED7262E6F
:10349000FCD7294A2A2A2450266E276A2650295CFE
:1034A0002A50800A286E2750800A2858D8A05BEF3F
:1034B0001AF05DEF1AF042EF1AF023C02BF02C6ADD
:1034C0002CBE67EF1AF065EF1AF069EF1AF0B5EF4E
:1034D0001AF020EE09F01F50D9262050DA22DF50D2
:1034E0002B241FC0D9FF20C0DAFFDF6E20EE09F0C9
:1034F0002150D9262250DA22DF502B2421C0D9FFB7
:1035000022C0DAFFDF6E1FC019F020C01AF0A0EC55
:103510001BF021C019F022C01AF0A0EC1BF0000E25
:103520002A6E000E296E9EEF1AF0D00E266ECA0E7D
:10353000E82EFED7262EFCD7294A2A2A2550266EA9
:10354000276A2650295C2A50800A286E2750800A54
:103550002858D8A0AEEF1AF0B0EF1AF095EF1AF095
:103560002B06D8A02C0660EF1AF0120020EE01F016
:103570001F50D9262050DA22DF6A20EE01F02150B8
:10358000D9262250DA22010EDF6E000E2C6E010EBB
:103590002B6E14EF1BF020EE09F01F50D92620509F
:1035A000DA22DF502B241FC0D9FF20C0DAFFDF6EE4
:1035B00020EE09F02150D9262250DA22DF502B24A8
:1035C00021C0D9FF22C0DAFFDF6E1FC019F020C072
:1035D0001AF0A0EC1BF021C019F022C01AF0A0ECE8
:1035E0001BF0000E2A6E000E296E00EF1BF0D00EAD
:1035F000266ECA0EE82EFED7262EFCD7294A2A2A86
:103600002550266E276A2650295C2A50800A286E8B
:103610002750800A2858D8A010EF1BF012EF1BF09B
:10362000F7EF1AF02B4A2C2A2350266E276A2B50CC
:10363000265C2750800A286E2C50800A2858D8B063
:1036400024EF1BF026EF1BF0CBEF1AF0000E2A6ED2
:10365000000E296E35EF1BF0D00E266ECA0EE82E36
:10366000FED7262EFCD7294A2A2A2450266E276AFE
:103670002650295C2A50800A286E2750800A285834
:10368000D8A045EF1BF047EF1BF02CEF1BF023C039
:103690002BF02C6A2CBE51EF1BF04FEF1BF053EFB9
:1036A0001BF09FEF1BF020EE09F01F50D926205091
:1036B000DA22DF502B241FC0D9FF20C0DAFFDF6ED3
:1036C00020EE09F02150D9262250DA22DF502B2497
:1036D00021C0D9FF22C0DAFFDF6E1FC019F020C061
:1036E0001AF0A0EC1BF021C019F022C01AF0A0ECD7
:1036F0001BF0000E2A6E000E296E88EF1BF0D00E14
:10370000266ECA0EE82EFED7262EFCD7294A2A2A74
:103710002550266E276A2650295C2A50800A286E7A
:103720002750800A2858D8A098EF1BF09AEF1BF07A
:103730007FEF1BF02B06D8A02C064AEF1BF01200DF
:1037400020EE02F01950D9261A50DA22DF50D8B4F0
:10375000ACEF1BF0AEEF1BF0E2EF1BF019C0D9FF8E
:103760001AC0DAFFDF501B6E1B500C6E0D6A20EE84
:1037700003F01950D9261A50DA22DECF0EF0DDCF31
:103780000FF0CCEC21F00CC012F00DC013F0000EC5
:10379000156E640E146E30EC20F020EE03F019501C
:1037A000D9261A50DA22DF501C6E12501C5C1D6E96
:1037B00020EE03F01950D9261A50DA22DF501E6E7F
:1037C00005EF1CF0000E1D6E19C0D9FF1AC0DAFFFC
:1037D000DF501B6E1B500C6E0D6A20EE03F019506B
:1037E000D9261A50DA22DECF0EF0DDCF0FF0CCEC66
:1037F00021F00CC012F00DC013F0000E156E640E17
:10380000146E30EC20F012501E6E20EE01F01950B4
:10381000D9261A50DA22DF50D8B411EF1CF013EF7A
:103820001CF035EF1CF020EE05F01950D9261A5087
:10383000DA22DECF1BF0DDCF1CF01BC0D9FF1CC08D
:10384000DAFF1DC0DFFF20EE07F01950D9261A500D
:10385000DA22DECF1BF0DDCF1CF01BC0D9FF1CC06D
:10386000DAFF1EC0DFFF55EF1CF020EE05F0195007
:10387000D9261A50DA22DECF1BF0DDCF1CF01BC098
:10388000D9FF1CC0DAFF1EC0DFFF20EE07F0195081
:10389000D9261A50DA22DECF1BF0DDCF1CF01BC078
:1038A000D9FF1CC0DAFF1DC0DFFF120020EE06F0BA
:1038B0002E50D9262F50DA222CC0DEFF2DC0DDFF7E
:1038C00026C00CF027C00DF00E6A0F6AE80E106ECD
:1038D000030E116E000E126E000E136E6AEC20F0D5
:1038E0000CC018F00DC019F00EC01AF00FC01BF07C
:1038F0002A502824306E2B502920316E2650302635
:103900002750312230C01CF031C01DF01E6A1F6AE2
:10391000FBEC1CF02EC0D9FF2FC0DAFF18C0DEFF71
:1039200019C0DDFF28C00CF029C00DF00E6A0F6A27
:10393000E80E106E030E116E000E126E000E136E66
:103940006AEC20F00CC018F00DC019F00EC01AF08F
:103950000FC01BF02A502824306E2B502920316EC6
:10396000265030262750312230C01CF031C01DF0C7
:103970001E6A1F6AFBEC1CF020EE02F02E50D926C6
:103980002F50DA2218C0DEFF19C0DDFF2AC00CF06C
:103990002BC00DF00E6A0F6AE80E106E030E116E4A
:1039A000000E126E000E136E6AEC20F00CC018F0C0
:1039B0000DC019F00EC01AF00FC01BF02A502824B9
:1039C000306E2B502920316E265030262750312260
:1039D00030C01CF031C01DF01E6A1F6AFBEC1CF0E9
:1039E00020EE04F02E50D9262F50DA2218C0DEFF28
:1039F00019C0DDFF1200000E216E1FBE04EF1DF086
:103A000002EF1DF00EEF1DF01F1E1E1E1D1E1C6C72
:103A1000000E1D221E221F22010E216E1BBE15EF5D
:103A20001DF013EF1DF01FEF1DF01B1E1A1E191EB7
:103A3000186C000E19221A221B22010E211A000EE8
:103A4000226E000E236E000E246E000E256E1C509A
:103A50001D101E101F10D8B430EF1DF032EF1DF0F6
:103A600068EF1DF0010E206E3CEF1DF0D8901C3663
:103A70001D361E361F36202A1FAE41EF1DF043EFC4
:103A80001DF036EF1DF0D890223623362436253629
:103A90001C50185C1D5019581E501A581F501B58A6
:103AA000D8A055EF1DF057EF1DF060EF1DF01C5032
:103AB000185E1D50195A1E501A5A1F501B5A228048
:103AC000D8901F321E321D321C32202E43EF1DF0C3
:103AD0002150D8B46EEF1DF070EF1DF078EF1DF09F
:103AE000251E241E231E226C000E232224222522A2
:103AF00022C018F023C019F024C01AF025C01BF012
:103B0000120020EE01F01F50D9262050DA22010EBB
:103B1000DF6E20EE01F02150D9262250DA22010E6C
:103B2000DF6E1FC0D9FF20C0DAFFDF50246E20EE09
:103B300009F01F50D9262050DA22DF50256E25507B
:103B4000245C296E2A6AD8A02A062ABEACEF1DF092
:103B5000AAEF1DF0AEEF1DF0FAEF1DF020EE09F018
:103B60001F50D9262050DA22DF5029241FC0D9FF48
:103B700020C0DAFFDF6E20EE09F02150D926225056
:103B8000DA22DF50292421C0D9FF22C0DAFFDF6EFC
:103B90001FC019F020C01AF0A0EC1BF021C019F0D2
:103BA00022C01AF0A0EC1BF0000E286E000E276E4B
:103BB000E3EF1DF0D00E246ECA0EE82EFED7242EA1
:103BC000FCD7274A282A2350246E256A2450275CD4
:103BD0002850800A266E2550800A2658D8A0F3EF78
:103BE0001DF0F5EF1DF0DAEF1DF02906D8A02A062A
:103BF000A5EF1DF01FC0D9FF20C0DAFFDF6A21C08A
:103C0000D9FF22C0DAFFDF6A120020EE01F01F5058
:103C1000D9262050DA22010EDF6E20EE01F021506D
:103C2000D9262250DA22010EDF6E000E2B6E010E15
:103C30002A6E64EF1EF020EE09F01F50D9262050A6
:103C4000DA22DF502A241FC0D9FF20C0DAFFDF6E3E
:103C500020EE09F02150D9262250DA22DF502A2402
:103C600021C0D9FF22C0DAFFDF6E1FC019F020C0CB
:103C70001AF0A0EC1BF021C019F022C01AF0A0EC41
:103C80001BF0000E296E000E286E50EF1EF0D00EB5
:103C9000256ECA0EE82EFED7252EFCD7284A292AE3
:103CA0002450256E266A2550285C2950800A276EEC
:103CB0002650800A2758D8A060EF1EF062EF1EF051
:103CC00047EF1EF02A4A2B2A2350256E266A2A50D7
:103CD000255C2650800A276E2B50800A2758D8B0C2
:103CE00074EF1EF076EF1EF01BEF1EF01200000EB8
:103CF000116E0FBE80EF1EF07EEF1EF086EF1EF0FD
:103D00000E6C0F1ED8B00F2A010E116E0DBE8DEF76
:103D10001EF08BEF1EF093EF1EF00C6C0D1ED8B052
:103D20000D2A010E111A000E136E000E126E0E50A7
:103D30000F10D8B49EEF1EF0A0EF1EF0C8EF1EF0DB
:103D4000010E106EA8EF1EF0D8900E360F36102A16
:103D50000FAEADEF1EF0AFEF1EF0A4EF1EF0D89047
:103D6000123613360E500C5C0F500D58D8A0BBEF16
:103D70001EF0BDEF1EF0C2EF1EF00E500C5E0F5095
:103D80000D5A1280D8900F320E32102EAFEF1EF067
:103D90001150D8B4CEEF1EF0D0EF1EF0D4EF1EF0CD
:103DA000126C131ED8B0132A12C00CF013C00DF001
:103DB0001200000E206E000E216E000E226E000E0C
:103DC000236E1C501D101E101F10D8B4EAEF1EF0F9
:103DD000ECEF1EF022EF1FF0010E246EF6EF1EF046
:103DE000D8901C361D361E361F36242A1FAEFBEF18
:103DF0001EF0FDEF1EF0F0EF1EF0D89020362136B9
:103E0000223623361C50185C1D5019581E501A5863
:103E10001F501B58D8A00FEF1FF011EF1FF01AEF23
:103E20001FF01C50185E1D50195A1E501A5A1F5070
:103E30001B5A2080D8901F321E321D321C32242E75
:103E4000FDEF1EF020C018F021C019F022C01AF0BA
:103E500023C01BF012007D9485947D9885987B9EED
:103E6000839E7F9C879C050E0E01746F060E766FF5
:103E7000070E696F080E886FBD508F0B3009BD6E3D
:103E8000E00EBE16BF50F00B0109BF6E0CC0BCFFA8
:103E9000BD8E000EAA6E000EA66E000E0F01256FDD
:103EA000000E216FFC0EAD16F30EAD16CF0EAD1643
:103EB0003F0EAD16AB88AB50F00B0C09AB6EAB8E62
:103EC000A788A750F00B0C09A76EA78E268926514C
:103ED000F00B0C09266F268F22892251F00B0C095A
:103EE000226F228F1200D80E1424446EFF0E15206C
:103EF000456E0C50445C0D504558D8B082EF1FF011
:103F000084EF1FF088EF1FF0010E466EB4EF1FF034
:103F1000E70E1C24446EFF0E1D20456E0E50445CBF
:103F20000F504558D8B097EF1FF099EF1FF09DEF55
:103F30001FF0020E466EB4EF1FF0D80E2424446E1C
:103F4000FF0E2520456E1050445C11504558D8B0E6
:103F5000ACEF1FF0AEEF1FF0B2EF1FF0030E466E96
:103F6000B4EF1FF0090E466E4650120091EC22F09D
:103F7000520E7BEC22F0E60E7BEC22F08CEC22F071
:103F80000C0E4E24116E000E4F20126EF40E4E24B5
:103F9000136EFF0E4F20146E130E0E6E000E17ECF4
:103FA00022F03F0E106E550EE82EFED7102EFCD7D5
:103FB000000012500E6E070E17EC22F011C00EF02A
:103FC000060E17EC22F014500E6E050E17EC22F0C0
:103FD00013C00EF0040E17EC22F0040E0E6E0C0E41
:103FE00017EC22F01200A0EC22F0520E81EC22F02D
:103FF000E60E81EC22F09BEC22F00C0E4E24066EB5
:10400000000E4F20076EF40E4E24086EFF0E4F2058
:10401000096E130E036E000E37EC22F03F0E056E94
:10402000550EE82EFED7052EFCD700000750036E74
:10403000070E37EC22F006C003F0060E37EC22F034
:104040000950036E050E37EC22F008C003F0040E91
:1040500037EC22F0040E036E0C0E37EC22F0120047
:10406000000E176E000E166E14501510D8B43BEFEC
:1040700020F03DEF20F065EF20F0010E186E45EFC7
:1040800020F0D89014361536182A15AE4AEF20F0D5
:104090004CEF20F041EF20F0D89016361736145030
:1040A000125C15501358D8A058EF20F05AEF20F0AA
:1040B0005FEF20F01450125E1550135A1680D890FE
:1040C00015321432182E4CEF20F016C012F017C023
:1040D00013F01200000E146E000E156E000E166E18
:1040E000000E176E0CA077EF20F079EF20F081EF33
:1040F00020F0105014261150152212501622135081
:104100001722D8901036113612361336D8900F3247
:104110000E320D320C320C500D100E100F10D8A4B0
:1041200094EF20F096EF20F072EF20F014C00CF026
:1041300015C00DF016C00EF017C00FF012004A0E99
:10414000F66E450EF76E000EF86E00EEF4F010EE0F
:1041500004F00900F5CFEEFFE550E150FAE14E0E14
:10416000F66E450EF76E000EF86E0900F5CF4EF0B4
:104170000900F5CF4FF002EE00F0A20EEE6AE8065D
:10418000FDE100EE60F0520EEE6AE806FDE14D6AD8
:104190004C6A4B6A4A6A50905092000148EF13F003
:1041A00056EC22F063EC22F0146E14C00CF00D6A91
:1041B000000E0F6E180E0E6E77EC1EF00C50156E82
:1041C00015A2E5EF20F0E7EF20F0EAEF20F07C8E7B
:1041D000EBEF20F07C9E15A0F0EF20F0F2EF20F046
:1041E000F5EF20F08086F6EF20F0809612000E6E3C
:1041F000A4EC21F00E01DA87A4EC21F0D5CE0FF06B
:10420000A4EC21F00E50D8B408EF21F00CEF21F00F
:104210000D6A0D2A0DEF21F00D6A0D3A0D460E01C3
:10422000DA510D18DF0B0D18DA6FDA890F50120012
:104230007BEC21F0010E0E6E000E17EC22F03F0E0B
:10424000156E550EE82EFED7152EFCD70000030E76
:104250000E6E000E17EC22F0D50E0E6E010E17EC4E
:1042600022F0B6EC1FF012007C9E849E8096889609
:1042700086840E01B4958686B497809288927C9845
:1042800084987C968496A797809088907E9086905C
:104290007F9087907D9E859E7996819612000E5024
:1042A0000C5C0F500D58D8B058EF21F05AEF21F0A8
:1042B00060EF21F00CC00CF00DC00DF064EF21F0A8
:1042C0000EC00CF00FC00DF012000C500E5C0D5023
:1042D0000F58D8B06EEF21F070EF21F076EF21F09B
:1042E0000CC00CF00DC00DF07AEF21F00EC00CF0F8
:1042F0000FC00DF012000E01D951F00B0809D96F53
:10430000D98B9F0ED66F848A848CA79BA79D1D0E88
:104310001D6F1E0E1C6F1C0E6F6F1B0E706F120038
:10432000D3CF10F0116AD4CF12F0136A12500F6E6F
:104330000E6A10500E10146E11500F10156E14C02E
:104340000CF015C00DF012000E01D8B5AAEF21F047
:10435000ACEF21F0A4EF21F0DACE0CF01F0E0C161A
:10436000D8A4B5EF21F0B7EF21F0A4EF21F01200AF
:104370000E01D8B5BEEF21F0C0EF21F0B8EF21F06B
:10438000DACE01F01F0E0116D8A4C9EF21F0CBEF51
:1043900021F0B8EF21F012000C500E02F3CF10F014
:1043A000F4CF11F00C500F02F35011260D500E02F5
:1043B000F350112610C00CF011C00DF01200016E68
:1043C000130E4D64E6EF21F0E8EF21F0EAEF21F063
:1043D000000E4D6E4D509C0FD96EDA6A01C0DFFFA2
:1043E0004D2A12003B0E4A64F8EF21F0FAEF21F05B
:1043F000FCEF21F0000E4A6E4A2A4A04016E015079
:10440000600FD96EDA6ADF5012000C6E0C50D8B40F
:104410000CEF22F00EEF22F013EF22F07F807D8E62
:10442000798616EF22F07F907D9E799612000F6EAE
:1044300091EC22F0520E7BEC22F00F5080097BECC5
:1044400022F00E507BEC22F08CEC22F01200D650C1
:104450001F0B4009D66ED688D650F00B0B09D66ECE
:10446000D588000ED46E000ED36ED58E1200046E69
:10447000A0EC22F0520E81EC22F00450800981EC75
:1044800022F0035081EC22F09BEC22F01200120E7D
:104490000E01626F110E156FE997E895330EE56F07
:1044A000000EE66FE789E88BE78F1200868C0E011D
:1044B000B48D0F015899FC0E58172E0E5F6F609443
:1044C0006088608E1200608060B069EF22F06BEF50
:1044D00022F064EF22F064CF0CF00C5012004A502E
:1044E0004B18D8A476EF22F079EF22F0010E7AEF84
:1044F00022F0000E12000D6EA4EC21F00DC0D5FECE
:104500001200026EB8EC21F002C0D5FE1200000EBF
:10451000D46E000ED36E1200A4EC21F00E01DA85E9
:104520001200A4EC21F00E01DA811200A4EC21F0BB
:104530000E01DA831200B8EC21F00E01DA851200C8
:10454000B8EC21F00E01DA81120004030908F4012D
:020000040030CA
:02000000AAFF55
:020004009FFF5C
:00000001FF
