:0400000046EF00F0D7
:100008005A82D9CF03F0DACF04F00E0133A10FEFF3
:1000180000F011EF00F01EEF00F080864BEC18F0B6
:10002800520E31EC18F0E60E31EC18F046EC18F0F0
:100038000E01339137A723EF00F025EF00F028EFEA
:1000480000F0E351A0EC17F00E0137A52EEF00F0F9
:1000580030EF00F040EF00F012EC17F00E01E46F03
:1000680016EC18F00009D8A43CEF00F03EEF00F0C1
:1000780040EF00F00E012D9504C0DAFF03C0D9FF50
:080088005A9211007AEF17F003
:100E000000723D256420673D256420623D256420F5
:100E1000633D25642020206E3A20723D25642067C2
:100E20003D256420623D25642020636F6C6F723A1B
:100E3000202564200D0A00723D256420673D25644D
:100E400020623D256420633D25642020206E3A20E9
:100E5000723D256420673D256420623D2564200D98
:0B0E60000A00633D2564200D0A00001D
:100E6C00010EB3EC17F080867C8E8EB440EF07F049
:100E7C0042EF07F03BEF07F080967C9E2AC009F00A
:100E8C001CEC0DF02A50D96EDA6A00EE1FF0070E3A
:100E9C00DBCFEBFFE806FCE22BC027F02BEC12F0CB
:100EAC002B50D96EDA6A2C50E16EE26ADECFE6FF87
:100EBC00DDCFE5FF2B50D96EDA6A020ED9262C5005
:100ECC00E16EE26A020EE126DECFE6FFDDCFE5FF42
:100EDC002B50D96EDA6A040ED9262C50E16EE26AD8
:100EEC00040EE126DECFE6FFDDCFE5FF290E356EE1
:100EFC00960E346E7F0EE82EFED7342EFCD7352E90
:100F0C00FAD7000080867C8E8EB48FEF07F091EFBD
:100F1C0007F08AEF07F080967C9E2AC009F01CEC43
:100F2C000DF02A50D96EDA6A00EE1FF0070EDBCFF7
:100F3C00EBFFE806FCE22BC027F02BEC12F02B5059
:100F4C00D96EDA6A2D50E16EE26ADECFE6FFDDCFB4
:100F5C00E5FF2B50D96EDA6A020ED9262D50E16EC0
:100F6C00E26A020EE126DECFE6FFDDCFE5FF2B5075
:100F7C00D96EDA6A040ED9262D50E16EE26A040E9F
:100F8C00E126DECFE6FFDDCFE5FF290E356E960EAE
:100F9C00346E7F0EE82EFED7342EFCD7352EFAD7C2
:100FAC00000080867C8E8EB4DEEF07F0E0EF07F059
:100FBC00D9EF07F080967C9E2AC009F01CEC0DF04E
:100FCC002A50D96EDA6A00EE1FF0070EDBCFEBFF6A
:100FDC00E806FCE22BC027F02BEC12F02B50D96E5C
:100FEC00DA6A2E50E16EE26ADECFE6FFDDCFE5FF76
:100FFC002B50D96EDA6A020ED9262E50E16EE26AB7
:10100C00020EE126DECFE6FFDDCFE5FF2B50D96ED9
:10101C00DA6A040ED9262E50E16EE26A040EE1263D
:10102C00DECFE6FFDDCFE5FF290E356E960E346E72
:10103C007F0EE82EFED7342EFCD7352EFAD70000C3
:10104C0080867C8E8EB42DEF08F02FEF08F028EF01
:10105C0008F080967C9E2AC009F01CEC0DF02A50FA
:10106C00D96EDA6A00EE1FF0070EDBCFEBFFE80655
:10107C00FCE22BC027F02BEC12F02B50D96EDA6A65
:10108C002F50E16EE26ADECFE6FFDDCFE5FF2B509D
:10109C00D96EDA6A020ED9262F50E16EE26A020E80
:1010AC00E126DECFE6FFDDCFE5FF2B50D96EDA6A05
:1010BC00040ED9262F50E16EE26A040EE126DECF33
:1010CC00E6FFDDCFE5FF290E356E960E346E7F0EF2
:1010DC00E82EFED7342EFCD7352EFAD700008086AA
:1010EC007C8E8EB47CEF08F07EEF08F077EF08F082
:1010FC0080967C9E2AC009F01CEC0DF02A50D96E0B
:10110C00DA6A00EE1FF0070EDBCFEBFFE806FCE21D
:10111C002BC027F02BEC12F02B50D96EDA6A305022
:10112C00E16EE26ADECFE6FFDDCFE5FF2B50D96E34
:10113C00DA6A020ED9263050E16EE26A020EE1261E
:10114C00DECFE6FFDDCFE5FF2B50D96EDA6A040E59
:10115C00D9263050E16EE26A040EE126DECFE6FFBE
:10116C00DDCFE5FF290E356E960E346E7F0EE82E20
:10117C00FED7342EFCD7352EFAD7000080867C8E15
:10118C008EB4CBEF08F0CDEF08F0C6EF08F08096E8
:10119C007C9E2AC009F01CEC0DF02A50D96EDA6A3C
:1011AC0000EE1FF0070EDBCFEBFFE806FCE22BC0D6
:1011BC0027F02BEC12F02B50D96EDA6A3150E16E1D
:1011CC00E26ADECFE6FFDDCFE5FF2B50D96EDA6A9F
:1011DC00020ED9263150E16EE26A020EE126DECF14
:1011EC00E6FFDDCFE5FF2B50D96EDA6A040ED92667
:1011FC003150E16EE26A040EE126DECFE6FFDDCF70
:10120C00E5FF290E356E960E346E7F0EE82EFED756
:10121C00342EFCD7352EFAD7000080867C8E8EB407
:10122C001AEF09F01CEF09F015EF09F080967C9E7F
:10123C002AC009F01CEC0DF02A50D96EDA6A00EEC7
:10124C001FF0070EDBCFEBFFE806FCE22BC027F00C
:10125C002BEC12F02B50D96EDA6A3250E16EE26A46
:10126C00DECFE6FFDDCFE5FF2B50D96EDA6A020E3A
:10127C00D9263250E16EE26A020EE126DECFE6FF9D
:10128C00DDCFE5FF2B50D96EDA6A040ED926325029
:10129C00E16EE26A040EE126DECFE6FFDDCFE5FF6C
:1012AC00290E356E960E346E7F0EE82EFED7342E38
:1012BC00FCD7352EFAD7000080867C8E8EB469EF71
:1012CC0009F06BEF09F064EF09F080967C9E2AC060
:1012DC0009F01CEC0DF02A50D96EDA6A00EE1FF002
:1012EC00070EDBCFEBFFE806FCE22BC027F02BEC64
:1012FC0012F02B50D96EDA6A3350E16EE26ADECF0F
:10130C00E6FFDDCFE5FF2B50D96EDA6A020ED92647
:10131C003350E16EE26A020EE126DECFE6FFDDCF4E
:10132C00E5FF2B50D96EDA6A040ED9263350E16EE4
:10133C00E26A040EE126DECFE6FFDDCFE5FF290EE3
:10134C00356E960E346E7F0EE82EFED7342EFCD7FB
:10135C00352EFAD7000080867C8E12002504D8A486
:10136C00BAEF09F0BCEF09F0F8EF09F023C017F061
:10137C0024C018F029C019F02AC01AF02BC01BF099
:10138C00CBEC0FF0050E2D6E0F0E2C6EF10EE82E21
:10139C00FED72C2EFCD72D2EFAD7000023C017F029
:1013AC0024C018F029C019F02AC01AF02BC01BF069
:1013BC00CBEC0FF0050E2D6E0F0E2C6EF10EE82EF1
:1013CC00FED72C2EFCD72D2EFAD7000023C017F0F9
:1013DC0024C018F026C019F028C01AF0C9EC13F07C
:1013EC0070EF0BF0020E2518D8A4FFEF09F001EFF7
:1013FC000AF033EF0AF023C017F024C018F029C00C
:10140C0019F02AC01AF02BC01BF0A6EC10F0050E38
:10141C002D6E0F0E2C6EF10EE82EFED72C2EFCD757
:10142C002D2EFAD7000023C017F024C018F029C0C5
:10143C0019F02AC01AF02BC01BF0A6EC10F0050E08
:10144C002D6E0F0E2C6EF10EE82EFED72C2EFCD727
:10145C002D2EFAD70000ECEF09F0030E2518D8A4B6
:10146C003AEF0AF03CEF0AF09EEF0AF023C017F0B7
:10147C0024C018F029C019F02AC01AF02BC01BF098
:10148C00A6EC10F0050E2D6E0F0E2C6EF10EE82E44
:10149C00FED72C2EFCD72D2EFAD7000023C017F028
:1014AC0024C018F029C019F02AC01AF02BC01BF068
:1014BC00A6EC10F0050E2D6E0F0E2C6EF10EE82E14
:1014CC00FED72C2EFCD72D2EFAD7000023C017F0F8
:1014DC0024C018F029C019F02AC01AF02BC01BF038
:1014EC00A6EC10F0050E2D6E0F0E2C6EF10EE82EE4
:1014FC00FED72C2EFCD72D2EFAD7000023C017F0C8
:10150C0024C018F029C019F02AC01AF02BC01BF007
:10151C00A6EC10F0050E2D6E0F0E2C6EF10EE82EB3
:10152C00FED72C2EFCD72D2EFAD70000ECEF09F0AD
:10153C00040E2518D8A4A5EF0AF0A7EF0AF0FBEFCC
:10154C000AF023C017F024C018F026C019F027C0E9
:10155C001AF028C01BF0E9EC0EF0050E2D6E0F0EE4
:10156C002C6EF10EE82EFED72C2EFCD72D2EFAD792
:10157C00000023C017F024C018F029C019F02AC0AD
:10158C001AF02BC01BF0CBEC0FF0050E2D6E0F0ECE
:10159C002C6EF10EE82EFED72C2EFCD72D2EFAD762
:1015AC00000023C017F024C018F029C019F02AC07D
:1015BC001AF02BC01BF0CBEC0FF0050E2D6E0F0E9E
:1015CC002C6EF10EE82EFED72C2EFCD72D2EFAD732
:1015DC00000023C017F024C018F026C019F028C052
:1015EC001AF0C9EC13F070EF0BF0050E2518D8A407
:1015FC0002EF0BF004EF0BF042EF0BF023C017F0EF
:10160C0024C018F026C019F027C01AF028C01BF00F
:10161C00E9EC0EF0050E2D6E0F0E2C6EF10EE82E71
:10162C00FED72C2EFCD72D2EFAD7000023C017F096
:10163C0024C018F029C019F02AC01AF02BC01BF0D6
:10164C00A6EC10F0050E2D6E0F0E2C6EF10EE82E82
:10165C00FED72C2EFCD72D2EFAD7000023C017F066
:10166C0024C018F029C019F02AC01AF02BC01BF0A6
:10167C00A6EC10F0E3EF0AF0060E2518D8A449EFFB
:10168C000BF04BEF0BF059EF0BF023C017F024C00D
:10169C0018F029C019F02AC01AF02BC01BF0CBECA3
:1016AC000FF0B3EF0AF0070E2518D8A460EF0BF07B
:1016BC0062EF0BF070EF0BF023C017F024C018F0A2
:1016CC0029C019F02AC01AF02BC01BF0A6EC10F0A0
:1016DC0010EF0BF01200C3EC16F0F8EC15F022EC46
:1016EC0018F0D5EC17F020EE62F0270EDE6AE80653
:1016FC00FDE2000E066EC70E056E41EC15F0000EF5
:10170C000001D36F010ED46F010ED56FAA0ED86FE6
:10171C000F0ED96FA60EDA6F0F0EDB6F000ED76FA0
:10172C00C70ED66F030EDC6F000EC96F010ECA6FA9
:10173C00010ECB6F250ECE6F0F0ECF6F210ED06F1B
:10174C000F0ED16F000ECD6FC70ECC6F000ED26F87
:10175C00320EBE6F020EC06F0A0E8A6F150E8B6FA3
:10176C000A0E8C6F040E8D6F5CEC16F08EB4C1EF0C
:10177C000BF0C3EF0BF0BCEF0BF080967C9E7C86DD
:10178C008082290E0001616F960E606F7F0EE82E2D
:10179C00FED7602FFCD7612FFAD780867C8E010E86
:1017AC00B3EC17F0290E0001616F960E606F7F0E7F
:1017BC00E82EFED7602FFCD7612FFAD7DD0E096E0D
:1017CC001CEC0DF080967C9EDD0E2A6EC10E2B6EED
:1017DC008E0E2C6E940E2D6E9A0E2E6EA00E2F6EFB
:1017EC00A60E306EAC0E316EB20E326EB80E336E7B
:1017FC0036EC07F0620E1E6E620E1F6EE3C020F018
:10180C00E4C021F0DEEC16F0E4EC17F0620E066E8C
:10181C00076A2BEC16F0E4EC17F0360E066E065049
:10182C00D8A40E0E076E2BEC16F0190E0001616F8A
:10183C005A0E606FB10EE82EFED7602FFCD7612FC9
:10184C00FAD700D0D30E176EC90E186E320E196E61
:10185C00020E1A6EC9EC13F0DD0E096E1CEC0DF0C5
:10186C00F40E0001E35D010EE459D8A040EF0CF03A
:10187C0042EF0CF04DEF0CF0210EE35D030EE4593A
:10188C00D8A04BEF0CF04DEF0CF0D4EF0CF0D30EC6
:10189C00176EC90E186EC0C019F052EC13F0DD0EA5
:1018AC00096E1CEC0DF020EEDDF000EE1FF0070EC3
:1018BC00DBCFEBFFE806FCE2C10E276E2BEC12F03F
:1018CC0020EEC1F000EE05F0070EDBCFEBFFE806D3
:1018DC00FCE250EC18F00001BF6FBF51D8B479EFA7
:1018EC000CF07BEF0CF08FEF0CF0D30E236EC90EC7
:1018FC00246EBFC025F0BEC026F08AC027F0C0C041
:10190C0028F08BC029F08CC02AF08DC02BF0B4ECE1
:10191C0009F0620E1E6E010E1F6EDDC020F0DEC0DF
:10192C0021F0DFC022F0E0C023F0E1C024F0E2C0DF
:10193C0025F0E3C026F0E4C027F0C1C028F0C2C0F7
:10194C0029F0C3C02AF0C4C02BF0C5C02CF0C6C00F
:10195C002DF0BFC02EF02F6ADEEC16F0E4EC17F081
:10196C00620E066E076A2BEC16F0E4EC17F0360EDE
:10197C00066E0650D8A40E0E076E2BEC16F0190E40
:10198C000001616F5A0E606FB10EE82EFED7602F0A
:10199C00FCD7612FFAD700D032EF0CF0DD0E096EB8
:1019AC001CEC0DF020EEDDF000EE1FF0070EDBCF8F
:1019BC00EBFFE806FCE2C10E276E2BEC12F0620E78
:1019CC001E6E370E1F6EDDC020F0DEC021F0DFC0B2
:1019DC0022F0E0C023F0E1C024F0E2C025F0E3C027
:1019EC0026F0E4C027F0C1C028F0C2C029F0C3C063
:1019FC002AF0C4C02BF0C5C02CF0C6C02DF0DEEC14
:101A0C0016F0E4EC17F0620E066E076A2BEC16F07B
:101A1C00E4EC17F0360E066E0650D8A40E0E076EC8
:101A2C002BEC16F0C5EF0CF046EF00F03CEC18F088
:101A3C00520E2BEC18F0B60E2BEC18F041EC18F003
:101A4C00530E2BEC18F0010E83EC16F00A6E0B6A99
:101A5C000950D96EDA6A0AC0DEFF0BC0DDFF0950EF
:101A6C00D96EDA6ADECF0AF0DDCF0BF0000E83EC14
:101A7C0016F00C6E0C500E6E0D6A0A500D100F6E97
:101A8C000B500E10106E0950D96EDA6A0FC0DEFFC3
:101A9C0010C0DDFF37EC18F03CEC18F0520E2BECBC
:101AAC0018F0B80E2BEC18F041EC18F0530E2BEC90
:101ABC0018F0010E83EC16F00A6E0B6A0950D96E01
:101ACC00DA6A020ED9260AC0DEFF0BC0DDFF095010
:101ADC00D96EDA6A020ED926DECF0AF0DDCF0BF012
:101AEC00000E83EC16F00C6E0C500E6E0D6A0A5044
:101AFC000D100F6E0B500E10106E0950D96EDA6A65
:101B0C00020ED9260FC0DEFF10C0DDFF37EC18F037
:101B1C003CEC18F0520E2BEC18F0BA0E2BEC18F023
:101B2C0041EC18F0530E2BEC18F0010E83EC16F070
:101B3C000A6E0B6A0950D96EDA6A040ED9260AC0ED
:101B4C00DEFF0BC0DDFF0950D96EDA6A040ED92610
:101B5C00DECF0AF0DDCF0BF0000E83EC16F00C6E2E
:101B6C000C500E6E0D6A0A500D100F6E0B500E10AD
:101B7C00106E0950D96EDA6A040ED9260FC0DEFF3A
:101B8C0010C0DDFF37EC18F03CEC18F0520E2BECCB
:101B9C0018F0B40E2BEC18F041EC18F0530E2BECA3
:101BAC0018F0010E83EC16F00A6E0B6A0950D96E10
:101BBC00DA6A060ED9260AC0DEFF0BC0DDFF09501B
:101BCC00D96EDA6A060ED926DECF0AF0DDCF0BF01D
:101BDC00000E83EC16F00C6E0C500E6E0D6A0A5053
:101BEC000D100F6E0B500E10106E0950D96EDA6A74
:101BFC00060ED9260FC0DEFF10C0DDFF37EC18F043
:101C0C0012001050D96EDA6ADFCFF6FF0E0EF76EA7
:101C1C000800F550250AD8A416EF0EF018EF0EF0B8
:101C2C00D7EF0EF01050D96EDA6ADF2A000E526E22
:101C3C00000E516E51C055F0536854681050D96E57
:101C4C00DA6ADF50146E14C0F6FF0E0EF76E080041
:101C5C00F550640AD8B435EF0EF037EF0EF045EFBF
:101C6C000EF014C0F6FF0E0EF76E0800F550690A60
:101C7C00D8A443EF0EF045EF0EF0D1EF0EF011505B
:101C8C00D96EDA6A020EDF26DF5CD96EDA6ADECF35
:101C9C0015F0DECF16F01050D96EDA6A1428DF6E0C
:101CAC00200E196E16BE5DEF0EF060EF0EF0010EF9
:101CBC0061EF0EF0000E136E1906640E1924D96E26
:101CCC00DA6A010EDA2215C005F016C006F0000E15
:101CDC00086E0A0E076E94EC14F005C00BF006C0EB
:101CEC000CF0F8EC16F00B50300FDF6E15C005F051
:101CFC0016C006F0000E086E0A0E076E32EC14F0D9
:101D0C0005C015F006C016F015501610D8B491EF9A
:101D1C000EF093EF0EF09BEF0EF01950D8A499EF44
:101D2C000EF09BEF0EF062EF0EF01950D8B4A1EF4D
:101D3C000EF0A3EF0EF0C6EF0EF01350D8B4A9EFCF
:101D4C000EF0ABEF0EF0C6EF0EF01906640E192470
:101D5C00D96EDA6A010EDA222D0EDF6EC6EF0EF0A6
:101D6C00640E1924D96EDA6A010EDA22DF50126E73
:101D7C001250056E066A0FC007F0ECEC14F0192A2D
:101D8C00200E1918D8A4CDEF0EF0CFEF0EF0B6EF51
:101D9C000EF0E8EF0EF01050D96EDA6ADF2AE8EF99
:101DAC000EF01050D96EDA6ADFCFF6FF0E0EF76E1A
:101DBC000800F550056E066A0FC007F0ECEC14F045
:101DCC00D1EF0EF012001750D96EDA6A010ED92637
:101DDC00DF6A1850D96EDA6A010ED926DF6A000E56
:101DEC00226E010E216E3DEF0FF01750D96EDA6A9C
:101DFC001750E16EE26A090EE126E7502124DF6EEE
:101E0C001850D96EDA6A1850E16EE26A090EE126B2
:101E1C00E7502124DF6E17C012F081EC11F018C0CE
:101E2C0012F081EC11F0000E206E000E1F6E29EFE7
:101E3C000FF0680E1C6EE40EE82EFED71C2EFCD79D
:101E4C0000D01F4A202A1B501C6E1D6A1C501F5CA0
:101E5C002050800A1E6E1D50800A1E58D8A039EFE3
:101E6C000FF03BEF0FF01FEF0FF0214A222A195011
:101E7C001C6E1D6A21501C5C1D50800A1E6E225067
:101E8C00800A1E58D8B04DEF0FF04FEF0FF0FBEF5C
:101E9C000EF0000E206E000E1F6E5FEF0FF0680E3E
:101EAC001C6EE40EE82EFED71C2EFCD700D01F4A69
:101EBC00202A1A501C6E1D6A1C501F5C2050800A70
:101ECC001E6E1D50800A1E58D8A06FEF0FF071EFD8
:101EDC000FF055EF0FF019C021F0226A22BE7BEFF4
:101EEC000FF079EF0FF07DEF0FF0C2EF0FF01750FE
:101EFC00D96EDA6A1750E16EE26A090EE126E750F4
:101F0C002124DF6E1850D96EDA6A1850E16EE26A3D
:101F1C00090EE126E7502124DF6E17C012F081EC88
:101F2C0011F018C012F081EC11F0000E206E000EB2
:101F3C001F6EABEF0FF0680E1C6EE40EE82EFED792
:101F4C001C2EFCD700D01F4A202A1B501C6E1D6A69
:101F5C001C501F5C2050800A1E6E1D50800A1E589B
:101F6C00D8A0BBEF0FF0BDEF0FF0A1EF0FF02106E3
:101F7C00D8A0220674EF0FF01750D96EDA6ADF6A18
:101F8C001850D96EDA6ADF6A12001750D96EDA6A05
:101F9C00010ED926010EDF6E1850D96EDA6A010EC9
:101FAC00D926DF6A000E226E010E216E20EF10F092
:101FBC001750D96EDA6A1750E16EE26A090EE12603
:101FCC00E7502124DF6E1850D96EDA6A1850E16E92
:101FDC00E26A090EE126E7502124DF6E17C012F0E9
:101FEC0081EC11F018C012F081EC11F0000E206E93
:101FFC00000E1F6E0CEF10F0680E1C6EE40EE82E37
:10200C00FED71C2EFCD700D01F4A202A1B501C6E5A
:10201C001D6A1C501F5C2050800A1E6E1D50800AC9
:10202C001E58D8A01CEF10F01EEF10F002EF10F0AD
:10203C00214A222A19501C6E1D6A21501C5C1D500D
:10204C00800A1E6E2250800A1E58D8B030EF10F055
:10205C0032EF10F0DEEF0FF0000E206E000E1F6E50
:10206C0042EF10F0680E1C6EE40EE82EFED71C2E0C
:10207C00FCD700D01F4A202A1A501C6E1D6A1C5017
:10208C001F5C2050800A1E6E1D50800A1E58D8A05E
:10209C0052EF10F054EF10F038EF10F019C021F09F
:1020AC00226A22BE5EEF10F05CEF10F060EF10F0D1
:1020BC00A5EF10F01750D96EDA6A1750E16EE26A8C
:1020CC00090EE126E7502124DF6E1850D96EDA6A2A
:1020DC001850E16EE26A090EE126E7502124DF6E0A
:1020EC0017C012F081EC11F018C012F081EC11F055
:1020FC00000E206E000E1F6E8EEF10F0680E1C6E20
:10210C00E40EE82EFED71C2EFCD700D01F4A202A46
:10211C001B501C6E1D6A1C501F5C2050800A1E6ECA
:10212C001D50800A1E58D8A09EEF10F0A0EF10F0A2
:10213C0084EF10F02106D8A0220657EF10F0120001
:10214C001750D96EDA6A010ED926DF6A1850D96E8B
:10215C00DA6A010ED926010EDF6E000E226E010E18
:10216C00216EFBEF10F01750D96EDA6A1750E16E42
:10217C00E26A090EE126E7502124DF6E1850D96E71
:10218C00DA6A1850E16EE26A090EE126E750212462
:10219C00DF6E17C012F081EC11F018C012F081EC58
:1021AC0011F0000E206E000E1F6EE7EF10F0680E9F
:1021BC001C6EE40EE82EFED71C2EFCD700D01F4A56
:1021CC00202A1B501C6E1D6A1C501F5C2050800A5C
:1021DC001E6E1D50800A1E58D8A0F7EF10F0F9EFB4
:1021EC0010F0DDEF10F0214A222A19501C6E1D6AE6
:1021FC0021501C5C1D50800A1E6E2250800A1E58F5
:10220C00D8B00BEF11F00DEF11F0B9EF10F0000E8C
:10221C00206E000E1F6E1DEF11F0680E1C6EE40E8A
:10222C00E82EFED71C2EFCD700D01F4A202A1A50AD
:10223C001C6E1D6A1C501F5C2050800A1E6E1D50A7
:10224C00800A1E58D8A02DEF11F02FEF11F013EFCC
:10225C0011F019C021F0226A22BE39EF11F037EFCC
:10226C0011F03BEF11F080EF11F01750D96EDA6AD4
:10227C001750E16EE26A090EE126E7502124DF6E69
:10228C001850D96EDA6A1850E16EE26A090EE1262E
:10229C00E7502124DF6E17C012F081EC11F018C04A
:1022AC0012F081EC11F0000E206E000E1F6E69EF23
:1022BC0011F0680E1C6EE40EE82EFED71C2EFCD717
:1022CC0000D01F4A202A1B501C6E1D6A1C501F5C1C
:1022DC002050800A1E6E1D50800A1E58D8A079EF1F
:1022EC0011F07BEF11F05FEF11F02106D8A0220660
:1022FC0032EF11F012001250D96EDA6A020ED926A2
:10230C00DF50D8B48CEF11F08EEF11F0BEEF11F05E
:10231C001250D96EDA6ADF50136E1350056E066ACE
:10232C001250D96EDA6A030ED926DECF07F0DDCF54
:10233C0008F08DEC17F005C00BF006C00CF0000E89
:10234C000E6E640E0D6E89EC15F01250D96EDA6AB1
:10235C00030ED926DF50146E0B50145C156E125000
:10236C00D96EDA6A030ED926DF50166EDFEF11F044
:10237C00000E156E1250D96EDA6ADF50136E1350C0
:10238C00056E066A1250D96EDA6A030ED926DECFB4
:10239C0007F0DDCF08F08DEC17F005C00BF006C090
:1023AC000CF0000E0E6E640E0D6E89EC15F00B50D9
:1023BC00166E1250D96EDA6A010ED926DF50D8B4D7
:1023CC00EAEF11F0ECEF11F00CEF12F01250D96EA5
:1023DC00DA6A050ED926DECF13F0DDCF14F013C068
:1023EC00D9FF14C0DAFF15C0DFFF1250D96EDA6ABC
:1023FC00070ED926DECF13F0DDCF14F013C0D9FFB2
:10240C0014C0DAFF16C0DFFF2AEF12F01250D96E9B
:10241C00DA6A050ED926DECF13F0DDCF14F013C027
:10242C00D9FF14C0DAFF16C0DFFF1250D96EDA6A7A
:10243C00070ED926DECF13F0DDCF14F013C0D9FF71
:10244C0014C0DAFF15C0DFFF12002750D96EDA6A0C
:10245C00060ED92625C0DEFF26C0DDFF1FC005F005
:10246C0020C006F0076A086AE80E096E030E0A6EB1
:10247C00000E0B6E000E0C6EC3EC15F005C011F0C7
:10248C0006C012F007C013F008C014F0235021242A
:10249C00286E24502220296E1F50282620502922D5
:1024AC0028C015F029C016F0176A186ACCEC12F087
:1024BC002750D96EDA6A11C0DEFF12C0DDFF21C0D1
:1024CC0005F022C006F0076A086AE80E096E030ED2
:1024DC000A6E000E0B6E000E0C6EC3EC15F005C0F0
:1024EC0011F006C012F007C013F008C014F023500E
:1024FC002124286E24502220296E1F50282620507B
:10250C00292228C015F029C016F0176A186ACCECDD
:10251C0012F02750D96EDA6A020ED92611C0DEFFEE
:10252C0012C0DDFF23C005F024C006F0076A086A5C
:10253C00E80E096E030E0A6E000E0B6E000E0C6E8A
:10254C00C3EC15F005C011F006C012F007C013F073
:10255C0008C014F023502124286E24502220296E08
:10256C001F5028262050292228C015F029C016F00B
:10257C00176A186ACCEC12F02750D96EDA6A040E7E
:10258C00D92611C0DEFF12C0DDFF1200000E1A6E3C
:10259C0018BED5EF12F0D3EF12F0DFEF12F0181EC9
:1025AC00171E161E156C000E162217221822010E6D
:1025BC001A6E14BEE6EF12F0E4EF12F0F0EF12F028
:1025CC00141E131E121E116C000E12221322142242
:1025DC00010E1A1A000E1B6E000E1C6E000E1D6EE4
:1025EC00000E1E6E1550161017101810D8B401EFEF
:1025FC0013F003EF13F039EF13F0010E196E0DEF1A
:10260C0013F0D8901536163617361836192A18AE18
:10261C0012EF13F014EF13F007EF13F0D8901B36F2
:10262C001C361D361E361550115C1650125817509C
:10263C00135818501458D8A026EF13F028EF13F0A5
:10264C0031EF13F01550115E1650125A1750135AE1
:10265C001850145A1B80D890183217321632153273
:10266C00192E14EF13F01A50D8B43FEF13F041EFBA
:10267C0013F049EF13F01E1E1D1E1C1E1B6C000ECA
:10268C001C221D221E221BC011F01CC012F01DC0EA
:10269C0013F01EC014F012001750D96EDA6A010E36
:1026AC00D926010EDF6E1850D96EDA6A010ED926C2
:1026BC00010EDF6E1750D96EDA6ADF501A6E1750A2
:1026CC00D96EDA6A090ED926DF501B6E1B501A5CC4
:1026DC001F6E206AD8A0200620BE79EF13F077EF8A
:1026EC0013F07BEF13F0C0EF13F01750D96EDA6ACA
:1026FC001750E16EE26A090EE126E7501F24DF6EE7
:10270C001850D96EDA6A1850E16EE26A090EE126A9
:10271C00E7501F24DF6E17C012F081EC11F018C0C7
:10272C0012F081EC11F0000E1E6E000E1D6EA9EF62
:10273C0013F0680E1A6EE40EE82EFED71A2EFCD794
:10274C0000D01D4A1E2A19501A6E1B6A1A501D5CA5
:10275C001E50800A1C6E1B50800A1C58D8A0B9EF62
:10276C0013F0BBEF13F09FEF13F01F06D8A0200659
:10277C0072EF13F01750D96EDA6ADF6A1850D96EFF
:10278C00DA6ADF6A12001750D96EDA6A010ED9269E
:10279C00010EDF6E1850D96EDA6A010ED926010EC1
:1027AC00DF6E000E216E010E206E1FEF14F017501D
:1027BC00D96EDA6A1750E16EE26A090EE126E7502B
:1027CC002024DF6E1850D96EDA6A1850E16EE26A76
:1027DC00090EE126E7502024DF6E17C012F081ECC1
:1027EC0011F018C012F081EC11F0000E1F6E000EEB
:1027FC001E6E0BEF14F0680E1B6EE40EE82EFED767
:10280C001B2EFCD700D01E4A1F2A1A501B6E1C6AA6
:10281C001B501E5C1F50800A1D6E1C50800A1D58D8
:10282C00D8A01BEF14F01DEF14F001EF14F0204AA8
:10283C00212A19501B6E1C6A20501B5C1C50800AEC
:10284C001D6E2150800A1D58D8B02FEF14F031EFB7
:10285C0014F0DDEF13F01200000E0A6E08BE3BEF11
:10286C0014F039EF14F041EF14F0076C081ED8B0D7
:10287C00082A010E0A6E06BE48EF14F046EF14F05B
:10288C004EEF14F0056C061ED8B0062A010E0A1A7B
:10289C00000E0C6E000E0B6E07500810D8B459EFDA
:1028AC0014F05BEF14F083EF14F0010E096E63EF7C
:1028BC0014F0D89007360836092A08AE68EF14F0E1
:1028CC006AEF14F05FEF14F0D8900B360C3607500B
:1028DC00055C08500658D8A076EF14F078EF14F089
:1028EC007DEF14F00750055E0850065A0B80D89007
:1028FC0008320732092E6AEF14F00A50D8B489EF67
:10290C0014F08BEF14F08FEF14F00B6C0C1ED8B08E
:10291C000C2A0BC005F00CC006F01200000E0A6E5B
:10292C0006BE9DEF14F09BEF14F0A3EF14F0056CB2
:10293C00061ED8B0062A010E0A6E08BEAAEF14F0C5
:10294C00A8EF14F0AEEF14F0076C081ED8B0082AEC
:10295C0007500810D8B4B5EF14F0B7EF14F0DBEF54
:10296C0014F0010E096EBFEF14F0D890073608363C
:10297C00092A08AEC4EF14F0C6EF14F0BBEF14F044
:10298C000750055C08500658D8A0CFEF14F0D1EFD3
:10299C0014F0D5EF14F00750055E0850065AD89085
:1029AC0008320732092EC6EF14F00A50D8B4E1EF02
:1029BC0014F0E3EF14F0E7EF14F0056C061ED8B03A
:1029CC00062A05C005F006C006F012000750D8B460
:1029DC00F2EF14F0F4EF14F0FCEF14F00750D8A45D
:1029EC00FAEF14F0FCEF14F001EF15F0055052EC77
:1029FC0018F040EF15F00750D96EDA6A0A0ED92696
:102A0C00DE50DE10D8B40DEF15F00FEF15F028EFF7
:102A1C0015F00750D96EDA6A0A0ED9260750E16E06
:102A2C00E26A030EE126DE50E65CE650800A0C6E8C
:102A3C00DE50800A0C58D8B026EF15F028EF15F0B0
:102A4C0040EF15F00750D96EDA6A030ED926DF5025
:102A5C00086E0750D96EDA6ADF500824D96EDA6A2C
:102A6C0005C0DFFF0750D96EDA6A030ED926DE2ABD
:102A7C00000EDD2212007D9485947D9885987B9EB6
:102A8C00839E7F9C879C050E0E01746F060E766FDD
:102A9C00070E696F080E886FBD508F0B3009BD6E25
:102AAC00E00EBE16BF50F00B0109BF6E05C0BCFF97
:102ABC00BD8E000EAA6E000EA66E000E0F01256FC5
:102ACC00000E216FFC0EAD16F30EAD16CF0EAD162B
:102ADC003F0EAD16AB88AB50F00B0C09AB6EAB8E4A
:102AEC00A788A750F00B0C09A76EA78E2689265134
:102AFC00F00B0C09266F268F22892251F00B0C0942
:102B0C00226F228F1200000E106E000E0F6E0D50F1
:102B1C000E10D8B494EF15F096EF15F0BEEF15F03B
:102B2C00010E116E9EEF15F0D8900D360E36112A4F
:102B3C000EAEA3EF15F0A5EF15F09AEF15F0D890A7
:102B4C000F3610360D500B5C0E500C58D8A0B1EF50
:102B5C0015F0B3EF15F0B8EF15F00D500B5E0E50ED
:102B6C000C5A0F80D8900E320D32112EA5EF15F0A5
:102B7C000FC00BF010C00CF01200000E0D6E000E0A
:102B8C000E6E000E0F6E000E106E05A0D0EF15F03D
:102B9C00D2EF15F0DAEF15F009500D260A500E227F
:102BAC000B500F220C501022D89009360A360B36D7
:102BBC000C36D89008320732063205320550061012
:102BCC0007100810D8A4EDEF15F0EFEF15F0CBEFD0
:102BDC0015F00DC005F00EC006F00FC007F010C0C8
:102BEC0008F0120028EC17F0010E076E000EC5EC71
:102BFC0017F03F0E096E550EE82EFED7092EFCD7A6
:102C0C000000030E076E000EC5EC17F0D50E076E14
:102C1C00010EC5EC17F0130E076E000EC5EC17F085
:102C2C00070E076E070EC5EC17F0D00E076E060EDA
:102C3C00C5EC17F0000E076E050EC5EC17F0000E74
:102C4C00076E040EC5EC17F0120042EF16F006C02A
:102C5C00F6FF07C0F7FF000EF86E0D0EF76403D0F9
:102C6C000800F55005D0F6CFE9FFF7CFEAFFEF509B
:102C7C003DEC17F0064A072A06C0F6FF07C0F7FF1F
:102C8C00000EF86E0D0EF76403D00800F55005D059
:102C9C00F6CFE9FFF7CFEAFFEF500009D8A459EFC0
:102CAC0016F05BEF16F02DEF16F01200F1EC17F0AA
:102CBC000AEC18F00D6E0DC005F0066A000E086ED9
:102CCC00180E076E32EC14F005500E6E0EA271EF5A
:102CDC0016F073EF16F076EF16F07C8E77EF16F099
:102CEC007C9E0EA07CEF16F07EEF16F081EF16F0B6
:102CFC00808682EF16F080961200076E52EC17F069
:102D0C000E01DA8752EC17F0D5CE08F052EC17F022
:102D1C000750D8B494EF16F098EF16F0066A062A0E
:102D2C0099EF16F0066A063A06460E01DA510618B5
:102D3C00DF0B0618DA6FDA89085012001BC01DF081
:102D4C00B0EF16F01AC00FF01D0E106E1CC011F073
:102D5C0007EC0EF01DC0F6FF0E0EF76E0800F550D6
:102D6C000009D8A4BCEF16F0BEEF16F0A8EF16F0D1
:102D7C00000E1B6E000E1A6E12007C9E849E8096B6
:102D8C00889686840E01B4958686B4978092889234
:102D9C007C9884987C968496A797809088907E9057
:102DAC0086907F9087907D9E859E79968196120065
:102DBC00200E306E1EC031F0000E356E000E346EDB
:102DCC00000E3C6E000E3B6E310E1A6E1FC01BF0D7
:102DDC00300E1C6EA4EC16F01E503424D96EDA6A38
:102DEC00DF6A12000CBEFDEF16F0FFEF16F005EFD8
:102DFC0017F00BC00BF00CC00CF011EF17F00BC060
:102E0C000DF00CC00EF00D1E0E1E0D4A0E2A0DC03C
:102E1C000BF00EC00CF012003B0E566418EF17F0BE
:102E2C001AEF17F01CEF17F0000E566E562A5604C8
:102E3C00016E026A000E0124D96E010E0220DA6EB8
:102E4C00DF5012000E01D951F00B0809D96FD98B44
:102E5C009F0ED66F848A848CA79BA79D1D0E1D6F19
:102E6C001E0E1C6F1C0E6F6F1B0E706F1200056E0A
:102E7C003B0E576444EF17F046EF17F048EF17F08E
:102E8C00000E576E000E5724D96EDA6A010EDA2244
:102E9C0005C0DFFF572A12000E01D8B558EF17F006
:102EAC005AEF17F052EF17F0DACE05F01F0E051699
:102EBC00D8A463EF17F065EF17F052EF17F012007C
:102ECC000E01D8B56CEF17F06EEF17F066EF17F038
:102EDC00DACE01F01F0E0116D8A477EF17F079EFB8
:102EEC0017F066EF17F0120001EE00F0840EEE6A98
:102EFC00E806FDE100EE3DF01D0EEE6AE806FDE190
:102F0C005A905A92000EF86E000171EF0BF00550BA
:102F1C000702F3CF09F0F4CF0AF005500802F35082
:102F2C000A2606500702F3500A2609C005F00AC00B
:102F3C0006F01200016E130E5964A7EF17F0A9EFFB
:102F4C0017F0ABEF17F0000E596E59503D0FD96EBC
:102F5C00DA6A01C0DFFF592A1200056E0550D8B499
:102F6C00BAEF17F0BCEF17F0C1EF17F07F807D8E32
:102F7C007986C4EF17F07F907D9E79961200086ECB
:102F8C003CEC18F0520E2BEC18F0085080092BEC8E
:102F9C0018F007502BEC18F037EC18F01200120E4A
:102FAC000E01626F110E156FE997E895330EE56F00
:102FBC00000EE66FE789E88BE78F1200FEEC17F046
:102FCC000009D8B4ECEF17F0EEEF17F0F0EF17F0B4
:102FDC000E012D851200868C0E01B48D0F015899AF
:102FEC00FC0E58172E0E5F6F60946088608E120076
:102FFC0056505718D8A405EF18F008EF18F0010E2A
:10300C0009EF18F0000E1200608060B010EF18F09D
:10301C0012EF18F00BEF18F064CF05F0055012000A
:10302C0056505718D8A41DEF18F020EF18F0010EC9
:10303C0021EF18F0000E120082800E019A91298166
:10304C001F812D87F28CF28E1200066E52EC17F057
:10305C0006C0D5FE1200026E66EC17F002C0D5FE5B
:10306C00120052EC17F00E01DA85120052EC17F038
:10307C000E01DA81120052EC17F00E01DA83120005
:10308C0066EC17F00E01DA85120066EC17F00E01F3
:0A309C00DA811200000E120012008B
:020000040030CA
:02000000AAFF55
:020004009FFF5C
:00000001FF
