:0400000046EF00F0D7
:100008005A82D9CF03F0DACF04F00E0133A10FEFF3
:1000180000F011EF00F01EEF00F0808608EC0EF003
:10002800520EEEEC0DF0E60EEEEC0DF003EC0EF0D9
:100038000E01339137A723EF00F025EF00F028EFEA
:1000480000F0E35163EC0DF00E0137A52EEF00F040
:1000580030EF00F040EF00F076EC0DF00E01E46FA9
:10006800D3EC0DF00009D8A43CEF00F03EEF00F00F
:1000780040EF00F00E012D9504C0DAFF03C0D9FF50
:080088005A921100FAEF0CF08E
:100E000000723D256420673D256420623D256420F5
:100E1000633D25642020206E3A20723D25642067C2
:100E20003D256420623D25642020636F6C6F723A1B
:100E3000202564200D0A0000FEEC0DF0520EE8ECB7
:100E40000DF0B60EE8EC0DF0F4EC0DF0530EE8ECFE
:100E50000DF0010E6BEC0CF00A6E0B6A0950D96EA6
:100E6000DA6A0AC0DEFF0BC0DDFF0950D96EDA6A0C
:100E7000DECF0AF0DDCF0BF0000E6BEC0CF00C6E49
:100E80000C500E6E0D6A0A500D100F6E0B500E10A6
:100E9000106E0950D96EDA6A0FC0DEFF10C0DDFF98
:100EA000F9EC0DF0FEEC0DF0520EE8EC0DF0B80E82
:100EB000E8EC0DF0F4EC0DF0530EE8EC0DF0010E43
:100EC0006BEC0CF00A6E0B6A0950D96EDA6A020EEE
:100ED000D9260AC0DEFF0BC0DDFF0950D96EDA6AE1
:100EE000020ED926DECF0AF0DDCF0BF0000E6BEC40
:100EF0000CF00C6E0C500E6E0D6A0A500D100F6E39
:100F00000B500E10106E0950D96EDA6A020ED926F7
:100F10000FC0DEFF10C0DDFFF9EC0DF0FEEC0DF0B0
:100F2000520EE8EC0DF0BA0EE8EC0DF0F4EC0DF01A
:100F3000530EE8EC0DF0010E6BEC0CF00A6E0B6A30
:100F40000950D96EDA6A040ED9260AC0DEFF0BC03A
:100F5000DDFF0950D96EDA6A040ED926DECF0AF019
:100F6000DDCF0BF0000E6BEC0CF00C6E0C500E6E27
:100F70000D6A0A500D100F6E0B500E10106E0950B6
:100F8000D96EDA6A040ED9260FC0DEFF10C0DDFF6D
:100F9000F9EC0DF0FEEC0DF0520EE8EC0DF0B40E95
:100FA000E8EC0DF0F4EC0DF0530EE8EC0DF0010E52
:100FB0006BEC0CF00A6E0B6A0950D96EDA6A060EF9
:100FC000D9260AC0DEFF0BC0DDFF0950D96EDA6AF0
:100FD000060ED926DECF0AF0DDCF0BF0000E6BEC4B
:100FE0000CF00C6E0C500E6E0D6A0A500D100F6E48
:100FF0000B500E10106E0950D96EDA6A060ED92603
:101000000FC0DEFF10C0DDFFF9EC0DF01200105034
:10101000D96EDA6ADFCFF6FF0E0EF76E0800F550D4
:10102000250AD8A416EF08F018EF08F0D1EF08F061
:101030001050D96EDA6ADF2A000E526E000E516E21
:1010400051C055F0536854681050D96EDA6ADF50B9
:10105000146E14C0F6FF0E0EF76E0800F550640A09
:10106000D8B435EF08F037EF08F045EF08F014C0BA
:10107000F6FF0E0EF76E0800F550690AD8A443EF8C
:1010800008F045EF08F0CBEF08F01150D96EDA6A9E
:10109000020EDF26DF5CD96EDA6ADECF15F0DECF16
:1010A00016F01050D96EDA6A1428DF6E200E196E11
:1010B00016BE5DEF08F060EF08F0010E61EF08F07A
:1010C000000E136E190619509C0FD96EDA6A15C0FE
:1010D00005F016C006F0000E086E0A0E076EEBEC67
:1010E0000AF005C00BF006C00CF0E0EC0CF00B5061
:1010F000300FDF6E15C005F016C006F0000E086E4A
:101100000A0E076E89EC0AF005C015F006C016F04D
:1011100015501610D8B48FEF08F091EF08F099EF42
:1011200008F01950D8A497EF08F099EF08F062EF93
:1011300008F01950D8B49FEF08F0A1EF08F0C0EF05
:1011400008F01350D8B4A7EF08F0A9EF08F0C0EFEB
:1011500008F0190619509C0FD96EDA6A2D0EDF6E51
:10116000C0EF08F019509C0FD96EDA6ADF50126E8A
:101170001250056E066A0FC007F043EC0BF0192AF7
:10118000200E1918D8A4C7EF08F0C9EF08F0B2EF85
:1011900008F0E2EF08F01050D96EDA6ADF2AE2EFC9
:1011A00008F01050D96EDA6ADFCFF6FF0E0EF76E38
:1011B0000800F550056E066A0FC007F043EC0BF00F
:1011C000CBEF08F012002750D96EDA6A060ED92646
:1011D00025C0DEFF26C0DDFF1FC005F020C006F0E1
:1011E000076A086AE80E096E030E0A6E000E0B6E9F
:1011F000000E0C6ED2EC0BF005C011F006C012F020
:1012000007C013F008C014F023502124286E245086
:101210002220296E1F5028262050292228C015F090
:1012200029C016F0176A186A84EC09F02750D96EA5
:10123000DA6A11C0DEFF12C0DDFF21C005F022C056
:1012400006F0076A086AE80E096E030E0A6E000EC1
:101250000B6E000E0C6ED2EC0BF005C011F006C048
:1012600012F007C013F008C014F023502124286E98
:1012700024502220296E1F5028262050292228C0C1
:1012800015F029C016F0176A186A84EC09F0275087
:10129000D96EDA6A020ED92611C0DEFF12C0DDFF58
:1012A00023C005F024C006F0076A086AE80E096E3C
:1012B000030E0A6E000E0B6E000E0C6ED2EC0BF0DD
:1012C00005C011F006C012F007C013F008C014F0FA
:1012D00023502124286E24502220296E1F502826B6
:1012E0002050292228C015F029C016F0176A186A64
:1012F00084EC09F02750D96EDA6A040ED92611C0A1
:10130000DEFF12C0DDFF1200000E1A6E18BE8DEF58
:1013100009F08BEF09F097EF09F0181E171E161E43
:10132000156C000E162217221822010E1A6E14BE1A
:101330009EEF09F09CEF09F0A8EF09F0141E131EB0
:10134000121E116C000E122213221422010E1A1A00
:10135000000E1B6E000E1C6E000E1D6E000E1E6E2B
:101360001550161017101810D8B4B9EF09F0BBEFCC
:1013700009F0F1EF09F0010E196EC5EF09F0D890F0
:101380001536163617361836192A18AECAEF09F070
:10139000CCEF09F0BFEF09F0D8901B361C361D3694
:1013A0001E361550115C165012581750135818500D
:1013B0001458D8A0DEEF09F0E0EF09F0E9EF09F0EA
:1013C0001550115E1650125A1750135A1850145ACD
:1013D0001B80D8901832173216321532192ECCEFE6
:1013E00009F01A50D8B4F7EF09F0F9EF09F001EF5E
:1013F0000AF01E1E1D1E1C1E1B6C000E1C221D2230
:101400001E221BC011F01CC012F01DC013F01EC024
:1014100014F01200ABEC0CF007EC0CF0ABEC0DF0A0
:10142000DFEC0DF020EEBEF0270EDE6AE806FDE2EE
:101430007C868082010E89EC0DF08EB422EF0AF0DA
:1014400024EF0AF01DEF0AF0EF0E096E1CEC07F016
:1014500020EEEFF000EE1FF0070EDBCFEBFFE8060B
:10146000FCE2E70E276EE3EC08F020EEE7F000EE7A
:1014700005F0070EDBCFEBFFE806FCE298EC0BF083
:101480000001E66FBE0E1E6E010E1F6EEFC020F053
:10149000F0C021F0F1C022F0F2C023F0F3C024F03C
:1014A000F4C025F0F5C026F0F6C027F0E7C028F01C
:1014B000E8C029F0E9C02AF0EAC02BF0EBC02CF01C
:1014C000ECC02DF0E6C02EF02F6AC6EC0CF0BAECA2
:1014D0000DF0BE0E066E076A3AEC0CF0BAEC0DF099
:1014E000360E066E0650D8A40E0E076E3AEC0CF0BF
:1014F000190E0001BD6F5A0EBC6FB10EE82EFED75B
:10150000BC2FFCD7BD2FFAD700D01DEF0AF046EF55
:1015100000F0000E0A6E08BE92EF0AF090EF0AF09B
:1015200098EF0AF0076C081ED8B0082A010E0A6E60
:1015300006BE9FEF0AF09DEF0AF0A5EF0AF0056CDA
:10154000061ED8B0062A010E0A1A000E0C6E000EF6
:101550000B6E07500810D8B4B0EF0AF0B2EF0AF0E3
:10156000DAEF0AF0010E096EBAEF0AF0D8900736EA
:101570000836092A08AEBFEF0AF0C1EF0AF0B6EF4D
:101580000AF0D8900B360C360750055C0850065808
:10159000D8A0CDEF0AF0CFEF0AF0D4EF0AF0075051
:1015A000055E0850065A0B80D89008320732092E83
:1015B000C1EF0AF00A50D8B4E0EF0AF0E2EF0AF007
:1015C000E6EF0AF00B6C0C1ED8B00C2A0BC005F02D
:1015D0000CC006F01200000E0A6E06BEF4EF0AF010
:1015E000F2EF0AF0FAEF0AF0056C061ED8B0062AF0
:1015F000010E0A6E08BE01EF0BF0FFEF0AF005EFD7
:101600000BF0076C081ED8B0082A07500810D8B491
:101610000CEF0BF00EEF0BF032EF0BF0010E096E3A
:1016200016EF0BF0D89007360836092A08AE1BEFE4
:101630000BF01DEF0BF012EF0BF00750055C08509C
:101640000658D8A026EF0BF028EF0BF02CEF0BF08C
:101650000750055E0850065AD89008320732092E06
:101660001DEF0BF00A50D8B438EF0BF03AEF0BF047
:101670003EEF0BF0056C061ED8B0062A05C005F03B
:1016800006C006F012000750D8B449EF0BF04BEF3C
:101690000BF053EF0BF00750D8A451EF0BF053EFC2
:1016A0000BF058EF0BF005500DEC0EF097EF0BF030
:1016B0000750D96EDA6A0A0ED926DE50DE10D8B489
:1016C00064EF0BF066EF0BF07FEF0BF00750D96E75
:1016D000DA6A0A0ED9260750E16EE26A030EE126A5
:1016E000DE50E65CE650800A0C6EDE50800A0C5834
:1016F000D8B07DEF0BF07FEF0BF097EF0BF00750BA
:10170000D96EDA6A030ED926DF50086E0750D96EFB
:10171000DA6ADF500824D96EDA6A05C0DFFF0750A5
:10172000D96EDA6A030ED926DE2A000EDD221200F7
:10173000000E0D6E270E055C020E0658D8A0A3EF12
:101740000BF0A5EF0BF0A9EF0BF0010E0D6ED0EF33
:101750000BF0230E075C010E0858D8A0B2EF0BF077
:10176000B4EF0BF0B8EF0BF0020E0D6ED0EF0BF0F4
:101770000A5009E1DD0E095CD8A0C1EF0BF0C3EF00
:101780000BF0D0EF0BF0200E0B5C030E0C58D8B012
:10179000CCEF0BF0CEEF0BF0D0EF0BF0030E0D6E95
:1017A0000D501200000E0D6E000E0E6E000E0F6E2C
:1017B000000E106E05A0DFEF0BF0E1EF0BF0E9EF8C
:1017C0000BF009500D260A500E220B500F220C5020
:1017D0001022D89009360A360B360C36D8900832CB
:1017E0000732063205320550061007100810D8A43B
:1017F000FCEF0BF0FEEF0BF0DAEF0BF00DC005F095
:101800000EC006F00FC007F010C008F0120013EC75
:101810000DF0010E076E000E9BEC0DF03F0E096EF1
:10182000550EE82EFED7092EFCD70000030E076EDA
:10183000000E9BEC0DF0D50E076E010E9BEC0DF02B
:10184000130E076E000E9BEC0DF0070E076E070ED1
:101850009BEC0DF0D00E076E060E9BEC0DF0000E0B
:10186000076E050E9BEC0DF0000E076E040E9BEC50
:101870000DF0120051EF0CF006C0F6FF07C0F7FFA5
:10188000000EF86E0D0EF76403D00800F55005D079
:10189000F6CFE9FFF7CFEAFFEF5050EC0DF0064A24
:1018A000072A06C0F6FF07C0F7FF000EF86E0D0E00
:1018B000F76403D00800F55005D0F6CFE9FFF7CF65
:1018C000EAFFEF500009D8A468EF0CF06AEF0CF0C3
:1018D0003CEF0CF01200076E28EC0DF00E01DA87D9
:1018E00028EC0DF0D5CE08F028EC0DF00750D8B458
:1018F0007CEF0CF080EF0CF0066A062A81EF0CF00A
:10190000066A063A06460E01DA510618DF0B06187B
:10191000DA6FDA89085012001BC01DF098EF0CF046
:101920001AC00FF01D0E106E1CC011F007EC08F06D
:101930001DC0F6FF0E0EF76E0800F5500009D8A482
:10194000A4EF0CF0A6EF0CF090EF0CF0000E1B6E65
:10195000000E1A6E12007C9E849E80968896868465
:101960000E01B4958686B497809288927C9884986C
:101970007C968496A797809088907E9086907F90A2
:1019800087907D9E859E799681961200200E306EFE
:101990001EC031F0000E356E000E346E000E3C6E2F
:1019A000000E3B6E310E1A6E1FC01BF0300E1C6E07
:1019B0008CEC0CF01E503424D96EDA6ADF6A120007
:1019C0000CBEE5EF0CF0E7EF0CF0EDEF0CF00BC008
:1019D0000BF00CC00CF0F9EF0CF00BC00DF00CC0CC
:1019E0000EF00D1E0E1E0D4A0E2A0DC00BF00EC07D
:1019F0000CF0120001EE00F0280EEE6AE806FDE1A0
:101A000000EE60F05C0EEE6AE806FDE100EE3DF0EF
:101A10001D0EEE6AE806FDE15A905A92000EF86E2D
:101A200000010AEF0AF00E01D951F00B0809D96F35
:101A3000D98B9F0ED66F848A848CA79BA79D1D0E81
:101A40001D6F1E0E1C6F1C0E6F6F1B0E706F120031
:101A50000E01D8B52EEF0DF030EF0DF028EF0DF0A0
:101A6000DACE05F01F0E0516D8A439EF0DF03BEFC6
:101A70000DF028EF0DF012000E01D8B542EF0DF079
:101A800044EF0DF03CEF0DF0DACE01F01F0E011621
:101A9000D8A44DEF0DF04FEF0DF03CEF0DF012001C
:101AA000056E3B0E576457EF0DF059EF0DF05BEFED
:101AB0000DF0000E576E5750600FD96EDA6A05C0F0
:101AC000DFFF572A1200016E130E59646AEF0DF002
:101AD0006CEF0DF06EEF0DF0000E596E59503D0F8A
:101AE000D96EDA6A01C0DFFF592A12003B0E566434
:101AF0007CEF0DF07EEF0DF080EF0DF0000E566ED6
:101B0000562A5604016E0150600FD96EDA6ADF5012
:101B10001200056E0550D8B490EF0DF092EF0DF065
:101B200097EF0DF07F807D8E79869AEF0DF07F9094
:101B30007D9E79961200086EFEEC0DF0520EE8ECD8
:101B40000DF008508009E8EC0DF00750E8EC0DF0BE
:101B5000F9EC0DF01200120E0E01626F110E156FEE
:101B6000E997E895330EE56F000EE66FE789E88B9D
:101B7000E78F1200C7EC0DF00009D8B4C2EF0DF0EA
:101B8000C4EF0DF0C6EF0DF00E012D85120056507A
:101B90005718D8A4CEEF0DF0D1EF0DF0010ED2EF13
:101BA0000DF0000E120056505718D8A4DAEF0DF0C1
:101BB000DDEF0DF0010EDEEF0DF0000E1200828061
:101BC0000E019A9129811F812D87F28CF28E1200CD
:101BD000066E28EC0DF006C0D5FE1200026E3CEC3D
:101BE0000DF002C0D5FE120028EC0DF00E01DA83D4
:101BF000120028EC0DF00E01DA85120028EC0DF031
:101C00000E01DA8112003CEC0DF00E01DA851200B3
:0C1C10003CEC0DF00E01DA811200120015
:020000040030CA
:02000000AAFF55
:020004009FFF5C
:00000001FF
