:04000000EEEF0DF022
:100E000000001350D96EDA6A010ED926DF6A145039
:100E1000D96EDA6A010ED926DF6A000E1E6E010E47
:100E20001D6E55EF07F01350D96EDA6A1350E16E5C
:100E3000E26A090EE126E7501D24DF6E1450D96ED8
:100E4000DA6A1450E16EE26A090EE126E7501D24C9
:100E5000DF6E13C00EF02DEC0BF014C00EF02DEC75
:100E60000BF0000E1C6E000E1B6E41EF07F0680EBB
:100E7000186EE40EE82EFED7182EFCD700D01B4AC1
:100E80001C2A1750186E196A18501B5C1C50800AD7
:100E90001A6E1950800A1A58D8A051EF07F053EF74
:100EA00007F037EF07F01D4A1E2A1550186E196A11
:100EB0001D50185C1950800A1A6E1E50800A1A586C
:100EC000D8B065EF07F067EF07F013EF07F0000EFB
:100ED0001C6E000E1B6E77EF07F0680E186EE40EA6
:100EE000E82EFED7182EFCD700D01B4A1C2A16501D
:100EF000186E196A18501B5C1C50800A1A6E195023
:100F0000800A1A58D8A087EF07F089EF07F06DEF35
:100F100007F015C01DF01E6A1EBE93EF07F091EF9B
:100F200007F095EF07F0DAEF07F01350D96EDA6AA1
:100F30001350E16EE26A090EE126E7501D24DF6ED0
:100F40001450D96EDA6A1450E16EE26A090EE12695
:100F5000E7501D24DF6E13C00EF02DEC0BF014C013
:100F60000EF02DEC0BF0000E1C6E000E1B6EC3EF8E
:100F700007F0680E186EE40EE82EFED7182EFCD788
:100F800000D01B4A1C2A1750186E196A18501B5C97
:100F90001C50800A1A6E1950800A1A58D8A0D3EF34
:100FA00007F0D5EF07F0B9EF07F01D06D8A01E0631
:100FB0008CEF07F01350D96EDA6ADF6A1450D96EDD
:100FC000DA6ADF6A1200000E026EC70E016E19ECBB
:100FD0000DF0000E386E010E396E010E3A6EAA0E3B
:100FE0003D6E0F0E3E6EA60E3F6E0F0E406E000E53
:100FF0003C6EC70E3B6E030E416E000E2E6E010E50
:101000002F6E010E306E250E336E0F0E346E210ED4
:10101000356E0F0E366E000E326EC70E316E000E3C
:10102000376E3C0E296E020E2A6E0A0E286E150EC1
:101030002B6E0A0E2D6E040E2C6E7C9E849E809666
:10104000889686840E01B4958686B4979BEC0DF045
:101050008EB42DEF08F02FEF08F028EF08F08096FF
:101060007C9E290E276E960E266E7F0EE82EFED7EA
:10107000262EFCD7272EFAD70000380E1F6E2E0E14
:10108000206E150E216E2D0E226E040E236E75EC51
:101090000AF0380E136E2E0E146E2BC015F02DC0F4
:1010A00016F02CC017F09AEC09F0050E276E0F0E03
:1010B000266EF10EE82EFED7262EFCD7272EFAD765
:1010C0000000380E136E2E0E146E2BC015F02DC0BE
:1010D00016F02CC017F0BFEC08F0050E276E0F0EAF
:1010E000266EF10EE82EFED7262EFCD7272EFAD735
:1010F0000000380E136E2E0E146E29C015F02AC093
:1011000016F04EEC0CF0050E276E0F0E266EF10E4B
:10111000E82EFED7262EFCD7272EFAD70000380E51
:10112000136E2E0E146E2AC015F0D7EC0BF0050EC0
:10113000276E0F0E266EF10EE82EFED7262EFCD758
:10114000272EFAD70000380E136E2E0E146E29C00B
:1011500015F028C016F02AC017F001EC07F0050EB4
:10116000276E0F0E266EF10EE82EFED7262EFCD728
:10117000272EFAD7000049EF08F000EF00F01350D7
:10118000D96EDA6A010ED926010EDF6E1450D96EBF
:10119000DA6A010ED926DF6A000E1E6E010E1D6E80
:1011A00014EF09F01350D96EDA6A1350E16EE26A57
:1011B000090EE126E7501D24DF6E1450D96EDA6A5D
:1011C0001450E16EE26A090EE126E7501D24DF6E3D
:1011D00013C00EF02DEC0BF014C00EF02DEC0BF044
:1011E000000E1C6E000E1B6E00EF09F0680E186EEC
:1011F000E40EE82EFED7182EFCD700D01B4A1C2A7E
:101200001750186E196A18501B5C1C50800A1A6E11
:101210001950800A1A58D8A010EF09F012EF09F0FF
:10122000F6EF08F01D4A1E2A1550186E196A1D5057
:10123000185C1950800A1A6E1E50800A1A58D8B0CD
:1012400024EF09F026EF09F0D2EF08F0000E1C6E33
:10125000000E1B6E36EF09F0680E186EE40EE82ED5
:10126000FED7182EFCD700D01B4A1C2A1650186E29
:10127000196A18501B5C1C50800A1A6E1950800A9B
:101280001A58D8A046EF09F048EF09F02CEF09F002
:1012900015C01DF01E6A1EBE52EF09F050EF09F096
:1012A00054EF09F099EF09F01350D96EDA6A135030
:1012B000E16EE26A090EE126E7501D24DF6E14504C
:1012C000D96EDA6A1450E16EE26A090EE126E7503F
:1012D0001D24DF6E13C00EF02DEC0BF014C00EF0C9
:1012E0002DEC0BF0000E1C6E000E1B6E82EF09F051
:1012F000680E186EE40EE82EFED7182EFCD700D02C
:101300001B4A1C2A1750186E196A18501B5C1C5077
:10131000800A1A6E1950800A1A58D8A092EF09F064
:1013200094EF09F078EF09F01D06D8A01E064BEFE8
:1013300009F012001350D96EDA6A010ED926DF6A5D
:101340001450D96EDA6A010ED926010EDF6E000E36
:101350001E6E010E1D6EEFEF09F01350D96EDA6AA2
:101360001350E16EE26A090EE126E7501D24DF6E9C
:101370001450D96EDA6A1450E16EE26A090EE12661
:10138000E7501D24DF6E13C00EF02DEC0BF014C0DF
:101390000EF02DEC0BF0000E1C6E000E1B6EDBEF42
:1013A00009F0680E186EE40EE82EFED7182EFCD752
:1013B00000D01B4A1C2A1750186E196A18501B5C63
:1013C0001C50800A1A6E1950800A1A58D8A0EBEFE8
:1013D00009F0EDEF09F0D1EF09F01D4A1E2A155072
:1013E000186E196A1D50185C1950800A1A6E1E502A
:1013F000800A1A58D8B0FFEF09F001EF0AF0ADEFFC
:1014000009F0000E1C6E000E1B6E11EF0AF0680E44
:10141000186EE40EE82EFED7182EFCD700D01B4A1B
:101420001C2A1650186E196A18501B5C1C50800A32
:101430001A6E1950800A1A58D8A021EF0AF023EF2B
:101440000AF007EF0AF015C01DF01E6A1EBE2DEF50
:101450000AF02BEF0AF02FEF0AF074EF0AF01350A6
:10146000D96EDA6A1350E16EE26A090EE126E7509E
:101470001D24DF6E1450D96EDA6A1450E16EE26AF0
:10148000090EE126E7501D24DF6E13C00EF02DEC8F
:101490000BF014C00EF02DEC0BF0000E1C6E000EC5
:1014A0001B6E5DEF0AF0680E186EE40EE82EFED794
:1014B000182EFCD700D01B4A1C2A1750186E196A28
:1014C00018501B5C1C50800A1A6E1950800A1A585A
:1014D000D8A06DEF0AF06FEF0AF053EF0AF01D0687
:1014E000D8A01E0626EF0AF012001FC013F020C07D
:1014F00014F021C015F02250D96EDA6ADF50166E52
:1015000023C017F09AEC09F0050E256E0F0E246E1D
:10151000F10EE82EFED7242EFCD7252EFAD7000098
:101520001FC013F020C014F021C015F02250D96E56
:10153000DA6ADF50166E23C017F09AEC09F0050E38
:10154000256E0F0E246EF10EE82EFED7242EFCD74A
:10155000252EFAD700001FC013F020C014F021C0C0
:1015600015F02250D96EDA6ADF50166E23C017F0DC
:10157000BFEC08F0050E256E0F0E246EF10EE82E5E
:10158000FED7242EFCD7252EFAD700001FC013F05B
:1015900020C014F021C015F02250D96EDA6ADF5055
:1015A000166E23C017F0BFEC08F08EA4DAEF0AF035
:1015B000DCEF0AF0E3EF0AF08EB6E1EF0AF0E3EFBA
:1015C0000AF0D5EF0AF08EB4E8EF0AF0EAEF0AF07D
:1015D000F9EF0AF02250D96EDA6ADF50D8B4F3EF8F
:1015E0000AF0F5EF0AF0F9EF0AF022067C8E02EF1E
:1015F0000BF08EB6FEEF0AF000EF0BF002EF0BF0EF
:10160000222A8086290E256E960E246E7F0EE82EE5
:10161000FED7242EFCD7252EFAD700008EB613EF66
:101620000BF015EF0BF018EF0BF022061CEF0BF090
:1016300080967C9E75EF0AF080867C8E090E256E62
:101640001E0E246EE40EE82EFED7242EFCD7252E87
:10165000FAD700D080967C9E12000E50D96EDA6ABE
:10166000020ED926DF50D8B438EF0BF03AEF0BF06A
:101670006AEF0BF00E50D96EDA6ADF500F6E0F5022
:10168000016E026A0E50D96EDA6A030ED926DECFD9
:1016900003F0DDCF04F0C2EC0DF001C007F002C092
:1016A00008F0000E0A6E640E096E61EC0DF00E502B
:1016B000D96EDA6A030ED926DF50106E0750105C1F
:1016C000116E0E50D96EDA6A030ED926DF50126EF3
:1016D0008BEF0BF0000E116E0E50D96EDA6ADF50F0
:1016E0000F6E0F50016E026A0E50D96EDA6A030E49
:1016F000D926DECF03F0DDCF04F0C2EC0DF001C03F
:1017000007F002C008F0000E0A6E640E096E61EC6C
:101710000DF00750126E0E50D96EDA6A010ED926FE
:10172000DF50D8B496EF0BF098EF0BF0B8EF0BF05A
:101730000E50D96EDA6A050ED926DECF0FF0DDCF56
:1017400010F00FC0D9FF10C0DAFF11C0DFFF0E503C
:10175000D96EDA6A070ED926DECF0FF0DDCF10F092
:101760000FC0D9FF10C0DAFF12C0DFFFD6EF0BF0B9
:101770000E50D96EDA6A050ED926DECF0FF0DDCF16
:1017800010F00FC0D9FF10C0DAFF12C0DFFF0E50FB
:10179000D96EDA6A070ED926DECF0FF0DDCF10F052
:1017A0000FC0D9FF10C0DAFF11C0DFFF12001350C5
:1017B000D96EDA6A010ED926010EDF6E1450D96E89
:1017C000DA6A010ED926010EDF6E1350D96EDA6A7D
:1017D000DF50166E1350D96EDA6A090ED926DF5023
:1017E000176E1750165C1B6E1C6AD8A01C061CBE18
:1017F000FEEF0BF0FCEF0BF000EF0CF045EF0CF000
:101800001350D96EDA6A1350E16EE26A090EE126CE
:10181000E7501B24DF6E1450D96EDA6A1450E16E63
:10182000E26A090EE126E7501B24DF6E13C00EF0BA
:101830002DEC0BF014C00EF02DEC0BF0000E1A6E18
:10184000000E196E2EEF0CF0680E166EE40EE82EE8
:10185000FED7162EFCD700D0194A1A2A1550166E3C
:10186000176A1650195C1A50800A186E1750800AB1
:101870001858D8A03EEF0CF040EF0CF024EF0CF01D
:101880001B06D8A01C06F7EF0BF01350D96EDA6ACE
:10189000DF6A1450D96EDA6ADF6A12001350D96E0B
:1018A000DA6A010ED926010EDF6E1450D96EDA6A9B
:1018B000010ED926010EDF6E000E1D6E010E1C6E8C
:1018C000A4EF0CF01350D96EDA6A1350E16EE26A9D
:1018D000090EE126E7501C24DF6E1450D96EDA6A37
:1018E0001450E16EE26A090EE126E7501C24DF6E17
:1018F00013C00EF02DEC0BF014C00EF02DEC0BF01D
:10190000000E1B6E000E1A6E90EF0CF0680E176E34
:10191000E40EE82EFED7172EFCD700D01A4A1B2A59
:101920001650176E186A17501A5C1B50800A196EF1
:101930001850800A1958D8A0A0EF0CF0A2EF0CF0B4
:1019400086EF0CF01C4A1D2A1550176E186A1C50A1
:10195000175C1850800A196E1D50800A1958D8B0AB
:10196000B4EF0CF0B6EF0CF062EF0CF01200000ECA
:10197000066E04BEC0EF0CF0BEEF0CF0C6EF0CF02C
:10198000036C041ED8B0042A010E066E02BECDEF11
:101990000CF0CBEF0CF0D3EF0CF0016C021ED8B0C2
:1019A000022A010E061A000E086E000E076E035082
:1019B0000410D8B4DEEF0CF0E0EF0CF008EF0DF0FF
:1019C000010E056EE8EF0CF0D89003360436052AB8
:1019D00004AEEDEF0CF0EFEF0CF0E4EF0CF0D8906C
:1019E000073608360350015C04500258D8A0FBEFBC
:1019F0000CF0FDEF0CF002EF0DF00350015E04500F
:101A0000025A0780D89004320332052EEFEF0CF013
:101A10000650D8B40EEF0DF010EF0DF014EF0DF0EE
:101A2000076C081ED8B0082A07C001F008C002F0F1
:101A300012007D9485947D9885987B9E839E7F9CE3
:101A4000879C050E0E01746F060E766F070E696F88
:101A5000080E886FBD508F0B3009BD6EE00EBE16AC
:101A6000BF50F00B0109BF6E01C0BCFFBD8E000E60
:101A7000AA6E000EA66E000E0F01256F000E216FDC
:101A8000FC0EAD16F30EAD16CF0EAD163F0EAD1615
:101A9000AB88AB50F00B0C09AB6EAB8EA788A75090
:101AA000F00B0C09A76EA78E26892651F00B0C09A6
:101AB000266F268F22892251F00B0C09226F228F6C
:101AC0001200000E0C6E000E0B6E09500A10D8B4F6
:101AD0006CEF0DF06EEF0DF096EF0DF0010E0D6E48
:101AE00076EF0DF0D89009360A360D2A0AAE7BEF54
:101AF0000DF07DEF0DF072EF0DF0D8900B360C3637
:101B00000950075C0A500858D8A089EF0DF08BEFF8
:101B10000DF090EF0DF00950075E0A50085A0B8047
:101B2000D8900A3209320D2E7DEF0DF00BC007F070
:101B30000CC008F01200D5EC0DF0E2EC0DF0096ECF
:101B400009C001F0026A000E046E180E036EB7ECB5
:101B50000CF001500A6E0AA2B0EF0DF0B2EF0DF0DA
:101B6000B5EF0DF07C8EB6EF0DF07C9E0AA0BBEFBA
:101B70000DF0BDEF0DF0C0EF0DF08086C1EF0DF060
:101B80008096120001500302F3CF05F0F4CF06F067
:101B900001500402F350062602500302F3500626B9
:101BA00005C001F006C002F01200868C0E01B48D53
:101BB0000F015899FC0E58172E0E5F6F60946088C5
:101BC000608E1200608060B0E8EF0DF0EAEF0DF07B
:101BD000E3EF0DF064CF01F0015012000001E3EFDC
:021BE00007F00C
:020000040030CA
:02000000AAFF55
:020004009FFF5C
:00000001FF
