:040000004CEF00F0D1
:100008004B82D9CF0AF0DACF0BF00E0133A10FEFF4
:1000180000F011EF00F018EF00F0010E0101FB6F86
:1000280040EC1BF00E01339133AB1DEF00F01FEFD6
:1000380000F024EF00F0010E0101FA6F0E01339B6E
:1000480037A729EF00F02BEF00F02EEF00F0E35177
:1000580006EC1DF00E0137A534EF00F036EF00F086
:1000680046EF00F019EC1DF00E01E46F96EC1DF060
:100078000009D8A442EF00F044EF00F046EF00F08A
:100088000E012D950BC0DAFF0AC0D9FF4B92110063
:04009800B7EF1BF0B3
:100E000000002DC01FF02EC020F02FC021F030C0F8
:100E100022F039C023F03AC024F03BC025F098EC12
:100E200016F0050E3D6E0F0E3C6EF10EE82EFED74D
:100E30003C2EFCD73D2EFAD700002DC01FF02EC04F
:100E400020F02FC021F030C022F039C023F03AC08A
:100E500024F03BC025F098EC16F0050E3D6E0F0E09
:100E60003C6EF10EE82EFED73C2EFCD73D2EFAD775
:100E700000002DC01FF02EC020F02FC021F030C088
:100E800022F039C023F03AC024F03BC025F098ECA2
:100E900016F0050E3D6E0F0E3C6EF10EE82EFED7DD
:100EA0003C2EFCD73D2EFAD700002DC01FF02EC0DF
:100EB00020F02FC021F030C022F039C023F03AC01A
:100EC00024F03BC025F098EC16F0050E3D6E0F0E99
:100ED0003C6EF10EE82EFED73C2EFCD73D2EFAD705
:100EE00000002DC01FF02EC020F02FC021F030C018
:100EF00022F036C023F038C024F0E7EC19F0B9EC4A
:100F00001DF03550020DF3CF3CF0F4CF3DF03C50D6
:100F10003324D96E3D503420DA6EB7EC1CF0DE502D
:100F20000C5CDE500D58D8A098EF07F09AEF07F050
:100F300081EF07F02DC01FF02EC020F02FC021F050
:100F400030C022F038C023F063EC19F035C040F017
:100F500056EF0AF0400640503124D96E000E322080
:100F6000DA6EDE04D8A4B7EF07F0B9EF07F0F3EFBD
:100F700007F02DC01FF02EC020F02FC021F030C090
:100F800022F039C023F03AC024F03BC025F098ECA1
:100F900016F0050E3D6E0F0E3C6EF10EE82EFED7DC
:100FA0003C2EFCD73D2EFAD700002DC01FF02EC0DE
:100FB00020F02FC021F030C022F039C023F03AC019
:100FC00024F03BC025F098EC16F0050E3D6E0F0E98
:100FD0003C6EF10EE82EFED73C2EFCD73D2EFAD704
:100FE000000021EF0AF040503124D96E000E32206B
:100FF000DA6E020EDE18D8A400EF08F002EF08F057
:101000003CEF08F02DC01FF02EC020F02FC021F0C3
:1010100030C022F039C023F03AC024F03BC025F0A4
:10102000AEEC15F0050E3D6E0F0E3C6EF10EE82E87
:10103000FED73C2EFCD73D2EFAD700002DC01FF066
:101040002EC020F02FC021F030C022F039C023F094
:101050003AC024F03BC025F0AEEC15F0050E3D6E15
:101060000F0E3C6EF10EE82EFED73C2EFCD73D2E27
:10107000FAD7000021EF0AF040503124D96E000E5B
:101080003220DA6E030EDE18D8A449EF08F04BEFD9
:1010900008F0BDEF08F02DC01FF02EC020F02FC0CB
:1010A00021F030C022F039C023F03AC024F03BC018
:1010B00025F098EC16F0050E3D6E0F0E3C6EF10E0D
:1010C000E82EFED73C2EFCD73D2EFAD700002DC0CF
:1010D0001FF02EC020F02FC021F030C022F039C008
:1010E00023F03AC024F03BC025F098EC16F0050E32
:1010F0003D6E0F0E3C6EF10EE82EFED73C2EFCD757
:101100003D2EFAD700002DC01FF02EC020F02FC0BA
:1011100021F030C022F039C023F03AC024F03BC0A7
:1011200025F098EC16F0050E3D6E0F0E3C6EF10E9C
:10113000E82EFED73C2EFCD73D2EFAD700002DC05E
:101140001FF02EC020F02FC021F030C022F039C097
:1011500023F03AC024F03BC025F098EC16F0050EC1
:101160003D6E0F0E3C6EF10EE82EFED73C2EFCD7E6
:101170003D2EFAD7000021EF0AF040503124D96EFD
:10118000000E3220DA6E040EDE18D8A4CAEF08F082
:10119000CCEF08F016EF09F02DC01FF02EC020F0A4
:1011A0002FC021F030C022F039C023F03AC024F023
:1011B0003BC025F098EC16F0050E3D6E0F0E3C6E10
:1011C000F10EE82EFED73C2EFCD73D2EFAD70000BC
:1011D0002DC01FF02EC020F02FC021F030C022F013
:1011E00039C023F03AC024F03BC025F098EC16F04B
:1011F000050E3D6E0F0E3C6EF10EE82EFED73C2E16
:10120000FCD73D2EFAD700002DC01FF02EC020F0D5
:101210002FC021F030C022F036C023F037C024F0B8
:1012200038C025F0BBEC14F0AFEF08F0405031248B
:10123000D96E000E3220DA6E050EDE18D8A423EF28
:1012400009F025EF09F06FEF09F02DC01FF02EC057
:1012500020F02FC021F030C022F039C023F03AC076
:1012600024F03BC025F0AEEC15F0050E3D6E0F0EE0
:101270003C6EF10EE82EFED73C2EFCD73D2EFAD761
:1012800000002DC01FF02EC020F02FC021F030C074
:1012900022F039C023F03AC024F03BC025F0AEEC78
:1012A00015F0050E3D6E0F0E3C6EF10EE82EFED7CA
:1012B0003C2EFCD73D2EFAD700002DC01FF02EC0CB
:1012C00020F02FC021F030C022F036C023F037C00C
:1012D00024F038C025F0BBEC14F0AFEF08F040501C
:1012E0003124D96E000E3220DA6E060EDE18D8A434
:1012F0007CEF09F07EEF09F0C8EF09F02DC01FF078
:101300002EC020F02FC021F030C022F039C023F0D1
:101310003AC024F03BC025F098EC16F0050E3D6E67
:101320000F0E3C6EF10EE82EFED73C2EFCD73D2E64
:10133000FAD700002DC01FF02EC020F02FC021F0E2
:1013400030C022F039C023F03AC024F03BC025F071
:1013500098EC16F0050E3D6E0F0E3C6EF10EE82E69
:10136000FED73C2EFCD73D2EFAD700002DC01FF033
:101370002EC020F02FC021F030C022F039C023F061
:101380003AC024F03BC025F098EC16F0AFEF08F01F
:1013900040503124D96E000E3220DA6E070EDE186E
:1013A000D8A4D5EF09F0D7EF09F021EF0AF02DC04E
:1013B0001FF02EC020F02FC021F030C022F039C025
:1013C00023F03AC024F03BC025F0AEEC15F0050E3A
:1013D0003D6E0F0E3C6EF10EE82EFED73C2EFCD774
:1013E0003D2EFAD700002DC01FF02EC020F02FC0D8
:1013F00021F030C022F039C023F03AC024F03BC0C5
:1014000025F0AEEC15F0050E3D6E0F0E3C6EF10EA4
:10141000E82EFED73C2EFCD73D2EFAD700002DC07B
:101420001FF02EC020F02FC021F030C022F039C0B4
:1014300023F03AC024F03BC025F0AEEC15F0AFEF3E
:1014400008F02DC01FF02EC020F02FC021F030C0BA
:1014500022F036C023F038C024F0E7EC19F0B9ECE4
:101460001DF04050020DF3CF3CF0F4CF3DF03C5066
:101470003324D96E3D503420DA6EB7EC1CF0DE50C8
:101480000C5CDE500D58D8A048EF0AF04AEF0AF085
:1014900031EF0AF02DC01FF02EC020F02FC021F038
:1014A00030C022F038C023F063EC19F04050D8A4CB
:1014B0005CEF0AF05EEF0AF0AAEF07F012002DC011
:1014C0001FF02EC020F02FC021F030C022F039C014
:1014D00023F03AC024F03BC025F098EC16F0050E3E
:1014E0003D6E0F0E3C6EF10EE82EFED73C2EFCD763
:1014F0003D2EFAD700002DC01FF02EC020F02FC0C7
:1015000021F030C022F039C023F03AC024F03BC0B3
:1015100025F098EC16F0050E3D6E0F0E3C6EF10EA8
:10152000E82EFED73C2EFCD73D2EFAD700002DC06A
:101530001FF02EC020F02FC021F030C022F039C0A3
:1015400023F03AC024F03BC025F098EC16F0050ECD
:101550003D6E0F0E3C6EF10EE82EFED73C2EFCD7F2
:101560003D2EFAD700002DC01FF02EC020F02FC056
:1015700021F030C022F039C023F03AC024F03BC043
:1015800025F098EC16F0050E3D6E0F0E3C6EF10E38
:10159000E82EFED73C2EFCD73D2EFAD700002DC0FA
:1015A0001FF02EC020F02FC021F030C022F036C036
:1015B00023F038C024F0E7EC19F0B9EC1DF0000E70
:1015C0000101FA6FFA51D8B4E8EF0AF0EAEF0AF035
:1015D000E2EF0AF02DC01FF02EC020F02FC021F046
:1015E00030C022F038C023F063EC19F035C040F071
:1015F000A6EF0DF0400640503124D96E000E322087
:10160000DA6EDE04D8A407EF0BF009EF0BF043EF1E
:101610000BF02DC01FF02EC020F02FC021F030C0E5
:1016200022F039C023F03AC024F03BC025F098ECFA
:1016300016F0050E3D6E0F0E3C6EF10EE82EFED735
:101640003C2EFCD73D2EFAD700002DC01FF02EC037
:1016500020F02FC021F030C022F039C023F03AC072
:1016600024F03BC025F098EC16F0050E3D6E0F0EF1
:101670003C6EF10EE82EFED73C2EFCD73D2EFAD75D
:10168000000071EF0DF040503124D96E000E322071
:10169000DA6E020EDE18D8A450EF0BF052EF0BF00A
:1016A0008CEF0BF02DC01FF02EC020F02FC021F0CA
:1016B00030C022F039C023F03AC024F03BC025F0FE
:1016C000AEEC15F0050E3D6E0F0E3C6EF10EE82EE1
:1016D000FED73C2EFCD73D2EFAD700002DC01FF0C0
:1016E0002EC020F02FC021F030C022F039C023F0EE
:1016F0003AC024F03BC025F0AEEC15F0050E3D6E6F
:101700000F0E3C6EF10EE82EFED73C2EFCD73D2E80
:10171000FAD7000071EF0DF040503124D96E000E61
:101720003220DA6E030EDE18D8A499EF0BF09BEF8F
:101730000BF00DEF0CF02DC01FF02EC020F02FC0CD
:1017400021F030C022F039C023F03AC024F03BC071
:1017500025F098EC16F0050E3D6E0F0E3C6EF10E66
:10176000E82EFED73C2EFCD73D2EFAD700002DC028
:101770001FF02EC020F02FC021F030C022F039C061
:1017800023F03AC024F03BC025F098EC16F0050E8B
:101790003D6E0F0E3C6EF10EE82EFED73C2EFCD7B0
:1017A0003D2EFAD700002DC01FF02EC020F02FC014
:1017B00021F030C022F039C023F03AC024F03BC001
:1017C00025F098EC16F0050E3D6E0F0E3C6EF10EF6
:1017D000E82EFED73C2EFCD73D2EFAD700002DC0B8
:1017E0001FF02EC020F02FC021F030C022F039C0F1
:1017F00023F03AC024F03BC025F098EC16F0050E1B
:101800003D6E0F0E3C6EF10EE82EFED73C2EFCD73F
:101810003D2EFAD7000071EF0DF040503124D96E03
:10182000000E3220DA6E040EDE18D8A41AEF0CF087
:101830001CEF0CF066EF0CF02DC01FF02EC020F056
:101840002FC021F030C022F039C023F03AC024F07C
:101850003BC025F098EC16F0050E3D6E0F0E3C6E69
:10186000F10EE82EFED73C2EFCD73D2EFAD7000015
:101870002DC01FF02EC020F02FC021F030C022F06C
:1018800039C023F03AC024F03BC025F098EC16F0A4
:10189000050E3D6E0F0E3C6EF10EE82EFED73C2E6F
:1018A000FCD73D2EFAD700002DC01FF02EC020F02F
:1018B0002FC021F030C022F036C023F037C024F012
:1018C00038C025F0BBEC14F0FFEF0BF04050312492
:1018D000D96E000E3220DA6E050EDE18D8A473EF32
:1018E0000CF075EF0CF0BFEF0CF02DC01FF02EC008
:1018F00020F02FC021F030C022F039C023F03AC0D0
:1019000024F03BC025F0AEEC15F0050E3D6E0F0E39
:101910003C6EF10EE82EFED73C2EFCD73D2EFAD7BA
:1019200000002DC01FF02EC020F02FC021F030C0CD
:1019300022F039C023F03AC024F03BC025F0AEECD1
:1019400015F0050E3D6E0F0E3C6EF10EE82EFED723
:101950003C2EFCD73D2EFAD700002DC01FF02EC024
:1019600020F02FC021F030C022F036C023F037C065
:1019700024F038C025F0BBEC14F0FFEF0BF0405022
:101980003124D96E000E3220DA6E060EDE18D8A48D
:10199000CCEF0CF0CEEF0CF018EF0DF02DC01FF0D7
:1019A0002EC020F02FC021F030C022F039C023F02B
:1019B0003AC024F03BC025F098EC16F0050E3D6EC1
:1019C0000F0E3C6EF10EE82EFED73C2EFCD73D2EBE
:1019D000FAD700002DC01FF02EC020F02FC021F03C
:1019E00030C022F039C023F03AC024F03BC025F0CB
:1019F00098EC16F0050E3D6E0F0E3C6EF10EE82EC3
:101A0000FED73C2EFCD73D2EFAD700002DC01FF08C
:101A10002EC020F02FC021F030C022F039C023F0BA
:101A20003AC024F03BC025F098EC16F0FFEF0BF025
:101A300040503124D96E000E3220DA6E070EDE18C7
:101A4000D8A425EF0DF027EF0DF071EF0DF02DC0AC
:101A50001FF02EC020F02FC021F030C022F039C07E
:101A600023F03AC024F03BC025F0AEEC15F0050E93
:101A70003D6E0F0E3C6EF10EE82EFED73C2EFCD7CD
:101A80003D2EFAD700002DC01FF02EC020F02FC031
:101A900021F030C022F039C023F03AC024F03BC01E
:101AA00025F0AEEC15F0050E3D6E0F0E3C6EF10EFE
:101AB000E82EFED73C2EFCD73D2EFAD700002DC0D5
:101AC0001FF02EC020F02FC021F030C022F039C00E
:101AD00023F03AC024F03BC025F0AEEC15F0FFEF48
:101AE0000BF02DC01FF02EC020F02FC021F030C011
:101AF00022F036C023F038C024F0E7EC19F0B9EC3E
:101B00001DF04050020DF3CF3CF0F4CF3DF03C50BF
:101B10003324D96E3D503420DA6EB7EC1CF0DE5021
:101B20000C5CDE500D58D8A098EF0DF09AEF0DF038
:101B300081EF0DF02DC01FF02EC020F02FC021F03E
:101B400030C022F038C023F063EC19F04050D8A424
:101B5000ACEF0DF0AEEF0DF0FAEF0AF0120000015D
:101B6000DC05D8A4B6EF0DF0B8EF0DF000EF0EF0E5
:101B7000D8C01FF0D9C020F0DAC021F0DBC022F0BD
:101B8000E5C023F0E6C024F0E7C025F0AEEC15F088
:101B9000050E426E0F0E416EF10EE82EFED7412E5D
:101BA000FCD7422EFAD70000D8C01FF0D9C020F0D1
:101BB000DAC021F0DBC022F0E5C023F0E6C024F05B
:101BC000E7C025F0AEEC15F0050E426E0F0E416E2B
:101BD000F10EE82EFED7412EFCD7422EFAD7000098
:101BE000D8C01FF0D9C020F0DAC021F0DBC022F04D
:101BF000E2C023F0E4C024F0E7EC19F0D9EF10F0D4
:101C0000020EDC19D8A407EF0EF009EF0EF051EF29
:101C10000EF0D8C01FF0D9C020F0DAC021F0DBC030
:101C200022F0E5C023F0E6C024F0E7C025F098ECF0
:101C300016F0050E426E0F0E416EF10EE82EFED725
:101C4000412EFCD7422EFAD70000D8C01FF0D9C0D1
:101C500020F0DAC021F0DBC022F0E5C023F0E6C0BE
:101C600024F0E7C025F098EC16F0050E426E0F0E3A
:101C7000416EF10EE82EFED7412EFCD7422EFAD748
:101C80000000D8C01FF0D9C020F0DAC021F0DBC0BE
:101C900022F0E2C023F0E4C024F0E7EC19F0D9EF21
:101CA00010F0030EDC19D8A458EF0EF05AEF0EF026
:101CB000DAEF0EF0D8C01FF0D9C020F0DAC021F062
:101CC000DBC022F0E5C023F0E6C024F0E7C025F039
:101CD00098EC16F0050E426E0F0E416EF10EE82ED6
:101CE000FED7412EFCD7422EFAD70000D8C01FF0F5
:101CF000D9C020F0DAC021F0DBC022F0E5C023F02B
:101D0000E6C024F0E7C025F098EC16F0050E426E10
:101D10000F0E416EF10EE82EFED7412EFCD7422E5B
:101D2000FAD70000D8C01FF0D9C020F0DAC021F0E7
:101D3000DBC022F0E5C023F0E6C024F0E7C025F0C8
:101D400098EC16F0050E426E0F0E416EF10EE82E65
:101D5000FED7412EFCD7422EFAD70000D8C01FF084
:101D6000D9C020F0DAC021F0DBC022F0E5C023F0BA
:101D7000E6C024F0E7C025F098EC16F0050E426EA0
:101D80000F0E416EF10EE82EFED7412EFCD7422EEB
:101D9000FAD70000D8C01FF0D9C020F0DAC021F077
:101DA000DBC022F0E2C023F0E4C024F0E7EC19F03D
:101DB000D9EF10F0040EDC19D8A4E1EF0EF0E3EF38
:101DC0000EF047EF0FF0D8C01FF0D9C020F0DAC0F6
:101DD00021F0DBC022F0E2C023F0E3C024F0E4C035
:101DE00025F0BBEC14F0050E426E0F0E416EF10EA5
:101DF000E82EFED7412EFCD7422EFAD70000D8C0DD
:101E00001FF0D9C020F0DAC021F0DBC022F0E5C01D
:101E100023F0E6C024F0E7C025F0AEEC15F0050E87
:101E2000426E0F0E416EF10EE82EFED7412EFCD70A
:101E3000422EFAD70000D8C01FF0D9C020F0DAC077
:101E400021F0DBC022F0E5C023F0E6C024F0E7C0BB
:101E500025F0AEEC15F0050E426E0F0E416EF10E40
:101E6000E82EFED7412EFCD7422EFAD70000D8C06C
:101E70001FF0D9C020F0DAC021F0DBC022F0E2C0B0
:101E800023F0E4C024F0E7EC19F0D9EF10F0050ED0
:101E9000DC19D8A44EEF0FF050EF0FF0B4EF0FF0B5
:101EA000D8C01FF0D9C020F0DAC021F0DBC022F08A
:101EB000E2C023F0E3C024F0E4C025F0BBEC14F052
:101EC000050E426E0F0E416EF10EE82EFED7412E2A
:101ED000FCD7422EFAD70000D8C01FF0D9C020F09E
:101EE000DAC021F0DBC022F0E5C023F0E6C024F028
:101EF000E7C025F098EC16F0050E426E0F0E416E0D
:101F0000F10EE82EFED7412EFCD7422EFAD7000064
:101F1000D8C01FF0D9C020F0DAC021F0DBC022F019
:101F2000E5C023F0E6C024F0E7C025F098EC16F0F9
:101F3000050E426E0F0E416EF10EE82EFED7412EB9
:101F4000FCD7422EFAD70000D8C01FF0D9C020F02D
:101F5000DAC021F0DBC022F0E2C023F0E4C024F0BC
:101F6000E7EC19F0D9EF10F0060EDC19D8A4BBEF9E
:101F70000FF0BDEF0FF021EF10F0D8C01FF0D9C067
:101F800020F0DAC021F0DBC022F0E5C023F0E6C08B
:101F900024F0E7C025F0AEEC15F0050E426E0F0EF2
:101FA000416EF10EE82EFED7412EFCD7422EFAD715
:101FB0000000D8C01FF0D9C020F0DAC021F0DBC08B
:101FC00022F0E5C023F0E6C024F0E7C025F0AEEC37
:101FD00015F0050E426E0F0E416EF10EE82EFED783
:101FE000412EFCD7422EFAD70000D8C01FF0D9C02E
:101FF00020F0DAC021F0DBC022F0E5C023F0E6C01B
:1020000024F0E7C025F0AEEC15F0050E426E0F0E81
:10201000416EF10EE82EFED7412EFCD7422EFAD7A4
:102020000000D8C01FF0D9C020F0DAC021F0DBC01A
:1020300022F0E2C023F0E4C024F0E7EC19F0D9EF7D
:1020400010F0070EDC19D8A428EF10F02AEF10F0DA
:102050008EEF10F0D8C01FF0D9C020F0DAC021F008
:10206000DBC022F0E5C023F0E6C024F0E7C025F095
:1020700098EC16F0050E426E0F0E416EF10EE82E32
:10208000FED7412EFCD7422EFAD70000D8C01FF051
:10209000D9C020F0DAC021F0DBC022F0E5C023F087
:1020A000E6C024F0E7C025F098EC16F0050E426E6D
:1020B0000F0E416EF10EE82EFED7412EFCD7422EB8
:1020C000FAD70000D8C01FF0D9C020F0DAC021F044
:1020D000DBC022F0E5C023F0E6C024F0E7C025F025
:1020E00098EC16F0050E426E0F0E416EF10EE82EC2
:1020F000FED7412EFCD7422EFAD70000D8C01FF0E1
:10210000D9C020F0DAC021F0DBC022F0E2C023F019
:10211000E4C024F0E7EC19F0D9EF10F0080EDC1958
:10212000D8A495EF10F097EF10F0B9EF10F0D8C0E9
:102130002DF0D9C02EF0DAC02FF0DBC030F0DDC0BA
:1021400031F0DEC032F0DFC033F0E0C034F0E1C087
:1021500035F0E2C036F0E3C037F0E4C038F0E5C057
:1021600039F0E6C03AF0E7C03BF001EC07F0D9EFF8
:1021700010F0D8C02DF0D9C02EF0DAC02FF0DBC09F
:1021800030F0DDC031F0DEC032F0DFC033F0E0C04F
:1021900034F0E1C035F0E2C036F0E3C037F0E4C01F
:1021A00038F0E5C039F0E6C03AF0E7C03BF001ECAA
:1021B00007F0120021EE00F0270EDE6AE806FDE2CD
:1021C000000E0101B26F21EE7AF0270EDE6AE806FA
:1021D000FDE221EE28F0510EDE6AE806FDE2000E77
:1021E000B46FFCC1A2F1FDC1A3F1FEC1A4F1FFC116
:1021F000A5F187EC1CF06BEC1CF04EEC1DF0A2EC92
:102200001DF06EEC1DF0000E0D6EC70E0C6EBBECDB
:102210001AF0000E0101C86F010EC96F010ECA6FDE
:10222000AA0ECD6F0F0ECE6FA60ECF6F0F0ED06F12
:10223000000ECC6FC70ECB6F030ED16F000EBE6FBA
:10224000010EBF6F010EC06F250EC36F0F0EC46F5E
:10225000210EC56F0F0EC66F000EC26FC70EC16F85
:10226000000EC76F190EAF6F010EB36F0A0EAE6F7F
:10227000140EB06F050EB56F020EB16F23EC1CF09B
:102280008EB445EF11F047EF11F040EF11F080965A
:102290007C9E7C868082290E446E960E436E7F0E55
:1022A000E82EFED7432EFCD7442EFAD70000C80EE6
:1022B0002D6E010E2E6EBE0E2F6E010E306E140EA0
:1022C000316EB50E326E010E336E020E346E77EC47
:1022D00012F0010E2CEC1DF0520E446E2B0E436ECC
:1022E000000EE82EFED7432EFCD7442EFAD700D09E
:1022F000B60E106E010E116EC4EC13F0BCC149F0A5
:10230000BDC14AF0290E446E960E436E7F0EE82E34
:10231000FED7432EFCD7442EFAD70000C80E1F6EFE
:10232000010E206EBE0E216E010E226E190E236E5E
:10233000010E246EE7EC19F0B9EC1DF0000E01015E
:10234000FB6F000EFA6FFB05D8A4A9EF11F0ABEFFD
:1023500011F026EF12F00E01299B29AB02D0298142
:1023600002D00E012991B7EC1CF00101B451020D0D
:10237000280EF324D96E010EF420DA6E0CC0DEFFB5
:102380000DC0DDFFC80E1F6E010E206EBE0E216E49
:10239000010E226EB3C123F063EC19F0B60E106E7D
:1023A000010E116EC4EC13F021EEB6F000EE26F033
:1023B000070EDBCFEBFFE806FCE2A60E2E6E010E49
:1023C0002F6E38EC18F0A20E0101B425D96EDA6A2E
:1023D000010EDA22DF50B26F7A0EB425D96EDA6AB6
:1023E000010EDA22B2C1DFFFC80E0001D86F010E64
:1023F000D96FBE0EDA6F010EDB6FB2C1DCF07A0E60
:10240000DD6F010EDE6F280EDF6F010EE06FB4C1CD
:10241000E1F0AFC1E2F0AEC1E3F0B3C1E4F0B0C1AE
:10242000E5F0B5C1E6F0B1C1E7F0AFEC0DF00101A8
:10243000B42BB9EC1DF00E01298B29AB02D02981F8
:1024400002D00E012991000E0101FB6FFA05D8A4FC
:102450002CEF12F02EEF12F063EF12F00E01299123
:10246000C80E1F6E010E206EBE0E216E010E226E72
:10247000B3C123F063EC19F0C80E2D6E010E2E6E61
:10248000BE0E2F6E010E306E7A0E316E010E326E60
:10249000280E336E010E346EB4C135F0AFC136F084
:1024A000AEC137F0B3C138F0B0C139F0B5C13AF0C0
:1024B000B1C13BF05FEC0AF00E012981000E010171
:1024C000FA6F75EF12F0080EB219D8B46AEF12F075
:1024D0006CEF12F075EF12F0090EB219D8A473EF79
:1024E00012F075EF12F0A3EF11F04CEF00F02DC0D9
:1024F0001FF02EC020F02FC021F030C022F031C0DC
:1025000023F032C0D9FF33C0DAFFDF50246E34C06D
:1025100025F098EC16F0050E366E0F0E356EF10EA6
:10252000E82EFED7352EFCD7362EFAD700002DC068
:102530001FF02EC020F02FC021F030C022F031C09B
:1025400023F032C0D9FF33C0DAFFDF50246E34C02D
:1025500025F098EC16F0050E366E0F0E356EF10E66
:10256000E82EFED7352EFCD7362EFAD700002DC028
:102570001FF02EC020F02FC021F030C022F031C05B
:1025800023F032C0D9FF33C0DAFFDF50246E34C0ED
:1025900025F0AEEC15F0050E366E0F0E356EF10E11
:1025A000E82EFED7352EFCD7362EFAD700002DC0E8
:1025B0001FF02EC020F02FC021F030C022F031C01B
:1025C00023F032C0D9FF33C0DAFFDF50246E34C0AD
:1025D00025F0AEEC15F08EA4F0EF12F0F2EF12F051
:1025E000F9EF12F08EB6F7EF12F0F9EF12F0EBEF11
:1025F00012F08EB4FEEF12F000EF13F014EF13F0B0
:1026000032C0D9FF33C0DAFFDF50D8B40AEF13F07D
:102610000CEF13F014EF13F032C0D9FF33C0DAFF20
:10262000DF067C8E21EF13F08EB619EF13F01BEF4F
:1026300013F021EF13F032C0D9FF33C0DAFFDF2AE5
:102640008086290E366E960E356E7F0EE82EFED7EA
:10265000352EFCD7362EFAD700008EB632EF13F0A7
:1026600034EF13F03BEF13F032C0D9FF33C0DAFF81
:10267000DF06B3EF13F080967C9E2DC01FF02EC0B6
:1026800020F02FC021F030C022F031C023F032C042
:10269000D9FF33C0DAFFDF50246E34C025F098EC48
:1026A00016F0050E366E0F0E356EF10EE82EFED7C3
:1026B000352EFCD7362EFAD700002DC01FF02EC0C5
:1026C00020F02FC021F030C022F031C023F032C002
:1026D000D9FF33C0DAFFDF50246E34C025F098EC08
:1026E00016F0050E366E0F0E356EF10EE82EFED783
:1026F000352EFCD7362EFAD700002DC01FF02EC085
:1027000020F02FC021F030C022F031C023F032C0C1
:10271000D9FF33C0DAFFDF50246E34C025F0AEECB1
:1027200015F0050E366E0F0E356EF10EE82EFED743
:10273000352EFCD7362EFAD700002DC01FF02EC044
:1027400020F02FC021F030C022F031C023F032C081
:10275000D9FF33C0DAFFDF50246E34C025F0AEEC71
:1027600015F0EBEF12F080867C8E090E366E1E0E91
:10277000356EE40EE82EFED7352EFCD7362EFAD76E
:1027800000D080967C9E1200C8EC1DF0520EADEC7D
:102790001DF0B60EADEC1DF0BEEC1DF0530EADEC11
:1027A0001DF0010E4AEC1CF0126E136A10C0D9FF26
:1027B00011C0DAFF12C0DEFF13C0DDFF10C0D9FF69
:1027C00011C0DAFFDECF12F0DDCF13F0000E4AECBD
:1027D0001CF0146E1450166E156A12501510176EF8
:1027E00013501610186E10C0D9FF11C0DAFF17C0B1
:1027F000DEFF18C0DDFFC3EC1DF0C8EC1DF0520E6B
:10280000ADEC1DF0B80EADEC1DF0BEEC1DF0530E9E
:10281000ADEC1DF0010E4AEC1CF0126E136A20EEB6
:1028200002F01050D9261150DA2212C0DEFF13C078
:10283000DDFF20EE02F01050D9261150DA22DECF53
:1028400012F0DDCF13F0000E4AEC1CF0146E1450A1
:10285000166E156A12501510176E13501610186E5A
:1028600020EE02F01050D9261150DA2217C0DEFFF8
:1028700018C0DDFFC3EC1DF0C8EC1DF0520EADEC2E
:102880001DF0BA0EADEC1DF0BEEC1DF0530EADEC1C
:102890001DF0010E4AEC1CF0126E136A20EE04F0DB
:1028A0001050D9261150DA2212C0DEFF13C0DDFF0E
:1028B00020EE04F01050D9261150DA22DECF12F0AB
:1028C000DDCF13F0000E4AEC1CF0146E1450166E9F
:1028D000156A12501510176E13501610186E20EE50
:1028E00004F01050D9261150DA2217C0DEFF18C0AC
:1028F000DDFFC3EC1DF0C8EC1DF0520EADEC1DF079
:10290000B40EADEC1DF0BEEC1DF0530EADEC1DF0A1
:10291000010E4AEC1CF0126E136A20EE06F0105005
:10292000D9261150DA2212C0DEFF13C0DDFF20EEDF
:1029300006F01050D9261150DA22DECF12F0DDCF8A
:1029400013F0000E4AEC1CF0146E1450166E156A4B
:1029500012501510176E13501610186E20EE06F058
:102960001050D9261150DA2217C0DEFF18C0DDFF43
:10297000C3EC1DF0120020EE01F01F50D9262050AC
:10298000DA22DF6A20EE01F02150D9262250DA2225
:10299000DF6A000E2C6E010E2B6E18EF15F020EE84
:1029A00009F01F50D9262050DA22DF502B241FC0F7
:1029B000D9FF20C0DAFFDF6E20EE09F02150D926C2
:1029C0002250DA22DF502B2421C0D9FF22C0DAFFA7
:1029D000DF6E1FC019F020C01AF082EC17F021C082
:1029E00019F022C01AF082EC17F0000E2A6E000EC9
:1029F000296E04EF15F0D00E266ECA0EE82EFED713
:102A0000262EFCD7294A2A2A2550266E276A2650C8
:102A1000295C2A50800A286E2750800A2858D8A09E
:102A200014EF15F016EF15F0FBEF14F02B4A2C2ADB
:102A30002350266E276A2B50265C2750800A286E6A
:102A40002C50800A2858D8B028EF15F02AEF15F03E
:102A5000CFEF14F0000E2A6E000E296E39EF15F03C
:102A6000D00E266ECA0EE82EFED7262EFCD7294A97
:102A70002A2A2450266E276A2650295C2A50800A6A
:102A8000286E2750800A2858D8A049EF15F04BEF40
:102A900015F030EF15F023C02BF02C6A2CBE55EF4B
:102AA00015F053EF15F057EF15F0A3EF15F020EEEA
:102AB00009F01F50D9262050DA22DF502B241FC0E6
:102AC000D9FF20C0DAFFDF6E20EE09F02150D926B1
:102AD0002250DA22DF502B2421C0D9FF22C0DAFF96
:102AE000DF6E1FC019F020C01AF082EC17F021C071
:102AF00019F022C01AF082EC17F0000E2A6E000EB8
:102B0000296E8CEF15F0D00E266ECA0EE82EFED779
:102B1000262EFCD7294A2A2A2550266E276A2650B7
:102B2000295C2A50800A286E2750800A2858D8A08D
:102B30009CEF15F09EEF15F083EF15F02B06D8A053
:102B40002C064EEF15F01FC0D9FF20C0DAFFDF6A58
:102B500021C0D9FF22C0DAFFDF6A120020EE01F0A7
:102B60001F50D9262050DA22010EDF6E20EE01F030
:102B70002150D9262250DA22DF6A000E2C6E010E77
:102B80002B6E0CEF16F020EE09F01F50D9262050C6
:102B9000DA22DF502B241FC0D9FF20C0DAFFDF6EFE
:102BA00020EE09F02150D9262250DA22DF502B24C2
:102BB00021C0D9FF22C0DAFFDF6E1FC019F020C08C
:102BC0001AF082EC17F021C019F022C01AF082EC42
:102BD00017F0000E2A6E000E296EF8EF15F0D00ED9
:102BE000266ECA0EE82EFED7262EFCD7294A2A2AA0
:102BF0002550266E276A2650295C2A50800A286EA6
:102C00002750800A2858D8A008EF16F00AEF16F0CF
:102C1000EFEF15F02B4A2C2A2350266E276A2B50F3
:102C2000265C2750800A286E2C50800A2858D8B07D
:102C30001CEF16F01EEF16F0C3EF15F0000E2A6E13
:102C4000000E296E2DEF16F0D00E266ECA0EE82E5D
:102C5000FED7262EFCD7294A2A2A2450266E276A18
:102C60002650295C2A50800A286E2750800A28584E
:102C7000D8A03DEF16F03FEF16F024EF16F023C07A
:102C80002BF02C6A2CBE49EF16F047EF16F04BEFF5
:102C900016F097EF16F020EE09F01F50D9262050BD
:102CA000DA22DF502B241FC0D9FF20C0DAFFDF6EED
:102CB00020EE09F02150D9262250DA22DF502B24B1
:102CC00021C0D9FF22C0DAFFDF6E1FC019F020C07B
:102CD0001AF082EC17F021C019F022C01AF082EC31
:102CE00017F0000E2A6E000E296E80EF16F0D00E3F
:102CF000266ECA0EE82EFED7262EFCD7294A2A2A8F
:102D00002550266E276A2650295C2A50800A286E94
:102D10002750800A2858D8A090EF16F092EF16F0AE
:102D200077EF16F02B06D8A02C0642EF16F0120013
:102D300020EE01F01F50D9262050DA22DF6A20EE63
:102D400001F02150D9262250DA22010EDF6E000E4A
:102D50002C6E010E2B6EF6EF16F020EE09F01F50D0
:102D6000D9262050DA22DF502B241FC0D9FF20C0E3
:102D7000DAFFDF6E20EE09F02150D9262250DA2248
:102D8000DF502B2421C0D9FF22C0DAFFDF6E1FC025
:102D900019F020C01AF082EC17F021C019F022C0FF
:102DA0001AF082EC17F0000E2A6E000E296EE2EF88
:102DB00016F0D00E266ECA0EE82EFED7262EFCD7B1
:102DC000294A2A2A2550266E276A2650295C2A502D
:102DD000800A286E2750800A2858D8A0F2EF16F0F3
:102DE000F4EF16F0D9EF16F02B4A2C2A2350266E5A
:102DF000276A2B50265C2750800A286E2C50800AA8
:102E00002858D8B006EF17F008EF17F0ADEF16F01E
:102E1000000E2A6E000E296E17EF17F0D00E266EE8
:102E2000CA0EE82EFED7262EFCD7294A2A2A24507D
:102E3000266E276A2650295C2A50800A286E275061
:102E4000800A2858D8A027EF17F029EF17F00EEFC7
:102E500017F023C02BF02C6A2CBE33EF17F031EFA4
:102E600017F035EF17F081EF17F020EE09F01F5043
:102E7000D9262050DA22DF502B241FC0D9FF20C0D2
:102E8000DAFFDF6E20EE09F02150D9262250DA2237
:102E9000DF502B2421C0D9FF22C0DAFFDF6E1FC014
:102EA00019F020C01AF082EC17F021C019F022C0EE
:102EB0001AF082EC17F0000E2A6E000E296E6AEFEF
:102EC00017F0D00E266ECA0EE82EFED7262EFCD79F
:102ED000294A2A2A2550266E276A2650295C2A501C
:102EE000800A286E2750800A2858D8A07AEF17F059
:102EF0007CEF17F061EF17F02B06D8A02C062CEF13
:102F000017F0120020EE02F01950D9261A50DA22DA
:102F1000DF50D8B48EEF17F090EF17F0C4EF17F032
:102F200019C0D9FF1AC0DAFFDF501B6E1B500C6EA0
:102F30000D6A20EE03F01950D9261A50DA22DECF9E
:102F40000EF0DDCF0FF0F3EC1CF00CC012F00DC052
:102F500013F0000E156E640E146E7DEC1BF020EE67
:102F600003F01950D9261A50DA22DF501C6E125085
:102F70001C5C1D6E20EE03F01950D9261A50DA227F
:102F8000DF501E6EE7EF17F0000E1D6E19C0D9FF5F
:102F90001AC0DAFFDF501B6E1B500C6E0D6A20EE5C
:102FA00003F01950D9261A50DA22DECF0EF0DDCF09
:102FB0000FF0F3EC1CF00CC012F00DC013F0000E7B
:102FC000156E640E146E7DEC1BF012501E6E20EE1A
:102FD00001F01950D9261A50DA22DF50D8B4F3EF95
:102FE00017F0F5EF17F017EF18F020EE05F0195075
:102FF000D9261A50DA22DECF1BF0DDCF1CF01BC021
:10300000D9FF1CC0DAFF1DC0DFFF20EE07F019500A
:10301000D9261A50DA22DECF1BF0DDCF1CF01BC000
:10302000D9FF1CC0DAFF1EC0DFFF37EF18F020EE1B
:1030300005F01950D9261A50DA22DECF1BF0DDCF69
:103040001CF01BC0D9FF1CC0DAFF1EC0DFFF20EE42
:1030500007F01950D9261A50DA22DECF1BF0DDCF47
:103060001CF01BC0D9FF1CC0DAFF1DC0DFFF12001F
:1030700020EE06F02E50D9262F50DA222CC0DEFF8B
:103080002DC0DDFF26C00CF027C00DF00E6A0F6AC0
:10309000E80E106E030E116E000E126E000E136E0F
:1030A000EEEC1BF00CC018F00DC019F00EC01AF0B9
:1030B0000FC01BF02A502824306E2B502920316E6F
:1030C000265030262750312230C01CF031C01DF070
:1030D0001E6A1F6ADDEC18F02EC0D9FF2FC0DAFF80
:1030E00018C0DEFF19C0DDFF28C00CF029C00DF0AC
:1030F0000E6A0F6AE80E106E030E116E000E126E4D
:10310000000E136EEEEC1BF00CC018F00DC019F0A1
:103110000EC01AF00FC01BF02A502824306E2B501E
:103120002920316E265030262750312230C01CF025
:1031300031C01DF01E6A1F6ADDEC18F020EE02F0AF
:103140002E50D9262F50DA2218C0DEFF19C0DDFF1D
:103150002AC00CF02BC00DF00E6A0F6AE80E106E3C
:10316000030E116E000E126E000E136EEEEC1BF0CD
:103170000CC018F00DC019F00EC01AF00FC01BF0F3
:103180002A502824306E2B502920316E26503026AC
:103190002750312230C01CF031C01DF01E6A1F6A5A
:1031A000DDEC18F020EE04F02E50D9262F50DA2254
:1031B00018C0DEFF19C0DDFF1200000E216E1FBE19
:1031C000E6EF18F0E4EF18F0F0EF18F01F1E1E1EE7
:1031D0001D1E1C6C000E1D221E221F22010E216EC0
:1031E0001BBEF7EF18F0F5EF18F001EF19F01B1EFA
:1031F0001A1E191E186C000E19221A221B22010E0B
:10320000211A000E226E000E236E000E246E000E98
:10321000256E1C501D101E101F10D8B412EF19F08F
:1032200014EF19F04AEF19F0010E206E1EEF19F09D
:10323000D8901C361D361E361F36202A1FAE23EFAF
:1032400019F025EF19F018EF19F0D890223623362F
:10325000243625361C50185C1D5019581E501A581B
:103260001F501B58D8A037EF19F039EF19F042EF73
:1032700019F01C50185E1D50195A1E501A5A1F5032
:103280001B5A2280D8901F321E321D321C32202E33
:1032900025EF19F02150D8B450EF19F052EF19F082
:1032A0005AEF19F0251E241E231E226C000E232225
:1032B0002422252222C018F023C019F024C01AF0BD
:1032C00025C01BF0120020EE01F01F50D92620501F
:1032D000DA22010EDF6E20EE01F02150D9262250B5
:1032E000DA22010EDF6E1FC0D9FF20C0DAFFDF50E7
:1032F000246E20EE09F01F50D9262050DA22DF502C
:10330000256E2550245C296E2A6AD8A02A062ABE7A
:103310008EEF19F08CEF19F090EF19F0DCEF19F047
:1033200020EE09F01F50D9262050DA22DF50292440
:103330001FC0D9FF20C0DAFFDF6E20EE09F0215058
:10334000D9262250DA22DF50292421C0D9FF22C0F9
:10335000DAFFDF6E1FC019F020C01AF082EC17F000
:1033600021C019F022C01AF082EC17F0000E286E6E
:10337000000E276EC5EF19F0D00E246ECA0EE82E8F
:10338000FED7242EFCD7274A282A2350246E256AEC
:103390002450275C2850800A266E2550800A265823
:1033A000D8A0D5EF19F0D7EF19F0BCEF19F0290626
:1033B000D8A02A0687EF19F01FC0D9FF20C0DAFF76
:1033C000DF6A21C0D9FF22C0DAFFDF6A120020EED7
:1033D00001F01F50D9262050DA22010EDF6E20EEB8
:1033E00001F02150D9262250DA22010EDF6E000EA4
:1033F0002B6E010E2A6E46EF1AF020EE09F01F50D8
:10340000D9262050DA22DF502A241FC0D9FF20C03D
:10341000DAFFDF6E20EE09F02150D9262250DA22A1
:10342000DF502A2421C0D9FF22C0DAFFDF6E1FC07F
:1034300019F020C01AF082EC17F021C019F022C058
:103440001AF082EC17F0000E296E000E286E32EF93
:103450001AF0D00E256ECA0EE82EFED7252EFCD708
:10346000284A292A2450256E266A2550285C29508E
:10347000800A276E2650800A2758D8A042EF1AF0FB
:1034800044EF1AF029EF1AF02A4A2B2A2350256E0E
:10349000266A2A50255C2650800A276E2B50800A07
:1034A0002758D8B056EF1AF058EF1AF0FDEF19F080
:1034B0001200000E116E0FBE62EF1AF060EF1AF0EC
:1034C00068EF1AF00E6C0F1ED8B00F2A010E116EA5
:1034D0000DBE6FEF1AF06DEF1AF075EF1AF00C6C6D
:1034E0000D1ED8B00D2A010E111A000E136E000E1B
:1034F000126E0E500F10D8B480EF1AF082EF1AF04F
:10350000AAEF1AF0010E106E8AEF1AF0D8900E365C
:103510000F36102A0FAE8FEF1AF091EF1AF086EFE8
:103520001AF0D890123613360E500C5C0F500D580E
:10353000D8A09DEF1AF09FEF1AF0A4EF1AF00E50EA
:103540000C5E0F500D5A1280D8900F320E32102E92
:1035500091EF1AF01150D8B4B0EF1AF0B2EF1AF0A0
:10356000B6EF1AF0126C131ED8B0132A12C00CF06A
:1035700013C00DF012007D9485947D9885987B9EF4
:10358000839E7F9C879C050E0E01746F060E766FDE
:10359000070E696F080E886FBD508F0B3009BD6E26
:1035A000E00EBE16BF50F00B0109BF6E0CC0BCFF91
:1035B000BD8E000EAA6E000EA66E000E0F01256FC6
:1035C000000E216FFC0EAD16F30EAD16CF0EAD162C
:1035D0003F0EAD16AB88AB50F00B0C09AB6EAB8E4B
:1035E000A788A750F00B0C09A76EA78E2689265135
:1035F000F00B0C09266F268F22892251F00B0C0943
:10360000226F228F1200C8EC1DF0520EADEC1DF09F
:10361000E60EADEC1DF0C3EC1DF0140E4924116E46
:10362000000E4A20126EEC0E4924136EFF0E4A2043
:10363000146E130E0E6E000E3EEC1DF03F0E106E5B
:10364000550EE82EFED7102EFCD7000012500E6E3D
:10365000070E3EEC1DF011C00EF0060E3EEC1DF004
:1036600014500E6E050E3EEC1DF013C00EF0040E4D
:103670003EEC1DF0040E0E6E0C0E3EEC1DF0120022
:10368000D2EC1DF0520EB3EC1DF0E60EB3EC1DF0C3
:10369000CDEC1DF0140E4924066E000E4A20076E74
:1036A000EC0E4924086EFF0E4A20096E130E036EBD
:1036B000000E5EEC1DF03F0E056E550EE82EFED797
:1036C000052EFCD700000750036E070E5EEC1DF0C0
:1036D00006C003F0060E5EEC1DF00950036E050EE9
:1036E0005EEC1DF008C003F0040E5EEC1DF0040E4D
:1036F000036E0C0E5EEC1DF01200000E176E000E35
:10370000166E14501510D8B488EF1BF08AEF1BF01A
:10371000B2EF1BF0010E186E92EF1BF0D89014362A
:103720001536182A15AE97EF1BF099EF1BF08EEFA8
:103730001BF0D890163617361450125C15501358DB
:10374000D8A0A5EF1BF0A7EF1BF0ACEF1BF01450B7
:10375000125E1550135A1680D89015321432182E56
:1037600099EF1BF016C012F017C013F01200AE0E46
:10377000F66E3B0EF76E000EF86E01EEFCF010EEEA
:1037800004F00900F5CFEEFFE550E150FAE1B20E8A
:10379000F66E3B0EF76E000EF86E0900F5CF49F09D
:1037A0000900F5CF4AF002EE00F0520EEE6AE8068C
:1037B000FDE101EED2F02A0EEE6AE806FDE100EE30
:1037C00060F0780EEE6AE806FDE1486A476A466AEC
:1037D000456A4B904B920001DAEF10F0000E146E28
:1037E000000E156E000E166E000E176E0CA0FBEF8D
:1037F0001BF0FDEF1BF005EF1CF0105014261150CC
:1038000015221250162213501722D8901036113656
:1038100012361336D8900F320E320D320C320C5055
:103820000D100E100F10D8A418EF1CF01AEF1CF09A
:10383000F6EF1BF014C00CF015C00DF016C00EF022
:1038400017C00FF012007DEC1DF08AEC1DF0146E15
:1038500014C00CF00D6A000E0F6E180E0E6E59ECAF
:103860001AF00C50156E15A238EF1CF03AEF1CF050
:103870003DEF1CF07C8E3EEF1CF07C9E15A043EFCC
:103880001CF045EF1CF048EF1CF0808649EF1CF05F
:10389000809612000E6ECBEC1CF00E01DA87CBEC9A
:1038A0001CF0D5CE0FF0CBEC1CF00E50D8B45BEF73
:1038B0001CF05FEF1CF00D6A0D2A60EF1CF00D6A22
:1038C0000D3A0D460E01DA510D18DF0B0D18DA6FA7
:1038D000DA890F501200A2EC1CF0010E0E6E000EE1
:1038E0003EEC1DF03F0E156E550EE82EFED7152E40
:1038F000FCD70000030E0E6E000E3EEC1DF0D50E40
:103900000E6E010E3EEC1DF003EC1BF012007C9ECF
:10391000849E8096889686840E01B4958686B49798
:10392000809288927C9884987C968496A7978090C1
:1039300088907E9086907F9087907D9E859E7996D8
:10394000819612000E01D951F00B0809D96FD98B5D
:103950009F0ED66F848A848CA79BA79D1D0E1D6F1A
:103960001E0E1C6F1C0E6F6F1B0E706F1200D3CFDC
:1039700010F0116AD4CF12F0136A12500F6E0E6A53
:1039800010500E10146E11500F10156E14C00CF064
:1039900015C00DF012000E01D8B5D1EF1CF0D3EF19
:1039A0001CF0CBEF1CF0DACE0CF01F0E0C16D8A4D6
:1039B000DCEF1CF0DEEF1CF0CBEF1CF012000E0170
:1039C000D8B5E5EF1CF0E7EF1CF0DFEF1CF0DACE26
:1039D00001F01F0E0116D8A4F0EF1CF0F2EF1CF05E
:1039E000DFEF1CF012000C500E02F3CF10F0F4CFFA
:1039F00011F00C500F02F35011260D500E02F3502F
:103A0000112610C00CF011C00DF01200016E130E43
:103A100048640DEF1DF00FEF1DF011EF1DF0000ECB
:103A2000486E4850C40FD96EDA6A01C0DFFF482AD9
:103A300012003B0E45641FEF1DF021EF1DF023EF38
:103A40001DF0000E456E452A4504016E0150600FC1
:103A5000D96EDA6ADF5012000C6E0C50D8B433EF16
:103A60001DF035EF1DF03AEF1DF07F807D8E7986D9
:103A70003DEF1DF07F907D9E799612000F6EC8EC91
:103A80001DF0520EADEC1DF00F508009ADEC1DF095
:103A90000E50ADEC1DF0C3EC1DF01200D6501F0B04
:103AA0004009D66ED688D650F00B0B09D66ED58855
:103AB000000ED46E000ED36ED58E1200046ED2ECC2
:103AC0001DF0520EB3EC1DF004508009B3EC1DF054
:103AD0000350B3EC1DF0CDEC1DF01200120E0E01E0
:103AE000626F110E156FE997E895330EE56F000EC2
:103AF000E66FE789E88BE78F1200868C0E01B48DA4
:103B00000F015899FC0E58172E0E5F6F6094608855
:103B1000608E1200608060B090EF1DF092EF1DF09B
:103B20008BEF1DF064CF0CF00C501200455046187E
:103B3000D8A49DEF1DF0A0EF1DF0010EA1EF1DF028
:103B4000000E120082800E019A9129811F81F2904D
:103B5000298B2D87F28CF28E12000D6ECBEC1CF0AF
:103B60000DC0D5FE1200026EDFEC1CF002C0D5FEC7
:103B70001200000ED46E000ED36E1200CBEC1CF0BF
:103B80000E01DA831200CBEC1CF00E01DA85120074
:103B9000CBEC1CF00E01DA811200DFEC1CF00E0100
:103BA000DA851200DFEC1CF00E01DA81120004034A
:043BB0000908F4010B
:020000040030CA
:02000000AAFF55
:020004009FFF5C
:00000001FF
