:040000007EEF0CF093
:100E000000001350D96EDA6A010ED926DF6A145039
:100E1000D96EDA6A010ED926DF6A000E1E6E010E47
:100E20001D6E55EF07F01350D96EDA6A1350E16E5C
:100E3000E26A090EE126E7501D24DF6E1450D96ED8
:100E4000DA6A1450E16EE26A090EE126E7501D24C9
:100E5000DF6E13C00EF05FEC0AF014C00EF05FEC12
:100E60000AF0000E1C6E000E1B6E41EF07F0680EBC
:100E7000186EE40EE82EFED7182EFCD700D01B4AC1
:100E80001C2A1750186E196A18501B5C1C50800AD7
:100E90001A6E1950800A1A58D8A051EF07F053EF74
:100EA00007F037EF07F01D4A1E2A1550186E196A11
:100EB0001D50185C1950800A1A6E1E50800A1A586C
:100EC000D8B065EF07F067EF07F013EF07F0000EFB
:100ED0001C6E000E1B6E77EF07F0680E186EE40EA6
:100EE000E82EFED7182EFCD700D01B4A1C2A16501D
:100EF000186E196A18501B5C1C50800A1A6E195023
:100F0000800A1A58D8A087EF07F089EF07F06DEF35
:100F100007F015C01DF01E6A1EBE93EF07F091EF9B
:100F200007F095EF07F0DAEF07F01350D96EDA6AA1
:100F30001350E16EE26A090EE126E7501D24DF6ED0
:100F40001450D96EDA6A1450E16EE26A090EE12695
:100F5000E7501D24DF6E13C00EF05FEC0AF014C0E2
:100F60000EF05FEC0AF0000E1C6E000E1B6EC3EF5D
:100F700007F0680E186EE40EE82EFED7182EFCD788
:100F800000D01B4A1C2A1750186E196A18501B5C97
:100F90001C50800A1A6E1950800A1A58D8A0D3EF34
:100FA00007F0D5EF07F0B9EF07F01D06D8A01E0631
:100FB0008CEF07F01350D96EDA6ADF6A1450D96EDD
:100FC000DA6ADF6A12001350D96EDA6A010ED92686
:100FD000010EDF6E1450D96EDA6A010ED926DF6A6F
:100FE000000E1E6E010E1D6E38EF08F01350D96E04
:100FF000DA6A1350E16EE26A090EE126E7501D2419
:10100000DF6E1450D96EDA6A1450E16EE26A090E8E
:10101000E126E7501D24DF6E13C00EF05FEC0AF0EE
:1010200014C00EF05FEC0AF0000E1C6E000E1B6E7A
:1010300024EF08F0680E186EE40EE82EFED7182E86
:10104000FCD700D01B4A1C2A1750186E196A18507A
:101050001B5C1C50800A1A6E1950800A1A58D8A0BE
:1010600034EF08F036EF08F01AEF08F01D4A1E2A98
:101070001550186E196A1D50185C1950800A1A6EA6
:101080001E50800A1A58D8B048EF08F04AEF08F00E
:10109000F6EF07F0000E1C6E000E1B6E5AEF08F004
:1010A000680E186EE40EE82EFED7182EFCD700D07E
:1010B0001B4A1C2A1650186E196A18501B5C1C50CB
:1010C000800A1A6E1950800A1A58D8A06AEF08F0E0
:1010D0006CEF08F050EF08F015C01DF01E6A1EBE40
:1010E00076EF08F074EF08F078EF08F0BDEF08F045
:1010F0001350D96EDA6A1350E16EE26A090EE126E6
:10110000E7501D24DF6E1450D96EDA6A1450E16E78
:10111000E26A090EE126E7501D24DF6E13C00EF0CF
:101120005FEC0AF014C00EF05FEC0AF0000E1C6ECB
:10113000000E1B6EA6EF08F0680E186EE40EE82E87
:10114000FED7182EFCD700D01B4A1C2A1750186E49
:10115000196A18501B5C1C50800A1A6E1950800ABC
:101160001A58D8A0B6EF08F0B8EF08F09CEF08F0D6
:101170001D06D8A01E066FEF08F012001350D96E9E
:10118000DA6A010ED926DF6A1450D96EDA6A010EC6
:10119000D926010EDF6E000E1E6E010E1D6E13EFBE
:1011A00009F01350D96EDA6A1350E16EE26A090E43
:1011B000E126E7501D24DF6E1450D96EDA6A145010
:1011C000E16EE26A090EE126E7501D24DF6E13C0CE
:1011D0000EF05FEC0AF014C00EF05FEC0AF0000EA7
:1011E0001C6E000E1B6EFFEF08F0680E186EE40E0A
:1011F000E82EFED7182EFCD700D01B4A1C2A175009
:10120000186E196A18501B5C1C50800A1A6E19500F
:10121000800A1A58D8A00FEF09F011EF09F0F5EF86
:1012200008F01D4A1E2A1550186E196A1D50185CC8
:101230001950800A1A6E1E50800A1A58D8B023EF2F
:1012400009F025EF09F0D1EF08F0000E1C6E000E3A
:101250001B6E35EF09F0680E186EE40EE82EFED70F
:10126000182EFCD700D01B4A1C2A1650186E196A7B
:1012700018501B5C1C50800A1A6E1950800A1A58AC
:10128000D8A045EF09F047EF09F02BEF09F015C0A2
:101290001DF01E6A1EBE51EF09F04FEF09F053EF2B
:1012A00009F098EF09F01350D96EDA6A1350E16E25
:1012B000E26A090EE126E7501D24DF6E1450D96E54
:1012C000DA6A1450E16EE26A090EE126E7501D2445
:1012D000DF6E13C00EF05FEC0AF014C00EF05FEC8E
:1012E0000AF0000E1C6E000E1B6E81EF09F0680EF6
:1012F000186EE40EE82EFED7182EFCD700D01B4A3D
:101300001C2A1750186E196A18501B5C1C50800A52
:101310001A6E1950800A1A58D8A091EF09F093EF6D
:1013200009F077EF09F01D06D8A01E064AEF09F074
:101330001200000E026EC70E016EE9EC0BF0000EFB
:10134000316E010E326E010E336EAA0E366E0F0E26
:10135000376EA60E386E0F0E396E000E356EC70E44
:10136000346E030E3A6E000E276E010E286E010ECB
:10137000296E250E2C6E0F0E2D6E210E2E6E0F0E69
:101380002F6E000E2B6EC70E2A6E000E306E3C0EB6
:10139000226E020E266E0A0E216E160E236E020EAD
:1013A000246E040E256E86840E01B4958EB4DBEF98
:1013B00009F0DDEF09F0D6EF09F0290E206E960E48
:1013C0001F6E7F0EE82EFED71F2EFCD7202EFAD7D9
:1013D0000000310E136E270E146E23C015F024C0CA
:1013E00016F025C017F0BEEC08F0050E206E0F0EAB
:1013F0001F6EF10EE82EFED71F2EFCD7202EFAD737
:101400000000310E136E270E146E23C015F024C099
:1014100016F025C017F0E3EC07F0050E206E0F0E56
:101420001F6EF10EE82EFED71F2EFCD7202EFAD706
:101430000000310E136E270E146E22C015F026C068
:1014400016F080EC0BF0050E206E0F0E1F6EF10EE5
:10145000E82EFED71F2EFCD7202EFAD70000310E23
:10146000136E270E146E26C015F009EC0BF0050E56
:10147000206E0F0E1F6EF10EE82EFED71F2EFCD72A
:10148000202EFAD70000310E136E270E146E22C0E4
:1014900015F021C016F026C017F001EC07F0050E7C
:1014A000206E0F0E1F6EF10EE82EFED71F2EFCD7FA
:1014B000202EFAD70000E9EF09F000EF00F00E50FF
:1014C000D96EDA6A020ED926DF50D8B46AEF0AF074
:1014D0006CEF0AF09CEF0AF00E50D96EDA6ADF501A
:1014E0000F6E0F50016E026A0E50D96EDA6A030E4B
:1014F000D926DECF03F0DDCF04F06BEC0CF001C099
:1015000007F002C008F0000E0A6E640E096E31EC9E
:101510000CF00E50D96EDA6A030ED926DF50106E29
:101520000750105C116E0E50D96EDA6A030ED92680
:10153000DF50126EBDEF0AF0000E116E0E50D96E24
:10154000DA6ADF500F6E0F50016E026A0E50D96ECC
:10155000DA6A030ED926DECF03F0DDCF04F06BECA0
:101560000CF001C007F002C008F0000E0A6E640E15
:10157000096E31EC0CF00750126E0E50D96EDA6A1B
:10158000010ED926DF50D8B4C8EF0AF0CAEF0AF02E
:10159000EAEF0AF00E50D96EDA6A050ED926DECFD0
:1015A0000FF0DDCF10F00FC0D9FF10C0DAFF11C06F
:1015B000DFFF0E50D96EDA6A070ED926DECF0FF0A4
:1015C000DDCF10F00FC0D9FF10C0DAFF12C0DFFF6F
:1015D00008EF0BF00E50D96EDA6A050ED926DECF71
:1015E0000FF0DDCF10F00FC0D9FF10C0DAFF12C02E
:1015F000DFFF0E50D96EDA6A070ED926DECF0FF064
:10160000DDCF10F00FC0D9FF10C0DAFF11C0DFFF2F
:1016100012001350D96EDA6A010ED926010EDF6E60
:101620001450D96EDA6A010ED926010EDF6E1350FE
:10163000D96EDA6ADF50166E1350D96EDA6A090E67
:10164000D926DF50176E1750165C1B6E1C6AD8A087
:101650001C061CBE30EF0BF02EEF0BF032EF0BF040
:1016600077EF0BF01350D96EDA6A1350E16EE26A2D
:10167000090EE126E7501B24DF6E1450D96EDA6A9A
:101680001450E16EE26A090EE126E7501B24DF6E7A
:1016900013C00EF05FEC0AF014C00EF05FEC0AF01D
:1016A000000E1A6E000E196E60EF0BF0680E166ECB
:1016B000E40EE82EFED7162EFCD700D0194A1A2ABF
:1016C0001550166E176A1650195C1A50800A186E5B
:1016D0001750800A1858D8A070EF0BF072EF0BF07B
:1016E00056EF0BF01B06D8A01C0629EF0BF0135089
:1016F000D96EDA6ADF6A1450D96EDA6ADF6A1200CC
:101700001350D96EDA6A010ED926010EDF6E14501D
:10171000D96EDA6A010ED926010EDF6E000E1D6E3B
:10172000010E1C6ED6EF0BF01350D96EDA6A13500F
:10173000E16EE26A090EE126E7501C24DF6E1450C8
:10174000D96EDA6A1450E16EE26A090EE126E750BA
:101750001C24DF6E13C00EF05FEC0AF014C00EF014
:101760005FEC0AF0000E1B6E000E1A6EC2EF0BF05B
:10177000680E176EE40EE82EFED7172EFCD700D0A9
:101780001A4A1B2A1650176E186A17501A5C1B50FB
:10179000800A196E1850800A1958D8A0D2EF0BF0A1
:1017A000D4EF0BF0B8EF0BF01C4A1D2A1550176E42
:1017B000186A1C50175C1850800A196E1D50800A58
:1017C0001958D8B0E6EF0BF0E8EF0BF094EF0BF000
:1017D00012007D9485947D9885987B9E839E7F9C46
:1017E000879C050E0E01746F060E766F070E696FEB
:1017F000080E886FBD508F0B3009BD6EE00EBE160F
:10180000BF50F00B0109BF6E01C0BCFFBD8E000EC2
:10181000AA6E000EA66E000E0F01256F000E216F3E
:10182000FC0EAD16F30EAD16CF0EAD163F0EAD1677
:10183000AB88AB50F00B0C09AB6EAB8EA788A750F2
:10184000F00B0C09A76EA78E26892651F00B0C0908
:10185000266F268F22892251F00B0C09226F228FCE
:101860001200000E0C6E000E0B6E09500A10D8B458
:101870003CEF0CF03EEF0CF066EF0CF0010E0D6E3D
:1018800046EF0CF0D89009360A360D2A0AAE4BEF17
:101890000CF04DEF0CF042EF0CF0D8900B360C36FC
:1018A0000950075C0A500858D8A059EF0CF05BEFBC
:1018B0000CF060EF0CF00950075E0A50085A0B80DC
:1018C000D8900A3209320D2E4DEF0CF00BC007F004
:1018D0000CC008F0120001500302F3CF05F0F4CF62
:1018E00006F001500402F350062602500302F350A2
:1018F000062605C001F006C002F01200000199EFB3
:0219000009F0EC
:020000040030CA
:02000000AAFF55
:020004009FFF5C
:00000001FF
