:0400000062EF0BF0B0
:100E000000001350D96EDA6A010ED926010EDF6E8A
:100E10001450D96EDA6A010ED926DF6A000E1E6EF2
:100E2000010E1D6E56EF07F01350D96EDA6A13509B
:100E3000E16EE26A090EE126E7501D24DF6E1450D0
:100E4000D96EDA6A1450E16EE26A090EE126E750C3
:100E50001D24DF6E13C00EF023EC0AF014C00EF058
:100E600023EC0AF0000E1C6E000E1B6E42EF07F022
:100E7000680E186EE40EE82EFED7182EFCD700D0B0
:100E80001B4A1C2A1750186E196A18501B5C1C50FC
:100E9000800A1A6E1950800A1A58D8A052EF07F02B
:100EA00054EF07F038EF07F01D4A1E2A1550186E50
:100EB000196A1D50185C1950800A1A6E1E50800A5B
:100EC0001A58D8B066EF07F068EF07F014EF07F094
:100ED000000E1C6E000E1B6E78EF07F0680E186E89
:100EE000E40EE82EFED7182EFCD700D01B4A1C2A91
:100EF0001650186E196A18501B5C1C50800A1A6E26
:100F00001950800A1A58D8A088EF07F08AEF07F026
:100F10006EEF07F015C01DF01E6A1EBE94EF07F0BD
:100F200092EF07F096EF07F0DBEF07F01350D96E62
:100F3000DA6A1350E16EE26A090EE126E7501D24D9
:100F4000DF6E1450D96EDA6A1450E16EE26A090E4F
:100F5000E126E7501D24DF6E13C00EF023EC0AF0EB
:100F600014C00EF023EC0AF0000E1C6E000E1B6E77
:100F7000C4EF07F0680E186EE40EE82EFED7182EA8
:100F8000FCD700D01B4A1C2A1750186E196A18503B
:100F90001B5C1C50800A1A6E1950800A1A58D8A07F
:100FA000D4EF07F0D6EF07F0BAEF07F01D06D8A090
:100FB0001E068DEF07F012001350D96EDA6A010E8B
:100FC000D926DF6A1450D96EDA6A010ED926010ECD
:100FD000DF6E000E1E6E010E1D6E31EF08F0135015
:100FE000D96EDA6A1350E16EE26A090EE126E75023
:100FF0001D24DF6E1450D96EDA6A1450E16EE26A75
:10100000090EE126E7501D24DF6E13C00EF023EC1D
:101010000AF014C00EF023EC0AF0000E1C6E000E55
:101020001B6E1DEF08F0680E186EE40EE82EFED75A
:10103000182EFCD700D01B4A1C2A1750186E196AAC
:1010400018501B5C1C50800A1A6E1950800A1A58DE
:10105000D8A02DEF08F02FEF08F013EF08F01D4A8D
:101060001E2A1550186E196A1D50185C1950800AF6
:101070001A6E1E50800A1A58D8B041EF08F043EF9C
:1010800008F0EFEF07F0000E1C6E000E1B6E53EF22
:1010900008F0680E186EE40EE82EFED7182EFCD766
:1010A00000D01B4A1C2A1650186E196A18501B5C77
:1010B0001C50800A1A6E1950800A1A58D8A063EF83
:1010C00008F065EF08F049EF08F015C01DF01E6A42
:1010D0001EBE6FEF08F06DEF08F071EF08F0B6EF8D
:1010E00008F01350D96EDA6A1350E16EE26A090E05
:1010F000E126E7501D24DF6E1450D96EDA6A1450D1
:10110000E16EE26A090EE126E7501D24DF6E13C08E
:101110000EF023EC0AF014C00EF023EC0AF0000EDF
:101120001C6E000E1B6E9FEF08F0680E186EE40E2A
:10113000E82EFED7182EFCD700D01B4A1C2A1750C9
:10114000186E196A18501B5C1C50800A1A6E1950D0
:10115000800A1A58D8A0AFEF08F0B1EF08F095EF69
:1011600008F01D06D8A01E0668EF08F012001FC088
:1011700013F020C014F021C015F02250D96EDA6AA5
:10118000DF50166E23C017F0DCEC07F0050E256E5D
:101190000F0E246EF10EE82EFED7242EFCD7252E3E
:1011A000FAD700001FC013F020C014F021C015F0C2
:1011B0002250D96EDA6ADF50166E23C017F0DCECCD
:1011C00007F0050E256E0F0E246EF10EE82EFED7E9
:1011D000242EFCD7252EFAD700001FC013F020C004
:1011E00014F021C015F02250D96EDA6ADF50166E65
:1011F00023C017F001EC07F0050E256E0F0E246ECC
:10120000F10EE82EFED7242EFCD7252EFAD70000AB
:101210001FC013F020C014F021C015F02250D96E69
:10122000DA6ADF50166E23C017F001EC07F08EA4C7
:101230001CEF09F01EEF09F025EF09F08EB623EF41
:1012400009F025EF09F017EF09F08EB42AEF09F045
:101250002CEF09F03BEF09F02250D96EDA6ADF502B
:10126000D8B435EF09F037EF09F03BEF09F022066B
:101270007C8E44EF09F08EB640EF09F042EF09F0A2
:1012800044EF09F0222A8086290E256E960E246EE0
:101290007F0EE82EFED7242EFCD7252EFAD700008D
:1012A0008EB655EF09F057EF09F05AEF09F0220614
:1012B0005EEF09F080967C9EB7EF08F080867C8E0A
:1012C000090E256E1E0E246EE40EE82EFED7242E87
:1012D000FCD7252EFAD700D080967C9E1200000EF7
:1012E000026EC70E016ECDEC0AF0000E2B6E010EE1
:1012F0002C6E010E2D6EAA0E306E0F0E316EA60EE4
:10130000326E0F0E336E000E2F6EC70E2E6E030E52
:10131000346E000E356E010E366E010E376E250EE0
:101320003A6E0F0E3B6E210E3C6E0F0E3D6E000EA0
:10133000396EC70E386E000E3E6E150E286E0A0E00
:101340002A6E040E296E7C9E849E809688968684E2
:101350000E01B4958686B4978EB4B1EF09F0B3EF61
:1013600009F0ACEF09F0290E276E960E266E7F0E5F
:10137000E82EFED7262EFCD7272EFAD700002B0EFC
:101380001F6E350E206E150E216E2A0E226E040E73
:10139000236EB7EC08F02B0E136E350E146E28C0BA
:1013A00015F02AC016F029C017F0DCEC07F0050E86
:1013B000276E0F0E266EF10EE82EFED7262EFCD7D6
:1013C000272EFAD700002B0E136E350E146E28C090
:1013D00015F02AC016F029C017F001EC07F0050E31
:1013E000276E0F0E266EF10EE82EFED7262EFCD7A6
:1013F000272EFAD70000050E276E0F0E266EF10E6F
:10140000E82EFED7262EFCD7272EFAD70000050E91
:10141000276E0F0E266EF10EE82EFED7262EFCD775
:10142000272EFAD70000050E276E0F0E266EF10E3E
:10143000E82EFED7262EFCD7272EFAD70000CBEFBA
:1014400009F000EF00F00E50D96EDA6A020ED926CC
:10145000DF50D8B42EEF0AF030EF0AF060EF0AF058
:101460000E50D96EDA6ADF500F6E0F50016E026AAD
:101470000E50D96EDA6A030ED926DECF03F0DDCF27
:1014800004F04FEC0BF001C007F002C008F0000EB2
:101490000A6E640E096E15EC0BF00E50D96EDA6A06
:1014A000030ED926DF50106E0750105C116E0E50DF
:1014B000D96EDA6A030ED926DF50126E81EF0AF078
:1014C000000E116E0E50D96EDA6ADF500F6E0F509B
:1014D000016E026A0E50D96EDA6A030ED926DECF8B
:1014E00003F0DDCF04F04FEC0BF001C007F002C0B9
:1014F00008F0000E0A6E640E096E15EC0BF0075032
:10150000126E0E50D96EDA6A010ED926DF50D8B4A9
:101510008CEF0AF08EEF0AF0AEEF0AF00E50D96EA3
:10152000DA6A050ED926DECF0FF0DDCF10F00FC03E
:10153000D9FF10C0DAFF11C0DFFF0E50D96EDA6A92
:10154000070ED926DECF0FF0DDCF10F00FC0D9FF88
:1015500010C0DAFF12C0DFFFCCEF0AF00E50D96ED8
:10156000DA6A050ED926DECF0FF0DDCF10F00FC0FE
:10157000D9FF10C0DAFF12C0DFFF0E50D96EDA6A51
:10158000070ED926DECF0FF0DDCF10F00FC0D9FF48
:1015900010C0DAFF11C0DFFF12007D9485947D98A2
:1015A00085987B9E839E7F9C879C050E0E01746FA1
:1015B000060E766F070E696F080E886FBD508F0B91
:1015C0003009BD6EE00EBE16BF50F00B0109BF6EB4
:1015D00001C0BCFFBD8E000EAA6E000EA66E000EEE
:1015E0000F01256F000E216FFC0EAD16F30EAD1628
:1015F000CF0EAD163F0EAD16AB88AB50F00B0C09FD
:10160000AB6EAB8EA788A750F00B0C09A76EA78E08
:1016100026892651F00B0C09266F268F228922512C
:10162000F00B0C09226F228F1200000E0C6E000EC0
:101630000B6E09500A10D8B420EF0BF022EF0BF01C
:101640004AEF0BF0010E0D6E2AEF0BF0D890093621
:101650000A360D2A0AAE2FEF0BF031EF0BF026EF12
:101660000BF0D8900B360C360950075C0A5008581E
:10167000D8A03DEF0BF03FEF0BF044EF0BF009501B
:10168000075E0A50085A0B80D8900A3209320D2E94
:1016900031EF0BF00BC007F00CC008F01200015046
:1016A0000302F3CF05F0F4CF06F001500402F3502B
:1016B000062602500302F350062605C001F006C0BC
:0A16C00002F0120000016FEF09F0C4
:020000040030CA
:02000000AAFF55
:020004009FFF5C
:00000001FF
