:0400000049EF00F0D4
:100008005182D9CF0DF0DACF0EF00E0133A10FEFE8
:1000180000F011EF00F017EF00F0010E466EFDEC56
:1000280025F00E01339133AB1CEF00F01EEF00F00A
:1000380021EF00F0010E456E339B37A726EF00F045
:1000480028EF00F02BEF00F0E35175EC28F00E01DB
:1000580037A531EF00F033EF00F043EF00F088EC04
:1000680028F00E01E46F05EC29F00009D8A43FEF51
:1000780000F041EF00F043EF00F00E012D950EC0A7
:0E008800DAFF0DC0D9FF519211003FEF27F0B3
:100E000000000001B405D8A408EF07F00AEF07F0CE
:100E10006CEF07F0B0C022F0B1C023F0B2C024F0F4
:100E2000B3C025F0BAC026F0BCC027F00AEC1FF012
:100E3000050E0001C16F0F0EC06FF10EE82EFED738
:100E4000C02FFCD7C12FFAD7B0C022F0B1C023F019
:100E5000B2C024F0B3C025F0BDC026F0BEC027F05C
:100E6000BFC028F0F2EC20F0050E0001C16F0F0E9C
:100E7000C06FF10EE82EFED7C02FFCD7C12FFAD7D6
:100E8000B0C022F0B1C023F0B2C024F0B3C025F04E
:100E9000BDC026F0BEC027F0BFC028F0F2EC20F0A5
:100EA000050E0001C16F0F0EC06FF10EE82EFED7C8
:100EB000C02FFCD7C12FFAD7B0C022F0B1C023F0A9
:100EC000B2C024F0B3C025F0BAC026F0BCC027F0F1
:100ED00086EC24F015EF0BF0020EB419D8A473EFD2
:100EE00007F075EF07F0D7EF07F0B0C022F0B1C000
:100EF00023F0B2C024F0B3C025F0BAC026F0BCC0C5
:100F000027F00AEC1FF0050E0001C16F0F0EC06F35
:100F1000F10EE82EFED7C02FFCD7C12FFAD7B0C0F4
:100F200022F0B1C023F0B2C024F0B3C025F0BDC0A0
:100F300026F0BEC027F0BFC028F0DCEC21F0050E83
:100F40000001C16F0F0EC06FF10EE82EFED7C02F4B
:100F5000FCD7C12FFAD7B0C022F0B1C023F0B2C085
:100F600024F0B3C025F0BDC026F0BEC027F0BFC03E
:100F700028F0DCEC21F0050E0001C16F0F0EC06FF0
:100F8000F10EE82EFED7C02FFCD7C12FFAD7B0C084
:100F900022F0B1C023F0B2C024F0B3C025F0BAC033
:100FA00026F0BCC027F086EC24F015EF0BF0030E02
:100FB000B419D8A4DEEF07F0E0EF07F07AEF08F0FD
:100FC000B0C022F0B1C023F0B2C024F0B3C025F00D
:100FD000BAC026F0BCC027F00AEC1FF0050E0001D5
:100FE000C16F0F0EC06FF10EE82EFED7C02FFCD7D9
:100FF000C12FFAD7B0C022F0B1C023F0B2C024F0A4
:10100000B3C025F0BDC026F0BEC027F0BFC028F099
:10101000DCEC21F0050E0001C16F0F0EC06FF10E68
:10102000E82EFED7C02FFCD7C12FFAD7B0C022F0D0
:10103000B1C023F0B2C024F0B3C025F0BDC026F08B
:10104000BEC027F0BFC028F0DCEC21F0050E000187
:10105000C16F0F0EC06FF10EE82EFED7C02FFCD768
:10106000C12FFAD7B0C022F0B1C023F0B2C024F033
:10107000B3C025F0BDC026F0BEC027F0BFC028F029
:10108000DCEC21F0050E0001C16F0F0EC06FF10EF8
:10109000E82EFED7C02FFCD7C12FFAD7B0C022F060
:1010A000B1C023F0B2C024F0B3C025F0BDC026F01B
:1010B000BEC027F0BFC028F0DCEC21F0050E000117
:1010C000C16F0F0EC06FF10EE82EFED7C02FFCD7F8
:1010D000C12FFAD7B0C022F0B1C023F0B2C024F0C3
:1010E000B3C025F0BAC026F0BCC027F086EC24F0CF
:1010F00015EF0BF0040EB419D8A481EF08F083EFBC
:1011000008F001EF09F0B0C022F0B1C023F0B2C086
:1011100024F0B3C025F0BAC026F0BCC027F00AEC1A
:101120001FF0050E0001C16F0F0EC06FF10EE82E0B
:10113000FED7C02FFCD7C12FFAD7B0C022F0B1C064
:1011400023F0B2C024F0B3C025F0BAC026F0BBC073
:1011500027F0BCC028F0FFEC1FF0050E0001C16FA6
:101160000F0EC06FF10EE82EFED7C02FFCD7C12F97
:10117000FAD7B0C022F0B1C023F0B2C024F0B3C09F
:1011800025F0BDC026F0BEC027F0BFC028F0F2ECAD
:1011900020F0050E0001C16F0F0EC06FF10EE82E9A
:1011A000FED7C02FFCD7C12FFAD7B0C022F0B1C0F4
:1011B00023F0B2C024F0B3C025F0BDC026F0BEC0FD
:1011C00027F0BFC028F0F2EC20F0050E0001C16F3F
:1011D0000F0EC06FF10EE82EFED7C02FFCD7C12F27
:1011E000FAD7B0C022F0B1C023F0B2C024F0B3C02F
:1011F00025F0BAC026F0BCC027F086EC24F015EF2D
:101200000BF0050EB419D8A408EF09F00AEF09F0A5
:1012100088EF09F0B0C022F0B1C023F0B2C024F0D2
:10122000B3C025F0BAC026F0BCC027F00AEC1FF00E
:10123000050E0001C16F0F0EC06FF10EE82EFED734
:10124000C02FFCD7C12FFAD7B0C022F0B1C023F015
:10125000B2C024F0B3C025F0BAC026F0BBC027F05E
:10126000BCC028F0FFEC1FF0050E0001C16F0F0E8F
:10127000C06FF10EE82EFED7C02FFCD7C12FFAD7D2
:10128000B0C022F0B1C023F0B2C024F0B3C025F04A
:10129000BDC026F0BEC027F0BFC028F0DCEC21F0B6
:1012A000050E0001C16F0F0EC06FF10EE82EFED7C4
:1012B000C02FFCD7C12FFAD7B0C022F0B1C023F0A5
:1012C000B2C024F0B3C025F0BDC026F0BEC027F0E8
:1012D000BFC028F0DCEC21F0050E0001C16F0F0E3D
:1012E000C06FF10EE82EFED7C02FFCD7C12FFAD762
:1012F000B0C022F0B1C023F0B2C024F0B3C025F0DA
:10130000BAC026F0BCC027F086EC24F015EF0BF035
:10131000060EB419D8A48FEF09F091EF09F00FEF82
:101320000AF0B0C022F0B1C023F0B2C024F0B3C0C4
:1013300025F0BAC026F0BCC027F00AEC1FF0050E5D
:101340000001C16F0F0EC06FF10EE82EFED7C02F47
:10135000FCD7C12FFAD7B0C022F0B1C023F0B2C081
:1013600024F0B3C025F0BDC026F0BEC027F0BFC03A
:1013700028F0F2EC20F0050E0001C16F0F0EC06FD7
:10138000F10EE82EFED7C02FFCD7C12FFAD7B0C080
:1013900022F0B1C023F0B2C024F0B3C025F0BDC02C
:1013A00026F0BEC027F0BFC028F0F2EC20F0050EFA
:1013B0000001C16F0F0EC06FF10EE82EFED7C02FD7
:1013C000FCD7C12FFAD7B0C022F0B1C023F0B2C011
:1013D00024F0B3C025F0BDC026F0BEC027F0BFC0CA
:1013E00028F0F2EC20F0050E0001C16F0F0EC06F67
:1013F000F10EE82EFED7C02FFCD7C12FFAD7B0C010
:1014000022F0B1C023F0B2C024F0B3C025F0BAC0BE
:1014100026F0BCC027F086EC24F015EF0BF0070E89
:10142000B419D8A416EF0AF018EF0AF096EF0AF0F4
:10143000B0C022F0B1C023F0B2C024F0B3C025F098
:10144000BAC026F0BCC027F00AEC1FF0050E000160
:10145000C16F0F0EC06FF10EE82EFED7C02FFCD764
:10146000C12FFAD7B0C022F0B1C023F0B2C024F02F
:10147000B3C025F0BDC026F0BEC027F0BFC028F025
:10148000DCEC21F0050E0001C16F0F0EC06FF10EF4
:10149000E82EFED7C02FFCD7C12FFAD7B0C022F05C
:1014A000B1C023F0B2C024F0B3C025F0BDC026F017
:1014B000BEC027F0BFC028F0DCEC21F0050E000113
:1014C000C16F0F0EC06FF10EE82EFED7C02FFCD7F4
:1014D000C12FFAD7B0C022F0B1C023F0B2C024F0BF
:1014E000B3C025F0BDC026F0BEC027F0BFC028F0B5
:1014F000DCEC21F0050E0001C16F0F0EC06FF10E84
:10150000E82EFED7C02FFCD7C12FFAD7B0C022F0EB
:10151000B1C023F0B2C024F0B3C025F0BAC026F0A9
:10152000BCC027F086EC24F015EF0BF0080EB419C0
:10153000D8A49DEF0AF09FEF0AF0DBEF0AF0B0C0ED
:1015400022F0B1C023F0B2C024F0B3C025F0BAC07D
:1015500026F0BCC027F00AEC1FF0050E0001C16F99
:101560000F0EC06FF10EE82EFED7C02FFCD7C12F93
:10157000FAD7B0C030F0B1C031F0B2C032F0B3C071
:1015800033F0B5C034F0B6C035F0B7C036F0B8C0EF
:1015900037F0B9C038F0BAC039F0BBC03AF0BCC0BF
:1015A0003BF0BDC03CF0BEC03DF0BFC03EF016EC0D
:1015B0000BF015EF0BF0B0C022F0B1C023F0B2C0B9
:1015C00024F0B3C025F0BAC026F0BCC027F00AEC66
:1015D0001FF0050E0001C16F0F0EC06FF10EE82E57
:1015E000FED7C02FFCD7C12FFAD7B0C030F0B1C0A2
:1015F00031F0B2C032F0B3C033F0B5C034F0B6C091
:1016000035F0B7C036F0B8C037F0B9C038F0BAC05E
:1016100039F0BBC03AF0BCC03BF0BDC03CF0BEC02E
:101620003DF0BFC03EF016EC0BF0120030C022F0CF
:1016300031C023F032C024F033C025F03CC026F086
:101640003DC027F03EC028F0DCEC21F0050E406ED6
:101650000F0E3F6EF10EE82EFED73F2EFCD7402E28
:10166000FAD7000030C022F031C023F032C024F09D
:1016700033C025F03CC026F03DC027F03EC028F026
:10168000DCEC21F0050E406E0F0E3F6EF10EE82EE1
:10169000FED73F2EFCD7402EFAD7000030C022F0F4
:1016A00031C023F032C024F033C025F03CC026F016
:1016B0003DC027F03EC028F0DCEC21F0050E406E66
:1016C0000F0E3F6EF10EE82EFED73F2EFCD7402EB8
:1016D000FAD7000030C022F031C023F032C024F02D
:1016E00033C025F03CC026F03DC027F03EC028F0B6
:1016F000DCEC21F0050E406E0F0E3F6EF10EE82E71
:10170000FED73F2EFCD7402EFAD7000030C022F083
:1017100031C023F032C024F033C025F039C026F0A8
:101720003BC027F086EC24F028EC29F03850020D5D
:10173000F3CF3FF0F4CF40F03F503624D96E405005
:101740003720DA6E26EC28F0DE500F5CDE501058A1
:10175000D8A0ADEF0BF0AFEF0BF096EF0BF030C071
:1017600022F031C023F032C024F033C025F03BC05A
:1017700026F002EC24F038C043F06BEF0EF0430685
:1017800043503424D96E000E3520DA6EDE04D8A41E
:10179000CCEF0BF0CEEF0BF008EF0CF030C022F0E6
:1017A00031C023F032C024F033C025F03CC026F015
:1017B0003DC027F03EC028F0DCEC21F0050E406E65
:1017C0000F0E3F6EF10EE82EFED73F2EFCD7402EB7
:1017D000FAD7000030C022F031C023F032C024F02C
:1017E00033C025F03CC026F03DC027F03EC028F0B5
:1017F000DCEC21F0050E406E0F0E3F6EF10EE82E70
:10180000FED73F2EFCD7402EFAD7000036EF0EF061
:1018100043503424D96E000E3520DA6E020EDE18E5
:10182000D8A415EF0CF017EF0CF051EF0CF030C00E
:1018300022F031C023F032C024F033C025F03CC088
:1018400026F03DC027F03EC028F0F2EC20F0050E57
:10185000406E0F0E3F6EF10EE82EFED73F2EFCD7E6
:10186000402EFAD7000030C022F031C023F032C041
:1018700024F033C025F03CC026F03DC027F03EC028
:1018800028F0F2EC20F0050E406E0F0E3F6EF10EC8
:10189000E82EFED73F2EFCD7402EFAD7000036EFB9
:1018A0000EF043503424D96E000E3520DA6E030E4C
:1018B000DE18D8A45EEF0CF060EF0CF0D2EF0CF065
:1018C00030C022F031C023F032C024F033C025F004
:1018D0003CC026F03DC027F03EC028F0DCEC21F0F3
:1018E000050E406E0F0E3F6EF10EE82EFED73F2E16
:1018F000FCD7402EFAD7000030C022F031C023F0D0
:1019000032C024F033C025F03CC026F03DC027F0A3
:101910003EC028F0DCEC21F0050E406E0F0E3F6E4D
:10192000F10EE82EFED73F2EFCD7402EFAD700004E
:1019300030C022F031C023F032C024F033C025F093
:101940003CC026F03DC027F03EC028F0DCEC21F082
:10195000050E406E0F0E3F6EF10EE82EFED73F2EA5
:10196000FCD7402EFAD7000030C022F031C023F05F
:1019700032C024F033C025F03CC026F03DC027F033
:101980003EC028F0DCEC21F0050E406E0F0E3F6EDD
:10199000F10EE82EFED73F2EFCD7402EFAD70000DE
:1019A00036EF0EF043503424D96E000E3520DA6E37
:1019B000040EDE18D8A4DFEF0CF0E1EF0CF02BEFF3
:1019C0000DF030C022F031C023F032C024F033C01B
:1019D00025F03CC026F03DC027F03EC028F0DCECEE
:1019E00021F0050E406E0F0E3F6EF10EE82EFED771
:1019F0003F2EFCD7402EFAD7000030C022F031C075
:101A000023F032C024F033C025F03CC026F03DC0A6
:101A100027F03EC028F0DCEC21F0050E406E0F0EE2
:101A20003F6EF10EE82EFED73F2EFCD7402EFAD7A0
:101A3000000030C022F031C023F032C024F033C0A7
:101A400025F039C026F03AC027F03BC028F0FFEC63
:101A50001FF0C4EF0CF043503424D96E000E352033
:101A6000DA6E050EDE18D8A438EF0DF03AEF0DF05F
:101A700084EF0DF030C022F031C023F032C024F0EA
:101A800033C025F03CC026F03DC027F03EC028F012
:101A9000F2EC20F0050E406E0F0E3F6EF10EE82EB8
:101AA000FED73F2EFCD7402EFAD7000030C022F0E0
:101AB00031C023F032C024F033C025F03CC026F002
:101AC0003DC027F03EC028F0F2EC20F0050E406E3D
:101AD0000F0E3F6EF10EE82EFED73F2EFCD7402EA4
:101AE000FAD7000030C022F031C023F032C024F019
:101AF00033C025F039C026F03AC027F03BC028F0AB
:101B0000FFEC1FF0C4EF0CF043503424D96E000EEC
:101B10003520DA6E060EDE18D8A491EF0DF093EFA3
:101B20000DF0DDEF0DF030C022F031C023F032C0F7
:101B300024F033C025F03CC026F03DC027F03EC065
:101B400028F0DCEC21F0050E406E0F0E3F6EF10E1A
:101B5000E82EFED73F2EFCD7402EFAD7000030C02B
:101B600022F031C023F032C024F033C025F03CC055
:101B700026F03DC027F03EC028F0DCEC21F0050E39
:101B8000406E0F0E3F6EF10EE82EFED73F2EFCD7B3
:101B9000402EFAD7000030C022F031C023F032C00E
:101BA00024F033C025F03CC026F03DC027F03EC0F5
:101BB00028F0DCEC21F0C4EF0CF043503424D96E53
:101BC000000E3520DA6E070EDE18D8A4EAEF0DF00D
:101BD000ECEF0DF036EF0EF030C022F031C023F004
:101BE00032C024F033C025F03CC026F03DC027F0C1
:101BF0003EC028F0F2EC20F0050E406E0F0E3F6E56
:101C0000F10EE82EFED73F2EFCD7402EFAD700006B
:101C100030C022F031C023F032C024F033C025F0B0
:101C20003CC026F03DC027F03EC028F0F2EC20F08A
:101C3000050E406E0F0E3F6EF10EE82EFED73F2EC2
:101C4000FCD7402EFAD7000030C022F031C023F07C
:101C500032C024F033C025F03CC026F03DC027F050
:101C60003EC028F0F2EC20F0C4EF0CF030C022F0BF
:101C700031C023F032C024F033C025F039C026F043
:101C80003BC027F086EC24F028EC29F04350020DED
:101C9000F3CF3FF0F4CF40F03F503624D96E4050A0
:101CA0003720DA6E26EC28F0DE500F5CDE5010583C
:101CB000D8A05DEF0EF05FEF0EF046EF0EF030C0F3
:101CC00022F031C023F032C024F033C025F03BC0F5
:101CD00026F002EC24F04350D8A471EF0EF073EF1D
:101CE0000EF0BFEF0BF0120080867C8E30C022F029
:101CF00031C023F032C024F033C025F03CC026F0C0
:101D00003DC027F03EC028F0DCEC21F0050E406E0F
:101D10000F0E3F6EF10EE82EFED73F2EFCD7402E61
:101D2000FAD7000030C022F031C023F032C024F0D6
:101D300033C025F03CC026F03DC027F03EC028F05F
:101D4000DCEC21F0050E406E0F0E3F6EF10EE82E1A
:101D5000FED73F2EFCD7402EFAD7000030C022F02D
:101D600031C023F032C024F033C025F03CC026F04F
:101D70003DC027F03EC028F0DCEC21F0050E406E9F
:101D80000F0E3F6EF10EE82EFED73F2EFCD7402EF1
:101D9000FAD7000030C022F031C023F032C024F066
:101DA00033C025F03CC026F03DC027F03EC028F0EF
:101DB000DCEC21F0050E406E0F0E3F6EF10EE82EAA
:101DC000FED73F2EFCD7402EFAD7000030C022F0BD
:101DD00031C023F032C024F033C025F039C026F0E2
:101DE0003BC027F086EC24F028EC29F0000E456E6D
:101DF0004550D8B4FEEF0EF000EF0FF0F8EF0EF004
:101E000030C022F031C023F032C024F033C025F0BE
:101E10003BC026F002EC24F038C043F0BCEF11F0D8
:101E2000430643503424D96E000E3520DA6EDE04AA
:101E3000D8A41DEF0FF01FEF0FF059EF0FF030C0D7
:101E400022F031C023F032C024F033C025F03CC072
:101E500026F03DC027F03EC028F0DCEC21F0050E56
:101E6000406E0F0E3F6EF10EE82EFED73F2EFCD7D0
:101E7000402EFAD7000030C022F031C023F032C02B
:101E800024F033C025F03CC026F03DC027F03EC012
:101E900028F0DCEC21F0050E406E0F0E3F6EF10EC7
:101EA000E82EFED73F2EFCD7402EFAD7000087EF52
:101EB00011F043503424D96E000E3520DA6E020E34
:101EC000DE18D8A466EF0FF068EF0FF0A2EF0FF066
:101ED00030C022F031C023F032C024F033C025F0EE
:101EE0003CC026F03DC027F03EC028F0F2EC20F0C8
:101EF000050E406E0F0E3F6EF10EE82EFED73F2E00
:101F0000FCD7402EFAD7000030C022F031C023F0B9
:101F100032C024F033C025F03CC026F03DC027F08D
:101F20003EC028F0F2EC20F0050E406E0F0E3F6E22
:101F3000F10EE82EFED73F2EFCD7402EFAD7000038
:101F400087EF11F043503424D96E000E3520DA6E3D
:101F5000030EDE18D8A4AFEF0FF0B1EF0FF023EFB0
:101F600010F030C022F031C023F032C024F033C072
:101F700025F03CC026F03DC027F03EC028F0DCEC48
:101F800021F0050E406E0F0E3F6EF10EE82EFED7CB
:101F90003F2EFCD7402EFAD7000030C022F031C0CF
:101FA00023F032C024F033C025F03CC026F03DC001
:101FB00027F03EC028F0DCEC21F0050E406E0F0E3D
:101FC0003F6EF10EE82EFED73F2EFCD7402EFAD7FB
:101FD000000030C022F031C023F032C024F033C002
:101FE00025F03CC026F03DC027F03EC028F0DCECD8
:101FF00021F0050E406E0F0E3F6EF10EE82EFED75B
:102000003F2EFCD7402EFAD7000030C022F031C05E
:1020100023F032C024F033C025F03CC026F03DC090
:1020200027F03EC028F0DCEC21F0050E406E0F0ECC
:102030003F6EF10EE82EFED73F2EFCD7402EFAD78A
:10204000000087EF11F043503424D96E000E352084
:10205000DA6E040EDE18D8A430EF10F032EF10F074
:102060007CEF10F030C022F031C023F032C024F0F9
:1020700033C025F03CC026F03DC027F03EC028F01C
:10208000DCEC21F0050E406E0F0E3F6EF10EE82ED7
:10209000FED73F2EFCD7402EFAD7000030C022F0EA
:1020A00031C023F032C024F033C025F03CC026F00C
:1020B0003DC027F03EC028F0DCEC21F0050E406E5C
:1020C0000F0E3F6EF10EE82EFED73F2EFCD7402EAE
:1020D000FAD7000030C022F031C023F032C024F023
:1020E00033C025F039C026F03AC027F03BC028F0B5
:1020F000FFEC1FF015EF10F043503424D96E000EA2
:102100003520DA6E050EDE18D8A489EF10F08BEFBB
:1021100010F0D5EF10F030C022F031C023F032C003
:1021200024F033C025F03CC026F03DC027F03EC06F
:1021300028F0F2EC20F0050E406E0F0E3F6EF10E0F
:10214000E82EFED73F2EFCD7402EFAD7000030C035
:1021500022F031C023F032C024F033C025F03CC05F
:1021600026F03DC027F03EC028F0F2EC20F0050E2E
:10217000406E0F0E3F6EF10EE82EFED73F2EFCD7BD
:10218000402EFAD7000030C022F031C023F032C018
:1021900024F033C025F039C026F03AC027F03BC008
:1021A00028F0FFEC1FF015EF10F043503424D96EE7
:1021B000000E3520DA6E060EDE18D8A4E2EF10F01D
:1021C000E4EF10F02EEF11F030C022F031C023F018
:1021D00032C024F033C025F03CC026F03DC027F0CB
:1021E0003EC028F0DCEC21F0050E406E0F0E3F6E75
:1021F000F10EE82EFED73F2EFCD7402EFAD7000076
:1022000030C022F031C023F032C024F033C025F0BA
:102210003CC026F03DC027F03EC028F0DCEC21F0A9
:10222000050E406E0F0E3F6EF10EE82EFED73F2ECC
:10223000FCD7402EFAD7000030C022F031C023F086
:1022400032C024F033C025F03CC026F03DC027F05A
:102250003EC028F0DCEC21F015EF10F043503424A0
:10226000D96E000E3520DA6E070EDE18D8A43BEFCB
:1022700011F03DEF11F087EF11F030C022F031C0C6
:1022800023F032C024F033C025F03CC026F03DC01E
:1022900027F03EC028F0F2EC20F0050E406E0F0E45
:1022A0003F6EF10EE82EFED73F2EFCD7402EFAD718
:1022B000000030C022F031C023F032C024F033C01F
:1022C00025F03CC026F03DC027F03EC028F0F2ECDF
:1022D00020F0050E406E0F0E3F6EF10EE82EFED779
:1022E0003F2EFCD7402EFAD7000030C022F031C07C
:1022F00023F032C024F033C025F03CC026F03DC0AE
:1023000027F03EC028F0F2EC20F015EF10F030C0BE
:1023100022F031C023F032C024F033C025F039C0A0
:1023200026F03BC027F086EC24F028EC29F043503F
:10233000020DF3CF3FF0F4CF40F03F503624D96E7A
:1023400040503720DA6E26EC28F0DE500F5CDE506D
:102350001058D8A0AEEF11F0B0EF11F097EF11F0D8
:1023600030C022F031C023F032C024F033C025F059
:102370003BC026F002EC24F04350D8A4C2EF11F089
:10238000C4EF11F010EF0FF01200010E9BEC28F0DB
:1023900080867C8E8EB4CFEF11F0D1EF11F0CAEFB2
:1023A00011F080967C9EC6C013F0C7C014F013ECE9
:1023B0001EF0C6C0D9FFC7C0DAFF00EE29F0070E35
:1023C000DBCFEBFFE806FCE2C8C031F0C9C032F059
:1023D00042EC17F0C8C0D9FFC9C0DAFFCAC0E1FF9C
:1023E000CBC0E2FFDECFE6FFDDCFE5FF000120EE50
:1023F00002F0C851D926C951DA2210EE02F0CA51B2
:10240000E126CB51E222DECFE6FFDDCFE5FF20EE75
:1024100004F0C851D926C951DA2210EE04F0CA518D
:10242000E126CB51E222DECFE6FFDDCFE5FF290E2C
:10243000406E960E3F6E7F0EE82EFED73F2EFCD7E5
:10244000402EFAD7000080867C8E8EB42AEF12F0E0
:102450002CEF12F025EF12F080967C9EC6C013F090
:10246000C7C014F013EC1EF0C6C0D9FFC7C0DAFF16
:1024700000EE29F0070EDBCFEBFFE806FCE2C8C058
:1024800031F0C9C032F042EC17F0C8C0D9FFC9C062
:10249000DAFFCCC0E1FFCDC0E2FFDECFE6FFDDCF4B
:1024A000E5FF000120EE02F0C851D926C951DA2219
:1024B00010EE02F0CC51E126CD51E222DECFE6FF54
:1024C000DDCFE5FF20EE04F0C851D926C951DA224C
:1024D00010EE04F0CC51E126CD51E222DECFE6FF32
:1024E000DDCFE5FF290E406E960E3F6E7F0EE82E83
:1024F000FED73F2EFCD7402EFAD7000080867C8E78
:102500008EB485EF12F087EF12F080EF12F0809614
:102510007C9EC6C013F0C7C014F013EC1EF0C6C0FA
:10252000D9FFC7C0DAFF00EE29F0070EDBCFEBFFC3
:10253000E806FCE2C8C031F0C9C032F042EC17F046
:10254000C8C0D9FFC9C0DAFFCEC0E1FFCFC0E2FFEB
:10255000DECFE6FFDDCFE5FF000120EE02F0C8513F
:10256000D926C951DA2210EE02F0CE51E126CF5120
:10257000E222DECFE6FFDDCFE5FF20EE04F0C8511A
:10258000D926C951DA2210EE04F0CE51E126CF51FE
:10259000E222DECFE6FFDDCFE5FF290E406E960E8C
:1025A0003F6E7F0EE82EFED73F2EFCD7402EFAD787
:1025B000000080867C8E8EB4E0EF12F0E2EF12F025
:1025C000DBEF12F080967C9EC6C013F0C7C014F0FB
:1025D00013EC1EF0C6C0D9FFC7C0DAFF00EE29F029
:1025E000070EDBCFEBFFE806FCE2C8C031F0C9C044
:1025F00032F042EC17F0C8C0D9FFC9C0DAFFD0C032
:10260000E1FFD1C0E2FFDECFE6FFDDCFE5FF000155
:1026100020EE02F0C851D926C951DA2210EE02F09C
:10262000D051E126D151E222DECFE6FFDDCFE5FF3A
:1026300020EE04F0C851D926C951DA2210EE04F078
:10264000D051E126D151E222DECFE6FFDDCFE5FF1A
:10265000290E406E960E3F6E7F0EE82EFED73F2E5F
:10266000FCD7402EFAD7000080867C8E8EB43BEFDC
:1026700013F03DEF13F036EF13F080967C9EC6C04A
:1026800013F0C7C014F013EC1EF0C6C0D9FFC7C0CA
:10269000DAFF00EE29F0070EDBCFEBFFE806FCE2E5
:1026A000C8C031F0C9C032F042EC17F0C8C0D9FF41
:1026B000C9C0DAFFD2C0E1FFD3C0E2FFDECFE6FF40
:1026C000DDCFE5FF000120EE02F0C851D926C95147
:1026D000DA2210EE02F0D251E126D351E222DECF0F
:1026E000E6FFDDCFE5FF20EE04F0C851D926C95141
:1026F000DA2210EE04F0D251E126D351E222DECFED
:10270000E6FFDDCFE5FF290E406E960E3F6E7F0E91
:10271000E82EFED73F2EFCD7402EFAD70000808649
:102720007C8E8EB496EF13F098EF13F091EF13F0C8
:1027300080967C9EC6C013F0C7C014F013EC1EF048
:10274000C6C0D9FFC7C0DAFF00EE29F0070EDBCF05
:10275000EBFFE806FCE2C8C031F0C9C032F042EC41
:1027600017F0C8C0D9FFC9C0DAFFD4C0E1FFD5C097
:10277000E2FFDECFE6FFDDCFE5FF000120EE02F055
:10278000C851D926C951DA2210EE02F0D451E126FF
:10279000D551E222DECFE6FFDDCFE5FF20EE04F0EB
:1027A000C851D926C951DA2210EE04F0D451E126DD
:1027B000D551E222DECFE6FFDDCFE5FF290E406EE8
:1027C000960E3F6E7F0EE82EFED73F2EFCD7402E92
:1027D000FAD7000080867C8E8EB4F1EF13F0F3EF11
:1027E00013F0ECEF13F080967C9EC6C013F0C7C0C8
:1027F00014F013EC1EF0C6C0D9FFC7C0DAFF00EE1C
:1028000029F0070EDBCFEBFFE806FCE2C8C031F091
:10281000C9C032F042EC17F0C8C0D9FFC9C0DAFF16
:10282000D6C0E1FFD7C0E2FFDECFE6FFDDCFE5FF98
:10283000000120EE02F0C851D926C951DA2210EE6B
:1028400002F0D651E126D751E222DECFE6FFDDCFFE
:10285000E5FF20EE04F0C851D926C951DA2210EE66
:1028600004F0D651E126D751E222DECFE6FFDDCFDC
:10287000E5FF290E406E960E3F6E7F0EE82EFED7C6
:102880003F2EFCD7402EFAD7000080867C8E8EB477
:102890004CEF14F04EEF14F047EF14F080967C9E4E
:1028A000C6C013F0C7C014F013EC1EF0C6C0D9FFA9
:1028B000C7C0DAFF00EE29F0070EDBCFEBFFE8061A
:1028C000FCE2C8C031F0C9C032F042EC17F0C8C019
:1028D000D9FFC9C0DAFFD8C0E1FFD9C0E2FFDECF1F
:1028E000E6FFDDCFE5FF000120EE02F0C851D9265A
:1028F000C951DA2210EE02F0D851E126D951E22274
:10290000DECFE6FFDDCFE5FF20EE04F0C851D9268B
:10291000C951DA2210EE04F0D851E126D951E22251
:10292000DECFE6FFDDCFE5FF290E406E960E3F6E4F
:102930007F0EE82EFED73F2EFCD7402EFAD70000A0
:1029400080867C8E120021EE00F0270EDE6AE806FB
:10295000FDE221EE7AF0270EDE6AE806FDE221EEC6
:1029600028F0510EDE6AE806FDE2000E0101DA6F82
:102970004BC0A2F14CC0A3F14DC0A4F14EC0A5F1D3
:10298000CAEC27F0AEEC27F0BDEC28F011EC29F0F2
:10299000DDEC28F0000E106EC70E0F6E4EEC26F028
:1029A000000E0101F66F010EF76F010EF86FAA0E0F
:1029B000FB6F0F0EFC6FA60EFD6F0F0EFE6F000E6D
:1029C000FA6FC70EF96F000EFF6F000EEC6F010E6D
:1029D000ED6F010EEE6F250EF16F0F0EF26F210EEF
:1029E000F36F0F0EF46F000EF06FC70EEF6F000E57
:1029F000F56F140ED96F010EDC6FC80EA66F1C0E9A
:102A0000A76F0D0EDD6F010EA86F66EC27F08EB478
:102A10000CEF15F00EEF15F007EF15F080967C9E89
:102A20007C868082290E0001DB6F960EDA6F7F0EA6
:102A3000E82EFED7DA2FFCD7DB2FFAD7E40E000101
:102A4000C66F010EC76FDE0EC86F010EC96FA90EEB
:102A5000CA6F010ECB6FAF0ECC6F010ECD6FB50EEE
:102A6000CE6F010ECF6FBB0ED06F010ED16FC10EB6
:102A7000D26F010ED36FC70ED46F010ED56FCD0E7E
:102A8000D66F010ED76FD30ED86F010ED96FC5EC7C
:102A900011F0F60E306E010E316EEC0E326E010E3C
:102AA000336E1C0E346EDD0E356E010E366E010E69
:102AB000376E91EC1BF0E40E136E010E146E13ECE6
:102AC0001EF021EEE4F000EE29F0070EDBCFEBFF65
:102AD000E806FCE2DE0E316E010E326E42EC17F0BB
:102AE00021EEDEF000EE0FF0050EDBCFEBFFE80687
:102AF000FCE221EEA9F000EE15F0050EDBCFEBFFB6
:102B0000E806FCE221EEAFF000EE1BF0050EDBCF95
:102B1000EBFFE806FCE221EEB5F000EE21F0050E39
:102B2000DBCFEBFFE806FCE221EEBBF000EE27F086
:102B3000050EDBCFEBFFE806FCE221EEC1F000EE74
:102B40002DF0050EDBCFEBFFE806FCE221EEC7F02F
:102B500000EE33F0050EDBCFEBFFE806FCE221EEE2
:102B6000CDF000EE39F0050EDBCFEBFFE806FCE21E
:102B700021EED3F000EE3FF0050EDBCFEBFFE806D1
:102B8000FCE2DEEC1CF00101DB6F010E9BEC28F097
:102B9000520E0001DB6F2B0EDA6F000EE82EFED70F
:102BA000DA2FFCD7DB2FFAD70000E40E136E010EEC
:102BB000146E13EC1EF0EAC14FF0EBC150F0290E79
:102BC0000001DB6F960EDA6F7F0EE82EFED7DA2F4C
:102BD000FCD7DB2FFAD7F60E226E010E236EEC0E19
:102BE000246E010E256E140E266E010E276E86ECE5
:102BF00024F028EC29F0000E466E000E456E4604C7
:102C0000D8A405EF16F007EF16F0F1EF16F00E015D
:102C1000299B29AB02D0298102D00E01299126ECF3
:102C200028F00101DA51020D280EF324D96E010EAD
:102C3000F420DA6E0FC0DEFF10C0DDFFF60E226E4C
:102C4000010E236EEC0E246E010E256EDCC126F003
:102C500002EC24F0F60E226E010E236EEC0E246EB2
:102C6000010E256ED9C126F0DCC127F0B0EC19F0B9
:102C7000E40E136E010E146E13EC1EF021EEE4F060
:102C800000EE29F0070EDBCFEBFFE806FCE2DE0EDC
:102C9000316E010E326E42EC17F021EEDEF000EEE6
:102CA0000FF0050EDBCFEBFFE806FCE221EEA9F00A
:102CB00000EE15F0050EDBCFEBFFE806FCE221EE9F
:102CC000AFF000EE1BF0050EDBCFEBFFE806FCE2F9
:102CD00021EEB5F000EE21F0050EDBCFEBFFE806AC
:102CE000FCE221EEBBF000EE27F0050EDBCFEBFFA0
:102CF000E806FCE221EEC1F000EE2DF0050EDBCF80
:102D0000EBFFE806FCE221EEC7F000EE33F0050E23
:102D1000DBCFEBFFE806FCE221EECDF000EE39F070
:102D2000050EDBCFEBFFE806FCE221EED3F000EE70
:102D30003FF0050EDBCFEBFFE806FCE2DEEC1CF01B
:102D40000101DB6F7A0EDA25D96EDA6A010EDA221A
:102D5000DBC1DFFFF60E0001B06F010EB16FEC0EAC
:102D6000B26F010EB36FDBC1B4F07A0EB56F010E16
:102D7000B66F280EB76F010EB86FDAC1B9F0D9C1BE
:102D8000BAF0A6C1BBF0DCC1BCF0A7C1BDF0DDC18B
:102D9000BEF0A8C1BFF001EC07F0E40E136E010E07
:102DA000146E13EC1EF0EAC14FF0EBC150F0050EAB
:102DB0000001DB6F0F0EDA6FF10EE82EFED7DA2F6F
:102DC000FCD7DB2FFAD70101DA2B28EC29F00E0112
:102DD000298B29AB02D0298102D00E012991000E46
:102DE000466E4504D8A4F7EF16F0F9EF16F02DEF74
:102DF00017F00E012991F60E226E010E236EEC0ED5
:102E0000246E010E256EDCC126F002EC24F0F60ED5
:102E1000306E010E316EEC0E326E010E336E7A0E94
:102E2000346E010E356E280E366E010E376EDAC125
:102E300038F0D9C139F0A6C13AF0DCC13BF0A7C1E6
:102E40003CF0DDC13DF0A8C13EF074EC0EF00E0187
:102E50002981000E456E40EF17F0080E0101DB19C5
:102E6000D8B435EF17F037EF17F040EF17F0090E31
:102E7000DB19D8A43EEF17F040EF17F0FFEF15F085
:102E800049EF00F029C00FF02AC010F0116A126A51
:102E9000100E136E270E146E000E156E000E166EB9
:102EA0000AEC27F00FC01BF010C01CF011C01DF081
:102EB00012C01EF0FF0E1F6E000E206E000E216E5F
:102EC000000E226E7CEC23F01BC0BAF01CC0BBF0DD
:102ED0002BC00FF02CC010F0116A126A100E136E86
:102EE000270E146E000E156E000E166E0AEC27F0FB
:102EF0000FC01BF010C01CF011C01DF012C01EF05E
:102F0000FF0E1F6E000E206E000E216E000E226E50
:102F10007CEC23F01BC0C2F01CC0C3F02DC00FF02E
:102F20002EC010F0116A126A100E136E270E146E66
:102F3000000E156E000E166E0AEC27F00FC01BF087
:102F400010C01CF011C01DF012C01EF0FF0E1F6E4D
:102F5000000E206E000E216E000E226E7CEC23F01F
:102F60001BC0C4F01CC0C5F0C2C00FF0C3C010F03D
:102F7000C4C011F0C5C012F0FBEC27F00FC0B6F0D2
:102F800010C0B7F0BAC00FF0BBC010F0B6C011F05F
:102F9000B7C012F0FBEC27F00FC0BCF010C0BDF0C2
:102FA000C2C00FF0C3C010F0C4C011F0C5C012F011
:102FB000E5EC27F00FC0B8F010C0B9F0BAC00FF0C0
:102FC000BBC010F0B8C011F0B9C012F0E5EC27F0AA
:102FD0000FC0B4F010C0B5F00001B451BC5D336E49
:102FE000B551BD59346E33C0BEF034C0BFF0C06BB4
:102FF000C16BBA51BC1907E1BB51BD19D8A403EF8D
:1030000018F005EF18F0ACEF18F0C251C45DC351D1
:10301000C559D8B00EEF18F010EF18F042EF18F0C5
:10302000C451C25D336EC551C359346E33C00FF005
:1030300034C010F0116A126A700E136E170E146EFF
:10304000000E156E000E166E0AEC27F00FC01BF076
:1030500010C01CF011C01DF012C01EF0BEC01FF049
:10306000BFC020F0C0C021F0C1C022F05AEC25F052
:1030700031C0D9FF32C0DAFF1BC0DEFF1CC0DDFF4C
:1030800064EF19F0C451C25DC551C359D8B04BEFBC
:1030900018F04DEF18F064EF19F0C451336EC551BC
:1030A000346E356A366ABEC00FF0BFC010F0C0C0C3
:1030B00011F0C1C012F0060E136E000E146E000E59
:1030C000156E000E166E0AEC27F00001C2510F2497
:1030D000376EC3511020386E000E1120396E000E6D
:1030E00012203A6E3350375CB06F34503858B16F9D
:1030F00035503958B26F36503A58B36FB0C00FF0F0
:10310000B1C010F0B2C011F0B3C012F0700E136E67
:10311000170E146E000E156E000E166E0AEC27F0D8
:103120000FC01BF010C01CF011C01DF012C01EF02B
:10313000BEC01FF0BFC020F0C0C021F0C1C022F04F
:103140005AEC25F031C0D9FF32C0DAFF1BC0DEFFD8
:103150001CC0DDFF64EF19F0C251BC1907E1C35177
:10316000BD19D8A4B6EF18F0B8EF18F005EF19F0B4
:10317000BA51336EBB51346E356A366AD890BE355B
:10318000376EBF35386EC035396EC1353A6EC451B1
:1031900037243B6EC55138203C6E000E39203D6E01
:1031A000000E3A203E6E33503B5C0F6E34503C585C
:1031B000106E35503D58116E36503E58126E700EDE
:1031C000136E170E146E000E156E000E166E0AECBE
:1031D00027F00FC01BF010C01CF011C01DF012C072
:1031E0001EF0BEC01FF0BFC020F0C0C021F0C1C0A3
:1031F00022F05AEC25F031C0D9FF32C0DAFF1BC0F3
:10320000DEFF1CC0DDFF64EF19F0C451BC1907E1FB
:10321000C551BD19D8A40FEF19F011EF19F064EFE3
:1032200019F0C251336EC351346E356A366ABEC06E
:1032300037F0BFC038F0C0C039F0C1C03AF0020E5C
:10324000D8903736383639363A36E82E20EF19F02E
:10325000BA5137243B6EBB5138203C6E000E3920EA
:103260003D6E000E3A203E6E33503B5C0F6E345084
:103270003C58106E35503D58116E36503E58126E07
:10328000700E136E170E146E000E156E000E166E75
:103290000AEC27F00FC01BF010C01CF011C01DF08D
:1032A00012C01EF0BEC01FF0BFC020F0C0C021F091
:1032B000C1C022F05AEC25F031C0D9FF32C0DAFF8C
:1032C0001BC0DEFF1CC0DDFFBEC00FF0BFC010F092
:1032D000C0C011F0C1C012F0100E136E270E146E94
:1032E000000E156E000E166E0AEC27F00FC01BF0D4
:1032F00010C01CF011C01DF012C01EF0BCC01FF0A9
:10330000BDC020F0216A226A5AEC25F020EE02F0BE
:103310003150D9263250DA221BC0DEFF1CC0DDFF3F
:1033200020EE02F03150D9263250DA22DE50DE1083
:10333000D8A49DEF19F09FEF19F0A5EF19F031C057
:10334000D9FF32C0DAFFDE6ADD6A20EE04F03150C8
:10335000D9263250DA22BCC0DEFFBDC0DDFF12002C
:10336000640E2B6E140E2C6E20EE01F02250D92626
:103370002350DA22010EDF6E20EE01F02450D92610
:103380002550DA22010EDF6E000E306E010E2F6E18
:1033900013EF1AF020EE09F02250D9262350DA223A
:1033A000DF502F2422C0D9FF23C0DAFFDF6E20EECA
:1033B00009F02450D9262550DA22DF502F2424C0CA
:1033C000D9FF25C0DAFFDF6E22C01CF023C01DF03C
:1033D000C6EC22F024C01CF025C01DF0C6EC22F083
:1033E000000E2E6E000E2D6EFFEF19F0D00E286E1F
:1033F000CA0EE82EFED7282EFCD72D4A2E2A27509B
:10340000286E296A28502D5C2E50800A2A6E295079
:10341000800A2A58D8A00FEF1AF011EF1AF0F6EF31
:1034200019F02F4A302A2650286E296A2F50285C1E
:103430002950800A2A6E3050800A2A58D8B023EFCB
:103440001AF025EF1AF0CAEF19F0000E2E6E000EDA
:103450002D6E34EF1AF0D00E286ECA0EE82EFED76D
:10346000282EFCD72D4A2E2A2B50286E296A285048
:103470002D5C2E50800A2A6E2950800A2A58D8A026
:1034800044EF1AF046EF1AF02BEF1AF026C02FF097
:10349000306A30BE50EF1AF04EEF1AF052EF1AF0C9
:1034A0009EEF1AF020EE09F02250D9262350DA229E
:1034B000DF502F2422C0D9FF23C0DAFFDF6E20EEB9
:1034C00009F02450D9262550DA22DF502F2424C0B9
:1034D000D9FF25C0DAFFDF6E22C01CF023C01DF02B
:1034E000C6EC22F024C01CF025C01DF0C6EC22F072
:1034F000000E2E6E000E2D6E87EF1AF0D00E286E85
:10350000CA0EE82EFED7282EFCD72D4A2E2A275089
:10351000286E296A28502D5C2E50800A2A6E295068
:10352000800A2A58D8A097EF1AF099EF1AF07EEF88
:103530001AF02F06D8A0300649EF1AF020EE01F05D
:103540002250D9262350DA22DF6A20EE01F02450DF
:10355000D9262550DA22DF6A000E306E010E2F6E5A
:10356000FBEF1AF020EE09F02250D9262350DA2280
:10357000DF502F2422C0D9FF23C0DAFFDF6E20EEF8
:1035800009F02450D9262550DA22DF502F2424C0F8
:10359000D9FF25C0DAFFDF6E22C01CF023C01DF06A
:1035A000C6EC22F024C01CF025C01DF0C6EC22F0B1
:1035B000000E2E6E000E2D6EE7EF1AF0D00E286E64
:1035C000CA0EE82EFED7282EFCD72D4A2E2A2750C9
:1035D000286E296A28502D5C2E50800A2A6E2950A8
:1035E000800A2A58D8A0F7EF1AF0F9EF1AF0DEEFA8
:1035F0001AF02F4A302A2650286E296A2F50285C4C
:103600002950800A2A6E3050800A2A58D8B00BEF11
:103610001BF00DEF1BF0B2EF1AF0000E2E6E000E35
:103620002D6E1CEF1BF0D00E286ECA0EE82EFED7B2
:10363000282EFCD72D4A2E2A2C50286E296A285075
:103640002D5C2E50800A2A6E2950800A2A58D8A054
:103650002CEF1BF02EEF1BF013EF1BF026C02FF00A
:10366000306A30BE38EF1BF036EF1BF03AEF1BF03C
:1036700086EF1BF020EE09F02250D9262350DA22E3
:10368000DF502F2422C0D9FF23C0DAFFDF6E20EEE7
:1036900009F02450D9262550DA22DF502F2424C0E7
:1036A000D9FF25C0DAFFDF6E22C01CF023C01DF059
:1036B000C6EC22F024C01CF025C01DF0C6EC22F0A0
:1036C000000E2E6E000E2D6E6FEF1BF0D00E286ECA
:1036D000CA0EE82EFED7282EFCD72D4A2E2A2750B8
:1036E000286E296A28502D5C2E50800A2A6E295097
:1036F000800A2A58D8A07FEF1BF081EF1BF066EFFD
:103700001BF02F06D8A0300631EF1BF022C0D9FFE6
:1037100023C0DAFFDF6A24C0D9FF25C0DAFFDF6AE1
:10372000120030C022F031C023F032C024F033C088
:1037300025F034C026F035C0D9FF36C0DAFFDF509F
:10374000276E37C028F0DCEC21F0050E396E0F0E25
:10375000386EF10EE82EFED7382EFCD7392EFAD768
:10376000000030C022F031C023F032C024F033C05A
:1037700025F034C026F035C0D9FF36C0DAFFDF505F
:10378000276E37C028F0DCEC21F0050E396E0F0EE5
:10379000386EF10EE82EFED7382EFCD7392EFAD728
:1037A000000030C022F031C023F032C024F033C01A
:1037B00025F034C026F035C0D9FF36C0DAFFDF501F
:1037C000276E37C028F0F2EC20F0050E396E0F0E90
:1037D000386EF10EE82EFED7382EFCD7392EFAD7E8
:1037E000000030C022F031C023F032C024F033C0DA
:1037F00025F034C026F035C0D9FF36C0DAFFDF50DF
:10380000276E37C028F0F2EC20F08EA40AEF1CF0EF
:103810000CEF1CF013EF1CF08EB611EF1CF013EF41
:103820001CF005EF1CF08EB418EF1CF01AEF1CF022
:103830002EEF1CF035C0D9FF36C0DAFFDF50D8B408
:1038400024EF1CF026EF1CF02EEF1CF035C0D9FF42
:1038500036C0DAFFDF067C8E3BEF1CF08EB633EF0E
:103860001CF035EF1CF03BEF1CF035C0D9FF36C023
:10387000DAFFDF2A8086290E396E960E386E7F0EAB
:10388000E82EFED7382EFCD7392EFAD700008EB698
:103890004CEF1CF04EEF1CF055EF1CF035C0D9FF7B
:1038A00036C0DAFFDF06CDEF1CF080967C9E30C07C
:1038B00022F031C023F032C024F033C025F034C0F0
:1038C00026F035C0D9FF36C0DAFFDF50276E37C08B
:1038D00028F0DCEC21F0050E396E0F0E386EF10E7B
:1038E000E82EFED7382EFCD7392EFAD7000030C08C
:1038F00022F031C023F032C024F033C025F034C0B0
:1039000026F035C0D9FF36C0DAFFDF50276E37C04A
:1039100028F0DCEC21F0050E396E0F0E386EF10E3A
:10392000E82EFED7382EFCD7392EFAD7000030C04B
:1039300022F031C023F032C024F033C025F034C06F
:1039400026F035C0D9FF36C0DAFFDF50276E37C00A
:1039500028F0F2EC20F0050E396E0F0E386EF10EE5
:10396000E82EFED7382EFCD7392EFAD7000030C00B
:1039700022F031C023F032C024F033C025F034C02F
:1039800026F035C0D9FF36C0DAFFDF50276E37C0CA
:1039900028F0F2EC20F005EF1CF080867C8E090EFA
:1039A000396E1E0E386EE40EE82EFED7382EFCD788
:1039B000392EFAD700D080967C9E1200180E15245E
:1039C0000001B06FFC0E1620B16F0F50B05D1050AB
:1039D000B159D8B0EEEF1CF0F0EF1CF005EF1DF080
:1039E000E80E1524B06F030E1620B16FB0510F5CB6
:1039F000B1511058D8B0FFEF1CF001EF1DF005EFEA
:103A00001DF0010EB26F11EF1EF0180E1B24B06FE7
:103A1000FC0E1C20B16F0F50B05D1050B159D8B0E2
:103A200014EF1DF016EF1DF02BEF1DF0E80E1B2418
:103A3000B06F030E1C20B16FB0510F5CB151105824
:103A4000D8B025EF1DF027EF1DF02BEF1DF0020E73
:103A5000B26F11EF1EF0180E2124B06FFC0E222061
:103A6000B16F0F50B05D1050B159D8B03AEF1DF0A2
:103A70003CEF1DF051EF1DF0E80E2124B06F030E56
:103A80002220B16FB0510F5CB1511058D8B04BEF3C
:103A90001DF04DEF1DF051EF1DF0030EB26F11EF51
:103AA0001EF0180E2724B06FFC0E2820B16F0F50A7
:103AB000B05D1050B159D8B060EF1DF062EF1DF04D
:103AC00077EF1DF0E80E2724B06F030E2820B16FAA
:103AD000B0510F5CB1511058D8B071EF1DF073EFB9
:103AE0001DF077EF1DF0040EB26F11EF1EF0180EEF
:103AF0002D24B06FFC0E2E20B16F0F50B05D105012
:103B0000B159D8B086EF1DF088EF1DF09DEF1DF084
:103B1000E80E2D24B06F030E2E20B16FB0510F5C54
:103B2000B1511058D8B097EF1DF099EF1DF09DEFEF
:103B30001DF0050EB26F11EF1EF0180E3324B06F9A
:103B4000FC0E3420B16F0F50B05D1050B159D8B099
:103B5000ACEF1DF0AEEF1DF0C3EF1DF0E80E332407
:103B6000B06F030E3420B16FB0510F5CB1511058DB
:103B7000D8B0BDEF1DF0BFEF1DF0C3EF1DF0060E76
:103B8000B26F11EF1EF0180E3924B06FFC0E3A2000
:103B9000B16F0F50B05D1050B159D8B0D2EF1DF0D9
:103BA000D4EF1DF0E9EF1DF0E80E3924B06F030EDD
:103BB0003A20B16FB0510F5CB1511058D8B0E3EF5B
:103BC0001DF0E5EF1DF0E9EF1DF0070EB26F11EFEC
:103BD0001EF0180E3F24B06FFC0E4020B16F0F5046
:103BE000B05D1050B159D8B0F8EF1DF0FAEF1DF0EC
:103BF0000FEF1EF0E80E3F24B06F030E4020B16FB0
:103C0000B0510F5CB1511058D8B009EF1EF00BEF56
:103C10001EF00FEF1EF0080EB26F11EF1EF0090E2E
:103C2000B26FB251120032EC29F0520E1CEC29F0A6
:103C3000B60E1CEC29F037EC29F0530E1CEC29F0E1
:103C4000010E8DEC27F0156E166A13C0D9FF14C053
:103C5000DAFF15C0DEFF16C0DDFF13C0D9FF14C0A8
:103C6000DAFFDECF15F0DDCF16F0000E8DEC27F079
:103C7000176E1750196E186A155018101A6E1650D4
:103C800019101B6E13C0D9FF14C0DAFF1AC0DEFF73
:103C90001BC0DDFF2DEC29F032EC29F0520E1CEC9C
:103CA00029F0B80E1CEC29F037EC29F0530E1CEC6F
:103CB00029F0010E8DEC27F0156E166A20EE02F049
:103CC0001350D9261450DA2215C0DEFF16C0DDFFCE
:103CD00020EE02F01350D9261450DA22DECF15F070
:103CE000DDCF16F0000E8DEC27F0176E1750196E11
:103CF000186A155018101A6E165019101B6E20EE07
:103D000002F01350D9261450DA221AC0DEFF1BC06D
:103D1000DDFF2DEC29F032EC29F0520E1CEC29F0DD
:103D2000BA0E1CEC29F037EC29F0530E1CEC29F0EC
:103D3000010E8DEC27F0156E166A20EE04F013507C
:103D4000D9261450DA2215C0DEFF16C0DDFF20EEA2
:103D500004F01350D9261450DA22DECF15F0DDCF4F
:103D600016F0000E8DEC27F0176E1750196E186ABA
:103D7000155018101A6E165019101B6E20EE04F014
:103D80001350D9261450DA221AC0DEFF1BC0DDFF03
:103D90002DEC29F032EC29F0520E1CEC29F0B40E77
:103DA0001CEC29F037EC29F0530E1CEC29F0010E25
:103DB0008DEC27F0156E166A20EE06F01350D9260A
:103DC0001450DA2215C0DEFF16C0DDFF20EE06F02B
:103DD0001350D9261450DA22DECF15F0DDCF16F0BD
:103DE000000E8DEC27F0176E1750196E186A1550DB
:103DF00018101A6E165019101B6E20EE06F0135094
:103E0000D9261450DA221AC0DEFF1BC0DDFF2DECCC
:103E100029F012001E0E2B6E20EE01F02250D92642
:103E20002350DA22DF6A20EE01F02450D9262550F3
:103E3000DA22DF6A000E2F6E010E2E6E69EF1FF080
:103E400020EE09F02250D9262350DA22DF502E240A
:103E500022C0D9FF23C0DAFFDF6E20EE09F0245024
:103E6000D9262550DA22DF502E2424C0D9FF25C0C0
:103E7000DAFFDF6E22C01CF023C01DF0C6EC22F07A
:103E800024C01CF025C01DF0C6EC22F0000E2D6EE3
:103E9000000E2C6E55EF1FF0D00E286ECA0EE82EC5
:103EA000FED7282EFCD72C4A2D2A2750286E296AA7
:103EB00028502C5C2D50800A2A6E2950800A2A58DE
:103EC000D8A065EF1FF067EF1FF04CEF1FF02E4AF0
:103ED0002F2A2650286E296A2E50285C2950800AE5
:103EE0002A6E2F50800A2A58D8B079EF1FF07BEF46
:103EF0001FF020EF1FF0000E2D6E000E2C6E8AEFCB
:103F00001FF0D00E286ECA0EE82EFED7282EFCD742
:103F10002C4A2D2A2B50286E296A28502C5C2D50B3
:103F2000800A2A6E2950800A2A58D8A09AEF1FF0DA
:103F30009CEF1FF081EF1FF026C02EF02F6A2FBEDE
:103F4000A6EF1FF0A4EF1FF0A8EF1FF0F4EF1FF093
:103F500020EE09F02250D9262350DA22DF502E24F9
:103F600022C0D9FF23C0DAFFDF6E20EE09F0245013
:103F7000D9262550DA22DF502E2424C0D9FF25C0AF
:103F8000DAFFDF6E22C01CF023C01DF0C6EC22F069
:103F900024C01CF025C01DF0C6EC22F0000E2D6ED2
:103FA000000E2C6EDDEF1FF0D00E286ECA0EE82E2C
:103FB000FED7282EFCD72C4A2D2A2750286E296A96
:103FC00028502C5C2D50800A2A6E2950800A2A58CD
:103FD000D8A0EDEF1FF0EFEF1FF0D4EF1FF02E068B
:103FE000D8A02F069FEF1FF022C0D9FF23C0DAFF11
:103FF000DF6A24C0D9FF25C0DAFFDF6A120020EE95
:1040000001F02250D9262350DA22DF6A20EE01F097
:104010002450D9262550DA22DF6A000E2F6E010EB9
:104020002E6E5CEF20F020EE09F02250D9262350AE
:10403000DA22DF502E2422C0D9FF23C0DAFFDF6E40
:1040400020EE09F02450D9262550DA22DF502E2404
:1040500024C0D9FF25C0DAFFDF6E22C01CF023C0C8
:104060001DF0C6EC22F024C01CF025C01DF0C6ECEB
:1040700022F0000E2D6E000E2C6E48EF20F0D00EB8
:10408000296ECA0EE82EFED7292EFCD72C4A2D2ADF
:104090002850296E2A6A29502C5C2D50800A2B6EDC
:1040A0002A50800A2B58D8A058EF20F05AEF20F061
:1040B0003FEF20F02E4A2F2A2650296E2A6A2E50D2
:1040C000295C2A50800A2B6E2F50800A2B58D8B0BA
:1040D0006CEF20F06EEF20F013EF20F0000E2D6E4D
:1040E000000E2C6E7DEF20F0D00E296ECA0EE82E49
:1040F000FED7292EFCD72C4A2D2A2750296E2A6A52
:1041000029502C5C2D50800A2B6E2A50800A2B5887
:10411000D8A08DEF20F08FEF20F074EF20F026C0B4
:104120002EF02F6A2FBE99EF20F097EF20F09BEF33
:1041300020F0E7EF20F020EE09F02250D92623509E
:10414000DA22DF502E2422C0D9FF23C0DAFFDF6E2F
:1041500020EE09F02450D9262550DA22DF502E24F3
:1041600024C0D9FF25C0DAFFDF6E22C01CF023C0B7
:104170001DF0C6EC22F024C01CF025C01DF0C6ECDA
:1041800022F0000E2D6E000E2C6ED0EF20F0D00E1F
:10419000296ECA0EE82EFED7292EFCD72C4A2D2ACE
:1041A0002850296E2A6A29502C5C2D50800A2B6ECB
:1041B0002A50800A2B58D8A0E0EF20F0E2EF20F040
:1041C000C7EF20F02E06D8A02F0692EF20F022C0D5
:1041D000D9FF23C0DAFFDF6A24C0D9FF25C0DAFF88
:1041E000DF6A120020EE01F02250D9262350DA2295
:1041F000010EDF6E20EE01F02450D9262550DA2280
:10420000DF6A000E2F6E010E2E6E50EF21F020EEB1
:1042100009F02250D9262350DA22DF502E2422C062
:10422000D9FF23C0DAFFDF6E20EE09F02450D92633
:104230002550DA22DF502E2424C0D9FF25C0DAFF12
:10424000DF6E22C01CF023C01DF0C6EC22F024C09B
:104250001CF025C01DF0C6EC22F0000E2D6E000EE5
:104260002C6E3CEF21F0D00E296ECA0EE82EFED740
:10427000292EFCD72C4A2D2A2850296E2A6A29502B
:104280002C5C2D50800A2B6E2A50800A2B58D8A007
:104290004CEF21F04EEF21F033EF21F02E4A2F2A80
:1042A0002650296E2A6A2E50295C2A50800A2B6ECD
:1042B0002F50800A2B58D8B060EF21F062EF21F028
:1042C00007EF21F0000E2D6E000E2C6E71EF21F025
:1042D000D00E296ECA0EE82EFED7292EFCD72C4A06
:1042E0002D2A2750296E2A6A29502C5C2D50800ACD
:1042F0002B6E2A50800A2B58D8A081EF21F083EF33
:1043000021F068EF21F026C02EF02F6A2FBE8DEF2E
:1043100021F08BEF21F08FEF21F0DBEF21F020EE89
:1043200009F02250D9262350DA22DF502E2422C051
:10433000D9FF23C0DAFFDF6E20EE09F02450D92622
:104340002550DA22DF502E2424C0D9FF25C0DAFF01
:10435000DF6E22C01CF023C01DF0C6EC22F024C08A
:104360001CF025C01DF0C6EC22F0000E2D6E000ED4
:104370002C6EC4EF21F0D00E296ECA0EE82EFED7A7
:10438000292EFCD72C4A2D2A2850296E2A6A29501A
:104390002C5C2D50800A2B6E2A50800A2B58D8A0F6
:1043A000D4EF21F0D6EF21F0BBEF21F02E06D8A0FC
:1043B0002F0686EF21F0120020EE01F02250D926C0
:1043C0002350DA22DF6A20EE01F02450D92625504E
:1043D000DA22010EDF6E000E2F6E010E2E6E3AEF06
:1043E00022F020EE09F02250D9262350DA22DF50A5
:1043F0002E2422C0D9FF23C0DAFFDF6E20EE09F0A1
:104400002450D9262550DA22DF502E2424C0D9FF8B
:1044100025C0DAFFDF6E22C01CF023C01DF0C6EC01
:1044200022F024C01CF025C01DF0C6EC22F0000EC6
:104430002D6E000E2C6E26EF22F0D00E296ECA0EC5
:10444000E82EFED7292EFCD72C4A2D2A2850296E7B
:104450002A6A29502C5C2D50800A2B6E2A50800A23
:104460002B58D8A036EF22F038EF22F01DEF22F0C3
:104470002E4A2F2A2650296E2A6A2E50295C2A504D
:10448000800A2B6E2F50800A2B58D8B04AEF22F0AA
:104490004CEF22F0F1EF21F0000E2D6E000E2C6E8D
:1044A0005BEF22F0D00E296ECA0EE82EFED7292E21
:1044B000FCD72C4A2D2A2750296E2A6A29502C5CB9
:1044C0002D50800A2B6E2A50800A2B58D8A06BEFF3
:1044D00022F06DEF22F052EF22F026C02EF02F6A6C
:1044E0002FBE77EF22F075EF22F079EF22F0C5EFC3
:1044F00022F020EE09F02250D9262350DA22DF5094
:104500002E2422C0D9FF23C0DAFFDF6E20EE09F08F
:104510002450D9262550DA22DF502E2424C0D9FF7A
:1045200025C0DAFFDF6E22C01CF023C01DF0C6ECF0
:1045300022F024C01CF025C01DF0C6EC22F0000EB5
:104540002D6E000E2C6EAEEF22F0D00E296ECA0E2C
:10455000E82EFED7292EFCD72C4A2D2A2850296E6A
:104560002A6A29502C5C2D50800A2B6E2A50800A12
:104570002B58D8A0BEEF22F0C0EF22F0A5EF22F01A
:104580002E06D8A02F0670EF22F0120020EE02F0C7
:104590001C50D9261D50DA22DF50D8B4D2EF22F0B9
:1045A000D4EF22F008EF23F01CC0D9FF1DC0DAFFC2
:1045B000DF501E6E1E500F6E106A20EE03F01C506E
:1045C000D9261D50DA22DECF11F0DDCF12F062ECD9
:1045D00028F00FC015F010C016F0000E186E640E13
:1045E000176E96EC26F020EE03F01C50D9261D50D5
:1045F000DA22DF501F6E15501F5C206E20EE03F094
:104600001C50D9261D50DA22DF50216E2BEF23F0EB
:10461000000E206E1CC0D9FF1DC0DAFFDF501E6ED9
:104620001E500F6E106A20EE03F01C50D9261D504C
:10463000DA22DECF11F0DDCF12F062EC28F00FC0ED
:1046400015F010C016F0000E186E640E176E96EC82
:1046500026F01550216E20EE01F01C50D9261D5079
:10466000DA22DF50D8B437EF23F039EF23F05BEFD5
:1046700023F020EE05F01C50D9261D50DA22DECFA3
:104680001EF0DDCF1FF01EC0D9FF1FC0DAFF20C013
:10469000DFFF20EE07F01C50D9261D50DA22DECFB6
:1046A0001EF0DDCF1FF01EC0D9FF1FC0DAFF21C0F2
:1046B000DFFF7BEF23F020EE05F01C50D9261D50C4
:1046C000DA22DECF1EF0DDCF1FF01EC0D9FF1FC0E3
:1046D000DAFF21C0DFFF20EE07F01C50D9261D5065
:1046E000DA22DECF1EF0DDCF1FF01EC0D9FF1FC0C3
:1046F000DAFF20C0DFFF1200000E246E22BE85EF1D
:1047000023F083EF23F08FEF23F0221E211E201EC3
:104710001F6C000E202221222222010E246E1EBEBA
:1047200096EF23F094EF23F0A0EF23F01E1E1D1E42
:104730001C1E1B6C000E1C221D221E22010E241AA0
:10474000000E256E000E266E000E276E000E286EDF
:104750001F50201021102210D8B4B1EF23F0B3EF76
:1047600023F0E9EF23F0010E236EBDEF23F0D89084
:104770001F36203621362236232A22AEC2EF23F0FE
:10478000C4EF23F0B7EF23F0D8902536263627362E
:1047900028361F501B5C20501C5821501D58225099
:1047A0001E58D8A0D6EF23F0D8EF23F0E1EF23F086
:1047B0001F501B5E20501C5A21501D5A22501E5A59
:1047C0002580D8902232213220321F32232EC4EF8E
:1047D00023F02450D8B4EFEF23F0F1EF23F0F9EFFA
:1047E00023F0281E271E261E256C000E26222722B7
:1047F000282225C01BF026C01CF027C01DF028C0B1
:104800001EF0120020EE01F02250D9262350DA22A9
:10481000010EDF6E20EE01F02450D9262550DA2259
:10482000010EDF6E22C0D9FF23C0DAFFDF50276EF2
:1048300020EE09F02250D9262350DA22DF50286ECC
:104840002850275C2C6E2D6AD8A02D062DBE2DEF8A
:1048500024F02BEF24F02FEF24F07BEF24F020EE58
:1048600009F02250D9262350DA22DF502C2422C00E
:10487000D9FF23C0DAFFDF6E20EE09F02450D926DD
:104880002550DA22DF502C2424C0D9FF25C0DAFFBE
:10489000DF6E22C01CF023C01DF0C6EC22F024C045
:1048A0001CF025C01DF0C6EC22F0000E2B6E000E91
:1048B0002A6E64EF24F0D00E276ECA0EE82EFED7C3
:1048C000272EFCD72A4A2B2A2650276E286A2750E3
:1048D0002A5C2B50800A296E2850800A2958D8A0BB
:1048E00074EF24F076EF24F05BEF24F02C06D8A0D0
:1048F0002D0626EF24F022C0D9FF23C0DAFFDF6A9D
:1049000024C0D9FF25C0DAFFDF6A120020EE01F0D3
:104910002250D9262350DA22010EDF6E20EE01F05C
:104920002450D9262550DA22010EDF6E000E2E6E9D
:10493000010E2D6EE5EF24F020EE09F02250D9266D
:104940002350DA22DF502D2422C0D9FF23C0DAFF02
:10495000DF6E20EE09F02450D9262550DA22DF50F0
:104960002D2424C0D9FF25C0DAFFDF6E22C01CF041
:1049700023C01DF0C6EC22F024C01CF025C01DF0A1
:10498000C6EC22F0000E2C6E000E2B6ED1EF24F040
:10499000D00E286ECA0EE82EFED7282EFCD72B4A42
:1049A0002C2A2750286E296A28502B5C2C50800A0C
:1049B0002A6E2950800A2A58D8A0E1EF24F0E3EFAC
:1049C00024F0C8EF24F02D4A2E2A2650286E296A9A
:1049D0002D50285C2950800A2A6E2E50800A2A58B1
:1049E000D8B0F5EF24F0F7EF24F09CEF24F012009C
:1049F000000E146E12BE01EF25F0FFEF24F007EF5A
:104A000025F0116C121ED8B0122A010E146E10BEC1
:104A10000EEF25F00CEF25F014EF25F00F6C101EB3
:104A2000D8B0102A010E141A000E166E000E156E64
:104A300011501210D8B41FEF25F021EF25F049EFE7
:104A400025F0010E136E29EF25F0D890113612369D
:104A5000132A12AE2EEF25F030EF25F025EF25F0CA
:104A6000D8901536163611500F5C12501058D8A039
:104A70003CEF25F03EEF25F043EF25F011500F5E9F
:104A80001250105A1580D89012321132132E30EF76
:104A900025F01450D8B44FEF25F051EF25F055EF25
:104AA00025F0156C161ED8B0162A15C00FF016C0CA
:104AB00010F01200000E236E000E246E000E256E04
:104AC000000E266E1F50201021102210D8B46BEF5C
:104AD00025F06DEF25F0A3EF25F0010E276E77EF9F
:104AE00025F0D8901F36203621362236272A22AECE
:104AF0007CEF25F07EEF25F071EF25F0D89023367E
:104B00002436253626361F501B5C20501C58215059
:104B10001D5822501E58D8A090EF25F092EF25F096
:104B20009BEF25F01F501B5E20501C5A21501D5A30
:104B300022501E5A2380D8902232213220321F3236
:104B4000272E7EEF25F023C01BF024C01CF025C0CB
:104B50001DF026C01EF0120032EC29F0520E1CECA3
:104B600029F0E60E1CEC29F02DEC29F04FC015F0D1
:104B700050C016F0000E186E030E176E96EC26F05D
:104B80004F5015241D6E505016201E6E4FC015F04C
:104B900050C016F0000E186E030E176E96EC26F03D
:104BA00015504F5C1F6E16505058206E130E116E2C
:104BB000000EADEC28F03F0E1C6E550EE82EFED711
:104BC0001C2EFCD700001E50116E070EADEC28F015
:104BD0001DC011F0060EADEC28F02050116E050E30
:104BE000ADEC28F01FC011F0040EADEC28F0040E5F
:104BF000116E0C0EADEC28F0120041EC29F0520EB3
:104C000022EC29F0E60E22EC29F03CEC29F04FC012
:104C100001F050C002F0000E046E030E036ED0ECE3
:104C200026F04F500124096E505002200A6E4FC0EA
:104C300001F050C002F0000E046E030E036ED0ECC3
:104C400026F001504F5C0B6E025050580C6E130E44
:104C5000036E000ECDEC28F03F0E086E550EE82EC8
:104C6000FED7082EFCD700000A50036E070ECDECCD
:104C700028F009C003F0060ECDEC28F00C50036EAE
:104C8000050ECDEC28F00BC003F0040ECDEC28F09F
:104C9000040E036E0C0ECDEC28F012007D9485946A
:104CA0007D9885987B9E839E7F9C879C050E0E0138
:104CB000746F060E766F070E696F080E886FBD5011
:104CC0008F0B3009BD6EE00EBE16BF50F00B010910
:104CD000BF6E0FC0BCFFBD8E000EAA6E000EA66E8A
:104CE000000E0F01256F000E216FFC0EAD16F30EA6
:104CF000AD16CF0EAD163F0EAD16AB88AB50F00B18
:104D00000C09AB6EAB8EA788A750F00B0C09A76EF1
:104D1000A78E26892651F00B0C09266F268F228933
:104D20002251F00B0C09226F228F1200000E1A6E16
:104D3000000E196E17501810D8B4A1EF26F0A3EF8B
:104D400026F0CBEF26F0010E1B6EABEF26F0D890CD
:104D5000173618361B2A18AEB0EF26F0B2EF26F041
:104D6000A7EF26F0D89019361A361750155C185050
:104D70001658D8A0BEEF26F0C0EF26F0C5EF26F0FB
:104D80001750155E1850165A1980D89018321732DD
:104D90001B2EB2EF26F019C015F01AC016F0120043
:104DA000000E066E000E056E03500410D8B4DBEF43
:104DB00026F0DDEF26F005EF27F0010E076EE5EF98
:104DC00026F0D89003360436072A04AEEAEF26F020
:104DD000ECEF26F0E1EF26F0D890053606360350CA
:104DE000015C04500258D8A0F8EF26F0FAEF26F044
:104DF000FFEF26F00350015E0450025A0580D89060
:104E000004320332072EECEF26F005C001F006C095
:104E100002F01200000E176E000E186E000E196ED2
:104E2000000E1A6E0FA017EF27F019EF27F021EFF1
:104E300027F0135017261450182215501922165017
:104E40001A22D8901336143615361636D8901232E8
:104E5000113210320F320F50101011101210D8A44E
:104E600034EF27F036EF27F012EF27F017C00FF0DE
:104E700018C010F019C011F01AC012F012008C0EF8
:104E8000F66E520EF76E000EF86E00EE4BF010EE5E
:104E900006F00900F5CFEEFFE550E150FAE102EE31
:104EA00000F0A20EEE6AE806FDE100EE60F0500EA2
:104EB000EE6AE806FDE14A6A496A486A476A466A54
:104EC000456A519051920001A3EF14F0ECEC28F0E8
:104ED000F9EC28F0176E17C00FF0106A000E126E72
:104EE000180E116EF8EC24F00F50186E18A27BEF1C
:104EF00027F07DEF27F080EF27F07C8E81EF27F001
:104F00007C9E18A086EF27F088EF27F08BEF27F024
:104F100080868CEF27F080961200116E3AEC28F014
:104F20000E01DA873AEC28F0D5CE12F03AEC28F0F0
:104F30001150D8B49EEF27F0A2EF27F0106A102A84
:104F4000A3EF27F0106A103A10460E01DA5110183C
:104F5000DF0B1018DA6FDA891250120011EC28F00A
:104F6000010E116E000EADEC28F03F0E216E550EB5
:104F7000E82EFED7212EFCD70000030E116E000E86
:104F8000ADEC28F0D50E116E010EADEC28F0ACECB6
:104F900025F012007C9E849E8096889686840E0161
:104FA000B4958686B497809288927C9884987C96F3
:104FB0008496A797809088907E9086907F90879027
:104FC0007D9E859E79968196120011500F5C12503D
:104FD0001058D8B0EEEF27F0F0EF27F0F6EF27F0FB
:104FE0000FC00FF010C010F0FAEF27F011C00FF053
:104FF00012C010F012000F50115C10501258D8B0AF
:1050000004EF28F006EF28F00CEF28F00FC00FF0A7
:1050100010C010F010EF28F011C00FF012C010F007
:1050200012000E01D951F00B0809D96FD98B9F0ED0
:10503000D66F848A848CA79BA79D1D0E1D6F1E0EA4
:105040001C6F1C0E6F6F1B0E706F1200D3CF13F00E
:10505000146AD4CF15F0166A1550126E116A1350E7
:105060001110176E14501210186E17C00FF018C0E0
:1050700010F012000E01D8B540EF28F042EF28F0F2
:105080003AEF28F0DACE0FF01F0E0F16D8A44BEF30
:1050900028F04DEF28F03AEF28F012000E01D8B5B5
:1050A00054EF28F056EF28F04EEF28F0DACE01F05A
:1050B0001F0E0116D8A45FEF28F061EF28F04EEF25
:1050C00028F012000F501102F3CF13F0F4CF14F0B8
:1050D0000F501202F350142610501102F3501426F0
:1050E00013C00FF014C010F01200016E130E4A64CA
:1050F0007CEF28F07EEF28F080EF28F0000E4A6E5B
:105100004A509C0FD96EDA6A01C0DFFF4A2A1200AA
:105110003B0E47648EEF28F090EF28F092EF28F0D6
:10512000000E476E472A4704016E0150600FD96E8A
:10513000DA6ADF5012000F6E0F50D8B4A2EF28F0D9
:10514000A4EF28F0A9EF28F07F807D8E7986ACEF60
:1051500028F07F907D9E79961200126E32EC29F035
:10516000520E1CEC29F0125080091CEC29F0115051
:105170001CEC29F02DEC29F01200D6501F0B400931
:10518000D66ED688D650F00B0B09D66ED588000E99
:10519000D46E000ED36ED58E1200046E41EC29F051
:1051A000520E22EC29F00450800922EC29F0035021
:1051B00022EC29F03CEC29F01200120E0E01626F75
:1051C000110E156FE997E895330EE56F000EE66F47
:1051D000E789E88BE78F1200868C0E01B48D0F01F2
:1051E0005899FC0E58172E0E5F6F60946088608E81
:1051F0001200608060B0FFEF28F001EF29F0FAEFB5
:1052000028F064CF0FF00F50120047504818D8A470
:105210000CEF29F00FEF29F0010E10EF29F0000E2E
:10522000120082800E019A9129811F81F290298BB0
:105230002D87F28CF28E1200106E3AEC28F010C01E
:10524000D5FE1200026E4EEC28F002C0D5FE120010
:10525000000ED46E000ED36E12003AEC28F00E0150
:10526000DA8512003AEC28F00E01DA8112003AECED
:1052700028F00E01DA8312004EEC28F00E01DA85D8
:1052800012004EEC28F00E01DA8112000201010832
:02529000F40127
:020000040030CA
:02000000AAFF55
:020004009FFF5C
:00000001FF
