:0400000032EF00F0EB
:100008005982D9CF02F0DACF03F00E0137A70FEFEC
:1000180000F011EF00F014EF00F0E351E4EC0CF005
:100028000E0137A51AEF00F01CEF00F02CEF00F0DE
:10003800F7EC0CF00E01E46F54EC0DF00009D8A4B5
:1000480028EF00F02AEF00F02CEF00F00E012D95BC
:1000580003C0DAFF02C0D9FF599211008FEF0CF0EC
:100E000000723D256420673D256420623D256420F5
:100E1000633D25642020206E3A20723D25642067C2
:100E20003D256420623D25640D0A000070EC0DF044
:100E3000520E60EC0DF0B60E60EC0DF066EC0DF0AD
:100E4000530E60EC0DF0010EE6EC0BF0096E0A6A31
:100E50000850D96EDA6A09C0DEFF0AC0DDFF08500B
:100E6000D96EDA6ADECF09F0DDCF0AF0000EE6ECCB
:100E70000BF00B6E0B500D6E0C6A09500C100E6EC1
:100E80000A500D100F6E0850D96EDA6A0EC0DEFFE0
:100E90000FC0DDFF6BEC0DF070EC0DF0520E60EC4E
:100EA0000DF0B80E60EC0DF066EC0DF0530E60EC3A
:100EB0000DF0010EE6EC0BF0096E0A6A0850D96ECF
:100EC000DA6A020ED92609C0DEFF0AC0DDFF08502B
:100ED000D96EDA6A020ED926DECF09F0DDCF0AF02C
:100EE000000EE6EC0BF00B6E0B500D6E0C6A095009
:100EF0000C100E6E0A500D100F6E0850D96EDA6A83
:100F0000020ED9260EC0DEFF0FC0DDFF6BEC0DF028
:100F100070EC0DF0520E60EC0DF0BA0E60EC0DF0BE
:100F200066EC0DF0530E60EC0DF0010EE6EC0BF0EC
:100F3000096E0A6A0850D96EDA6A040ED92609C009
:100F4000DEFF0AC0DDFF0850D96EDA6A040ED9262A
:100F5000DECF09F0DDCF0AF0000EE6EC0BF00B6EF1
:100F60000B500D6E0C6A09500C100E6E0A500D10CD
:100F70000F6E0850D96EDA6A040ED9260EC0DEFF55
:100F80000FC0DDFF6BEC0DF070EC0DF0520E60EC5D
:100F90000DF0B40E60EC0DF066EC0DF0530E60EC4D
:100FA0000DF0010EE6EC0BF0096E0A6A0850D96EDE
:100FB000DA6A060ED92609C0DEFF0AC0DDFF085036
:100FC000D96EDA6A060ED926DECF09F0DDCF0AF037
:100FD000000EE6EC0BF00B6E0B500D6E0C6A095018
:100FE0000C100E6E0A500D100F6E0850D96EDA6A92
:100FF000060ED9260EC0DEFF0FC0DDFF6BEC0DF034
:1010000012000F50D96EDA6ADFCFF6FF0E0EF76EC0
:101010000800F550250AD8A410EF08F012EF08F0E8
:10102000CBEF08F00F50D96EDA6ADF2A000E516E4E
:10103000000E506E50C054F0526853680F50D96E75
:10104000DA6ADF50136E13C0F6FF0E0EF76E08005B
:10105000F550640AD8B42FEF08F031EF08F03FEFF5
:1010600008F013C0F6FF0E0EF76E0800F550690A7F
:10107000D8A43DEF08F03FEF08F0C5EF08F010509E
:10108000D96EDA6A020EDF26DF5CD96EDA6ADECF4D
:1010900014F0DECF15F00F50D96EDA6A1328DF6E28
:1010A000200E186E15BE57EF08F05AEF08F0010E2B
:1010B0005BEF08F0000E126E180618509C0FD96EE8
:1010C000DA6A14C004F015C005F0000E076E0A0EAF
:1010D000066ED3EC0AF004C00AF005C00BF05BEC1E
:1010E0000CF00A50300FDF6E14C004F015C005F08C
:1010F000000E076E0A0E066E71EC0AF004C014F0C2
:1011000005C015F014501510D8B489EF08F08BEF16
:1011100008F093EF08F01850D8A491EF08F093EF7F
:1011200008F05CEF08F01850D8B499EF08F09BEF86
:1011300008F0BAEF08F01250D8B4A1EF08F0A3EF0E
:1011400008F0BAEF08F0180618509C0FD96EDA6A4A
:101150002D0EDF6EBAEF08F018509C0FD96EDA6AC8
:10116000DF50116E1150046E056A0EC006F02BECB4
:101170000BF0182A200E1818D8A4C1EF08F0C3EFFE
:1011800008F0ACEF08F0DCEF08F00F50D96EDA6A27
:10119000DF2ADCEF08F00F50D96EDA6ADFCFF6FFF6
:1011A0000E0EF76E0800F550046E056A0EC006F0CC
:1011B0002BEC0BF0C5EF08F012002650D96EDA6A5E
:1011C000060ED92624C0DEFF25C0DDFF1EC004F0B8
:1011D0001FC005F0066A076AE80E086E030E096E66
:1011E000000E0A6E000E0B6E80EC0BF004C010F0C7
:1011F00005C011F006C012F007C013F022502024E1
:10120000276E23502120286E1E5027261F5028228B
:1012100027C014F028C015F0166A176A7EEC09F092
:101220002650D96EDA6A10C0DEFF11C0DDFF20C083
:1012300004F021C005F0066A076AE80E086E030E86
:10124000096E000E0A6E000E0B6E80EC0BF004C0EF
:1012500010F005C011F006C012F007C013F02250C4
:101260002024276E23502120286E1E5027261F5031
:10127000282227C014F028C015F0166A176A7EECE1
:1012800009F02650D96EDA6A020ED92610C0DEFFA8
:1012900011C0DDFF22C004F023C005F0066A076A12
:1012A000E80E086E030E096E000E0A6E000E0B6E3D
:1012B00080EC0BF004C010F005C011F006C012F075
:1012C00007C013F022502024276E23502120286EBF
:1012D0001E5027261F50282227C014F028C015F0C2
:1012E000166A176A7EEC09F02650D96EDA6A040E87
:1012F000D92610C0DEFF11C0DDFF1200000E196EEE
:1013000017BE87EF09F085EF09F091EF09F0171E7E
:10131000161E151E146C000E152216221722010E21
:10132000196E13BE98EF09F096EF09F0A2EF09F0DD
:10133000131E121E111E106C000E112212221322F7
:10134000010E191A000E1A6E000E1B6E000E1C6E96
:10135000000E1D6E1450151016101710D8B4B3EFF0
:1013600009F0B5EF09F0EBEF09F0010E186EBFEFD1
:1013700009F0D8901436153616361736182A17AED7
:10138000C4EF09F0C6EF09F0B9EF09F0D8901A36AA
:101390001B361C361D361450105C15501158165053
:1013A000125817501358D8A0D8EF09F0DAEF09F007
:1013B000E3EF09F01450105E1550115A1650125AEE
:1013C0001750135A1A80D890173216321532143229
:1013D000182EC6EF09F01950D8B4F1EF09F0F3EF69
:1013E00009F0FBEF09F01D1E1C1E1B1E1A6C000EDF
:1013F0001B221C221D221AC010F01BC011F01CC0A1
:1014000012F01DC013F0120026EC0CF075EC0CF07D
:101410002CEC0DF075EC0DF020EEBCF0270EDE6A22
:10142000E806FDE27C868082010E0AEC0DF08EB4A7
:101430001CEF0AF01EEF0AF017EF0AF0EC0E086E30
:1014400016EC07F020EEECF000EE1EF0070EDBCFFE
:10145000EBFFE806FCE2E40E266EDDEC08F0BC0EC5
:101460001D6E010E1E6EECC01FF0EDC020F0EEC030
:1014700021F0EFC022F0F0C023F0F1C024F0F2C060
:1014800025F0F3C026F0E4C027F0E5C028F0E6C060
:1014900029F0E7C02AF0E8C02BF0E9C02CF041ECBD
:1014A0000CF03BEC0DF0BC0E056E066AB5EC0BF0D3
:1014B0003BEC0DF02A0E056E0550D8A40E0E066EFC
:1014C000B5EC0BF0190E3B6E5A0E3A6EB20EE82ECA
:1014D000FED73A2EFCD73B2EFAD717EF0AF032EFA1
:1014E00000F0000E096E07BE7AEF0AF078EF0AF0FE
:1014F00080EF0AF0066C071ED8B0072A010E096EAD
:1015000005BE87EF0AF085EF0AF08DEF0AF0046C54
:10151000051ED8B0052A010E091A000E0B6E000E2A
:101520000A6E06500710D8B498EF0AF09AEF0AF046
:10153000C2EF0AF0010E086EA2EF0AF0D89006364C
:101540000736082A07AEA7EF0AF0A9EF0AF09EEFC8
:101550000AF0D8900A360B360650045C075005583E
:10156000D8A0B5EF0AF0B7EF0AF0BCEF0AF00650CA
:10157000045E0750055A0A80D89007320632082EBA
:10158000A9EF0AF00950D8B4C8EF0AF0CAEF0AF080
:10159000CEEF0AF00A6C0B1ED8B00B2A0AC004F07A
:1015A0000BC005F01200000E096E05BEDCEF0AF05C
:1015B000DAEF0AF0E2EF0AF0046C051ED8B0052A53
:1015C000010E096E07BEE9EF0AF0E7EF0AF0EDEF52
:1015D0000AF0066C071ED8B0072A06500710D8B4C8
:1015E000F4EF0AF0F6EF0AF01AEF0BF0010E086EB6
:1015F000FEEF0AF0D89006360736082A07AE03EF4A
:101600000BF005EF0BF0FAEF0AF00650045C075000
:101610000558D8A00EEF0BF010EF0BF014EF0BF005
:101620000650045E0750055AD89007320632082E3D
:1016300005EF0BF00950D8B420EF0BF022EF0BF0C0
:1016400026EF0BF0046C051ED8B0052A04C004F088
:1016500005C005F012000650D8B431EF0BF033EF9F
:101660000BF03BEF0BF00650D8A439EF0BF03BEF3B
:101670000BF040EF0BF004507AEC0DF07FEF0BF025
:101680000650D96EDA6A0A0ED926DE50DE10D8B4BA
:101690004CEF0BF04EEF0BF067EF0BF00650D96EEE
:1016A000DA6A0A0ED9260650E16EE26A030EE126D6
:1016B000DE50E65CE650800A0B6EDE50800A0B5866
:1016C000D8B065EF0BF067EF0BF07FEF0BF0065033
:1016D000D96EDA6A030ED926DF50076E0650D96E2E
:1016E000DA6ADF500724D96EDA6A04C0DFFF0650D9
:1016F000D96EDA6A030ED926DE2A000EDD22120028
:10170000000E0C6E000E0D6E000E0E6E000E0F6EB3
:1017100004A08DEF0BF08FEF0BF097EF0BF008505C
:101720000C2609500D220A500E220B500F22D89081
:10173000083609360A360B36D8900732063205329B
:1017400004320450051006100710D8A4AAEF0BF0BD
:10175000ACEF0BF088EF0BF00CC004F00DC005F0FF
:101760000EC006F00FC007F01200CCEF0BF005C062
:10177000F6FF06C0F7FF000EF86E0D0EF76403D0FB
:101780000800F55005D0F6CFE9FFF7CFEAFFEF509C
:10179000D1EC0CF0054A062A05C0F6FF06C0F7FF9B
:1017A000000EF86E0D0EF76403D00800F55005D05A
:1017B000F6CFE9FFF7CFEAFFEF500009D8A4E3EF37
:1017C0000BF0E5EF0BF0B7EF0BF01200066EBDEC7F
:1017D0000CF00E01DA87BDEC0CF0D5CE07F0BDECB5
:1017E0000CF00650D8B4F7EF0BF0FBEF0BF0056AE6
:1017F000052AFCEF0BF0056A053A05460E01DA51A1
:101800000518DF0B0518DA6FDA89075012001AC0C5
:101810001CF013EF0CF019C00EF01C0E0F6E1BC065
:1018200010F001EC08F01CC0F6FF0E0EF76E080079
:10183000F5500009D8A41FEF0CF021EF0CF00BEFCE
:101840000CF0000E1A6E000E196E12007C9E849E23
:101850008096889686840E01B4958686B497809289
:1018600088927C9884987C968496A797809088909C
:101870007E9086907F9087907D9E859E79968196BA
:1018800012001F0E2D6E1DC02EF0000E326E000EC7
:10189000316E000E396E000E386E2E0E196E1EC09F
:1018A0001AF02D0E1B6E07EC0CF01D503124D96E72
:1018B000DA6ADF6A12000BBE60EF0CF062EF0CF028
:1018C00068EF0CF00AC00AF00BC00BF074EF0CF0DC
:1018D0000AC00CF00BC00DF00C1E0D1E0C4A0D2A98
:1018E0000CC00AF00DC00BF01200A8EC0CF0010EB9
:1018F000066E000E1CEC0DF03F0E086E550EE82E25
:10190000FED7082EFCD70000030E066E000E1CEC5E
:101910000DF0D50E066E010E1CEC0DF0120001EE5E
:1019200000F0280EEE6AE806FDE100EE60F05C0EC5
:10193000EE6AE806FDE100EE3CF01D0EEE6AE806F8
:10194000FDE159905992000EF86E000104EF0AF083
:101950000E01D951F00B0809D96FD98B9F0ED66FA4
:10196000848A848CA79BA79D1D0E1D6F1E0E1C6F65
:101970001C0E6F6F1B0E706F12000E01D8B5C3EFF7
:101980000CF0C5EF0CF0BDEF0CF0DACE04F01F0E3A
:101990000416D8A4CEEF0CF0D0EF0CF0BDEF0CF095
:1019A0001200046E3B0E5664D8EF0CF0DAEF0CF028
:1019B000DCEF0CF0000E566E5650600FD96EDA6AEE
:1019C00004C0DFFF562A1200016E130E5864EBEFBD
:1019D0000CF0EDEF0CF0EFEF0CF0000E586E5850DD
:1019E0003C0FD96EDA6A01C0DFFF582A12003B0EA5
:1019F0005564FDEF0CF0FFEF0CF001EF0DF0000E61
:101A0000556E552A5504016E0150600FD96EDA6A81
:101A1000DF501200046E0450D8B411EF0DF013EF34
:101A20000DF018EF0DF07F807D8E79861BEF0DF0A5
:101A30007F907D9E79961200076E70EC0DF0520E2D
:101A400060EC0DF00750800960EC0DF0065060EC82
:101A50000DF06BEC0DF01200120E0E01626F110E04
:101A6000156FE997E895330EE56F000EE66FE7898D
:101A7000E88BE78F120048EC0DF00009D8B443EF73
:101A80000DF045EF0DF047EF0DF00E012D85120022
:101A900055505618D8A44FEF0DF052EF0DF0010E2F
:101AA00053EF0DF0000E120055505618D8A45BEFFE
:101AB0000DF05EEF0DF0010E5FEF0DF0000E120065
:101AC000056EBDEC0CF005C0D5FE1200BDEC0CF0AF
:101AD0000E01DA831200BDEC0CF00E01DA85120063
:101AE000BDEC0CF00E01DA8112000E012D87F28C94
:061AF000F28E120012004C
:020000040030CA
:02000000AAFF55
:020004009FFF5C
:00000001FF
