:04000000EDEF07F029
:100E00000000E8EC07F0520ED8EC07F0BA0ED8EC70
:100E100007F0DEEC07F0530ED8EC07F0010E29ECDA
:100E200007F0076E07500A6E0B6A000E29EC07F0F8
:100E3000076E0750096E086A0A5008100A6E0B50B8
:100E400009100B6EE3EC07F00AC005F00BC006F0CA
:100E50001200036E94EC07F00E01DA8794EC07F0B1
:100E6000D5CE04F094EC07F00350D8B43AEF07F075
:100E70003EEF07F0026A022A3FEF07F0026A023AE9
:100E800002460E01DA510218DF0B0218DA6FDA8916
:100E9000045012007C9E849E8096889686840E0163
:100EA000B4958686B497809288927C9884987C9634
:100EB0008496A797809088907E9086907F90879068
:100EC0007D9E859E7996819612007FEC07F0010E3B
:100ED000036E000EBAEC07F03F0E056E550EE82EBD
:100EE000FED7052EFCD70000030E036E000EBAECF1
:100EF00007F0D50E036E010EBAEC07F012000E01DA
:100F0000D951F00B0809D96FD98B9F0ED66F848AFF
:100F1000848CA79BA79D1D0E1D6F1E0E1C6F1C0EA3
:100F20006F6F1B0E706F12000E01D8B59AEF07F0AD
:100F30009CEF07F094EF07F0DACE01F01F0E0116D8
:100F4000D8A4A5EF07F0A7EF07F094EF07F0120081
:100F5000016E0150D8B4AFEF07F0B1EF07F0B6EF74
:100F600007F07F807D8E7986B9EF07F07F907D9EB8
:100F700079961200046EE8EC07F0520ED8EC07F0F8
:100F800004508009D8EC07F00350D8EC07F0E3ECEC
:100F900007F012004AEC07F065EC07F080827C86CF
:100FA000010EA8EC07F001EC07F07C8E00EF00F0DA
:100FB000026E94EC07F002C0D5FE120094EC07F02C
:100FC0000E01DA83120094EC07F00E01DA851200AC
:100FD00094EC07F00E01DA8112000001CAEF07F06D
:020000040030CA
:02000000AAFF55
:020004009FFF5C
:00000001FF
